:100000004D424E014D3448502301040001000000D0
:100010006000000000C000000000000000000000C0
:1000200000002101000000000000000000040000AA
:1000300001002301010024000004000000900000E2
:100040000200010125002A000094000000180000B1
:10005000030001012B002F0000AC00000014000081
:1000600000380020890100000000000000000000AE
:100070000000000000000000000000000000000080
:100080000000000000000000000000000000000070
:10009000000000000000000000000000550000000B
:1000A00057000000950000006D0000008100000076
:1000B00000000000FEE7034B01221A70024B0022F1
:1000C000DA7770470000002008000050034B01223F
:1000D0005A70A0230022DB051A7070470000002030
:1000E000034B01229A70A0230022DB059A7070470F
:1000F0000000002010B58022D2051379DBB2002B5E
:100100000CD12A4C6360A360294B10891B6880B214
:10011000E060002B3ED0984720613BE0012B09D1E5
:10012000224B1869002835D099684C1C9C60137AC2
:1001300043542FE0022B28D11C4C2369002B03D001
:1001400061685B5C1BBAD3601A4B1B68002B05D03F
:100150006268E168501880B2984712E0E16862680E
:10016000802388182138FF38DB05072806D8611856
:100170008A180D3AFF3A127812BA01E0FF221206ED
:10018000DA6063680133636004E0032B02D1074B3C
:1001900000229A60C0468023DB0501221A70C04607
:1001A00002221A7000221A7010BDC0460000002002
:1001B00024000020200000207047031C00208B42F8
:1001C00002D204CB8018FAE7704780230222DB05B5
:1001D000FF321A600421034AFF31118000221A7095
:1001E0007047C04606000040F8B5A023DB059B68B9
:1001F0004F4A1F21DBB21160D12B0DD0D02B01D87B
:10020000013300E0013BA022D2059168FF20DBB260
:10021000814319439160EFE7464B474A191D043B60
:10022000934203D200221A600B1CF6E7FFF7CDFFC2
:10023000424B4349D889434BCD885A88424C130AD4
:100240006375424E01235B42ADB22275A375E3751F
:1002500023766376A376E376B0420ED0A8420CD123
:100260008B88934209D13A493A480439FFF7A5FFF0
:10027000002802D12B0AA575E375374BDA89FF2ACE
:1002800013D0364FDA89FB889A420ED1BB88AB4235
:100290000BD1334933480439FFF78FFF002804D1CD
:1002A000FB889BB223761B0A63762F4FFB8BFF2BB9
:1002B00023D02E4BFA8B598A8A421ED11B8AAB421D
:1002C0001BD100221023013BDBB2FF2B04D02849B5
:1002D000C95C5218D2B2F6E7002A0ED12549264D44
:1002E00026481039E561FFF768FF3B8A984204D140
:1002F000AB899BB2A3761B0AE376E27DA37D120253
:100300001A43124BB2420BD0627E217E12020A4384
:100310009A4205D0E27EA17E12020A439A4204D19B
:10032000174B02221A6062B6FEE700F0A1F8F7E769
:1003300028000050040000202800002000040000D5
:10034000F8930000FC03000000000020FFFF000005
:10035000009400000004000000940000F8AB0000CE
:1003600000AC00000094000000AC0000ECBF0000F6
:10037000F0BF000000C00000F2BF000000AC0000B1
:1003800000E100E0FFFFFFFFFFFFFFFFFFFFFFFFB8
:10039000FFFFFFFFFFFFFFFFFFFFFFFFFFFFFFFF6D
:1003A000FFFFFFFFFFFFFFFFFFFFFFFFFFFFFFFF5D
:1003B000FFFFFFFFFFFFFFFFFFFFFFFFFFFFFFFF4D
:1003C000FFFFFFFFFFFFFFFFFFFFFFFFFFFFFFFF3D
:1003D000FFFFFFFFFFFFFFFFFFFFFFFFFFFFFFFF2D
:1003E000FFFFFFFFFFFFFFFFFFFFFFFFFFFFFFFF1D
:1003F000FFFFFFFFFFFFFFFFFFFFFFFFFFFFFFFF0D
:10040000FFFFFFFFFFFFFFFFFFFFFFFFFFFFFFFFFC
:10041000FFFFFFFFFFFFFFFFFFFFFFFFFFFFFFFFEC
:10042000FFFFFFFFFFFFFFFFFFFFFFFFFFFFFFFFDC
:10043000FFFFFFFFFFFFFFFFFFFFFFFFFFFFFFFFCC
:10044000FFFFFFFFFFFFFFFFFFFFFFFFFFFFFFFFBC
:10045000FFFFFFFFFFFFFFFFFFFFFFFF2101210164
:100460004D344850434F5431000000000000230138
:10047000F0B5E3B002AF03F05AFF05F0D3FCB8616A
:1004800008F046FA002008F0BFFA08F0F1FF00F08B
:1004900021FFD54AD54B1A60D54AD64B1A6005F0D4
:1004A000C1FC061E072E00D1A9E2072812D8032896
:1004B00000D183E204D8012800D141E222D949E2E7
:1004C000052800D189E200D990E205F031FD02F063
:1004D000B7FD7DE20C2800D1B6E209D80A2800D188
:1004E0009FE200D9A7E2082800D191E2BE61D6E7D9
:1004F0000E2800D1BDE200D2AFE20F28F6D105F000
:1005000017FDC8E205F0A4FC051E14D00128EDD1AA
:10051000B94B00241B68302118621C613F233C86C4
:10052000CB55391C201C2C31221CFC6205F06CFDC3
:100530007C623D62A4E00124012C02D0022C0BD08D
:1005400087E0002001F022F803F02EFBC0B205F096
:100550009DFD022002F098FBA74B6A461B68FA61DA
:1005600019685A681B695143CB189B000A33DB0892
:10057000DB0039626946C91A8D463D1C02AADC358A
:100580003C1C7A62281C00215222883408F08AFB25
:1005900000212A22201C08F085FB98497A6A0B6802
:1005A000396A1A608A00796A5D618A185A609C61AA
:1005B000934B3A621B6869462D331A785200131C1C
:1005C0000833DB08DB00C91A8D4602AD0021281C68
:1005D00008F068FB786A396A01F00CFABA69002AF7
:1005E00001D005F0A5FC874B00221B681A6005F0BE
:1005F00047FD041C03F0D8FAA04204D0201C03F0ED
:10060000D8FA022409E000953A1C3B1C786A396A42
:10061000DC32883302F022FA041C7A4B7A491B68D8
:100620001A688A4201D001321A60002C07D105F005
:100630000FFC002803D105F0F5FB0028D7D06F4947
:1006400000220B681A605A605A619A61FA69BE61A9
:10065000954605F0FDFB002800D047E705F0E2FBDA
:10066000002800D168E741E7022A0FD005F0F0FB2F
:10067000012800D03AE705F0D5FB002800D035E787
:100680003A6A012AF0D1022002F0FEFA5A4B69467A
:100690001C68B9606368226821695A4353189B003B
:1006A0000A33DB087A61DB006A46D21A9546381CA9
:1006B00002AB0021A422DC30FB613D1C08F0F2FA01
:1006C000381C002152225C35883008F0EBFA0021FA
:1006D0002A22281C08F0E6FA6269A3696946534396
:1006E0009B000A33DB08DB00C91A444B8D461B68AC
:1006F000F96902AA19607969FA608A00F9699D614D
:100700008A187A615A608821DC22D219C9191A61C3
:1007100059613C4B1A68136E526E00927A69F86800
:10072000F96906F0C7F9BA69002A01D005F000FCA2
:100730000024A22338213C87CB55391C201C34319E
:10074000221C7C6305F060FC2E4B1B681C6005F0CE
:1007500097FC051C03F028FA3861A84205D0281C34
:1007600003F027FA02223A62C8E0002C7AD1224B29
:1007700069461B6879609A6951005A6901324A4397
:10078000131C0833DB08DB006946C91A8D4602AB2F
:10079000181C211CBB6108F085FA042003F0CAFB79
:1007A000184DB8692B68FA68196E06F009FA786274
:1007B00001283AD1124B1B685B7C002B26D003F03A
:1007C00071FA201C05F04CFB2B6840215C60CA19B3
:1007D000CC530E23391C1370201C3C31221CFC63AB
:1007E00005F012FC3BE0C046396000002400002008
:1007F0009960000020000020F40400202C0000205C
:100800007010002028000020FFFFFF7F052003F06C
:1008100091FB391C4431A323201C221C8C807C6456
:100820000B7105F0F1FB7C6A19E09D4DF8682B68AF
:10083000B9695A7806F0AEFA2968087803F0B9F970
:1008400003F0CEF92B68587802F0B0FF201C02F0BC
:10085000E5FF386903F0ADF903F0E6F93C627A6828
:1008600095464BE08E4B1B6898788E4B1B689867BB
:1008700002F09CFF052003F035FB3B1C5C3300932A
:100880003A1CF8697969DC322C3301F091FB38624B
:10089000002805D1381CDC3007F072FFC0B2786246
:1008A0007B6A022B12D103F011FB012002F073FFCF
:1008B000002005F0D5FA0022391C4C310E23101C03
:1008C0008A80FA640B7105F09FFB17E0796A0029B2
:1008D00010D103F0FBFA012002F05DFF7A6A391CA7
:1008E0005431A223101C8A807A650B7105F08CFBB1
:1008F0007C6A03E003F0EAFA03F0D4F9694B6A4931
:100900001B681A688A4201D001321A60396A0029CC
:1009100008D105F09DFA012804D105F083FA0028DA
:1009200000D114E708F022F8604B00221B681A601F
:100930005A601A615A619A61BA68BE61954695E635
:10094000002005F009FB05F0F3FA05F06BFA012829
:10095000FBD0CBE501F09AFA05F058F9002003F03E
:10096000B7FB03F03DFB00F0A5F802F09FFD504BF4
:10097000C35C0020002B00D1022002F085F905F0B5
:10098000D7FA05F0F5FA02280CD004D801280ED1C8
:1009900001F032FB0BE0032807D0042807D104F054
:1009A00099FE04E001F0E4FB01E001F087FC05F0B2
:1009B00039FA0228E5D001F0C5FA97E505F0B8FA52
:1009C000012002F061F905F02DFA0328FBD08DE536
:1009D00005F028FA0428FBD088E505F0A9FA04F010
:1009E00031FD05F01FFA0528FBD07FE505F0A0FAE0
:1009F00002F058FC05F016FA0628FBD076E505F063
:100A000097FA00F0A9FB05F00DFA0728FBD06DE579
:100A100005F08EFA03F0C0FC05F004FA0828FBD0BC
:100A200064E505F085FA012000F0B0FD05F0FAF963
:100A30000A28FBD05AE505F07BFA04F093FB05F099
:100A4000F1F90B28FBD051E505F072FA00F0BEF980
:100A500005F0E8F90C28F9D048E505F069FA00201E
:100A600003F068FA03F042FB05F0DCF90D28F6D03C
:100A70003CE505F05DFA002002F0D7FD002003F010
:100A800059FA03F033FB05F0CDF90E28F6D001201A
:100A900002F0CBFD2AE505F0C5F90F28FBD025E5CE
:100AA0007410002028000020FFFFFF7F2C00002092
:100AB000C6030000F8B5164D7146281C764603F0B3
:100AC00027FD144C276803F033F9B865276803F055
:100AD00033F9F865276803F033F93866276803F0BF
:100AE00033F97866276803F081F9B866276803F060
:100AF00049FA094A094912680968F866C978127CF6
:100B000023684A43281C311C5A6703F019FDF8BDBD
:100B1000550A0000280000207010002074100020EA
:100B2000014B18607047C04670100020014B1868D8
:100B30007047C04670100020014B18607047C046D7
:100B400074100020014B18687047C04674100020D4
:100B5000014B18687047C04628000020014B5868B8
:100B60007047C0462800002038B50B4C7146201C49
:100B7000754603F0CDFC094B201C1B68DA68002A7F
:100B800003DD59695218D20F00E000227D33291C81
:100B90001A7003F0D5FC38BD090B000028000020B6
:100BA000F0B5384F73468BB07146381C019303F093
:100BB000AFFC354ECB2233689200995C1A1C7D3213
:100BC000002904D1C4218900595C002901D00021E9
:100BD00011701478002C2CD01A1DD26F03A9079223
:100BE0005A6900240892DB688C80099303234B70B8
:100BF0007C235B42CB7010230B71244B01251B68B7
:100C00000D708D700533DA7F48797F23D201034060
:100C10001343201C07AA4B7105F0F6F9336804331F
:100C2000DA6F022A02DC5219DA6723E0DC672C1C37
:100C300020E05A6905A90792DB688C80089301239C
:100C40000B708B707C235B42CB7064230B710F4B5A
:100C500002221B684A700533DA7F48797F23D2016C
:100C600003401343092007AA4B7105F0CDF93368FF
:100C70000433DC67381C019903F062FC201C0BB0C4
:100C8000F0BDC046410B000028000020F404002005
:100C900038B5054C75467146201C03F039FC291CFB
:100CA000201C03F04DFC38BD310C000038B5054C5C
:100CB00075467146201C03F02BFC291C201C03F0F8
:100CC0003FFC38BD4D0C000038B5054C75467146EB
:100CD000201C03F01DFC291C201C03F031FC38BD36
:100CE000690C0000F7B5344D73467146041C281C8E
:100CF000019303F00DFC314B314A1B68AC46995C03
:100D0000CB229200002905D02E49595C002901D13F
:100D1000012199549A5C002A46D0C42200259200F1
:100D20009D54294A2E1C1768291C3A6A013A0DD392
:100D300050002018543000880028F7D0013100B24C
:100D4000C9B28542F2DA051C161CEFE71D4A9A5C0F
:100D5000002A0ED101290CD9012222703A6A013AE7
:100D600009D3B242FBD051006118543100200880F1
:100D7000F5E7002903D0CC220021920005E0CC2227
:100D800092009958032901DC01319950CC2292003C
:100D90009A58032A0BDDCB22002192009954C422D9
:100DA00001219200995402E0CC2189005A506046FA
:100DB000019903F0C5FBF7BD850C00002800002059
:100DC000110300003E030000F4040020F0B599B0C8
:100DD00000AF7446714698487C6103F099FB02F0BD
:100DE0004DFB964D2C68E368A6685A00BE64111C42
:100DF000C07908319B00C9080A333864C9006846C5
:100E0000DB08401ADB008546C01A23696E4659008C
:100E100008319B00C9080A33C900DB08DB0085469E
:100E2000F862401ABE638546C01A6E46B8628546AF
:100E30000021B86B7E6307F035FF22690021520064
:100E4000786B07F02FFF002003F074F82868BE6C61
:100E50000468321C62437A4B91001D68B3005B4208
:100E60007B62B307F964F31A91073B62891AFA634C
:100E7000013C22D34668FA6B931966437618B20098
:100E8000FE6A9B00B2187A64FA6C93420BD07A6CBB
:100E90000426D21894462A6E7642D258B444664646
:100EA0003260043BF0E77E6A9219FA64BE6CFA6B1A
:100EB000921B3E6AFA638919DAE73C6C604B013C8D
:100EC0003A6C1868FC61A300013A05D3416EBE6A12
:100ED000C958F150043BF7E73B6C013B9B00BB61F9
:100EE00004F0A0FF0C2800D09FE0002003F022F8BF
:100EF000524B1868524B01681D68BB6C79644B43B8
:100F00009A00FA649A07D21A3A63FB630A1C013A00
:100F100034D34168FC6B0E1C56436318494C9B004C
:100F200009198919BC6B490061183C6B3619FC6AB8
:100F3000B600A6197E60FC6CA34213D07E68F4183C
:100F4000043C2668B4462E6EF4586646361BBE60D6
:100F500000268C5FA446BC68A44500DA0C80043BE4
:100F60000239E8E77E6AF96BA419FC64BC6C3E6B3D
:100F7000091B3C6AF96336193E63C8E7304BFE69CA
:100F80001D687C6B73003E6CBA69E318FE64FC6CF0
:100F9000013CFC640ED3BC6A6E6EA458FC60F96818
:100FA000B4580C1B00215E5EA64200DA1C80023B96
:100FB000043AECE7037900245426F4535126F35500
:100FC00080267A6C52207642C35550210225331C6C
:100FD000CA552B435321CB555422391CD05550317F
:100FE000BA6B012005F010F85C23DC530120582473
:100FF000E0553C6C5921CC5571235C24E3550F4BD3
:1010000035431B685A215B22C8555D26D5550533EB
:10101000F15DDA7F7F23D2010B401343F1190B708E
:101020007A6B053904F0F0FF5AE70348796903F059
:1010300087FABD4619B0F0BD6D0D0000F404002024
:1010400028000020FFFFFF7F82B0F0B589B0109C20
:10105000151C0F930693029407900E1C119C02F02E
:101060000DFA47793A4B04978279964206D11B686C
:1010700000215A6EAB00D05A03910BE01A68354B31
:10108000126E1968731C896803964B43EB18013381
:101090009B00D05A0499714349194A00A418238827
:1010A000069E0193019F7318874203D8C61B029FB7
:1010B000BE521CE0029EB61805960027F65F013668
:1010C00010D01F787EB2B446013601DA013703E052
:1010D0006646002E06DD013F1F7002235B4223801F
:1010E00001202FE0069F79180F78002F01D1208072
:1010F0000CE07FB27C1C05D1019E059F301A388020
:10110000002002E0012F01D1FF2008701978039C14
:10111000049E079F48B274437D19002805DC029E97
:10112000B25E013208D0002906D12A5700203E2A9B
:1011300008DC0131197005E02A57002A01DD013968
:101140001970002009B0F0BC08BC02B01847C046B6
:1011500028000020F4040020F0B5714691B07446D8
:101160005848099403F0D4F902F088F9069005F084
:1011700037F8554B069D1A68ED7917689068079502
:101180003D1C4543514B81001E6805914B42A9000F
:10119000741A029003944E488024BC46089300952C
:1011A00024066746013FBC4621D3009D5768EB19D2
:1011B0009B008B4210D0039FFD18376E8035FF587F
:1011C0002D687D1B0495AC4200DA2C1C049FB842AC
:1011D00000DD381C043BECE7039D059F089BED19DF
:1011E000C9180395009B029D5B1B0093D9E70F90E4
:1011F0006946002029252A2788850E9401230AACF8
:1012000002216D446F44297023703B702B217C2395
:101210005B4269440B700BAC54232D2523706D4445
:1012200005322978D27F7F23D2010B4013430AA9CC
:101230000EAA2B7004F0E8FE244B254F80251E6873
:10124000079C02972D06013CE4B2FF2C16D0776E66
:1012500006980397417A079807F076FC039BA7004E
:10126000FA58C9B2F76E8900CB59D31A9D4200DAF9
:101270001D1C029F9F42E6DD0293E4E70CA90123B7
:101280000B708B707C235B42CB7000206B238880BB
:101290000B710D4B029C1B6802220F940E954A7035
:1012A00005334C79DA7F7F23D201234013430EAA02
:1012B0004B7104F0A9FE0348099903F041F911B0FC
:1012C000F0BDC046F9100000F40400202800002002
:1012D000FFFFFF7F37B5114C7146201C754603F0A8
:1012E00017F905F0D1FD02F0B3FE021E07D16946E1
:1012F000A923888000900B7104F086FEFEE7084B5E
:101300001B6803CB02F09EF905F0D6FDFFF7D2FB78
:10131000291C201C03F014F937BDC04675120000CB
:10132000F4040020F0B591B000AF744678613961E3
:1013300092487146FA60BC6003F0EAF803F0AAF83C
:1013400085002B1C0A33DB08DB006E46F61AB54617
:101350006C46B8616846FC6203F0A4F8BE6976008A
:10136000331C0833DB08DB00E01A85463E636C461D
:1013700002267C6203F0B2F87E637C6B013C7C63E6
:101380007F4C7E6B2368B6009A19FC32D06AFE61EE
:1013900063282FDD0021D1627A6B502656439821B5
:1013A000490070181818FF212A1C07F07BFCD13661
:1013B0002268FF36901900212A1C07F073FC7B6B12
:1013C00028265E439C212268890070181018FF218E
:1013D0003A6B07F067FCB02321689B00F618881968
:1013E0003A6B002107F05EFC23687C6B0122FC3322
:1013F00062409A62624BF8691E68031CB4466344FB
:10140000FC33DA6A7C6B0132DA62002CB5D1FC6AFB
:10141000BE6965197300BD623E6B7D6A5B42AD19A2
:10142000FB6166447B6B7D62FE62F869834234D067
:10143000B96A5A008A187C6A043A3D6B1068E2184F
:10144000023AFE6A14885A194E4D52007119BE268E
:101450007600351C6544AA180225C9187D607E688F
:10146000013E7E60161CA0363568854200D2306091
:101470001668864200D910600E1C50363588A54289
:1014800000DA34800E88A64200DD0C807E682839A0
:10149000503A002EE3D1023BC7E73B4BFD68196889
:1014A00000234A688C46364990000E682C183A632F
:1014B0003018043B013A04D3C518E65884352E6031
:1014C000F7E70A685020131CFC339B6AE824584352
:1014D000282664005E4301193130FF30B025101812
:1014E000AD00F86270191018B8629C2080003618A0
:1014F000002451189619251C786BBB69984211DAA3
:10150000786B8300C8582D18F86AC358786BED1AA9
:101510004300B86AC05AF35AC31AE4187B6B01330C
:101520007B63E9E70023BB87396B01233826F3553A
:1015300039203A26C155F3553B200423C3553C219D
:101540005B23CB5563460533D97F3D23D85D7F238D
:10155000C90103400B43391C84323D260220383137
:10156000F35504F051FD7E69044835803D69B96842
:101570002C8002F0E5FFBD4611B0F0BDC5120000A1
:101580002800002096020000F4040020F0B5A3B06B
:1015900000AF76467146B861E248BE6002F0B8FF1F
:1015A000E14C2368DB68BB635B0001333B6502F001
:1015B000EBFA2368FF22DB68F865D31A984200DD56
:1015C000FB656E46F86D02F0E7FA7E643E6D684694
:1015D00075002B1C0833DB08DB00C01A85466E46FD
:1015E000FE640123602161226226CB55F355D35559
:1015F000002464207C23C4535B426320C3556421D0
:10160000B123CB55C94B65261B68201C0533DA7FF7
:101610006523D95D7F23D2010B401343391C3A1C4B
:1016200060315C32F35504F0EFFCF86DBE6B831B48
:101630009BB23E6DB44205DAFE6C62001919B152DC
:101640000134F6E73A6D0126D2B268216923CE55FE
:10165000DA556B210223CB55B44B00246C201B6858
:10166000C4536A20C6553A610533DA7F6D23D95DCC
:101670007F23D2010B4013436D20391CC3556831C1
:10168000201CFA6C04F0C0FC2B1C796C08338D46CE
:10169000DB08DB006A46D21A9546D21A694695469F
:1016A00079633A6302F0F6FE396D78647A6C8B00E8
:1016B0005A43131C0A338000DB08DB00F8606846DD
:1016C000C01A8546C01A3A62B8626A468546301C1E
:1016D000FA6202F0F1F8211C2A1C386B07F0E2FADA
:1016E000786B211C2A1C07F0DDFAFE68FC64FE61A1
:1016F00000213A6AF86A07F0D5FAB86AFF213A6A17
:1017000007F0D0FA0026884B3E601B683E689B6855
:101710009E424FDABE6BF96DF6B2881BC0B27E6591
:1017200002F047FA02F010FA02F0BCF800252C1C77
:101730003E6D0134E217F30FB4425341DBB23B6418
:10174000002B08D17E6DF96DA01B4018C0B202F0CD
:1017500030FA02F0F9F9FB686E460A33DB08DB0069
:10176000F01A85467E616E46FE6302F09BFE002302
:10177000191C7E6CB14210DAFE6BF258FE6A7019C9
:10178000C658964200D2C250BE6A7019C6589642D8
:1017900000D9C25001310433EBE77E69B546FE69DA
:1017A000AD193E6C002E02D102F07CF8C0E73E6815
:1017B0000136A8E75E4E00257D653E642C1C3E6D1B
:1017C000B44228DA0020031C7E6CB3420CDAFE6AB5
:1017D0009A007619B158BE6A8C46711984448A58A9
:1017E0006146881A0133EFE73E6C864206DDF96DEB
:1017F000BE6B63189B1B7B623864BC647E6D864243
:1018000000DA786502F042F87E6B6300F052FE6900
:101810000134AD19D3E7444B7E6D1B68DB889E42D3
:1018200006DABE69012E03D0FE6D7E62BE6BBE6419
:10183000404B32211B680022FC33D9626421FE69CF
:101840009A621963BB6C151C7343BE6AF618FE637B
:10185000FE6AF3187B617E6CB54225DAF96BA8004D
:101860000958344C3864081C2668796002F00EF878
:101870002B1C4C339B0098517A693B6C2668D058DE
:1018800002F004F82B1C74339B00226898516B0003
:10189000D31801219C22494292009952B022002182
:1018A000920099520135D6E7BE69012E44D13A6BB8
:1018B00000233E6DB34209DA7E6B5900715A1088DD
:1018C000884200D2118001330232F2E7BE6C73000D
:1018D0003E6B9A5BFE6C131CB24200D2331C9BB26F
:1018E00000207421C853FB64396901237022D35549
:1018F00071267222F155D35573260223F3550B4BF3
:1019000075261B680533DA7F7523D95D7F23D201E5
:101910000B40391C134370313A6BF35504F074FBE0
:101920000FE0C0462D15000074100020F4040020C4
:10193000FFFFFF7F28000020786D01F0A7FF80B235
:10194000F864BE6C8020C6537E6A8220C653BE6C8B
:10195000862175007E6B84207519FE6C2B88CE5312
:10196000391C7831C35304234B7002230020CB7001
:10197000B22388800B711A4B01241B680C708C7089
:101980000533DA7F4E797F23D201334013433A1C6B
:1019900080324B7104F038FB124B1A68124BD05C4A
:1019A000002808D1114B1B68DA882B889A4200D294
:1019B000201C04F05FFBBE69002E0AD17E6AF0B2E3
:1019C00002F0F7F80A48B96802F0BAFDBD4623B044
:1019D000F0BD04F027FA0A2800D189E6EEE7C046F8
:1019E000F4040020280000203F03000074100020B1
:1019F0002D150000F0B5264C85B0734601900F1CE4
:101A0000201C7146039302F083FD002002F092FA3D
:101A1000204B1B681A6E9E6E029202F077F9051C2D
:101A200002F07EF9311C031C2A1C029804F0DEFB34
:101A3000194D00212B680198DA68920007F032F9FD
:101A40002B6800211A69381C920007F02BF904F06A
:101A5000B5FBC578061C002D0CD0002002F06AFAF8
:101A60000C4B01981B68391C1A6E5B6E04F0E2FF88
:101A7000013DF0E7F278391C019804F0F1FC281CD4
:101A800002F058FA201C039902F05AFD05B0F0BD8F
:101A90009519000028000020F4040020F0B58FB054
:101AA00002AF7346B8607960924871463B6002F0BD
:101AB0002FFD914B68461A68904D136852689E1C22
:101AC00002325643520076005208311C0133534310
:101AD0000831C908C900401A8546013302AC5B00D1
:101AE000E3187B61864B79691B682868D9609C6024
:101AF000FA6000213C220C3007F0D4F8321C00219F
:101B0000201C07F0CFF82B68B868191C1A6E0C312E
:101B10009B6E0090201C04F0F5FD2B68061C786875
:101B20005A6E191CDB6E00900C31786904F046FD8A
:101B30000643F6B23E612E68301C311C48310C3031
:101B400004F0F6FC6F4A2B68126830651020115EB5
:101B5000986B88420EDC1220115ED86B884209DB3C
:101B60001420115E186C884204DC1621525E586CF9
:101B700090421EDA1B7ADBB2002B1AD13B8528215A
:101B80000123CB5504F080F9002812D15B4B1B6870
:101B90001B68FF2B00DDFF23381C2922022128307F
:101BA000D35504F079F8584802F000FD01F0A4FD87
:101BB000E8E7514E0023BB833368012518689A6813
:101BC000596880233876BA7602205B42013203439B
:101BD00079765200391CFB76A21853230120183164
:101BE0003B7704F011FA336800212022B984D555DF
:101BF00019692222D55521208022C1555242022046
:101C000002432321CA5524206D22C25525210533C4
:101C1000DA7FCB5D7F20D20103401343CB55391CC3
:101C2000281C20317A6904F0EFF9336828221868FB
:101C30002921D0555A682A20CA5599685A1DC1557C
:101C4000D27F2B20C2551B692C212D22CB55D35D71
:101C50007F208343022180220B43524213432D20D5
:101C6000C355FB6800225B19AB40E318391C281CE4
:101C700028310093131C04F0A7F9FEF775FFFEF757
:101C80008FFF002827D11D4D2B68186E02F0A6FA91
:101C90002B68186D02F090F901F062FF3969002994
:101CA0000DD12B68211C1A1C0C329B6FB86804F0F4
:101CB00031FB2B6878689A6F796904F087FB022002
:101CC00001F0ACFD786905F0D1F9286800245430A2
:101CD00006F0BCFA00E00224094B00221B6805480C
:101CE0009A60DA60396802F02BFC201CBD460DB00A
:101CF000F0BDC0463D1A0000F4040020280000207A
:101D00002C0000207410002010270000F0B52F4D8B
:101D1000714685B0281C744602F0FAFB05F0C6F83F
:101D20002B4EFF303368417A1A1C71321278002929
:101D300002D151B2481C04D100275F60BA421FD1C2
:101D40002BE058685A6F904202DA586801305860A8
:101D5000012922D05B6893421FDB1E4B01271B68C1
:101D60005B7C002B0CD0381C04F07AF8002269460A
:101D7000A223101C8A8000920B7104F045F91FE029
:101D800000223B1C02A90E33101C8A8002920B71A8
:101D900004F03AF9336871331F7033681A1C7132DA
:101DA0001278002A03D10C4A1268D27804E0012A82
:101DB00003D1094A126812799A67986F01F0F6FC0C
:101DC000281C211C02F0BCFB05B0F0BDAD1C0000BE
:101DD000280000207010002074100020F0B5744618
:101DE000D1B00D1C05947146041C2648171C02F046
:101DF0008FFB04F0F5F9039005F058F80490201CCF
:101E000005F020F90021E42217A806F04BFF00217D
:101E1000402207A806F046FF1B4E17A83268916DB6
:101E2000D36D4832009207AA06F032FA336817A839
:101E3000996D07AADB6D009505F0C4FD211C17A85C
:101E40002A1C3B1C06F01CF83368201C996DDA6DC7
:101E500006F026F9201C291C3A1C05F037F9049BD2
:101E6000084CFF335B7A002B06D1039A1379002BC1
:101E700002D0012001F08FFC201C059902F060FBCC
:101E800051B0F0BD7D1D000028000020F8B5264CA3
:101E90007146201C764602F03BFB244B271C1B6836
:101EA0002F331B78002B3AD001F000FB041C01F00B
:101EB000F1FA1F4B051CE35C442203701D4BE35CED
:101EC0004370F2239B00E118463006F0A9FE1A4B3E
:101ED000281CE11844228A3006F0A2FE8A23DB0087
:101EE000281CE1180822D63006F09AFE8B23DB006E
:101EF000281CE1180322E43006F092FE0F4B281C48
:101F0000E1182422F93006F08BFE1E23FF33E81877
:101F10000B4B2422E11806F083FE06F06FFD381CFF
:101F2000311C02F00DFBF8BD2D1E000070100020CA
:101F3000C5030000C70300000C0400005B040000A0
:101F40007F04000038B5094C7146201C754602F02C
:101F5000DFFA06F0AFFD06F057FD002002F0B8F8FA
:101F6000291C201C02F0ECFA38BDC046E51E00001A
:101F700070B50E4CAAB07146061C201C754602F0C6
:101F8000C7FAA42201A8002106F08CFE311C01A88A
:101F900005F0E4F805F01CF901A805F0E3F9201CB0
:101FA000291C02F0CDFA2AB070BDC046111F0000F6
:101FB000F7B5754601950F4D0E1C071C7146281C80
:101FC00000921C1C02F0A4FA311C381CFFF766FDBD
:101FD000061E03D0201CFFF7CBFF04E00098211C55
:101FE000089AFFF7FBFE281C019902F0A9FA301CA1
:101FF000FEBDC046511F0000F0B58FB000AF744663
:1020000071465748FC6002F083FA564C6E462268CF
:102010000ACA5943CA1852000832D208D200B61A66
:10202000514A5B0012685B08301CFB614B00B546EF
:10203000D661BE625E08C3181362BE6101F01EFA6B
:10204000236838629B687B62827A437A002053431C
:10205000DBB2FB6201F06EFF444A7E6A20681568BD
:10206000B200524243687A61013B24D302687C6A21
:10207000990054433961591C091989003960013AA2
:10208000F2D33E69AC6E3968A4592E6EBC607458A8
:10209000B96800267E608C4201DD641A7C60FE69AE
:1020A000BC6A564379689E19760031533C687E6954
:1020B000A4193C60E3E72D4BFC6A1D68FB6A6400D1
:1020C0000133BE695B00FC61FC6A5B427B613319D2
:1020D000BE6A5B00F3187B6200247E69023CB44256
:1020E00016D0696E3A6AF869B961517A0619F86AC8
:1020F00006F02AFDBB697600F258C9B2EE6E89007F
:102100008B597E6AD31ADA43D21713403353E4E76C
:10211000FEF7BEFD134C3121236832241A7918686A
:102120003026CA55E2555A1D1B69F0553420D27F1E
:10213000C3557E235B423521381CCB553326B96A03
:102140003030F25503F0DCFC074B00221B680448DA
:10215000DA611A62F96802F0F3F9BD460FB0F0BD1A
:10216000991F0000F40400202C000020280000200B
:10217000F0B54E4D8FB000AF74467146281CFC6020
:1021800002F0C6F901F07AF9494C23689E68FE61B5
:10219000817A427A00204A43D2B2FA6244CB724337
:1021A00093195B000833DB08DB006946C91A414B11
:1021B00052001B688D46D961B9625108B961694600
:1021C0008A181A6201F0B6FE3B4B20681968026853
:1021D000FB6976005343760876007B62531E8C467B
:1021E00071425E43BB6A79619E193E6100263E6082
:1021F000013A1BD343687C6A3D683E69E118AD191A
:102200008900BD60013B08D365462D6EBE686D58E0
:102210005C007C6035530439F4E77E6AFC693D68F4
:10222000361B7E627E69AD193D60E1E7FD6ABE69DD
:10223000F96A214B01316C007519BE6A49006D00C5
:102240001868494275190023023B8B4205D0466E3F
:10225000E21852009259EA52F6E7FEF727FD144CB5
:102260003121236832241A791E683025CA55E25577
:102270005A1D1B69EE553426D27FF3557E235B42EF
:102280003521381CCB553325B96A3030EA5503F077
:1022900037FC084B00221B680448DA611A62F968AF
:1022A00002F04EF9BD460FB0F0BDC046112100004E
:1022B000F40400202C00002028000020F0B593B08A
:1022C00000AF744671466948FC6002F021F901F0E4
:1022D000D5F8674D69462C68A6683E62827A437AD3
:1022E0006668206853437043DBB2BB628319DA1D12
:1022F0005B00D2080833D200DB08891ADB008D4668
:10230000F862C91A5B4B6A46F86A7E636E468D4670
:102310001B68FE636E467E6216185A629E62101C2F
:102320000021E26806F0BEFC2269301C002106F0A4
:10233000B9FC514B7C6B1B6862007C33BC6A1B7818
:102340003E6A6400BB637C61B300BC6AFE6A5B42A8
:102350003B6133197E6A5B005208F318FA61BB6176
:10236000BD6B002D5AD0002001F0E4FD404B424AE5
:102370001C6816686368013B2ED32268396A581CB2
:102380005143401880003860013AF4D33968306E08
:102390007D6A4058F9693863514359184900495FCB
:1023A000091AFF2900DDFF21F86BCD43C0187860C2
:1023B000786BED1750430D4079680D54F969786AD0
:1023C0005143591849008C46396B654629523D687E
:1023D00038692D183D60D7E7274BBA6A1D6800237E
:1023E000023B013A16D37C696E6EE118BC69490064
:1023F0008859E15E091AFF2900DDFF21FC6AFE6BA6
:1024000036193E63CE43F61731403C6BBE69A1548A
:10241000F052E5E7BC6B013CBC63A1E7FEF754FC5E
:10242000134E4124336842251A7919684020E25539
:10243000EA555A1D1B69C1554420D27FC3557F23DD
:102440005B424521381CCB554326F96B4030F25591
:1024500003F056FB074BBC6B1B6804485C629C6234
:10246000F96802F06DF8BD4613B0F0BD5D220000C2
:10247000F40400202C00002028000020F0B593B0C8
:102480007546041C0591B5487146079502F040F861
:1024900003F0A6FE069004F009FD2478C6230494F8
:1024A000AF4E9B00002C03D037680022FA5005E0A5
:1024B0003268D158FE2901DC0131D1503368C52280
:1024C000049D9200002199548D425DD1A5495C5C28
:1024D000081C002C08D0595C49B2022900D0012107
:1024E000995400221A54B8E1C42080001C5CC7250E
:1024F000AD00002C08D001249C54049F9A4A5F54DC
:102500001F549F545F51A9E15C59002C08DD013C28
:10251000012C01D05C5137E0049F03215F5198E109
:10252000924A93491268D2888A422DD0CA218900E2
:10253000595A914228D38F4C2068827CC620800053
:102540001858904220DB10AA11808B49049F5B5AD7
:1025500008A9538002234B70CB7015238F800B7119
:10256000864B01201B68087088700533D87F4F792F
:102570007F23C0013B40034304984B7103F044FDAB
:1025800022683368D27C5A517A4C2568287D00280D
:1025900000D062E1049F724E002F00D09CE03468AE
:1025A000774BE35C002B6ED02B1C2C331B78002B5D
:1025B00069D0CD2310979B00E35804980393039FA1
:1025C000CA239B00E25A7B00059FDA532B1C2D3354
:1025D0001978031C4A00BA18059299420CD0059F3D
:1025E0005A00BF1A0222BC465242944467463F88B2
:1025F0000133BC466044F0E706F0B0FA1090EA8B75
:10260000CE239B00904202DAE258013200E0002221
:10261000E2502A1C2E321278E358934225DD7C23A7
:102620000AA95B420025CB7016238D800B71534B9A
:1026300001241B680C704C708C7005334879DA7F6C
:102640007F23D20103401343281C10AA4B7103F0CF
:10265000DBFC434BCD221B6892009D50CE229200A2
:102660009D50281C03F006FDF8E02B1C2D331A7832
:10267000039FCD23013A9B00974202DA0137E750CE
:1026800001E00022E250C82201359200EB7FA258FF
:102690009A421ADB00240CA91223201C221C8C80D5
:1026A0000C940B7103F0B0FC3368C92292003148DE
:1026B00099580068013199500230C07F814204DB93
:1026C0009C500221C5228A409954254B2D491B68F4
:1026D00000225A54C82160E03368C7229200985003
:1026E000294A9A5C002A5AD0CA25AD00595B10AA23
:1026F000214F1180DB5B0EA9538002234B70CB70FE
:10270000192388800B711D4B01251B680D708D707E
:102710000533DB7F7F25DB0105934B791D40059B4E
:102720002B434B71CA2503F06FFC22683368AD0060
:102730005C5BD08B1349844228D2DC5B508D844291
:1027400024D2595C00292AD1C82189000132585865
:10275000D27F904223DA0130585020E01D2400003F
:102760002800002013030000110300007410002053
:10277000FFFF0000701000202A030000F404002076
:102780003F030000120300003E03000001225A54E0
:10279000C821890000225A50C92189005A50334D5E
:1027A000334A2B689A5C002A57D1069F3A79002A4F
:1027B00051D0C42292009C5C002C4ED12D4ED86882
:1027C0003768798BBA8BFB8A3F8B009703F0B0FC9C
:1027D00036682B68718CB28C071CD868F38C368DE8
:1027E000009603F0A5FC2B68CA2292009D5A224E47
:1027F0002249BD4202DA5A5A82421FDB0AAA1580D8
:102800005B5A10A9538002234B70CB700020172312
:1028100088800B711A4B01251B680D708D70053374
:10282000DB7F7F27DB0105934B791F40059B3B43F3
:102830004B7103F0E9FB0D4B1B689D550B4B1B685F
:102840009A5D002A09D0049D002D06D0C4220121E2
:102850009200995402E008495A5401240948079902
:1028600001F06EFE201C13B0F0BDC0462800002011
:102870003E03000070100020110300002A03000036
:10288000F40400201D240000F0B56F4C724691B096
:102890007146071C201C039201F03AFE06F00AF96B
:1028A000051C03F00DFB694BCF22196892008A5C6E
:1028B000061C1C1CEDB2824220D000280CD0002245
:1028C0006B469A8269463B230B75101C04A904923F
:1028D000032503F099FB0DE006A93C23321C8880F8
:1028E00006900B7103F090FB594B2268D55C6B1E70
:1028F0009D41EDB2CF2321689B00CE5403F0EEFA48
:102900002168CF239B00CA5C061C002A20D1514BB2
:10291000C95C81421CD0002809D008A93923101CA9
:102920008A8008920B71022503F06EFB0DE00AA964
:102930003A23321C88800A900B7103F065FB444BEC
:102940002268D55C6B1E9D41EDB2236841495E54FF
:1029500003F070FA019003F0A5FA032F03D0019A57
:10296000002A04D108E0019B0126002B43D000205F
:1029700003F068FA01263EE0CF2321689B00CB5A82
:10298000019E0293002B36D1012F02D0022F04D0DA
:102990000EE0381C03F062FB0AE0029803F05EFBD5
:1029A00022682D49535C002B02D0029803F062FB91
:1029B00003F04EFB264E2268071C935D00228342E3
:1029C00018D0904209D00CA91123101C8A800C92B7
:1029D0000B71012503F018FB08E00EA913233A1C24
:1029E00088800E900B7103F00FFB3D1C23689F55F0
:1029F000002600E0161C06F05DF8A84209D0281C4D
:102A000006F052F8281C05F0FFFF002001F060FBE3
:102A1000012603F029FB23680F495B5C834200D049
:102A2000012603F077FA041C04F040FA28300378FA
:102A3000A34200D0047003F05FFA0348039901F049
:102A40007FFD301C11B0F0BD2928000028000020B7
:102A50003E0300003D0300003F030000F0B5BBB0A3
:102A600002AF75463861F9608048714600267D6086
:102A70007A61BB6001F04CFDA6232020391C1C317B
:102A8000321C3E84C355301CFE6103F0BDFAFFF7D3
:102A90003DF9301C01F026FA754D764A2B68CA21A3
:102AA0008900581899189A6EFEF73CFC2B68CA22C8
:102AB00092009A5A3C1C3C3422806E4A25219B5A33
:102AC0000222CA556380242001232721C355CA55F9
:102AD000262028223E85C355D355674B29201B68E5
:102AE0007F213B600533DA7FC35DD2010B40134386
:102AF000391CC21913700C202431221C03F084FAF3
:102B00005D482C2103682D201A68CA5559689A68B7
:102B1000C1552E20C255591DC97F1B692F20C15593
:102B200030213120CB55C35D7F218B4304210B43E2
:102B30007F2003403121CB552B6801321B6E920060
:102B40009A18391C009202202C31321C331C03F0DD
:102B50003BFA3869F968FEF7A1FF051EB54203D0BC
:102B60007869FFF705FA61E0201C291CA42206F011
:102B700099F8424B201C1B6879691C61BA68FFF701
:102B80002DF9F822D159201CFFF778FC201CFEF704
:102B9000A9F8201C04F0E6FB26786846B30007334A
:102BA000DB08DB00C11A8D4602AC3C61F8607E6137
:102BB0002C1C3C20C0190319663300215B5E002BDE
:102BC0000DDD7A693C23013A90007A6161003A692F
:102BD000DB1959181018A031042206F021F8023C24
:102BE000231C1433E5D1244B391C1B6834311C6879
:102BF00058689A680C7048708A700533DB7F013220
:102C0000CB707E235B424B71194B52001B68002432
:102C1000DB6D0C719A1800923B690320321C03F0A3
:102C2000D3F9164BF9681B688D461C6101F04EF90B
:102C300001F038F80E4B1A68C5239B00D056FFF7F9
:102C400023FE041E00D12C1C0D4B1B681A680D4B73
:102C50009A4202D001F0A0FBFEE70448796801F037
:102C60006FFC201CBD4639B0F0BDC046FD290000F8
:102C7000280000202A030000F40400202C0000207B
:102C800098100020CDCDCDCDF0B5A5B002AF7446E3
:102C90007146B862CE48BC6001F03AFC00F0EEFB31
:102CA000386500F003FC786300F0F4FBC94B3D6D20
:102CB0001C683863E2686E46131C0E33DB08DB00C9
:102CC0006D79F61AB54623697D6502AD3D640E3314
:102CD0007D6DDB085219DB00F61A131CB5460E3366
:102CE00002AEDB08BE64DB006E46F61A53000E33FC
:102CF000DB08DB00B546F61A02ADB546F61AFD63F1
:102D000002ADB54602AE0021F86BBE6305F0CAFF06
:102D10007E6DE068012132185200281C494205F0FE
:102D2000C1FFE168B86B72185200AB4905F0BAFFF9
:102D30008022D5513D6BE2682B78386C002B0ED089
:102D4000BE6A002E0BD0796B05F06AFFF025226970
:102D50007C6BAD00B86C611905F062FF55E0002195
:102D600005F0A0FF2269B86C002105F09BFFBE6A48
:102D7000002E4AD1386CB96C02F07EF900253C6D0A
:102D80007020FD66C553A3796C26F35563796F22D5
:102D90006D206E21C355CB55D35D7F260124B343EF
:102DA000802023434042D11903430B7070221D231E
:102DB000391CD35508203A6C6C3103F025F9391CC5
:102DC00074317D678D803D6D0C70EB798C704B702C
:102DD000CB788020B3431C431E230B717D4B4042B4
:102DE0001B680443CC7005334A79DB7F1640DB0156
:102DF0001E43BA6C08204E7103F006F97448B96896
:102E000001F09EFBBD4623B0F0BD7C6D4025630004
:102E10005B4200263B62FD62FE64B96C386C02F0D6
:102E20002BF9032001F086F86A4E002133686020F8
:102E30001C68C15358685C225D25D455E8559A68D2
:102E400004255F23DD5560245123E355634C5E2147
:102E50002368CA551B6E01329200391C9A18022051
:102E60005C3103F0D1F801226423DA550021336884
:102E70006820C15366211869CA556722D555652651
:102E80005A226825F055EA5569260533F15DDA7F47
:102E90007F23D2010B401343F01903702368391CC0
:102EA0005A6E0220643103F0AFF83C6D7E6DA57957
:102EB0007300013D6B43BC6BE3187B64331C6B43B5
:102EC0007E6BFC6BF618FE613E6CE418F3187C61B7
:102ED000FB600026681C40D0F9697A69FB68386D90
:102EE0007118B218F3184479B9613A617B62013CF8
:102EF0002BD3786C6300C25A394B9A42F7D0F96BE6
:102F0000BA6B842380207960DA51F967C019694669
:102F10000CC80CC1291C7B68386C221CFEF794F885
:102F2000002803D0FB6C01339BB2FB64386B39691A
:102F300002780B5D002A05D0B869796A025D9B189A
:102F40000B55D4E77A6A1355D1E77C6C386A013D9A
:102F500024187C647C6D361BBCE73D6DEC79013C2C
:102F6000661C3FD03E6D7B6DB179BD6B4B43E31862
:102F70005B005A5B1A4B9A42F1D0FB6B84263A1CD9
:102F8000FB67F5518032684660CA60C0221CB86C8D
:102F9000FEF75AF8002803D0FB6C01339BB2FB64A8
:102FA0003D6B3E6D2978B279FD6B7E6D2B197243B6
:102FB000002908D07D6BF0262919B60089199A5C82
:102FC0000B78D31800E09B5CBD6C2B55C7E7C0465F
:102FD000292C0000F4040020FFFF0000280000203E
:102FE000FEFF0000154BFC6C1B68DA681B69D318E8
:102FF0009C4206DAFB6A013BDBB2FB62002B00D08D
:103000000BE7BD6A022D00D0B4E63E6D7C6DB3794E
:103010003D6C591E61436918013B00D2AAE63E6D22
:103020007279013A07D33C6BE018F9300478885C78
:1030300020188854F5E77D6D491BEDE7F404002066
:10304000F0B599B000AF7546714691483D6001F00A
:103050005FFA904C092123688F4E1A1C6D3212784A
:103060004A43191C6B3109789B7952189B09D31874
:10307000FB6200F003FA236800201A1C6F329B7970
:1030800012789B09D318BB6201F0C4FFB5446D46AA
:10309000A2B0FD616D46A2B0BD610A266D467D619C
:1030A0007E637D6BF86A05217A6BADB23D610F26B8
:1030B00002F0C8FAB86A05217A6B02F0C3FA3E63DF
:1030C0003D6BF86A05213A6BADB27D60002602F0D7
:1030D000C7FAB86A05213A6B02F0C2FAFE63FD6BCB
:1030E00005200026684302F0DBFABE637E623E6282
:1030F000684E0223306805210370F86A00F020FF53
:10310000664A0A211268664D92682B6851431A6E0E
:1031100006318B00D45AF969BA6B7B6A8C5224B29F
:103120001B197B62336801221A70B86A052100F00E
:1031300007FF2B68BE6B9B6E3D6A5B690236E41A23
:103140002D1980233D62BE639B009E42D0D12B127D
:10315000FE6B7D690021AB537D6A002200232C1297
:10316000FE69705A0231001B404300B2B860C017BC
:10317000F8608020BD68FE6880005219734181426A
:10318000EED1FE6B1B06120ABD6971001A430236AE
:103190006A50FE63082EA2D13D694026F5537D6832
:1031A0004226F55300244C26F4534A230126DE55CB
:1031B000802302255B422B434820384DC6554B20C7
:1031C000C3552B6802224921CA5505334D21DA7FA8
:1031D000CB5D7F20D20103401343CB553A1C391CF1
:1031E000201C4831403202F00FFF5023DE550421ED
:1031F00051208023C1555B42022003435321CB550C
:1032000054222B68D4535222D65555200533DA7FE9
:10321000C35D7F21D2010B401343391CC2191370C7
:10322000201C50317A6902F0EFFE5C23DC535820F9
:103230005A23C655DE5580262B68042259210420C6
:103240007642CA5506435B21CE555D250533DA7FAC
:10325000EB5D7F26D20133401343E819391C03701C
:103260005831201CBA6902F0CFFE3D6B03353D6337
:10327000422D00D024E77E6B01367E63102E00D0F5
:103280000FE70348396801F05BF9BD4619B0F0BD9E
:10329000E12F00007C030020F8FBFFFFF404002076
:1032A00028000020F0B58DB000AF74467146634829
:1032B000BC6001F02DF900F0EDF8614D061C2C68A2
:1032C00069462268A068D31DDB08DB00C91A786153
:1032D000C81AB9618D4685466B460021B8693B61C5
:1032E00005F0E0FC22681E24FF34341900216846F2
:1032F00005F0D8FCB9692422FC60201C002405F0EC
:103300008FFC201C347000F0E3FE0120FFF7BCFCB2
:10331000201C00F00FFE2A684A4953680968BC6106
:10332000013B0AD37C691068604318180C6E0130A9
:1033300080000059BC692418F1E72024013C51D3D6
:10334000211C2422F86805F0ADFC002000F0C0FE2E
:103350000120FFF799FC002000F0ECFD0123202163
:10336000CB5521222221CB55D3557C23344D5B42B2
:103370002322D35500207D232421B884CB552B68EC
:10338000BC620533DA7F2523D95D7F23D2010B4050
:1033900013432521CB553A1C391C2832203102F029
:1033A00033FE2D68274A2B6816687A69013B5A4319
:1033B0009446013BC2D36868002178606044800075
:1033C0007A68013A7A6004D3326E12580438891848
:1033D000F6E7B869814201DA3969CC547869624606
:1033E000121AE5E7164A002001232821B862CB55BE
:1033F0001168B8850C682922D4552A22D3552B226E
:10340000D45D7F22944323432B24E355AC232C2407
:10341000E35505312D24CB7FE15DDB010A401A43E2
:10342000E1190A70391C3A69283102F0EDFD0348B0
:10343000B96801F085F8BD460DB0F0BD4532000019
:10344000F404002028000020014B18687047C04693
:1034500070030020014B58687047C046700300207D
:10346000014B98687047C046700300207047000009
:10347000014B18607047C04680100020014B18684F
:103480007047C04680100020014B18607047C0464E
:103490007C100020014B18687047C0467C1000204B
:1034A000014B18607047C04678100020014B186827
:1034B0007047C04678100020014B18687047C0461E
:1034C0007C03002010B50D4B00201B78AA2B12D1D5
:1034D0000B4B1C780B4B64B218780B4B40B219782D
:1034E0000A4B20181A780A4B49B21B7840188018EA
:1034F000C01A43425841C0B210BDC046500002003D
:103500005100020052000200530002005400020069
:10351000550002008023DB020022188059809A8027
:10352000C046024B188880B27047C04606000400AF
:103530002E4B70B51968A026F605F1312C480422EF
:1035400005F06EFBF468F5680F23240C1C401D4049
:10355000FFF7B8FF002813D0264E882031781E349C
:10356000C9B205F0FBFA31784443C9B2882005F0AE
:10357000F5FA0F3545431E3C00220F3D944203DB14
:10358000221E0F2A00DD0F220F21281E884200DD97
:10359000081CA023DB05DC681140174A09042240FF
:1035A0000A43DA60C243D968D21710400F22914310
:1035B00010400843D860D968802252000A43DA607C
:1035C000D9688022D2000A43DA60D968802292004A
:1035D0000A43DA60D968802292010A43DA60DA6825
:1035E000F0218A4380210A43DA6070BD7C100020FC
:1035F0000C00005054000200FFFFF0FF82B00022D8
:10360000019201AB55221A70392252429A7001225E
:10361000DA70019AA023DB059A6102B07047A023FB
:10362000DB059869C001C00F70470122A023DB05AC
:10363000104002060249986908401043986170479B
:10364000FFFFFFFE82B00022019201220A4089188A
:1036500001303F2201AB1040C9B21870481C023142
:1036600002408900D9705A70019AA023DB05DA6103
:10367000196A024A0A401A6202B07047FFCFFFFF80
:1036800070B5A023DB0500229A63DA6B0C26920E3C
:103690009206DA63164ADC8D10680322011C5D3144
:1036A0000D78944315402C43DC850D78DC8D154056
:1036B000AD00B4432C43DC85047A08781040002C1C
:1036C00003D00001DA8D302402E0DA8D8001C024BD
:1036D000A2430243DA850978A023DB050322D88DB3
:1036E0001140044A090202400A43DA8570BDC0460F
:1036F00080100020FFFCFFFF0002064B000A01388B
:10370000002258609A6005221A60C0461A68D103E8
:10371000FCD5704710E000E0084B094A1B681078A0
:10372000197A084B002901D0042100E008218843C0
:1037300010701A78114319707047C046801000202D
:103740002800005029000050064B1B681A7A064BCF
:10375000002A02D01A78042101E01A7808218A434D
:103760001A7070478010002029000050054B1B681C
:103770001A7A054B1878002A01D0400700E00007AC
:10378000C00F70478010002029000050A0230122A4
:10379000DB055A707047044B82B0019001AA188073
:1037A00092789A7002B070472400005007B500F07C
:1037B000DFFE064B019001AA188092789A70044BA4
:1037C00000221A70034B0122DA7707BD2400005053
:1037D000000000200800005007B500F0E7FE064B8F
:1037E000019001AA188092789A70044B00221A70F6
:1037F000034B0122DA7707BD2400005000000020AF
:1038000008000050034B00221A70034B0122DA77A4
:103810007047C046000000200800005072B6084BF8
:103820001B5C002B03D1C04662B630BFF6E762B620
:10383000A023DB059968034A0A409A607047C04696
:1038400000000020FFFFF9FFA023DB055A680121DB
:10385000120E58689143034A090602400A435A600F
:103860007047C046FFFFFFFE08B5074B1B681A1CD8
:10387000E5321278E6331B7852000132504399400A
:1038800005F06CF908BDC0467C10002008B5044B5B
:103890001B68E833197849000131FFF7E5FF08BDDF
:1038A0007C10002008B5A0230120DB055870FFF72D
:1038B000B5FFFFF7C9FF08BDF0B585B0041C494D41
:1038C00003AE04280BD12968221C0191301CCE3193
:1038D00005F0A6F901994448D231221C0BE02B686F
:1038E0000422191CD631301C019305F099F9019975
:1038F0003D48DA31042205F093F9A023DB0558692D
:1039000031780006800F1F22023040011140014330
:103910003170039919611E691640FFF7D3FD002825
:103920000AD0324B882019780436C9B205F016F94E
:1039300046430023043E03D4331E1F2B00DD1F2308
:10394000A022D205108A1F210B4088430343138213
:10395000022C16D007DC002C13D0012C18D12B68B8
:103960001F1CE73714E0042C07D00EDB052C0FD109
:103970002B6800241F1CE1370AE02B681F1CDE3770
:1039800006E02B681F1CE43702E02B681F1CEA3797
:10399000A023DB05596938783F2210409143014349
:1039A000596178781F215D6908401149C00229409A
:1039B000014359610F49640009680C19211C7731D2
:1039C0000878596810409143014359607834217850
:1039D00058680A401102084A02400A435A6005B07A
:1039E000F0BDC0467C1000201400005054000200BE
:1039F000FF07FFFF7C030020FFC0FFFF2E4BF0B549
:103A00001A682E4B85B01B68E7331B785B069B0E4C
:103A10000193931DD97F00238D005519581E5B1803
:103A2000002B27D053181B1826331B788024D3185B
:103A30005E78A023DB055F68E4033C435C60019C87
:103A4000B606240400945F68B60EBC461C4F64465C
:103A50002740009C27435F60C046243676008400E0
:103A6000F65A2C19883426605E68164C34405C6027
:103A7000031CD3E76F460293BB8101233B72911D68
:103A8000C97FBB727972F97A7F239943042001437D
:103A9000F972B02139730C49787B0968034005310C
:103AA000C97F8832C9010B430F2002A97B7302F042
:103AB000ABFA05B0F0BDC0467C0300207C100020AE
:103AC000FFFFC0FFFFFFBFFFF4040020F0B585B08B
:103AD000FFF794FF1A4B00241D68AB1DDE7FB30077
:103AE000EB1801930134331B013309D0019AA7006D
:103AF000D71B883738680121FFF7B6FE3860F1E739
:103B00006A46002393810123137293720423D372B4
:103B1000B02313730B4B56721B680F200533DA7FEB
:103B20006B46597B7F23D2010B4013436A46537384
:103B30002A1C883202A902F067FA05B0F0BDC0461F
:103B40007C030020F4040020044B00225A70A023C0
:103B5000DB055A7001221A707047C0460000002031
:103B6000A023DB059968064A0A40802189020A439E
:103B70009A60044A0021917001229A707047C046F1
:103B8000FFFFF9FF00000020024B1B680833D86FCD
:103B90007047C0467C030020024B1B680833D8677F
:103BA0007047C0467C030020A023DB059868C0B2A4
:103BB000704730B5A023DB059B68DBB283420ED093
:103BC00001DA013300E0013BA022D2059568FF2114
:103BD0001C1C8D430C40291C21439160EEE730BD35
:103BE000A023DB059968802252020A439A609968F3
:103BF000094A0A409A609A68120112099A60D968C3
:103C0000064A0A40DA60D968054A0A40DA60D9688B
:103C1000044A0A40DA607047FFFFFFF0FFFEFFFF33
:103C2000FFDFFFFFFFFFFFEF1B4B10B51A680121FD
:103C3000131CEF331878A023DB059C680840174954
:103C40000004214001439960F03210789C681449C7
:103C50000007000921400143996011789A68090919
:103C60001201090712090A439A60D968802252009A
:103C70000A43DA60D968802292010A43DA60D9687F
:103C8000802252050A43DA60C923013B002B01D090
:103C9000C046FAE710BDC0467C100020FFFFFEFFC3
:103CA000FFFFFFF010B5A024E405A36800201B016E
:103CB0001B09A360E268124B1340E360E268114BFA
:103CC0001340E360FFF7AAFD0F4B1B68F0331A782F
:103CD000A36812091B0112071B091343A360E268C2
:103CE00080235B001343E360E26880239B0113435E
:103CF000E360C923013B002B01D0C046FAE710BDA9
:103D0000FFFEFFFFFFDFFFFF7C100020034B1B685F
:103D1000E5331878400001307047C0467C10002021
:103D2000024B1B68E63318787047C0467C100020B1
:103D300000487047001000500048704700200050B5
:103D40000048704700400050074B01201B685B791A
:103D50009A1C0340D318054A1268663210785843FB
:103D6000034B8000C0187047801000207C030020A7
:103D700004400050F7B51B4B051C1C68A3795F1E5F
:103D800015D36279013A10D36079561C811C0191D8
:103D90000121084001990818584331181248890038
:103DA00009180868E8400860ECE73B1CE7E7FFF704
:103DB000CBFFA37A002201339C466346013B9C461D
:103DC0000FD3617A960001918619002301999942D7
:103DD00005D09F00F1590133E940F151F6E752183F
:103DE000EBE7F7BD8010002000400050074B01209A
:103DF0001B685B799A1C0340D318054A126872321B
:103E000010785843034B8000C01870478010002082
:103E10007C03002004400050F7B5284B1D682A7829
:103E200053B2042B1ED1264B1B68E0331F78254B61
:103E3000196802235E1E3FD34A79013A10D34C79A8
:103E4000551CA01C019001200440019804195C43FA
:103E500028191D4C800000190468FC400460ECE740
:103E6000331CE7E7002A27D0022B03D1144B1B6831
:103E7000E6331EE0032B03D1114B1B68EC3318E033
:103E8000012B11D1FFF7B2FF0E4B061C1B685C79AA
:103E9000013C11D32B193A331B789B009859FFF73B
:103EA000F5FCA300F050F3E7052B05D1044B1B688C
:103EB000E3331878FFF75EFFF7BDC0467C030020B0
:103EC0007C100020801000200040005008B5A02386
:103ED0000120DB055870FFF7A1FCFFF7B5FCFFF7E9
:103EE0009BFF08BD70B5041C104E114D11D101206F
:103EF000FFF7E2FC336801221A70A023DB056C7027
:103F00005C701A70FFF7E2FFFFF79EFCFFF7DEFD23
:103F10000224201CFFF7D0FC336800221C70A02371
:103F2000DB056A705A7001221A7070BD7C03002094
:103F30000000002008B5FFF7D5FFFFF7C7FF08BD59
:103F400008B5A023DB05011C58683F2211409043AF
:103F50000843586059685868114001310A401102FD
:103F6000064A02400A4306495A6000224A705A70C3
:103F700001221A70FFF7AAFF08BDC046FFC0FFFF6D
:103F800000000020094B01211A685379D0799A1C4E
:103F90000B40D318064A013012686A321278534334
:103FA000C018044B8000C0187047C0468010002025
:103FB0007C0300200040005010B5A023DB051C6AE4
:103FC0000005064A000D010422400A431A621A6ADB
:103FD000120B12031043186210BDC046FFFF00F021
:103FE000164B13B51C68A023ED34211CDB051448C7
:103FF00004229B6804F014FE2478FFF763FA00287B
:104000000CD0104B104A1B781278201C52B2009230
:104010005BB21021D12202F08BF82418002C01DAB7
:10402000002402E0FF2C00DDFF24084BE0B21B68F7
:104030000833DC67FFF7BDFD13BDC0467C100020D0
:104040000800005053000200520002007C030020D0
:1040500008B5FFF7C5FFFFF76BFAFFF7CFFA184B6C
:10406000C022920098581749014099509958FF2052
:1040700081434020014399509858134901408020C2
:10408000000401439950985880210002000A090653
:104090000143995002221A6001221A600821042269
:1040A0001A601960FC3300215960084B19690A43F2
:1040B0001A61FFF7E5FA62B600F0A0FA08BDC04643
:1040C00000E100E0FF00FFFFFFFF00FF00ED00E068
:1040D00008B5002801D0012801D100F08FFAFFF7C0
:1040E0007FFFFFF725FAFFF789FA08BDF0B5274BE8
:1040F00013211B680224DA7A0023133AD2B29142C8
:104100005B41E41AA023DB0558693F22596810403F
:104110008022D2030A43A3B05A60411EA023C9B231
:10412000DB0502AAFF2910D05F683F26184D0E401C
:1041300036043D4035435D60C046251C24356D0086
:104140005D5B4B00D5520139E8E75C6811492140BD
:104150005960694600238B8001230B708B7002230A
:10416000CB70B3230B710C4B48701B680533D97FA0
:104170006B4658797F23C90103400B4303206946EE
:104180004B7101F041FF23B0F0BDC046801000200C
:10419000FFFFC0FFFFFFBFFFF404002010B5A02009
:1041A000C00544694906E401E409214341617F21D6
:1041B0000A4044699104074A22400A430649426181
:1041C00000224A70427001220270002B01D0FFF7DA
:1041D0007DFE10BDFFFF03FE00000020F7B5041CAC
:1041E00002F052FE124B1A6800235068411C0191E4
:1041F000019D16689D420CDB976801367E4399004D
:104200008C469E1900216546B6006151013331513B
:10421000EEE701239E420ADB956800215D43AF0073
:104220002D180135AD00395101332951F2E7F7BDA1
:10423000F4040020044B054900221A6059609A607A
:1042400005221A607047C04610E000E0FFFFFF0043
:1042500010B5A023DB059C689968E623C943C9B261
:104260005943E403E40F064B0134A040C918041C71
:10427000044804F073FC011C201C04F06FFC10BD0A
:104280005C5D000040420F0030B5124D1248AB6833
:1042900085B0C01A0193FFF7DBFF02A901230B7061
:1042A0004B708B7004230024CB706F238C800B71B8
:1042B0000A4B01901B6848790533DA7F7F23D201CE
:1042C00003401343201C01AA4B7101F09DFE2C609A
:1042D00005B030BD10E000E0FFFFFF00F404002057
:1042E000A023DB05D87CC0B270478023DB0500BA71
:1042F00009BAD8601961704737B5051C0424291C18
:10430000221C684604F08CFC2919221C01A804F028
:1043100087FC009980230ABADB05DA6001990ABAA2
:104320001A6137BD40BA80B2704700BA70470023A7
:10433000114A12499A188A4204D21149C9580433C1
:104340001160F5E70F4B104A191D043B934203D24D
:1043500000221A600B1CF6E70C4B0D4A1360EFF3BA
:1043600008820433191D043B9A4203D90948186096
:104370000B1CF7E77047C0462800002014060020F9
:10438000F08D00001806002070100020BC100020E6
:1043900098100020CDCDCDCDF0B5394D8BB039483A
:1043A0002C6800F003F9FFF7A7F9002636498C4284
:1043B0002ED2354B202780331B1B832B00DC9F1014
:1043C00004A901230B708B70CB70304B00201B684D
:1043D00088804F700533DA7F7F23D20101924A79BA
:1043E000BF101340019A1343221C4B7101F00CFEC5
:1043F000231C3A1C013A08D3002E04D12449186822
:10440000884200D01E1C0433F4E7BF00E419CDE756
:104410002B681E4FF31A06A903930025A7238D804E
:104420000B713B68012404220C704C708C70CA70B4
:104430000533DA7F4B797F20D20103401343281CD8
:1044400003AA4B7101F0E0FD0F4B08A984339E1BBA
:10445000A8238D800B713B68042203960C704C706E
:104460008C70CA700533DA7F4B797F20D20103400C
:104470001343281C03AA4B7101F0C6FD0BB0F0BD1D
:1044800098100020801A060080370020F4040020D5
:10449000CDCDCDCD024B1B680633D87F7047C046CB
:1044A0007C03002070B5051CFFF7A0FC0A4B1C68BC
:1044B000A31DDB7F9A00AD180022511ED218002ADE
:1044C00009D0E218521826321278920016588A0043
:1044D000AE500A1CF1E770BD7C03002030B50B4BD9
:1044E0001B689A1DD27F94001C195300C01800232A
:1044F0000133D11A013107D09D00651B8835590061
:104500002D6849424552F3E730BDC0467C03002088
:1045100070B5051CFEF7A4FF0468061C013C08D317
:104520007268E300D3181A68AA42F7D15B6898470B
:10453000F4E7024B013D1D6070BDC04684100020B1
:1045400070B5051CFEF78CFF8468061C013C08D37F
:10455000F268E300D3181A68AA42F7D15B6898475B
:10456000F4E7024B013D1D6070BDC0468410002081
:1045700038B5A023DB0599689D68C943E623C9B215
:104580005943084B041CC918074804F0E7FA064BC6
:10459000ED035843ED0F01352841211C04F0DEFAEC
:1045A00038BDC0465C5D000040420F0038B5A02316
:1045B000DB0599689C68C943E623C9B25943064B99
:1045C000051CC918054804F0C9FA6843E403E40F60
:1045D0000134204138BDC0465C5D000040420F0000
:1045E000002801D0133907E0122902DD262902DD57
:1045F0001239491000E000E0081C7047F0B5E34BA9
:10460000B3B01B680193DC79002C00D189E15333EE
:104610001B780021133BDBB21322081C9A4248414D
:10462000C4B2049402260BAC361A1422201C04F0E7
:1046300039FB019D6F7A01982B1ABB4211DA2B1CB2
:10464000533319780498FFF7CBFF132801D900F0F2
:10465000FDFB235C0135B34200DBF7E30133235458
:10466000E9E7CB4B00251B68291C039363331D70BE
:10467000039B882266331D7010A804F013FB291CCD
:104680001422201C04F00EFBC24B10A8196844220F
:104690008A3104F0C5FA022E04D121A810A94422BF
:1046A00004F0BEFA0025019C0295019D6B7A671B00
:1046B00001349F4234DA231C52331D780498291C9C
:1046C000FFF78EFF0BAA115C6E118C460596112127
:1046D00066467143059E10AB89191F263540063189
:1046E00001268900AE40351CCE583543CD50039D80
:1046F0003F23E919061C1E40583105968F796646FE
:10470000B501059E9F433E431E4063460133029F11
:104710002E43DBB28E7113549F42C6DA0293C4E774
:10472000039B029E0027F6B2653305961E70039721
:1047300001970497954B049E1B689A7A964200DB7A
:10474000A1E0049C1A19583211780122081C203863
:10475000151C82408D409001029CAC468009002CC3
:1047600018D0013C4422624310AD00265655AA18C9
:10477000151C1F2905DC576A66461662BA0E92069A
:1047800006E016626F6A8201BE0E9209B6063243D7
:104790006A62E4E75A7A7E4B1968231C934210DA66
:1047A000C818583085794426A806AD097543039F7B
:1047B000800E2818013710ADFF1828180771013333
:1047C000ECE7744B039E1B68B6181A1C8C328B33B3
:1047D00017781D78FF06AD060396FF0EAD0EFEF7A7
:1047E00071FE002813D06C4E882031780137C9B291
:1047F00004F0B4F931784743C9B2882004F0AEF927
:1048000002354543013F023D0026781C03D03E1E81
:104810001F2E00DD1F263F2D01DD3F2502E0EB436B
:10482000DB171D40019944274F435C4ABF1802998A
:104830008C421EDA4422111C614310AB5918301C03
:104840001F2318400690887801349843031C06986B
:1048500003438B70281C3F231840069048789843E8
:10486000031C069803434B70381C04F0D9F94437F5
:10487000DDE7CB43019C049DDB170B40E4180135B9
:104880000194049556E7424A019F1468FAB2211C2C
:1048900064310A70CA70059D00228A7105310D705D
:1048A000597A131C10AA8B420FDAE0185830857918
:1048B0004426A806AD097543039F800E28180137CA
:1048C000FF18121817710133ECE7019F44237B4353
:1048D0009A1A1CAE03920025029FBD4218DA4427A3
:1048E0006F4310A8C719786A0021820E92063962B8
:1048F0007A62301C142204F0D5F90399284A013554
:1049000088188019391C442204F08AF94436E3E7F8
:10491000FB43DB17019D3B40EB1868340293237087
:104920000DE01B4D211C28680422633004F0BAF905
:104930002868211C6730042204F0B4F90294134B58
:1049400000211C681322E37A0E1C133BDBB29A424F
:104950004E41F7B204970BA802271422BF1B04F0A4
:10496000A1F96679251C2B1BB3421BDAE97A04985E
:10497000FFF736FE132800D968E20BAB1A5C01354D
:10498000BA4200DB62E201321A54ECE780100020E8
:104990007C0300207C1000205400020000800050A6
:1049A000D07F0050B94B029D1E680122331C6B332F
:1049B000DA701D700021882210A804F073F900211C
:1049C00014220BA804F06EF9B14B10A81968442208
:1049D000463104F025F9022F04D121A810A9442260
:1049E00004F01EF90027251C03972F1B05976379F8
:1049F00001359F423CDAAF7A0498391CFFF7F0FD8D
:104A00000BA9095C10AB0191019A4421514309188B
:104A100059182A1B0A7179110BAA0691115C1122EF
:104A20005143069A89188A1D1F210F4001219200C7
:104A3000B9400F1CD1580F43D750059F3F23F2199F
:104A4000011C019F19400591BF0151780697059FF0
:104A500099430F4306991F40019B0F435770013341
:104A6000039FDBB20BAA13549F42BEDA0393BCE749
:104A7000039C6D36E4B20125059434700195854A96
:104A8000019B1668013BB279934200DBADE0F2185E
:104A90002832D1797E4A12685778BC46002F04D05C
:104AA000019C36192836F67907960124251C8D407D
:104AB0000695079D271C081C2038261CAF40203D6A
:104AC000AC408640B0010994039C80090897002CF3
:104AD00032D0013C44266643019F10AD7755AE1994
:104AE000351C0027203537626F68BF0EBF06009760
:104AF0006F601F2902DC069D356204E08601009F7D
:104B0000B60937436F606646002EE0D04426664300
:104B1000079F10ADAE191F2F04DC376A089D3D4377
:104B20003562D4E7756A099F2F43BF01AD0EBF09F7
:104B3000AD063D437562CAE7D31847321578FF3397
:104B4000AD069E7FAD0EFEF7BDFC002812D0524F81
:104B5000882039780136C9B204F000F83978464324
:104B6000C9B2882003F0FAFF02354543013E023DF9
:104B7000771C03D0341E1F2C00DD1F243F2D01DDC8
:104B80003F2502E0EB43DB171D40029E029F069685
:104B900044267E4341483618029F0698391A039FDF
:104BA000B9421EDA4422514310AB59188F781F23A3
:104BB0009F43201C18403B1C03434F788B703F23BE
:104BC0009F43281C18403B1C029F03434B703B2F04
:104BD00000DD3BE1301C013704F022F84436029737
:104BE000DAE7019C0134019449E7284F029D3C68B3
:104BF000EBB2221C6C32019D1370D370231CEDB2FA
:104C000072331D700195059D013B1D700BA800219D
:104C1000142204F047F80025A31DDD7773799D4227
:104C20003EDA7319DF7A0498391CFFF7D9FC0BAB15
:104C30001B5C0393002B0BD1A31DD97F4A1C611869
:104C4000DA770731EBB210AACB77013311180B7169
:104C500010AB1A18127961199446012252429444F9
:104C600062463A310A7079111F221740063101223B
:104C700094468900BA40171CCA5865441743039AE2
:104C8000CF5062440BAB1A54C8E7C0467C030020E7
:104C90007C10002080100020540002000080005092
:104CA000D74B1B6847331C78A406A40EFEF70AFCFA
:104CB00000280AD0D34B882019780234C9B203F0F7
:104CC0004DFF44430023023C03D4231E3F2B00DD51
:104CD0003F2310ACA2781F218A436178A2703F2243
:104CE0009143666A1340019D0B436370B30E2570B8
:104CF0009B06002563621CA8291C1422256203F070
:104D0000D1FF029F3B2F00DDA0E044207843BE4945
:104D1000442240180137211C03F082FF0297BB4F49
:104D200002983E68C7B2331C70331F700D3B1B786E
:104D3000321C7732311C137057706F3109780B3A7F
:104D40005173311C7B3197730B701278331C7C3399
:104D5000301C1A707D30022203F062FFAC4B13222C
:104D60001B68291C0193DB7A201C133BDBB29A429F
:104D70006941CAB207920222521A331C733303925A
:104D80000122DA701F70291C882203F08BFF291C76
:104D900014220BA803F086FF994B201C19684422AB
:104DA000023103F03DFF039D022D04D121A8211CF7
:104DB000442203F035FF019C00270397019F019DCA
:104DC000E71B04976B7901349F4238DAA57A07987C
:104DD000291CFFF705FC0BA90F5C44217943019ABC
:104DE00010AB09185918A21A0A7169110BAA05917A
:104DF000115C11225143059A89188A1D1F210D400B
:104E000001219200A9400D1CD1580D43D550049D9D
:104E10003F2372195178051C99438C46B9011D40F6
:104E2000049161460D431D40049B01371D4355709D
:104E3000FFB20BAD2F54039DBD42BFDABDE7331C5B
:104E4000039E753300271E70019701E00020D4E017
:104E5000039A002A14D0013A4421514310A8411862
:104E6000CE6A00204D6A08628862B00E8006CB7858
:104E7000AC0EC8622020A40603434C62CB70E8E766
:104E8000634B019A1F68B879BC460490019C049D4D
:104E9000131BAB4247DA019C61460B1B9B182F3357
:104EA000187851100123061C1940203E1F1CE5B242
:104EB0000591B3400399079587401E1C002930D007
:104EC000013944234B43019C10AD01345C55079CD0
:104ED000EB18059D64B20694AC420FD01F2803DC8A
:104EE0001C6A3C431C62E9E75C6A251C3543AD0142
:104EF000A40EAD09A4062C435C62DFE71F2803DC87
:104F00009C6A3C439C62D9E71C1CDB6A33439B01CF
:104F10009B090693E36A9D0E069BAD062B43E36255
:104F2000CCE70132B2E7364B1B685A19DD78FF3205
:104F3000AD06977FAD0EFEF7C5FA002813D0314CB1
:104F4000882021780137C9B203F008FE2178474351
:104F5000C9B2882003F002FE02354543013F023DFD
:104F600000247E1C03D03C1E1F2C00DD1F243F2686
:104F70003F2D02DCEE43F6172E40029F44257D4371
:104F8000214804972D18029F0498391A039FB942AB
:104F90001FDA4422514310AB59188F781F239F43C7
:104FA000201C18403B1C03434F788B703F239F43CA
:104FB000301C18403B1C029F03434B703C2F00D118
:104FC00044E7281C03F02CFE029F4435013702976A
:104FD000D9E7019C01340194022C00D038E70B4B37
:104FE000029D1B68EAB2191C7431181C0A707330D8
:104FF00000788033C8721A70012033B0F0BDC0460B
:105000007C10002054000200008000507C0300202F
:1050100080100020F8B5164D061C2B680024633361
:105020001F782B68E1191A1C6432127801349142FE
:1050300009DAE319442058430E4B311CC0181422DE
:1050400003F030FEEDE76B331F7800242B68E21984
:105050006C331B7801349A4209DAE319442058432F
:10506000044B311CC018142203F01CFEEEE7F8BDFF
:105070007C030020EC7F0050F0B5374B85B01B68F7
:1050800002901A1C039163321578344A002011688B
:10509000041C8A7A94422BDA021C4F7A161ABE42FA
:1050A0001FDA9E195836B679B7090096EF194426CB
:1050B0007E432B4FB4463E1C009F66440196BE06BD
:1050C000039FB60EB446BE5C3F2E00DD3F26F6B20F
:1050D0000096019E0132371C6744009E30373E70B7
:1050E000DBE7181C6530007801342D18101CD0E760
:1050F0001A1C6B32147800208A79904229DA002237
:105100004D790195AA421EDA9E187678B709E719FB
:10511000039744273D1C039FB6067D43AC46104DC4
:10512000B60E2F1C019D674445430397029FBF188D
:105130007D5D3F2D00DD3F25039FEDB2BE1930366A
:1051400035700132DCE71A1C6D3212780130A41878
:10515000D2E705B0F0BDC0467C03002080100020DF
:1051600000800050F0B5B34B97B01C686846A37937
:10517000627900AF5A43131C0E33DB08DB00C01A00
:1051800093000E33DB08DB008546C01A6D4685466A
:105190007D626D46BD61E3792F26191C0E319B009F
:1051A000C9080E33C900DB08401ADB008546C01A67
:1051B0006D4685463D6200216D46786A3D6103F08B
:1051C00071FDA379627900215A43B869920003F016
:1051D00069FDE2790021386A03F064FDE2793869FB
:1051E0009200002103F05EFD0023F3552F26F05DB1
:1051F000904E3E2800D9E1E0FFF70CFF0020FEF7BB
:1052000099FE2F21C95D3068F961002283799A42A5
:1052100035DA00234179541C8B422EDA161C4E439A
:105220009E198D1C7E610126AC463140614461436C
:105230008919C9188D008049BE696D182D68BD6037
:105240007D69AD00A959BD68A94214D2FD697E6A85
:1052500079697554417901258E1C0D4075196C438F
:1052600051430134E418744EA400A4192468591859
:10527000BD6989004C510133CCE7221CC6E7FEF71B
:1052800063FD6C4B2F261B68F65D0022F8617B6086
:105290007E61BA607D68BE68AB7A9E421CDA3E6968
:1052A00094003519FE69111C3419002378685A18C6
:1052B000407A83420CDA9A00A858A658B04205D228
:1052C0003E6A78697618F054A658AE500133EDE77F
:1052D000B9680131B960DDE701253020C55557486F
:1052E000332300680024DD5534261D23BC8631217C
:1052F000F3553222031CCD55D55535210533DA7FC0
:10530000CB5D7F26D20133401343C8193A1C391CA8
:1053100003703031201C2F3200F076FE454EBC6306
:105320003368BC879A793821CA555B793922D355BD
:105330001A1C2A403B210233D3183A20CA5DC355B8
:105340007F20824304210A433B20C2553C21512245
:105350003B48CA559B00391C1A183831201C00F0F4
:1053600053FE3368442140223C64CC53D555DB794D
:1053700043214126F355CB5D42207F22C5559343FF
:1053800004252B43CE192D4D337044205A23C35589
:105390002B6845260533DA7FF35D7F20D201034079
:1053A0001343F1190B70FA69201C053900F02CFE2B
:1053B0002F22D35DD51901332B7017E7391C4831E3
:1053C00000253368BD648D809A797F200A705B79EF
:1053D00001244B708B70CB787A6A83432343CB7064
:1053E00008201D230B7100F00FFE391C503133686B
:1053F0003D658D800C70DB797F224B70CB788C7093
:1054000093431C431E230B710C4BCC701B687F25F0
:105410000533DA7F4B79D2012B40134308203A6AD7
:105420004B7100F0F1FD786A396AFFF725FEBD4641
:1054300017B0F0BD8010002000400050F4040020A0
:1054400004400050F0B57C4B97B01B6869469A79D0
:105450005C7900AF5443231C0E33DB08A200DB0051
:10546000C91A131C0E33DB08DB008D46C91A6D46C2
:10547000F9618D46081C00213D6203F013FC386A77
:105480000021221C03F00EFC05233B633A6B132A18
:1054900000DDCEE04F2301247B633A23DC55382125
:1054A0008023CC55392204215B42D4550B43634EF3
:1054B0003B220025D3553C21A423BD87CB5533681F
:1054C0003D210533DA7FCB5D7F21D2010B401343B1
:1054D0003D22D355391C3A1C281C3831303200F09B
:1054E00093FD4423DD534223DC5540214122802398
:1054F000CC55D4555B42042423434321CB5544224D
:10550000A523D355336845240533DA7FE35D7F2136
:10551000D2010B401343391CE2191370281C40318F
:10552000113A00F071FD2F23DD552F21C85D3F2872
:105530007CD8FFF76FFD3C6B7D6B61B26AB20123D3
:105540000020FEF72BFE3C4B2F221B68D25D3B61F7
:1055500099797A61B9610022BD69AA422BDA396969
:1055600048790121031C5343861C01407B6271185A
:10557000531C59437D6A8B006C1AFD69A4002C19D9
:10558000FC600021814214DA2D4C1E19FC6835683C
:10559000E458AC420AD23D6A3668AC467D6ABE60C9
:1055A000AC447D6964466554FC68E65001310433BF
:1055B000E8E70132D0E7391C483100241D238C80F4
:1055C0000B711E4B01251B680D704D708D70CD70D9
:1055D0000533DA7F4B797F26D201334013433A1CDF
:1055E000201C2F324B7100F00FFD134B391C503132
:1055F0001B683C658C809A79201C0A705B790422B8
:105600004B701D400233ED18CB788D70B3431343BC
:10561000CB7051230B710A4BAD00EA182F2400F018
:10562000F3FCE35DE51901332B707EE73B6B01333F
:105630002BE7BD4617B0F0BD80100020F404002019
:105640000440005044235843044B111CC018C27836
:105650000F2319409A430A43C270704700800050DC
:1056600038B5051C141CFDF72DFF002808D00A4B87
:10567000882019780234C9B203F070FA4443023C1E
:1056800044206843054A3F23801802781C409A430F
:105690001443047038BDC04654000200018000501D
:1056A00010B5041CFDF70EFF002808D0084B882019
:1056B00019780434C9B203F051FA4443043CA023DE
:1056C000DB05198A1F22144091430C431C8210BD34
:1056D00054000200F0B599B000AF00F0F1F9D64BDC
:1056E00068461B68FF215A799B790026D3181A1C3B
:1056F0005A43FB64D31DDB08DB00C01A85466C46A9
:105700007C6203F0CFFAFF20FEF750FFFC6CCB4B1E
:10571000E400221C0E32181AD208D200B861684682
:10572000801A85463C626C463C63FC6CA400221CDB
:105730000A32D208D200801AFC618546F862FC6CFD
:10574000A64200DB86E10024211C3A6A386BBC6566
:10575000FC6503F0A7FA211CFA69F86A03F0A2FAC3
:10576000A023DB05D968B64A0A40DA60B24BBD6DAA
:105770001B68F96D5A79013A0BD39818C07A012445
:105780001F2802D884402543F5E720388440214370
:10579000F1E7BD659A79013A0CD398182F3000785B
:1057A00001241F2802D884402543F4E72038844090
:1057B0002143F0E7A024BD65F965E405236BAB4305
:1057C0002363F86D616B7865626BC343194089018F
:1057D000920E890992060A436263A26BB96D642036
:1057E0008A43A263626B13409A01636B92099B0E1A
:1057F0009B0613436363FEF7D9FEFDF77DFF8E4BD7
:105800001B689A79964203DA9B192833DB7902E008
:10581000B21A9B18DB7A3B653A6D1F2A09DC386D9A
:10582000226B012383401A432263A26B1343A363B9
:1058300016E03B6D616B203B01229A40131C114323
:10584000626B8901920E890992060A436263E26BD8
:1058500013439A01E36B92099B0E9B061343E36388
:105860000A20FEF7A3FEFDF747FF3C6D01231F2C26
:1058700003DCA3409D43BD6505E03A6D7C6D203A95
:1058800093409C43FC65A024E405A36BB86D0125FF
:105890000343A363E26BF96DE36B0A4392019B0E32
:1058A00092099B061343E363FEF7C4FCE26B80237B
:1058B000DB041343E3633B6B6249BC698A68A24221
:1058C00017D3A022D205106C5C68B865526CFA65DB
:1058D000944203D308D11C68844205D28968FC6ACB
:1058E000DA60AA009860A150FC6C01350833A5422B
:1058F000E2DDFEF7C9FCA023DB05D96B524A0A4062
:10590000DA63012D00D193E0FB6C7C6A7343E318EA
:105910003C6D3B640123A340BB63DB17FB63202288
:105920005242D317B86BF96B8018594138617961CD
:105930006B1E396BDA008C18FA6A9B00D318013D94
:105940007B63002D74D0231C083B1A6820685B68B9
:10595000616890439943BA6BFB6BB86479641040FB
:105960001940F860B960B86C39697A6C08407B6995
:105970007860F86C1A403A6078657A6D013A7A6519
:1059800052D32D4B796D1B689A79914203DA5B18DB
:105990002833DA7903E0786D821A9B18DA7A0123CA
:1059A0001F2A10DC191CB86C91400842E5D0796BB5
:1059B000A022D2050E689168B868090C0B40916866
:1059C000FA68C9B210E0203A181C796C9040014284
:1059D000D3D07A6B38681668A022D2059168090C7A
:1059E0000B4091687A68C9B2024304D0396C7A6D71
:1059F000FF238B54C1E711480133861B9E40BE62D2
:105A0000FF26E623711A5943104A1148891803F0FA
:105A1000A5F8011CB86A03F053F8B04200DD301C51
:105A20003B6C796D5854A8E77B6B083C043B86E7D8
:105A30003E6D013683E6C04680100020FFFFFF0068
:105A4000FFFF0FFF10E000E0FFFFFFFB5C5D0000C9
:105A500040420F00E3B25A2258205921C355CB557A
:105A6000D3550A4B5B241B685C200533DB7F5D212B
:105A7000E3550023C3550123381CCB555830796AB0
:105A800000F03EF8BD4619B0F0BDC046F404002059
:105A9000014B18607047C0468C100020014B1868FD
:105AA0007047C0468C100020014B18607047C046FC
:105AB00088100020014B18687047C04688100020ED
:105AC000014B18687047C04680030020F7B50A4CA8
:105AD0007146061C201C7546FEF71AFD074A6946EA
:105AE00081CA81C16B46B600F658201C291CFEF7FE
:105AF00027FD301CFEBDC0466D5A0000E08C000042
:105B0000F8B50F4C071C0E1C201C71467546FEF79D
:105B1000FFFC0C4BFF215A68D86811700A499F603E
:105B20000E60A02101701969201C1378FF2B02D18F
:105B30000B78022BF9D0291CFEF702FDF8BDC046F8
:105B4000A15A0000840300202807002038B50D4C1E
:105B50007146201C7546FEF7DBFC0B4A11694B7839
:105B60000A49DBB20B72012B05D0022B05D1D36899
:105B700001225A7001E0FDF7CFFD291C201CFEF721
:105B8000DFFC38BDED5A0000840300202807002008
:105B900038B50B4C7146201C7546FEF7B9FC094B15
:105BA000DB68002B06D0084A7F2192690B401370F6
:105BB000FFF7CCFF291C201CFEF7C2FC38BDC046F5
:105BC000315B0000280700208403002038B50C4C0E
:105BD0007146201C7546FEF79BFC0A4B1B7A012B75
:105BE00006D0022B06D1084B0022DB685A7001E078
:105BF000FDF7AAFD291C201CFEF7A2FC38BDC046FB
:105C00006D5B00002807002084030020F7B51E4FBD
:105C10007346381C71460193FEF77AFC1B4D002435
:105C20001B4E337A012B07D0002B19D0022B18D131
:105C3000184BDB685C7814E0FDF798FD041C002D20
:105C400001D0013D0DE0FDF77FFD2E23FF33013B29
:105C5000002B01D0C046FAE7FDF75EFD0B4D00E0DA
:105C60001C1C0C4B317A1B695A78914205D05B7829
:105C7000074A1372FFF7AAFF01E0002CD0D1381CAD
:105C80000199FEF75DFCF7BDAD5B0000FFFF000072
:105C90002807002084030020F8B5134C0D1C071CB6
:105CA0007146201C7646FEF733FCFFF7AFFF0F4A24
:105CB0007F219369281C1B7808408B43191C0143E2
:105CC00080209369404201431970D069391C2A1C15
:105CD00002F0A6FFFFF73AFFFFF798FF311C201CE8
:105CE000FEF72EFCF8BDC046395C0000840300209E
:105CF000F8B5FAF71BFF071C01F0C6F8061CFDF704
:105D0000BDFB384C1022051C391C206A02F088FFAC
:105D10003288236A1A74120A5A74B2889A74120A60
:105D2000DA74314A12680532D27F002A03D0AA7988
:105D30001A756A7902E06A791A75AA795A75EA7948
:105D40009A752A4A636A52881A70120A5A70284A47
:105D5000D2889A70120ADA70264AD2881A71120A08
:105D60005A71254A528A9A71120ADA71234AA36A31
:105D7000920A1A70224A013A920A5A70214A920AE9
:105D80009A70214A013A920ADA70204A920A1A71EC
:105D90001F4A013A920A5A711E4A920A9A711E4A81
:105DA0001E4D013A920ADA712B6818886369020A5B
:105DB0005A711871FFF78AFE636998712B685E68E3
:105DC00003364643301C00F0C4F9051C321C002188
:105DD0000135A06102F066FFE56102F0ABFD104BFA
:105DE0005860F8BD84030020F4040020FC03000088
:105DF000F8930000F8AB0000ECBF000000000000CA
:105E00000004000000040000009400000094000062
:105E100000AC000000AC000000C000008C100020AE
:105E200028070020024B1B691878C0B27047C04693
:105E300084030020024B1B699878C0B27047C046AB
:105E400084030020014B1B69987070478403002075
:105E5000024B1B69D878C0B27047C046840300204B
:105E6000014B1B69D870704784030020014B1B69EC
:105E70005868704784030020024B1B695A685860B9
:105E80007047C04684030020024B1B69187AC0B2D9
:105E90007047C04684030020014B1B69187270478D
:105EA00084030020024B1B69587AC0B27047C04679
:105EB00084030020014B1B69587270478403002043
:105EC000024B1B69D87AC0B27047C04684030020D9
:105ED000014B1B69D872704784030020024B1B6979
:105EE000987AC0B27047C04684030020014B1B69FA
:105EF0009872704784030020024B1B69187BC0B264
:105F00007047C04684030020014B1B69187370471B
:105F100084030020024B1B69587BC0B27047C04607
:105F200084030020014B1B695873704784030020D1
:105F3000034BA022DB681A701A78A02AFCD07047A5
:105F400084030020034BC2B2DB681A701A788242C5
:105F5000FCD0704784030020014B18607047C04696
:105F600028070020014B5B681870704784030020ED
:105F7000024B5B681878C0B27047C04684030020AB
:105F8000014B1B68188870478C10002008B5034B24
:105F90000022DA60FFF73AFE08BDC046280700205D
:105FA00070B5074B074C5A69E668011C9579D869AA
:105FB0002A1C8019751902F033FEE56070BDC046D9
:105FC000840300202807002073B56D46EA710C4A4F
:105FD0000735D46B2678864211D1FF2020701164DA
:105FE00093640699074B55641960D168A023126920
:105FF0000B702378FF2B02D11378002BF9D073BDDF
:10600000840300202807002070B50F4C236D1D79F4
:10601000EDB2012D17D1854058781E78000230432B
:106020009E7836043043DE783606304328420AD064
:10603000FF201871616505490A60E26877211170D7
:106040001A79FF2AFCD070BD8403002028070020A5
:10605000014B9B6D1878704784030020014B9B6DAA
:106060001870704784030020014B9B6D587870476F
:1060700084030020014B9B6D5870704784030020FF
:10608000014B9B6D9878704784030020014B9B6DFA
:106090009870704784030020144A30B50312904270
:1060A00022DC122B11D8124A9B00D318DA6DC0B231
:1060B0009368013B591C17D055681C1CE95C013BD7
:1060C0008842F7DB1368A2000AE00A4A136BD46A1D
:1060D000013B09D35900615A8842F9DB926A9B005F
:1060E0009B58401A181800E0002030BDFFEF000058
:1060F0008403002004040020C02208B5D2000B4B0A
:10610000904206D1DB681A78052A0DD005221A7054
:106110000AE09B6984221B7892005B065B0E9B1849
:10612000984201D1FFF752FD08BDC046840300200C
:1061300038B5051C1C1C181C8D4209DB04989542BF
:1061400006DAC01A6D1A6843511A02F007FD2018CA
:1061500038BD044A0330136880108000181810609E
:10616000181C704798100020F8B501254E1E6C00D1
:10617000B54202DA165FB0420CDAA61E1D5F115F4F
:106180009B5F401AEB1A5843935FC91A02F0E6FC72
:106190004019F8BD0135E9E7014B18607047C0466A
:1061A000A8100020014B18687047C046A8100020B6
:1061B000014B18607047C046A0100020014B1868C2
:1061C0007047C046A0100020014B18607047C046C1
:1061D000A4100020014B18687047C046A41000208E
:1061E000014B18687047C046F8040020F0B591B024
:1061F000754606900F1C434871460995079208930F
:10620000FEF786F9404D00242B6869469E680BAA6C
:106210004F238C85201C13700AA9221C0A94FFF7B7
:10622000F3FE2D68B20052426968944667447318C1
:106230000497201CB34219D0049C9A00A218043A77
:106240001268069C03922A680021171C7743DF1905
:10625000BF00E71902976144013A05D3029F039CEE
:106260007F583C1B0019F6E7013BE3E7E96802F0C1
:1062700075FC264B061C1A68254B9488002C03D10C
:106280001B6840229A600AE0D1881F68601A80016A
:10629000711A02F063FC6E2800DD6E20B8600CA954
:1062A00001230B708B707C235B42CB700020022299
:1062B000502388800E940B710F964A700535EA7F43
:1062C0004C797F23D201234013430EAA4B71FFF771
:1062D0009BFE0E4B64211A68079D137A089F4B435F
:1062E0006B4391783B410A4A002903D011688968C1
:1062F0004B439B1112680348D3600999FEF720F9BC
:1063000011B0F0BD8D610000F4040020A010002049
:10631000F8040020F0B5754687B00395274D02912B
:10632000041C7146281C171C1E1CFEF7F1F8244B98
:10633000FA691B685B7A9A40131E00DC0123214A2C
:10634000311C1268D068584302F008FC1E4B0090C4
:106350001D682F68BC463A1C6B68561E16D3191C64
:106360007143C918890061180439013B0CD3AF6827
:1063700002985743DF1901377F00385E009F47437B
:106380000868C01B0860EFE7321CE5E76946DBB22E
:106390004B748B746023624604200B7510234B757D
:1063A0000A74C874221C04A9FFF72EFE034803993F
:1063B000FEF7C6F8012007B0F0BDC046B562000088
:1063C000A0100020F8040020F4040020F0B5214DB6
:1063D00085B0744601940E1C041C7146281C171CC1
:1063E000FEF796F81C4B391C1B68D86802F0B6FB08
:1063F0001A4B00901F6839698A00A2180B1C043AD6
:10640000013B07D35D00705F009D45431068401B52
:106410001060F4E76A4661230126042013731023F9
:106420005373167251729672D0726B460537597B50
:10643000FA7F7F23D2010B40134302A9221C6D4631
:106440006B73FFF7E1FD03480199FEF779F8301C03
:1064500005B0F0BD6D630000F8040020F4040020D6
:10646000F0B589B07446069002912B4871460794A6
:106470000392FEF74DF8294B1E68294B34681B68C0
:1064800000940493274B1B680593274B1F68009CBF
:10649000013C00941FD374680099244A6143A518F5
:1064A0006D18069BAD0001915D19013CEFD3039976
:1064B000286802F005FB04998B78002B07D0059A19
:1064C000019953181B5DBA685843504300130004E8
:1064D0002860043DE9E7124B34691E68114B1F68C0
:1064E000013C13D30299A5004859039902F0E8FA38
:1064F000B378002B06D0F0223B1992009B181B7832
:1065000058438011029B00045851E9E7024807995B
:10651000FEF716F809B0F0BD01640000F404002095
:10652000A0100020A4100020F8040020FFFFFF3F6F
:10653000F0B51F4C071C0E1C85B07146201C75461B
:10654000FDF7E6FF1B4B2A371B683A78197D4A4353
:10655000316892098A4200DA0A1C197C4A43921176
:1065600001929B7B9A4200DA019302AB00229A804F
:1065700001221A705A709A707C225242DA701F22DD
:106580001A710D4A587912680532D17F7F22C901EC
:1065900002400A435A71191C01AA0620FFF734FD74
:1065A000201C291C019EFDF7CBFF301C05B0F0BD5F
:1065B000D1640000A0100020F4040020F0B58DB0DC
:1065C00075460C1C0790714648480392089309953C
:1065D000FDF79EFFFAF7AAFAFAF7B4FAFCF74EFFB6
:1065E000434D04902B680122002668460AA90A70D0
:1065F000868519692920684401702A2068442B2166
:106600000270694404220A700BA85A2202700533F2
:10661000DA7F2D236B4419787F23D2010B402D2084
:106620001343684403700AA90220039AFFF7ECFCA5
:10663000231C2A331E7080231B0663632D4B2F6897
:10664000A3632D4B3D691B6801932C4B1B6805937D
:106650002B4B1B680693013D37D3A900049B039A7B
:10666000029156583869597A02F0CEFA0898890092
:106670000B58616BF31A994200DA6363A26B9A427A
:1066800000DDA36301988378002B07D00599F022E1
:106690004B1992009B181B785E43B6111298029911
:1066A000019A43581B0C9E1BD37B9E4202DB06982B
:1066B0000123037107996B00CE52231C2A331A78E9
:1066C000964200DA161C1E70C5E70B4B2A341B6875
:1066D00022789B7A00209A424041C4B2099903482B
:1066E000FDF72EFF201C0DB0F0BDC0465D6500001B
:1066F000F4040020FFFFFF7FA0100020A410002062
:10670000F8040020F0B59BB075460C1C1390714640
:10671000C148069214931595FDF7FAFEFAF706FAAA
:10672000FAF710FABD4E0025336817A89F681A685B
:1067300005975B6859276F4405803B705A20059F79
:106740006844077016A95B200A7004236844059A00
:10675000037017A951230B700132069B92009A18FF
:10676000022016A9FFF750FCA31DDD770233DD7769
:106770007F27631DDF77E31DDF77A94F291C38686A
:106780005022603002F08EFA3868291C50221030F6
:1067900002F088FA02F08EF9032808D1A14B1B6899
:1067A0001D789F785A780C950A97DB7808E0336853
:1067B0000A951A685B68013A013BD2B2DBB20C95CC
:1067C0009949059D096852B2049198495BB20968DC
:1067D0000D930F919149531C08686B439049069F94
:1067E0000E68111C083149009B00FB1871180791B5
:1067F0000B93A90080238E4D002749421B06844637
:106800001191099508930597381C0C9D6BB29A421B
:1068100000DAB3E00D99531C12930B1C30335B006C
:10682000F31806930A9D6BB2994200DA9DE00B9F24
:106830008B00FD18149F6D68FB58089FEB1A9F4250
:1068400000DA0893099F9F4200DD0993049B9F781B
:1068500063465B680193002F07D053430F9F7F1857
:10686000FB5CB7685D437D432D13019F209B57431D
:10687000CF19BF00FF583B0C67465B1BBD68129FDA
:106880007D434D19139F01356D00EB53049F002B81
:1068900056DB11257D57AB4219DB27685D1B7D193F
:1068A00025606569112701356561049DAD7C6DB278
:1068B0000395049DEF5765680295039DAB4201DC8B
:1068C000DF1B01E0039DEF1B029DEF196760E76886
:1068D000BB4204DDCDB2D7B210950E97E360049FA2
:1068E000BD7BAB421BDB251C08351F27EF578F42B2
:1068F00000DAE977E51D1F27EF578F4200DDE977C2
:10690000A51D1F27EF57974200DAEA77651D1F275D
:10691000EF57974200DDEA77059D013505959FB257
:106920000297069FC0183D88029F7D192F1C069D67
:106930002F80079D029F2D887F19079D2F800FE0D4
:1069400013257D57AB4206DCA7685D1B7D19A5604A
:10695000A5690135A5612569AB4200DA2361C01A3A
:10696000069F0139023F06975CE7079F0B99119B31
:10697000023FC918013A07970B9146E7274B0125BB
:106980001E680027F16802F0E9F87C2318A95B4231
:10699000CB7076238F80E0610B710D704D708D7020
:1069A00005364879F27F7F23D20103401343221C2E
:1069B000281C1C324B71FFF727FB0598A21D206293
:1069C0001F21631D51561F229A56154B1B68914279
:1069D00001DB1D7100E01F71089D099FE5622763BF
:1069E000109D231C0E9F28331D705F700E4BE068B6
:1069F0001B6801259A7A904206DA0C215A5E2369B7
:106A0000D117DD0F9A424D4103481599FDF798FDC6
:106A1000E8B21BB0F0BDC046A5660000F40400203B
:106A2000F8040020A8100020A0100020A4100020CE
:106A3000FFFFFF7FF0B589B007931D4B00921D68E3
:106A40000691AA682968161C4E43049201391DD389
:106A50006B68009F1C1C4C43E418A4002418A44637
:106A6000F418A4003C1905940024043C013B0AD30B
:106A7000059F3A1967463F5903975768039AD219F9
:106A800067463A51F1E7049AB61ADFE72A69069C8D
:106A9000079D9300E118E8180023043B013A04D352
:106AA000CE58C758F419CC50F7E709B0F0BDC0462E
:106AB000F4040020F0B589B07546029003913D487A
:106AC0007146079504920593FDF722FD3A4D029811
:106AD0002B680021DA69920002F0E4F8374B1B685A
:106AE000DC78002C20D00420FDF724FA324B186803
:106AF0004269551E16D38369029E191C6943C91841
:106B0000890071180439013B0AD38668059F5643F2
:106B10009E190136B600F6590F68BE190E60F1E7EE
:106B20002A1CE6E7013CDCE7234C244F26683C683E
:106B3000756906940195019C013C019411D3B469D7
:106B4000019D029A65432D19AD005519043D013C84
:106B5000F1D3069B2868D97801F0B2FF00042860C1
:106B6000F4E7F26800219200039802F09BF8124DBE
:106B700004982B6800211A69920002F093F83E688D
:106B8000F478002C0AD00520FDF7D4F90398049975
:106B9000059A0E9BFFF74EFF013CF2E73B68039816
:106BA000DA780499FFF75CFC02480799FDF7C8FC06
:106BB00009B0F0BD556A0000F4040020A0100020C8
:106BC000F0B591B07446039004916E4871460994F3
:106BD0000892FDF79DFC6C4D00222B686E469C6868
:106BE000586929219B69B28569442A222B260B709A
:106BF0006A4404236E4433701470049E621C0AAF0E
:106C000092003870A0230BAF02200AA9B2183B7083
:106C1000FFF7FAF92968271C486947438446029719
:106C200062468B69013A944631D3029D049EEA186C
:106C30009200B218059262465A43089FD2189500F6
:106C40007D190695039D5200AA181D1C4543039EFD
:106C5000ED186D00079275190022023A013B12D31C
:106C6000069F5600BF593F0C0097059FBE197768D5
:106C7000009EF71B079EB752FE17BF197740AE5A0A
:106C8000BE19AE52E9E7029F3F1B0297C8E70CA965
:106C9000DBB24B708B707E2301305B420870CB708F
:106CA0000026A1230120039A8E800B71FFF7ACF917
:106CB000364BFF251A68344B16601868344B8169CF
:106CC0001C680B1CA446013B13D34469039F4C432F
:106CD000E41864003C5F67463F78BC42F3DB9E42A9
:106CE00000DADEB29D4200DDDDB217683C191460A7
:106CF000E9E70EA904230124CB70002764238F80C9
:106D00000C700B714C708C700530C07F7F23C001FC
:106D100002904879034002980343201C4B71FFF70F
:106D200073F91A4B1A681A4B12681B685B789A42FF
:106D300020D9154B69B21B68039F9A695B695A4356
:106D400073B25B1AD90FCB182341EB18AD18A540CD
:106D5000DBB2E95F9B18039DA340EB5E271C9942C1
:106D600008DDB218039EA240925FD917D70F934255
:106D70004F41FFB203480999FDF7E2FB381C11B0FF
:106D8000F0BDC046616B0000F4040020F804002050
:106D9000A0100020F0B58BB0744603900E1C334851
:106DA000714607940292FDF7B3FB314B1D68314BDE
:106DB00028681C68A769391C01F082FE2E4B1B68ED
:106DC0005B7A9840002800DC0120EB680299584368
:106DD00001F0C4FE6169BB005B424A1E8446381C58
:106DE000029350437B005C425343C019039D8000D3
:106DF000F31804942818059300910024009D013D88
:106E0000009515D3059E021CA61906963B1C043A54
:106E1000013B08D3069E5D00765F654675431668A4
:106E2000761B1660F3E7029A049B8018E418E5E7E6
:106E300021242225FBB208AA6C446D4411702370F2
:106E40002B7009AA6023232625240420137008A987
:106E50001023039A6E446C4430702370FFF7D4F80B
:106E600002480799FDF76CFB0BB0F0BD356D0000D3
:106E7000F8040020F4040020A0100020014B18604A
:106E80007047C046B0100020014B18687047C046DC
:106E9000B0100020014B18607047C046AC100020B5
:106EA000014B18687047C046AC100020014B1868B1
:106EB0007047C046FC040020F0B5724689B07146A8
:106EC0005B480792FDF724FB5A4C002120683E22C4
:106ED000503001F0E7FE206800210A228E3001F0D8
:106EE000E1FE206800210A22983001F0DBFE2068D4
:106EF00000212822A43001F0D5FE206800210A22BA
:106F0000CC3001F0CFFE206800210C22D63001F0F9
:106F1000C9FE206800210C22E23001F0C3FE206887
:106F200000210C22EE3001F0BDFE20680021052278
:106F3000FA3001F0B7FE206800210522FF3001F091
:106F4000B1FE2468FF23221CEF3213700C3A137039
:106F50000C3A1370384B1B685A696A23FF3353434A
:106F60009B096362354B1D68A968EB684F00F81AEE
:106F700059000002019301F0F1FD2B696A695B0081
:106F80000590E062981A510000020292039301F00A
:106F9000E5FD2B4B04901E682063731D0399DA7F77
:106FA000E88B2D8C49427B42069503917768002A35
:106FB0000FD0019A316850430139C018514301F094
:106FC000CDFD069B051C0298039958434018791E75
:106FD0000FE00199019A4843791EC018514301F00E
:106FE000BDFD069B051C0298039958434018316863
:106FF0000139029A514301F0B1FD854200DD051CC3
:107000000599EB0F013F5D193F024B00DF19049B0F
:107010006D105A003368E563013B1B02D3186763A8
:10702000A36303480799FDF78BFA09B0F0BDC0468A
:10703000596E0000FC040020AC100020B0100020AD
:10704000F404002070B5084C7146061C201C7546DF
:10705000FDF75EFA301CA422002101F023FE291C5A
:10706000201CFDF76DFA70BDE56F0000F8B5144CFB
:107070007146061C201C7546FDF74AFA114B00218B
:107080001A68201C131CD6331970FF2159700E4B3F
:107090001B681B7C013BDBB2FF2B0DD059008F5BC3
:1070A000191C683149003CB25118002C01DD0F81D8
:1070B000F0E700240C81EDE7291CFDF741FAF8BD4B
:1070C0000D700000FC040020F4040020F7B57446A5
:1070D00001940E1C041C71461E480092FDF718FA1C
:1070E0001D4B1B681B6ADBB2013BDBB2FF2B28D0B8
:1070F0005A00B1182A25485F009D9F00AA18E71979
:10710000002819D0181C2830400000190425405FC1
:10711000002811D00225485F7D682D1A6D1078680F
:10712000AC46844465465580F86A1627C95F411A03
:1071300049100818D082D7E778685080F96AD18260
:10714000D2E72378009C034823700199FDF7F8F9F2
:10715000F7BDC0466D700000F4040020F7B5194E6D
:107160007346051C0C1C301C71460193FDF7D0F9C9
:10717000154F0A2238680021CC3001F093FD134BE3
:107180003F681B68301C1A6AD2B2013AD2B200239F
:10719000FF2A10D0111C2831490069188B80111C5E
:1071A0001431490061184B80B9180E1C883698318B
:1071B000B3710B70E9E72B7001992370FDF7C0F9EB
:1071C000F7BDC046FD700000FC040020F404002060
:1071D000F7B5134E73467146301C0193FDF798F9CD
:1071E000104DFF2228680024031CD7331A7005278E
:1071F000013B1C703A1C211CFA3001F053FD286839
:107200003A1C211CFF3001F04DFD2868211C0A2288
:10721000D83001F047FD301C0199FDF791F9F7BD19
:1072200071710000FC040020F0B571467446061C24
:1072300085B048480394FDF76BF9474B34681A68EA
:10724000531DD87F116873685568002806D0013D2A
:10725000181C2D024B1E1B02019506E00139201C53
:1072600009021C1C6B1E1B0201910632D27F002AF0
:1072700000D0181A394A17683A1C28321178384A4F
:1072800000292FD1FF2808DC15680138297EFF3836
:10729000484380110130FF300BE0191AFF2908DC48
:1072A00015680139687EFF39484380110130FF308D
:1072B000181AFF2C08DC1568013CA97EFF3C4C43E2
:1072C000A4110134FF340DE0019D291BFF2909DCC5
:1072D00015680139EC7EFF394C43A4110134019D3E
:1072E000FF342C1B1268F96A1568401849005918B8
:1072F00068430092029501F031FC051C0098396B3F
:1073000047686418381C6043019C4900611801F00B
:1073100025FC009C237F9D4207DD029CE21A9542DA
:1073200004DB251C013DED1A00E01D1C009C637F61
:10733000984205DDFA1A904203DB013FF81A00E09B
:10734000181C7060356003480399FDF7F9F805B023
:10735000F0BDC046C9710000F4040020FC04002008
:10736000B0100020F0B58FB0754671460590B34857
:107370000795FDF7CDF8FEF703FE0690FEF706FE33
:10738000059E01255436059C03960495049DAC4B3F
:10739000013D1B6802951B6A029EAA4D9E4200DBBE
:1073A000E6E0029E2868760083191A1C52320021FA
:1073B000525E66330A9200229B5E0AA801960B93E6
:1073C000FFF732FF039E328810B28446002800DCAB
:1073D00081E06168E26A08A808910992FFF724FF3A
:1073E0000A9B2A68029D9C465319C8331D79964B07
:1073F000089809990B9F1B68002D01D15C3300E0B0
:107400005D33029D1B783C356D0055190226AD5F3A
:10741000002D0DDDCF1BFD177F196F409F4207DA4E
:107420006546461BF51776196E409E4200DA8FE0DE
:107430000CAB1E7880256D423543DF263540402653
:1074400035431D70FF32567901221640EFB21022EB
:1074500097433601049D0F223E43964315405F78C3
:1074600035430612164097431D703E430D121640D9
:107470002D013543039ED970B18A5D709870FF224B
:10748000FE2900D8CAB2069D1A71002D07D1039EAD
:1074900031880A1C09B2FF2900DDFF225A710CA8AD
:1074A000FEF77EFD674B019D1A685319191C7A314E
:1074B000029D0026895F5219C832002901DD012191
:1074C00000E00021117166681A1C52321680E06AD1
:1074D000663318803CE004992B683B314900591809
:1074E0000225495F002933DD0CA805785F2129407A
:1074F000402529430170FF335D7901231D40CEB241
:1075000010239E432D0104990F2335439D431940B9
:107510002943467801700B999E430A9D01960E12ED
:1075200036012F120096019E1F4037431F40009BDB
:107530008570069D1F4300234770C17003719D42F3
:1075400004D16646FF2E00DDFF224271FEF728FDC2
:107550003C4B039D1968029B2A883C335B00CB1887
:107560005A80049E023501360496039504340DE7D3
:107570002B68D7215956EF331B785AB2481C30D0AC
:1075800091423AD00CAC013209D000220C926260D8
:1075900001330F221340201C2370FEF701FD00234E
:1075A0000C93636080235B4223702B6826781A1C3F
:1075B000D73212780F218E43501C0840311C069E92
:1075C00001432170002E0AD152B2683252009B183A
:1075D0001A89131C12B2FF2A00DDFF2363710CA865
:1075E00009E0013209D000220CA80C92426001335C
:1075F0000F2213400370FEF7D3FC2968059D0B1C76
:107600002E7850330C1C1E70FF3463790D1CEE3540
:10761000A371D631281C0C2201F002FB0123002E9D
:1076200002D12B785A1E93416372FEF7B1FA0348D8
:107630000799FCF785FF0FB0F0BDC0460573000049
:10764000F4040020FC040020AC10002010B502243B
:107650008B7804575AB2944200DD8370CB780324B0
:1076600004575AB2944200DAC3700B7800240457CE
:107670005AB2944200DD03704B78012141565AB250
:10768000914200DA437010BDF0B593B00293CB4B3A
:1076900004911B68049C9B68059207936300C318C0
:1076A0000C9384331D880A935300C31884332CB27F
:1076B00001950D931D88049B92009B00C7188618A6
:1076C000706808937B6803952DB26343684301316A
:1076D000C0180B9161190992069101F03FFA00B2AE
:1076E0007860706C06994543786C4443281901F022
:1076F00035FA00B27864381C02990422A43001F0F3
:107700008FFA019C039D63190A9C0D9D2380059CA3
:10771000002301342B800A94199D089C0A9B291987
:10772000099C2A1901250F2B07DC10689D400C6865
:10773000054025430D600133F4E7059C281CA0405B
:10774000049C00231360A540199AAC46C643059CCF
:10775000A34217DA1468204211D0049DAB4203DA29
:1077600065462C43146007E0049CA34204DD0D68C9
:1077700001249C402C430C60146834401460013395
:107780000432E4E7029D079C2D786DB22B1C013377
:107790005C4301950694029C0123E356019D9D42A2
:1077A00000DDA2E0029D0223EB56069C189DE31823
:1077B000EB180393039C189D631B069C029D1B1BE7
:1077C00008930323EB56089C9C4200DD86E0039C53
:1077D0006278013A112A00DC7CE00121052349424C
:1077E0000020013B002B27D0754E0125F4186D4277
:1077F0006557019CF6186519079C01356C43F679AD
:10780000A446189D089C76B209962E19644635192F
:10781000099C2D196C78013C0F2CE2D8049DAC42D8
:1078200002D0059DAC42DCD14D1C03D0A142D8D082
:107830000120D6E7211CD4E700284BD0122A47D1DB
:10784000039C0B9D65700524013C002C42D05C4BD1
:10785000089D1A19D279012152B2AD181B1949425B
:107860005956AC46019D69180B1C079D01336B43AB
:10787000189D01336344EA18107809910028E3D178
:107880001A985B001B5A002BDED0122010700C9A45
:10789000796884321688604635B2584369430002DD
:1078A00084460D91081C796C9E194D430999B6B216
:1078B00059431680090236B260446D18311C01F03C
:1078C0004DF9311C7860281C01F048F97864BBE759
:1078D000039C6270039D013503956BE7019D069C37
:1078E00001350195079D641954E70022A256079CB3
:1078F000511C6143029D0123EB569A421ADC029D02
:107900000223EB56189CCB18E318189D5C1A641BD5
:10791000029D03202856844208DC5878059D0138D2
:10792000A84201D10B9C5C700133EEE7079C013249
:107930000919DFE70B9D68460023392210958387DC
:107940000A9D6A44022313703A2311956B44012562
:107950001D703B207C23194F0EA968445B420370C5
:107960000D700C230FA90B703B683D206844053354
:10797000DA7F03787F26D201334010AC13430370C3
:107980000EA9221C0B20FEF73FFB1023637004237B
:10799000E37046232371402363713B682570A57013
:1079A00005336279DB7F1640DB011E430B20211C6F
:1079B000199A6671FEF728FB13B0F0BDF40400209D
:1079C000E88C0000F0B5ABB0754606900F91AB485F
:1079D0007146179218931B95FCF79AFDA84B309EA1
:1079E0001B6832789B680B93A64B012A08D1069C32
:1079F0002278012A04D91B689D891295DB8903E04E
:107A00001B681E8912965B8913930F277B1E002F1C
:107A100000D19AE1179C9A0012590597FA400D92ED
:107A20001F1C0D9D002DF1D0059E102EEED00D9D3A
:107A3000ED0700D482E1069EBD007519059E059BE9
:107A4000B400069E2833341960686E68391C361AF3
:107A50001096606C6E6C9B00361A1196109E283141
:107A6000F017361846400C96119E8900F01736180C
:107A700046400A96069E1CA8F3185B6871180431EC
:107A80001C93FFF7E3FD059B686840335B0024907F
:107A9000F31804215E5E3B1C079666684033089627
:107AA000069E5B00F31804215E5E079B079A58430D
:107AB000089BB2187343111CC018099201F04EF8CC
:107AC0006B6C646C079D664327936B432590089805
:107AD00009992690981901F041F81CAE28900021D0
:107AE0000C2221A8299401F0DDF83678712076B2B5
:107AF000079668440078722140B219906944097869
:107B0000331C0B9C49B27322013314916A445C43C9
:107B100012780E9452B21A92079C199DAC4200DD65
:107B2000B4E0149C0E9E189B079D3219023352003C
:107B30002D029A18169509920894089D1A9EB5422E
:107B400000DD93E00F9D0E9E089CAB191B19597820
:107B50004B1E0F2B41DD0020012205235242041C45
:107B6000013B002B2CD0484D0126AC467642ED1847
:107B7000AE57079DAE190B9D0136754366461595A8
:107B8000F518ED796DB204950F9DAC46089DAC4497
:107B9000159D2E1C049D664476197578013D0F2DA8
:107BA000DED8BD4202D0059EB54205D1561C05D097
:107BB000AA42D5D00124D3E70120D1E72A1CCFE780
:107BC00001324CD0002C0FD100280DD0099E113964
:107BD000308800F0C3FF041C08E0581C3FD0BB42B3
:107BE00002D0059CA3423AD1099D2C88002C36D0A6
:107BF000089E360215960326013E30D30C980A994A
:107C0000B50088420DDD27AA5059169B1199181A04
:107C10004843109900F0A2FF24AA5359159D181A41
:107C20000CE024A94859159A109B101A5843119931
:107C300000F094FF27A94B59169D181A401BC11735
:107C400040184840FF28D7DC80214900081A6043CB
:107C5000B20021ABD55800122818D050CCE7089EAE
:107C6000099C013602340896099466E7079C0E9D2C
:107C70000B9E0134AD1907940E954DE76579000010
:107C8000F4040020AC100020E88C0000239B219C11
:107C90009C4200DD1C1C0C9E0A9DAE4204DC0023AD
:107CA0009D420CD00A960C950A9E0C99B00100F0EA
:107CB00055FF3F2800DD3F20514B1818037C2D2134
:107CC000129D139EC81A68437343C01800F046FF04
:107CD0004443229BA412A34230DD059DBD4201DB3B
:107CE00005972F1C1DA91F9300238B8001230B7068
:107CF0008B707C235B42CB7027230B71414B02229C
:107D00001B6820944A7005334879DA7F7F23D201BB
:107D1000034013430B201FAA4B71FEF775F90F9E0A
:107D2000179C189D3A1C1CAB00960194029506986E
:107D30000599FFF7A9FC3B1C059F0593059E0D9C2B
:107D40000136640805960D946BE6069C2E4B277051
:107D500018680121403049421022261C00F0A2FF81
:107D6000069D84363C1C0020325EE3B2002A20DDF2
:107D700006990A7801320A70234A126812194032B1
:107D800017709F4213D06A68B800081842606B6C85
:107D900043643B1C403332885B00CB18291C9A801B
:107DA000A430A431042200F03BFF002333800137CC
:107DB000FFB2013402360435102CD4D127A9002398
:107DC00027938B800F4B0B9D1B687F221C680F9E97
:107DD0000C705B6806204B70CB788D70934301224A
:107DE00013432A1C0132CB70B21830230B71FEF7FB
:107DF0000BF906481B99FCF7A3FB2BB0F0BDC0465E
:107E0000E88C0000F4040020FC04002065790000E8
:107E1000F8B5184B0F1C1E68174B1D68F38B696B68
:107E2000584300F09BFEC317C418308CA96B7843ED
:107E30005C4000F093FEC317C5185D40AC4202DB06
:107E4000231C2C1C1D1CA001291C00F087FE0B4EBE
:107E50003018037C281C002B0BD05A22D21A523621
:107E60005200955B5B0068439D5B00146C432414D7
:107E70000019F8BDB0100020FC040020E88C0000C0
:107E8000F0B5A1B07546041C049182487146079272
:107E90000A930B95FCF73CFB7F4B1B6805931A6A12
:107EA0002378934200DD131C049E01213370494264
:107EB00010220CA800F0F6FE10A8FF21402200F0CE
:107EC000F1FE059F754B3F6A1B68089706930026D5
:107ED000089DAE4254DA331C1433079D5B00EB1847
:107EE0000227DB5F002B48D0331C069D28339B0004
:107EF000EB186F6A5B6825781B0109950025DB1973
:107F0000039501250293271C6D4203980999C3B27A
:107F10008B421ED203984300E318843300215B5E3A
:107F2000002B11D00A9A7300D3180221585E7A6888
:107F3000101A1622995E7B6C591AFFF769FF029995
:107F4000884201DA039D0290039A043701320392BA
:107F5000DBE76A1C11D00CAB5957AA0010AB0131FA
:107F600007D09F580298874207D90CA998504E55C0
:107F700003E0029F0CA89F504655731CDEB2A7E792
:107F800000252378AB422AD90CAE775D7BB2013352
:107F900022D0AE000499FFB2A3195A68B80008189D
:107FA00042605B6C28372A1CC36240327B00CB18CE
:107FB0005200291CA21828319288890061189A80E1
:107FC00004317C30042200F02BFE344BBF001B68D0
:107FD000DF1910ABF3587B600135EDB2D1E7002516
:107FE0002378AB423DD90CAE7357013336D12B1CED
:107FF00040335B00E3189B88002B2FD0059F0020A7
:10800000396A88422ADA021C1432079E5200B218DA
:108010000227D25F002A1ED1021C049E2832520081
:10802000B2180427D65F002E15D10CA94855A90017
:108030006118049E4F68800030184760496CC16227
:10804000291C2831890061189380043104227C3076
:1080500000F0E6FD02E00130C0B2D2E70135EDB23A
:10806000BEE70E4B18680023C218059C40321178F9
:10807000246AA14202DA0CAD695C00E0FF21013301
:108080001170102BF0D103480B99FCF759FA21B06D
:10809000F0BDC046217E0000F4040020FC04002056
:1080A000F0B597B07446061C0891644871460F9469
:1080B0000992FCF72DFAFEF7F9FE614B0A901B6856
:1080C0001C6A231C2733651E5B001D34F318A400B3
:1080D00004333419039306346F1C00D1A8E0039EC7
:1080E0000027F65F0596002E00DC9BE00026544B2F
:1080F000A6571B6802960127E7570D93514B0026A0
:108100001B680B9707930496029F0B9EB7425EDC99
:10811000A31E00215956631E1B78029F5BB23F02CB
:108120000C930E97029B0C9E0133B1424DDC0D9EC9
:108130004F1CB268381C50430697089FC318FE5C5A
:10814000102E25DD0520013800281FD03E4E37189F
:108150003618013E3678FF7976B28E1901365643CD
:108160000096089E7FB2B446029E0197B444009EDA
:108170006744BF197E78002EE5D0079F76B2BE19FE
:108180003F36367876B2AE42DDD10AE0061C0BE00F
:10819000002E09D00A9F3F22BE19B2560026AA42DD
:1081A00002D1099F5B00DE5B231C7A3B18682833F1
:1081B0000E9F1B680902C01B591AFFF729FE464390
:1081C000049F0699BF190497ACE702939CE70498B3
:1081D000059900F0C3FC079FFB6B984200DA181C5E
:1081E00011A900238B8001230B708B707C235B42D1
:1081F000CB70B0230B71124B039E059F1B68B0829E
:10820000032280B214901395159705334A70DA7FD4
:1082100048797F23D20103401343122013AA4B71E4
:10822000FDF7F2FE039E013D023E0396043C53E738
:1082300002480F99FCF784F917B0F0BD41800000A7
:10824000F4040020FC040020E88C00000F4AC378EE
:10825000126810B551685CB201398C4201DA013301
:10826000C370837859B2002901DD013B83704378E4
:10827000126859B2013A914201DA0133437003782E
:108280005AB2002A01DD013B037010BDF404002046
:10829000F0B59DB075460791071C7146D1481395FE
:1082A0000A920D93FCF734F9CF4B16A91B680022F4
:1082B00018689E685B688A804B700123CB70082326
:1082C0000B71079D331C0133EB180870F4B21A1CB4
:1082D00006200C9301960B948C70FDF795FE1023ED
:1082E000013BDBB2FF2B0CD09A00BA18101CA43053
:1082F0007F2101708170A732FF2101300170117060
:10830000EEE7BA4B00221B68229E1A620D22B2567B
:10831000019C501C6043229E0C23F3569A4257DB6B
:10832000229D0D9E0F2341007618EB56B446229CE9
:108330000E2161568B4247DB079C2118C9184D78E6
:108340002C1C113C2D2C02D800244C703AE0013D2D
:10835000EDB203950F2D35D8590061444C88A349DF
:1083600009680E6A01360E62A900251C5D43791862
:108370004E687619251C55434E604E6C76194E6436
:10838000039E75007D1984352E88A4192C800C1C41
:10839000A63400256557AB4200DA23700C1CA734C5
:1083A00000256557AB4200DD23700C1CA43400256A
:1083B0006557AA4200DA2270A53100240C57A24268
:1083C00000DD0A70013BB2E7019D013A401BA2E7C4
:1083D000019E3C1C3D1C7300A43420355B4202947A
:1083E00012950F930697069B843300201B5E002B8B
:1083F00002D13C1C0025FDE00298FFF727FF029CFC
:10840000019A6478079D64B2231C01335A43019E8C
:10841000AA1809927200534303940D9C0025E31897
:1084200010930895029C0023E356039D9D4200DAB9
:10843000CEE0029C0326A657089D109C2D1911958D
:10844000029C0223E3569E4200DAB5E0099DAD1975
:108450006B780495002B02D03F2B00D0AAE0119C32
:108460007300E3185C88002C00D1A3E0002315936F
:108470000523013B002B20D05D4A0720D1180A1CA0
:108480000856012149425156039D6918019D013149
:108490006943079DAA191218521851784A1E0F2ACB
:1084A000E7D8002215A8855C002D01D18154E0E7B2
:1084B0008D42FBD00132D2B2F4E715AA9A5CDDB24C
:1084C000002A04D00133042BF7D11D1C01E0002D3C
:1084D00070D0291C201C00F041FB049A291C11318A
:1084E000059151700399331C4343414304930E910A
:1084F0000023691E009115AA8B421ADAD15C241A56
:1085000001398A00BA180091516801338C460499E8
:108510008C4461465160516C8C460E998C44614686
:108520005164009A5100791884310A8812180A801F
:10853000DFE7D25C211C013A93007143FB185868B5
:10854000411859600399586C6143411859645300AC
:10855000FB1884331A88059914191C8000231229EA
:1085600028D0009A934225DA01331A1CAA42F8DA7D
:1085700015ACE01801380078145D0138013C012188
:10858000C0B2E4B28C46A04209D20A998000081811
:108590006146A1400C1C01680C43046008E00A9984
:1085A000A4000C1961468140081C21680843206022
:1085B0000132DBE7013E43E7039D089E0F9C013D2E
:1085C000361903950896099D019EAD1B099529E76B
:1085D000069E04340294129C02360696A64200D0EF
:1085E00001E706E731820000F4040020FC040020CB
:1085F000E88C00006A00BA1884321688EBB2002EAC
:1086000015D0616836B20802311C00F0A7FA626C1E
:108610006060311C100200F0A1FA6064201CA430DC
:108620000135FFF713FE0434102DE3D12B1C18A9DC
:108630003B7010234B700423CB70164D46230B71F7
:1086400040234B712B6801240C708C7005334879E2
:10865000DA7F7F23D201034013430B200A9A4B7128
:10866000FDF7D2FC1AA900238B802B680B9E1D6896
:108670005B680C9A4B7006202D230B710D708E7069
:10868000CC70FDF7C1FC04481399FBF759FF1DB0EE
:10869000F0BDC046F404002031820000F0B5204F48
:1086A00085B074460291051C0E1C381C714601945D
:1086B0000392141CFBF72CFF1A4B381C19680B682B
:1086C000DA0FD2184B685210D90FC9184B10012D70
:1086D00009D0002D04D0022D0DD0032D0FD017E0AE
:1086E000964203DD15E00025964212DBE50FC9171F
:1086F000A3424D410AE00025964203DD09E0002532
:10870000964206DBE517DA0F9C425541EDB200E0D8
:1087100000250199FBF714FF281C05B0F0BDC046E9
:108720003D860000B010002082B073B5134D00915B
:10873000041C7146281C019207937646FBF7E8FE5D
:108740000099079A281C8B1AD9175B184B400025F3
:10875000A3420ADC019A089BD31ADA179B185340EC
:10876000DD0FE2179C425541EDB2311CFBF7E8FEEC
:10877000281C76BC08BC02B01847C046C986000059
:10878000F0B55E4D87B076467146071C281C0396EF
:10879000FBF7BEFE786804ACF96A0490201C6160A7
:1087A000FEF742FD564B00261B681B6A013B08D3AF
:1087B0005A00BA1854320020125E002AF6DD012653
:1087C000F4E7504D002E4ED03A78012A44D12A6861
:1087D0009378002B31D11378002B03D1131D211C6A
:1087E000C0C9C0C3131C0026D6700C33211C81C91C
:1087F00081C3454B1B680621585E6368009351682E
:10880000049B9268FFF790FF012804D12B681A7827
:1088100001321A7001E02F683E702B685878D968D1
:108820001A69FFF73BFF012804D12B685A780132FF
:108830005A7002E02868002343702B68FF22997861
:10884000FD2901DC4A1CD2B22F499A700968897847
:10885000914248D8002244E02A68937000231370A4
:108860005370D3703FE02A68D378002B11D1264B88
:10887000264996701B684968244F18790091D16881
:108880003B681269FFF750FF002802D12B681E7069
:108890005E701C4BFF221B68D978FD2901DC4A1C45
:1088A000D2B21949DA700968C87890421BD81D788D
:1088B00008780022A84203D058784978814205D12F
:1088C000DA709A701A705A7002250DE0111C002D92
:1088D00001D0002803D1D9709970002504E0FF2150
:1088E000D9701A705A700125084B03CC03C3034892
:1088F0000399FBF725FE281C07B0F0BD2187000077
:10890000F4040020FC040020AC10002054080020D7
:1089100010B5054C812220680449120100F080F94D
:108920002268034B1A6010BD0C06002020AC00002A
:10893000B8100020014B18687047C0460C06002094
:10894000014B18687047C046B8100020014B1860F2
:108950007047C046B4100020014B18687047C046ED
:10896000B41000200048704730B4000038B5FAF762
:1089700085FD0F4B41791B68012559604279941C94
:108980002A40A2189A6082791A604A43C479DA6050
:108990001C61427902219A61AA40DA610268596138
:1089A0001A6201795A1DD17702790633DA7738BD18
:1089B000F404002010B5FAF761FD0D4A0D4B116863
:1089C0000D4A487894791B68201A987149780029D3
:1089D0000CD0111CA432A83112680968181C52006E
:1089E0005218A430A83349000260196010BDC04677
:1089F000B4100020B810002020AC000008B5FFF72C
:108A0000D9FFFFF7B3FF08BD224B70B55A68EA24BF
:108A10006400107060431C68C0301F4B24181C6039
:108A20001E4B1D68281CFAF723FD201CFAF72CFDAD
:108A30001B4E301CFAF734FD281C6030F8F770F834
:108A4000A2235B00E018F8F777F8281C9030FDF7B8
:108A5000A3FBAE225200A018FDF7AAFB114BF018A1
:108A6000FDF7B2FB281C9430FEF708FABA22520038
:108A7000A018FEF70FFA281CB830FDF709F8EA2312
:108A80005B00E018FDF710F8FFF7B8FFFEF714FAE7
:108A900070BDC0460C060020B4100020B8100020A5
:108AA00030B40000A3040000014B5B6818707047ED
:108AB0000C060020014B5B68187870470C060020FC
:108AC000002934D00123002210B488422CD3012481
:108AD0002407A14204D2814202D209011B01F8E716
:108AE000E400A14204D2814202D249005B00F8E7CF
:108AF000884201D3401A1A434C08A04202D3001BFB
:108B00005C0822438C08A04202D3001B9C0822432D
:108B1000CC08A04202D3001BDC082243002803D06B
:108B20001B0901D00909E3E7101C10BC704700289D
:108B300001D00020C04307B4024802A140180290AF
:108B400003BDC046D90000000029F0D003B5FFF7EF
:108B5000B9FF0EBC4243891A1847C046002941D0CC
:108B600010B4041C4C40A44601230022002900D567
:108B70004942002800D5404288422CD301242407D2
:108B8000A14204D2814202D209011B01F8E7E400AC
:108B9000A14204D2814202D249005B00F8E7884238
:108BA00001D3401A1A434C08A04202D3001B5C08B0
:108BB00022438C08A04202D3001B9C082243CC080D
:108BC000A04202D3001BDC082243002803D01B096B
:108BD00001D00909E3E7101C6446002C00D540428F
:108BE00010BC7047002806D003DB0020C0434008BB
:108BF00001E08020000607B4024802A1401802905C
:108C000003BDC046190000000029EBD003B5FFF7F3
:108C1000A7FF0EBC4243891A1847C0467047C0469A
:108C2000F0B50F2A35D9031C0B439C0735D1161C10
:108C3000103E36093501451910350C1C031C2768F8
:108C40001F6067685F60A7689F60E7681034DF6037
:108C50001033AB42F3D1731C1B01C518C9180F2385
:108C60001340032B1BD91C1FA4080134A4000023AC
:108C7000CE58EE500433A342FAD1ED18C91803239D
:108C80001A4005D00023CC5CEC5401339342FAD156
:108C9000F0BD051C002AF5D1FAE7051CF2E71A1C05
:108CA000F8E7C046F0B5830746D0541E002A42D0EC
:108CB000CEB2031C032503E0621E002C3BD0141C23
:108CC00001335A1E16702B42F6D1032C2BD9FF25E7
:108CD0000D402A0215432A0415430F2C15D9271CD1
:108CE000103F3F091E1C3A011036B6181A1C1560B9
:108CF00055609560D5601032B242F8D101373F011E
:108D00000F22DB191440032C0DD9271FBF08BA000E
:108D10001E1DB6181A1C20C2B242FCD10137BF007A
:108D20000322DB191440002C05D01C19C9B219709C
:108D30000133A342FBD1F0BD141C031CC5E7C046A0
:108D40000600000008000000FF000001FF01FF0115
:108D500000FF0100FFFF01010001020304040506FA
:108D60000708090A0B0B0C0D0E0F1011111213142A
:108D7000151516171818191A1B1B1C1D1D1E1F1F51
:108D8000202121222323242425252627272828299A
:108D9000292A2A2B2B2C2C2D2D0000007804EF08DB
:108DA000660DDB115016C21A331FA1230C28742C38
:108DB000D93039359639EE3D42429046D94A1B4F5B
:108DC00058538E57BE5BE65F07641F68306C39707E
:108DD00038742F781C7CFF7FD983A8876D8B278FF1
:108DE000D5927996109A9B9D1BA18DA4F3A74BABAE
:108DF00097AED4B104B526B839BB3EBE34C11BC44E
:108E0000F2C6BAC973CC1BCFB3D13BD4B2D619D9F1
:108E10006EDBB3DDE6DF08E218E416E603E8DDE921
:108E2000A5EB5BEDFEEE8FF00DF277F3CFF414F6C9
:108E300046F764F86FF967FA4BFB1BFCD8FC81FD21
:108E400017FE98FE06FF5FFFA5FFD7FFF5FFFFFFA8
:108E50003000002014060020000000000000000088
:108E60000000000000000000000000000000000002
:108E700000000000000000000000000000000000F2
:108E800000000000000000000000000000000000E2
:108E900000000000000000000000000000000000D2
:108EA00000000000000000000000000000000000C2
:108EB00000000000000000000000000000000000B2
:108EC000000000000000000000FF000000000000A3
:108ED000000000000A000000000000000000000088
:108EE0000000000000000000000000000000000082
:108EF0000000000000000000000000000000000072
:108F00000000000000000000000000000000000061
:108F10000000000000000000000000000000000051
:1091900000000000000000005006002050060020E3
:1091A000400600205006002028070020CC040020A4
:1091B000CB04002000000000E6040020D8040020BA
:1091C0009010002000000000000000005C0700205C
:1091D000540700204C0700203F070020E80400202F
:1091E0003D070020C70400203C07002000000000CD
:1091F0000000000000000000C3040020BE040020A6
:10920000000000003907002000000000AC0400202E
:109210009C0400200000000000000000000000008E
:109220008C040020000000007C04002000000000EE
:109230006C04002000000000580400200000000022
:1092400000000000000000004804002000000000B2
:109250003C04002028070020380400200200000001
:1092600000200060DC03002038070020010000001F
:10927000D003002054040020030000000010200050
:10928000BC03002064040020050000000010203012
:109290003100000084030020780400200300000057
:1092A00000102000D00400208804002001000000ED
:1092B000001000009003002098040020020000002D
:1092C0000010000098030020A80400200300000004
:1092D00000101100A4030020B804002006000000C4
:1092E000002030405070010000000000200100000C
:1092F000200100FF00200100D404002000600100D4
:109300000001000000000000000000000000050057
:109310004D49500000000000000400007C070020C0
:10932000A40700200005002000000000FFFFFFFF51
:1093300000000000FFFFFFFF00000000FFFFFFFF35
:10934000000000000000000000000000800100009C
:10935000000000000000000000000000000000000D
:1093600000000000000000000000000000000000FD
:1093700000000000000000000000000000000000ED
:1093800000000000000000000000000000000000DD
:1093900000000000000000000000000000000000CD
:1093A00000000000000000000000000000000000BD
:1093B00000000000000000000000000000000000AD
:1093C000000000000000000000000000000000009D
:1093D000000000000000000000000000000000008D
:1093E000000000000000000000000000000000007D
:1093F000000000000000000000000000000000006D
:10940000000000000000000000000000000000005C
:10941000000000000000000000000000000000004C
:10942000000000000000000000000000000000003C
:1094300000000000600800205C080020FFFFFFFF24
:10944000FFFFFFFFFFFFFFFFFFFFFFFFFFFFFFFF2C
:10945000FFFFFFFFFFFFFFFFF748FD922101230100
:109460004D344850435554310000000000000101C4
:1094700010B50420FCF76DFE00F02CF9FCF738FC69
:10948000F9F7F4FF234C244B22681B6823485360F0
:10949000D360234900F006F9236822489A682249DC
:1094A00001329A6000F0FEF8236820489A6820494B
:1094B00001329A6000F0F6F823681E489A681E4947
:1094C00001329A6000F0EEF823681C489A681C4943
:1094D00001329A6000F0E6F823681A489A681A493F
:1094E00001329A6000F0DEF8236818489A6818493B
:1094F00001329A6000F0D6F8236816489A68164937
:1095000001329A6000F0CEF823689A6801329A60BE
:1095100010BDC0467803002098100020090B000001
:10952000FD940000A56600002B9500006D70000002
:109530004D950000850C0000099600002D1E0000CE
:10954000259500002928000061950000FD290000F4
:1095500027950000D164000029950000084B10B544
:109560001B6800211A1CD8687D321478884204D107
:109570005B690121323300DB011C2143117010BDF6
:109580002800002070477047704708B5054B064A11
:109590001B681268191C186E483192680C3300F071
:1095A000D3FB08BD280000202C00002008B5034B89
:1095B0001B681869596900F09BF808BD2C00002051
:1095C000F0B585B0F7F7BEFA071CFCF74DFD244A4D
:1095D000041C244B1068C15CA1423ED0F9F75AFF2D
:1095E000051C061CDA35002C16D0002269463D23E6
:1095F000101C8A8000920B71FCF706FDAA780323E9
:1096000050211A400A43AA701422EA70321CE53233
:1096100007211170E63616E002A93E23221C201C09
:109620008C8002940B71FCF7EFFCAA7803231340A3
:1096300068221343AB701C23EB70331CE5330F22FD
:109640001A70E63605233370054A01235B42FB801E
:10965000044813681C54FFF7D1F905B0F0BDC046AB
:10966000280000203F03000038B5FDF71FFC041C54
:1096700050342378051CEE35002B04D02B78002BBA
:1096800001D1FDF7A5FD2B78002B08D02378002B06
:1096900005D1034B1B6818695969FDF75FFD38BD9B
:1096A0002C00002038B5051C08200C1CFCF751FDCF
:1096B0000560446038BDC04638B5041C081C002A4B
:1096C00007D0D118584362434D1010184019FFF7C6
:1096D00045FA38BD08B57820FCF73BFD034B002167
:1096E00018607822FFF7DEFA08BDC046BC100020E3
:1096F000F0B597B00C910590FDF7C6FBFDF7D0FBD8
:109700000690FCF76DFD041CFDF7D0FBBF4B0790E6
:109710001A680025106A0495C3B2013BDBB2FF2B27
:1097200010D0059E59007118081C683000888542C9
:1097300000DA051C54310027C95F049E8E42ECDA22
:109740000491EAE7079B2179FF33002925D0069988
:10975000523109888D4201DB01215971079B149513
:10976000FF335B7912A9159300238B8001230B70C3
:109770008B707C235B42CB700220662348700B7198
:1097800005324879D27F7F23D201034013430E2054
:1097900014AA4B71FCF738FC04E0059F3A78002AC4
:1097A00000D15A71079BFF335B79002B08D0002250
:1097B00014A93723101C8A8014920B71FCF724FC27
:1097C000924B1B681C6A013CE4B2FF2C64D0059FDD
:1097D0006600BE19371C543700203B5E002BF2D0C8
:1097E000069A311C92696831089108880392111C0D
:1097F000069B069A30331C32FCF7B6FC07990B190E
:1098000088339B79002B05D0069A5BB247321278D9
:10981000934228DC331C543300229B5E834211DBCD
:10982000321C68321188069A543212786A439211B7
:10983000914207DB069FBF6D3A1C049F7A43921149
:109840009342C0DA321C0023683213805436221C43
:1098500033802832079E9200059FB21853603B78F0
:10986000013B3B70AFE700217B5E64225343069AC5
:109870004432127850438342A5DA089E0023221C0A
:10988000338028323B80079F9200059EBA185360B0
:109890003378013B337096E7059F0C9C3B7823702F
:1098A00000233B70594B1B681B6A013BDFB2FF2F43
:1098B00000D1B3E1059E7D007619341C543408951F
:1098C0000020225E079D0B96E819002A00D16CE16A
:1098D000883082790132D2B28271069B52B247330C
:1098E0001B78991D8A4201DD04338371079E06248B
:1098F000F31988331C57012C00DC2DE1A01C032137
:10990000FFF782F9424B0A91022C10D10C227A43C4
:109910001B689A180323013B17D3059CB9006118F3
:109920004D6858001552C96A1018C180F3E71A68CB
:1099300006237B430C9E089C0A9D311948885B19BD
:109940005B009852C98AD318D980079EF3198833CF
:109950009B795BB2032B00DCE8E00A98032104301A
:10996000FFF752F92A4E06237B4334680A9D04947C
:109970005C19049D6400655F59180E95049D4900AB
:109980004D5B0E9BAC46049D2A190620155E05987A
:109990000D95049DBA006918C988851809916968F0
:1099A000EA6AC81A0D9B0F91C11740181092D21A7B
:1099B0004840D11752184A408018FF282ADC8022DC
:1099C0005200A023009280219B00FCF7B1FB33687A
:1099D0000490E05E1C190622A35E696809930C1AC4
:1099E000EE6AE317099AE4185C40B31ADA179B1879
:1099F0005340E418049A231CFFF75EFE311C686094
:109A0000049A0998231CFFF757FE6CE0F404002029
:109A1000BC10002063460E9C18B2201A0321FFF7E9
:109A20009DF8099E0D9C33B211900321E01AFFF7B7
:109A300095F8119E041C0E9832180F9EB21A0D9EB6
:109A4000D017A319109E1218F31A4240D8171B18EA
:109A500043400026D3180996802B01DD803B0993F3
:109A60000A9803210530FFF7CFF806267E430498B5
:109A70007618760083190621585E10990A230D9AEC
:109A80004B438018C000C0181A21FFF767F8099AE5
:109A90008023DB0000190499D4180D9060100A90FF
:109AA000705E0E9E0A2380190F9EC00073431A2118
:109AB000C018FFF753F8119E099B80190F9E800272
:109AC00073430A9EC0188019211CFFF747F80D9EAA
:109AD0006860099BB002109E211C73430A9EC01847
:109AE0008019FFF73BF8069BE862503300201C5EAC
:109AF0000C9E089835180B9E2A21685E5436002269
:109B0000B15E431ADA179B185340221CFFF7D4FDAD
:109B10003080E88F0B9D221C68352988431ADE1798
:109B20009B197340FFF7C8FD288015E0059C0C9D2C
:109B3000089EBB00E318AA190220115E5C68DE6A69
:109B40000919C80F4118491059601625525F92191A
:109B5000D10F8A185210DA62059CBA00A2180C9D27
:109B6000089E5068AB195880D26A079CDA820B9A1B
:109B700006205432118859850B9968310988D98794
:109B8000E319191C8831085606994731097888422B
:109B900003DC01214942118003E0059D2A7801324E
:109BA0002A70983300221A7036E0069B011C883117
:109BB000062547334D571B789D4226DD0C9E089D98
:109BC00073192A269D5F002D26D09830057801351F
:109BD000EDB2057006986DB248300078854201DD1F
:109BE0005A8518E0059D0226995FBA00AA185160AF
:109BF0001620195ED1625A8D2280DA8F0B9B683352
:109C00001A802B7801332B7006E03B1C0C9C14331C
:109C10005B00E3185A808A717B1E47E6079B00268B
:109C2000D6331E70474B1B681C7C013CE4B2FF2CF2
:109C300000D185E0079F65007D192A1CD832138862
:109C4000002B10D0291CE4310020095E1BB2002932
:109C500002DC0699453101E00699463109788B42CC
:109C600001DA00231380079F11883B1900293FD098
:109C70001A1CF83290787F2801D001309070F833A8
:109C80009B785BB20493022B11DD2B1CE433002282
:109C9000985E069A09B250320023D25E431ADF174B
:109CA000DB197B40FFF708FD2B1CD83318802A1CDA
:109CB000D83213880699E4352B8049310978049D00
:109CC0008D4203DC01235B4213800BE0079A1BB239
:109CD000D6321178013111709E4203DA079A1E1CA8
:109CE000D7321470079F00223B19F833DA719CE7D2
:109CF0000698F83302274930DF570078E435874269
:109D00001BDD2888002890D0DF790137FFB2DF7192
:109D10007FB2BC46069F4A373F78BC450DDC1080B9
:109D200000B2864203DA079B061CD7331C70079BE0
:109D3000D6331A7801321A7077E72980997074E760
:109D400017B0F0BDF4040020F0B58FB00F1C0B92DB
:109D50001D1C0990F9F792FBFDF796F8FCF72EFA17
:109D60000A90FDF7A3F8F6F7F3FE0490FCF738FA33
:109D700000237B73FB737F233B73BB73049E5F4B9A
:109D80000690F25C002A0AD141230093FA22686807
:109D9000642152002D23FCF7CBF9059001E0372612
:109DA0000596574B069A1E68002471684B00D3181D
:109DB00003910893039A023C013A03920DD3089948
:109DC000059A0B196033188807933368504399013B
:109DD000FEF7C4FE07990880ECE7049E4749735CD0
:109DE000002B0AD13723FA226868642100935200BD
:109DF0002323FCF79DF9061C00E02D26404B1C6830
:109E0000256803956B00069DEB18039D0793059548
:109E100000250599023D013905910BD30799626828
:109E20004919088A049170439101FEF797FE049B3B
:109E30001882EEE700200490039E6368721E43D3ED
:109E4000069D510069180591013B3BD3039DA16814
:109E50005E1C6943B44661440B9E49008D5F069EBB
:109E600059007118603109886D1A05990E8AA91B6D
:109E70000A9EB57BA94215DD0F26BE579E4200DA29
:109E8000FB730E26BE579E4200DDBB730D26BE57E8
:109E9000964200DA7A730C26BE57964200DD3A737A
:109EA000013001E0002904DD049D8D4202DA0491B5
:109EB00000E00021A668039D6E43099D6644B6003C
:109EC0007151C1E70392B7E70499002239600CA9E8
:109ED0008A802268099D0A70A2684B708A707C2370
:109EE00001325B4292007860CB70AA188323052070
:109EF0000B71FCF789F80FB0F0BDC0463E030000BF
:109F0000F4040020FFFFFFFFFFFFFFFFFFFFFFFF45
:109F1000FFFFFFFFFFFFFFFFFFFFFFFFFFFFFFFF51
:109F2000FFFFFFFFFFFFFFFFFFFFFFFFFFFFFFFF41
:109F3000FFFFFFFFFFFFFFFFFFFFFFFFFFFFFFFF31
:109F4000FFFFFFFFFFFFFFFFFFFFFFFFFFFFFFFF21
:10AC5000FFFFFFFFFFFFFFFF8DB5A0AF2301010145
:10AC60004D344850504154310000000000000000B5
:10AC700046004D45010100000000000023010101D4
:10AC80000A00000000101C00010000131415161724
:10AC900018191A1B1C1D1E1F202122000000000075
:10ACA000000000000000000000000000000000277D
:10ACB00028292A2B2C2D2E2F303132330203040564
:10ACC000060708090A0B0C0D0E0F1000000000000B
:10ACD0000000000000000000000000000000000074
:10ACE0004B350000000000000000000000000000E4
:10ACF000050032320100FFFFFFFFFFFFFFFF0000F2
:10AD00000A05FFFFFFFFFFFFFFFFFFFF00056401D4
:10AD1000010A011238040000800700000100000051
:10AD20000100000001000000010000004040404020
:10AD300001014204C2060000010000000A000000F8
:10AD4000010000BF000F0000000000000000000034
:10AD500000000000000000000000000000000000F3
:10AD6000000000000000000000F0000000000000F3
:10AD700000000000000000000000000000000000D3
:10AD800000000000000000BF000F000000000000F5
:10AD900000000000000000000000000000000000B3
:10ADA00000000000000000000000000000F00000B3
:10ADB0000000000000000000000000000000000093
:10ADC0000000000000000000000000BF000F0000B5
:10ADD0000000000000000000000000000000000073
:10ADE0000000000000000000000000000000000063
:10ADF00000F0000000000000000000000000000063
:10AE0000000000000000000000000000000003003F
:10AE100000000001E1A10000000000037318090018
:10AE200000090303230704230F00230F05D10000AB
:10AE3000710A48F61F00000000000000000000003A
:10AE40000000000000000000000000000000000002
:10AE500000000000000000000000000000010101EF
:10AE600001010101010000000000000000000000DD
:10AE700000000000000000000000000000000000D2
:10AE800000000000101E3C641E00FFFF14000000C4
:10AE900007000000FF7F0080FF7F00800A1E010383
:10AEA000000000005A030800008007070F0A0AF696
:10AEB0004000000002041E1464006400B00352034A
:10AEC00026025E0130000000400000000400000087
:10AED0000A00280050007800000000000000000078
:10AEE000000000003700370050009600000000000E
:10AEF00000000000000000004B28140201020200C4
:10AF0000F40100000000FFFF070000000F00000038
:10AF100001010000000000BF000F00000000000061
:10AF20000000000000000000000000000000000021
:10AF300000000000000000000000000000F0000021
:10AF40000000000000000000000000000000000001
:10AF50000000000000000000000000BF000F000023
:10AF600000000000000000000000000000000000E1
:10AF700000000000000000000000000000000000D1
:10AF800000F00000000000000000000000000000D1
:10AF9000000000000000000000000000000000BFF2
:10AFA000000F000000000000000000000000000092
:10AFB0000000000000000000000000000000000091
:10AFC0000000000000F00000000000000000000091
:10AFD0000000000000000000000000000000000071
:10AFE0000000030000000001E1A1000000000003D8
:10AFF00073180900000903033F1D063F1D003F1D94
:10B0000006D10000710A48F61F0000000000000091
:10B010000000000000000000000000000000000030
:10B020000000000000000000000000000000000020
:10B030000000000000000000000000000000000010
:10B040000000000000000000000000000000000000
:10B050000000000000000000100F3C641E00FFFF15
:10B060001400000007000000FF7F0080FF7F0080C9
:10B070000A0A0003000000005A030A0000800A0ABE
:10B080001E0A0FF14000000002041E146400640058
:10B09000B003520326025E013000000040000000B1
:10B0A0000400000000005D0074009C00000000002F
:10B0B0000000000000000000140014008000DA000E
:10B0C0000000000000000000000000004B281402F7
:10B0D00001020200F40100003200FFFF070000003F
:10B0E0000F00000001010000000000BF000F000081
:10B0F0000000000000000000000000000000000050
:10B10000000000000000000000000000000000003F
:10B1100000F000000000000000000000000000003F
:10B12000000000000000000000000000000000BF60
:10B13000000F000000000000000000000000000000
:10B1400000000000000000000000000000000000FF
:10B150000000000000F000000000000000000000FF
:10B1600000000000000000000000000000000000DF
:10B17000000000BF000F0000000000000000000001
:10B1800000000000000000000000000000000000BF
:10B19000000000000000000000F0000000000000BF
:10B1A000000000000000000000000000000000009F
:10B1B000000000000000030000000001E1A1000009
:10B1C000000000037318090000090303230F05237F
:10B1D0000F00230F00D10000710A48F61F00000085
:10B1E000000000000000000000000000000000005F
:10B1F000000000000000000000000000000000004F
:10B20000000000000000000000000000000000003E
:10B21000000000000000000000000000000000002E
:10B22000000000000000000000000000100F3C645F
:10B230001E00FFFF1400000007000000FF7F0080D9
:10B24000FF7F00800A0A0003000000005A03080084
:10B25000008007070F0A0FF14000000002041E14CF
:10B2600064006400B003520326025E013000000057
:10B27000400000000400000000005D0074009C001D
:10B280000000000000000000000000001400140096
:10B290008000DA0000000000000000000000000054
:10B2A0004B28140201020200F40100000000FFFF1D
:10B2B000070000000F00000001010000000000BFB7
:10B2C000000F00000000000000000000000000006F
:10B2D000000000000000000000000000000000006E
:10B2E0000000000000F0000000000000000000006E
:10B2F000000000000000000000000000000000004E
:10B30000000000BF000F000000000000000000006F
:10B31000000000000000000000000000000000002D
:10B32000000000000000000000F00000000000002D
:10B33000000000000000000000000000000000000D
:10B3400000000000000000BF000F0000000000002F
:10B3500000000000000000000000000000000000ED
:10B3600000000000000000000000000000F00000ED
:10B3700000000000000000000000000000000000CD
:10B3800000000000000000000000030000000001B9
:10B39000E1A1000000000003731809000009030385
:10B3A000230F05230F00230F00D10000710A48F678
:10B3B0001F0000000000000000000000000000006E
:10B3C000000000000000000000000000000000007D
:10B3D000000000000000000000000000000000006D
:10B3E000000000000000000000000000000000005D
:10B3F000000000000000000000000000000000004D
:10B40000100F3C641E00FFFF140000000700000046
:10B41000FF7F0080FF7F00800A0A00030000000019
:10B420005A030800008007070F0A0FF140000000D0
:10B4300002041E1464006400B003520326025E017D
:10B4400030000000400000000400000000005D002B
:10B4500074009C00000000000000000000000000DC
:10B46000140014008000DA0000000000000000005A
:10B47000000000004B28140201020200F401000049
:10B480000000FFFF070000000F00000001010000A6
:10B490000505050506060607070707070707070747
:10B4A000050506060607070707070808080808082D
:10B4B0000506060607070708080808080808080818
:10B4C0000606060707070708080809090909090900
:10B4D00006060707070808080809090909090909EC
:10B4E00007070707080809090909090909090909D6
:10B4F000070707080808090909090A0A0A0A0A0ABF
:10B500000708080809090909090A0A0A0A0A0A0BA8
:10B5100008080809090A0A0A0A0A0A0A0B0B0A0B90
:10B520000808090909090A0A0A0B0B0B0B0B0B0B7C
:10B53000080809090A0A0A0A0A0B0B0B0B0B0B0B6A
:10B5400008090909090A0B0B0B0B0B0B0B0B0B0C56
:10B550000909090A0A0A0A0B0B0C0C0C0C0C0C0C3E
:10B56000090909090A0B0B0B0B0B0C0B0C0B0B0C31
:10B570000909090A0A0B0A0B0C0C0C0C0C0C0C0C1C
:10B580000A0A0A0A0B0B0C0C0C0C0C0D0D0D0C0D01
:10B590000A0A0A0A0A0C0C0C0C0C0C0C0C0C0C0CF5
:10B5A0000A0A0B0B0B0C0C0C0D0D0D0D0D0D0D0DDA
:10B5B0000A0A0A0B0A0C0C0C0C0C0C0D0C0C0C0DD2
:10B5C0000A0A0A0B0C0C0C0C0D0D0D0D0D0D0D0DBA
:10B5D0000A0A0B0B0C0C0C0D0D0C0D0D0D0D0D0DA9
:10B5E0000B0A0B0B0C0C0C0D0D0D0D0D0D0D0D0D97
:10B5F0000B0A0B0B0C0C0C0C0C0C0D0D0D0D0D0D8A
:10B600000A0B0B0B0B0B0C0D0D0D0D0D0D0D0D0D78
:10B610000A0A0B0B0B0C0C0C0C0D0C0C0C0D0D0C6E
:10B620000A0A0B0B0B0C0C0C0C0C0C0D0D0D0D0D5C
:10B630000B0B0B0C0B0C0C0C0C0C0C0E0D0D0D0E47
:10B640000B0B0B0B0B0C0C0C0D0D0E0E0E0D0E0E32
:10B6500000000000000000000000000000000000EA
:10B6600000000000000000000000000000000000DA
:10B6700000000000000000000000000000000000CA
:10B6800000000000000000000000000000000000BA
:10B6900000000000000000000000000000000000AA
:10B6A000000000000000000000000000000000009A
:10B6B000000000000000000000000000000000008A
:10B6C000000000000000000000000000000000007A
:10B6D000000000000000000000000000000000006A
:10B6E000000000000000000000000000000000005A
:10B6F000000000000000000000000000000000004A
:10B700000000000000000000000000000000000039
:10B710000000000000000000000000000000000029
:10B720000000000000000000000000000000000019
:10B730000000000000000000000000000000000009
:10B7400000000000000000000000000000000000F9
:10B7500000000000000000000000000000000000E9
:10B7600000000000000000000000000000000000D9
:10B7700000000000000000000000000000000000C9
:10B7800000000000000000000000000000000000B9
:10B7900000000000000000000000000000000000A9
:10B7A0000000000000000000000000000000000099
:10B7B0000000000000000000000000000000000089
:10B7C0000000000000000000000000000000000079
:10B7D0000000000000000000000000000000000069
:10B7E0000000000000000000000000000000000059
:10B7F0000000000000000000000000000000000049
:10B800000000000000000000000000000000000038
:10B810000000000000000000000000000000000028
:10B820000000000000000000000000000000000018
:10B830000000000000000000000000000000000008
:10B8400000000000000000000000000000000000F8
:10B85000000000000000000000BF000F000000001A
:10B8600000000000000000000000000000000000D8
:10B87000000000000000000000000000000000F0D8
:10B8800000000000000000000000000000000000B8
:10B8900000000000000000000000000000BF000FDA
:10B8A0000000000000000000000000000000000098
:10B8B0000000000000000000000000000000000088
:10B8C000000000F000000000000000000000000088
:10B8D0000000000000000000000000000000000068
:10B8E00000000000000353283F1F06000000000076
:10B8F0000000000000000000000000000000000048
:10B900000000000000000000000000000000000037
:10B910000000000000000000000000000000000027
:10B920000000000000000000000000000000000017
:10B93000000000322D2F31313030313030302F3097
:10B940002F3136332D2D302F2E2F302F2F2F2F30FC
:10B950002F3239362F3033313030323131313132CC
:10B9600030333C3832333432333334333334343499
:10B9700032343E3C35353735363535353534353569
:10B980003536423E37373836373637383837393933
:10B990003739433E3939393939393A3B39383B3906
:10B9A000373A45413A393B3A3B3A3C3A39393A39E8
:10B9B000383A463931323432333234343233323237
:10B9C00032333C3932333533343435333334333333
:10B9D00032333E3A34343533343435343434343419
:10B9E00033343E3B343536353435353735353635F9
:10B9F0003436413C353537353535373634343535E1
:10BA00003335403E363638363636363534363636C9
:10BA10003437423F383738363635373637343837AB
:10BA20003538433F3839393838373838373638378A
:10BA3000363843403938393837363837363736387C
:10BA4000373843413A3A3938383539383836393861
:10BA5000383944433A393A383838393A39363A3944
:10BA6000383844433B393B3938393B3939383B3A2C
:10BA7000393A46423B383B3839373A383937393822
:10BA8000373A46423B3A3A3A39393A3A383639390E
:10BA90003A3A45413A383B3939383A3A39383B3BFA
:10BAA000393B464139383A393738383838373939F7
:10BAB000383B484039383A393837383738363B39E7
:10BAC000393B4A4039373A383838393838383A3AD1
:10BAD0003A3C4A413A393C3A393B3B3A39393B3BAB
:10BAE0003B3F4A4641404443434144424141424432
:10BAF0004447550000000000000000000000000066
:10BB00000000000000000000000000000000000035
:10BB10000000000000000000000000000000000025
:10BB20000000000000000000000000000000000015
:10BB30000000000000000000000000000000000005
:10BB400000000000000000000000000000000000F5
:10BB500000000000000000000000000000000000E5
:10BB600000000000000000000000000000000000D5
:10BB700000000000000000000000000000000000C5
:10BB800000000000000000000000000000000000B5
:10BB900000000000000000000000000000000000A5
:10BBA0000000000000000000000000000000000095
:10BBB0000000000000000000000000000000000085
:10BBC0000000000000000000000000000000000075
:10BBD0000000000000000000000000000000000065
:10BBE0000000000000000000000000000000000055
:10BBF0000000000000000000000000000000000045
:10BC00000000000000000000000000000000000034
:10BC10000000000000000000000000000000000024
:10BC20000000000000000000000000000000000014
:10BC30000000000000000000000000000000000004
:10BC400000000000000000000000000000000000F4
:10BC500000000000000000000000000000000000E4
:10BC600000000000000000000000000000000000D4
:10BC700000000000000000000000000000000000C4
:10BC800000000000000000000000000000000000B4
:10BC900000000000000000000000000000000000A4
:10BCA0000000000000000000000000000000000094
:10BCB0000000000000000000000000000000000084
:10BCC0000000000000000000000000000000000074
:10BCD0000000000000000000000000000000000064
:10BCE0000000000000000000000000000000000054
:10BCF0000000000000000000FFFFFFFFFFFFFFFF4C
:10BD0000FFFFFFFFFFFFFFFFFFFFFFFFFFFFFFFF43
:10BD1000FFFFFFFFFFFFFFFFFFFFFFFFFFFFFFFF33
:10BD2000FFFFFFFFFFFFFFFFFFFFFFFFFFFFFFFF23
:10BD3000FFFFFFFFFFFFFFFFFFFFFFFFFFFFFFFF13
:10C04000FFFFFFFFFFFFFFFFFFFFFFFF914942EFF1
:10C0500046004D45010100000000000023010101E0
:00000001FF
