:100000004D424E014D3448504401040001000000AF
:100010006000000000C000000000000000000000C0
:100020000000320100000000000000000004000099
:1000300001004401010025000004000000940000BC
:100040000200040126002A000098000000140000AD
:10005000030004012B002F0000AC0000001400007E
:100060000038002021020000000000000000000015
:100070000000000000000000000000000000000080
:100080000000000000000000000000000000000070
:10009000000000000000000000000000550000000B
:1000A00057000000450100006D00000081000000C5
:1000B00000000000FEE7034B01221A70024B0022F1
:1000C000DA7770470000002008000050034B01223F
:1000D0005A70A0230022DB051A7070470000002030
:1000E000034B01229A70A0230022DB059A7070470F
:1000F000000000208D23013B002B01D0C046FAE711
:10010000044B10221B78DBB21807C00F13401843B2
:100110007047C0462B0000500F4BF7B518261E70D5
:100120000E4BA0271E70FFF7E5FFFF050B4B01AC40
:1001300000252C3760701D703E70FFF7DBFF064B0B
:1001400020703D701D7023786278181C504040006C
:1001500013400343D8B2FEBD2A0000502D000050CA
:100160000023036030B50B601312012B13D104235D
:10017000013B10D3084DD4B25D5D641BF8D4074A2F
:100180009D001268AA58002A05D012190260044A7C
:10019000D35C1C1B0C6030BDCC030000C803000006
:1001A000D003000070B58022D2051379DBB2002B9A
:1001B00019D1294C6360A360284B1289261C251C89
:1001C0001B6892B210361435E260301C291C002BDB
:1001D00006D098472169002932D1E268301C291CD9
:1001E000FFF7BEFF2CE0012B0CD11B4B1869002838
:1001F00026D099685C69A14222DA4C1C9C60137A73
:1002000043541DE0022B16D1134C2369002B17D049
:1002100060686169884213DA1B5C1BBAD360104BBB
:100220001B68002B03D0E268101880B298476368FF
:100230000133636004E0032B02D1074B00229A6074
:10024000C0468023DB0501221A70C04602221A70C4
:1002500000221A7070BDC046000000203800002047
:100260003400002080230222DB05FF321A600421C3
:10027000024AFF31118000221A70704706000040C8
:10028000F0B5A023DB059B68534A1F218DB0DBB27C
:100290001160D12B0BD0D02B01D80133DBB2A022BF
:1002A000D2059168FF20814319439160F1E74B4BE0
:1002B0004B4A191D043B934203D200221A600B1CC7
:1002C000F6E7FFF7CFFF474A8023DB021A80464A52
:1002D0000027093A92B25A809F80C046434ADE887E
:1002E000434D10685268434C0A922A8809ABB6B253
:1002F0001A8123625E810990FFF70EFFA023DB05C0
:10030000DA7C03AB1A7034214D225A7099705A71FD
:1003100048214522D9709A71502199221971D871BA
:100320006362520005AB0597A3611A8007AB0122F7
:100330000797E3615A70304B0697DA892F4B08977D
:100340005F882F4B211C1B8828310B70211C1B0A36
:1003500029310B702B4901235B420B702A482B4932
:1003600003700B702A48211C2E312F3403700B7040
:1003700023702B889E4229D1264B9A4226D0BA421E
:1003800024D1254EF7899F4220D0F689B446234ECA
:100390007788BC451AD1224FF889984216D0FF8938
:1003A000EB889F4212D1174B17481A70120A7388B4
:1003B0000270164A9BB2164813701B0A0370EB8832
:1003C0009BB20B701B0A237000F052F8154B0222EF
:1003D0001A6062B6FEE7C046280000500400002004
:1003E0003C0000200004000000C00000F0BF00003E
:1003F000F8BF00000000002000040000FC9700008F
:10040000FE0300002A0000202B0000202C0000200A
:100410002D000020FFFF000000980000FCAB000052
:1004200000AC000000E100E0180000202030407027
:1004300008080C08FFFFFFFFFFFFFFFFFFFFFFFFA4
:10044000FFFFFFFFFFFFFFFFFFFFFFFFFFFFFFFFBC
:10045000FFFFFFFFFFFFFFFFFFFFFFFFFFFF320177
:100460004D344850434F5432000000000000440116
:10047000F0B5F3B002AF03F00CFF05F01DFC78629D
:1004800008F084FC08F0B2FC09F0F2F900F03AFF41
:10049000CB4ACC4B1A60CC4ACC4B1A6005F00CFC12
:1004A000F862072800D1C6E213D8032800D1A1E2E0
:1004B00004D8012800D164E226D96FE2FA6A052A3D
:1004C00000D1A6E200D9ADE205F07CFC02F08AFD85
:1004D0009AE2FB6A0C2B00D1D2E20AD80A2B00D197
:1004E000BBE200D9C3E2082B00D1ADE2F96A796220
:1004F000D4E7F96A0E2900D1D7E200D2C9E20F2968
:10050000F4D105F05FFCE2E205F0ECFB051E18D02B
:100510000128EBD1AE4B00241B683C87196A1A698D
:100520001862F9601C6138213F23CB55391CBA6031
:10053000201C3431221C7C6305F0BEFCFC61BD62D2
:10054000A3E00124012C02D0022C0BD086E0002075
:1005500002F05AFA03F0CCFAC0B205F0FBFC02201C
:1005600002F08CF86B46FB61994B6A461B683C1C99
:1005700059681E681B694E43F3189B000A33DB0859
:10058000DB008E21D21A490095467D1802AB281C4B
:1005900000215222C834BB6208F06EFD00212A22DD
:1005A000201C08F069FD8B4AB96A1368B6008E19E1
:1005B00019605D615E609C61874B69461B682D33E5
:1005C0001A785200131C0833DB08DB00C91A8D4669
:1005D00002AD0021281C08F04FFDB86A311C01F063
:1005E00003F87A6A002A01D005F0ECFB7B4B00226D
:1005F0001B681A6005F0A8FC041C03F079FAA042FD
:1006000004D0201C03F079FA02241CE08E235B0046
:10061000FA1800953B1C311CC833B86A01F02EFF54
:100620006E4B6F491B68041C1A688A4201D0013264
:100630001A60002807D105F055FB002803D105F00A
:100640003BFB0028D6D0634900220B681A605A6031
:100650005A619A61FA69FB6A95467B6205F042FB32
:10066000002800D042E705F027FB002800D169E709
:100670003CE7022A0FD005F035FB012800D035E712
:1006800005F01AFB002800D030E7BA6A012AF0D141
:10069000022001F0F3FF4E4B69461C6879606368E5
:1006A000226821695A4353189B000A33DB08BA6158
:1006B000DB006A46D21A8E219546490002AB7818B3
:1006C000A42200213B6208F0D7FC381C00215222F2
:1006D000C83008F0D1FC381C00212A229C3008F0D8
:1006E000CBFC6269A369381C53439B000A33DB08C7
:1006F000DB006A46D21A954602ABAAB002AE0021D0
:10070000AAB020227C303B6102AD08F0B5FC3C1C55
:100710000021A022301C08F0AFFC64340021A0228C
:10072000281C08F0A9FC00211522201C08F0A4FCBC
:100730009423DC51274B8C211B68CE51396A9022BF
:10074000D5511960B9698A00396A8A18BA615A6044
:100750008E225200D2191A61C8219C22C919D219BD
:1007600059619A611D4B1A68D36D126E00923869F7
:10077000396ABA6906F0ECF87B6A002B01D005F003
:1007800021FB00244021CC53A223CA19391C137029
:10079000201C3C31221CFC6305F08EFB0F4B1B68B8
:1007A0001C6005F0D1FB051C03F0A2F97861A8429A
:1007B00018D0281C03F0A1F90223BB62CEE0C0468A
:1007C000195F000038000020955F00003400002011
:1007D000CC05002040000020681200203C000020D2
:1007E000FFFFFF7F002C67D1C64B6A461B683A604B
:1007F0009A6951005A6901324A43131C0833DB08D5
:10080000DB006946C91A8D4602AB181C211C7B62AD
:1008100008F032FC042003F031FBBB4E786A3368E9
:100820003A69D96D06F01AF9051E012D27D1B74B8B
:100830001B685B7C002B13D003F0D8F9201C05F05B
:1008400059FA336848215C60CA19CC530E23391C0D
:100850001370201C4431221C7C6405F02DFB28E021
:10086000052003F00BFB391C4C31A323201C221C58
:100870008C80FC640B712C1C05F01EFB19E0A44D50
:1008800038692B68796A5A7806F0C8F929680878B7
:1008900003F033F903F048F92B68587802F042FF6F
:1008A000201C02F077FF786903F027F903F060F964
:1008B000BC623A6895463DE0954B01241B689878E8
:1008C000914B1B68586702F02DFF052003F0AEFA2C
:1008D0003B1C9C3300938E235B00FA183B1C386A48
:1008E000B969C83301F00EF9B862002822D1381C6A
:1008F0007C30F96907F04AFFF861032804D0072823
:1009000000D0E9E0182505E0381C7C3008F0A2F999
:10091000051E0AD005F0F4F901266B1E321C9A4020
:100920001040D84000D1D7E0F8E003F073FA03F0AC
:100930005DF90124744B77491B681A688A4201D01B
:1009400001321A60B96A002908D105F0CBF90128F3
:1009500004D105F0B1F9002800D122E7694BFA680B
:100960001B68B9681A6219616B4B00221B681A6018
:100970005A601A615A619A617A68FB6A95467B628D
:1009800079E605F01FFA05F097F90128FBD008F089
:10099000D9F900F0B7FC04F07FFFA7E501F068F893
:1009A00005F0C4F805F00EFA05F026FA032812D077
:1009B00006D801280CD0022815D101F0F9F912E06F
:1009C00005280ED00AD306280DD102F07DFE0AE0DC
:1009D00001F0BCF807E001F091FA04E004F0A2FD98
:1009E00001E002F05FFE05F067F90228DCD001F0BB
:1009F00051F87BE505F0E6F9012001F03FFE05F036
:100A00005BF90328FBD071E505F056F90428FBD00B
:100A10006CE505F0D7F904F05FFC05F04DF9052809
:100A2000FBD063E505F0CEF902F0ECFB05F044F9EC
:100A30000628FBD05AE505F0C5F900F0B9FB05F032
:100A40003BF90728FBD051E505F0BCF903F056FC53
:100A500005F032F90828FBD048E505F0B3F901208C
:100A600001F0D2FF05F028F90A28FBD03EE505F099
:100A7000A9F904F0E5FA05F01FF90B28FBD035E5DC
:100A800005F0A0F900F0D8F905F016F90C28F9D016
:100A90002CE505F097F9002003F0F0F903F0ECFAEB
:100AA00005F00AF90D28F6D020E505F08BF90020B5
:100AB00002F0F1FC002003F0E1F903F0DDFA05F0AB
:100AC000FBF80E28F6D0012002F0E5FC0EE505F05B
:100AD000F3F80F28FBD009E5F969082900D024E7CD
:100AE00003F098F9012002F012FE0024391C543161
:100AF000A223201C221C8C807C650B7105F0DCF984
:100B0000FC6117E7CC0500203C00002068120020A3
:100B10006C120020FFFFFF7F400000203022D01920
:100B200002213123D1550024DD5505F053F803F09F
:100B300071F9301C02F0EBFD201C05F0DBF8391CCC
:100B40005C310E23201C221C8C80FC650B7105F08F
:100B5000B3F9EEE6F8B5164D7146281C764603F05B
:100B600074FC144C276803F087F87865276803F055
:100B700087F8B865276803F087F8F865276803F0F9
:100B800087F83866276803F0D5F87866276803F099
:100B90009DF9094A094912680968B866C978127C42
:100BA00023684A43281C311C1A6703F065FCF8BD12
:100BB000F50A00003C000020681200206C120020A2
:100BC000014B18607047C04668120020014B18683E
:100BD0007047C04668120020014B18607047C0463D
:100BE0006C120020014B18687047C0466C12002040
:100BF000014B18687047C0463C000020014B586804
:100C00007047C0463C00002038B50B4C7146201C94
:100C1000754603F01AFC094B201C1B689A68002AD1
:100C200003DD19695218D20F00E000227933291C24
:100C30001A7003F021FC38BDA90B00003C00002015
:100C4000F0B52C4F73468BB07146381C019303F0FE
:100C5000FCFB294DCD222B689200995C1A1C79323D
:100C6000002904D1C6218900595C002901D0002146
:100C700011701478002C20D0DA6F03A907921A693A
:100C8000002408929B6807AA099303234B708B707A
:100C90007C235B42CB7001261023201C8C800E70BD
:100CA0000B7105F009F92B68DA6F022A02DC921940
:100CB000DA6718E0DC67341C15E01A6905A90792A9
:100CC0009B680920089301230B7002234B708B70E3
:100CD0007C235B42CB7007AA64238C800B7105F0E8
:100CE000EBF82B68DC67381C019903F0C5FB201C6E
:100CF0000BB0F0BDE10B00003C00002038B5054C06
:100D000075467146201C03F0A0FB291C201C03F033
:100D1000B3FB38BD9D0C000038B5054C75467146D7
:100D2000201C03F092FB291C201C03F0A5FB38BDFE
:100D3000B90C000038B5054C75467146201C03F00F
:100D400084FB291C201C03F097FB38BDD50C000048
:100D5000F7B5344D73467146041C281C019303F00B
:100D600074FB314B314A1B68AC46995CCD22920032
:100D7000002905D02E49595C002901D1012199543F
:100D80009A5C002A46D0C622002592009D54294A2A
:100D90002E1C1768291C3A6A013A0DD350002018FE
:100DA000543000880028F7D0013100B2C9B2854222
:100DB000F2DA051C161CEFE71D4A9A5C002A0ED1D8
:100DC00001290CD9012222703A6A013A09D3B242B0
:100DD000FBD051006118543100200880F5E700294C
:100DE00003D0CE220021920005E0CE229200995835
:100DF000032901DC01319950CE2292009A58032A2E
:100E00000BDDCD22002192009954C62201219200CF
:100E1000995402E0CE2189005A506046019903F0AE
:100E20002BFBF7BDF10C00003C0000201903000073
:100E300046030000CC050020F0B599B000AF744621
:100E4000714693487C6103F000FB02F0B3FA914DC8
:100E50002C68E368A6685A00BE64111CC07908318A
:100E60009B00C9080A333864C9006846DB08401A89
:100E7000DB008546C01A23696E46590008319B0085
:100E8000C9080A33C900DB08DB008546F862401A4E
:100E9000BE638546C01A6E46B86285460021B86BAF
:100EA0007E6308F0E9F8226900215200786B08F0AF
:100EB000E3F8002002F0E2FF2868BE6C0468321CF0
:100EC0006243754B91001D68B3005B427B62B307C0
:100ED000F964F31A91073B62891AFA63013C22D341
:100EE0004668FA6B931966437618B200FE6A9B0057
:100EF000B2187A64FA6C93420BD07A6C0426D2183A
:100F00009446EA6D7642D258B44466463260043B59
:100F1000F0E77E6A9219FA64BE6CFA6B921B3E6A25
:100F2000FA638919DAE73C6C5B4B013C3A6C186850
:100F3000FC61A300013A05D3016EBE6AC958F150A5
:100F4000043BF7E73B6C013B9B00BB6104F0B4FE44
:100F50000C2800D094E0002002F090FF4D4B186860
:100F60004D4B01681D68BB6C79644B439A00FA6471
:100F70009A07D21A3A63FB630A1C013A34D34168D8
:100F8000FC6B0E1C56436318444C9B0009198919CD
:100F9000BC6B490061183C6B3619FC6AB600A61997
:100FA0007E60FC6CA34213D07E68F418043C266873
:100FB000B446EE6DF4586646361BBE6000268C5F64
:100FC000A446BC68A44500DA0C80043B0239E8E77B
:100FD0007E6AF96BA419FC64BC6C3E6B091B3C6A0D
:100FE000F96336193E63C8E72B4BFE691D687C6BBD
:100FF00073003E6CBA69E318FE64FC6C013CFC644F
:101000000ED3BC6A2E6EA458FC60F968B4580C1B51
:1010100000215E5EA64200DA1C80023B043AECE747
:10102000037900245426F4535126F35580267A6C14
:1010300052207642C35550210225331CCA552B43FA
:101040005321CB555422391CD0555031BA6B012055
:1010500004F032FF5C23DC5301205824E0553C6C43
:101060005921CC555A21CC5535435B22391CD555D5
:1010700071235C2458317A6BE35504F01DFF65E75A
:101080000348796903F0F8F9BD4619B0F0BDC046D0
:10109000D90D0000CC0500203C000020FFFFFF7FA1
:1010A00082B0F0B589B0109C151C0F930693029482
:1010B00007900E1C119C02F07DF947793A4B04977A
:1010C0008279964206D11B6800211A6EAB00D05A75
:1010D00003910BE01A68354BD26D1968731C89684F
:1010E00003964B43EB1801339B00D05A049971438C
:1010F00049194A00A4182388069E0193019F73187A
:10110000874203D8C61B029FBE521CE0029EB6183F
:1011100005960027F65F013610D01F787EB2B446E0
:10112000013601DA013703E06646002E06DD013F95
:101130001F7002235B42238001202FE0069F791855
:101140000F78002F01D120800CE07FB27C1C05D1EC
:10115000019E059F301A3880002002E0012F01D146
:10116000FF2008701978039C049E079F48B27443BF
:101170007D19002805DC029EB25E013208D00029EC
:1011800006D12A5700203E2A08DC0131197005E0FB
:101190002A57002A01DD01391970002009B0F0BC7E
:1011A00008BC02B01847C0463C000020CC05002017
:1011B000F0B5714691B075464E48099503F045F972
:1011C00002F0F8F8069004F089FF4B4B069F1C686C
:1011D000FF79A16820688A0055420895051C4D4397
:1011E000464B05921E68AA00079784460291B71ADB
:1011F000802043490397009500066746013FBC469F
:1012000022D3009D6768EB199B00934211D0039F86
:10121000FD18F76DFF580497EF6F049DED1B0495C3
:10122000A84200DA281C049FB94200DD391C043BA7
:10123000EBE7039D059F089BED19D2180395009BD2
:10124000029D5B1B0093D8E701230AAA29252A27C0
:1012500013700E9002230F91002069466D446F4475
:1012600088852B703B702B217C235B4269440B707B
:101270000BAA542313700AA90EAA04F01DFE1F4DD9
:101280001F4F2E68079C802502972D06013CE4B273
:10129000FF2C16D0376E06980397417A079807F00F
:1012A0001FFE039BA700FA58C9B2B76E8900CB593D
:1012B000D31A9D4200DA1D1C029F9F42E6DD029375
:1012C000E4E70CA901230B7002234B708B707C2385
:1012D0000E955B42029D0020CB700EAA6B23888086
:1012E0000F950B7104F0E8FD0248099903F0C4F86A
:1012F00011B0F0BD51110000CC0500203C000020D1
:10130000FFFFFF7F37B5114C7146201C754603F077
:101310009CF805F0FDFC02F03FFE021E07D1694675
:10132000A923888000900B7104F0C6FDFEE7084BEE
:101330001B6803CB02F0BCF805F002FDFFF70AFCC6
:10134000291C201C03F098F837BDC046A5120000E8
:10135000CC050020F0B591B000AF744678613961DA
:101360009D487146FA60BC6003F06FF803F022F804
:1013700085002B1C0A33DB08DB006E46F61AB546E7
:10138000F8616C4668467D623C6203F01BF8FD69BB
:101390006D002B1C0833DB08DB00F61AB546301C49
:1013A0003D63BE6103F02AF802258C4C013D2368A1
:1013B000AE009A19FC32906A7E63632818DD5026CD
:1013C0006E43002191629C225200B0181818FF2130
:1013D0007A6A07F051FED9362368FF3698197A6A7F
:1013E000002107F049FE23680122FC336A405A625B
:1013F0007A4B7C6B1B681B19FC339A6A01329A6228
:10140000002DD2D102267E637D6B744C013D236892
:10141000AE009A19FC32506B7D63BE6201281BDD61
:10142000796B28264E43002555639E229200B01802
:101430001818FF213A6B07F01FFEB22321689B00AA
:10144000F61888193A6B291C07F016FE23687C6B86
:101450000122FC3362401A63604BBE6A1D68331C74
:10146000AC466344FC335A6B7C6B01325A63002CEC
:10147000CAD13E6A7C6AFD6936196B003E62BD695D
:101480003E6B5B42AD19BB6266447B6BBD617E62A5
:10149000B86A834234D0396A5A008A18BC69043A5F
:1014A0003D6B1068E218023A7E6A14885A194C4D56
:1014B00052007119C2267600351C6544AA1802250F
:1014C000C9187D607E68013E7E60161CA0363568B6
:1014D000854200D230601668864200D910600E1C2A
:1014E00050363588A54200DA34800E88A64200DDE9
:1014F0000C807E682839503A002EE3D1023BC7E7C2
:10150000384B36481B6801685B68FE689C00091907
:101510008C463519191C0022043A013905D364465A
:10152000A618AC5880363460F6E702685024111CC7
:10153000FC314D6AEC266C437600096BA0193934F6
:1015400028264E43FF3414193C639E25B224A40080
:10155000AD003119761951189619002410187962C6
:10156000FE62251C7E6BF9698E4214DA7E6BB10037
:101570004658AD193E6B71587E6B6D1A71007E6ACC
:10158000765AB446FE6A715A6646711A7E6B6418C2
:1015900001367E63E6E70021B98738260121F1553F
:1015A000DBB239203A21C355CB553B260423F355F2
:1015B0003C205B23391CC35580320220383104F0B3
:1015C0007BFC7E69044835803D69B9682C8002F057
:1015D00053FFBD4611B0F0BDF51200003C000020E5
:1015E0009E020000CC050020F0B5264C85B0734665
:1015F00001900F1C201C7146039302F026FF00206F
:1016000002F03CFC204B1B68DA6D5E6E029202F029
:1016100021FB051C02F028FB311C031C2A1C02982C
:1016200004F062FD194D00212B680198DA689200E0
:1016300007F022FD2B6800211A69381C920007F080
:101640001BFD04F039FDC578061C002D0CD00020D0
:1016500002F014FC0C4B01981B68391CDA6D1B6EF0
:1016600005F036F9013DF0E7F278391C019804F0F5
:1016700065FE281C02F002FC201C039902F0FCFE0F
:1016800005B0F0BD891500003C000020CC0500200D
:10169000F0B58FB002AF7346B86079608C48714680
:1016A0003B6002F0D2FE8B4B68461A688A4D136885
:1016B00092689E1C5200564301335208311C53431A
:1016C0000831C908C900401A8546013302AC5B00E5
:1016D000E3187B61814B79691B682868D9609C603D
:1016E000FA6000213C22083007F0C6FC321C0021C1
:1016F000201C07F0C1FC2B68B868191CDA6D083192
:101700005B6E0090201C04F053FF2B68061C786869
:101710001A6E191C9B6E00900831786904F0B0FEB7
:101720000643F6B23E612E68301C311C443108304D
:1017300004F06CFE6A4A2B681268F0641020115E97
:10174000586B88420EDC1220115E986B884209DBD0
:101750001420115ED86B884204DC1621525E1B6C8B
:1017600093421FDA00233B8528220123D35504F03E
:10177000D5FA002816D104F02FF9002812D0564BC4
:101780001B681B68FF2B00DDFF232920C355381C75
:101790000221283004F01EFA524802F0A3FE01F0A4
:1017A000A5FEE4E74B4E0225336800211A6858680D
:1017B0003A769A688023BA765B420132B9832B432A
:1017C0005200391C7876FB76A21853230120183179
:1017D0003B7704F071FB306801232022D3550021B0
:1017E000037CB98422222121CB55D35580235B422F
:1017F0002B432320C35524216D23CB55391C0120B5
:1018000020317A6904F058FB3368282218682921AE
:10181000D0555A682A20CA5599685A1DC155D27F99
:101820002B20C2551B692C212D22CB55D35D7F2245
:101830009343802040422B4303432D21CB55FB682B
:10184000002201335B00E318391C0120283100938A
:10185000131C04F0FDFAFFF7D7F9FFF7F1F90028A0
:1018600027D11D4D2B68D86D02F070FC2B68D86C09
:1018700002F046FB02F018F93A69002A0DD12B68F4
:10188000211C1A1C08325B6FB86804F0B9FC2B6885
:1018900078685A6F796904F00FFD022001F07AFF31
:1018A000786905F01DFB28680024503006F0BAFB6B
:1018B00000E02C1C094B00221B6805489A60DA6086
:1018C000396802F0D9FD201CBD460DB0F0BDC04600
:1018D00031160000CC0500203C0000204000002014
:1018E0006C12002010270000F0B52F4D714685B016
:1018F000281C744602F0A9FD05F01CFA2B4EE430BA
:10190000336801781A1C6D321278002902D151B265
:10191000481C04D100275F60BA421FD12BE05868F1
:101920001A6F904202DA586801305860012922D0BB
:101930005B6893421FDB1E4B01271B685B7C002BFF
:101940000CD0381C04F0D6F900226946A223101CE2
:101950008A8000920B7104F0AFFA1FE000223B1C5A
:1019600002A90E33101C8A8002920B7104F0A4FAB3
:1019700033686D331F7033681A1C6D321278002A79
:1019800003D10C4A1268D27804E0012A03D1094A33
:10199000126812795A67586F01F0C4FE281C211C86
:1019A00002F06AFD05B0F0BD891800003C0000207F
:1019B000681200206C120020F0B57446D1B00D1CE6
:1019C00005947146041C2848171C02F03EFD04F0E3
:1019D00085FB039005F0AEF90490201C05F06CFA2D
:1019E0000021E42217A807F047FB0021402207A8A6
:1019F00007F042FB1D4E17A83268516D936D4432BB
:101A0000009207AA06F030FB336817A8596D07AAA1
:101A10009B6D009505F0D2FE211C17A82A1C3B1CCB
:101A200006F01EF93368201C596D9A6D06F02EFAE7
:101A3000201C291C3A1C05F083FA049B0A4CE43351
:101A40001B78002B0AD1039A1379002B06D004F0DF
:101A500049F9012802D0012001F059FE201C059906
:101A600002F00AFD51B0F0BD591900003C00002001
:101A700038B5074C7146201C754602F0E6FC07F0AD
:101A80004BF901F09DFC291C201C02F0F5FC38BD2F
:101A9000111A000038B50A4C7146201C754602F038
:101AA000D4FC07F045F901F08BFC002002F0D6FAD7
:101AB00001F00AFE291C201C02F0DEFC38BDC046E5
:101AC000351A000070B50E4CAAB07146061C201CD9
:101AD000754602F0BAFCA42201A8002107F0CCFA56
:101AE000311C01A805F074FA05F0ACFA01A805F064
:101AF00071FB201C291C02F0BFFC2AB070BDC0463F
:101B0000651A0000F7B5754601950F4D0E1C071CB0
:101B10007146281C00921C1C02F097FC311C381CDA
:101B2000FFF7B6FD061E03D0201CFFF7CBFF04E035
:101B30000098211C089AFFF73FFF281C019902F02A
:101B40009BFC301CFEBDC046A51A0000F0B597B046
:101B500000AF7446714692487C6002F076FC914C6E
:101B60006D46236819685B680A1C5A43D3185B00EA
:101B70000833DB08DB00ED1A8B4B52001B6856085C
:101B80004900AA184908DD611A62AD46BD6479634F
:101B9000FE6201F00FFC216838638D687E6B7D6208
:101BA000827A437A5343DBB2FB634B6872005D1E5B
:101BB0005543BE6C50427519F8643D640020013BEA
:101BC0000DD33C6C0A6804197C64013A04D37E6C22
:101BD000540000253553F8E7FE6C8019EFE7FC6BE5
:101BE000FD6A013CBE6C6419640034193C626C00EF
:101BF000221C023A3B6ABC61B218934203D0002116
:101C00001980023BF9E77D6AFE6BAB005B42FB602B
:101C1000FB6BFC6A01335B00FD6B5B4276003B6152
:101C20007E616319BE6C5B00F3181E24FB61BC620D
:101C3000002002F023F95B4B1B685D68FB623D648A
:101C40005A4B3E6C1D68FE64FC6C013CFC6431D355
:101C5000FC6A7B6B2468FE6C7C64221CFC6CB60006
:101C60006343013ABE60D318BE6C5B00F318BB63DC
:101C70007E6C7B6A01347343E418A4007E6C013EE1
:101C80007E64E1D3686EBE688359E86D0259002016
:101C90009A4200DDD01AB96B0E8807214942861995
:101CA00007F028F9BA6B36181680FE68023ABA6354
:101CB000A419E3E73D4B00241D683E69023CB44291
:101CC00019D0296E3A6B7869F964517A0619F86B64
:101CD00007F006F9FB6C7600F258C9B2AE6E8900C7
:101CE0008B59FE69D31ADA43D2171340325B9B102B
:101CF000D3183353E1E7BC6A013CBC62002C97D196
:101D0000BD69BE6C023D3C6A7519AC4207D000212A
:101D1000605E1E2107F0EEF8023C6080F5E73C6C47
:101D2000013C3C6413D33E6C7B6BFD6A73432C68AF
:101D3000BE6C651EED186D007519013CEFD30021D6
:101D4000685E1E2107F0D6F8023D6880F5E7FEF7D1
:101D5000D5FF144D51212B6852241A79186850264A
:101D6000CA55E2555A1D1B69F0555426D27FF355CA
:101D70007E235B425520C355381CB96C5325503027
:101D8000EA5503F03FFE084B00221B680448DA6165
:101D90001A62796802F070FBBD4617B0F0BDC0460C
:101DA000ED1A0000CC050020400000203C0000207F
:101DB000F0B54E4D8FB000AF74467146281CFC60E4
:101DC00002F043FB01F0F6FA494C23689E68FE617D
:101DD000817A427A00204A43D2B2FA6244CB7243FB
:101DE00093195B000833DB08DB006946C91A414BD5
:101DF00052001B688D46D961B9625108B9616946C4
:101E00008A181A6202F03AF83B4B20681968026897
:101E1000FB6976005343760876007B62531E8C463E
:101E200071425E43BB6A79619E193E6100263E6045
:101E3000013A1BD343687C6A3D683E69E118AD19DD
:101E40008900BD60013B08D36546ED6DBE686D58E5
:101E50005C007C6035530439F4E77E6AFC693D68B8
:101E6000361B7E627E69AD193D60E1E7FD6ABE69A1
:101E7000F96A214B01316C007519BE6A49006D0089
:101E80001868494275190023023B8B4205D0066E43
:101E9000E21852009259EA52F6E7FEF73DFF144C61
:101EA0003121236832241A791E683025CA55E2553B
:101EB0005A1D1B69EE553426D27FF3557E235B42B3
:101EC0003521381CCB553325B96A3030EA5503F03B
:101ED00099FD084B00221B680448DA611A62F96810
:101EE00002F0CAFABD460FB0F0BDC046511D000059
:101EF000CC050020400000203C000020F0B593B04D
:101F000000AF744671466948FC6002F09EFA01F029
:101F100051FA674D69462C68A6683E62827A437A18
:101F20006668206853437043DBB2BB628319DA1DD5
:101F30005B00D2080833D200DB08891ADB008D462B
:101F4000F862C91A5B4B6A46F86A7E636E468D4634
:101F50001B68FE636E467E6216185A629E62101CF3
:101F60000021E26807F088F82269301C002107F0A0
:101F700083F8514B7C6B1B6862007833BC6A1B781A
:101F80003E6A6400BB637C61B300BC6AFE6A5B426C
:101F90003B6133197E6A5B005208F318FA61BB613A
:101FA000BD6B002D5AD0002001F068FF404B424A23
:101FB0001C6816686368013B2ED32268396A581C76
:101FC0005143401880003860013AF4D33968F06D0D
:101FD0007D6A4058F9693863514359184900495F8F
:101FE000091AFF2900DDFF21F86BCD43C018786086
:101FF000786BED1750430D4079680D54F969786A94
:102000005143591849008C46396B654629523D6841
:1020100038692D183D60D7E7274BBA6A1D68002341
:10202000023B013A16D37C692E6EE118BC69490067
:102030008859E15E091AFF2900DDFF21FC6AFE6B69
:1020400036193E63CE43F61731403C6BBE69A1544E
:10205000F052E5E7BC6B013CBC63A1E7FEF76AFE0A
:10206000134E4124336842251A7919684020E255FD
:10207000EA555A1D1B69C1554420D27FC3557F23A1
:102080005B424521381CCB554326F96B4030F25555
:1020900003F0B8FC074BBC6B1B6804485C629C6295
:1020A000F96802F0E9F9BD4613B0F0BD9D1E0000CD
:1020B000CC050020400000203C000020F0B5774611
:1020C00093B00797041C0F1CA948714602F0BDF994
:1020D00004F004F8069004F02DFE2378A54E002BA2
:1020E00008D1B23003785A1E9341DBB20493002B1F
:1020F00008D001E001200490C823316800229B0031
:10210000CA5007E03268C8239B00D158FE2901DC81
:102110000131D1503368C7220498920000219954AC
:10212000884253D194495C5C081C002C08D0595C4F
:1021300049B2022900D00121995400221A5488E1A1
:10214000C62080001C5CC925AD00002C08D00124ED
:102150009C54049F894A5F541F549F545F5179E1F6
:102160005C59002C08DD013C012C01D05C512DE0B4
:10217000049F03215F5168E1814A82491268D28835
:102180008A4223D0CC218900595A91421ED37E4CD9
:102190002068827CC82080001858904216DB10AA64
:1021A00011807A4904985B5A08A95380049B8B805C
:1021B00001230B7002234B708B70CB7015230B71B6
:1021C00003F07AFE22683368D27C5A516E4C25683F
:1021D000287D002800D03CE10499664E002900D0FB
:1021E00091E034686A4BE35C002B63D02B1C2C33EA
:1021F0001B78002B5ED0CF2310919B00E3580393F4
:10220000CC239B000398E25A4300DA532B1C2D3356
:10221000197804984A00BA180592031C99420CD008
:10222000059F5A00BF1A0222BC4652429444674698
:102230003F880133BC466044F0E706F05BFE109037
:10224000EA8BD0239B00904202DAE258013200E090
:102250000022E2502A1C2E321278E35893421BDDF2
:102260007C230AA900255B420124CB70281C16237D
:1022700010AA8D800C700B714C708C7003F01CFEDA
:102280003C4BCF221B6892009D50D02292009D5063
:10229000281C03F053FEDDE02B1C2D331A78039F1E
:1022A000CF23013A9B00974202DA0137E75001E061
:1022B0000022E250CA2201359200EB7FA2589A42D6
:1022C0001ADB00240CA91223201C221C8C800C94E5
:1022D0000B7103F0F1FD3368CB2292002A48995824
:1022E0000068013199500230C07F814204DB9C506C
:1022F0000221C7228A4099541E4B26491B6800229E
:102300005A54CA2151E03368C92292009850224A97
:102310009A5C002A4BD0CC27BF00D95B10AA1B4D7A
:1023200011805B5B0EA9538001230B7002234B705D
:102330008B70CB70192388800B7103F0BDFD226870
:102340003368D08BDC5B1349844227D25C5B508DB1
:10235000844223D2595C002929D1CA218900013243
:102360005858D27F904222DA013058501FE0C046C0
:102370005D2000003C0000201B030000190300004A
:102380006C120020FFFF00006812002032030000E2
:10239000470300001A0300004603000001225A54BC
:1023A000CA21890000225A50CB2189005A502D4D54
:1023B0002D4A2B689A5C002A4BD1069F3A79002A55
:1023C00045D0C62292009C5C002C42D1274E9868D2
:1023D0003768798BBA8BFB8A3F8B009703F026FE18
:1023E00036682B68718CB28C071C9868F38C368D1C
:1023F000009603F01BFE2B68CC2292009E5A1C4DC7
:102400001C49BE4202DA5A5A824213DB0AAA1680DB
:102410005B5A10A953800223002001264B708B7059
:10242000CB70172388800E700B7103F045FD0D4BA8
:102430001B685E550B4B1B685A5D002A09D0049F30
:10244000002F06D0C62201219200995402E00849CB
:102450005A5401240848079902F00EF8201C13B0C2
:10246000F0BDC0463C00002046030000681200207A
:1024700019030000320300005D200000F0B5BBB07E
:1024800002AF75463861F960754871467D607A61C2
:102490000025BB6001F0D9FFA6232020391C2A1C8F
:1024A0001C313D84C355281CFD6103F005FDFFF779
:1024B0001BFA281C01F0BAFC6A4E6B4A3368CC2127
:1024C0008900581899185A6EFEF744FF3368CC22D9
:1024D00092009A5A3C1C3C342280634A24209B5A26
:1024E0002521022263800123C355CA5526202721B6
:1024F000C255CA552822391C3D850C20D35524319C
:10250000221C03F0D9FC594B2C201B682D22196882
:10251000C15558682E21D0559A682F20CA55591D8B
:10252000C97F1B69C1553021CB5531200423C355C8
:1025300033680132DB6D92009A18391C2B1C009213
:1025400002202A1C2C3103F083FC3869F968FFF75C
:102550009FF8051E03D07869FFF7B4FA61E0201CEC
:10256000291CA42206F088FD414B201C1B687969B8
:102570001C61BA68FFF720FAF822D159201CFFF736
:102580009DFD201CFEF7E4FB201C04F023FE2678B2
:102590006846B3000733DB08DB00C11A8D4602AC86
:1025A0003C61F8607E612C1C3C20C0190319663325
:1025B00000215B5E002B0DDD7A693C23013A90001F
:1025C0007A6161003A69DB1959181018A0310422A8
:1025D00006F010FD023C231C1433E5D1234B391CBB
:1025E0001B6834311C6858689A680C7048708A708F
:1025F0000533DB7F0132CB707E235B424B71194B7D
:1026000052001B6800249B6D0C719A1800923B6964
:102610000320321C03F01CFC154BF9681B688D4627
:102620001C6101F0F7FB01F0E1FA0E4B1A68C723B9
:102630009B00D05600F0EEFB041E00D12C1C0D4B6D
:102640001B681A680C4B9A4202D001F057FEFEE755
:102650000348796801F010FF201CBD4639B0F0BD79
:102660001D2400003C00002032030000CC050020A7
:102670004000002090120020CDCDCDCDF0B5A5B00A
:1026800002AF74467146B862DA48BC6001F0DDFE04
:1026900000F090FE386500F0A5FE786300F096FE2D
:1026A000D54B3D6D1C683863E2686E46131C0E33D3
:1026B000DB08DB006D79F61AB54623697D6502AD4E
:1026C0007D640E337D6DDB085219DB00F61A131C96
:1026D000B5460E3302AEDB08BE64DB006E46F61A6A
:1026E00053000E33DB08DB00B546F61A02ADB546E3
:1026F000F61A3D6402ADB54602AE0021386CBE63E9
:1027000006F0BAFC7E6DE068012132185200281CE8
:10271000494206F0B1FCE168B86B72185200B74943
:1027200006F0AAFC8022D5513D6BE2682B78786CCC
:10273000002B0ED0BE6A002E0BD0796B06F05AFC2F
:10274000F02522697C6BAD00B86C611906F052FC73
:102750004CE0002106F090FC2269B86C002106F0E4
:102760008BFCBE6A002E41D1786CB96C02F0F2FB92
:1027700000243D6D7020FC66C453AB796C26F35584
:102780006B796F226D206E21C355CB55D35D7F26AB
:102790000125B34380202B434042D11903430B70E2
:1027A00070221D23391CD35508207A6C6C3103F03C
:1027B00083FB391C74317C678C803C6D0D70E37930
:1027C000BA6C4B708B70CB780820B34380261D43C6
:1027D00076421E2335430B71CD7003F06DFB8548A7
:1027E000B96801F049FEBD4623B0F0BD7C6D4025BF
:1027F00063005B4200263B62FD62FE64B96C786C4C
:1028000002F0A8FB032001F039FB7B4E0021336866
:1028100060201C68C15358685C225D25D455E8557A
:102820009A6804255F23DD5560245123E355744CD9
:102830005E212368CA55DB6D01329200391C9A185B
:1028400002205C3103F038FB01236422D355336846
:1028500000211B7C6820C15365266620F355C355B3
:1028600068225A23D35567212368CD55391C1A6E27
:102870000220643103F020FB3C6D7E6DA57973006E
:10288000013D6B43BC6BE318FB63331C6B437E6BF6
:102890003C6CF618FE617E6CE418F3187C61FB60FA
:1028A0000026681C40D0F9697A69FB68386D711898
:1028B000B218F3184479B9613A617B62013C2BD3B9
:1028C000F86B6300C25A4F4B9A42F7D0396CBA6B1F
:1028D000842380207960DA51F967C01969460CC8F1
:1028E0000CC1291C7B68786C221CFEF7D9FB0028E0
:1028F00003D0FB6C01339BB2FB64386B39690278FF
:102900000B5D002A05D0B869796A025D9B180B55EA
:10291000D4E77A6A1355D1E7FC6B386A013D241875
:10292000FC637C6D361BBCE73D6DEC79013C661C9D
:1029300034D03E6D7B6DB179BD6B4B43E3185B00CA
:102940005A5B304B9A42F1D03B6C84263A1CFB67B1
:10295000F5518032684660CA60C0221CB86CFEF730
:102960009FFB002803D0FB6C01339BB2FB643D6BE3
:102970003E6D2978B2793D6C7E6D2B19724300292A
:1029800008D07D6BF0262919B60089199A5C0B785E
:10299000D31800E09B5CBD6C2B55C7E7164BFC6C55
:1029A0001B68DA681B69D3189C4206DAFB6A013B94
:1029B000DBB2FB62002B00D020E7BD6A022D00D005
:1029C000D2E63E6D7C6DB3797D6C591E614369180A
:1029D000013B00D2C8E63E6D7279013A07D33C6BE9
:1029E000E018F9300478885C20188854F5E77D6D8C
:1029F000491BEDE71D260000CC050020FFFF00006D
:102A00003C000020FEFF0000F0B5A3B000AF76460A
:102A100071467861D248BE6001F017FDD14C236841
:102A2000DB68BB635B0001333B6501F051F8236851
:102A3000FF22DB68F865D31A984200DDFB656E461D
:102A4000F86D01F04DF87E643E6D684675002B1CF4
:102A50000833DB08DB00C01A85466E460123FE649E
:102A6000602161226226CB55D355F35500246420A2
:102A70007C23C4535B426320C3556421B123CB55EF
:102A80003A1C391C5C32201C603103F015FAFA6DD7
:102A9000BE6B931B9BB23E6DB44205DAFE6C6200C6
:102AA0001919B1520134F6E73A6D0126D2B2682104
:102AB00069230024CE55DA556C2002236B21C453C0
:102AC000CB556A20391CC25568317A63201CFA6CD8
:102AD00003F0F2F92B1C7A6C08339546DB08DB0017
:102AE0006846C01A8546C01A6A4685463A63F86247
:102AF00001F060FC3A6D8100930078645843031C38
:102B00000A33DB08DB00F8616846C01A8546C01A44
:102B10006A4678628546301CF960BA6200F088FE29
:102B2000211C2A1CF86A06F0A7FA386B211C2A1C03
:102B300006F0A2FAFE68FC64BE610021FA69B86A78
:102B400006F09AFA786AFF21FA6906F095FA0026EB
:102B5000844B3E601B683E689B689E424FDABE6BAA
:102B6000F96DF6B2881BC0B27E6500F0C6FF00F0BA
:102B70008FFF00F053FE00252C1C3E6D0134E21740
:102B8000F30FB4425341DBB23B64002B08D17E6D9E
:102B9000F96DA01B4018C0B200F0AFFF00F078FF45
:102BA000FB686E460A33DB08DB00F01A85463E619F
:102BB0006E46FE6301F006FC0023191C7E6CB142D8
:102BC00010DAFE6BF258BE6A7019C658964200D2EF
:102BD000C2507E6A7019C658964200D9C25001315F
:102BE0000433EBE73E69B546BE69AD193E6C002E75
:102BF00002D100F013FEC0E73E680136A8E75A4E46
:102C000000257D653E642C1C3E6DB44228DA002010
:102C1000031C7E6CB3420CDABE6A9A007619B15876
:102C20007E6A8C46711984448A586146881A013339
:102C3000EFE73E6C864206DDF96DBE6B63189B1BA9
:102C40003B623864BC647E6D864200DA786500F0D1
:102C5000D9FD3E6B6300F052BE690134AD19D3E774
:102C6000404B7E6D1B68DB889E4206DA7E69012E32
:102C700003D0FE6D3E62BE6BBE643C4B32211B68CE
:102C80000022FC3399626421D96202215963012137
:102C9000BE695A621A639963BB6C151C73437E6AE2
:102CA000F6183E61BE6AF318FB637E6CB54225DA06
:102CB0003969A80009582D4C3864081C26687960C9
:102CC00000F0A0FD2B1C4E339B009851FA6B3B6C1F
:102CD0002668D05800F096FD2B1C76339B002268A6
:102CE00098516B00D3180121A822494292009952B1
:102CF000BC220021920099520135D6E77E69012E4F
:102D000036D1FA6A00233E6DB34209DA3E6B5900B0
:102D1000715A1088884200D2118001330232F2E7E2
:102D2000BE6C7300FE6A9A5BFE6C131CB24200D24A
:102D3000331C9BB27E6BFB64002074210123702244
:102D4000D355C85371237221DE55CE550223732209
:102D5000391CD3557031FA6A03F0AEF80DE0C04665
:102D6000A92900006C120020FFFFFF7F3C0000201B
:102D7000786D00F047FD80B2F864BE6C8023DE53AE
:102D80003E6A8220C653BE6C862175003E6B84204D
:102D90007519FE6C2B88CE53391C7831C35304232C
:102DA0004B708B703A1C02230020CB708032B22310
:102DB000012488800C700B7103F07EF8114B1A68A7
:102DC000114BD05C002808D1104B1B68DA882B8887
:102DD0009A4200D2201C03F0B1F87E69002E0AD17D
:102DE0003E6AF0B200F089FE0948B96801F044FB80
:102DF000BD4623B0F0BD02F05FFF0A2800D19CE67B
:102E0000EEE7C0463C000020470300006C120020A3
:102E1000A9290000F0B56E4C724691B07146071CAE
:102E2000201C039201F011FB06F010F8051C02F0C3
:102E300091FF684BD122196892008A5C061C1C1C09
:102E4000824220D000280CD000226B469A8269462C
:102E50003B230B75101C04A90492032503F02CF8E6
:102E60000DE006A93C23321C888006900B7103F00C
:102E700023F8594B2268D55C6B1E9D41EDB2D123DE
:102E800021689B00CE5402F073FF2168D1239B0080
:102E9000CA5C061C002A20D1504BC95C81421CD060
:102EA000002809D008A93923101C8A8008920B71C8
:102EB000022503F001F80DE00AA93A23321C8880AC
:102EC0000A900B7102F0F8FF434B2268D55C6B1E31
:102ED0009D41EDB2236841495E5402F0F5FE019038
:102EE00002F02AFF032F03D0019A002A04D108E040
:102EF000019B0126002B43D0002002F0EDFE0126AD
:102F00003EE0D12321689B00CB5A019E0293002B07
:102F100036D1012F02D0022F04D00EE0381C03F06E
:102F200001F80AE0029802F0FDFF22682C49535C88
:102F3000002B02D0029803F001F802F0EDFF264EBC
:102F40002268071C935D0022834218D0904209D06A
:102F50000CA91123101C8A800C920B71012502F020
:102F6000ABFF08E00EA913233A1C88800E900B716A
:102F700002F0A2FF3D1C23689F55002600E0161CAE
:102F800005F064FFA84208D0281C05F059FF05F0A1
:102F90002DFF002001F062F8012602F0C9FF23682E
:102FA0000F495B5C834200D0012602F0FDFE041C49
:102FB00003F0C0FE0379A34200D0047102F0E6FEE4
:102FC0000348039901F058FA301C11B0F0BDC04617
:102FD000B52D00003C000020460300004503000022
:102FE00047030000F0B599B000AF754671468048C0
:102FF0003D6001F02AFA7F4C092123687E4E1A1C9D
:103000006D3212784A43191C6B3109789B7952183A
:103010009B09D318FB6200F0CDF9236800201A1C2D
:103020006F329B7912789B09D318BB6201F060FF65
:10303000B5446D46A2B0FD616D46A2B0BD610A26E1
:103040006D467D617E637D6BF86A05217A6BADB25A
:103050003D610F2602F01EFAB86A05217A6B02F074
:1030600019FA3E633D6BF86A05213A6BADB27D609B
:10307000002602F01DFAB86A05213A6B02F018FA30
:10308000FE63FD6B05200026684302F031FABE6343
:103090007E623E62574E0223306805210370F86A53
:1030A00000F0F2FE554A0A211268554D92682B68CD
:1030B0005143DA6D06318B00D45AF969BA6B7B6AD9
:1030C0008C5224B21B197B62336801221A70B86AD1
:1030D000052100F0D9FE2B68BE6B5B6E3D6A5B6913
:1030E0000236E41A2D1980233D62BE639B009E4286
:1030F000D0D12B12FE6B7D690021AB537D6A00227B
:1031000000232C12FE69705A0231001B404300B2AA
:10311000B860C017F8608020BD68FE688000521952
:1031200073418142EED1FE6B1B06120ABD6971002C
:103130001A4302366A50FE63082EA2D13D6940262A
:10314000F5537D6842260024F5534C26F4534A2358
:103150000226DE550121482049228023C155D6553B
:103160005B42391C3A1C33434B25201C483140320A
:10317000EB5502F0A1FE01225021CA5580215420B6
:1031800049420425C4530E4352205322391C512373
:10319000C555D655201C50317A69DD5502F08CFE9C
:1031A0005C23DC5359218023CD55012058265A2217
:1031B0005B42391CF055D5555B261D43201C583108
:1031C000BA69F55502F078FE3D6B03353D63422D3B
:1031D00000D047E77E6B01367E63102E00D032E7C9
:1031E0000348396801F048F9BD4619B0F0BDC04642
:1031F000852F0000FC030020F8FBFFFFCC0500201A
:103200003C000020F0B58DB000AF744671465948BF
:10321000BC6001F01AF900F0D9F8574D061C2C6873
:1032200069462268A068D31DDB08DB00C91A7861F3
:10323000C81AB9618D4685466B460021B8693B6165
:1032400005F01AFF22681E24FF3434190021684655
:1032500005F012FFB9692422FC60201C002405F04F
:10326000C9FE201C347000F0F9FE0120FFF706FAB9
:10327000201C00F003FE2A68404953680968BC61BD
:10328000013B0AD37C69106860431818CC6D01308B
:1032900080000059BC692418F1E72024013C46D382
:1032A000211C2422F86805F0E7FE002000F0D6FE7D
:1032B0000120FFF7E3F9002000F0E0FD01232021C9
:1032C000CB5521222221D355CB557C235B4223228F
:1032D000D35500207D232421B8843A1CCB55391CBA
:1032E00028322031BC6202F0E7FD234B234A1D68DF
:1032F00016682B687A69013B5A439446013BCDD34B
:10330000686800217860604480007A68013A7A60D9
:1033100004D3F26D125804388918F6E7B86981426F
:1033200001DA3969CC5478696246121AE5E7124A23
:103330000020012328211268B862B885CB55127885
:103340002924E2552A212B24CA55E25D7F218A4394
:103350001343E1190B702C22AC23391CD3552831AF
:103360003A6902F0A9FD0348B96801F085F8BD4645
:103370000DB0F0BDA5310000CC0500203C000020C0
:10338000014B18687047C0468C030020014B5868F9
:103390007047C0468C030020014B98687047C046B8
:1033A0008C03002070470000014B18607047C04636
:1033B00078120020014B18687047C0467812002030
:1033C000014B18607047C04674120020014B18680A
:1033D0007047C04674120020014B18607047C04609
:1033E00070120020014B18687047C0467012002010
:1033F000014B18687047C046FC03002010B50D4B08
:1034000000201B78AA2B12D10B4B1C780B4B64B2FB
:1034100018780B4B40B219780A4B20181A780A4BCF
:1034200049B21B7840188018C01A43425841C0B2B4
:1034300010BDC046500002005100020052000200C0
:103440005300020054000200550002008023DB02FA
:103450000022188059809A80C046024B188880B29A
:103460007047C0460600040082B00022019201AB02
:1034700055221A70392252429A700122DA70019A4A
:10348000A023DB059A6102B07047A023DB05986991
:10349000C001C00F70470122A023DB0510400206C7
:1034A000024998690840104398617047FFFFFFFE8A
:1034B00082B00022019201220A40891801303F2285
:1034C00001AB1040C9B21870481C0231024089009B
:1034D000D9705A70019AA023DB05DA61196A024A91
:1034E0000A401A6202B07047FFCFFFFF0002064B8E
:1034F000000A0138002258609A6005221A60C0460E
:103500001A68D103FCD5704710E000E0F0B55C4BC1
:1035100085B01F6803AD3E1CF1360424311C221C0B
:10352000281C05F067FDB37832781907E340019352
:10353000F37828781B071B0F009312070F2398437B
:10354000120F104328706878012630430226B043DA
:10355000A043C72420406870A878019E9843090FB3
:103560000843340118402043A870E878009E98432F
:10357000031C334310208343EB700398A023DB0527
:10358000FA25D8606D00A023DB05DC683D48013DCD
:103590002040D860DC688020C0002043D860002D27
:1035A000F1D1F2373C78DE68E4063748A40FE40234
:1035B00030402043D860DC68802080002043D86001
:1035C000DC68802080012043D8600C1C161CFFF7AB
:1035D00015FF002812D02D4F882039781E34C9B22B
:1035E00005F088FC39784443C9B2882005F082FC94
:1035F0000F3646431E3C0F3E002C03DB251E0F2DCD
:1036000000DD0F250F239E4200DD1E1CA024E405D3
:103610001D402B041E4AE5681E4815401D43E56009
:10362000F343E268DB171E400F239A431E40164304
:10363000E660E368F022934380221343E360E3688B
:10364000154D164E2B40E360E3683340E360FFF70F
:103650004DFFE26880235B051343E360009A104846
:103660001306E26816401E43E660FFF73FFF019E27
:10367000E268330515401D43E56005B0F0BDC04666
:1036800074120020FFFBFFFFFFE7FFFF5400020062
:10369000FFFFF0FFFF0F0000FFFF0FFFFFFFFFF036
:1036A000FF6F0000064A074B12680120D8321268EB
:1036B00019789040021C0A43D2B21A707047C04673
:1036C000FC030020290000500549064B09681A78C0
:1036D000D83109680120884082431A707047C0467B
:1036E000FC03002029000050044B1878044B1B6891
:1036F000D8331B6818410123184070472900005037
:10370000FC030020A0230122DB055A707047044B04
:1037100082B0019001AA188092789A7002B0704726
:103720002400005007B500F0BFFE064B019001AA2F
:10373000188092789A70044B00221A70034B012271
:10374000DA7707BD24000050000000200800005078
:1037500007B500F0C7FE064B019001AA18809278C9
:103760009A70044B00221A70034B0122DA7707BDCE
:10377000240000500000002008000050034B0022ED
:103780001A70034B0122DA777047C0460000002010
:103790000800005072B6084B1B5C002B03D1C046DA
:1037A00062B630BFF6E762B6A023DB059968034A2C
:1037B0000A409A607047C04600000020FFFFF9FFF2
:1037C000A023DB055A680121120E58689143034A71
:1037D000090602400A435A607047C046FFFFFFFED9
:1037E00008B5074B1B681A1CE5321278E6331B78C4
:1037F000520001325043994005F07CFB08BDC046A1
:103800007412002008B5044B1B68E833197849008E
:103810000131FFF7E5FF08BD7412002008B5A023B1
:103820000120DB055870FFF7B5FFFFF7C9FF08BDA2
:10383000F0B585B0041C494D03AE04280BD12968AE
:10384000221C0191301CCE3105F0D4FB0199444873
:10385000D231221C0BE02B680422191CD631301CFB
:10386000019305F0C7FB01993D48DA31042205F0C8
:10387000C1FBA023DB05586931780006800F1F22A9
:1038800002304001114001433170039919611E69F2
:103890001640FFF7B3FD00280AD0324B8820197874
:1038A0000436C9B205F026FB46430023043E03D488
:1038B000331E1F2B00DD1F23A022D205108A1F21DB
:1038C0000B40884303431382022C16D007DC002CE4
:1038D00013D0012C18D12B681F1CE73714E0042CDF
:1038E00007D00EDB052C0FD12B6800241F1CE137FD
:1038F0000AE02B681F1CDE3706E02B681F1CE4372C
:1039000002E02B681F1CEA37A023DB0559693878D1
:103910003F22104091430143596178781F215D692E
:1039200008401149C0022940014359610F49640010
:1039300009680C19211C77310878596810409143A7
:10394000014359607834217858680A401102084AC6
:1039500002400A435A6005B0F0BDC0467412002010
:103960001400005054000200FF07FFFFFC0300207A
:10397000FFC0FFFF294BF0B51A68294B85B01B68C3
:10398000E7331B785B069B0E0193931DD97F0023C1
:103990008D005519581E5B18002B27D053181B1883
:1039A00026331B788024D3185E78A023DB055F685C
:1039B000E4033C435C60019CB606240400945F6809
:1039C000B60EBC46174F64462740009C27435F60F5
:1039D000C046243676008400F65A2C1988342660B6
:1039E0005E68114C34405C60031CD3E76F46029361
:1039F000BB8101233B72931DDB7F7F217B72BB72F6
:103A0000FB7A88328B4304210B43FB720F20B023D7
:103A100002A93B7302F050FA05B0F0BDFC03002090
:103A200074120020FFFFC0FFFFFFBFFFF0B585B09D
:103A3000FFF7A0FF154B00251E68B31DDC7F631C3C
:103A40009B005B420093A300F3180193009B043D8D
:103A50009D4208D0019A0121571988373868FFF72D
:103A6000BFFE3860F2E76A46002393810123137298
:103A70000423D372B023547294721373321C8832AD
:103A80000F2002A902F018FA05B0F0BDFC030020D7
:103A9000044B00225A70A023DB055A7001221A70D1
:103AA0007047C04600000020A023DB059968064A45
:103AB0000A40802189020A439A60044A00219170D9
:103AC00001229A707047C046FFFFF9FF00000020F6
:103AD000024B1B680833D86F7047C046FC030020B8
:103AE000024B1B680833D8677047C046FC030020B0
:103AF000A023DB059868C0B2704730B5A023DB0572
:103B00009B68DBB283420ED001DA013300E0013B57
:103B1000A022D2059568FF211C1C8D430C40291C56
:103B200021439160EEE730BDA023DB059968802238
:103B300052020A439A609968094A0A409A609A6850
:103B4000120112099A60D968064A0A40DA60D968F7
:103B5000054A0A40DA60D968044A0A40DA607047C8
:103B6000FFFFFFF0FFFEFFFFFFDFFFFFFFFFFFEFA5
:103B70001B4B10B51A680121131CEF331878A023D2
:103B8000DB059C6808401749000421400143996007
:103B9000F03210789C681449000700092140014365
:103BA000996011789A6809091201090712090A43F4
:103BB0009A60D968802252000A43DA60D96880226C
:103BC00092010A43DA60D968802252050A43DA601A
:103BD000C923013B002B01D0C046FAE710BDC04607
:103BE00074120020FFFFFEFFFFFFFFF010B5A024BE
:103BF000E405A36800201B011B09A360E268124BC7
:103C00001340E360E268114B1340E360FFF7C2FD2D
:103C10000F4B1B68F0331A78A36812091B011207B7
:103C20001B091343A360E26880235B001343E36036
:103C3000E26880239B011343E360C923013B002B0F
:103C400001D0C046FAE710BDFFFEFFFFFFDFFFFF18
:103C500074120020034B1B68E533187840000130D4
:103C60007047C04674120020024B1B68E633187878
:103C70007047C04674120020004870470010005082
:103C80000048704700200050004870470040005036
:103C9000074B01201B685B799A1C0340D318054A27
:103CA0001268663210785843034B8000C018704782
:103CB00078120020FC03002004400050F7B51B4B95
:103CC000051C1C68A3795F1E15D36279013A10D3D5
:103CD0006079561C811C0191012108400199081846
:103CE000584331181248890009180868E8400860EC
:103CF000ECE73B1CE7E7FFF7CBFFA37A0022013399
:103D00009C466346013B9C460FD3617A9600019125
:103D1000861900230199994205D09F00F15901337A
:103D2000E940F151F6E75218EBE7F7BD78120020B1
:103D300000400050074B01201B685B799A1C034030
:103D4000D318054A1268723210785843034B80002A
:103D5000C018704778120020FC0300200440005077
:103D6000F7B5284B1D682A7853B2042B1ED1264B79
:103D70001B68E0331F78254B196802235E1E3FD372
:103D80004A79013A10D34C79551CA01C01900120AE
:103D90000440019804195C4328191D4C8000001947
:103DA0000468FC400460ECE7331CE7E7002A27D0F6
:103DB000022B03D1144B1B68E6331EE0032B03D107
:103DC000114B1B68EC3318E0012B11D1FFF7B2FF48
:103DD0000E4B061C1B685C79013C11D32B193A333E
:103DE0001B789B009859FFF70DFDA300F050F3E7F7
:103DF000052B05D1044B1B68E3331878FFF75EFFF2
:103E0000F7BDC046FC030020741200207812002089
:103E10000040005008B5A0230120DB055870FFF7D3
:103E2000B9FCFFF7CDFCFFF79BFF08BD70B5041C84
:103E3000104E114D11D10120FFF7FAFC3368012219
:103E40001A70A023DB056C705C701A70FFF7E2FF3C
:103E5000FFF7B6FCFFF7EAFD0224201CFFF7E8FCA1
:103E6000336800221C70A023DB056A705A7001229F
:103E70001A7070BDFC0300200000002008B5FFF799
:103E8000D5FFFFF7C7FF08BD08B5A023DB05011C60
:103E900058683F2211409043084358605968586859
:103EA000114001310A401102064A02400A43064904
:103EB0005A6000224A705A7001221A70FFF7AAFF56
:103EC00008BDC046FFC0FFFF00000020094B0121D4
:103ED0001A685379D0799A1C0B40D318064A0130DE
:103EE00012686A3212785343C018044B8000C0181D
:103EF0007047C04678120020FC03002000400050AC
:103F000010B5A023DB051C6A0005064A000D01045C
:103F100022400A431A621A6A120B120310431862F3
:103F200010BDC046FFFF00F0164B13B51C68A02360
:103F3000ED34211CDB05144804229B6805F05AF877
:103F40002478FFF75BFA00280CD0104B104A1B783E
:103F50001278201C52B200925BB21021D12202F0E2
:103F600065F82418002C01DA002402E0FF2C00DDA3
:103F7000FF24084BE0B21B680833DC67FFF7BDFD88
:103F800013BDC04674120020080000505300020008
:103F900052000200FC03002008B5FFF7C5FFFFF741
:103FA000B5FAFFF761FA234BC022920098582249D4
:103FB000014099509958FF20814340200143995076
:103FC00098581E4901408020000401439950985898
:103FD00080210002000A09060143995001210222B2
:103FE0001A6008201960042119601860144B002021
:103FF0005860144B186901431961134B1B68197AF7
:10400000124B1B68D833002900D1032210491A60D3
:1040100000230B700F49A0220B700F49D2050B70C3
:104020009363D36B9B0E9B06D36362B600F082FA58
:1040300008BDC04600E100E0FF00FFFFFFFF00FFFA
:10404000FCE100E000ED00E078120020FC0300201D
:1040500029000050280000502A00005008B5002810
:1040600001D0012801D100F065FAFFF75DFFFFF7ED
:104070004DFAFFF7F9F908BDF0B5214B13211B6884
:104080000224DA7A0023133AD2B291425B41E41A55
:10409000A023DB0558693F22596810408022D203D3
:1040A0000A43A3B05A60411EA023C9B2DB0502AA8D
:1040B000FF2910D05F683F26124D0E4036043D4068
:1040C00035435D60C046251C24356D005D5B4B00AB
:1040D000D5520139E8E75C680B49214059606946CF
:1040E00000238B8001230B70022348708870CB70F3
:1040F0000320B3230B7101F0DFFE23B0F0BDC046F7
:1041000078120020FFFFC0FFFFFFBFFF10B5A02007
:10411000C00544694906E401E409214341617F2166
:104120000A4044699104074A22400A430649426111
:1041300000224A70427001220270002B01D0FFF76A
:1041400069FE10BDFFFF03FE00000020F7B5041C50
:1041500002F0DEFD124B1A6800235068411C0191E9
:10416000019D16689D420CDB976801367E439900DD
:104170008C469E1900216546B600615101333151CC
:10418000EEE701239E420ADB956800215D43AF0004
:104190002D180135AD00395101332951F2E7F7BD32
:1041A000CC050020044B054900221A6059609A6032
:1041B00005221A607047C04610E000E0FFFFFF00D4
:1041C00010B5A023DB059C689968E623C943C9B2F2
:1041D0005943E403E40F064B0134A040C918041C02
:1041E000044804F087FE011C201C04F083FE10BD6F
:1041F0005C5D000040420F00014B00221A607047D6
:1042000010E000E030B50D4D0D48AB6885B0C01A28
:104210000193FFF7D5FF02A9012300240B704B7017
:104220008B7004230190CB70201C6F2301AA8C801B
:104230000B7101F041FE2C6005B030BD10E000E0D4
:10424000FFFFFF00A023DB05D87CC0B270478023AE
:10425000DB0500BA09BAD8601961704737B5051C8B
:104260000424291C221C684604F0C4FE2919221CBF
:1042700001A804F0BFFE009980230ABADB05DA60CA
:1042800001990ABA1A6137BD40BA80B2704700BAC4
:1042900070470023114A12499A188A4204D21149E0
:1042A000C95804331160F5E70F4B104A191D043B40
:1042B000934203D200221A600B1CF6E70C4B0D4A06
:1042C0001360EFF308820433191D043B9A4203D9AB
:1042D000094818600B1CF7E77047C0463C000020F7
:1042E000E0050020CC910000E405002068120020C9
:1042F000B012002090120020CDCDCDCDF0B5294DCB
:1043000089B029482C6800F0EDF8FFF7EFF8002697
:10431000264FBC4222D280373B1B2027832B00DC58
:104320009F1002A9FAB2012300204A708A70BF10C0
:10433000221C0B70CB70888001F0BEFD231C3A1C40
:10434000013A08D3002E04D119491868884200D0D8
:104350001E1C0433F4E7BF00E419D9E72B6804A955
:10436000F31A0025019304230124CB70281CA723F2
:1043700001AA8D800C704C708C700B71843701F029
:104380009BFD06A90420C870A823BE1B281C01AAF7
:104390008D8001960C704C708C700B7101F08CFD4F
:1043A00009B0F0BD90120020801A0600803700206E
:1043B000CDCDCDCD024B1B680633D87F7047C046AC
:1043C000FC03002070B5051CFFF7B4FC0A4B1C6809
:1043D000A31DDB7F9A00AD180022511ED218002ABF
:1043E00009D0E218521826321278920016588A0024
:1043F000AE500A1CF1E770BDFC03002030B50B4B3A
:104400001B689A1DD27F94001C195300C01800230A
:104410000133D11A013107D09D00651B8835590041
:104420002D6849424552F3E730BDC046FC030020E9
:10443000A02382B080B2DB05D88502B07047A023EC
:10444000DB05D88D82B002B0704770B5051CFEF751
:10445000A3FF0468061C013C08D37268E300D3186C
:104460001A68AA42F7D15B689847F4E7014B013D0F
:104470001D6070BD7C12002070B5051CFEF78CFF1E
:104480008468061C013C08D3F268E300D3181A685C
:10449000AA42F7D15B689847F4E7024B013D1D60E3
:1044A00070BDC0467C12002038B5A023DB0599689A
:1044B0009D68C943E623C9B25943084B041CC91877
:1044C000074804F017FD064BED035843ED0F013587
:1044D0002841211C04F00EFD38BDC0465C5D000083
:1044E00040420F0038B5A023DB0599689C68C9439A
:1044F000E623C9B25943064B051CC918054804F008
:10450000F9FC6843E403E40F0134204138BDC046A0
:104510005C5D000040420F00002801D0133907E025
:10452000122902DD262902DD1239491000E000E0DF
:10453000081C7047F0B5E24BB1B01B680293DC7900
:10454000002C00D187E153331B780021133BDBB2F1
:104550001322081C9A424841C4B20594022609ACB1
:10456000361A1422201C04F087FD029D6F7A0298EF
:104570002B1ABB4210DA2B1C533319780598FFF71E
:10458000CBFF132800D9CFE3235C0135B34200DB16
:10459000CAE301332354EAE7CA4B00251B68291CF0
:1045A000049363331D70049B882266331D700EA82C
:1045B00004F062FD291C1422201C04F05DFDC24B96
:1045C0000EA8196844228A3104F014FD022E04D189
:1045D0001FA80EA9442204F00DFD0025029C03959E
:1045E000029D6B7A671B01349F4234DA231C5233DD
:1045F0001D780598291CFFF78FFF09AA115C6E1121
:104600008C460696112166467143069E0EAB8919AB
:104610001F263540063101268900AE40351CCE5894
:104620003543CD50049D3F23E919061C1E405831E7
:1046300006968F796646B501069E9F433E431E400F
:1046400063460133039F2E43DBB28E7113549F42A6
:10465000C6DA0393C4E7049B039E0027F6B26533D2
:1046600006961E70049702970597954B059E1A684B
:10467000937A9E4200DBA1E0059C13195833197808
:104680000123081C20381D1C83408D409801039C89
:10469000AC468009002C18D0013C442363430EAD86
:1046A00000265E55EB181D1C1F2905DC5F6A664657
:1046B0001E62BB0E9B0606E01E626F6A8301BE0E81
:1046C0009B09B60633436B62E4E77E4B527A196866
:1046D000231C934210DAC818583085794426A8065E
:1046E000AD097543049F800E281801370EADFF18E1
:1046F000281807710133ECE7734B049E1B68B6184A
:104700001A1C8C328B3317781D78FF06AD06049681
:10471000FF0EAD0EFEF772FE002813D06B4E882000
:1047200031780137C9B204F0E5FB31784743C9B2AB
:10473000882004F0DFFB02354543013F023D00269F
:10474000781C03D03E1E1F2E00DD1F263F2D01DDED
:104750003F2502E0EB43DB171D40029944274F43FE
:104760005B4ABF1803998C421EDA4422111C614334
:104770000EAB5918301C1F2318400790887801345D
:104780009843031C079803438B70281C3F23184051
:10479000079048789843031C079803434B70381CD4
:1047A00004F028FC4437DDE7CB43029C059DDB1772
:1047B0000B40E41801350294059556E7414B029FE2
:1047C0001C68FBB2211C64310B70CB70069D00236A
:1047D0008B7105310D70517A0EAA8B420FDAE018F9
:1047E000583085794426A806AD097543049F800E8C
:1047F00028180137FF18121817710133ECE7029FD0
:1048000044237B439A1A1AAE04920025039FBD42AB
:1048100018DA44276F430EA8C719786A0021820E60
:10482000920639627A62301C142204F025FC049945
:10483000284A013588188019391C442204F0DAFB13
:104840004436E3E7FB43DB17029D3B40EB1868343B
:10485000039323700DE01B4D211C28680422633054
:1048600004F00AFC2868211C6730042204F004FCD0
:104870000394134B00211C681322E37A0E1C133B94
:10488000DBB29A424E41F7B2059709A802271422DB
:10489000BF1B04F0F1FB6679251C2B1BB3421BDA0E
:1048A000E97A0598FFF738FE132800D93CE209ABF6
:1048B0001A5C0135BA4200DB36E201321A54ECE7E9
:1048C00078120020FC030020741200205400020023
:1048D00000800050D07F0050A34D03982E68012225
:1048E000331C6B331870DA70002188220EA804F094
:1048F000C3FB0021142209A804F0BEFB9B4B0EA8A9
:1049000019684422463104F075FB022F04D11FA818
:104910000EA9442204F06EFB0027251C04972F1BD0
:104920000697637901359F423CDAAF7A0598391CC6
:10493000FFF7F2FD09A9095C0EAB0291029A44212E
:104940005143091859182A1B0A71791109AA0791AC
:10495000115C11225143079A89188A1D1F210F40AB
:1049600001219200B9400F1CD1580F43D750069F28
:104970003F23F219011C029F19400691BF01517893
:104980000797069F99430F4307991F40029B0F43C8
:1049900057700133049FDBB209AA13549F42BEDA59
:1049A0000493BCE7049C6D36E4B201250694347090
:1049B00002956F4A029B1668013BB279934200DB75
:1049C00082E0F6182836F2790121101C20380E1CDE
:1049D000814096408901049DB4468909002D18D074
:1049E000013D44246C43029F0EA827540419201C47
:1049F0000026266220304768BE0EB60646601F2A93
:104A000002DC60462062E9E78C01A4092643466087
:104A1000E4E7564A1268D31847321478FF33A406E5
:104A20009E7FA40EFEF7EAFC002812D0514F88208A
:104A300039780136C9B204F05DFA39784643C9B213
:104A4000882004F057FA02344443013E023C711CB2
:104A500003D0351E1F2D00DD1F253F2C01DD3F2417
:104A600002E0E343DB171C40039E039F07964426A6
:104A70007E4341483618039F0798391A049FB9426C
:104A80001EDA442251430EAB59188F781F239F43DF
:104A9000281C18403B1C03434F788B703F239F43D7
:104AA000201C18403B1C039F03434B703B2F00DD31
:104AB0003AE1301C013704F09DFA44360397DAE7F7
:104AC000029C0134029474E7274B039D1C68029FEB
:104AD000221CEBB26C321370D370231C069DFFB204
:104AE00072331F70013B1D7009A800211422029728
:104AF000002504F0C1FAA31DDD7773799D423DDAEC
:104B00007319DF7A0598391CFFF706FD09AB1B5CAA
:104B10000493002B0BD1A31DD97F4A1C6118DA77AF
:104B20000731EBB20EAACB77013311180B710EAB24
:104B30001A1812796119944601225242944462462D
:104B40003A310A7079111F2217400631012294462A
:104B50008900BA40171CCA5865441743049ACF50BD
:104B6000624409AB1A54C8E7FC0300207412002009
:104B7000781200205400020000800050D74B1B68C0
:104B800047331C78A406A40EFEF738FC00280AD090
:104B9000D34B882019780234C9B204F0ABF94443EE
:104BA0000023023C03D4231E3F2B00DD3F230EAC29
:104BB000A2781F218A436178A2703F229143666ADE
:104BC0001340029D0B436370B30E25709B060025B6
:104BD00063621AA8291C1422256204F04DFA039F6F
:104BE0003B2F00DDA0E044207843BE49442240181A
:104BF0000137211C04F0FEF90397BB4F03983E6870
:104C0000C7B2331C70331F700D3B1B78321C7732D8
:104C1000311C137057706F3109780B3A5173311C86
:104C20007B3197730B701278331C7C33301C1A70F5
:104C30007D30022204F0DEF9AC4B13221B68291CE4
:104C40000293DB7A201C133BDBB29A426941CAB261
:104C500006920222521A331C733304920122DA7034
:104C60001F70291C882204F007FA291C142209A8A5
:104C700004F002FA994B201C19684422023104F016
:104C8000B9F9049D022D04D11FA8211C442204F06F
:104C9000B1F9029C00270497029F029DE71B05972C
:104CA0006B7901349F4238DAA57A0698291CFFF700
:104CB00033FC09A90F5C44217943029A0EAB091811
:104CC0005918A21A0A71691109AA0791115C1122D7
:104CD0005143079A89188A1D1F210D400121920016
:104CE000A9400D1CD1580D43D550059D3F23721985
:104CF0005178051C99438C46B9011D4005916146C8
:104D00000D431D40059B01371D435570FFB209AD92
:104D10002F54049DBD42BFDABDE7331C049E75339A
:104D200000271E70029701E00020D4E0049A002AB8
:104D300014D0013A442151430EA84118CE6A0020F4
:104D40004D6A08628862B00E8006CB78AC0EC862ED
:104D50002020A40603434C62CB70E8E7634B029A21
:104D60001F68B879BC460590029C059D131BAB4299
:104D700047DA029C61460B1B9B182F3318785110A1
:104D80000123061C1940203E1F1CE5B20791B340C9
:104D90000499069587401E1C002930D00139442310
:104DA0004B43029C0EAD01345C55069CEB18079DED
:104DB00064B20194AC420FD01F2803DC1C6A3C4350
:104DC0001C62E9E75C6A251C3543AD01A40EAD0900
:104DD000A4062C435C62DFE71F2803DC9C6A3C438B
:104DE0009C62D9E71C1CDB6A33439B019B0901933E
:104DF000E36A9D0E019BAD062B43E362CCE70132D3
:104E0000B2E7364B1B685A19DD78FF32AD06977F43
:104E1000AD0EFEF7F3FA002813D0314C882021782C
:104E20000137C9B204F066F821784743C9B2882037
:104E300004F060F802354543013F023D00247E1C2A
:104E400003D03C1E1F2C00DD1F243F263F2D02DC1B
:104E5000EE43F6172E40039F44257D4321480597D6
:104E60002D18039F0598391A049FB9421FDA44226E
:104E700051430EAB59188F781F239F43201C1840B5
:104E80003B1C03434F788B703F239F43301C1840DB
:104E90003B1C039F03434B703C2F00D144E7281C6D
:104EA00004F0A8F8039F443501370397D9E7029C23
:104EB00001340294022C00D038E70B4B039D1B6891
:104EC000EAB2191C7431181C0A70733000788033F0
:104ED000C8721A70012031B0F0BDC04674120020B3
:104EE0005400020000800050FC03002078120020D3
:104EF000F8B5164D061C2B68002463331F782B6809
:104F0000E1191A1C643212780134914209DAE3196A
:104F1000442058430E4B311CC018142204F0ACF846
:104F2000EDE76B331F7800242B68E2196C331B7894
:104F300001349A4209DAE31944205843044B311CE6
:104F4000C018142204F098F8EEE7F8BDFC03002026
:104F5000EC7F0050F0B5374B85B01B6802901A1CEF
:104F6000039163321578344A00201168041C8A7A50
:104F700094422BDA021C4F7A161ABE421FDA9E198F
:104F80005836B679B7090096EF1944267E432B4F61
:104F9000B4463E1C009F66440196BE06039FB60EB3
:104FA000B446BE5C3F2E00DD3F26F6B20096019E61
:104FB0000132371C6744009E30373E70DBE7181C17
:104FC0006530007801342D18101CD0E71A1C6B32A4
:104FD000147800208A79904229DA00224D790195CF
:104FE000AA421EDA9E187678B709E7190397442774
:104FF0003D1C039FB6067D43AC46104DB60E2F1CDC
:10500000019D674445430397029FBF187D5D3F2D77
:1050100000DD3F25039FEDB2BE19303635700132F9
:10502000DCE71A1C6D3212780130A418D2E705B003
:10503000F0BDC046FC030020781200200080005024
:10504000F0B5A24B95B01C686846A379627900AFB1
:105050005A43131C0E33DB08DB00C01A93000E33D7
:10506000DB08DB008546C01A6D468546FD616D464E
:105070003D61E3792726191C0E319B00C9080E33C8
:10508000C900DB08401ADB008546C01A6D4685461C
:10509000BD6100216D46F869FD6003F0EDFFA37965
:1050A000627900215A433869920003F0E5FFE27902
:1050B0000021B86903F0E0FFE279F868920000216E
:1050C00003F0DAFF0023F3552722D05D7F4E3E2800
:1050D00000D9C8E0FFF70CFF0020FEF7CFFE272124
:1050E000C95D30687961002283799A4235DA0023FC
:1050F0004179541C8B422EDA161C4E439E198D1C8E
:10510000BE600126AC463140614461438919C9182B
:105110008D006F493E696D182D687D60BD68AD00DA
:10512000A9597D68A94214D27D69FE69B968755490
:10513000417901258E1C0D4075196C435143013492
:10514000E418634EA400A419246859183D69890025
:105150004C510133CCE7221CC6E7FEF799FD5B4BAF
:1051600027261B68F65D002278613B60BE607A608E
:105170003D687E68AB7A9E421CDAFE689400351961
:105180007E69111C3419002338685A18407A83420A
:105190000CDA9A00A858A658B04205D2BE69B86881
:1051A0007618F054A658AE500133EDE77968013116
:1051B0007960DDE7012529212A220024CD55D55526
:1051C00028202B23391C3A1CC555DD552C261D23C0
:1051D000201C28312732BC85F35500F06DFE3B4E74
:1051E0003C633368BC869A793020C2555B793121A3
:1051F0001A1CCB552A400233D31833203222D35500
:10520000C25D7F218A43042002433321CA553149BC
:105210009B0051223420C2555A18391C201C3031B1
:1052200000F04AFE33683822BC63BC87D555DB7971
:105230003B2039253A26F355EB55C35D7F218B433F
:1052400004221343C519391C2B70201C5A233831F2
:105250003C267A69F35500F02FFE2720C35DC11963
:1052600001330B7030E7391C4031002433683C6453
:105270008C809A797F250A705B79FA694B708B7004
:10528000CB780820AB4301252B43CB701D230B713A
:1052900000F012FE391C48313368BC648C800D70FC
:1052A000DB797F264B708B70CB78BA69B3431D4393
:1052B00008201E230B71CD7000F0FEFDF869B9695E
:1052C000FFF748FEBD4615B0F0BDC046781200207D
:1052D0000040005004400050F0B56C4B97B01B6884
:1052E00069469A795C7900AF5443231C0E33DB087E
:1052F000A200DB00C91A131C0E33DB08DB008D464D
:10530000C91A6D46F9618D46081C00213D6203F003
:10531000B3FE386A0021221C03F0AEFE05233B6376
:105320003A6B132A00DDADE04F2301247B63802616
:105330003A23DC55382176420423CC5533433922B5
:105340003B210025D455CB553C22A423BD87391CD5
:10535000D3553A1C281C3831303200F0ADFD4423BF
:10536000DD53402141224223CC55D455DC55042441
:10537000A523432144222643D355CE553A1C391C3C
:10538000281C4031343200F097FD2F23DD552F21AA
:10539000C85D3F2873D8FFF7ABFD3C6B7D6B61B2F6
:1053A0006AB201230020FEF7B1FE384B2F221B68A2
:1053B000D25D3B6199797A61B9610022BD69AA42E7
:1053C0002BDA396948790121031C5343861C0140BB
:1053D0007B627118531C59437D6A8B006C1AFD69FE
:1053E000A4002C19FC600021814214DA284C1E19FB
:1053F000FC683568E458AC420AD23D6A3668AC466F
:105400007D6ABE60AC447D6964466554FC68E650C4
:1054100001310433E8E70132D0E70024391C3A1C9B
:10542000483101251D23201C2F328C800D704D70BA
:105430008D70CD700B7100F03FFD144B391C503155
:105440001B683C658C809A79201C0A705B797F22EE
:105450004B701D400233ED18CB788D7093430422BE
:105460001343CB7051230B71094BAD00EA182F2465
:1054700000F022FDE35DE51901332B7087E73B6BFC
:1054800001334CE7BD4617B0F0BDC046781200208E
:105490000440005044235843044B111CC018C278E8
:1054A0000F2319409A430A43C2707047008000508E
:1054B00038B5051C141CFDF7A1FF002808D00A4BC5
:1054C000882019780234C9B203F014FD4443023C29
:1054D00044206843054A3F23801802781C409A43C1
:1054E0001443047038BDC0465400020001800050CF
:1054F00010B5041CFDF782FF002808D0084B882057
:1055000019780434C9B203F0F5FC4443043CA023E9
:10551000DB05198A1F22144091430C431C8210BDE5
:1055200054000200F0B5C54D99B02B68A0245A79FB
:105530009B7900AFD3181A1C5A43E405A668BB62D6
:10554000D31DDB08DB006846C01A85466B46FF2189
:10555000BB6103F091FDFF20FEF7C4FFB8496A4626
:10556000081AF860B86AF6B2C000031C0E33DB08F4
:10557000DB00D21A9546BA6A78619200131C0A338E
:10558000DB086846DB007862C01A85466B463A61E4
:105590003B6200220023BA63FB63AA4BE26813401C
:1055A000E3602B685C79A54B013C1B68611C14D03F
:1055B0001B19381CD97A5830202203F0FDFCB86D35
:1055C00060218300C919CB18FA6D283B01211868A6
:1055D00091400A1C02431A60E5E79C79013C621C79
:1055E00017D0964B381C1B6858301B192833D979B3
:1055F000202203F0E1FCBA6D60209300C019FA6D1F
:10560000C3180121283B91400A1C19680A431A60FB
:10561000E4E7FF239E1BE6235E438B4C3419BC60FA
:10562000BC69FC6100247C637C6BB86A844200DB4B
:10563000F3E000217A69786A03F01EFD00213A69DF
:10564000386A03F019FDA023DB0500221A635A6BA8
:105650006420920E92065A63BD6B9D63FC6BFC62E4
:10566000DA6BA601920EB60992063243DA63FEF7B0
:1056700039FFFDF73BFF714B7C6B1B689A799442B5
:1056800003DA1B192833D97903E07C6BA21A9B1823
:10569000D97A381C5030202203F08EFCBA6BFB6B99
:1056A0003A647B647B6D396D01229A406023DB197B
:1056B00088001818031C203B1C6894431C60A0231E
:1056C000221CDB0500290AD0283801684A409101D4
:1056D0005A6B8909920E92060A435A6301E06A40A6
:1056E0001A63A024E405A563E36B0A209B0E9B06C6
:1056F0001E43E663FEF7F6FEFDF7F8FEE26B80233D
:10570000DB041343E363386CFA6A4540A563796CA4
:10571000E36B4A4092019B0E92099B061343E3639D
:10572000FEF740FD7A6C3D6C7B6A94460126474A41
:10573000FC689168A14214DB454A644610685268CF
:10574000284022405C68944203D3F0D11C68844214
:10575000EDD23C6ADA60B2009860A150013608339D
:10576000E5E7FEF749FDA023DB05D96B394A0A407E
:10577000DA63012E49D0751E7C6AED006519013E81
:10578000002E42D02B1C083B1A6828685B686968A9
:10579000BC6A90439943B200B864F964013CFA6270
:1057A0007A6B94422FD0254B1B689A79944203DA86
:1057B0001B192833D97902E0A21A9B18D97A381C10
:1057C0005830202203F0F8FBFB6D0122B86D9A409F
:1057D0006021131CC91982008A18183A12681A42EB
:1057E0000FD0FB6A3A6AB968D258154B1A489B1A0F
:1057F0003B6303F07FFB011C386B03F02DFBF96961
:105800000855013CCCE7083DB9E77C6BB86A013428
:105810007C63FC692418FC6106E7C3B2381C58306D
:105820000370437083700023C3700371B96901234F
:10583000437100F0E7F8BD4619B0F0BD78120020C2
:10584000FFFFFF00FFFF0FFF5C5D000010E000E0C6
:1058500040000050FFFFFFFB40420F00014B18606B
:105860007047C04684120020014B18687047C0463C
:1058700084120020014B18607047C046801200203F
:10588000014B18687047C04680120020014B186811
:105890007047C04600040020F7B5334F7346714689
:1058A000381C0193FEF7D1FDFBF790F9009001F051
:1058B0002FFA061CFDF77EFD2C4D1022041C0099CA
:1058C000286803F097FB32882B68381C1A74120A78
:1058D0005A74B2889A74120ADA74254A1268053228
:1058E000D27F002A03D0A2791A75627902E0627928
:1058F0001A75A2795A75E2799A751E4A6B681288F0
:105900001A70120A5A701C4A52889A70120ADA7077
:105910001A4A52881A71120A5A71194AD2889A710F
:10592000120ADA71174AAB68920A1A70164A920A7A
:105930005A70164A920A9A70154A920ADA70154AF3
:10594000920A1A71144A920A5A71144A920A9A7166
:10595000134A0199920ADA71A023DB05DA7C6B699C
:105960001A70FEF789FDF7BD3958000004040020C5
:10597000CC050020FE030000FC970000FCAB0000FB
:10598000F8BF000000000000000400000004000058
:10599000009800000098000000AC000000AC00007F
:1059A00000C00000F7B50A4C7146061C201C754665
:1059B000FEF74BFD074A694681CA81C16B46B600B6
:1059C000F658201C291CFEF757FD301CFEBDC046B2
:1059D00045590000B490000070B5084C7146201C79
:1059E0007646FEF732FD064B201CDB69311C5D78E4
:1059F000EDB2FEF741FD281C70BDC046795900008C
:105A000004040020F8B5144D041C0F1C281C71461A
:105A10007646FEF71AFD114BFF215A6A11701049A4
:105A20009C620F60A0782778596B474320793F1814
:105A300060794006400E784308609869A0210170A3
:105A4000D969281C1378FF2B02D10B78022BF9D0CF
:105A5000311CFEF711FDF8BDA5590000040400201B
:105A6000F806002038B50D4C7146201C7546FEF72F
:105A7000ECFC0B4AD1694B780A49DBB20B72012B63
:105A800005D0022B05D1936901225A7001E0FDF780
:105A900009FE291C201CFEF7EFFC38BD055A00004A
:105AA00004040020F806002038B50D4C7146201C77
:105AB0007546FEF7CAFC0B4BDB68002B0BD00A4A7D
:105AC000DBB2106C7F2119404832017093700133B2
:105AD0005370FFF7C7FF291C201CFEF7CDFC38BD13
:105AE000495A0000F80600200404002038B50C4C88
:105AF0007146201C7546FEF7A8FC0A4B1B7A012B49
:105B000006D0022B06D1084B00229B695A7001E097
:105B1000FDF7DAFD291C201CFEF7AEFC38BDC0469F
:105B20008D5A0000F806002004040020F7B5254E29
:105B30007346301C71460193FEF787FC224C00250A
:105B4000224E337A012B07D0002B25D0022B24D1F3
:105B50001F4B9B695D7820E0FDF7C6FD051C002CFE
:105B60000CD1FDF7B1FD2E23FF33013B002B01D0FB
:105B7000C046FAE7FDF796FD134C0BE0124A94423B
:105B800008D0002806D12E23FF33013B002B01D083
:105B9000C046FAE7013C00E01D1C0D4FFA6953783E
:105BA000327A9A4206D0FFF7A1FFFB69074A5B7879
:105BB000137201E0002DC3D102480199FEF75CFC8D
:105BC000F7BDC046CD5A0000FFFF0000F8060020D8
:105BD00004040020F7B5164D7346071C0E1C281C44
:105BE00071460193FEF731FCFFF7A0FF114C8022B4
:105BF000236C52421978606C0A431A70391C321CAB
:105C000003F0F8F9236CF6B218787F229043311C28
:105C10001140021C0A431A704834A670FFF722FF95
:105C2000FFF784FF281C0199FEF726FCF7BDC0464C
:105C3000755B000004040020F8B5FAF7C7FF01F017
:105C400067F8FDF7B7FB194C656B03F05BF868600C
:105C5000FFF722FE164DE36B2A681088020A5A717C
:105C60001871FFF79FFEE36BC6B29E712B68013679
:105C70005F6803374743381C00F0E9F93A1C0021FC
:105C8000051C206403F0F8F9231C48330135002279
:105C90005E7065649A7003F02FF8064B5860A0237D
:105CA000DB059A7CE36C1A70F8BDC0460404002042
:105CB00084120020F8060020024BDB691878C0B27D
:105CC0007047C04604040020024BDB699878C0B2DC
:105CD0007047C04604040020014BDB699870704790
:105CE00004040020024BDB69D878C0B27047C0467C
:105CF00004040020014BDB69D870704704040020C5
:105D0000014BDB695868704704040020024BDB69D3
:105D10005A6858607047C04604040020024BDB6993
:105D2000187AC0B27047C04604040020014BDB69FA
:105D30001872704704040020024BDB69587AC0B225
:105D40007047C04604040020014BDB69587270475D
:105D500004040020024BDB69D87AC0B27047C04609
:105D600004040020014BDB69D87270470404002052
:105D7000024BDB69987AC0B27047C0460404002029
:105D8000014BDB699872704704040020024BDB6909
:105D9000187BC0B27047C04604040020014BDB6989
:105DA0001873704704040020024BDB69587BC0B2B3
:105DB0007047C04604040020014BDB6958737047EC
:105DC00004040020034BA0229B691A701A78A02AB1
:105DD000FCD0704704040020034BC2B29B691A70C8
:105DE0001A788242FCD0704704040020014B5B6AA1
:105DF0001870704704040020024B5B6A1878C0B228
:105E00007047C04604040020014B1B681888704787
:105E10008412002008B5034B0022DA60FFF786FEEB
:105E200008BDC046F806002070B5074B074CDA6B7A
:105E3000E668011C9579586C2A1C8019751903F0C5
:105E4000D9F8E56070BDC04604040020F8060020C3
:105E500073B56C46E271164A0734556D2E7886424A
:105E600024D1FF2028701366131C94331B682078FC
:105E70009B6880009165D46518710E4B06980C786C
:105E800018608878536B60430C794979001949068A
:105E9000490E414319609169A0230B70516DD2697D
:105EA0000B78FF2B02D11378002BF9D073BDC046BD
:105EB00004040020F806002070B5144C636B1D79B3
:105EC000EDB2012D21D1854058781E780002304373
:105ED0009E7836043043DE7836063043284214D0AC
:105EE000FF2018710A48A16302608C780D78C97888
:105EF0006C434906490E074A6143506B9269016041
:105F0000772111701A79FF2AFCD070BD840400201B
:105F1000F806002004040020014BDB6B1878704762
:105F200084040020014BDB6B187070478404002050
:105F3000014BDB6B5878704784040020014BDB6B0E
:105F40005870704784040020014BDB6B98787047D1
:105F500084040020014BDB6B9870704784040020A0
:105F6000014BDB6BD878704784040020014BDB6B5E
:105F7000D870704784040020002303600B601B4B23
:105F8000F7B59A4230DC1312194C122B1BD89B0028
:105F9000E418646E002C27D0E368013B5D1C23D01D
:105FA000D5B2019565681E1CEF5C019D013BED1BA0
:105FB000F4D42768B300DB59002B15D05B190360BC
:105FC000A3689B5D0EE0A36B266B013B0CD35D00C9
:105FD000755B551BF9D4E66A9B00F25852190260B2
:105FE000626BD3585D1B0D60F7BDC046FFEF00002C
:105FF00004040020C02208B5D2000B4B904206D109
:106000009B691A78052A0DD005221A700AE01B6CCC
:1060100084221B7892005B065B0E9B18984201D18C
:10602000FFF764FD08BDC0460404002038B5051C18
:106030001C1C181C8D4209DB0498954206DAC01A14
:106040006D1A6843511A02F055FF201838BD044AF2
:10605000033013688010800018181060181C7047F7
:1060600090120020F8B501254E1E6C00B54202DAF0
:10607000165FB0420CDAA61E1D5F115F9B5F401ACF
:10608000EB1A5843935FC91A02F034FF4019F8BD68
:106090000135E9E7014B18607047C046A0120020A7
:1060A000014B18687047C046A0120020014B1860D1
:1060B0007047C04698120020014B18687047C046D0
:1060C00098120020014B18607047C0469C120020B7
:1060D000014B18687047C0469C120020014B18689D
:1060E0007047C046D0050020F0B591B075460690C7
:1060F0000E1C3F487146099507920893FEF7A5F9D3
:106100003C4F00243B6869469D680BAA4F238C8551
:10611000201C13700AA9221C0A94FFF7CDFE3968CF
:10612000AA0052424F6894466644EB190496201C1C
:10613000AB4219D0049C9A00A218043A1268069E39
:1061400003920A680024171C6F43DF19BF00F71978
:1061500002976444013A05D3029F039E3F59BE1B38
:106160008019F6E7013BE3E7C96802F0C3FE224A63
:10617000061C1368214C9D88002D03D12368402202
:106180009A600AE0D9882768681A8001711A02F0BB
:10619000B1FE6E2800DD6E20B8600CA901230B70E3
:1061A00002234B708B707C235B42CB70002050230A
:1061B0000EAA88800E950B710F96FFF77DFE0E4F8D
:1061C00064213A68079D137A089E4B436B4392788B
:1061D0003341002A03D02268926853439B112268FE
:1061E0000348D3600999FEF747F911B0F0BDC046E6
:1061F00089600000CC05002098120020D005002006
:10620000F0B5754687B00395274D0291041C714681
:10621000281C171C1E1CFEF718F9244BFA691B6872
:106220005B7A9A40131E00DC0123214A311C12685C
:10623000D068584302F05EFE1E4B00901D682F6828
:10624000BC463A1C6B68561E16D3191C7143C918FC
:10625000890061180439013B0CD3AF680298574399
:10626000DF1901377F00385E009F47430868C01B75
:106270000860EFE7321CE5E76946DBB24B748B74CC
:106280006023624604200B7510234B750A74C87492
:10629000221C04A9FFF710FE03480399FEF7ECF84F
:1062A000012007B0F0BDC046A16100009812002097
:1062B000D0050020CC050020F0B51D4D85B07446FA
:1062C00001940E1C041C7146281C171CFEF7BDF817
:1062D000184B391C1B68D86802F00CFE164B009056
:1062E0001B6819698A00A2180B1C043A013B07D3EA
:1062F0005F00F05F009F47431068C01B1060F4E729
:106300006A4661230126C9B2042013731023537314
:10631000167251729172D07202A9221CFFF7CCFD45
:10632000281C0199FEF7A8F8301C05B0F0BDC04646
:1063300059620000D0050020CC050020F0B589B0DE
:106340007446069002912B48714607940392FEF71B
:106350007CF8294B1E68294B34681B680094049311
:10636000274B1B680593274B1F68009C013C00943A
:106370001FD374680099244A6143A5186D18069BC1
:10638000AD0001915D19013CEFD30399286802F03B
:1063900063FD04998B78002B07D0059A0199531857
:1063A0001B5DBA6858435043001300042860043D45
:1063B000E9E7124B34691E68114B1F68013C13D387
:1063C0000299A5004859039902F046FDB378002BC5
:1063D00006D0F0223B1992009B181B78584380117D
:1063E000029B00045851E9E702480799FEF744F878
:1063F00009B0F0BDDD620000CC050020981200203D
:106400009C120020D0050020FFFFFF3FF0B51A4C82
:10641000071C0E1C85B07146201C7546FEF715F84A
:10642000164B2A371B683A78197D4A43316892091E
:106430008A4200DA0A1C197C4A43921101929B7B22
:106440009A4200DA019302A900228A8001220A708E
:106450004A708A707C225242CA701F220A7106203A
:1064600001AAFFF729FD201C291C019EFEF704F854
:10647000301C05B0F0BDC046AD630000981200208E
:10648000F0B58DB075460C1C0790714642480392DA
:1064900008930995FDF7D9FFFAF798FBFAF7A2FBE5
:1064A000FCF788FF3D4D002669468E85296801234B
:1064B0000AAA13700B7C29226A442A2113706944AA
:1064C0002B220B706A44042313700BA95A230B7000
:1064D00004900AA90220039AFFF7EEFC231C2A333A
:1064E0001E7080231B0663632D4B2F68A3632D4B07
:1064F0003D691B6801932C4B1B6805932B4B1B6854
:106500000693013D37D3039BAA009E580292049A3A
:106510003869517A02F044FD089A89008B58616B02
:10652000F31A994200DA6363A26B9A4200DDA36317
:1065300001998B78002B07D0059AF0215319890017
:106540005B181B785E43B611129A02995358019A50
:106550001B0C9E1BD37B9E4202DB069901230B7111
:10656000079A6B00D652231C2A331A78964200DA17
:10657000161C1E70C5E70B4B2A341B6822789B7AC9
:1065800000209A424041C4B209990348FDF774FFC4
:10659000201C0DB0F0BDC04621640000CC050020D9
:1065A000FFFFFF7F981200209C120020D0050020E2
:1065B000F0B59BB075460C1C13907146BD48069211
:1065C00014931595FDF741FFFAF700FBFAF70AFB64
:1065D000B94E0025336817A89F681A6805975B684D
:1065E00059276F4405803B705A20059F6844077007
:1065F00016A95B200A7004236844059A037017A942
:1066000051230B700132069B92009A18022016A9A2
:10661000FFF752FCA31DDD770233DD777F27631D73
:10662000DF77E31DDF77A54F291C386850226030E3
:1066300002F022FD3868291C5022103002F01CFDA7
:1066400002F004FC032808D19D4B1B681D789F783D
:106650005A780C950A97DB7808E033680A951A682F
:106660005B68013A013BD2B2DBB20C959549059DBE
:10667000096852B2049194495BB209680D930F9175
:106680008D49531C08686B438C49069F0E68111C8A
:10669000083149009B00FB18711807910B93A90062
:1066A00080238A4D002749421B0684461191099593
:1066B00008930597381C0C9D6BB29A4200DAB3E040
:1066C0000D99531C12930B1C30335B00F318069387
:1066D0000A9D6BB2994200DA9DE00B9F8B00FD187A
:1066E000149F6D68FB58089FEB1A9F4200DA0893CD
:1066F000099F9F4200DD0993049B9F7863465B6876
:106700000193002F07D053430F9F7F18FB5CB7689E
:106710005D437D432D13019F209B5743CF19BF003D
:10672000FF583B0C67465B1BBD68129F7D434D19AC
:10673000139F01356D00EB53049F002B56DB112591
:106740007D57AB4219DB27685D1B7D1925606569A4
:10675000112701356561049DAD7C6DB20395049DE3
:10676000EF5765680295039DAB4201DCDF1B01E03A
:10677000039DEF1B029DEF196760E768BB4204DDD4
:10678000CDB2D7B210950E97E360049FBD7BAB42AC
:106790001BDB251C08351F27EF578F4200DAE977EE
:1067A000E51D1F27EF578F4200DDE977A51D1F2745
:1067B000EF57974200DAEA77651D1F27EF57974298
:1067C00000DDEA77059D013505959FB20297069F8A
:1067D000C0183D88029F7D192F1C069D2F80079DA4
:1067E000029F2D887F19079D2F800FE013257D576D
:1067F000AB4206DCA7685D1B7D19A560A569013564
:10680000A5612569AB4200DA2361C01A069F0139F0
:10681000023F06975CE7079F0B99119B023FC9183F
:10682000013A07970B9146E7234B01251B68002689
:10683000D96802F05FFB7C2318A95B42221CCB7055
:10684000E06176231C32281C8E800D700B714D7018
:106850008D70FFF731FB059FA21D27621F21631D6D
:1068600051561F229A56154B1B68914201DB1D7130
:1068700000E01E71089D099FE5622763109D231C9F
:106880000E9F28331D705F700E4BE0681B6801255A
:106890009A7A904206DA0C215A5E2369D117DD0FED
:1068A0009A424D4103481599FDF7E6FDE8B21BB049
:1068B000F0BDC04651650000CC050020D005002089
:1068C000A0120020981200209C120020FFFFFF7FE2
:1068D000F0B589B007931D4B00921D680691AA6818
:1068E0002968161C4E43049201391DD36B68009F22
:1068F0001C1C4C43E418A4002418A446F418A4005B
:106900003C1905940024043C013B0AD3059F3A1925
:1069100067463F5903975768039AD21967463A5119
:10692000F1E7049AB61ADFE72A69069C079D9300EF
:10693000E118E8180023043B013A04D3CE58C758A5
:10694000F419CC50F7E709B0F0BDC046CC050020E3
:10695000F0B589B07546029003913D4871460795A0
:1069600004920593FDF771FD3A4D02982B680021C2
:10697000DA69920002F080FB374B1B68DC78002C50
:1069800020D00420FDF77AFA324B18684269551E70
:1069900016D38369029E191C6943C91889007118AE
:1069A0000439013B0AD38668059F56439E19013678
:1069B000B600F6590F68BE190E60F1E72A1CE6E72B
:1069C000013CDCE7234C244F26683C68756906943B
:1069D0000195019C013C019411D3B469019D029A77
:1069E00065432D19AD005519043D013CF1D3069BBB
:1069F0002868D97802F030FA00042860F4E7F268D9
:106A000000219200039802F037FB124D04982B6886
:106A100000211A69920002F02FFB3E68F478002CE6
:106A20000AD00520FDF72AFA03980499059A0E9BCF
:106A3000FFF74EFF013CF2E73B680398DA780499D0
:106A4000FFF77CFC02480799FDF716FD09B0F0BD81
:106A5000F1680000CC05002098120020F0B591B03C
:106A60007446039004916948714609940892FDF7B1
:106A7000ECFC674D00222B686E469C685869292102
:106A80009B69B28569442A222B260B706A44042331
:106A90006E4433701470049E621C0AAF920038700A
:106AA000A0230BAF02200AA9B2183B70FFF704FA2B
:106AB0002968271C486947438446029762468B69C8
:106AC000013A944631D3029D049EEA189200B2180E
:106AD000059262465A43089FD21895007D19069583
:106AE000039D5200AA181D1C4543039EED186D001E
:106AF000079275190022023A013B12D3069F5600F5
:106B0000BF593F0C0097059FBE197768009EF71B81
:106B1000079EB752FE17BF197740AE5ABE19AE5244
:106B2000E9E7029F3F1B0297C8E70CA9DBB24B7055
:106B30008B707E2301305B420870CB700026A1234E
:106B40000120039A8E800B71FFF7B6F9314B304C60
:106B50001A682168304B88691D681660AC46031CB2
:106B6000FF25013B13D34C69039F4443E4186400A1
:106B70003C5F67463F78BC42F3DB9E4200DADEB200
:106B80009D4200DDDDB217683C191460E9E70EA9EB
:106B900001240423CB7000276423201C8F800C70F9
:106BA0000B714C708C70FFF787F91A4B1A681A4BEF
:106BB00012681B685B789A4220D9154F69B23B680E
:106BC000039F9A695B695A4373B25B1AD90FCB185A
:106BD0002341EB18AD18A540DBB2E95F9B18039D7C
:106BE000A340EB5E271C994208DDB218039EA24029
:106BF000925FD917D70F93424F41FFB203480999CB
:106C0000FDF73AFC381C11B0F0BDC046FD6900002C
:106C1000CC050020D005002098120020F0B58BB0E4
:106C2000744603900E1C3348714607940292FDF798
:106C30000CFC314B1D68314B28681C68A769391C56
:106C400002F00AF92E4B1B685B7A9840002800DCA2
:106C50000120EB680299584302F04CF96169BB00CE
:106C60005B424A1E8446381C029350437B005C42C0
:106C70005343C019039D8000F3180494281805930A
:106C800000910024009D013D009515D3059E021C36
:106C9000A61906963B1C043A013B08D3069E5D00EC
:106CA000765F654675431668761B1660F3E7029AB1
:106CB000049B8018E418E5E721242225FBB208AAEA
:106CC0006C446D44117023702B7009AA6023232635
:106CD00025240420137008A91023039A6E446C44E1
:106CE00030702370FFF7E8F802480799FDF7C4FBFE
:106CF0000BB0F0BDBD6B0000D0050020CC0500201E
:106D000098120020014B18607047C046A81200205E
:106D1000014B18687047C046A8120020014B18604C
:106D20007047C046A4120020014B18687047C04647
:106D3000A4120020014B18687047C046D4050020FB
:106D4000F0B5724689B0714657480792FDF77DFB52
:106D5000564C002120683E222C3002F08DF920682C
:106D600000210A226A3002F087F9206800210A22F5
:106D7000743002F081F9206800212822803002F06E
:106D80007BF9206800210A22A83002F075F92068FA
:106D900000210C22B23002F06FF9206800210C2291
:106DA000BE3002F069F9206800210C22CA3002F0DE
:106DB00063F9206800210522D63002F05DF92068D1
:106DC00000210522DB3002F057F92468FF23221C42
:106DD000CB3213700C3A13700C3A1370344B1D689D
:106DE000A968EB684F00F81A59000002019302F0FD
:106DF00081F82B696A695B000590A060981A5100C0
:106E000000020292039302F075F82A4B04901E6868
:106E1000E060731D0399DA7FE88B2D8C49427B4239
:106E2000069503917768002A0FD0019A3168504384
:106E30000139C018514302F05DF8069B051C029809
:106E4000039958434018791E0FE00199019A48436D
:106E5000791EC018514302F04DF8069B051C02989C
:106E600003995843401831680139029A514302F09E
:106E700041F8854200DD051C0599EB0F013F5D19C6
:106E80003F024B00DF19049B6D105A003368A56167
:106E9000013B1B02D3182761636103480799FDF783
:106EA000EBFA09B0F0BDC046E16C0000D40500204B
:106EB000A8120020CC05002070B5084C7146061CB5
:106EC000201C7546FDF7C1FA301CA422002102F0F7
:106ED000D3F8291C201CFDF7CFFA70BD596E0000B5
:106EE000F8B5144C7146061C201C7546FDF7ADFA2A
:106EF000114B00211A68201C131CB2331970FF219A
:106F000059700E4B1B681B7C013BDBB2FF2B0DD075
:106F100059008F5B191C583149003CB25118002CA4
:106F200001DD8F80F0E700248C80EDE7291CFDF760
:106F3000A3FAF8BD816E0000D4050020CC05002026
:106F4000F7B5744601940E1C041C71461E4800924D
:106F5000FDF77BFA1D4B1B681B6ADBB2013BDBB202
:106F6000FF2B28D05A00B1182A25485F009D9F00AA
:106F7000AA18E719002819D0181C28304000001959
:106F80000425405F002811D00225485F7D682D1A36
:106F90006D107868AC46844465465580F86A1627BB
:106FA000C95F411A49100818D082D7E77868508025
:106FB000F96AD182D2E72378009C034823700199B3
:106FC000FDF75AFAF7BDC046E16E0000CC0500207F
:106FD000F7B5194E7346051C0C1C301C7146019305
:106FE000FDF733FA154F0A2238680021A83002F065
:106FF00043F8134B3F681B68301C1A6AD2B2013A3F
:10700000D2B20023FF2A10D0111C28314900691880
:107010008B80111C1431490061184B80B9180E1C6B
:1070200068367031B3700B71E9E72B7001992370EA
:10703000FDF722FAF7BDC046716F0000D4050020AD
:10704000CC050020F7B5134E73467146301C0193F2
:10705000FDF7FBF9104DFF2228680024031CB33311
:107060001A700527013B1C703A1C211CD63002F017
:1070700003F828683A1C211CDB3001F0FDFF28686A
:10708000211C0A22B43001F0F7FF301C0199FDF7F2
:10709000F3F9F7BDE56F0000D4050020F0B57146A7
:1070A0007446061C85B047480394FDF7CEF9464B5D
:1070B00034681A68531DD87F1168736855680028B2
:1070C00006D0013D181C2D024B1E1B02019506E047
:1070D0000139201C09021C1C6B1E1B020191063287
:1070E000D27F002A00D0181A384A1768384A3979EE
:1070F00000292FD1FF2808DC15680138297EFF38C8
:10710000484380110130FF300BE0191AFF2908DCD9
:1071100015680139687EFF39484380110130FF301E
:10712000181AFF2C08DC1568013CA97EFF3C4C4373
:10713000A4110134FF340DE0019D291BFF2909DC56
:1071400015680139EC7EFF394C43A4110134019DCF
:10715000FF342C1B1268B96815684018490059188B
:1071600068430092029501F0C5FE051C0098F9687D
:1071700047686418381C6043019C4900611801F09D
:10718000B9FE009C237F9D4207DD029CE21A9542D6
:1071900004DB251C013DED1A00E01D1C009C637FF3
:1071A000984205DDFA1A904203DB013FF81A00E02D
:1071B000181C7060356003480399FDF75DF905B050
:1071C000F0BDC0463D700000CC050020D405002075
:1071D000A8120020F0B58FB07446714604909F4805
:1071E0000694FDF732F9FEF70FFEFEF713FE049F3B
:1071F0000124049E543703940025994B994C1B6835
:107200001B6A9D4200DBC3E0216868000B180590F3
:1072100004332A201A5E3E215B5E0AA80A920B9371
:10722000FFF73CFF0022BB5E002B00DC83E0F06A2E
:107230007368099008A80893FFF730FF099B0B9823
:107240000A9A181A07929C46C21723688018504061
:107250005A19A83208991478834A02911268002CAE
:1072600001D15C3200E05D322C1C283464001C1912
:107270000621645E1278002C09DD904207DA029C38
:107280000798211ACC170919614091426FDB0CACA9
:107290002178802252420A43DF210A4040210A43DA
:1072A00022701A1CE032117820780122114010223D
:1072B000904309010F220143039891430143217038
:1072C000029908126178104091430190604607913D
:1072D0000112090100910198079908430099104093
:1072E0000143029A61703988A27060460A1C09B293
:1072F000E070FF2900DDFF222271F0331B68201CA3
:10730000291C9847201CFEF78FFD564B059C1A68D8
:107310001319191C56310020095E5219A832002990
:1073200001DD012100E000211170716804335985ED
:10733000F26ADA871BE02B1C226828335B00D31823
:1073400006241B5F002B12DD0CA80023039C436066
:10735000402323430A9A03700B9B11051C1224013E
:10736000090F214341708270C370FEF75DFD3D4BF4
:107370003A8819682B1C28335B00CB18DA80039AF3
:107380000F2301321A40013502370436039234E7E5
:107390002368B3215956CB331B785AB2481C2DD0E1
:1073A000914237D00CAD013209D000220C926A60B4
:1073B00001330F221340281C2B70FEF735FD0023EC
:1073C0000C936B6080235B422B7023682E781A1C11
:1073D000B33212780F21501C8E4352B208405832FB
:1073E000311C520001439B1829709A88131C12B259
:1073F000FF2A00DDFF232B710CA809E0013209D020
:1074000000220CA80C92426001330F22134003703B
:10741000FEF70AFD24680499231C0E782C33221CE5
:107420001E70E0321278251CB533CA35211C1A7043
:10743000B231281C0C2201F0DDFD0123002E02D107
:107440002B785A1E9341E4342370FEF72DFB03483A
:107450000699FDF711F80FB0F0BDC0467571000038
:10746000CC050020D4050020A412002010B5022471
:107470008B7804575AB2944200DD8370CB78032492
:1074800004575AB2944200DAC3700B7800240457B0
:107490005AB2944200DD03704B78012141565AB232
:1074A000914200DA437010BDF0B593B00293C14B26
:1074B00004911B68049C9B68059207936300C318A2
:1074C0000C9384331D880A935300C31884332CB261
:1074D00001950D931D88049B92009B00C718861888
:1074E000706808937B6803952DB26343684301314C
:1074F000C0180B9161190992069101F0FBFC00B2D2
:107500007860706C06994543786C4443281901F003
:10751000F1FC00B27864381C02990422A43001F016
:1075200069FD019C039D63190A9C0D9D2380059CA8
:10753000002301342B800A94199D089C0A9B291969
:10754000099C2A1901250F2B07DC10689D400C6847
:10755000054025430D600133F4E7059C281CA0403D
:10756000049C00231360A540199AAC46C643059CB1
:10757000A34217DA1468204211D0049DAB4203DA0B
:1075800065462C43146007E0049CA34204DD0D68AB
:1075900001249C402C430C60146834401460013377
:1075A0000432E4E7029D079C2D786DB22B1C013359
:1075B0005C4301950694029C0123E356019D9D4284
:1075C00000DDA2E0029D0223EB56069C189DE31805
:1075D000EB180393039C189D631B069C029D1B1BC9
:1075E00008930323EB56089C9C4200DD86E0039C35
:1075F0006278013A112A00DC7CE00121052349422E
:107600000020013B002B27D06B4E0125F4186D4262
:107610006557019CF6186519079C01356C43F6798E
:10762000A446189D089C76B209962E196446351911
:10763000099C2D196C78013C0F2CE2D8049DAC42BA
:1076400002D0059DAC42DCD14D1C03D0A142D8D064
:107650000120D6E7211CD4E700284BD0122A47D1BD
:10766000039C0B9D65700524013C002C42D0524BBD
:10767000089D1A19D279012152B2AD181B1949423D
:107680005956AC46019D69180B1C079D01336B438D
:10769000189D01336344EA18107809910028E3D15A
:1076A0001A985B001B5A002BDED0122010700C9A27
:1076B000796884321688604635B2584369430002BF
:1076C00084460D91081C796C9E194D430999B6B2F8
:1076D00059431680090236B260446D18311C01F01E
:1076E00009FC311C7860281C01F004FC7864BBE7BD
:1076F000039C6270039D013503956BE7019D069C19
:1077000001350195079D641954E70022A256079C94
:10771000511C6143029D0123EB569A421ADC029DE3
:107720000223EB56189CCB18E318189D5C1A641BB7
:10773000029D03202856844208DC5878059D0138B4
:10774000A84201D10B9C5C700133EEE7079C01322B
:107750000919DFE70B9D6846109500230A9D838772
:1077600039223A2011950EA9012502236A44684462
:107770000D70137003703B217C2369445B4210AC95
:107780000B700FAA0C2313700EA9221C0B20FEF7FE
:1077900093FB10236370A3700423E37046232371CB
:1077A0000B204023211C199A25706371FEF784FB7E
:1077B00013B0F0BDCC050020BC900000F0B5ABB01C
:1077C000754606900F91D6487146179218931B95EF
:1077D000FCF73BFED34B309E1B6832789B680B93C3
:1077E000D14B012A08D1069C2278012A04D91B68B2
:1077F0009D891295DB8903E01B681E8912965B89BF
:1078000013930F277B1E002F00D191E1179C9A0044
:1078100012590597FA400D921F1C0D9D002DF1D0B5
:10782000059E102EEED00D9DED0700D470E1069E52
:10783000BD007519059E059BB400069E28333419BA
:1078400060686E68391C361A1096606C6E6C9B000E
:10785000361A1196109E2831F017361846400C96AD
:10786000119E8900F017361846400A96069E1CA8FD
:10787000F3185B68711804311C93FFF7F7FD059B43
:10788000686840335B002490F31804215E5E3B1C63
:107890000796666840330896069E5B00F31804213D
:1078A0005E5E079B079A5843089BB2187343111CEE
:1078B000C018099201F01EFB6B6C646C079D664357
:1078C00027936B432590089809992690981901F001
:1078D00011FB1CAE289000210C2221A8299401F054
:1078E000CBFB3678712076B2079668440078722117
:1078F00040B2199069440978331C0B9C49B2732239
:10790000013314916A445C4312780E9452B21A9275
:10791000079C199DAC4200DDACE0149C0E9E189BA8
:10792000079D3219023352002D029A1816950992BA
:107930000894089D1A9EB54200DD93E00F9D0E9EAF
:10794000089CAB191B1959784B1E0F2B41DD0020E9
:10795000012205235242041C013B002B2CD0734D05
:107960000126AC467642ED18AE57079DAE190B9D29
:107970000136754366461595F518ED796DB2049597
:107980000F9DAC46089DAC44159D2E1C049D66447D
:1079900076197578013D0F2DDED8BD4202D0059EC7
:1079A000B54205D1561C05D0AA42D5D00124D3E753
:1079B0000120D1E72A1CCFE701324CD0002C0FD197
:1079C00000280DD0099E1139308801F093FA041C6B
:1079D00008E0581C3FD0BB4202D0059CA3423AD1DC
:1079E000099D2C88002C36D0089E36021596032659
:1079F000013E30D30C980A99B50088420DDD27AAC4
:107A00005059169B1199181A4843109901F072FAAF
:107A100024AA5359159D181A0CE024A94859159AFF
:107A2000109B101A5843119901F064FA27A94B5979
:107A3000169D181A401BC11740184840FF28D7DC74
:107A400080214900081A6043B20021ABD5580012CA
:107A50002818D050CCE7089E099C013602340896BD
:107A6000099466E7079C0E9D0B9E0134AD1907949F
:107A70000E954DE7239B219C9C4200DD1C1C0C9E17
:107A80000A9DAE4204DC00239D420CD00A960C9560
:107A90000A9E0C99B00101F02DFA3F2800DD3F202D
:107AA000224B1818037C2D21129D139EC81A68437F
:107AB0007343C01801F01EFA4443229BA412A34250
:107AC00026DD059DBD4201DB05972F1C1DA91F93D7
:107AD00000238B8001230B7002234B708B707C235F
:107AE0005B42CB700B2027231FAA0B712094FEF75B
:107AF000E3F90F9E179C189D3A1C1CAB009601944D
:107B0000029506980599FFF7CFFC3B1C059F05934E
:107B1000059E0D9C0136640805960D947DE6C046D1
:107B20005D770000CC050020A4120020BC9000006E
:107B3000069C2C4B2770186801211C3049421022EA
:107B4000261C01F099FA069D84363C1C0020325E0A
:107B5000E3B2002A1FDD06990A7801320A70214A31
:107B60001268121917779F4213D06A68B800081874
:107B700042606B6C43643B1C403332885B00CB1823
:107B8000291C9A80A430A431042201F033FA002386
:107B900033800137FFB2013402360435102CD5D1C1
:107BA00027A9002327938B800F4B0B9D1B687F22F7
:107BB0001C680F9E0C705B6806204B70CB788D7034
:107BC0009343012213432A1C0132CB70B218302395
:107BD0000B71FEF771F905481B99FCF74DFC2BB0B2
:107BE000F0BDC046D4050020CC0500205D77000024
:107BF000F8B5184B0F1C1E68174B1D68F38B2969CD
:107C0000584301F077F9C317C418308C6969784379
:107C10005C4001F06FF9C317C5185D40AC4202DB50
:107C2000231C2C1C1D1CA001291C01F063F90B4E08
:107C30003018037C281C002B0BD05A22D21A523643
:107C40005200955B5B0068439D5B00146C432414F9
:107C50000019F8BDA8120020D4050020BC90000037
:107C6000F0B5A3B07546041C05918448714607928F
:107C70000C930D95FCF7E9FB814B1B6806931A6A80
:107C80002378934200DD131C059E01213370494285
:107C900010220EA801F0F0F912A8FF21402201F0F5
:107CA000EBF9784B069F1B683F6A0993764B089760
:107CB0001B6800260A93089DAE4254DA331C143325
:107CC000079D5B00EB180227DB5F002B48D0331CBD
:107CD000099D20339B000A9F5B5925787F691B0112
:107CE0000B950025DB19049501250393271C6D4294
:107CF00004980B99C3B28B421ED204984300E31838
:107D0000843300215B5E002B11D00C9A7300D318D2
:107D10000221585E7A68101A1622995E7B6C591AF5
:107D2000FFF766FF0399884201DA049D0390049AE5
:107D3000043701320492DBE76A1C11D00EAB5957AD
:107D4000AA0012AB013107D09F580398874207D988
:107D50000EA998504E5503E0039F0EA89F5046551C
:107D6000731CDEB2A7E700252378AB422BD90EAFF8
:107D70007E5D73B2013323D0AF000599F6B2E319EB
:107D80005A68B000081842605B6C2A1CC362331C3E
:107D900028335B004032CB185200291CA21828312E
:107DA0009288890061189A80043104227C3001F0A5
:107DB00021F9344B12AA1B682036BA58B600F2508B
:107DC0000135EDB2D0E700252378AB423DD90EAEA8
:107DD0007357013336D12B1C40335B00E3189B886B
:107DE000002B2FD0069F0020396A88422ADA021C15
:107DF0001432079E5200B2180227D25F002A1ED109
:107E0000021C059E28325200B2180427D65F002EAD
:107E100015D10EA94855A9006118059E4F6880002C
:107E200030184760496CC162291C283189006118EB
:107E30009380043104227C3001F0DCF802E0013050
:107E4000C0B2D2E70135EDB2BEE70E4B10221B687F
:107E50000698197F006A814202DA0EAC615C00E08C
:107E6000FF21013AD2B219770133002AF0D1034839
:107E70000D99FCF701FB23B0F0BDC046017C00006A
:107E8000CC050020D4050020A4120020F0B597B046
:107E90007446061C08915F4871460F940992FCF7DE
:107EA000D4FAFEF747FF5C4B0A901B681C6A231C40
:107EB0002733651E5B001D34F318A4000433341906
:107EC000039306346F1C00D19DE0039E0027F65FEC
:107ED0000596002E00DC90E000264F4BA6571B684D
:107EE00002960127E7570D934C4B00261B680B9712
:107EF00007930496029F0B9EB7425DDCA31E0021F0
:107F00005956631E1B78029F5BB23F020C930E977B
:107F1000029B0C9E0133B1424CDC0D9E4F1CB2689B
:107F2000381C50430697089FC318FE5C102E24DDB2
:107F30000520013800281ED0394E37183618013E6A
:107F40003678FF7976B28E19013656430096089E30
:107F50007FB2B446029E0197B444009E6744BF19A5
:107F60007E78002EE5D0079F76B2BE19F67E76B2F7
:107F7000AE42DED10AE0061C0BE0002E09D00A9FBB
:107F80001B22BE19B2560026AA4202D1099F5B00ED
:107F9000DE5B231C7A3B186828330E9F1B6809029E
:107FA000C01B591AFFF724FE4643049F0699BF19C8
:107FB0000497ADE702939DE70498059900F09AFFB6
:107FC000079FBB69984200DA181C11A900238B8017
:107FD0000123039E0B7003234B708B707C235B4249
:107FE000B082059F80B21490CB701220B02313AAE8
:107FF000139515970B71FDF75FFF039E013D023E40
:108000000396043C5EE703480F99FCF735FA17B076
:10801000F0BDC0462D7E0000CC050020D405002018
:10802000BC9000000F4AC378126810B551685CB26A
:1080300001398C4201DA0133C370837859B20029C7
:1080400001DD013B83704378126859B2013A9142D5
:1080500001DA0133437003785AB2002A01DD013B93
:10806000037010BDCC050020F0B59DB0754607919A
:10807000071C7146D14813950A920D93FCF7E5F958
:10808000CF4B16A91B68002218689E685B688A801F
:108090004B700123CB7008230B71079D331C0133F8
:1080A000EB180870F4B21A1C06200C9301960B947E
:1080B0008C70FDF701FF1023013BDBB2FF2B0CD0CE
:1080C0009A00BA18101CA4307F2101708170A73269
:1080D000FF21013001701170EEE7BA4B00221B68DE
:1080E000229E1A600D22B256019C501C6043229EB3
:1080F0000C23F3569A4257DB229D0D9E0F2341001D
:108100007618EB56B446229C0E2161568B4247DB13
:10811000079C2118C9184D782C1C113C2D2C02D815
:1081200000244C703AE0013DEDB203950F2D35D897
:10813000590061444C88A34909680E6801360E60F5
:10814000A900251C5D4379184E687619251C5543F6
:108150004E604E6C76194E64039E75007D19843511
:108160002E88A4192C800C1CA63400256557AB4220
:1081700000DA23700C1CA73400256557AB4200DDE4
:1081800023700C1CA43400256557AA4200DA227023
:10819000A53100240C57A24200DD0A70013BB2E772
:1081A000019D013A401BA2E7019E3C1C3D1C73004F
:1081B000A43420355B42029412950F930697069BD8
:1081C000843300201B5E002B02D13C1C0025FDE007
:1081D0000298FFF727FF029C019A6478079D64B21A
:1081E000231C01335A43019EAA180992720053437B
:1081F00003940D9C0025E31810930895029C00231E
:10820000E356039D9D4200DACEE0029C0326A6576A
:10821000089D109C2D191195029C0223E3569E4245
:1082200000DAB5E0099DAD196B780495002B02D0FA
:108230003F2B00D0AAE0119C7300E3185C88002C4F
:1082400000D1A3E0002315930523013B002B20D090
:108250005D4A0720D1180A1C08560121494251568F
:10826000039D6918019D01316943079DAA191218E0
:10827000521851784A1E0F2AE7D8002215A8855CAB
:10828000002D01D18154E0E78D42FBD00132D2B202
:10829000F4E715AA9A5CDDB2002A04D00133042B5E
:1082A000F7D11D1C01E0002D70D0291C201C00F00E
:1082B00021FE049A291C1131059151700399331C38
:1082C0004343414304930E910023691E009115AA74
:1082D0008B421ADAD15C241A01398A00BA1800914B
:1082E000516801338C4604998C4461465160516C4D
:1082F0008C460E998C4461465164009A510079185D
:1083000084310A8812180A80DFE7D25C211C013A06
:1083100093007143FB185868411859600399586CD1
:108320006143411859645300FB1884331A88059936
:1083300014191C800023122928D0009A934225DAB0
:1083400001331A1CAA42F8DA15ACE018013800789B
:10835000145D0138013C0121C0B2E4B28C46A04258
:1083600009D20A99800008186146A1400C1C0168D6
:108370000C43046008E00A99A4000C19614681408E
:10838000081C2168084320600132DBE7013E43E717
:10839000039D089E0F9C013D361903950896099D83
:1083A000019EAD1B099529E7069E04340294129C98
:1083B00002360696A64200D001E706E709800000D3
:1083C000CC050020D4050020BC9000006A00BA183B
:1083D00084321688EBB2002E15D0616836B20802DE
:1083E000311C00F087FD626C6060311C100200F0EF
:1083F00081FD6064201CA4300135FFF713FE0434B6
:10840000102DE3D12B1C18A93B7010234B708B70DF
:108410000423CB70462301240B710A9A40230B20BE
:108420000C704B71FDF748FD1AA900238B800A4B95
:108430000B9E1B680C9A1D685B6806204B702D23F1
:108440000B710D708E70CC70FDF736FD03481399DB
:10845000FCF712F81DB0F0BDCC050020098000002B
:10846000F8B5164F041C0D1C381C71467646FBF7F8
:10847000ECFFE317E4185C40EB17ED185D40AC42ED
:1084800002DB231C2C1C1D1CA001291C00F032FD4A
:108490000B4B1B5C002B0BD05A210A4AC91A49000E
:1084A0005B00895A9B5A4D435C432D1424142D19AB
:1084B000381C311CFBF7E0FF281CF8BD01840000CC
:1084C000CC9000000E910000F0B50C1C85B07546F4
:1084D0007146071C2E4803951E1C151CFBF7B5FFA3
:1084E0000622A35E0422A05E0222A15EC01AC31768
:1084F000C0185840642358430022A35EC91ACB1702
:10850000C918594000F0F6FC7622011C00231A39E4
:10851000FF3200902B60914234D801930022BB5E61
:1085200064205843009900F0E5FC019B81B239803A
:10853000012B11DD2A680023F05EB31E0292002297
:108540009B5E09B2C01ABB1E00229B5EC91AFFF7D0
:1085500087FF029BC0182860019A023701320192FE
:108560000236162ADAD10423E05E642500996843B6
:1085700000F0C0FCA0800622A05E0099684300F0D5
:10858000B9FCE08002480399FBF776FF05B0F0BD27
:1085900069840000F0B5284F85B0754603950291B7
:1085A0001D1C7146041C381C161CFBF74EFF0022D4
:1085B000AB5E0220295EC9188C460423E85E0621C2
:1085C0006B5EC0184010019002982623F25E2623AD
:1085D000C35E604641100198824205DD8B4201DD99
:1085E000032106E0022104E08B4201DD012100E0CD
:1085F0000021A17002990020085EC01A0023F15EDC
:10860000891AFFF72DFF011C0A9800F073FC0A99E4
:1086100060700A200622AB5E48430422A95EC91A94
:10862000CB17C918594000F065FC03992070381C1D
:10863000FBF722FF05B0F0BD35850000F0B57446AC
:1086400085B0039401900C1C32487146151CFBF751
:10865000FCFE019A0021019E931B142B09D10026D8
:10866000A35F2820275EFF1A2823E85E0023EE5E22
:1086700008E0631802269F5F635E6818FF1A0223F2
:10868000C05E6E5EA823FF337B439B12801B029368
:108690000126984200DC0026F3B21F4E7743BF123A
:1086A000B84201DD022633437F42B84201DA042793
:1086B0003B43029E7742B84201DA08200343072B6E
:1086C00017D006D8012B12D0002B0ED0032B15D0BB
:1086D00015E00C2B11D002D8082B0FD00FE00E2B79
:1086E00009D00F2B0BD1052308E0012306E002235C
:1086F00004E0042302E0062300E0072313700231A4
:1087000001322A29A7D103480399FBF7B5FE05B02A
:10871000F0BDC046DD850000A7090000F8B5074C94
:108720007746061C0D1C201C7146FBF78EFE201C94
:10873000391CFBF7A1FE7019F8BDC046BD860000CC
:10874000F8B5104F051C0C1C381C71467646FBF71B
:108750007CFE381C0C4BA54207DD2C1BA412032CFD
:1087600000DD032464001C5B06E0651BAD12032DD5
:1087700000DD03256D005D5B6419311CFBF77CFE99
:10878000201CF8BDE1860000C4910000F0B57646DB
:1087900085B00396041C0E1C86487146FBF755FEF7
:1087A000F8F72CFA0269071C1378002B1BD0012B59
:1087B0001DD1814B1B681B6A019301980138019000
:1087C0000DD301984300D318543300215B5E002B76
:1087D000F3DD7A49096889888B420BDB07E00121C8
:1087E0000291019B09E0029301235B4205E0012312
:1087F0000293FAE70120019B0290022E1DD004D8BB
:10880000002E0AD0012E10D0C6E0052E32D0062E42
:1088100054D0042E00D0BFE028E0002B62DA029E84
:10882000012E00D1BAE00825BBE0002B71DA029DD1
:10883000013D6B425D41AD00B3E0217F002B02DBC7
:108840004F2966D9AAE05D48E66800680588AE420F
:1088500003D986790325B14204D8C0790025814225
:1088600000D20525029E012E36D197E002980128FC
:10887000D9D195E00299002907D1504AE37F1268C7
:10888000D2799A4200D984E0CDE7002BCBDB9B0064
:10889000D2186169236956680020185E0023CB5EF8
:1088A000D16A301AC91AFFF7DBFD444B1B685B889D
:1088B0009842B8DC0023E377062572E0029A072588
:1088C000002A6ED00425002B6BDB3C4B1A68E37F3B
:1088D000D27993425DD364E0022D1AD0052D55D094
:1088E000012D5ED16377019E3869B300C2185668C6
:1088F000216960690E80D26A0125028025770022F5
:10890000E2603A69D3189A88228062809B8DA380A6
:108910003AE0657F237F2A49AD005B18216952192F
:108920005B00C85E5168E668081A6169CB5ED16A6F
:10893000C91AFFF795FD3A698619E6605319227F37
:108940005868266952009053227FDB6A61695200A1
:108950005352237F0026A25F013323773B695D19C1
:108960006B68934200DA23800220225E934200DD8E
:108970006380EB6A0421625E934200DAA3800626DC
:10898000A25F022593420CDDE3800AE00023E37737
:1089900007E00133E37703E0002502E0042500E06F
:1089A000351C029E0348A6770399FBF765FD281C3A
:1089B00005B0F0BD2D870000CC050020A4120020DA
:1089C000FFFFFF7FF0B5A3B0141C75460290039122
:1089D0003E4871460A930B95FBF737FD201C152185
:1089E00000F088FA029C6D462388039C2B8622881F
:1089F000012517AB06901A8001952C1C00260A9DB4
:108A0000AC4252DA029D6300ED180795029D9A1E52
:108A1000AD180495039DAA18EB18079D0893002034
:108A2000285E049D05920023EB5E089DC01A00217C
:108A3000695E0023D35EC91AFFF712FD0699331849
:108A4000051C8B422EDB049A8E1B0023D25E0599F7
:108A50000992089A0027CF5F0020105E291CC01BD6
:108A6000704300F047FA079B3F1809990020185EF1
:108A7000BFB2401A7043291C00F03CFA0199099AD0
:108A80004B0015183022ADB2D2186946555217AABC
:108A90009F52049B019A1D80059D013201922F80F7
:108AA000002300E001341E1CA9E70CA902982E2225
:108AB00000F0A0FA17A92E22039800F09BFA0348B1
:108AC0000B99FBF7D9FC23B0F0BDC04665890000C7
:108AD000F0B58BB000AF75467D60041C0D1C5C4882
:108AE00071461E1CFA60FBF7B0FC386C694640000A
:108AF000031C0833DB08DB00C91A8D46B861C91AAC
:108B00006846012378618D4639617C623D62FB6174
:108B1000796A3A6A3B6CF86902310232013B796248
:108B20003A6298422ADAF8697B6A7A6A4000023B24
:108B3000B8600021585E0023D35E796AC018022312
:108B4000CB5E0321C01800F0D5F97A69BB68D0521A
:108B50003B6A3A6A023B0021585E0023D35E396AC1
:108B6000C0180223CB5E0321C01800F0C3F93A6994
:108B7000BB68D052F8690130F861C9E72288796989
:108B800038690A802A885B000280BA697869023AEB
:108B9000A15AAA5A19523969201C5A527969BA69DC
:108BA00000F028FA281CBA69396900F023FAFA683B
:108BB000002313602B88F3802B880235B380238831
:108BC000738023880234338001237B627A6A3B6C92
:108BD0009A4236DAF868A31E006800229B5E38626B
:108BE0000021605EC01A0023E95EAB1E00229B5E7E
:108BF000C91AFFF735FC3B6AF968C018086023887A
:108C00000222B15E1AB2914200DA738023880020FA
:108C1000315E1AB2914200DD33802B880622B15EAC
:108C20001AB2914200DAF3802B880420315E1AB226
:108C3000914200DDB380796A0235013179620234F4
:108C4000C4E703487968FBF717FCBD460BB0F0BDDD
:108C5000718A0000F0B57346041C87B07146244841
:108C600000260393FBF7F1FB6A4696829675237FF5
:108C7000251C0C352A1C009320696169231CFFF711
:108C800027FF237F20696169E268FFF79BFE2A1CAA
:108C90006069211C2369FFF717FCE36805A80093AE
:108CA0002169231C6269FFF775FCA069216962696B
:108CB000FFF7C4FC0F4F6D463B68EE74E833133585
:108CC0001B68281CA16998472B78061C084D002BAF
:108CD00006D13B68A069EC331B6805A99847061CC0
:108CE000281C0399FBF7C8FB301C07B0F0BDC04639
:108CF000F58B0000D4050020014B18687047C04672
:108D0000D80500200048704754090000014B18683E
:108D10007047C046D8050020014B1868C030704726
:108D2000D8050020014B18607047C046AC120020E7
:108D3000014B18687047C046AC12002000487047CD
:108D400064B5000038B5FAF735FB0F4B41791B6865
:108D5000012559604279941C2A40A2189A608279B0
:108D60001A604A43C479DA601C61427902219A612F
:108D7000AA40DA61026859611A6201795A1DD177F5
:108D800002790633DA7738BDCC05002010B5124CD5
:108D90001249134A206800F02DF92068FAF704FB05
:108DA00020686030F7F70CFF20689030FDF772F90B
:108DB00020689430FDF7A6FF2068B830FCF74EFD20
:108DC000FFF7C0FF074C201CFAF706FB064BE01824
:108DD000FDF778F910BDC046D805002010AC0000A2
:108DE0005409000064B50000C5030000124B10B523
:108DF0005968EA240A7864005443802292001B6870
:108E0000A4181C190D4B201D1860FAF7D9FAA423D9
:108E10005B00E018F7F7E0FEB02149006018FDF7AD
:108E200045F9BC225200A018FDF778FFEC235B0047
:108E3000E018FCF71FFD10BDD8050020AC12002083
:108E4000014B5B6818707047D8050020014B5B68C8
:108E500018787047D8050020002934D0012300225B
:108E600010B488422CD301242407A14204D28142A9
:108E700002D209011B01F8E7E400A14204D28142B9
:108E800002D249005B00F8E7884201D3401A1A4336
:108E90004C08A04202D3001B5C0822438C08A0426D
:108EA00002D3001B9C082243CC08A04202D3001B23
:108EB000DC082243002803D01B0901D00909E3E79D
:108EC000101C10BC7047002801D00020C04307B41C
:108ED000024802A14018029003BDC046D90000001C
:108EE0000029F0D003B5FFF7B9FF0EBC4243891A41
:108EF0001847C046002941D010B4041C4C40A44679
:108F000001230022002900D54942002800D5404213
:108F100088422CD301242407A14204D2814202D2E8
:108F200009011B01F8E7E400A14204D2814202D208
:108F300049005B00F8E7884201D3401A1A434C0805
:108F4000A04202D3001B5C0822438C08A04202D33B
:108F5000001B9C082243CC08A04202D3001BDC0863
:108F60002243002803D01B0901D00909E3E7101CA4
:108F70006446002C00D5404210BC7047002806D043
:108F800003DB0020C043400801E08020000607B456
:108F9000024802A14018029003BDC046190000001B
:108FA0000029EBD003B5FFF7A7FF0EBC4243891A97
:108FB0001847C0467047C046F8B50D1C041C081C75
:108FC000111C161CFFF796FF311C071C281CFFF70D
:108FD000E7FF002D05DB002908DB2760201C61600E
:108FE000F8BD0029F9DD013F8919F6E70137891B32
:108FF000F3E7C046F0B50F2A35D9031C0B439C0795
:1090000035D1161C103E36093501451910350C1C9A
:10901000031C27681F6067685F60A7689F60E76838
:109020001034DF601033AB42F3D1731C1B01C51841
:10903000C9180F231340032B1BD91C1FA40801348C
:10904000A4000023CE58EE500433A342FAD1ED1809
:10905000C91803231A4005D00023CC5CEC5401331B
:109060009342FAD1F0BD051C002AF5D1FAE7051CA0
:10907000F2E71A1CF8E7C046F0B5830746D0541E45
:10908000002A42D0CEB2031C032503E0621E002C4E
:109090003BD0141C01335A1E16702B42F6D1032C00
:1090A0002BD9FF250D402A0215432A0415430F2C06
:1090B00015D9271C103F3F091E1C3A011036B6185F
:1090C0001A1C156055609560D5601032B242F8D117
:1090D00001373F010F22DB191440032C0DD9271F44
:1090E000BF08BA001E1DB6181A1C20C2B242FCD11D
:1090F0000137BF000322DB191440002C05D01C19D6
:10910000C9B219700133A342FBD1F0BD141C031C7A
:10911000C5E7C0460600000008000000FF0000018F
:10912000FF01FF0100FF0100FFFF01010001020339
:10913000040405060708090A0B0B0C0D0E0F10118D
:1091400011121314151516171818191A1B1B1C1DAC
:109150001D1E1F1F202121222323242425252627ED
:1091600027282829292A2A2B2B2C2C2D2D000000DA
:109170007804EF08660DDB115016C21A331FA123C5
:109180000C28742CD93039359639EE3D4242904640
:10919000D94A1B4F58538E57BE5BE65F07641F6862
:1091A000306C397038742F781C7CFF7FD983A88786
:1091B0006D8B278FD5927996109A9B9D1BA18DA4BC
:1091C000F3A74BAB97AED4B104B526B839BB3EBEBE
:1091D00034C11BC4F2C6BAC973CC1BCFB3D13BD4C4
:1091E000B2D619D96EDBB3DDE6DF08E218E416E685
:1091F00003E8DDE9A5EB5BEDFEEE8FF00DF277F312
:10920000CFF414F646F764F86FF967FA4BFB1BFCD2
:10921000D8FC81FD17FE98FE06FF5FFFA5FFD7FF74
:10922000F5FFFFFFB50239017E0000004400002079
:10923000E005002000000000000000000000000029
:10924000000000000000000000000000000000001E
:10925000000000000000000000000000000000000E
:1092600000000000000000000000000000000000FE
:1092700000000000000000000000000000000000EE
:1092800000000000000000000000000000000000DE
:1092900000000000000000000000000000000000CE
:1092A00000FF000000000000000000000A000000B5
:1092B00000000000000000000000000000000000AE
:1092C000000000000000000000000000000000009E
:1092D000000000000000000000000000000000008E
:1092E000000000000000000000000000000000007E
:109570000000000000000000000000001C060020A9
:109580001C0600200C0600209C0300200A0000009E
:1095900000121F00010000131415161718191A1BCA
:1095A0001C1D1E1F2021222324000000000000009B
:1095B00000000000000000000000002728292A2BDE
:1095C0002C2D2E2F303132333504030205060708C7
:1095D000090A0B0C0D0E0F10111200000000000004
:1095E0000000000000000000000000001C06002039
:1095F000F8060020240700201C0700201407002084
:1096000000000000C005002000000000BE05002092
:10961000B0050020A2050020A105002000000000E8
:10962000F8060020C4040020080700200200000003
:109630008812002000000000000000000700000069
:10964000120700209D0500201307002000000000E5
:10965000000000000000000000000000780500206D
:109660006405002000000000000000000000000071
:1096700050050020000000003C0500200000000014
:109680002405002000000000080500200000000064
:109690000000000000000000F0040020DC040020B6
:1096A000C804002099050020940500200000000057
:1096B0000E07002000200060C00400200C070020DE
:1096C000D804002001000000040000005004002025
:1096D0000D070020EC040020010000000100000044
:1096E000B404002003050020000500200300000052
:1096F0000405060010200000540400201D05002071
:1097000018050020050000000401060104001020D7
:1097100030310000240400203705002034050020EB
:10972000030000000401060010200000A80500202E
:109730004D0500204C050020010000000400100031
:109740001C040020620500206005002002000000CB
:10975000020E001040040020740500204C0400207C
:109760000300000000101100040400208E050020FA
:1097700088050020060000001708080C0A080020D1
:109780003040507001000000000020010100200165
:1097900000FF002001000000AC0500200060010176
:1097A00000010000000000000000000000000500B3
:1097B0004D49500000000000000400004407002054
:1097C0006C0700201C08002014090020100900204C
:1097D000FFFFFFFFFFFFFFFFFFFFFFFFFFFFFFFF99
:1097E000FFFFFFFFFFFFFFFFFFFFFFFFFFFFFFFF89
:1097F000FFFFFFFFFFFFFFFFFFFFFFFFFFFFFFFF79
:10980000FFFFFFFFFFFFFFFFFFFFFFFFFFFFFFFF68
:10981000FFFFFFFFFFFFFFFFFFFFFFFFFFFFFFFF58
:10982000FFFFFFFFFFFFFFFFFFFFFFFFFFFFFFFF48
:10983000FFFFFFFFFFFFFFFFFFFFFFFFFFFFFFFF38
:10984000FFFFFFFFFFFFFFFFFFFFFFFFFFFFFFFF28
:10985000FFFFFFFFFFFFFFFFFFFFFFFF320144019C
:109860004D344850435554320000000000000401BC
:1098700038B50420FCF7EBFB00F034FAFCF7DCF918
:10988000F9F790FDFDF756FA414BF030414C03607B
:10989000414B22681B6841485360D360404900F047
:1098A000B1F923683F4D1A68291C01321A603E48FD
:1098B00000F0A8F92368291C1A683C4801321A6094
:1098C00000F0A0F92368291C1A68394801321A608F
:1098D00000F098F9236837481A68374901321A604E
:1098E00000F090F9236835489A68354901329A604A
:1098F00000F088F9236833489A68334901329A6046
:1099000000F080F9236831489A68314901329A6041
:1099100000F078F923682F489A682F4901329A603D
:1099200000F070F923682D489A682D4901329A6039
:1099300000F068F923682B489A682B4901329A6035
:1099400000F060F9236829489A68294901329A6031
:1099500000F058F9236827489A68274901329A602D
:1099600000F050F9236825499A68254801329A6029
:1099700000F048F923689A6801329A60FDF7DAF935
:10998000204A031CE8331A601F4BEC30036038BDDB
:109990002D9B00009403002090120020ED1A00007F
:1099A000559C00005F9C0000511D0000C554000044
:1099B0009D1E00009D0C0000AD990000A512000046
:1099C000E9990000A90B0000BD9900005165000055
:1099D000F9990000E16E0000D59A0000F10C00003A
:1099E000F19A0000111A00001D9A0000B52D000028
:1099F000319A00001D240000E5990000E79900005D
:109A0000AD63000091A50000D1A70000024B1B68C8
:109A10001A68596806C37047CC050020084B10B57A
:109A20001B6800211A1C986879321478884204D186
:109A30001B690121323300DB011C2143117010BD71
:109A40003C0000207047704707B5002201AB1A8028
:109A50000198FAF7EDFC07BD08B5064B064A1B68EE
:109A60001268191CD86D44319268083300F074FCF8
:109A700008BDC0463C0000204000002008B5034B54
:109A80001B685869F8F71EF808BDC0464000002062
:109A9000F0B585B0F7F7A6F8071CFCF749FA234A9A
:109AA000041C234B1068C15CA1423CD0F9F78EFC2A
:109AB000051C061CDA35002C16D0002269463D2311
:109AC000101C8A8000920B71FCF7F6F9AA78032328
:109AD00050211A400A43AA701422EA70321CE5325F
:109AE00007211170E63616E002A93E23221C201C35
:109AF0008C8002940B71FCF7DFF9AA7803231340E2
:109B000068221343AB701C23EB70331CE5330F2228
:109B10001A70E63605233370044A01235B42FB804A
:109B2000034813681C5405B0F0BDC0463C0000203B
:109B30004703000008B5FCF7D5F8012805D0034B12
:109B40001B681869596900F0DBF808BD4000002067
:109B500038B5FDF7EFF8041C2C342378051CCA3502
:109B6000002B04D02B78002B01D1FDF76BFA2B785A
:109B7000002B08D02378002B05D1034B1B681869F4
:109B80005969FDF725FA38BD4000002038B5041C9E
:109B90000D1CFCF739F9002802D001280CD02EE06A
:109BA000174B34351B686D001B69EA5AFF23FE2AE8
:109BB00000D8D3B2637122E0114B2A1C1B683432E7
:109BC00018695200115AFF22FE2900D8CAB26271E8
:109BD0001969AD0049190B1C7F3300229A56013BCD
:109BE0001B787D205BB2D31A7C2208568A56821AD3
:109BF000934202DDA371E27101E0A271E37138BD0D
:109C00004000002038B5051C08200C1CFCF71FFA8A
:109C10000560446038BD38B5234D244C002810D071
:109C200028686279A379211C427183710B310B3052
:109C3000FFF7E0F92B68211C181C2F309A792F317F
:109C40000FE02868A2796379211C427183712F315A
:109C50000B30FFF7CFF92B68211C181C9A792F3095
:109C60000B31FFF7C7F92868F9F79EFBFFF76AF891
:109C70000F4B1B6803CBF9F71BFCF7F7F9FE00202D
:109C8000FAF7ECF9FAF750F9F6F764FF0020F8F765
:109C9000BBFEF9F79BFB43780020002B00D102208C
:109CA000F8F7ECFC38BDC0469803002010AC00006B
:109CB000CC05002008B50020FFF7ADFF08BD08B5B2
:109CC0000120FFF7A8FF08BD38B5041C081C002AB6
:109CD00007D0D118584362434D1010184019FFF7B0
:109CE00009F938BD08B57820FCF7B1F9034B00211C
:109CF00018607822FFF7C0F908BDC046B0120020F6
:109D0000F0B597B00C910490FDF702F8FDF70CF850
:109D10000690FCF7E3F9041CFDF70CF8B94B00259D
:109D20001B6807901B6A0595DBB2013BDBB2FF2B7A
:109D300010D0049E5A00B218111C683109888D4257
:109D400000DA0D1C54320027D25F059E9642ECDAF1
:109D50000592EAE7079B2279E033002A1BD0069A96
:109D600052321288954201DB01221A7014951B7839
:109D700012A9159300238B8001230B7002234B70D3
:109D80008B707C235B42CB700E20662314AA0B7170
:109D9000FCF792F804E0049F3A78002A00D11A7088
:109DA000079BE0331B78002B08D0002214A937232F
:109DB000101C8A8014920B71FCF77EF8914B1B6883
:109DC0001C6A013CE4B2FF2C62D0049F6600BE19FD
:109DD000371C543700203B5E002BF2D0069A311C12
:109DE00092696831089108880392111C069B069AB3
:109DF00030331C32FCF736F907990B1968339B781E
:109E0000002B05D0069A5BB247321278934227DCCA
:109E1000331C543300229B5E834211DB321C6832B8
:109E20001188069A543212786A439211914207DBE4
:109E3000069FBF6D3A1C059F7A4392119342C0DA88
:109E4000321C0023683213805436221C33802032A7
:109E5000079E049F920093513B78013B3B70B0E713
:109E600000217B5E64225343069A443212785043A9
:109E70008342A6DA089E0023221C338020323B80D6
:109E8000079F049E9200D3513378013B337098E7CB
:109E9000049F0C9C3B78237000233B70594B1B683C
:109EA0001B6A013BDFB2FF2F00D1B3E1049E7D00AE
:109EB0007619341C543408950020225E079D0B96B9
:109EC000E819002A00D16CE1683082780132D2B200
:109ED0008270069B52B247331B78991D8A4201DD7E
:109EE00004338370079E0224F31968331C57012C36
:109EF00000DC2DE1A01C0321FFF752F8424B0A9130
:109F0000022C10D10C227A431B689A180323013BC0
:109F100017D3049CB90061184D6858001552C96ADE
:109F20001018C180F3E71A6806237B430C9E089C37
:109F30000A9D311948885B195B009852C98AD31869
:109F4000D980079EF31968339B785BB2032B00DC42
:109F5000E8E00A9803210430FFF722F82A4E06238E
:109F60007B4334680A9D05945C19059D6400655F18
:109F700059180E95059D49004D5B0E9BAC46059DFD
:109F80002A190620155E04980D95059DBA006918DA
:109F9000C988851809916968EA6AC81A0D9B0F91EA
:109FA000C11740181092D21A4840D11752184A408F
:109FB0008018FF282ADC80225200A02300928021F2
:109FC0009B00FCF733F833680590E05E1C1906220D
:109FD000A35E696809930C1AEE6AE317099AE418FC
:109FE0005C40B31ADA179B185340E418059A231CF7
:109FF000FFF76AFE311C6860059A0998231CFFF779
:10A0000063FE6CE0CC050020B012002063460E9C7D
:10A0100018B2201A0321FEF76DFF099E0D9C33B282
:10A0200011900321E01AFEF765FF119E041C0E98A3
:10A0300032180F9EB21A0D9ED017A319109E121837
:10A04000F31A4240D8171B1843400026D31809962C
:10A05000802B01DD803B09930A9803210530FEF730
:10A060009FFF06267E430598761876008319062101
:10A07000585E10990A230D9A4B438018C000C018EF
:10A080001A21FEF737FF099A8023DB000019059992
:10A09000D4180D9060100A90705E0E9E0A238019ED
:10A0A0000F9EC00073431A21C018FEF723FF119EB4
:10A0B000099B80190F9E800273430A9EC018801965
:10A0C000211CFEF717FF0D9E6860099BB002109ED1
:10A0D000211C73430A9EC0188019FEF70BFF069BD4
:10A0E000E862503300201C5E0C9E089835180B9EC9
:10A0F0002A21685E54360022B15E431ADA179B1893
:10A100005340221CFFF7E0FD3080E88F0B9D221C9E
:10A1100068352988431ADE179B197340FFF7D4FD71
:10A12000288015E0049C0C9D089EBB00E318AA192A
:10A130000220115E5C68DE6A0919C80F41184910D7
:10A1400059601625525F9219D10F8A185210DA629F
:10A15000049CBA00A2180C9D089E5068AB19588048
:10A16000D26A079CDA820B9A0220543211885985F0
:10A170000B9968310988D987E319191C6831085689
:10A18000069947310978884203DC01214942118050
:10A1900003E0049D2A7801322A70703300221A717C
:10A1A00036E0069B011C6831022547334D571B786A
:10A1B0009D4226DD0C9E089D73192A269D5F002D69
:10A1C00026D0703005790135EDB2057106986DB273
:10A1D00048300078854201DD5A8518E0049D02264A
:10A1E000995FBA00AA1851601620195ED1625A8D83
:10A1F0002280DA8F0B9B68331A802B7801332B7007
:10A2000006E03B1C0C9C14335B00E3185A808A70F8
:10A210007B1E47E6079B0026B2331E704D4B1B6822
:10A220001C7C013CE4B2FF2C00D190E0079F65004C
:10A230007D192B1CB4331A88002A10D0291CC03178
:10A240000020095E12B2002902DC0699453101E0C6
:10A250000699463109788A4201DA00221A80079F5E
:10A2600019883A1900293FD0131CD03398797F28D8
:10A2700001D001309871D032927952B20492022A00
:10A2800011DD2B1CC0330022985E069A09B25032B1
:10A290000023D25E431ADF17DB197B40FFF714FD62
:10A2A0002B1CB43318802A1CB43213880699C0358D
:10A2B0002B8049310978049D8D4203DC01235B42E8
:10A2C00013800BE0079A1BB2B23211780131117082
:10A2D0009E4203DA079A1E1CB3321470079F0022B5
:10A2E0003B19D833DA709CE7101CD0300590062754
:10A2F000C757C035BC46069F49373F78BC4522DD6D
:10A300002F88002F8DD0D832D0789446421CD2B2FC
:10A310006046C27052B29446069A4A321278944508
:10A3200003DD059A298091717BE71F803FB2BE4211
:10A3300003DA079B3E1CB3331C70079BB2331A78B9
:10A3400001321A706DE7059B2980997169E717B092
:10A35000F0BDC046CC050020F0B5A3B003910D922E
:10A360001E1C0B90F9F726F8FCF7D2FCFBF7A4FEB5
:10A370000C90FCF7DFFCF6F73BFC0890FBF7AEFE19
:10A38000039D7F2200232A73AA73089F964A069092
:10A390006B73EB73B95C994200D115E14025372707
:10A3A0000493099305950797904B06991F680EAA89
:10A3B0007C680023600009180A911018221C023BD7
:10A3C000013A09D30A9DC118ED18AC466025AC448A
:10A3D00065462D888D80F2E70EAB1A89651E1A80BE
:10A3E000DA886D005A806200D15AA21C5200D15204
:10A3F000E95AE21C5200D1525D19013C1ED3069865
:10A400006300C318603328880A932B896A88C018B0
:10A41000EB880499D318099A484353430599C01807
:10A42000AB88079A4B43C01850433B688011990191
:10A43000FEF760FD0A99023D0880DEE7089D6A4F3D
:10A44000EB5D002B09D14B23FA2270686421009345
:10A450005200FBF7EBFD079001E02D250795634BBC
:10A46000069F1D680EA92C68002360003E18221C60
:10A470000818023B013A04D3F7183F8AC1188F80AD
:10A48000F7E70EAB1A89661E1A80DA8876005A80C2
:10A490006200D15AA21C5200D152F15AE21C520061
:10A4A000D1529E19271C013F1DD3069A7B00D31859
:10A4B0003088089333897288C018049B09995843DF
:10A4C000F388023ED3184B43059AC018F3885343D0
:10A4D000C018079B6A68584391018011FEF70AFD76
:10A4E000089B1882DFE700200790621E47D3069E74
:10A4F000510071186B680491013B3ED3A9685F1C41
:10A500006143BC4661440D9E4F00BF5F069E5900EB
:10A510007118603109880C9E7F1A0499098A089184
:10A52000791AB77BB94219DD039E0F27F7579F426F
:10A5300000DAF373039E0E27F7579F4200DDB373D3
:10A54000039E0D27F757974200DA7273039E0C277C
:10A55000F757974200DD3273013001E0002904DD36
:10A56000079F8F4202DA079100E00021AE680B9F3F
:10A5700066436644B600F151BEE7141CB5E7039E7E
:10A580000023706068460E9383872A68079F0EA990
:10A590000A70376039236E686B441E70AA683A27C8
:10A5A0006F447C233B203A7068440B9D5B42013230
:10A5B00003700FA9832392000B70AA1805200EA91F
:10A5C000FBF77AFC23B0F0BD50230093FA227068A9
:10A5D00064215200FBF72AFD1427049712250F2748
:10A5E000079009950597DFE646030000CC0500209B
:10A5F00030B500230C7D1A1CCD5CA54201D0013280
:10A60000D2B20133132BF7D1022A14D801230370DD
:10A610000B7D0622191C914301290CD1032B0CD070
:10A6200003D81420012B09D005E01620052B05D0F6
:10A630001720072B02D0002000E0152030BD021C9F
:10A64000F0B5161C00241236251C47780378FB1A37
:10A650005F1C03DB032B05DD083B03E01C1D00DA58
:10A66000083301240233022B00D901250130B04206
:10A67000EBD11678137D701E012801D9082E3FD129
:10A68000012D0BD1181F464270410001012D12D13E
:10A690000D78142D0FD9202528430CE08D7800204B
:10A6A000023DEDB20126AE424041C00103E04D78CB
:10A6B0004020052D28D9DD1E022D1BD9D27C023A5F
:10A6C000022A05D80A781A2A0FD9082210430CE06A
:10A6D000897802229143012907D1591E012904D802
:10A6E0000423012C0AD1104319E0072B17D1802332
:10A6F0005B0003E0052B12D180239B0018430EE082
:10A70000012DD4D10025BDE7032E06D0887802257F
:10A71000A843013845426841CDE70020CBE7F0BDB2
:10A72000414BF0B51A5C80001B18DF685600EDB095
:10A73000BB190593131C53430192059A5B00D31870
:10A740000D1C06930024B44212D02B78A200D3181B
:10A75000364A385B9B18069A5B00995A4042494238
:10A76000FDF7DCFF630020336A4698500234EAE7C5
:10A770000DAB0293019B01356CAA5B00049500921E
:10A7800007930024019B9C422FDA059A029E6700E2
:10A790000025D719143E0395398830684942002DA9
:10A7A00002D1FDF7BBFF05E0FDF7B8FF011C281C37
:10A7B000FDF7C6FF079B039AFF18019B0132051C9A
:10A7C000039204369A42E7DB049A1378E200D31826
:10A7D000164A9B18069A5B00995A4942FDF79EFF5C
:10A7E000029AA300D0500134CCE7049B029A0133B3
:10A7F0000493009B143202929A42C2D10020041C9E
:10A80000019B9C420DDAA30008AAD3187D33FF33C5
:10A81000002801D1186802E01968FDF791FF0134A2
:10A82000EEE76DB0F0BDC04624A80000FFFFFF7F3B
:10A83000F7B5061CFFF703FF104D0123019000241C
:10A840005F420123019AA34013402341012B01D011
:10A850002B1C07E0201C311CFFF762FF031C854204
:10A86000F6DA271C01340A2C01D01D1CE9E7044A42
:10A870000020934201DB781CC0B2FEBD806967FFF7
:10A880006135FFFF04040204050204040202000013
:10A8900034AB0000CCAA0000A0AA000038AA000037
:10A8A000ACA9000080A9000018A90000B0A8000011
:10A8B00084A8000058A800005900F0097500E008BD
:10A8C00019120B00B212B212B2124E12B212B2062A
:10A8D0001F01B212C212C212B2061F01C2123210FE
:10A8E000BE12C2125900F0097500E00819120B00DF
:10A8F0001F01B212B212B212B2124E12B212B2064C
:10A90000BE12C212C212C212B2061F01C21232100D
:10A910000300A51BA51BA51B9E00C8076A236A236D
:10A920000720A001640407202E212D2127018B057B
:10A930006F0612221122E50001005D1FF423F423AB
:10A94000F423F3230F22F423691E08200820082093
:10A95000E21CA201670408202F212F21F61EC70246
:10A96000C802D81C2F212F21E820AC030C02E91FBC
:10A97000122212221222122234B834B834B8010042
:10A98000E400A5BEA5BE7006C502C502FABAFABAB1
:10A99000C0BD8B052601C0BD86C086C05108880099
:10A9A0001ABDA5BEA5BEA5BEA5BE8BAFAA030B0250
:10A9B00001009338FABAFABAFABAFABAFABA3069AE
:10A9C000E1BBC502C502E4B779BDC0BDC0BDC0BD15
:10A9D000FEC0FEC0D1BF3E033E03C9086FBFFEC02C
:10A9E0000100CB1A62008E094E088900B900700D73
:10A9F0003F0C4C25902590259025EE091723790AC8
:10AA0000DF062A01F723F723F7231E2393129D1253
:10AA10009C129D12270020031F144C13A8149902A6
:10AA2000A211B706FC01C806E212B810D410650CDA
:10AA30005D00A811B107B7191018A800181AC0199D
:10AA40006D08C519C91A89001E1511150A122E00A4
:10AA5000731310151E151E1582136F1350133F002C
:10AA6000C7115D1282138213F811B6112B03F10284
:10AA7000E511E211F811F811271A4A01D8053E0D27
:10AA8000261A261A271A271A581B581B581B500E0D
:10AA9000C2018604581B581B7F2701009D279D2754
:10AAA0002D2A0100622A622A533001010406673010
:10AAB0000B2D492DA502E602A402DF24C72CE802D3
:10AAC000C602C5020C21622A622A622A622A5C2A14
:10AAD000112F94300100D330D330D330DB2FD3305B
:10AAE000492D492DD627492D492D492D2100CC0D21
:10AAF000E121C32C062D062D062D062D7A2B0100F3
:10AB00005900F0097500E00819120B00B212B206E4
:10AB10001F01B212B212B212B2124E12C21232108F
:10AB2000BE12C212C212C212B2061F010100B73514
:10AB30004337033702038C02EC3A443BB83A8B02AA
:10AB40001D04B808E538EA3835380100FD08AB23A4
:10AB5000FE3F7200943CEF1B3C015105943C943C39
:10AB6000283C5E280C3D39140600813B0C3D0C3D11
:10AB70000C3D633CEF38C7013F32EF38EF38EF3818
:10AB8000EF381904A5406709FB3F6640A540A54082
:10AB900038026D041200A310A51BA51BCD0A4900A5
:10ABA000DC1BDC1BE1202C017D051F21F323F3239B
:10ABB00089005008CC22CC22CC220100E01BE01BF3
:10ABC000E01BE01BD51BD00A4D00E01B20212021FB
:10ABD00020214A1F1A01C8051E162021F323E12057
:10ABE000ED03E2013323F323F323F3239E00C9078C
:10ABF00024216B236B236B236B236B23FFFFFFFF4E
:10AC0000FFFFFFFFFFFFFFFFFFFFFFFFFFFFFFFF54
:10AC1000FFFFFFFFFFFFFFFFFFFFFFFFFFFFFFFF44
:10AC2000FFFFFFFFFFFFFFFFFFFFFFFFFFFFFFFF34
:10AC3000FFFFFFFFFFFFFFFFFFFFFFFFFFFFFFFF24
:10AC4000FFFFFFFFFFFFFFFFFFFFFFFFFFFFFFFF14
:10AC5000FFFFFFFFFFFFFFFFFFFFFFFF44010401B6
:10AC60004D344850504154320000000000000401AF
:10AC70000A00000000121F0001000013141516172F
:10AC800018191A1B1C1D1E1F20212223240000003E
:10AC9000000000000000000000000000000000278D
:10ACA00028292A2B2C2D2E2F303132333504030244
:10ACB00005060708090A0B0C0D0E0F1011120000F3
:10ACC0000000000000000000000000000000000084
:10ACD0004B370000000000000000000000000000F2
:10ACE000050032320100FFFFFFFFFFFFFFFF000002
:10ACF0000A05FFFFFFFFFFFFFFFFFFFF00056400E6
:10AD0000010A011238040000800700000100000061
:10AD100001000000010000000100000064646464A0
:10AD20000101C302E9040000010000000A00000064
:10AD30000000000000000000000000000000000013
:10AD40000000000000000000000000000000000003
:10AD500000000000000000000000000000000000F3
:10AD600000000000000000000000000000000000E3
:10AD7000000000000000009E000F00000000000026
:10AD800000000000000000000000000000000000C3
:10AD900000000000000000000000000000F00000C3
:10ADA00000000000000000000000000000000000A3
:10ADB0000000000000000000000000AB000F0000D9
:10ADC0000000000000000000000000000000000083
:10ADD0000000000000000000000000000000000073
:10ADE00000F0000000000000000000000000000073
:10ADF0000000000000000000000000000000000053
:10AE00000000000000000000000000037B1E0000A6
:10AE1000000000003F1D063F1D003F1D00D1000047
:10AE2000710A48F61F00000000000000000000004A
:10AE30000000000000000000000000000000000012
:10AE40000000000000000000000000000000000002
:10AE500000000000000000000000000000000000F2
:10AE600000000000000000000000000000000000E2
:10AE700000000000010000BF000A00000000000008
:10AE800000000000000000000000000000000000C2
:10AE900000000000000000000000000000F00000C2
:10AEA00000000000000000000000000000000000A2
:10AEB0000000000000000000000000BF00090000CA
:10AEC0000000000000000000000000000000000082
:10AED0000000000000000000000000000000000072
:10AEE00000F0000000000000000000000000000072
:10AEF0000000000000000000000000000000009EB4
:10AF0000000F000000000000000000000000000032
:10AF10000000000000000000000000000000000031
:10AF20000000000000F00000000000000000000031
:10AF30000000000000000000000000000000000011
:10AF40000000030000000001E1A100000000000378
:10AF50007B1E090000090303200C043F1D003F1D58
:10AF600007D10000710A48F61F0000000000000031
:10AF700000000000000000000000000000000000D1
:10AF800000000000000000000000000000000000C1
:10AF90000007060605050404040303030202020277
:10AFA0000202010101010101010101010101010090
:10AFB0000000000000000000100F3C641E00FFFFB6
:10AFC0001400000007000000FF7F0080FF7F00806A
:10AFD0000A0A0003000000005A0308000080070767
:10AFE0000F0A0FF14000000020032001B0040F0FF2
:10AFF000B003520326025E01300000003200000060
:10B000000400000000005D0074009C0000000000CF
:10B0100000000000000000001400140014001400E0
:10B020000000000000000000000000004B1E0F02A6
:10B0300001020200F40100000000FFFF0700000011
:10B040000F00000001010000000000AA000F000036
:10B0500000000000000000000000000000000000F0
:10B0600000000000000000000000000000000000E0
:10B0700000F00000000000000000000000000000E0
:10B08000000000000000000000000000000000AA16
:10B09000000F0000000000000000000000000000A1
:10B0A00000000000000000000000000000000000A0
:10B0B0000000000000F000000000000000000000A0
:10B0C0000000000000000000000000000000000080
:10B0D000000000A2000300000000000000000000CB
:10B0E0000000000000000000000000000000000060
:10B0F000000000000000000000F000000000000060
:10B10000000000000000000000000000000000003F
:10B1100000000000000000000000000393C90100CF
:10B120000000000353140800000903033F1D063FFD
:10B130001D00230F05D10000710A48F61F00000012
:10B1400000000000000000000000000000000000FF
:10B1500000000000000000000000000000000000EF
:10B1600000000000000000000000000000000000DF
:10B1700000000000000000000000000000000000CF
:10B18000000000000000000000000000100F3C6400
:10B190001E00FFFF1400000007000000FF7F00807A
:10B1A000FF7F00800A0A0003000000005A030A0023
:10B1B00000800A0A1E0A0FF140000000200320014F
:10B1C000B0040F0FB003520326025E0130000000EE
:10B1D000320000000400000000005D0074009C00CC
:10B1E0000000000000000000000000001400140037
:10B1F0008000DA00000000000000000000000000F5
:10B200004B28190201020200F40100003200FFFF86
:10B21000070000000F00000001010000000000BF57
:10B22000000F00000000000000000000000000000F
:10B23000000000000000000000000000000000000E
:10B240000000000000F0000000000000000000000E
:10B2500000000000000000000000000000000000EE
:10B26000000000BF000D0000000000000000000012
:10B2700000000000000000000000000000000000CE
:10B28000000000000000000000F0000000000000CE
:10B2900000000000000000000000000000000000AE
:10B2A000000000000000009E000F000000000000F1
:10B2B000000000000000000000000000000000008E
:10B2C00000000000000000000000000000F000008E
:10B2D000000000000000000000000000000000006E
:10B2E000000000000000000000000300000000015A
:10B2F000E1A10000000000036B1C0800000903032B
:10B30000380F053F1D00230F05D10000710A48F6D4
:10B310001F000000000708090A0B0C0D0E0F10118A
:10B3200012131415160000000000000000000000B9
:10B33000000000000000000000000000000000000D
:10B3400000000000000000000000000000000000FD
:10B3500000000000000000000000000000000000ED
:10B36000100F3C641E00FFFF1400000007000000E7
:10B37000FF7F0080FF7F00800A0A000300000000BA
:10B380005A030800008007070F0A0FF14000000071
:10B3900020032001B0040F0FB003520326025E0108
:10B3A00030000000320000000400000000005D00DA
:10B3B00074009C000000000000000000000000007D
:10B3C000140014008000DA000000000000000000FB
:10B3D000000000004B1E0F0201020200F4010000F9
:10B3E0000000FFFF070000000F0000000101000047
:10B3F000000000BF000F000000000000000000007F
:10B40000000000000000000000000000000000003C
:10B41000000000000000000000F00000000000003C
:10B42000000000000000000000000000000000001C
:10B4300000000000000000BF000D00000000000040
:10B4400000000000000000000000000000000000FC
:10B4500000000000000000000000000000F00000FC
:10B4600000000000000000000000000000000000DC
:10B4700000000000000000000000009E000F00001F
:10B4800000000000000000000000000000000000BC
:10B4900000000000000000000000000000000000AC
:10B4A00000F00000000000000000000000000000AC
:10B4B0000000000000000000000000000000030089
:10B4C00000000001E1A10000000000036B1C080067
:10B4D00000090303380F053F1D00230F05D10000AD
:10B4E000710A48F61F000000000708090A0B0C0D3E
:10B4F0000E0F1011121314151600000000000000AA
:10B50000000000000000000000000000000000003B
:10B51000000000000000000000000000000000002B
:10B52000000000000000000000000000000000001B
:10B5300000000000100F3C641E00FFFF140000001C
:10B5400007000000FF7F0080FF7F00800A0A0003E1
:10B55000000000005A030800008007070F0A0FF1DF
:10B560004000000020032001B0040F0FB00352037D
:10B5700026025E01300000003200000004000000DE
:10B5800000005D0074009C0000000000000000004E
:10B5900000000000140014008000DA000000000029
:10B5A00000000000000000004B1E0F02010202001C
:10B5B000F40100000000FFFF070000000F00000082
:10B5C0000101000005050505050506060606060637
:10B5D000060606060606050506060606060606060D
:10B5E00006060606060606060505060606060606FD
:10B5F00006060606060606060606060606060606EB
:10B6000006060607070707070606070706060606D3
:10B6100006060606070707070706060606070606C4
:10B6200006060606070707070707070707070707AE
:10B6300006060606060607070707070707070707A0
:10B64000070706060707070707070707070707078C
:10B65000070707070607070707070707070707077B
:10B66000070707070707060707070707070707076B
:10B67000070707070707070707070707070707075A
:10B68000070707070707070707070707070707074A
:10B69000070707070707070707070707070707073A
:10B6A000070707070707070707070707070707072A
:10B6B000070707070707070707070707070707071A
:10B6C000070707070707070707070707070707070A
:10B6D00007070707070707070707070707070707FA
:10B6E00007070707070707070707070707080707E9
:10B6F00007070707070707070707070707070707DA
:10B7000007070707070707070607070707070707CA
:10B7100007070707070707070707070707070707B9
:10B7200007070707070707070707070707070707A9
:10B730000707070707070707070707070707070799
:10B740000707070707070707070707070707070789
:10B750000707070707070707070707070707070779
:10B760000707070707070707070707070707070769
:10B770000707070707070707070707070707070759
:10B780000707070707070707070707070707070749
:10B790000707070707070707070707070707070739
:10B7A000070707070707070707070707070607072A
:10B7B0000707070707070707070707070707070719
:10B7C0000707070707070707070707070707080708
:10B7D00007070707070707070707070707070707F9
:10B7E00007070707070707070707070707070707E9
:10B7F000070700000000000000000000000000003B
:10B800000000000000000000000000000000000038
:10B810000000000000000000000000000000000028
:10B820000000000000000000000000000000000018
:10B830000000000000000000000000000000000008
:10BD40000000000000000000000000000000FFFFF5
:10BD5000FFFFFFFFFFFFFFFFFFFFFFFFFFFFFFFFF3
:10BD6000FFFFFFFFFFFFFFFFFFFFFFFFFFFFFFFFE3
:10BD7000FFFFFFFFFFFFFFFFFFFFFFFFFFFFFFFFD3
:10BD8000FFFFFFFFFFFFFFFFFFFFFFFFFFFFFFFFC3
:10C0500019031520B3A70A5502AF000044010401DB
:00000001FF
