:100000004D424E014D3448305201040001000000C1
:100010006000000000C000000000000000000000C0
:100020000000360100000000000000000004000095
:1000300001005201010025000004000000940000AE
:100040000200050126002C0000980000001C0000A2
:10005000030005012D002F0000B40000000C00007B
:10006000001C00203502000000000000000000001D
:100070000000000000000000000000000000000080
:100080000000000000000000000000000000000070
:10009000000000000000000000000000550000000B
:1000A0005700000051010000790000008D000000A1
:1000B00000000000FEE708B5044B01221A70044B53
:1000C0000022DA77034B1B68984708BD0000002028
:1000D0000800005034000020034B01225A70A02376
:1000E0000022DB051A70704700000020034B01223C
:1000F0009A70A0230022DB059A7070470000002050
:100100008D23013B002B01D0C046FAE7044B10229F
:100110001B78DBB21807C00F134018437047C04666
:100120002B0000500F4BF7B518261E700E4BA02762
:100130001E70FFF7E5FFFF050B4B01AC00252C37C8
:1001400060701D703E70FFF7DBFF064B20703D7046
:100150001D7023786278181C504040001340034300
:10016000D8B2FEBD2A0000502D00005000230360CD
:1001700030B50B601312012B13D10423013B10D3B4
:10018000084DD4B25D5D641BF8D4074A9D00126827
:10019000AA58002A05D012190260044AD35C1C1B1D
:1001A0000C6030BDE0030000DC030000E40300004D
:1001B00070B58022D2051379DBB2002B19D12B4CFC
:1001C0006360A3602A4B1289261C251C1B6892B20F
:1001D00010361435E260301C291C002B06D09847DD
:1001E0002169002937D1E268301C291CFFF7BEFFC6
:1001F00031E0012B0CD11D4B186900282BD09968D8
:100200005C69A14227DA4C1C9C60137A435422E0BB
:10021000022B1BD1154C2369002B12D06068616939
:1002200088420EDA1B5C1BBAD360124B1B68002B92
:1002300003D0E268101880B29847636801336360A6
:1002400009E080230022DB05DA6004E0032B02D101
:10025000064B00229A60C0468023DB0501221A70FB
:10026000C04602221A7000221A7070BD00000020E1
:100270003C0000203800002080230222DB05FF32F2
:100280001A600421024AFF31118000221A7070475F
:1002900006000040F0B5A023DB059B68524A1F21F1
:1002A0008DB0DBB21160D12B0BD0D02B01D8013334
:1002B000DBB2A022D2059168FF20814319439160EF
:1002C000F1E74A4B4A4A191D043B934203D20022EC
:1002D0001A600B1CF6E7FFF7CFFF464A8023DB02CC
:1002E0001A80454A0027093A92B25A809F80C04638
:1002F000424ADE88424D10685268424C0A922A886F
:1003000009ABB6B21A8123625E810990FFF70AFF3A
:100310003D4B34211A7803AB1A704D225A709970F4
:100320005A7148214522D9709A7130219B22197146
:10033000D8716362520005AB0597A3611A8007ABC1
:1003400001220797E3615A70304B0697DA89304BE8
:1003500008975F882F4B211C1B8828310B70211CAC
:100360001B0A29310B702C4901235B420B702B486F
:100370002B4903700B702B48211C2E312F34037036
:100380000B7023702B889E4229D1274B9A4226D08E
:10039000BA4224D1254EF7899F4220D0F689B4462F
:1003A000234E7788BC451AD1224FF889984216D03F
:1003B000FF89EB889F4212D1174B18481A70120A16
:1003C00073880270164A9BB2164813701B0A03709A
:1003D000EB889BB20B701B0A237000F049F8164B98
:1003E00002221A6062B6FEE72800005004000020D6
:1003F000400000200004000000C00000F0BF00002A
:10040000F8BF00000000002047000050000400007A
:10041000FC970000FE0300002A0000202B000020B3
:100420002C0000202D000020FFFF0000009800009D
:10043000FCB3000000B4000000E100E01800002060
:100440002030407008080C08FFFFFFFFFFFFFFFF90
:10045000FFFFFFFFFFFFFFFFFFFFFFFFFFFF360173
:100460004D344830434F5432000000000000520128
:10047000F0B5D5B002AF03F0BFFD05F0F1FAF862B8
:1004800008F0E8FD08F01AFE09F0F2F900F06EFE3F
:10049000D54AD64B1A60D64AD64B1A60D64AD74BA5
:1004A0001A6005F0DDFA7863052800D113E316D849
:1004B000022800D1BEE207D8002827D0012800D1A9
:1004C000ABE27C6BFC62ECE77D6B032D00D1F4E2C8
:1004D000042DF6D105F04AFB02F00EFBF6E27E6B2E
:1004E000092E00D114E307D8072E00D1FCE2082E14
:1004F000E7D105F03BFB01E37C6B0A2C00D123E341
:100500000B2CDED105F032FB00F0F6FB05F0BEFA55
:10051000041E1AD00128D4D1B94B02221B68391C01
:100520001E6A1D69BE617E6B1A621E6168313F23BF
:10053000301C321C8E80BE667D610B7105F096FB0F
:100540007E627E6BFC63BE63AFE00124012C02D0AF
:10055000022C0AD092E0002001F0E2FF03F06EF9D5
:10056000C0B205F0D1FB01F0C1FFA54B6E461B6880
:100570003E6358681C681B694443E3189B000A33B8
:10058000DB08DB00F11A7E1DFF368D46301C002192
:10059000142208F0E1FE962040003B1C8C21B4336D
:1005A0003A1849005A607A189A60391C283ADE6075
:1005B0001A61A831143A934E4A60143A8A6032683C
:1005C00002AD5361904BA4001B682C19BC635460AE
:1005D000916115602D331A786C465200131C083354
:1005E000DB08DB00E41AA54602AC0021201CFC63FA
:1005F00008F0B2FE05F03AFC2A1C4178BB6B0020E3
:1006000000F0A0FEFC6A002C01D005F0AFFA7F4B91
:1006100000221B689A6005F071FB041C03F00EF9C0
:10062000A04204D0201C03F00EF902241DE0FC6B54
:100630003A1C00943B1CB96BB432A833281C01F05F
:1006400053FC724B724A1B68041C9968914202D099
:100650009A6801329A60002807D105F017FA00283D
:1006600003D105F0FDF90028D5D0326800231360CE
:100670005360536193613D6BFB62AD4605F006FA32
:10068000002800D01DE705F0EBF9002800D15DE758
:1006900017E7022C0ED005F0F9F9012800D0B5E1DA
:1006A00005F0DEF9002800D0B0E1FC6B012CF0D1A0
:1006B00001F01CFF524D6E462B683E611C68586865
:1006C0001B694443E3189B000A33DB08DB00F11A83
:1006D0008D4602AE3E6302F0F1FC8C2040003A1CD5
:1006E0003B1860325A60043A9A60043ADA60391C66
:1006F000043A1A61F031043A4A60043A8A602A687E
:100700006D4690695269A400424392000A32D208B1
:10071000D200AD1AAD4602ADFD61AAB07D1D02A8A2
:10072000FF352860AAB0842002AA4000C251354A91
:100730003D6B12682C190026546053619161BE65AF
:100740001560BC6205F092FB041C03F0A7FF617802
:1007500005203A6BBB6A00F0F5FD04F01FFB2B4B44
:10076000F8691B68596900F0FFFBFC6AB44201D0CC
:1007700005F0FCF90020391C7031A223021C8E8088
:100780003E670B7105F072FA204B1B689E600026D5
:100790006C46FC6005F0B2FA96210024A8254900B9
:1007A0003B1CEC5148337D18391C1C80AB61DC319B
:1007B000144B69601439A9601B6820393A1CB432A3
:1007C000E9604439146054606A6129611D61F8620E
:1007D0007C6603F033F8FA6A90421BD0101C0224A6
:1007E00003F031F8FC63F2E0CD5C00003C00002037
:1007F000495D000038000020E110000034000020B6
:100800001003002044000020E80A002040000020DF
:10081000FFFFFF7F002E75D1C64B68461B68B8608E
:100820009A6951005A6901324A43131C0833DB08A4
:10083000DB00C51AAD4602AD281C311C3D6208F034
:100840008BFDB86BBC4D082808D104F0A7FA2B68C3
:10085000F869596900F088FBBE6350E0042003F09A
:10086000BFF92B68386A5969FA6905F03FFF051E20
:10087000012D11D103F012FF052003F0B1F9391C4D
:100880007831A323301C321C8E80BE670B712E1C66
:1008900005F0ECF9BC6332E0A84CF8692368396ACA
:1008A00039331A7805F0FAFF23687D6A39331B78EB
:1008B0005B009D420ADD03F0F1FE052001213A6B49
:1008C000BB6A00F03FFD04F069FA7E627D6A23682E
:1008D000013538337D62187802F0B5FF02F0CAFFA7
:1008E000236800243933187802F0A0FD002002F0BC
:1008F000D5FDF86A02F0A7FF02F0E0FFFC63BD68D7
:10090000AD465BE08D4B8C261B6876003A33187839
:10091000894B1B68186002F089FD052003F038F947
:100920003B1CF0330093386BBB19B96A2A1C00F0EA
:10093000E7FF0126F863002840D1781DFF30B96B2E
:1009400007F074FDB863032804D0072800D0D9E16C
:10095000182505E0781DFF3008F0AAF8051E28D0FC
:1009600005F0A2F801266B1E321C9A401040D840B8
:1009700000D1C7E102214420C155381C4522443032
:100980000024D55504F0F8FF03F0F6F8301C02F00F
:1009900042FD201C05F082F8391C88310E23201CF2
:1009A000221C8C800C600B7105F060F903F076FE60
:1009B00004E003F0E1F802F0BFFF01265E4B604A5D
:1009C0001B689968914202D09A6801329A605D4C26
:1009D000002223681A61FD68AD46FD6B954208D17F
:1009E00005F054F8012804D105F03AF8002800D1A8
:1009F000CEE603F053FE22680023136053601361B8
:100A0000536193613E69FB62B54644E6494BBC695C
:100A10001B687D691C621D6153E505F0A7F805F0B0
:100A20001FF80128FBD008F0F3FA00F09FFB04F058
:100A30001BFE46E502F024FB00F0FAFE08F0E8FA9F
:100A40003C4B1B6803CB02F0C7FB3E4B1B6858694D
:100A500000F01AFF04F04AFF002003F095F903F0BC
:100A6000FBF800F06BF901F041FD05F07FF805F0AF
:100A700097F8032812D006D801280CD0022815D1E7
:100A800002F01AF912E005280ED00AD306280DD17B
:100A900002F09EFC0AE002F04BF807E002F0A4F935
:100AA00004E004F00DFC01E002F080FC04F0D8FF4B
:100AB0000228DCD000F0CEFE03E505F057F801F087
:100AC00015FD04F0CDFF0328FBD0FAE404F0C8FFC5
:100AD0000428FBD0F5E405F049F803F0C1FA04F06E
:100AE000BFFF0528FBD0ECE405F040F8012001F041
:100AF00017FD04F0B5FF0728FBD0E2E4002003F067
:100B00006FF803F04FF904F0ABFF0828F6D0D8E4F3
:100B100005F02CF8002002F052FB002003F060F8F2
:100B200003F040F904F09CFF0928F6D0012002F000
:100B300046FBC6E41003002040000020E80A002025
:100B4000FFFFFF7F440000206C4600207C6208F01D
:100B5000E7FA08F0B3FA002003F016F9754C68467E
:100B600023685E681D681B697543EB180733DB0853
:100B7000DB00C01A8546FD6302ADBD6302F080FA5A
:100B8000051C02F095FA061C02F086FA2468F86249
:100B9000311CE268B86B08F09DFBF96BB86BBA22A8
:100BA000FF324018B1182269386308F093FBAB7923
:100BB000013B0FD36A79013AFAD36979BE6B594385
:100BC00089187118FE6AF0186430067808783018B1
:100BD0000870F0E7EB79013B0AD3BD6BFE6BAA19F5
:100BE000FD6AE9187C310878D15C4118D154F2E7EC
:100BF000626823696E46D3189B000A33DB08DB006A
:100C0000F61AB54602ACFC6304F0B0FF494C391C3F
:100C1000236890311D681A790D704A708A705A1DC8
:100C2000D27F1B69BE6BCA700B71002201234B710E
:100C30000420131C009604F0DFFF396BB86B04F03E
:100C40005DFA002002F0CCFF23683B4958680E682B
:100C5000B8620022B86A824206DAB069940000598C
:100C6000FD6B01322851F5E7FC6B8200A4181D6969
:100C70000E68A4460022AA4206DA346A910064583B
:100C8000604644500132F6E71A68391C98310A7000
:100C9000BC6A9A684C708A700533DB7F0132CB7076
:100CA000254B92001B6804245B690D719A184C71E6
:100CB00000920022131C022004F09EFF391CA03178
:100CC00001230B701B4BFD6B1B6805201A794A70C2
:100CD0008A705A1DD27F1B69CA7000220B714C7139
:100CE000131C009504F088FF04F0BAFE0A288DD08A
:100CF0007E6AB546FFF7E5FB04F0B2FE0B28FBD099
:100D0000FFF7DFFBBC6B082C00D052E602F034FF8B
:100D1000012002F080FB0024391C8031A223201C1A
:100D2000221C8C800C600B71261C04F09FFF04F0C9
:100D300035F843E61003002040000020F8B5184DB8
:100D40007146281C764603F095FA164C276802F087
:100D500009FE7862276802F009FEB862276802F08F
:100D600009FE7861276802F009FEF861276802F041
:100D700051FEB861276802F061FE0B4B0B491B68FE
:100D8000096838621878097C22684143023311618E
:100D9000E432281C311C136003F084FAF8BDC0460D
:100DA000DD0C000040000020EC0A0020E80A0020D2
:100DB000014B18607047C046E80A0020014B1868D4
:100DC0007047C046E80A0020014B18607047C046D3
:100DD000EC0A0020014B18687047C046EC0A00205E
:100DE000014B18687047C04640000020014B58680E
:100DF0007047C0464000002082B0F0B589B0109C1A
:100E0000151C0F930693029407900E1C119C02F080
:100E100037F947793A4B04978279964206D11B6895
:100E20000021DA69AB00D05A03910BE01A68354B08
:100E300052691968731C896803964B43EB18013398
:100E40009B00D05A0499714349194A00A418238879
:100E5000069E0193019F7318874203D8C61B029F09
:100E6000BE521CE0029EB61805960027F65F0136BA
:100E700010D01F787EB2B446013601DA013703E0A4
:100E80006646002E06DD013F1F7002235B42238071
:100E900001202FE0069F79180F78002F01D12080C4
:100EA0000CE07FB27C1C05D1019E059F301A388072
:100EB000002002E0012F01D1FF2008701978039C67
:100EC000049E079F48B274437D19002805DC029EEA
:100ED000B25E013208D0002906D12A5700203E2AEE
:100EE00008DC0131197005E02A57002A01DD0139BB
:100EF0001970002009B0F0BC08BC02B01847C04609
:100F0000400000201003002070B5154C7146201CD5
:100F1000754603F0AFF9134B00221B68191C88318A
:100F20000A601E1C01219C364942181C3160B260C7
:100F30000830083EF18232607283C26790300160EF
:100F4000826008380183191CAC31026004330A80C6
:100F500020390A60201C291CDA6703F0A3F970BD50
:100F6000A90E000040000020F0B5754685B003953D
:100F7000294D01900F1C281C714603F07BF9274B6B
:100F800000211B680198DA69920008F0E5F904F085
:100F90006DFF02904478214D002C21D0042002F0F6
:100FA0001FFE28684269561E009617D38369009970
:100FB000019E5943C918890071180439013B0BD3AC
:100FC000866856439E190136B600F5590E68AC4640
:100FD000B44465460D60F0E7009AE4E7013CDAE7C7
:100FE0002F687D69013D11D3BC69019A261C6E43AF
:100FF0003619B6009619043E013CF3D3029B3068C3
:10100000597808F099F800043060F4E70248039931
:1010100003F048F905B0F0BD090F000010030020EF
:1010200038B5114C7146201C754603F023F90F4B5F
:10103000201C1B68DA6A002A02DD596BCA420BD4F5
:101040000B4A11680B4A2C3112680C783432117833
:1010500000228C42524100E001227433291C1A7094
:1010600003F020F938BDC046C10F00004000002049
:1010700044000020E80A0020F0B52E4F72468BB0E5
:101080007146381C019203F0F5F82B4D2B681A1CA1
:10109000CC321178583A002904D1191CB0310978A2
:1010A000002901D0002111701478002C25D0996FEF
:1010B000002407915A6B03A90892DB6A07AA0993D7
:1010C00003234B708B707C235B42CB700126102373
:1010D000201C8C800E700B7104F0C8FD2B689A6F79
:1010E000D96F8A4202DC92199A671CE09C67134B05
:1010F0001B682C331C70341C15E05A6B05A9079231
:10110000DB6A0920089301230B7002234B708B705C
:101110007C235B42CB7007AA64238C800B7104F0A4
:10112000A5FD2B689C67381C019903F0BBF8201CB7
:101130000BB0F0BD1910000040000020440000205A
:1011400038B5094C7146201C754603F093F804F03D
:101150009DFC002802D1022002F01AFD291C201C4F
:1011600003F0A0F838BDC046E110000037B5114CBF
:101170007146201C754603F07DF805F009FC02F06D
:10118000A1FD021E07D16946A923888000900B713A
:1011900004F06CFDFEE7084B1B6803CB02F01CF863
:1011A00005F00EFCFFF7CAFD291C201C03F07AF89D
:1011B00037BDC0460D11000010030020F0B587B008
:1011C00000AF7546786039615C487146FD6003F098
:1011D00051F802F0A1FF83000A33DB08DB006E4602
:1011E000F61AB546041C684602F09CFF63000833FB
:1011F000DB08DB00F61A301C6D46B546BE6002F017
:10120000ABFF4F4B1B68191C88310868632807DD4A
:101210000120002240420A604861CA61191DCA6764
:101220001A1C88321068191C013008311060CA6F0E
:10123000632A09DD00220120CA67404290318A609A
:1012400008601A1D0121D1671A1C0832D16F0131C3
:10125000D167191C94310E68012E07DD0120002290
:1012600040420A60C8824A8308390A601A1C9432D4
:10127000116801311160191C90310868012809DDDD
:10128000002201200A608A8340421A1C08838C32A3
:10129000012111601A1C9032116801311160002285
:1012A000101C013C08D3A1006958BE6840186100B9
:1012B000715A521892B2F4E7191CAA310024A426DC
:1012C0001D19B446AC447D6165462D68854201D246
:1012D000664630607E699C363568854200D930604C
:1012E0008E88964200D28A800E88964200D90A8063
:1012F000043C261C02390836E1D11A1DD26F7D68E4
:1013000092009A18111CA0319832096812683E693F
:101310008A1A2A801A1C8C321268084852009B18BC
:101320001A1CAC32A83312881B88F968D31A338090
:1013300002F0B8FFBD4607B0F0BDC0465D11000029
:1013400040000020F0B5284E85B075460191041C80
:101350007146301C1F1C0395009202F08BFF234D39
:1013600000212B680098DA68920007F0F5FF2B68DF
:10137000381C1A690021920007F0EEFF019D002D34
:101380000CD0201C02F02CFC194B00981B68391C57
:101390005A69DB6905F070F9013DF0E7002C0FD1C7
:1013A000134B1B685D699E69029502F0CAFA051C21
:1013B00002F0D0FA311C031C2A1C029804F06EFDC6
:1013C0000098391C019A04F0D1FE002C06D1084B7C
:1013D000201C1D6802F0D4FDE835286002480399FE
:1013E00002F060FF05B0F0BDE51200001003002020
:1013F00040000020F0B597B004AF7546B861796140
:10140000B5487146FD6002F035FF04F02FFDB34D85
:1014100038612A686846136892689E1C52005643D9
:1014200001335208311C53430831C908C900401A1E
:101430008546013304A95B00A94CCB18BE62A94EB6
:101440003B62FA6133683A6A20689960DA607962CF
:101450003C2200212C3007F07FFF0021BA6A786A15
:1014600007F07AFF2B6868461D68B86004356D0088
:101470002A1C0832D208D200811A8D4604AABA6208
:101480005A6804325200131C0833DB08DB00C91A07
:101490008D4604AB181C0021FB6207F05DFF2A1C7F
:1014A0000021B86A07F058FF2368BD695A69191C02
:1014B0009B690095B86A2C3104300190F86A0430B9
:1014C0000290786A04F0F4FE3D697860236832681F
:1014D0002D7B586992680095BD6A191C0195FD6ABB
:1014E000683102952C3307F059FBBD682368AD467F
:1014F0007D69DA69191C1B6A00952C31386A05F080
:1015000021F87D680543EDB2BD6204F0C1FC0079AD
:10151000012806D133685B691B78002B01D101F0EB
:101520007AFF2568281C291C68312C3004F086FEBF
:101530006D4A23681268E8660C20115E9D6D8D422D
:101540000EDC0E20115EDD6D8D4209DB1020115E78
:101550001D6E8D4204DC1220125E5B6E934222DA15
:1015600000234021CB53CA190123137004F0AAFAB7
:10157000002818D104F00AF9002814D0584B1A6832
:10158000FF239168FE2901DC9368DBB2381C02213D
:1015900041254030EB5504F0EFF9544802F0BEFE0F
:1015A00001F036FEE2E74D4E3020336831221968F3
:1015B0000224C15558683221D0559A6880235B4275
:1015C000234333200025CA55C35534215323BD86F8
:1015D0000132CB557B6A5200391C9A1801203031F8
:1015E00004F044FB32680121137C3820C1553920B6
:1015F0003A21C355CB5580235B4223433B22D3552D
:101600003C206D23391CBD873831C3553A6A01200F
:1016100004F02CFB336840211A684120CA555968F0
:101620004222C15598684321D0555A1DD27F45208A
:10163000CA551B694422D355C35D7F229343802141
:10164000494223430B43C2191370FB69786A013383
:101650005B00C318391C012040312A1C00932B1C4D
:1016600004F0CAFAFFF7DCFCFFF706FDA84226D11A
:101670001B4C2368586902F0FFFB2368D86E02F008
:10168000D7FA02F0BBF8BD6A002D0DD12368796A44
:101690001A1C2C321B68B86904F07CFC236878693A
:1016A0001A68396A04F0D2FC022001F0F7FE386AA9
:1016B00005F042FA20680024703006F09BFC094BCC
:1016C00000221B6804489A60DA60F96802F0EAFDBB
:1016D000201CBD4613B0F0BD951300001003002080
:1016E0004000002044000020EC0A002010270000E9
:1016F000F0B595B002AF7446061C79624A4871464F
:101700003A627C6002F0B6FD04F0C2FBF86005F0BE
:1017100051F96C4692B03C6002AC92B0FC6102ACF4
:101720008AB0BC6102AC90B07C6102AC8AB002AD00
:10173000B86088B000214022F8693C6107F00CFED7
:1017400000214022B86907F007FE002120227869B5
:1017500007F002FE00214022386907F0FDFD02ACCF
:10176000281C0021202207F0F7FD201C0021202248
:1017700007F0F2FDFA69BB6992B03A637A697B635C
:101780003D643B6902ADBA6300214022281CFB6323
:101790007C6407F0E1FD254C381C22682C30516A2E
:1017A000936A683200922A1C06F046FC23687A6A23
:1017B000381C596A2C309B6A00922A1C05F092FF53
:1017C000381C2C30311C7A6A3B6A06F0CFF923684A
:1017D000301C596A9A6A06F0DFFA796A301C06F002
:1017E000B1FB301C05F030FB3C68301CA546796A23
:1017F0003A6A05F0CFF9BB680B4CE2331B78002B3B
:101800000AD1FA681379002B06D004F03FF90128B9
:1018100002D0012001F0FFFD201C796802F042FD9A
:10182000BD4613B0F0BDC046911600004000002038
:1018300038B5074C7146201C754602F01BFD07F0B9
:10184000B9FB01F023FC291C201C02F02BFD38BD44
:10185000D117000038B50B4C7146201C754602F0BC
:1018600009FD07F063FC07F0ADFB01F00FFC002061
:1018700002F08AFA01F0ACFD291C201C02F012FDD6
:1018800038BDC046F5170000F0B51C4CB5B0734626
:10189000714600900AAF201C1425019305AE02F09A
:1018A000E9FC2A1C381C002107F056FD2A1C301CBC
:1018B00016AD002107F050FD281C0021282207F05A
:1018C0004BFD02A800210A2207F046FD2AAB02AA1E
:1018D00000990FA8109320AB1193159212971396AD
:1018E000149505F0A5F905F0D7F90FA805F04CFB04
:1018F000201C019902F0D6FC35B0F0BD291800007B
:10190000F7B5754601950F4D0E1C071C7146281C36
:1019100000921C1C02F0AEFC311C381CFFF76AFD63
:10192000061E03D0201CFFF7AFFF04E00098211C27
:10193000089AFFF7DDFE281C019902F0B3FC301C69
:10194000FEBDC046A1180000F7B5304E7146301CF0
:10195000754602F08FFC05F02DF82D4CE23023681F
:1019600001781A79002902D151B2481C04D100270C
:10197000DF60BA420DD118E0D8681A69904202DAE5
:10198000D8680130D86001290FD0DB6893420CDBA6
:10199000012700223B1C69460E33101C8A800092EE
:1019A0000B7104F063F923681F7123681A79002A08
:1019B00003D1184A1268127804E0012A03D1154AAB
:1019C000126852781A60186802F084FC2368071CB9
:1019D000E833186802F0A2FC3F1A002F0BDD2368E1
:1019E000186802F077FC2368071CE833186802F0D7
:1019F00095FC381A00E0012001F00DFD01F042FDD8
:101A0000301C291C02F04EFCF7BDC046E91800004E
:101A100040000020EC0A0020F0B5734691B0041C91
:101A20000E1CAF487146059302F024FC04F030FA16
:101A3000049004F0BFFF2278AA4B002A08D1B230EC
:101A40000278511E8A41D2B20292002A06D001E0E9
:101A5000012002901A680021B83205E01A68B832F5
:101A60001168FE2901DC013111601B6800211A1C7C
:101A7000B43211700299002904D09B490968097D8C
:101A800000295FD0181CB3300178C9B2002908D0F2
:101A900003785BB2022B00D0012313700023037084
:101AA00084E11D1CB0352C78002C09D00124147061
:101AB0001A1CB132BC33017029701170196076E1C3
:101AC000029800283ED1191CBC310C68002C09DD9D
:101AD000013C012C01D00C6034E0029B0B6003231D
:101AE000137064E11A1CE432126811887F4A914233
:101AF00028D01A1CC83211887D4A126852888A423E
:101B000020D8794C2068427C181CB830006890427C
:101B100018DB0EAA1180CA331B8806A95380029BCA
:101B200002988B8001230B7002234B708B70CB705B
:101B300015230B7104F09AF86A4B22681B68927C9B
:101B4000BC331A60684C2768F87C002800D02DE16F
:101B50000299644D002900D08AE02C68231CE333ED
:101B60001B78002B5CD03B1C2C331B78002B57D0F0
:101B7000231C0E91D8331B680393231CC83303988E
:101B80001A8843009A533B1C2D33197802984B0056
:101B9000F618031C994206D05A00B21A023A12886B
:101BA00001338018F6E707F015FB0E90FA8B231C23
:101BB000DC33904202DA1A68013200E000221A6037
:101BC0003B1C221C2E33DC321B7812689A4219DD32
:101BD0007C2308A900265B420124CB70301C16230D
:101BE0000EAA8E800C700B714C708C7004F03EF855
:101BF0002B68301C1A1CD832DC3316601E6004F0CF
:101C000077F8D4E03B1C2D331A780399231C013A52
:101C1000D833914202DA0A1C013200E000221A6035
:101C2000C4340137FB7F22689A4219DB00240AA9D9
:101C30001223201C221C8C800A940B7104F016F8CD
:101C40002A682948131CC0331968006801311960DB
:101C50000230C07F814203DB1C60B4320223137068
:101C60002A680023111CB231C4320B70136049E0A2
:101C70002B681A1CBC32106026321278002A41D020
:101C8000191CC83109880EAA1180CA331B880CA9F7
:101C9000538001230B7002234B708B70CB70192380
:101CA00088800B7103F0E2FF2B682268191CC83191
:101CB0000C88D08B163984421CD2181CCA30048878
:101CC000508D844216D2097800291BD1C4330132C9
:101CD0001968D27F914215DA0131196012E0C046CD
:101CE000B919000040000020E80A0020FFFF0000B2
:101CF000EC0A002001220A70191C0022C431C033F2
:101D00000A601A602D4D2B681A1CE2321278002AE4
:101D10004CD104980279002A46D01A1CB0321478AB
:101D2000002C43D1264ED86A3768798BBA8BFB8A50
:101D30003F8B009704F054F836682B68718CB28C96
:101D4000071CD86AF38C368D009604F049F82B688E
:101D50001A1CC8321188CA33B94202DA1A88824280
:101D600014DB08AA11801B880EA9538002230020CF
:101D700001254B708B70CB70172388800D700B7111
:101D800003F074FF0D4B1B68B1331D700B4B1B68C8
:101D90001A1CB1321278002A08D00299002905D005
:101DA000B03301221A7002E0B1331A7001240548E1
:101DB000059902F077FA201C11B0F0BD4000002018
:101DC000E80A0020B9190000F7B575460195424DA3
:101DD0007146041C281C02F04DFA404E33681A1C50
:101DE000B1321278002A24D01A1CE2321278002A6A
:101DF0001FD11A1CCC32117800291AD1B0331B78AC
:101E0000002B16D10123137001F046F9071C01F0D5
:101E100037F9334A031C1268453303CA3A1C5B3254
:101E200004F056F901F0A8FE022001F0B1FEFFF720
:101E30006BF833681A1CCC321278002A45D01A1C71
:101E40000020B0321070274A00901768011C3A6ACF
:101E5000013A0BD3E5685600755B002DF8D02EB221
:101E60000131B042F4DA301C0092F1E71A1CE23280
:101E70001278002A0ED101290CDD012222703A6A63
:101E8000013A09D300998A42FAD0E568510000204E
:101E90004853F5E7002903D01A1C0021D43208E08A
:101EA0001A1C181CD432D03011680068814201DC41
:101EB000013111601A1CD4321168043A126891423F
:101EC00005DDB03301221A7001E0D4331A600248F4
:101ED000019902F0E7F9F7BD691D000040000020FC
:101EE0004400002010030020F0B5ABB002AF7546EF
:101EF0007861F961A0487146BD603A61FB6002F00B
:101F0000B9F900220023391C101CBB842031A62300
:101F10002424E3553A6203F0A9FEFFF715FD974C20
:101F2000002521683E1C081CC830CA31FFF746F95D
:101F3000BD85934D01232822D3552A68391C137976
:101F40002922D3552A22D35504222B23DA555B2389
:101F50002C22D355236802209A69283103F086FE8B
:101F60000023BB8630220123D3552A68391C137CF9
:101F70003122D3553222D35504223323DA556C2330
:101F80003422D355236802201A6A303103F06EFEE2
:101F9000236884361A1CC8321288CA3332801B88E0
:101FA000382273800023BB870123D35502233922B3
:101FB000D3553A22D3553B22D355391C3C23012219
:101FC000DA550C203831321C03F050FE2B68391CD6
:101FD0005A6840311D684A709A68581D1B698A709A
:101FE0000D70C07F0B7104234B71236801325B6954
:101FF00092009A18C870009200220220131C03F06D
:10200000FBFD7869F969FFF7F5F97861002803D0DD
:102010003869FFF739FC8AE06D468CB002AC8CB0B1
:10202000BD6102AD3D608AB0381C3D1C5C357C60F2
:10203000796902AC14227030FC6107F08DF93C1C08
:10204000281C7969142207F087F95034796928220D
:10205000F86907F081F979690A22201C07F07CF9F8
:102060003B687A68B360474B72601B6835617022C9
:10207000FD69D219F2607561B461301C1E61396965
:10208000FA68FFF735FBB822301CD159FFF7C4FCC2
:102090003D4B1B681B7D002B02D1301CFFF794FECB
:1020A0003C1C8434201C04F06FFF25786C46AB0088
:1020B0000733DB08DB00E41AA54602AC3C612E1CAA
:1020C00012249022D259135F002B0ADD9822D35993
:1020D000013E3A69B000610010185918042207F057
:1020E000F9F8023CA31CECD1254B391C1B68483184
:1020F0005A681C684A709A680C708A700533DB7FD6
:102100000132CB707E235B424B711C4B52001B682B
:1021100000249B6A0C719A1800923B6903202A1CC8
:1021200003F06AFD174B1B681C61BC69A54601F0F2
:1021300003FC01F021FD01F0DBF901F023FB01209C
:1021400001F04EFD0D4BB4201B68185600F0F0FB5B
:10215000041E00D17C690D4B1B681A680C4B9A4217
:1021600002D001F07DFFFEE70348B96802F09AF85B
:10217000201CBD4629B0F0BD891E00004000002093
:102180001003002044000020E80A0020100B00206B
:10219000CDCDCDCDF0B59DB002AF74467146CE48E1
:1021A0007C6002F067F800F06BFF061C00F080FF17
:1021B000386100F071FFC94B6D461C68B860E36878
:1021C00000211A1C0E32D208D200AD1A2269AD4687
:1021D0000E32D208D2006846801A02AD8546FD61F3
:1021E00002AD7D6272799A18131C0E33DB08DB0096
:1021F000C01A53000E33DB08DB008546C01A02AD5F
:102200008546C01ABD6102AD854602A87861B869ED
:1022100007F0A2F8E1687279281C521801215200D7
:10222000494207F099F8E3687279AD49D218520033
:10223000786907F091F8E2683969F8693D6607F056
:1022400049F839692269BA31FF31786A402400259A
:1022500007F040F8FC603D62796AF86902F04EFFD1
:10226000032001F0BDFC9D4D00202B6838861A68C4
:1022700058682C212D24CA55E0559A6804242F2330
:10228000DC55984C51233020C35523682E21CA5564
:102290005B6901329200391C9A1802202C3103F03C
:1022A000E5FC01233422D3552B6836201B7C3525D1
:1022B000EB55C35500215A2338253987042237218D
:1022C000EB552368CA55391CDA690220343103F012
:1022D000CDFCB479013C631C2CD07579013D6A1C9E
:1022E000F8D0737978696343EB185B001A5A7E4B18
:1022F0009A42F3D0B96960223960F9657866D219DB
:10230000694609CA09C1211C3B68F8692A1CFEF705
:1023100073FD002803D03B6A01339BB23B627379A3
:10232000BA6963433869EB18D15CC25C8A18F969F1
:10233000CA54D3E7F479013C601C2FD0B17973798A
:102340007D694B43E3185B005A5B674B9A42F2D0BE
:10235000BD6960203D60FD65C0197D6984467D666C
:102360006846624628CA28C0221C3B68786AFEF785
:1023700043FD002803D03B6A01339BB23B62737973
:10238000B279BD695A432B193D699A5C2919BA3152
:10239000FF310B787D6AD3182B55CCE74F4B3C6A45
:1023A0001B68DA681B69D3189C4206DAFB68013B9C
:1023B000DBB2FB60002B00D04EE700244025FC631D
:1023C000EC53B3793C20C35573793D213E223F2520
:1023D000D355CB55EB5D7F200125834380212B43D3
:1023E00049420B433F22D3554020D223391CC355C9
:1023F0003C310820FA6903F039FC391C44317C6413
:102400008C800D70F3797F224B708B70CB78082015
:1024100093431D4380235B422B43CB707A6AD323C3
:102420000B7103F023FCB379013B0FD37279013AAE
:10243000FAD37179BD685943FC698918E8186118A5
:1024400064300C78007820180870F0E7F379013BCD
:1024500008D3BC687D6AE2187C321178EA5C8A187D
:10246000EA54F4E7F869796A02F048FE391C4C3105
:102470000024FC648C80B3797F200B707379012574
:102480004B708B70CB78802283432B435242134393
:10249000CB70FA691D2308200B7103F0E7FB391C90
:1024A00054317C658C800D70F3797F244B708B7078
:1024B000CB788026A3431D4376421E237A6A2E439F
:1024C00008200B71CE7003F0D1FB0348796801F04E
:1024D000E9FEBD461BB0F0BD352100001003002011
:1024E000FFFF000040000020FEFF000038B50B4C4D
:1024F0007146201C754601F0BDFE00F0CDFD583040
:102500000378002B02D1FFF745FE01E001F054FEF5
:10251000291C201C01F0C6FE38BDC0468D240000D9
:10252000F0B5A5B000AF724671467861E1487A60B7
:1025300001F0A0FEE04C23689B683B625B00013326
:102540003B6501F06FF92368FF229B68F865D31A99
:10255000984200DDFB65F86D3B6A0024C31AFB61FD
:1025600001F066F93A6D694655002B1C0833DB080B
:10257000DB00C81A85466A466423DC5360200123C9
:102580007965FA6461216222C355CB55D3557C230A
:102590005B426320C3556421B123CB553A1C391CDF
:1025A000201C60315C3203F061FB3A6D944206DA24
:1025B000F869F96C63002218CA520134F5E7002467
:1025C0006C23D1B2DC530126682069226A23C655E8
:1025D000D155D955B96402236B20391CC3556831D4
:1025E000201CFA6C03F042FB2B1C796D08338D46DE
:1025F000DB08DB006A46D21A9546D21A6946954630
:10260000F9637A6301F088FD3861301C00F0A8FF9F
:10261000211C2A1C786B06F09FFE211CF86B2A1CDB
:1026200006F09AFE386D69468000031C0A33DB0809
:10263000DB00C91A8D46C91A3B69B8619B00684620
:1026400038638D46F962BB60FC640021BA69386B5F
:1026500006F082FEF86AFF21BA6906F07DFE0020CE
:102660007865954B786D1B685B6898424BDAF96921
:102670000026C9B2081CB96301F0E5F801F0B2F810
:1026800000F064FFFC6A3D6B386D0136F217C30F32
:1026900086425341DBB2BB62002B06D1B96B88196D
:1026A000C0B201F0D0F801F09DF86B46FB60BB684A
:1026B0006A460A33DB08DB00D01A85466A467A642C
:1026C00001F030FD00231A1C39698A4205DA786C62
:1026D0009100415801325B18F6E72A68934200D90D
:1026E0002B602068834200D22360F968BA6A8D4665
:1026F00004340435002A02D100F028FFC4E77B6DC2
:1027000001337B65ADE700216C4D79650C1C3A6D9A
:10271000944217DA3A6BF96AA300D058CB58C01A22
:10272000854204DDFA69051CA2187A623C647B6D5F
:10273000834200DA786500F0FDFEF96B6300C85251
:102740000134E4E7786D00F0F5FE5B4B1B685B88B5
:10275000984206DA7B69012B03D0F86D396A7862FA
:102760003964574D00262C683222231DDE6704335E
:10277000DA67396C803364221A60022291409A60D1
:10278000FA6A01208A58D8605E60101C3A60B9630A
:1027900000F0D0FE9834BB6B396B206058582C6821
:1027A00000F0C8FE2B6801211A1CAA32A03449424D
:1027B000206011807A69AE331E80012A2BD17A6B9A
:1027C000331C396D8B4209DAF86B5900415A108875
:1027D000884200D2118001330232F2E73A6C786B02
:1027E00053001A5AF96C131C8A4200D20B1C9BB27C
:1027F0007021FB640123CB557422BB6C0020D053A5
:1028000072217122D355CB5573220223391CD35523
:1028100070317A6B10E0786D00F08CFE391C80B25C
:1028200078310222F864B86C0123CA70FA6B4870E0
:1028300088708E800B70301C03F018FA386C882377
:10284000D8537A6AFB6B8A214400CA531C19FA6C6C
:1028500023888E21CA538C20391C8031C353042312
:102860004B708B70002502233A1CCB708832B22348
:102870000126281C8D800E700B7103F0F7F9238858
:102880000F4C2268111CE43109680988994224D24E
:1028900006F04CFC051C06F0A1FB03787865002BC4
:1028A00010D0301C03F024FA23687E6DE433023626
:1028B0001E6023E0C1240000EC0A0020FFFFFF7F20
:1028C00040000020002D19D1164B1B68DB7C002B2B
:1028D00014D1301C03F000FA10E0E3321278002A21
:1028E0000CD0114E306842889A4207D9281C03F058
:1028F000FFF923683268E43302321A6079690029EB
:102900000AD17A6AD0B200F09EFF0848796801F0D7
:10291000C9FCBD4625B0F0BD03F0A2F8072800D1E0
:1029200093E6EEE7E80A0020EC0A0020C12400004C
:10293000F0B56C4C724689B07146071C201C03929E
:1029400001F098FC06F0F2FB061C03F0E5F8664A7D
:10295000051C1368141C191CE031097800291BD1CF
:102960001A1CE1321278824216D0002806D1E233D6
:102970001E78731E9E41F6B23A2301E039230226E7
:10298000002269468A82101C0B7504A9049203F088
:102990006DF92368E1331D7003F06AF8019003F0CC
:1029A0009FF8032F03D0019A002A04D108E0019B6D
:1029B0000125002B3CD0002003F062F8012537E010
:1029C0002368019DE0331B880293002B30D1012F37
:1029D00002D0022F04D00EE0381C03F07DF90AE08B
:1029E000029803F079F92368E3331B78002B02D0B7
:1029F000029803F07DF903F069F92368071CE233BC
:102A00001B78834213D0002802D01123012601E055
:102A10001223061C002506A9281C2A1C8D80069559
:102A20000B7103F023F92368E2331F7000E00025E7
:102A300006F07CFBB04234D006F078FB06F0C2FA18
:102A4000071C301C06F0BEFA0190301C06F068FB33
:102A500006F034FB254B1B68187D00280ED0244B54
:102A60003A1C1B685B3203CB019B5B3303F030FBEA
:102A7000002001F0B5F8FEF747FA05E023680125CC
:102A8000CC33187001F080F9002003F031F923688D
:102A900000211A1CE3321170164AE4331268023224
:102AA0001A6006F043FB06F099FA0378002B08D071
:102AB00003F018F92368E3331A78824201D01870C2
:102AC000012503F045F8041C03F074FF0379A342C9
:102AD00000D004710348039901F0E4FB281C09B0FD
:102AE000F0BDC046D128000040000020E80A0020C8
:102AF00044000020EC0A002038B5054C75467146AC
:102B0000201C01F0B7FB291C201C01F0CBFB38BDB9
:102B1000992A000038B5054C75467146201C01F015
:102B2000A9FB291C201C01F0BDFB38BDB52A000003
:102B3000F0B58BB000AF744671465448BC6001F0EC
:102B400099FB534C6D46236819685B680A1C5A430D
:102B5000D3185B000833DB08DB00ED1A4D4B520045
:102B60001B68AA1849004908DD611A62AD46BD61BB
:102B7000796100F085FA20687E69436872005D1E05
:102B80005543BE6951427519F9613D610021013B10
:102B90000BD33C6902680E19013A03D35400002597
:102BA0003553F9E7FE698919F1E728243C600020D4
:102BB00001F016F8364B1C68374B65681968FD61E3
:102BC0002B1C013B22D37A6920685A43451EAA1860
:102BD000BD699E005200FE60AA18461E3E61F0D3F9
:102BE000FD688E697659A5687E60684318184E693D
:102BF0000130800085597E680020B54200DDA81BA9
:102C00001588023A401950803869E6E73D68013D71
:102C10003D60002DCBD1FD69013DFD6111D37B6984
:102C2000F869256843436E1EF618B96976008E1957
:102C3000013DF0D33088282106F07EFA023E7080F4
:102C4000F6E7FFF767FF124E20203368212459680A
:102C50002225C1551A781B692420C355252102233A
:102C6000381CE255CB550024B96923262030EA559B
:102C7000F45502F0A1FD074B04481B68B968DC61FC
:102C80001C6201F00FFBBD460BB0F0BDD12A000065
:102C900010030020440000204000002038B5054CFF
:102CA00075467146201C01F0E5FA291C201C01F034
:102CB000F9FA38BD3D2C0000F0B58BB000AF74467A
:102CC00071463E48FC6001F0D5FA00F0D9F93C4C61
:102CD0006D46236844CB724393195B000833DB08CD
:102CE000DB00ED1AAD46281CFD61364D69462B68A8
:102CF0005200D86150088A181A62B861002000F0AA
:102D00006FFF314B7600186822687608760084469B
:102D10001168F8693E612E1C4B1E7B6114D3536809
:102D2000013B0DD395685C004D437C605D196446A2
:102D300064690135BD60AD002D597C680553EFE72E
:102D40003D6979694019E7E7BD6913696C00FD6960
:102D50001D4A2D191068AC469A00043A013B05D370
:102D6000C4695900A55864466552F6E7FFF796FF17
:102D7000134D20202B68212419681A792225C1556A
:102D8000E255EA555A1DD27F1B6923202421C255E2
:102D9000CB55381C7E235B422522F9692030D35560
:102DA00002F00AFD33680022DA611A620348F9680A
:102DB00001F078FABD460BB0F0BDC046592C0000BA
:102DC00010030020440000204000002038B5054CCE
:102DD00075467146201C01F04DFA291C201C01F09B
:102DE00061FA38BD6D2D0000F0B591B000AF7446AA
:102DF00071469048BC6001F03DFA00F041F9FDF7E2
:102E0000DDFF8D4BF8621C686946656820683D628D
:102E100068434219D31D5200DB080832DB00D20898
:102E2000C91AD2008D46891A786268468D46386381
:102E30006846C01A8546814B6D461B68F961BD61C5
:102E4000796A3D6BE2685D62281C6D189D62002105
:102E500006F082FA2269281C002106F07DFAE26859
:102E60000021684606F078FA786A226968440021F1
:102E700006F072FA3C6A7D6A63005B083B616B0096
:102E80005B08FB60FB6A35331B787B637D6B6A4CA8
:102E9000002D00D1A9E0002000F0A2FE684A2068C1
:102EA000116843688C46013B50D30268511EFAD327
:102EB0008468654662439A186D69013292005259DE
:102EC000FD69BA623A694A439A185200545FBA6A75
:102ED000FF25A41AFF2C02DCE543ED172540FA6A12
:102EE0007D6037321278BD697A61EE183A6A7D6981
:102EF0004A43AC420DDDB45C0134E4B2B454FE6A22
:102F000064B236363678B44217DB3D6BEC187D6818
:102F100012E0FC6AB65636342478A6420DDA3D6BD0
:102F2000EC18A65C7D68B54200DA351CA554BC6976
:102F30000025E2183C6A4C4315553A69BC6A4A437D
:102F4000FD699A18520054530A1CAFE73C4A0369C2
:102F5000FD6816685A1E5219FC695200A218013BFE
:102F60003FD3F56999004959B962BC6A0021505EA6
:102F7000001BFF2802DDFF257D6103E0C443E41749
:102F800004407C61F96ABC69373109787D6A8C46F6
:102F9000611960450EDDC85C0130C0B2C854F96AE1
:102FA00040B236310978884217DB3C6B61197D6984
:102FB000CD5412E0C8568446F86A3630007884450D
:102FC0000BDA3C6B7D6A6019C45CA4467C6964457D
:102FD00000DA6446C4540020C854BD6A023A5580E1
:102FE000BDE77C6B013C7C6350E7FFF7EFFE236895
:102FF000382059683924C1551A783A251B69EA5591
:10300000E2553C257C6BEB553B207F23C4555B424E
:103010003D20C355381C396B383002F0CDFB074BCF
:1030200004481B68B9685C629C6201F03BF9BD46CC
:1030300011B0F0BD892D00001003002044000020D5
:1030400040000020014B18607047C046340100204A
:10305000014B18687047C04634010020014B586886
:103060007047C04634010020014B98687047C04645
:1030700034010020014B18607047C046F80A002058
:10308000014B18687047C046F80A0020014B1860D1
:103090007047C046F40A0020014B18687047C046CC
:1030A000F40A0020014B18607047C046F00A002067
:1030B000014B18687047C046F00A0020014B1868A1
:1030C0007047C0464001002010B50D4B00201B7812
:1030D000AA2B12D10B4B1C780B4B64B218780B4BFC
:1030E00040B219780A4B20181A780A4B49B21B785B
:1030F00040188018C01A43425841C0B210BDC046A3
:103100005000020051000200520002005300020071
:1031100054000200550002008023DB0200221880C8
:1031200059809A80C046024B188880B27047C046CA
:103130000600040013B5094A042413780021DBB209
:103140001C4301910198F421FF31884205DC137082
:10315000C046147001990131F3E713BD0D00005012
:1031600013B500220192A022D205D06BC021C90064
:103170000143D16301AB187803218843012108433F
:103180000C24A043042420433024A04310242043D3
:103190003F24204040242043187098780F24A043F7
:1031A000072420439870D8780143D970019B93611C
:1031B00013BDA023DB059869C001C00F7047012231
:1031C000A023DB051040020602499869084010431D
:1031D00098617047FFFFFFFE82B00022019201302C
:1031E0001F2201AB1040C9B21870481C02311040B8
:1031F0000A4092005870DA70019AA023DB05DA6168
:10320000196A024A0A401A6202B07047FFCFFFFFF4
:103210000002064B000A0138002258609A6005221D
:103220001A60C0461A68D103FCD5704710E000E070
:10323000F0B5534F85B03B681A1C543215780232F2
:10324000596D127857331E780F23140799431209CA
:103250002D0701922D0F0B1C80222B43520013438C
:10326000484A0395484D1340484A2B40484913406B
:10327000240F0B400199220413430A0545493607E0
:10328000360F0B40009613433206434E02943340F0
:103290001343424AA024E4051340E360FFF74AFFCA
:1032A0003B68E26855331B781540DB069B0FDB0259
:1032B0001D43E560E26880239B001343E360E268FE
:1032C00080239B011343E360029C039DFFF7FCFEF8
:1032D000002813D0324F882039781E34C9B205F047
:1032E00079FF39784443C9B2882005F073FF0F3560
:1032F00045431E3C00230F3D9C4203DB231E0F2B46
:1033000000DD0F230F22954200DD151CA024E405EB
:103310001F491A40E36812040B401343E360EB4378
:10332000E268DB171D400F239A431D401543E560FB
:10333000E368F022934380221343E360E368154A75
:1033400018481340E360E3683340E360FFF760FF31
:10335000E26880235B051343E3600099E2680B0693
:1033600016401E43E6601048FFF752FF019B0949D3
:103370001A05E3680B401343E36005B0F0BDC04697
:10338000F40A0020FFF9FFFFFFE7FFFFFFDFFFFF69
:10339000FFFFF0FFFFFF0FFFFFFFFFF0FFFFFFEF5B
:1033A00054000200FF0F0000FF6F0000064A074BA9
:1033B000126801209432126819789040021C0A4366
:1033C000D2B21A707047C046400100202900005058
:1033D0000549064B09681A7894310968012088402C
:1033E00082431A707047C0464001002029000050F7
:1033F000044B1878044B1B6894331B681841012355
:10340000184070472900005040010020A0230122ED
:10341000DB055A707047044B82B0019001AA1880F6
:1034200092789A7002B070472400005007B500F0FF
:1034300051FF064B019001AA188092789A70044BB4
:1034400000221A70034B0122DA7707BD24000050D6
:10345000000000200800005007B500F05FFF064B99
:10346000019001AA188092789A70044B00221A7079
:10347000034B0122DA7707BD240000500000002032
:1034800008000050034B00221A70034B0122DA7728
:103490007047C046000000200800005072B6084B7C
:1034A0001B5C002B03D1C04662B630BFF6E762B6A4
:1034B000A023DB059968034A0A409A607047C0461A
:1034C00000000020FFFFF9FF72B6074B1B5C002BCA
:1034D00002D1C04662B6F7E762B6A023DB05996861
:1034E000024A0A409A60704700000020FFFFF9FF7F
:1034F000A023DB055A680121120E58689143034A44
:10350000090602400A435A607047C046FFFFFFFEAB
:1035100008B5074B1B681A1C5C3212785D331B78A8
:10352000520001325043994005F054FE08BDC04698
:10353000F40A002008B5044B1B685F331978490072
:103540000131FFF7E5FF08BDF40A002008B5A0230C
:103550000120DB055870FFF7A1FFFFF7C9FF08BD89
:10356000F7B5A026041CF605042804D1524B1B68AD
:10357000DF6E1B6F21E0514B1B689F6CDB6C73612E
:10358000FDF72EFCE3300378002B17D005F0CEFDBD
:1035900005F024FD01797F221140890401917169B0
:1035A0000B1C47490B400199194371614179444B08
:1035B0000A40716992040B4013437361A023DB0539
:1035C0001F611E691F231E40FFF77EFD00280AD0E1
:1035D0003C4B882019780436C9B205F0FBFD464300
:1035E0000023043E03D4331E1F2B00DD1F23A02223
:1035F000D20510691F210B40884303431361022C3D
:1036000016D007DC002C13D0012C2DD12B4B1D68BC
:103610005E3529E0042C07D023DB052C24D1264B72
:1036200000241D6877351FE0234B1D6874351BE0AF
:10363000FDF7D6FB031CCC331B78002B03D01E4BAD
:103640001D68453510E0E3300378002B05D005F008
:103650006DFD05F0C3FC851D06E0184B1D685B354C
:1036600002E0164B1D686135A023DB0559692878F7
:103670003F22104091430143596168781F215D69E1
:1036800008401149C0022940014359610F496400B3
:1036900009680C19211C533108785968104091436E
:1036A000014359605434217858680A401102084A8D
:1036B00002400A435A60F7BDF80A0020F40A0020CD
:1036C000FFFF03FE54000200FF07FFFF4001002040
:1036D000FFC0FFFF274BF0B51A68274B85B01B686A
:1036E0005E331B785B069B0E0193517E00238D0099
:1036F0005519581E5B18002B25D053181B189B7E9C
:103700008024D3185E78A023DB055F68E4033C4384
:103710005C60019CB606240400945F68B60EBC464B
:10372000164F64462740009C27435F60C0462436FE
:103730007600F65A84002C1966675E68104C344097
:103740005C60031CD5E76F460293BB8101233B728B
:10375000537E7F217B72BB72FB7A74328B430421D0
:103760000B43FB720F20B02302A93B7302F07EFAD9
:1037700005B0F0BD40010020F40A0020FFFFC0FFAB
:10378000FFFFBFFFF0B585B0FFF7A4FF144B002586
:103790001E68747E631C9B005B420093A300F318B9
:1037A0000193009B043D9D4207D0019A01215719C6
:1037B000786FFFF7ADFE7867F3E76A4600239381E1
:1037C000012313720423D372B023547294721373BF
:1037D000321C74320F2002A902F048FA05B0F0BD85
:1037E00040010020044B00225A70A023DB055A70D0
:1037F00001221A707047C04600000020A023DB059C
:103800009968064A0A40802189020A439A60044A5C
:103810000021917001229A707047C046FFFFF9FFA6
:1038200000000020014B1B68D86E7047400100204B
:10383000014B1B68D866704740010020A023DB05C0
:103840009868C0B2704730B5A023DB059B68DBB237
:1038500083420ED001DA013300E0013BA022D20501
:103860009568FF211C1C8D430C40291C214391604D
:10387000EEE730BDA023DB059968802252020A439F
:103880009A609968094A0A409A609A681201120976
:103890009A60D968064A0A40DA60D968054A0A403F
:1038A000DA60D968044A0A40DA607047FFFFFFF027
:1038B000FFFEFFFFFFDFFFFFFFFFFFEF1B4B10B51A
:1038C0001A680121131C52331878A023DB059C6869
:1038D0000840174900042140014399605332107891
:1038E0009C68144900070009214001439960117840
:1038F0009A6809091201090712090A439A60D968EE
:10390000802252000A43DA60D968802292010A4379
:10391000DA60D968802252050A43FA20DA60800012
:1039200000F0FCFCFFF774FC10BDC046F40A002058
:10393000FFFFFEFFFFFFFFF008B50020FFF7AEFD21
:1039400008BD034B1B685C3318784000013070479A
:10395000F40A0020024B1B685D3318787047C0469C
:10396000F40A0020004870470010005000487047DB
:10397000002000500048704700400050064B1B6874
:103980005879064B02301B6842331B785843044B6E
:103990008000C0187047C046F80A0020400100208F
:1039A00004400050F7B5194B051C1C68A3795E1E36
:1039B00010D36279013A0BD36179501C023159431B
:1039C00041181348890009180868E8400860F1E7C1
:1039D000331CECE7FFF7D2FFA37A002201339C46A9
:1039E0006346013B9C460FD3617A9600019186198C
:1039F00000230199994205D09F00F1590133E94014
:103A0000F151F6E75218EBE7F7BDC046F80A00207F
:103A100000400050064B1B685879064B02301B686B
:103A20004E331B785843044B8000C0187047C04683
:103A3000F80A00204001002004400050074B1B689A
:103A4000DA795879064B02301B68013246331B780D
:103A50005843044B10188000C0187047F80A002023
:103A6000400100200040005070B53F4B1D682A788F
:103A700053B2042B18D13D4B19680B1C76331E78BA
:103A800002235D1E6FD34A79013A0BD34879541C47
:103A9000023058432018364C800000190468F44066
:103AA0000460F1E72B1CECE7002A45D0022B21D162
:103AB000FDF796F9CC3003782C4C002B02D023680C
:103AC000473302E02B4B1B685D331878FFF76AFF22
:103AD0002568EC79002C2FD0FFF7B0FF061C013CC5
:103AE0002AD3697A201C05F0CBFB89008A59A300F0
:103AF000F250F4E7032B03D11E4B1B68633318E02D
:103B0000012B11D1FFF786FF184B061C1B685C794F
:103B1000013C11D32B1922331B789B009859FFF7D6
:103B200009FDA300F050F3E7052B05D10F4B1B68EF
:103B300079331878FFF736FF0E4B1B685A331B7822
:103B4000002B10D0094B1A685379013B0BD35079E5
:103B5000947902306043591C0918054889000918F6
:103B600000200860F1E770BD40010020F80A002045
:103B700000400050F40A002008B5A0230120DB0516
:103B80005870FFF78BFCFFF7B3FCFFF76DFF08BD24
:103B900070B5041C104E114D11D10120FFF7E0FC4F
:103BA000336801221A70A023DB056C705C701A70F8
:103BB000FFF7E2FFFFF79CFCFFF7E4FD0224201C67
:103BC000FFF7CEFC336800221C70A023DB056A706F
:103BD0005A7001221A7070BD4001002000000020C0
:103BE00008B5FFF7D5FFFFF7C7FF08BD08B5A0234D
:103BF000DB05011C58683F22114090430843586080
:103C000059685868114001310A401102064A0240C1
:103C10000A4306495A6000224A705A7001221A70FB
:103C2000FFF7AAFF08BDC046FFC0FFFF000000204D
:103C300010B5A023DB051C6A0005064A000D01042F
:103C400022400A431A621A6A120B120310431862C6
:103C500010BDC046FFFF00F073B5164BA0221B68D5
:103C6000D2059168196D503391601C78FFF72CFADA
:103C7000114D002810D0114B114A1B7812782E6874
:103C800052B25BB20092201C1021D12202F0A8F89F
:103C90002B6830671B6FE418002C01DA002402E067
:103CA000FF2C00DDFF242B68E0B2DC66FFF7CBFDC4
:103CB00073BDC046F40A00204001002053000200FA
:103CC0005200020008B5FFF7C7FFFFF7B1FAFFF790
:103CD00047FA234BC022920098582249014099503C
:103CE0009958FF20814340200143995098581E491C
:103CF000014080200004014399509858802100021F
:103D0000000A090601439950012102221A60082085
:103D10001960042119601860144B00205860144B7E
:103D2000186901431961134B1B68197A124B1B6800
:103D30009433002900D1032210491A6000230B702C
:103D40000F49A0220B700F49D2050B709363D36B00
:103D50003F218B43D36362B600F02CFF08BDC04601
:103D600000E100E0FF00FFFFFFFF00FFFCE100E0DB
:103D700000ED00E0F80A002040010020290000507A
:103D8000280000502A00005008B5002801D0012862
:103D900001D100F00FFFFFF75FFFFFF749FAFFF7D0
:103DA000DFF908BDF0B5214B0D211B680324DA7A39
:103DB00000230C3AD2B291425B41E41AA023DB0506
:103DC00058693F22596810408022D2030A43A3B0A9
:103DD0005A60411EA023C9B2DB0502AAFF2910D0F8
:103DE0005F683F26124D0E4036043D4035435D600E
:103DF000C046251C24356D005D5B4B00D552013952
:103E0000E8E75C680B4921405960694600238B80D4
:103E100001230B70022348708870CB700320B323FA
:103E20000B7101F023FF23B0F0BDC046F80A00205B
:103E3000FFFFC0FFFFFFBFFF10B5A020C005446912
:103E40004906E401E409214341617F210A404469B4
:103E50009104074A22400A430649426100224A70FF
:103E6000427001220270002B01D0FFF785FE10BDC9
:103E7000FFFF03FE00000020F7B5041C02F088FDE0
:103E8000124B1A6800235068411C0191019D16686D
:103E90009D420CDB976801367E4399008C469E1943
:103EA00000216546B600615101333151EEE701232F
:103EB0009E420ADB956800215D43AF002D18013555
:103EC000AD00395101332951F2E7F7BD100300204D
:103ED000044B054900221A6059609A6005221A6055
:103EE0007047C04610E000E0FFFFFF0010B5A023C0
:103EF000DB059C6899680B4BC9B21B68E4031B6F18
:103F0000E40F591AFF31E62359430134064BA04010
:103F1000C918041C054805F05DF9C1B2201C05F064
:103F200059F910BD400100205C5D000040420F00C7
:103F3000014B00221A60704710E000E030B50E4DD2
:103F40000E48AB6885B0C01A0193FFF7CFFF02A9F6
:103F5000012300240B704B708B7004230190CB70F5
:103F6000201C6F2301AA8C800B7101F07FFE019849
:103F70002C6005B030BDC04610E000E0FFFFFF0040
:103F800010B5041CFFF7A4FF201CFFF701FEA023BF
:103F9000DB0501205870FFF797FAFFF7A9FAFFF742
:103FA00063FDFFF7CBFF10BD014B1878C0B270471F
:103FB000470000508023DB0500BA09BAD8601961B8
:103FC000704737B5051C0424291C221C684605F0DF
:103FD00081F92919221C01A805F07CF90099802398
:103FE0000ABADB05DA6001990ABA1A6137BD40BA2C
:103FF00080B2704700BA70470023114A11499A18DD
:104000008A4204D21049C95804331160F5E70F4BB6
:104010000F4A191D043B934203D200221A600B1C65
:10402000F6E70C4B0C4A1360EFF308820433191DBA
:10403000043B9A4203D9094818600B1CF7E7704704
:104040004000002024030020BC940000280300202E
:10405000E80A0020340B0020100B0020CDCDCDCD80
:10406000F0B5294D89B029482C6800F057F9FFF7C1
:10407000CFF80026264FBC4222D280373B1B202798
:10408000832B00DC9F1002A9FAB2012300204A70A2
:104090008A70BF10221C0B70CB70888001F0E6FD87
:1040A000231C3A1C013A08D3002E04D11949186880
:1040B000884200D01E1C0433F4E7BF00E419D9E79E
:1040C0002B6804A9F31A0025019304230124CB7063
:1040D000281CA72301AA8D800C704C708C700B716A
:1040E000843701F0C3FD06A90420C870A823BE1BB5
:1040F000281C01AA8D8001960C704C708C700B717D
:1041000001F0B4FD09B0F0BD100B0020801A0600CC
:10411000801B0020CDCDCDCD014B1B68587E704754
:104120004001002070B5051CFFF774FC094B1C68AA
:10413000637E9A00AD180022511ED218002A08D0C2
:10414000E2185218927E920016588A00AE500A1C4D
:10415000F2E770BD4001002030B50A4B1B685A7E63
:1041600094001C195300C01800230133D11A0131E7
:1041700006D09D00651B59006D6F49424552F4E71A
:1041800030BDC04640010020A02382B080B2DB05D4
:10419000D88502B07047A023DB05D88D82B002B06D
:1041A00070470722A023DB05104042011869E02177
:1041B0008843104318617047F0B585B000AFFEF733
:1041C00077FF264B69461D68061CEA68131C0E33F0
:1041D000DB08DB00C91A2B69F9600E33DB08DB0052
:1041E0008D46C91A8D46F868311C05F073F8BA235C
:1041F000FF33F1182A69684605F06CF8184B194D21
:104200001A682E6893796C46BE60013B13D35179CE
:104210000139FAD35079FE68584340183018BE6807
:10422000F61864367E600678B4467E683678B44404
:1042300066460670ECE72968D379013B06D3CA18B5
:104240007C32E05C12788218E254F6E7F868211CB0
:1042500000F054FFBD4605B0F0BDC046100300207D
:10426000F80A0020F40A0020A023DB0518690006E4
:10427000400F704770B5051CFEF7F6FE0468061C7B
:10428000013C08D37268E300D3181A68AA42F7D138
:104290005B689847F4E7024B013D1D6070BDC04666
:1042A000FC0A002070B5051CFEF7DEFE8468061CC3
:1042B000013C08D3F268E300D3181A68AA42F7D188
:1042C0005B689847F4E7024B013D1D6070BDC04636
:1042D000FC0A002038B5A023DB0599689D680C4BCB
:1042E000041C1B680B481B6FED03C91AC943E62366
:1042F000C9B25943084BED0FC91804F06BFF054BC9
:1043000001355843211C284104F064FF38BDC046E4
:104310004001002040420F005C5D000038B5A02342
:10432000DB0599689C680A4B051C1B6809481B6FD4
:10433000E403C91AC943E623C9B25943064BE40F43
:10434000C91804F047FF68430134204138BDC04616
:104350004001002040420F005C5D000008B50028CD
:1043600007D0481006380123132900DC0023C018A9
:1043700006E00B2900DD0E39081C032104F02AFF9A
:1043800008BDF0B5C04BA9B01B6800250293DB7ACD
:10439000071C0C3B281CDBB20D229A426841BB4B28
:1043A00003261B68361A03963E68019347331E7036
:1043B000019BC4B278684A3304940DAC291C187070
:1043C0006C22201C04F0C8FFB14B0B951A680C95A9
:1043D000231C62CA62C323CA23C343CA43C3012145
:1043E00024234B43221CE31861CA61C361CA61C321
:1043F00061CA61C3039D0131A942F1DB0026039626
:10440000341C029D6B799C424CDA029D04982B1956
:10441000DD7A0BAE291CFFF7A1FF365C2422311C8C
:104420005143B446661C06960B180DAEF618059659
:10443000059B069E1E711F2D08DC0DAE7118012311
:10444000CA68AB401D1C1543CD6011E00BAE335C58
:104450000DA95A43203D01238A18AB401D1C137E31
:104460009906890E0D433F210D408B431D43157660
:10447000019D3F23061C2A191E4005966546567865
:10448000A901059D9E4335431D40634629430133E1
:10449000039E5170DBB20BAA13549E4200DA0393C1
:1044A0000134AEE7019B039E493300241E70029441
:1044B000754B029C1B6898798446844200DBD8E0E7
:1044C000029D5B191A1DD67F714A126804925A32F6
:1044D0001278059205980022904205D06146013974
:1044E0008D4201DA0533DA7F0123301C191C203894
:1044F0001C1CB1408440201C06913F210840111C27
:1045000020391D1C8B40DBB20993039B2421013B06
:104510004B430790039C28A89540C31808955C3B23
:104520000194019D002D41D0019D2421013D69434D
:104530000DA8411801957C68CD781F200440854363
:1045400025430020CD70186018314C783F208443FB
:104550004C701F2E04DC1968069C2143196004E08E
:104560004C78079D84432C434C70059800281BD041
:104570006146029C01398C4216DA1F2A04DC196854
:10458000089D294319600FE0019C2421614328AD57
:10459000691854394878099C8506AD0E25433F2497
:1045A0002540A04328434870243BBAE7049E029C60
:1045B000331934788033A4065D78A40EFEF784FDA9
:1045C000002813D0334E882031780135C9B204F069
:1045D00001FE31784543C9B2882004F0FBFD023466
:1045E0004443013D023C019A6E1C03D02A1E1F2A3F
:1045F00000DD1F223F203F2C02DCE043C01720409B
:104600000590019C039DAC422CDA019C24256C434F
:104610000DA91F26101C0B19304004905878B04388
:10462000061C0498064305985E703F2630400490AF
:10463000605CB043061C0498064366543968372909
:104640001EDC4D4314496D18291C51CB51C170CB50
:1046500070C131CB31C13B68019E013301363B60F3
:104660000196CEE7029E7B680136013302967B609D
:104670001EE7064B3A681B68012048331A7000E0B9
:10468000002029B0F0BDC046F80A002040010020FB
:10469000F40A0020540002000080005030B585B0BC
:1046A000FEF706FD064B01A81B68021C603332CBE7
:1046B00032C2FFF766FEFFF77FFD05B030BDC04692
:1046C00040010020F0B5604B95B01B6800270493B3
:1046D000DB7A051C0C3BDBB20D22381C9A42784178
:1046E000C3B20793594B29681B680BAC01934B333A
:1046F0001970019B6A684E331A70019B391C4D3347
:104700001F702422201C04F027FE514B09971B68C0
:104710000A970293029A231C43CA43C343CA43C362
:1047200043CA43C3019E237E77769B06E6689B0EB1
:1047300005960693049E73799F4234DA049E079887
:10474000F319DB7A191C0393FFF708FE09AB1B5C16
:10475000002B0AD1019E717E4A1C72767118FAB242
:104760000BAE8A76013231180A71019EF2190BAE36
:1047700031180979039E22320139117001221F2E4E
:1047800004DCB240059E1643059607E00399069E99
:1047900020398A4032433F210A400692013309AA58
:1047A00013540137C6E70BAB059E1A7E0E963F21C8
:1047B000069E02988A43324306781A76B606B60EEB
:1047C000FEF782FC00280AD0224B88201978023696
:1047D000C9B204F0FFFC46430023023E03D4331E5B
:1047E0003F2B00DD3F2362781F2120788A436270CF
:1047F0003F2290431340034323706868E3780840E6
:104800008B43617E034391436176296824224A43A6
:10481000E37000231293139323610F4BD218131CE0
:1048200043CC43C345CC45C346CC46C32B686A68DA
:10483000013301322B606A60044A012012684C3255
:10484000137015B0F0BDC046F80A002040010020EA
:10485000F40A00205400020000800050F0B5D04B54
:10486000A5B01B68002601933B331B78041C0C3B4E
:10487000301CDBB20D229A427041CA4B03271B68E1
:104880003F1A0397276802933F331F70029BC5B2FC
:1048900060684233059509AD311C18706C22281CE4
:1048A00004F05AFDC04B07961B68089624332A1C57
:1048B000C2CBC2C243CB43C283CB83C201212423D8
:1048C0004B432A1CEB18C1CAC1C3C1CAC1C3C1CA68
:1048D000C1C3039E0131B142F1DB019F0025049762
:1048E0000395019D049F6B7A7E1B9E4243DA049BD5
:1048F00005983B331D78291CFFF730FD07AB2422B8
:104900001B5C1F2D09DC5A4309AFBA180123D1687B
:10491000AB401D1C0D43D5600FE0534309AAD318CB
:10492000203D0122AA40151C1A7E9106890E0D43D6
:104930003F210D408A432A431A76029F07AABD19D8
:104940003835AE783F23115C9E43B446071C8E0178
:104950001F400096664637431F40009B01311F43AE
:10496000AF70039DC9B211548D4200DA0391049EC9
:1049700001360496B5E7039E029BF6B24133002749
:1049800004961E700197864B019E1B689A7A964288
:1049900000DBAEE0019D24AF5A19403210780122AD
:1049A000011C2039161C8A403F210A400592039AB7
:1049B0002421013A514386407918039A02965C39C2
:1049C000013A1FD32425554309AE676875191F2680
:1049D00037400097EF78B7433E1C009F3743EF7096
:1049E0003F2618351F2804DC029F0F606F78B743FD
:1049F00005E000270F606F78B743059E37436F705F
:104A00002439DDE7674A11680022587A824210DAB9
:104A10008818383085782426A806AD097543A7681C
:104A2000800E281809AD0137281807710132A760D8
:104A3000EBE75D4B1B689A1D0533D67FDD7FF606DD
:104A4000AD06F60EAD0EFEF73FFB002813D0574F14
:104A5000882039780136C9B204F0BCFB3978464366
:104A6000C9B2882004F0B6FB02354543013E023D41
:104A70000021771C03D0311E1F2900DD1F213F2D8F
:104A800002DD3F20029003E0EB43DB171D4002955F
:104A90000022039FBA4228DA2425554309A81F267D
:104AA0000F1C4319374005975F780132B7433E1C0E
:104AB000059F37435F70029F3F26374005972F5C65
:104AC000B7433E1C059F37432F5425682420454398
:104AD000374E7619301CE0CBE0C0E0CBE0C0E0CB35
:104AE000E0C0236801332360D3E7019D01350195C0
:104AF00049E72C4A27681568049E2A1C4032177023
:104B00002068D07061680532517016700022597AA1
:104B10008A4210DAA9183831897824208E0689094A
:104B20004843B60EA168801909AF013138180171E8
:104B30000132A160EBE7002610AF0296029E0398B7
:104B4000864226DA3B1C00210C3B1960029B24267E
:104B5000734309A8C018427E031C01903F20824382
:104B60005A76381C082204F0F7FB2168104A71437A
:104B70005218131C019A243743CA43C343CA43C380
:104B800043CA43C32368029E013301362360029661
:104B9000D4E72368443501202B7025B0F0BDC04612
:104BA000F80A002040010020F40A0020540002000E
:104BB00000800050F0B5674B00241F680D22FB7A7F
:104BC000211C0C3BDBB28BB09A4261410326CBB275
:104BD0000C22761A07A8211C019304F0BDFB059452
:104BE00006947A793D1C02920299EB1B8B4213DAF0
:104BF000E97A0198FFF7B2FB072801D90020A6E067
:104C000005AA135C0135B342F8DA0133DBB2135461
:104C10009C42E9DA1C1CE7E701220792B8790021DF
:104C200081420ADA131C9D1AA54203DA372BE5DC10
:104C30000133F8E701311A1CF2E70792FB79002BE8
:104C400011D1002307A80793FFF73CFD07A8FFF742
:104C500098FB404B404D1B68DE79002E3BD007A8E7
:104C6000FFF7FCFD4DE03B1C3B331B7800250C3B64
:104C7000DBB20D22291C9A426941CAB20292032278
:104C8000521A0192059506957B7A3E1C0393039A6E
:104C9000F31B934214DA331C3B3319780298FFF765
:104CA0005DFB0728AAD805AA135C019901368B423F
:104CB000A4DA0133DBB213549D42E8DA1D1CE6E7A7
:104CC000EB43DB171D40BB7A5D43079B6D00ED187E
:104CD000372DB6DD92E72868311C04223F3004F0FE
:104CE0003BFB2868311C0422433004F035FB2B6861
:104CF0000799CAB2191C3F3144330A704A700A71CD
:104D00001A702D6864002B1C4B331A78073BDA733A
:104D1000291C1B7854310B704A70083909782A1CF9
:104D2000563211700F3A1678291C5731281C0E7014
:104D300059305374022204F0CDFA2B1C5B33341922
:104D40001E705C702E66113B1B7801206B660BB0E9
:104D5000F0BDC046F80A0020400100200D4B10B500
:104D60001C680D4B01681B681A1C433211704168A6
:104D7000D170191C453100220A70617A8A4204DA26
:104D80008168013201318160F7E702684433012014
:104D90001A7010BDF80A002040010020F0B5B94B90
:104DA000B94A1B6812681C6EABB006940192D27AA5
:104DB00000250C3A2E1CD2B20D2191426E41F7B261
:104DC0001A1C04974F320327147052330FACBF1BC9
:104DD0000126291C1E706C22201C04F0BDFA019BC8
:104DE0000D950E954833221C23CB23C223CB23C21F
:104DF00023CB23C224237343221CE31823CA23C3D7
:104E000023CA23C3013623CA23C3BE42F2DB019E59
:104E1000002776793C1C03960297039EB4423ADA47
:104E2000019D04982B19DD7A291CFFF797FA0DAB29
:104E30001E5C2422311C5143B446661C05960F1893
:104E40000FAEF719059E3E711F2D08DC0FAF7918C4
:104E50000123CA68AB401D1C1543CD6010E01B5CEC
:104E6000203D5A430FAB9A180123AB401D1C137E03
:104E70009906890E0D433F210D408B431D43157646
:104E800063460133029DDBB20DAA13549D4200DA42
:104E900002930134C1E7069F012404970194029C08
:104EA0002422013C62432AADAA18029B08945C3A72
:104EB000013B13D32420584300250FAE1560301852
:104EC000467E3F24A64346765560857EC178A5433D
:104ED000402421438576C170243AE9E76A4B019C5E
:104EE0001F68013CB879BC4607900994231C099EB1
:104EF000079F9A1BBA4256DA019D0122511B614459
:104F0000281CC9180138C0B2233109780B905810F9
:104F100010400A90081C2038161C8240D2B2089F0C
:104F2000059224227A432AA88E408218029F039673
:104F3000583A013F35D3242078430FAC2018C67867
:104F4000019D1F242540A6432E430B9DC6700A9E3B
:104F50006CB2B44212D01F2905DC101F0468039DF7
:104F60002C4304601BE0447E059DA606B60E2E432E
:104F70003F252E40AC433443447610E01F2904DC27
:104F80001068039E3043106009E0847E059DA606EC
:104F9000B60E2E433F252E40AC4334438476243A4C
:104FA000C7E70133A3E7394B1B68DB1980335E7811
:104FB000634648331D78AD06AD0EFEF785F8002830
:104FC00013D0334C882021780136C9B204F002F99D
:104FD00021784643C9B2882004F0FCF802354543E5
:104FE000013E023D0024701C03D0341E1F2C00DD46
:104FF0001F243F2D02DD3F21039103E0EB43DB172C
:105000001D400395049D24236B43224E00219B19D0
:10501000029DA94221DA24254D430FA81F26271CF3
:1050200042193740059757780131B7433E1C059F19
:1050300037435770039F3F26374005972F5CB74390
:105040003E1C059F37432F54181CE0CAE0C0E0CA3D
:10505000E0C02433E0CAE0C0DAE7EB43049E019FDE
:10506000DB172B40F618013704960197032F00D069
:1050700015E7044A069E1268F118CB1850321370D7
:105080002BB0F0BD40010020F80A0020F40A0020F7
:105090005400020000800050F8B5164D061C2B6825
:1050A00000243F331F782B68E1191A1C4032127814
:1050B0000134914209DAE319242058430E4B311C84
:1050C000C018082204F048F9EDE747331F780024A0
:1050D0002B68E21948331B7801349A4209DAE31944
:1050E00024205843044B311CC018082204F034F922
:1050F000EEE7F8BD40010020F87F0050F0B5364BD8
:1051000085B01B6802901A1C03913F321578334A10
:1051100000201168041C8A7A94422ADA021C4F7A11
:10512000161ABE421EDA9E193836B678B7090096AE
:10513000EF1924267E432A4FB4463E1C009F664446
:105140000196BE06039FB60EB446BE5C3F2E00DD40
:105150003F26F6B20096019E0132371C009E67443E
:105160003E77DCE7181C4130007801342D18101C04
:10517000D1E71A1C4732147800208A79904228DA45
:1051800000224D790195AA421DDA9E187678B7095A
:10519000E719039724273D1C039FB6067D43AC46C1
:1051A0000F4DB60E2F1C019D674445430397029F88
:1051B000BF187D5D3F2D00DD3F25039FEDB2BE1979
:1051C00035770132DDE71A1C493212780130A41814
:1051D000D3E705B0F0BDC04640010020F80A00202A
:1051E0000080005024235843054BC0180F231A4059
:1051F00013068169034A0A401A4382617047C04618
:1052000000800050FFFFFFF038B5051C141CFDF7AF
:105210005BFF002808D00A4B882019780234C9B2F5
:1052200003F0D8FF4443023C24206843054BC018D8
:1052300002683F231C409A431443046038BDC046B3
:10524000540002000080005010B5041CFDF73CFF24
:10525000002808D0084B882019780434C9B203F01C
:10526000B9FF4443043CA023DB0519691F22144005
:1052700091430C431C6110BD5400020030B50F4B2C
:105280001B689979884203DA1B180433D87F14E02D
:105290005A798D18411AA84202DA5B18D87A0CE0C4
:1052A0009C7A8A1A2D19A84203DA9B184033187881
:1052B00003E0141B1B193833D87830BDF80A0020DE
:1052C000F0B5D34DA024E405A3682B6897B05979B5
:1052D0009A7900AF8A18597A9B7A5218D3181A1CF7
:1052E0005A433B62D31DDB08DB006846C01A854683
:1052F0006B46FF213B6104F02FF8FF20FFF70EF80B
:10530000C44B69461B1A386A7B60C000031C0E330D
:10531000DB08DB00F860C91A386A8D466B468000EE
:10532000FB61031C0A33DB08DB00C91A00220023DF
:105330003A637B63B860B961E268B74B8D4613404E
:10534000E3602B685C79B24B013C1B68621C14D093
:105350001B19381CD97A5030202203F09DFF3D6D77
:1053600058207A6DAB00C019C3180121283B914029
:105370000A1C19680A431A60E5E79C79A44B013CB2
:105380001B68621C15D01B190433381CD97F5030A0
:10539000202203F081FF3D6D58207A6DAB00C019CB
:1053A000C3180121283B91400A1C19680A431A605E
:1053B000E4E75C7A964B013C1B68621C15D01B1914
:1053C0003833381CD9785030202203F065FF3D6D0A
:1053D00058207A6DAB00C019C3180121283B9140B9
:1053E0000A1C19680A431A60E4E79C7A013C621CB3
:1053F00017D0874B381C1B6850301B194033197865
:10540000202203F049FF3D6D58207A6DAB00C01992
:10541000C3180121283B91400A1C19680A431A60ED
:10542000E4E73D697D610025FD62FD6A386A8542D9
:1054300000DBDBE00021FA68F86903F08DFFA024AF
:105440000021BA68B86903F087FFE40500232363ED
:10545000636B3F26B34363633D6BA563786BC0B258
:10546000B86230407862E36BB3430343E363642084
:10547000FEF754FFFDF7CCFEF86AFFF7FFFEC1B25E
:10548000381C4830202203F007FF396B7A6BFB6C25
:10549000B963FA63BA6C0121994058200B1CC019FA
:1054A00091004118081C203802689A430260B86CC9
:1054B000131C002808D028390A685340626B334017
:1054C000B2431343636301E06B402363A024E4050C
:1054D000A563E36B796A3F26B3430B43E3630A207A
:1054E000FEF71CFFFDF794FEE26B80235B00134385
:1054F000E363BA6B5540A563FB6BBA6A5A40E36B32
:105500003240B3431343E363FEF7E2FCFD6BBE6B33
:10551000FB69AC460124414A7D689168A94214DBCD
:105520003F4A65461068526830402A405D6895429F
:1055300003D3F0D11D688542EDD2BD69DA60A200C7
:105540009860A95001340833E5E7FEF7F1FCA02389
:10555000DB05D96B334A0A40DA63012C3ED0651E65
:10556000F869ED004519013C002C37D02B1C083B95
:105570001A6829685B6891436A683E6A9A43A30087
:1055800039647A64013EBB62FA6A964224D0301CC8
:10559000FFF774FE011C381C5030202203F07CFE03
:1055A0007B6D0122386D9A405821131CC919820065
:1055B0008A18183A12681A420CD0BB6ABA691720C6
:1055C000D25840425043184BC018FEF78FFC7969FF
:1055D00000118855013ED7E7083DC4E7FD6A386AE7
:1055E0000135FD627D692D187D611EE7C3B2381C4F
:1055F00050300370437083700023C37003713969A6
:105600000123437100F0D8F8BD4617B0F0BDC04685
:10561000F80A0020FFFFFF00FFFF0FFF10E000E08F
:1056200040000050FFFEFFFFE9FFFF16014B18602E
:105630007047C046040B0020014B18687047C046F5
:10564000040B0020014B18607047C046000B00207F
:10565000014B18687047C046000B0020014B1868CA
:105660007047C04644010020F7B52F4F734671467E
:10567000381C0193FEF7FEFDFBF7A0FB009001F044
:1056800087F9061CFDF7FCFC284D1022041C00992C
:10569000286803F01FFE32882B68381C1A74120A1F
:1056A0005A74B2889A74120ADA74214A126805325E
:1056B000D27F002A03D0A2791A75627902E062795A
:1056C0001A75A2795A75E2799A751A4A6B68128826
:1056D0001A70120A5A70184A52889A70120ADA70AE
:1056E000164A52881A71120A5A71154AD2889A714A
:1056F000120ADA71134AAB68920A1A70124A920AB5
:10570000D2B25A709A70114A920AD2B2DA701A71F1
:105710000F4A920AD2B25A719A710E4A920ADA71FB
:105720000199FEF7BFFDF7BD0956000048010020B2
:1057300010030020FE030000FC970000FCB30000F3
:10574000F8BF000000000000000400000098000006
:1057500000B4000000C00000F7B50A4C7146061CFA
:10576000201C7546FEF786FD074A694681CA81C13D
:105770006B46B600F658201C291CFEF793FD301C22
:10578000FEBDC046F9560000A493000070B5084C59
:105790007146201C7646FEF76DFD064B201CDB692A
:1057A000311C5D78EDB2FEF77DFD281C70BDC04652
:1057B0002D57000048010020F8B5144D041C0F1CA3
:1057C000281C71467646FEF755FD114BFF215A6A9B
:1057D000117010499C620F60A0782778596B47437D
:1057E00020793F1860794006400E78430860986938
:1057F000A0210170D969281C1378FF2B02D10B78E6
:10580000022BF9D0311CFEF74DFDF8BD59570000B1
:10581000480100200804002038B50D4C7146201CBA
:105820007546FEF727FD0B4AD1694B780A49DBB272
:105830000B72012B05D0022B05D1936901225A70FE
:1058400001E0FDF7B3FD291C201CFEF72BFD38BD40
:10585000B9570000480100200804002038B50D4C5D
:105860007146201C7546FEF705FD0B4BDB68002BCF
:105870000BD00A4ADBB2106C7F211940483201700C
:10588000937001335370FFF7C7FF291C201CFEF7EC
:1058900009FD38BDFD570000080400204801002024
:1058A00070B50F4C7146201C7546FEF7E3FC0D4B9E
:1058B000261C1B7A0C4C012B05D0022B05D1A269AA
:1058C0000023537001E0FDF783FD236C7F211A78DC
:1058D000301C8A431A70291CFEF7E4FC70BDC046D8
:1058E000415800000804002048010020F7B51E4E72
:1058F0007346301C71460193FEF7BCFC1B4D00241F
:105900001B4E337A012B07D0002B18D0022B17D156
:10591000184B9B695C7813E0FDF76AFD041C002DB1
:105920000BD1FDF755FD2E23FF33013B002B01D09A
:10593000C046FAE7FDF73AFD0C4D013D00E01C1CA6
:105940000C4FFA695378327A9A4206D0FFF7A8FFD3
:10595000FB69074A5B78137201E0002CD0D1024842
:105960000199FEF79FFCF7BD8D580000FF2C010048
:105970000804002048010020F7B5164D7346071CA7
:105980000E1C281C71460193FEF774FCFFF7AEFF56
:10599000114C8022236C52421978606C0A431A70B1
:1059A000391C321C03F096FC236CF6B218787F2267
:1059B0009043311C1140021C0A431A704834A670EF
:1059C000FFF72AFFFFF792FF281C0199FEF76AFCF8
:1059D000F7BDC0461959000048010020F8B5FBF793
:1059E000EDF900F0D5FFFDF74BFB194C051C666B7C
:1059F00003F0D6FA7060FFF737FE164B1B68188865
:105A0000E36B020A5A711871FFF7A6FEE26BC6B289
:105A100096712B68EF790136FF1801374743381C20
:105A200000F0EFF93A1C0021051C206403F094FCFF
:105A3000231C4833013500225E7065649A7003F0C0
:105A4000A9FA054B5860054B1A78E36C1A70F8BD3B
:105A500048010020040B00200804002046000050EC
:105A6000024BDB691878C0B27047C046480100207D
:105A7000024BDB699878C0B27047C04648010020ED
:105A8000014BDB699870704748010020024BDB69CD
:105A9000D878C0B27047C04648010020014BDB698E
:105AA000D870704748010020014BDB695868704787
:105AB00048010020024BDB695A6858607047C046B5
:105AC00048010020024BDB69187AC0B27047C0461B
:105AD00048010020014BDB69187270474801002023
:105AE000024BDB69587AC0B27047C04648010020BB
:105AF000014BDB695872704748010020024BDB699B
:105B0000D87AC0B27047C04648010020014BDB691B
:105B1000D872704748010020024BDB69987AC0B206
:105B20007047C04648010020014BDB6998727047FE
:105B300048010020024BDB69187BC0B27047C046A9
:105B400048010020014BDB691873704748010020B1
:105B5000024BDB69587BC0B27047C0464801002049
:105B6000014BDB695873704748010020034BA022AA
:105B70009B691A701A78A02AFCD07047480100204F
:105B8000034BC2B29B691A701A788242FCD07047EC
:105B900048010020014B5B6A1870704748010020E3
:105BA000024B5B6A1878C0B27047C04648010020BB
:105BB000014B1B6818887047040B002008B5FFF7DD
:105BC00095FE024B0022DA6008BDC04608040020A2
:105BD00070B5074B074CDA6BE668011C9579586C79
:105BE0002A1C8019751903F075FBE56070BDC0466D
:105BF000480100200804002073B56C46E271194A80
:105C00000734556D2E7886422AD1FF2028701366FE
:105C1000131C94331B6820789B6880009165D465C1
:105C20001871114B06980C7818608878536B604394
:105C30000C79497900194906490E41431960916967
:105C4000A0230B70516DD3690A78FF2A02D11A780C
:105C5000002AF9D00A78FF2A02D11A780A2AF3D04A
:105C600073BDC046480100200804002070B5144CE4
:105C7000636B1D79EDB2012D21D1854058781E78D6
:105C8000000230439E7836043043DE7836063043D7
:105C9000284214D0FF2018710A48A16302608C7852
:105CA0000D78C9786C434906490E074A6143506B29
:105CB00092690160772111701A79FF2AFCD070BDBA
:105CC000C80100200804002048010020014BDB6BC4
:105CD00018787047C8010020014BDB6B18707047C3
:105CE000C8010020014BDB6B58787047C8010020C9
:105CF000014BDB6B58707047C8010020014BDB6B18
:105D000098787047C8010020014BDB6B9870704792
:105D1000C8010020014BDB6BD8787047C801002018
:105D2000014BDB6BD8707047C80100200023036073
:105D30000B601B4BF7B59A4230DC1312194C122B37
:105D40001BD89B00E418646E002C27D0E368013B4D
:105D50005D1C23D0D5B2019565681E1CEF5C019DCA
:105D6000013BED1BF4D42768B300DB59002B15D0A1
:105D70005B190360A3689B5D0EE0A36B266B013B80
:105D80000CD35D00755B551BF9D4E66A9B00F25895
:105D900052190260626BD3585D1B0D60F7BDC0469F
:105DA000FFEF000048010020C02208B5D2000B4BD5
:105DB000904206D19B691A78052A0DD005221A70E7
:105DC0000AE01B6C84221B7892005B065B0E9B181A
:105DD000984201D1FFF764FD08BDC046480100208C
:105DE00038B5051C1C1C181C8D4209DB0498954213
:105DF00006DAC01A6D1A6843511A03F0EBF920183D
:105E000038BD044A033013688010800018181060F1
:105E1000181C7047100B0020F8B501254E1E6C00B1
:105E2000B54202DA165FB0420CDAA61E1D5F115FA2
:105E30009B5F401AEB1A5843935FC91A03F0CAF9E3
:105E40004019F8BD0135E9E7014B18607047C046BD
:105E5000200B0020014B18687047C046200B002023
:105E6000014B18607047C046180B0020014B1868A2
:105E70007047C046180B0020014B18607047C046A1
:105E80001C0B0020014B18687047C0461C0B0020FB
:105E9000014B18687047C04614030020F0B5394F15
:105EA0008BB0754603950E1C051C7146381C0024EA
:105EB00001920293FEF7DEF96A464F239482201C7A
:105EC000137504A9221C0494FFF7D0FE2E4B201C4E
:105ED0001A685368013B10D3990074581168A4469E
:105EE0004C1EF7D3976879435918013189004959F5
:105EF0006746C91B4018211CF2E7D16803F06AF914
:105F0000224B071C1C68224E6588002D03D1336884
:105F100040229A600CE0A1883268681A8001791AE0
:105F2000009203F057F96E2800DD6E20009B986008
:105F3000A37964225343019A5343029A134122786E
:105F4000002A04D0124A1268926853439B113268A7
:105F500006A9D36001230B7002234B708B707C2346
:105F60005B420020CB7008AA5023888008950B71F3
:105F70000997FFF77BFE03480399FEF793F90BB0EF
:105F8000F0BDC0463D5E000010030020180B00204D
:105F900014030020F0B5754687B00395274D029194
:105FA000041C7146281C171C1E1CFEF763F9244BA9
:105FB000FA691B68DB799A40131E00DC0123214A31
:105FC000311C1268D068584303F004F91E4B00904E
:105FD0001D682F68BC463A1C6B68561E16D3191CE8
:105FE0007143C918890061180439013B0CD3AF68AB
:105FF00002985743DF1901377F00385E009F4743FF
:106000000868C01B0860EFE7321CE5E76946DBB2B1
:106010004B748B746023624604200B7510234B7500
:106020000A74C874221C04A9FFF720FE03480399D0
:10603000FEF738F9012007B0F0BDC046355F00001B
:10604000180B00201403002010030020F0B51D4D94
:1060500085B0744601940E1C041C7146281C171C44
:10606000FEF708F9184B391C1B68D86803F0B2F822
:10607000164B00901B6819698A00A2180B1C043A81
:10608000013B07D35F00F05F009F47431068C01BD0
:106090001060F4E76A4661230126C9B20420137335
:1060A00010235373167251729172D07202A9221C7E
:1060B000FFF7DCFD281C0199FEF7F4F8301C05B051
:1060C000F0BDC046ED5F0000140300201003002067
:1060D000F0B5244C85B07546019500911D1C7146A4
:1060E000071C201C161CFEF7C5F86878B378717879
:1060F0004000013098404900AB780131994080035D
:1061000003F068F800226946B4238A81051C0B73EA
:10611000101C02A90292FFF7A9FD134B201C1E6858
:106120003268013A0DD37368191C5143C9188900AC
:1061300079180439013BF4D30C68A40B6C430C6050
:10614000F7E73369009C9A00A218043A013B04D394
:106150001468A10B69431160F7E70199FEF7A2F8F3
:1061600005B0F0BD7160000010030020F0B589B0EB
:106170007446069002912B48714607940392FEF7ED
:1061800079F8294B1E68294B34681B6800940493E6
:10619000274B1B680593274B1F68009C013C00940C
:1061A0001FD374680099244A6143A5186D18069B93
:1061B000AD0001915D19013CEFD30399286802F00D
:1061C000BBFF04990B78002B07D0059A019953184F
:1061D0001B5DBA6858435043001300042860043D17
:1061E000E9E7124B34691E68114B1F68013C12D35A
:1061F0000299A5004859039902F09EFF3378002BBD
:1062000005D03B19BA33FF331B7858438011029AEB
:1062100000045051EAE703480799FEF743F809B034
:10622000F0BDC0460D61000010030020180B0020D7
:106230001C0B002014030020FFFFFF3FF0B51A4C99
:10624000071C0E1C85B07146201C7546FEF712F81F
:10625000164B2A371B683A78997C4A433168920971
:106260008A4200DA0A1C997B4A43921101921B7BF5
:106270009A4200DA019302A900228A8001220A7060
:106280004A708A707C225242CA701F220A7106200C
:1062900001AAFFF7EBFC201C291C019EFEF702F867
:1062A000301C05B0F0BDC046DD610000180B0020B9
:1062B000F0B5754697B00C1C1195714600250F90EE
:1062C00013AE9A4809921093FDF7D4FFFAF776FDC2
:1062D000FAF780FD3580964E4921336869445A6843
:1062E000186812AF0A709A684A2338706B444B20C2
:1062F0001A7068440423037013A951230B700132F0
:10630000099B92009A1812A90220FFF7AFFCA31D67
:10631000DD770233DD777F27631DDF773168E31D8B
:10632000DF774B680A68013BDBB20B93814B824FEE
:106330001E68824B013A1B6852B20C93804BB446E4
:106340001B6807970D9380231B06069305950395FD
:10635000002A00DAA3E00B98550043B20895002B01
:1063600000DA9AE08E68551C75430135ED18A800D7
:10637000099F0095109D9E00C059AE59069F861B2F
:10638000B74200DA0696079DB54200DD07966646DD
:1063900037784E68002F09D0351C55430C9FFF18E5
:1063A0007F5D0D9D7843AD686843001356431C9F85
:1063B0009E19B600F6590F9F360C301A009E7500D4
:1063C000E8536646002854DB0F257557A84212DBB8
:1063D0002768451B7D1925606569102701356561B2
:1063E000F757F67B656876B2B84201DC861B00E0A1
:1063F000BE1BAE196660E568A84204DDDEB2D7B206
:106400000E960A97E0606646357BA8421BDB251C8A
:1064100008351F26AE579E4200DAEB77E51D1F2692
:10642000AE579E4200DDEB77A51D1F26AE57964264
:1064300000DAEA77651D1F26AE57964200DDEA773F
:10644000059F0137059785B21E9F5E000195BD5BD4
:10645000019F7D192F1C1E9DAF531D9D089EAF5B94
:10646000019EF5191D9F089EBD53039F3F1803977A
:1064700011E011257557A84206DCA768451B7D1958
:10648000A560A5690135A5612569A84200DA2061EA
:10649000039E361A0396013B61E7013A58E7244B05
:1064A00003981B680125D96802F094FE7C2314A987
:1064B0005B42221CCB70E06176231C320026281C34
:1064C0008E800D700B714D708D70FFF7CFFB059FA7
:1064D000A21D27621F21631D51561F229A56184B79
:1064E0001B68914201DB1D7100E01E71069D079E35
:1064F000E562231C0A9D0E9F283326635D701F7082
:106500000C4BE6681B6801251A7A964206DA0A27C0
:10651000DA5F2369D117DD0F9A424D410348119983
:10652000FDF7C0FEE8B217B0F0BDC04651620000F2
:1065300010030020180B0020FFFFFF7F1C0B002022
:1065400014030020F0B589B075460C1C0390714609
:10655000434804936E4605950027151CFDF78AFEF7
:10656000FAF72CFCFAF736FCFCF78AFD0123B78317
:1065700033763C4E6A46306806A9037C0220537687
:1065800093760423D3765A2313772A1CFFF76EFBE6
:10659000231C2A331F7080231B066363324BA363C3
:1065A00033681A69314B1968314B1E68314BB44658
:1065B0001B680193013A43D3049F9600BF59A85921
:1065C000C31B676B9F4200DA6363A76B9F4200DDCA
:1065D000A3630B78002B06D06746BB18BA33FF3392
:1065E0001B78584380110E9FBB591B0C1B1A11D4EA
:1065F000487B834202DB019E012030710F20085648
:10660000834212DB2768181A38182060606901304D
:1066100060610AE011200856834206DCA668181A59
:106620003018A060A0690130A061039F50003B5268
:10663000201C2A300678B34200DA331C0370B9E715
:106640000A4B2A341B6822781B7A00209A42404168
:10665000C4B205990248FDF725FE201C09B0F0BD23
:10666000E564000010030020FFFFFF7F180B0020EF
:106670001C0B002014030020F0B585B003931A4BC7
:1066800000901C680291256801926F1E1BD36368FD
:1066900000981E1C7E43F618B6008619043E013B86
:1066A0000FD3A168012269438C469C449444604600
:1066B00001998000425830689446844461463160B4
:1066C000ECE73D1CE1E72269039D029C9300E11881
:1066D000E8180023043B013A04D3CE58C558741976
:1066E000CC50F7E705B0F0BD10030020F0B57446BC
:1066F0008FB0079403900C1C6448714606926D4657
:10670000FDF7B8FD0023AB84614D08AE2B68212056
:106710005F6999699A6822236B4437701A7023263F
:106720000132684404236E449200017033700220E9
:10673000A02308A909AFA2183B70FFF797FA2868B1
:1067400041698C4683694F1E02972ED3029A664692
:106750005A435E430192039DF2187600019F7642F0
:106760005200AA180596069D019EBF00ED197600FD
:1067700004950196023A013B15D38668049F4E4367
:106780009E199D0001367D59B6003659059F2D0C86
:10679000AD1BBE18019FF553EE17AD197540168855
:1067A000AD191580E6E70299CCE70AA9DBB262468B
:1067B0004B708B707E2301325B420A70CB700026D7
:1067C000A1230120039A8E800B71FFF74FFA314B02
:1067D0002F4C1A682168304B88691D681660AC46DA
:1067E000031CFF25013B13D34C69039F4443E4186A
:1067F00064003C5F67463F79BC42F3DB9E4200DAAF
:10680000DEB29D4200DDDDB217683C191460E9E795
:106810000CA901240423CB7000276423201C8F8043
:106820000C700B714C708C70FFF720FA194B1A68C2
:10683000194B12681B685B799A4220D9144F69B2D0
:106840003B68039F9A695B695A4373B25B1AD90F1D
:10685000CB182341EB18AD18A540DBB2E95F9B18BC
:10686000039DA340EB5E271C994208DDB218039EEE
:10687000A240925FD917D70F93424F41FFB203480E
:106880000799FDF70FFD381C0FB0F0BD8D660000B5
:106890001003002014030020200B0020F0B58BB063
:1068A000744603900E1C3348714607940292FDF71C
:1068B000E1FC314B1D68314B28681C68A769391C05
:1068C00002F03AFC2E4B1B68DB799840002800DC74
:1068D0000120EB680299584302F07CFC6169BB001F
:1068E0005B424A1E8446381C029350437B005C4244
:1068F0005343C019039D8000F3180494281805938E
:1069000000910024009D013D009515D3059E021CB9
:10691000A61906963B1C043A013B08D3069E5D006F
:10692000765F654675431668761B1660F3E7029A34
:10693000049B8018E418E5E721242225FBB208AA6D
:106940006C446D44117023702B7009AA60232326B8
:1069500025240420137008A91023039A6E446C4464
:1069600030702370FFF782F902480799FDF79AFC0F
:106970000BB0F0BD3D6800001403002010030020A0
:10698000180B0020014B18607047C046280B0020F0
:10699000014B18687047C046280B0020014B186057
:1069A0007047C046240B0020014B18687047C04652
:1069B000240B0020014B18687047C04618030020C4
:1069C000F0B5714689B0774657480797FDF752FCF6
:1069D000564C002120683E222C3002F0BDFC20687D
:1069E00000210A226A3002F0B7FC206800210A2246
:1069F000743002F0B1FC206800212822803002F0BF
:106A0000ABFC206800210A22A83002F0A5FC206817
:106A100000210C22B23002F09FFC206800210C22E1
:106A2000BE3002F099FC206800210C22CA3002F02E
:106A300093FC206800210522D63002F08DFC2068EE
:106A400005220021DB3002F087FC394B25681C68E9
:106A5000A168E6684F00B81B7100000202F0BAFBA3
:106A6000236962695B000490A860981A51000002D3
:106A70000192029302F0AEFB2E4B05901B68E8607A
:106A80005A1DD27FE08C944670437A421F68029967
:106A90005B680397278D49420293634606918018ED
:106AA000002B0BD003990139714302F093FB01993C
:106AB000069A4F43061C0299B8180AE00299013958
:106AC000714302F087FB0199069A4F430399061C14
:106AD000B818019F0139794302F07CFB864200DA45
:106AE000061C049F0299AE61039E7B000139059F3D
:106AF0000902013E591836027B009E1929616E6118
:106B0000E08C2F1C000402F065FBF0373860208D0C
:106B1000311C000402F05EFBF4352860079902483E
:106B2000FDF7C0FB09B0F0BD61690000180300204B
:106B3000280B002010030020F8B5134C7146061CEA
:106B4000201C7546FDF796FB104B00211A68201C8F
:106B5000131CB23319700E4B1B681B7C013BDBB25C
:106B6000FF2B0DD059008F5B191C583149003CB2E6
:106B70005118002C01DD8F80F0E700248C80EDE7B8
:106B8000291CFDF78FFBF8BDD96A0000180300200F
:106B900010030020F0B5744685B003940E1C041C4D
:106BA00071462148151CFDF765FB204B1B681A6ACE
:106BB000D2B2013AD2B2FF2A2ED0F7685300FF5E5C
:106BC0006868BC4667689100029767460190002F8D
:106BD00019D0E068C05E002815D002987768405848
:106BE0000290FF5E0298C01B401084460298071C6A
:106BF00001986744C752A7687958B768F85E081AC1
:106C00004010411805E0029847580198C752A768FC
:106C10007958A868C152CCE7237803482B700399B0
:106C2000FDF740FB05B0F0BD356B00001003002000
:106C3000F7B576460196154E051C0C1C301C7146A6
:106C4000FDF718FB124F0A2238680021A83002F025
:106C500083FB104B3F681B68301C1A6AD2B2013AA2
:106C6000D2B20023FF2A0BD0EE6851007352E668BF
:106C70007352B9180E1C68367031B3700B71EEE7A1
:106C80002B7001992370FDF70DFBF7BDD16B000050
:106C90001803002010030020F7B5124E734671460A
:106CA000301C0193FDF7E6FA0F4D002428680527F4
:106CB000031CB2331C703A1C211CD63002F04CFB72
:106CC00028683A1C211CDB3002F046FB2868211C96
:106CD0000A22B43002F040FB301C0199FDF7E2FAC1
:106CE000F7BDC046396C000018030020F0B587B02E
:106CF00074467146039050480594FDF7BBFA4F4B1C
:106D0000039C1A682568531DD87F1168636854680E
:106D1000002810D0181CD31DDE7F4B1E4849013CB3
:106D20000968240202948C689B1BF6012F1C1B022D
:106D30003619C9680FE01F1C631ED41DE47F01399A
:106D4000091B090202913E49E4010968281C8E686A
:106D5000C9681B02611801910632D27F002A00D057
:106D6000181A374A12681279012A30D03549920030
:106D700009688A18147E517E957ED27E9446FF283B
:106D800006DC0138FF38604380110130FF3009E034
:106D90001A1AFF2A06DC013AFF3A4A4390110130E1
:106DA000FF30181AFF2F06DC7A1EFF3A5543AD114B
:106DB0006F1CFF370BE0029CE21BFF2A07DC013A45
:106DC000FF3A67465743BF110137FF37E71B1D4A9C
:106DD0008019156876002C6899196043049402F0B4
:106DE000F9F90199029A6E68041C781849007043F9
:106DF000511802F0EFF96B1DDB7F9C4207DD04990F
:106E0000CA1A944204DB0C1C013CE41A00E01C1C6E
:106E10000635EB7F984205DDF21A904203DB013E16
:106E2000F01A00E0181C039A05995060146002489B
:106E3000FDF738FA07B0F0BD8D6C0000100300209C
:106E400018030020280B0020F0B5724689B0714667
:106E5000051C49480392FDF70DFA484B1B685A6818
:106E60001C6A013A120201921A68013C013A1202AC
:106E700002926700A600621C77D0414B1B681A1C67
:106E80003632117801291ED1E868C05FAA698446AC
:106E9000188F844515DD3A339C462B696046DB5BD1
:106EA00000930378009898420BD91155B523694691
:106EB00000228A820E200B7504A90492FEF7D6FEEA
:106EC00001E0002313552E4B1B6800933B331B78C6
:106ED000012B46D1EB680098DA5FC38F9A4240DD00
:106EE00069688A59FF2A09DDA8688359FF2B05DDE7
:106EF00001998A4202DC029A934232DA6869214A95
:106F0000831903211068022259569A568A1A011CC5
:106F1000F031096812024A43012159561B78F430B6
:106F20005BB2C91A036809025943121409140A20F2
:106F30008A4201DB504301E04843111C02F04AF948
:106F4000009B3C331B7898420BDDA96901230B554C
:106F5000002206A9B6230E208A8006920B71FEF746
:106F600085FE013C023F043E85E703480399FDF797
:106F700099F909B0F0BDC046E96D0000100300208A
:106F8000280B002018030020F0B574468FB071461E
:106F90000794071C01249848FDF76CF90025FEF7BB
:106FA00007FEFEF70BFE0594944B954C1B68186A80
:106FB000854200DBCAE0216868000B1804900433A6
:106FC0002A201A5E3E215B5E0AA80A920B93FFF705
:106FD0008DFEFA680498135E002B00DC89E07B6864
:106FE000AE009B5908A80893BB689B590993FFF70B
:106FF0007DFE0A98099906900B98089B081A22684A
:107000000393C317C01858405319A8331C787D4BFD
:107010008C461B68002C01D1503300E051332C1CEE
:107020002834640014190621645E1B78002C09DDE5
:10703000984207DA039C0698211ACC170919614077
:10704000994272DB0CAC217880235B420B43DF2139
:107050000B4040210B43B8692370415D0123207828
:1070600019401023984309010F23014305989943C0
:1070700001432170039908126178184099430290E6
:107080006046069101120901019102980699084390
:1070900001991840039B01436046A370E070FB68B0
:1070A00004986170195A0B1C09B2FF2900DDFF23F7
:1070B000EC3223711368201C291C9847201CFEF712
:1070C00087FD4F4B049C1A681319191C5631002078
:1070D000095E5219A832002901DD012100E00021DA
:1070E0001170796804338A595A85BC68A259DA87C5
:1070F0001BE02B1C226828335B00D31806201B5E84
:10710000002B12DD0CA80023059C43604023234381
:107110000A9A03700B9B11051C122401090F2143CD
:1071200041708270C370FEF753FD354BF868049CC4
:1071300019682B1C2833025B5B00CB18DA80059A98
:107140000F2301321A40013505922DE71B690F26E6
:10715000591E0491049A1E40013235D0284D049ADC
:1071600028685200831805921A1CCC320021525E06
:10717000B433002A0FDC1B881AB2002A16DD002166
:107180000CA80C914160802131430170FF2A00DD81
:10719000FF23037108E000229B5E002B06DC0CA895
:1071A00000230C9343600670FEF712FD2B680598D0
:1071B00004991B181A1CB4331B88CC320139138074
:1071C0000491013E0F23C5E7236838781A1C2C323E
:1071D00010708632117811760122002802D10A1C23
:1071E000511E8A41E2331A70FEF738FB02480799B4
:1071F000FDF758F80FB0F0BD296F00001003002014
:1072000018030020240B002010B502248B780457AB
:107210005AB2944200DD8370CB78032404575AB2EB
:10722000944200DAC3700B78002404575AB2944297
:1072300000DD03704B78012141565AB2914200DAC9
:10724000437010BDF0B593B00991099C0793C368D2
:1072500064001D5F0B94059554000394059E1C5F0C
:10726000099D43683619AD000696013196000895D0
:107270005D19071C0D91985905992B6860434B4384
:107280000699C0180A9201F0A5FFBB6800B22860F9
:10729000089A98599D182B684443059806994343CA
:1072A000E01801F097FF3969089C00B228600422B9
:1072B0000819079902F00EF8FB680B9D039C5A19F8
:1072C0001B19108819884118118000221A807B69C7
:1072D0005A191B5B0025505F19B288420ADA1380E5
:1072E000BB69039D1A190B9C52781B195A70BB6914
:1072F0005A5D1A550A9C01340C94231C01240F2B4F
:107300000ADC199D0898A9592A189C4015680C4058
:107310002C4314600133F1E7199D0023AB51099D03
:107320000A9E211CB140AC40199AA446CD430A9E46
:10733000B3421ADA1068014214D0099EB34203DA4C
:107340006446204310600AE0099EB34207DD199CA1
:10735000089EA019046801269E4026430660106816
:107360002840106001330432E1E7079C247864B2BE
:107370000594079D0123EB56059E9E4200DDACE07F
:10738000079DAD786DB2079E03950323059AF356CA
:10739000039C01329C4200DD9DE0794B039C1B68FD
:1073A000189D9E68724301321219AA181178B446CA
:1073B0000139112900DC8BE0012005234042002423
:1073C000013B002B29D06F4EF51801267642AE57AF
:1073D000059DAE190136654675436A4E0495F5184C
:1073E000ED79039E6DB20195189DAD19049EAD19FE
:1073F000019EAD1904956D78013D0F2DE0D8099ED1
:10740000B54202D00A9EB542DAD1461C03D0A8424A
:10741000D6D00124D4E7281CD2E7002C58D012295A
:1074200055D10D9C052514700695069C013C0694CB
:10743000002C4DD0534B069E07249A19131C013B78
:107440001B78059E5BB2F6184D4B14571A68331C17
:10745000926801335343039D01332C19189D1B1966
:10746000EA181178B4460029DFD11A9E5B009B5BB5
:10747000002BDAD0122111707868089D4619F8683F
:107480000B9D3268401901900088089D009001B260
:10749000181C60434A4300021018BA685419654624
:1074A00022685D4351432D02AC466144049100992A
:1074B000019A5D18ADB215802DB2291C01F08AFE2B
:1074C000291C3060049801F085FE2060ADE7117042
:1074D000039D013557E705924BE70022AA56079E08
:1074E0000123F3569A421BDC079C0223E356079DB7
:1074F00003202856511C834210DC2148189D006847
:107500000A9E806841430131C9186918087801381A
:10751000B04201D10D9C0C700133E8E70A1CDEE794
:107520000C9E68461196002339223A260D9D8387CA
:107530006A4402236E44137033703B207C23109501
:107540000EA9012568445B4210AC0D7003700FA9B1
:107550000C230B70221C0EA90B20FEF787FB1023B7
:107560006370A3700423E370462323710B20402330
:10757000211C199A25706371FEF778FB13B0F0BDDA
:1075800010030020AC930000F0B599B075460B9144
:10759000061C714650480D950C920793FCF76AFE45
:1075A0000024F0686300C25E002A00D189E0B1695E
:1075B0000125CB185D571B7808955BB20693013DFA
:1075C0000495089D049801350995A84279DC069F29
:1075D000013F069B01339F4270DC404B04991B68BE
:1075E00001319A680B9851434B1CDB19C55C013D76
:1075F0000F2D61D8AC425FD007985B001B5A7069B1
:107600000A9363001B5E36480068008984460A9826
:10761000834251DC6046434306989B1109180131AF
:1076200007984900095A8B4246DA09994A43BA1821
:1076300001325200125A93423EDAA54202DB2B1C61
:10764000251C1C1C3269A100511805920FA80422A8
:1076500001F040FE059BA90059180FA8FFF7D4FDC3
:1076600072696B009B5E089916930A9B139117939E
:1076700010A900238B80012306980B7006234B7002
:107680008B70802312905B4204200343CB700B204D
:10769000232312AA0B7115941495FEF7E7FA0B99A0
:1076A0000C9A079B009101920293221C301C291C0A
:1076B0000FABFFF7C7FD2C1C02378AE7049D02358C
:1076C0007EE701340F2C00DC6BE703480D99FCF7D3
:1076D000E9FD19B0F0BDC046297500001003002077
:1076E000240B0020F0B5ABB07546071C0C91D248B6
:1076F000714613920D931A95FCF7BCFD139A0D9BDE
:10770000381C0C99FFF740FF309ECC4B3278012A91
:1077100007D13A78012A04D91B689C881494DB8825
:1077200003E01B681D8814955B880F261593069649
:10773000069B069D013B002D00D185E1139C9A001C
:10774000069D12590795EA400F9206930F9E002E50
:10775000EED0079C102CEBD00F9E0120064200D1EA
:1077600062E1079D069C7B68A400AE001959BA68C7
:107770009B590894C91A14599359CD17E31A4C19F7
:107780006C40DD1710945C196C40109D0B94A54261
:1077900002DD1190180203E0002408021194191C64
:1077A00001F018FD3C691CADA11904221290281C9F
:1077B00001F090FD08982118281CFFF725FD796835
:1077C000089CFB680859079C24906100CC5E0994D2
:1077D0007C68A4590A94069C6200D45E099B099AAD
:1077E00058430A9BA2186343111CC0180E9201F063
:1077F000F1FC25900A98BB68089926905858099A78
:1078000027909E59504374430E99001901F0E2FCF1
:1078100000242890002121A80C22299601F09CFD2B
:107820002C5701260994AE57022416962C57844BE8
:107830001794ED781B686DB218951993099C169DE5
:10784000AC4200DD9FE0099D179E2D020E95089623
:107850000999089D189E0131B54200DD91E0199CFF
:10786000089EA0680C9C414301318919645C8446E0
:10787000231C013B0A940F2B44DD00200122052329
:107880005242041C013B002B2BD06E4EF5180126F2
:107890007642AE57099DAE19013665467543694E6D
:1078A0000595F518ED79089E6DB204950C9DAD19FE
:1078B000059EAD19049EAD191B956D78013D0F2DE8
:1078C000E0D8069EB54202D0079EB54205D1561CAF
:1078D00005D0AA42D6D00124D4E70120D2E72A1C41
:1078E000D0E7013249D04900002C01D1002802D153
:1078F0000D9C605A11E00D9D685A0A99113901F0EA
:1079000069FC0AE05E1C38D0069CA34202D0079DA9
:10791000AB4232D10D9E4900885B00282DD0089CD7
:1079200003232102013B28D3119D24AC27AA9E00EA
:10793000002D09D095590E9A551B129A5543A259FC
:107940002D12551B6D1A08E0A559129C4D1B65435D
:1079500092592D120E9E551BAD1BEA17AD185540BE
:10796000FF2DDFDC80267600751B45439C0021AA95
:10797000A6582D127519A550D4E7089C0134089417
:1079800066E709915AE7239B219C9C4200DD1C1C61
:10799000119E002E06D10B9D331C002D0DD0109E84
:1079A00010950B960B9D1099A80101F013FC3F2830
:1079B00000DD3F20234B1818037C2D21149E159DBC
:1079C000C81A70436B43C01801F004FC4443229B67
:1079D000A412A34228DD079E069DAE4201DB079557
:1079E00006961DA91F9300238B8001230B70022391
:1079F0004B708B707C235B42CB700B2027231FAA1C
:107A00000B712094FEF732F90C9E139C0D9D00968D
:107A10001CAB01940295381C0799069AFFF712FCDB
:107A2000069B079E07930696079C0F9D01346D08E1
:107A300007940F958AE6C04685760000240B002047
:107A400010030020AC9300002C4B3D7018680121FE
:107A50001C304942102201F07FFC069C251CF8686E
:107A60006600825FE3B2002A24DD3A7801323A7080
:107A7000224A1268121915779D4219D07A68A3001C
:107A8000D158A8001150BA680790D1581150FA681F
:107A90006800925B011C101CFA6888523969079AC9
:107AA0008818C918042201F015FCF86800238353D4
:107AB0000135EDB20134102CD1D127A90023279331
:107AC0008B800F4B7F201B680C9D1A680A705C68C6
:107AD0004C709A68CB788A70834301200343121854
:107AE000CB70AA18302306200B71FEF7BFF80548AB
:107AF0001A99FCF7D7FB2BB0F0BDC0461803002045
:107B00001003002085760000164BC2171B688018F2
:107B100050401A1CF03270B5F4331468CA17891833
:107B20001D68514044434D4324142D14AC4202DBE4
:107B3000231C2C1C1D1CA001291C01F04BFB0A4E10
:107B40003018037C281C002B0BD05A22D21A523634
:107B50005200955B5B0068439D5B00146C432414EA
:107B6000001970BD18030020AC930000F0B57546F5
:107B7000A3B0041C0F1C844871460D9508921E1C6E
:107B8000FCF778FB814B1D6823782A6A934200DD5D
:107B9000131C01213B70494210220EA801F0DCFBAE
:107BA00012A8FF21402201F0D7FB794B2D6A1B68F8
:107BB00009950A93774B00251B6804950B93049D48
:107BC0000998854257DA0898049DC0686D00435FA4
:107BD0000795002B4AD0049B0A9D20339B000B98ED
:107BE0005B592578C0681B010C9500251B1805956D
:107BF000012506936D4205980C99C3B28B421FD2A2
:107C00000598E16843005B5E002B15D0830007995F
:107C10007068425E6168C8580799801AB268525EFF
:107C20009446A268D1586346C91AFFF76DFF0699BA
:107C3000884201DA059D0690059A01320592DAE73D
:107C40006A1C13D00EAB5957AA0012AB013108D0F1
:107C500098580699884209D99950049B0EAA535501
:107C600004E006980EA99850049A4A55049B0133E3
:107C7000DBB20493A3E700252378AB4229D90EA9F0
:107C80004A5D53B2013321D0D2B2900004926268AF
:107C9000AE0093597968A2680B509359B9680B509C
:107CA000E1686B005A5A04994B00F9685A527A6994
:107CB000236910189919042201F00CFB049A344B23
:107CC0002032910012AA1B68B258CA500135EDB299
:107CD000D2E700252378AB423CD90EAE735701336F
:107CE00035D1E0686B00C31800215A5E0493002A66
:107CF0002DD0264A00201268136A9C46604526DA79
:107D0000089E4200F6680196B65E002E1CD1FB6804
:107D10009A180021565E002E16D166680EAB585593
:107D2000A90073587E6880003350A6687358BE68F7
:107D30003350049E338813807A69236910185918C8
:107D4000042201F0C7FA02E00130C0B2D6E70135E3
:107D5000EDB2BFE70D4B002218680D4B1B68197F71
:107D6000046AA14202DA0EAD695C00E0FF21013233
:107D7000D2B219770133102AF1D103480D99FCF7DB
:107D800091FA23B0F0BDC0460D7B00001003002027
:107D900018030020240B0020F0B59BB074460B9113
:107DA000051C7146634812940C92FCF763FAFEF7C7
:107DB00001FE614B0D901B681C6A013C611C00D1E7
:107DC000B1E0EF686600BF190A9607970026BE5F0C
:107DD0000696002EF1DD6A69A10094468C44634644
:107DE00005910220032618569E57534B00271B6807
:107DF0000E961093514B02971B68049709930E99A6
:107E0000884262DC61460123CB56002206028A5674
:107E10000F9311960F9F431CBA4254DC109F511CC4
:107E2000BF68089179430B9EC918735C0397102BA8
:107E300023DD0523013B002B2BD0414EF718F6180C
:107E4000013EFF7936787FB276B201979619039F8B
:107E5000013677430B9E0097019F3618F719009E55
:107E6000BE1913967678002EE4D0099F76B2BE191B
:107E7000F67E76B2A642DDD108E0002B09D00D9F38
:107E80001B26FB189E570023A64202D10C9E4900D8
:107E90008B5B6F68059E1202B959119FC91BCE17E3
:107EA000891971405943049FAE687F180497059F54
:107EB000F159029E8A1AD11752184A405343F618B4
:107EC0000296089AA6E7181C99E70699049801F00B
:107ED00081F90699061C029801F07CF9011C301CFE
:107EE000FFF712FE099EB369984200DA181C2F6949
:107EF0000A9E15A9B853079F80B20023FB5E189015
:107F0000199300238B8001230B7003234B708B701C
:107F10007C235B42CB701220B02317AA17940B71FD
:107F2000FDF7A4FE49E703481299FCF7BBF91BB023
:107F3000F0BDC046397D000010030020180300206A
:107F4000AC930000F0B5734687B0061C0F1C2548A3
:107F500071460593FCF78EF9F8F730FF224B0021AC
:107F60001B6803900493214B02911B681D6A013D1D
:107F70006C00AD00A31C23D0F268135F002B1CDD46
:107F800003990A8E934218DA32690499135B89695E
:107F90008B4212DC7A687168135F4859BA68C01A5C
:107FA000135FB2685159C91AFFF7AEFD03994B8EA2
:107FB000984202DA029A01320292023C043DD9E769
:107FC0000B4B02991B682C33012902DD1A78013210
:107FD00000E000221A7003480599FCF763F907B026
:107FE000F0BDC046E57E000018030020100300200D
:107FF000440000200F4AC378126810B551685CB283
:1080000001398C4201DA0133C370837859B20029F7
:1080100001DD013B83704378126859B2013A914205
:1080200001DA0133437003785AB2002A01DD013BC3
:10803000037010BD10030020F0B595B07546059192
:10804000071C7146CD48079209930B95FCF712F96E
:108050000EA900238B80CA4B059C1B689A68586840
:108060001E688A70012301324870CB70A218082361
:1080700006200B710E70FDF7F9FD1023013BDBB2FA
:10808000FF2B0BD03D699A00A9187F2008708870DB
:108090003E69FF21B2185170D170EFE7B94B002251
:1080A0001B681A9C1A600923E3561A9D0822AA56D7
:1080B000934269DB1A9D0B22AA561A9C0A2161562B
:1080C0008A425FDBAE49059E0868591C80684143BF
:1080D0000131891870180478251C113D2D2D02D806
:1080E000002101704CE0013CE4B20F2C48D8099DFE
:1080F0004900485BA3497E6809680D6801350D6039
:10810000A1007518061C5643B4462E686400B4449A
:1081100066462E60BE687518061C5E43B4462E681F
:10812000B44466462E60FE6835192E8886192E8066
:108130003E6975180226AE57B24200DAAA703E694F
:1081400075180326AE57B24200DDEA703E69751815
:108150000026AE57B34200DA2B703D69691801253D
:108160004D57AB4200DD4B707E69311900268D5FA3
:10817000854205DA0880B86901194B70B9690A555A
:10818000013A9AE7013B90E700260496F868049CC0
:10819000035F002B01D10024F8E0049C3D696400DA
:1081A00028190694FFF726FF3E69331901269E57CA
:1081B0003869069C002203199A56964200DAD6E0E6
:1081C000DB785BB202933D69069C2B199B78029D7C
:1081D0005BB29D4200DAC8E0694B029C1B68059DBA
:1081E0009B6801930198731C434301331B19ED18DD
:1081F0002A780395002A02D03F2A00D0B1E0099DD9
:108200005B005C5B002C00D1ABE000230D930523E9
:10821000013B002B21D05C4A0725D1180A1C4D5781
:10822000012149425156019871180131484305997D
:10823000844602980A185219624451784A1E0F2A3D
:10824000E6D800220DA8855C002D01D18154DFE71E
:108250008D42FBD00132D2B2F4E70DAA9A5CDDB2B6
:108260000195002A04D00133042BF6D1019302E0DA
:10827000019D002D75D00199201C00F0ABFF019DE0
:10828000039911350D700895029D311C45434143FA
:1082900003950A91002301997D688C46012149428A
:1082A0008C440DAA63451CDAD25C241A013A910071
:1082B0006D1800922A6801339446039A94446246EA
:1082C0002A60BD6869180A6894460A9A944465460B
:1082D0000D600099FD684A00AA18118809181180DC
:1082E000D9E7D35C5B1802999A006143AD182868FE
:1082F0005B0041182960B968F8688A18211C71432D
:108300001568C318691811601A88089914191C8017
:108310000023122925D0634523DA01331A1C019D5D
:10832000AA42F8DA0DA8C11801390978105C0139A0
:108330000138C9B2C0B20124814208D2079D890028
:1083400069188440201C0C682043086007E0079DE2
:10835000800028188C40211C0468214301600132F0
:10836000DDE7029C013C02942DE7013E20E7049DDD
:1083700002350495202D00D008E70CE7D97F0000D6
:108380001003002018030020AC930000FE68620078
:10839000925BE3B2002A19D07868A500461911B2A1
:1083A00032680291100200F015FFBB6830605E1960
:1083B000316801340802029900F00CFF3A6930601C
:1083C0005019FFF717FE102CE0D1231C10A93B70A9
:1083D00010234B708B700423CB70462301240B7148
:1083E000079A40230B200C704B71FDF73FFC12A93C
:1083F00000238B800B4B06201B689A681D688A70CF
:10840000CC701219059C5E68A2182D230B710D709B
:108410004E70FDF72BFC04480B99FBF743FF15B09A
:10842000F0BDC04610030020D97F0000F0B57746AC
:1084300087B0051C0E1C6C4871460597FBF71AFFA8
:10844000F8F7D4FC694B071C1B68287A697A0190FD
:108450001C68FA20800003914843211C00F0BAFEFA
:108460003A6900901778002F15D0012F15D1604B75
:108470001B681B6A013B0CD3D7685900795E002941
:10848000F8DD5C4F3F683F8EBC460127614507DB46
:1084900004E0012704E0012301E001273B1C5B42CB
:1084A0005168926898000958125802910492022E5D
:1084B00017D004D8002E0AD0012E0DD088E0052E4A
:1084C0002DD0062E4DD0042E00D081E024E0002BCC
:1084D0005DDA012F2BD17DE0002B61DA012F6ED107
:1084E00078E0002B03DB019F4F2F59D972E00199EF
:1084F000FA2080004843211C00F06CFE3D4B032411
:108500001B685A8E904204DC9B8E0024984200DA4D
:108510000524012F35D15DE0012F08D15CE0002F4B
:1085200007D1344B009A1B689B8E9A4247DB082484
:1085300053E0002BFBDB2B68029F0020185E6A686B
:10854000381A0021515E049F791AFFF7DDFA294B92
:108550001B682E331B789842E9DC00236B720624DB
:108560003BE00724002F38D00424002B35DB214BBF
:1085700000981B689B8E98422FDA6B7A01336B72DE
:108580002AE0022C0CD0052C19D0012C25D1029FF9
:10859000296868680F80049F012407802C721CE002
:1085A000019F28687B00029F02241F522B7A049FA0
:1085B00068685B001F522B7A01332B720DE0013E7D
:1085C0000023012E01D9039B01336B72052404E0C3
:1085D000002402E0042400E0341C03480599FBF762
:1085E00061FE201C07B0F0BDCD83000040000020DC
:1085F00010030020280B0020F0B52C4D85B07446E8
:108600000394071C0C1C281C7146161CFBF732FE39
:108610000422A35E0622A05E0025C01A64235843EC
:108620000223E15E0022A35EC91A00F0D3FD762387
:10863000021C1A3AFF3301909A4230D80295002268
:10864000BB5E64205843019900F0C4FD029B81B2D7
:108650003980012B0DDDB31E00229B5E0022B05E2F
:1086600009B2C01ABB1E00229B5EC91AFFF74CFA62
:108670002D18029B0237013302930236162BDED1EE
:108680000422A05E64260199704300F0A3FDA0803F
:108690000623E05E0199704300F09CFDE0800348F2
:1086A0000399FBF7FFFD281C05B0F0BD998500007C
:1086B000F0B52F4F95B07546039501901D1C0291A2
:1086C000381C7146141CFBF7D5FD0422AE5E062251
:1086D000AB5E03219B1B181C009300F07BFD262240
:1086E000A35E82190124934200DC002441008E190C
:1086F000E4B2B34201DD02231C43029E2623F35E53
:108700000026AA5F8018834201DD042004438A18F2
:10871000934201DD08231C4304A80021402200F0FD
:108720001BFE0323059306230793012308930423C9
:10873000099307230B930223109305231193A4009D
:1087400008236A4613931034A358019C0099637060
:108750000020FFF7D9F91A9D011C0A20684300F098
:1087600039FD03992070381CFBF79CFD15B0F0BD56
:1087700051860000F0B5744695B0039402900E1C2B
:108780002F4871460024171C0125FBF773FD019447
:10879000152D09D10021735E2820325ED21A2823BC
:1087A000F95E00243B5F07E0019C6B00F15E325FE5
:1087B000019C8A1AF95E3B5FCB1AA821FF31514315
:1087C000012489128B4200DC00241E48424392128D
:1087D000934201DD022004435242934201DA042213
:1087E000144349428B4201DA08231C4300214022F2
:1087F00004A800F0B1FD0123049302230593032391
:10880000079304230B9308230C9307231093062349
:108810001293A400052313931034029869466258FA
:10882000019C4319013B023401351A700194162D45
:10883000AED103480399FBF735FD15B0F0BDC04636
:1088400015870000A7090000F8B5104F051C0C1C87
:10885000381C71467646FBF70DFD381C0C4BA542C3
:1088600007DD2C1BA412032C00DD032464001C5B19
:1088700006E0651BAD12032D00DD03256D005D5B79
:108880006419311CFBF70EFD201CF8BDE9870000C0
:10889000B4940000F0B57546D5B003950091051C61
:1088A00071464448161C0193FBF7E4FC00240127A1
:1088B000019B0234013B9F4221DA2B199A1E0021B1
:1088C000505E2A5F0321801802229B5E0137C01888
:1088D00000F080FC009A102369461B1958521319A6
:1088E0009A1E0021505E00990A5F0321801802221F
:1088F0009B5EC01800F06EFC2CABE052D8E7019FE5
:10890000AC1C023F7F0069463A1C201C12310294C5
:1089100000F0E0FC009C694602343A1CB231201C95
:1089200000F0D8FC009900220B880092F3800B889D
:108930000127B3802B8873802B88029D3380019B95
:108940009F4230DA0023E85EAB1E00215B5E00220E
:10895000A15EC01AA31E00229B5EC91AFFF7D4F8BD
:10896000009B0222B15E1B1800932B881AB2914221
:1089700000DA73802B880022B15E1AB2914200DDCA
:10898000338023880622B15E1AB2914200DAF38066
:1089900023880422B15E1AB2914200DDB380013710
:1089A00002340235CBE703480399FBF77BFC0098C0
:1089B00055B0F0BD35880000F0B5A3B07546141C65
:1089C00004900591394871460B950A93FBF752FCC8
:1089D000201C152100F0FEFB0124069001940025C7
:1089E0000A998C424EDA04996700C919049ABB1E91
:1089F00007910599D2180292CF190897079ACF18B4
:108A000002990020105E0023CB5E089AC01A002154
:108A1000515E0022BB5EC91AFFF776F806992B1843
:108A200003908B422BDB029A4D1B0023D25E002168
:108A30007E5E0992089A03990020105E801B6843AD
:108A400000F0C8FB079B361809990020185EB6B2E3
:108A5000401A6843039900F0BDFB099D3021281896
:108A6000019D80B26B000135C9186A460195029DCF
:108A7000885217AA9E52288000233E8000E00134CD
:108A80001D1CADE70498694632312C22023000F0FB
:108A900021FC059869462C225E31023000F01AFC58
:108AA00002480B99FBF7FEFB23B0F0BD598900008B
:108AB000F0B5234F8FB07346051C7146381C0393E5
:108AC000FBF7D8FB2B7A06AA28686968FFF7E2FE55
:108AD0001C4B021C1B6800249B8D984229DD2B7ABD
:108AE00028686968FFF768FF2A68686806A9FFF7C1
:108AF00083FD009006AB05A829686A68FFF7D8FDDA
:108B000006CD08A8FFF736FE0F4E6D463368EC74AD
:108B1000E43313351B68281C08A998472B78041CDC
:108B2000002B06D1336808A8E8331B6805A99847CD
:108B3000041C381C0399FBF7B5FB201C0FB0F0BDDB
:108B4000518A0000280B00201803002070B5074C44
:108B5000061C7146201C7546FBF78CFB044B291C38
:108B6000201C1E60FBF79EFB70BDC046ED8A000016
:108B70002C0B002070B5074C7146201C7646FBF785
:108B800079FB054B201C1D68311CFBF78BFB281C57
:108B900070BDC046158B00002C0B0020F0B595B0C1
:108BA00009931AAB1B7875460C900691C54871461F
:108BB000109311950A92FBF75DFB069EC24C0023B1
:108BC0007372F37220687F233372B3720379002BC0
:108BD00007D1BD4B1B689A7B002A00D005E10792A4
:108BE0001AE10323C3562027FF1A0223C3567F002E
:108BF000FF1A7F10FFB20797099F7F68059706222B
:108C0000815E0823C25E0A23C356C07A40B2009038
:108C1000381CFDF7E5F8AD4B80021D68296800F0AF
:108C2000D9FA24686A682378002B00D16EE01C9D75
:108C3000911CEB8849006B802B892E1C2B800B1F0D
:108C4000EB181D887552991E0988D9806178002912
:108C500003D0079D6FB27F0039E0023B013A39D360
:108C60005E88DD88032161567519079E4D431F8874
:108C700071B21E89BE194E430221AD1961569E88FC
:108C8000714369188911414309141981E5E70325E6
:108C900065575988DE886D00AC460D1CB14200D284
:108CA000351CADB266466E431D89B4461E88311C24
:108CB000AE4200D2291C0225655789B29E887943AD
:108CC000754361444D19AD1145432D141D81023B7F
:108CD000013ADCD2099F0D207F68049720560622B6
:108CE000A15E0823E25E0C23E3560090381CFDF7DA
:108CF00077F8764B80021C68616800F06BFA724B63
:108D0000226819680B78002B0CD161E0531C1C9F62
:108D10005B00FB18013ADDD31988023B414309147B
:108D2000D980F7E71B9CE388251C63802389261CD8
:108D30002380941C6400231FEB181D8835539C1E50
:108D40002488DC804C78002C03D0079C67B27F001D
:108D50003AE0023B013A00D23BE75E88DD8803241B
:108D60000C577519079E65431F8874B21E89BE197A
:108D700066430224AD190C579E8874432C19A41124
:108D8000444324141C81E4E703254D575C88DE88A6
:108D90006D00AC46251CB44200D2351CADB2644611
:108DA0006C431E881D89A446341CAE4200D22C1C84
:108DB00002254D57A4B29E887C43754364446519CF
:108DC000AD1145432D141D81023B013ADCD200E771
:108DD000531C1B9D5B00EB18013A00D2F9E6198881
:108DE000023B41430914D980F6E7099E1027D95F59
:108DF00070680024079488420EDD12255A5F1B7D9F
:108E000001265BB20093231CFCF7EAFF10231B1A18
:108E10009B000B900D9307962C4B002118682A4B52
:108E200007681B68BC460E93099167464368791E24
:108E300000D28FE01B9C4A00A2180F92013B00D287
:108E400086E0079D8468002D42D0664666430896FA
:108E5000F6180A9F01367600BD5B5F1C2AB2D2432A
:108E6000D2172A408D1C654302967D190A9E6D001B
:108E7000AE5F12B20396964200DA0392089E341B4C
:108E80003C190A9F6400E45F944200DA141C039EBC
:108E90000A9F3519029C3E190224375F141EBC42FA
:108EA00000DA3C1C023E2D190027F45F161EA64274
:108EB00000DA261CAD190B9C0D9E65437243AA185F
:108EC00092110CE03D8B00002C0B002010030020C1
:108ED00067467C431C1901340A9D6400625F0E9E44
:108EE0003479002C07D01C9F5C003C1924890F9D0D
:108EF000121B2C89121B109EB24218DD069F0B24F8
:108F00003C579C4200DAFB72069D0A242C579C4277
:108F100000DDAB72069E092434578C4200DA717270
:108F2000069F08243C578C4203DD397201E0002A79
:108F300004DD099C944202DA099200E00022846870
:108F400065466C431C1901340C9EA400A25175E7C0
:108F50008C466AE70999069C0022216012A98A8042
:108F6000826805680C9E4B708A707C2301325B42DC
:108F70009200CB70B218832305200B710D70FCF7A3
:108F800075FE03481199FBF78DF915B0F0BDC04689
:108F90003D8B0000014B18687047C0461C03002041
:108FA000004870475C050000014B18687047C046D8
:108FB0001C030020024B18681130FF307047C04678
:108FC0001C03002098235B005843034B1B681818B0
:108FD000CD30FF307047C0461C0300200A235843A1
:108FE000024B1B681818AD30FF3070471C0300207F
:108FF000014B18607047C046300B0020014B1868C9
:109000007047C046300B0020004870476CB9000024
:1090100008B5FAF735F80E4B41791B68596042796B
:1090200002329A6082791A604A43DA6042790221F8
:109030009A615200DA61026859611A62C2791A6152
:1090400001795A1DD17702790633DA7708BDC04617
:109050001003002010B5154C1549164A206800F081
:1090600039F92068FAF706F820687C30F7F7A0FE97
:109070002068B830FCF7E8FE2068C030FDF782FCBD
:1090800020680130FF30FCF7D1FA20680330FF3050
:10909000F9F7D8FFFFF7BCFF074C201CFAF702F8DE
:1090A000DF235B00E018FCF7E7FE10BD1C03002087
:1090B00010B400005C0500006CB9000038B5154B19
:1090C0009824596864000A781B685443C934FF34F3
:1090D0001C19114B201D1860F9F7D8FF8E22520081
:1090E000A518281CFFF732FD201CA030F7F76CFEF6
:1090F000201CB430FCF7B4FE201CC830FDF74EFC39
:10910000281CFCF79FFA054B5E341B682278073356
:10911000DA7738BD1C030020300B0020100300203C
:10912000014B5B68187070471C030020014B5B68A3
:10913000187870471C030020002934D00123002236
:1091400010B488422CD301242407A14204D28142C6
:1091500002D209011B01F8E7E400A14204D28142D6
:1091600002D249005B00F8E7884201D3401A1A4353
:109170004C08A04202D3001B5C0822438C08A0428A
:1091800002D3001B9C082243CC08A04202D3001B40
:10919000DC082243002803D01B0901D00909E3E7BA
:1091A000101C10BC7047002801D00020C04307B439
:1091B000024802A14018029003BDC046D900000039
:1091C0000029F0D003B5FFF7B9FF0EBC4243891A5E
:1091D0001847C046002941D010B4041C4C40A44696
:1091E00001230022002900D54942002800D5404231
:1091F00088422CD301242407A14204D2814202D206
:1092000009011B01F8E7E400A14204D2814202D225
:1092100049005B00F8E7884201D3401A1A434C0822
:10922000A04202D3001B5C0822438C08A04202D358
:10923000001B9C082243CC08A04202D3001BDC0880
:109240002243002803D01B0901D00909E3E7101CC1
:109250006446002C00D5404210BC7047002806D060
:1092600003DB0020C043400801E08020000607B473
:10927000024802A14018029003BDC0461900000038
:109280000029EBD003B5FFF7A7FF0EBC4243891AB4
:109290001847C0467047C046F8B50D1C041C081C92
:1092A000111C161CFFF796FF311C071C281CFFF72A
:1092B000E7FF002D05DB002908DB2760201C61602B
:1092C000F8BD0029F9DD013F8919F6E70137891B4F
:1092D000F3E7C046F0B50F2A35D9031C0B439C07B2
:1092E00035D1161C103E36093501451910350C1CB8
:1092F000031C27681F6067685F60A7689F60E76856
:109300001034DF601033AB42F3D1731C1B01C5185E
:10931000C9180F231340032B1BD91C1FA4080134A9
:10932000A4000023CE58EE500433A342FAD1ED1826
:10933000C91803231A4005D00023CC5CEC54013338
:109340009342FAD1F0BD051C002AF5D1FAE7051CBD
:10935000F2E71A1CF8E7C046F0B5830746D0541E62
:10936000002A42D0CEB2031C032503E0621E002C6B
:109370003BD0141C01335A1E16702B42F6D1032C1D
:109380002BD9FF250D402A0215432A0415430F2C23
:1093900015D9271C103F3F091E1C3A011036B6187C
:1093A0001A1C156055609560D5601032B242F8D134
:1093B00001373F010F22DB191440032C0DD9271F61
:1093C000BF08BA001E1DB6181A1C20C2B242FCD13A
:1093D0000137BF000322DB191440002C05D01C19F3
:1093E000C9B219700133A342FBD1F0BD141C031C98
:1093F000C5E7C046AE0174033B050207CD08940AD9
:10940000590C1F0E0600000008000000FF000001BC
:10941000FF01FF0100FF0100FFFF01010001020346
:10942000040405060708090A0B0B0C0D0E0F10119A
:1094300011121314151516171818191A1B1B1C1DB9
:109440001D1E1F1F202121222323242425252627FA
:1094500027282829292A2A2B2B2C2C2D2D000000E7
:109460007804EF08660DDB115016C21A331FA123D2
:109470000C28742CD93039359639EE3D424290464D
:10948000D94A1B4F58538E57BE5BE65F07641F686F
:10949000306C397038742F781C7CFF7FD983A88793
:1094A0006D8B278FD5927996109A9B9D1BA18DA4C9
:1094B000F3A74BAB97AED4B104B526B839BB3EBECB
:1094C00034C11BC4F2C6BAC973CC1BCFB3D13BD4D1
:1094D000B2D619D96EDBB3DDE6DF08E218E416E692
:1094E00003E8DDE9A5EB5BEDFEEE8FF00DF277F31F
:1094F000CFF414F646F764F86FF967FA4BFB1BFCE0
:10950000D8FC81FD17FE98FE06FF5FFFA5FFD7FF81
:10951000F5FFFFFFB50239017E0000004800002082
:109520002403002000000000FF00000000000000F5
:10953000000000000000000000000000000000002B
:10954000000000000000000000000000000000001B
:10955000000000000000000000000000000000000B
:1095600000000000000000000000000000000000FB
:1095700000000000000000000000000000000000EB
:1095800000000000000000000000000000000000DB
:1095900000000000000000000000000000000000CB
:1095A00002000000000000000000000000000000B9
:1095B00000000000000000000000000000000000AB
:1095C000000000000000000000000000000000009B
:1095D000000000000000000000000000000000008B
:1095E000000000000000000000000000000000007B
:1095F0000000000003000000000000000000000068
:10960000000000000000000000000000000000005A
:109610006403002064030020540300207003002032
:109620000804002038040020300400202804002012
:1096300000000000040300200000000002030020DE
:10964000F4020020E6020020E502002000000000F5
:109650000804002008020020180400200200000076
:10966000080B0020000000000000000007000000C0
:1096700026040020E1020020270400200000000052
:10968000000000000000000000000000BC020020FC
:10969000A802002000000000000000000000000000
:1096A0009402002000000000800200200000000062
:1096B00068020020000000004C02002000000000B2
:1096C0000000000000000000340200202002002002
:1096D0000C020020DD020020D80200200000000063
:1096E000220400200020006004020020200400204A
:1096F0001C02002001000000040000009401002072
:1097000021040020300200200100000001000000C0
:10971000F80100204702002044020020030000005E
:1097200004050600102000009801002061020020BE
:109730005C02002005000000040106010400102066
:1097400030310000680100207B02002078020020F8
:10975000030000000401060010200000EC020020BD
:10976000910200209002002001000000040010007F
:1097700060010020A6020020A402002002000000D8
:10978000020E001084010020B80200209001002089
:10979000030000000010110048010020D202002048
:1097A000CC020020060000001708080C0A08002060
:1097B0003040507001000000000020040100200132
:1097C00000FF002001000000F00200200060060100
:1097D0000001000000000000000000000000050083
:1097E0004D49500000000000000400005804002013
:1097F00080040020900400208C05002088050020B3
:10980000FFFFFFFFFFFFFFFFFFFFFFFFFFFFFFFF68
:10981000FFFFFFFFFFFFFFFFFFFFFFFFFFFFFFFF58
:10982000FFFFFFFFFFFFFFFFFFFFFFFFFFFFFFFF48
:10983000FFFFFFFFFFFFFFFFFFFFFFFFFFFFFFFF38
:10984000FFFFFFFFFFFFFFFFFFFFFFFFFFFFFFFF28
:10985000FFFFFFFFFFFFFFFFFFFFFFFF360152018A
:109860004D344830435554320000000000000501DB
:10987000F8B50820FCF7C5FA00F048FAFCF7AEF896
:10988000FDF798F83B4C3C4B3C4FEC303C4D0360B3
:109890003A682368281C5A603A4900F01FFA236886
:1098A00039481A68394901321A6000F017FA2368FA
:1098B000374E1A68301C01321A60364900F00EFA31
:1098C00023683F681A68DF6001321A603248334902
:1098D00000F004FA236832489A68324901329A60EB
:1098E00000F0FCF92368301C9A682F4901329A6015
:1098F00000F0F4F923682D489A682D4901329A60E6
:1099000000F0ECF923682B489A682B4901329A60E1
:1099100000F0E4F92368281C9A68284901329A600B
:1099200000F0DCF9236826489A68264901329A60DB
:1099300000F0D4F9236824489A68244901329A60D7
:1099400000F0CCF9236822489A68224901329A60D3
:1099500000F0C4F9236820499A68204801329A60CF
:1099600000F0BCF923689A6801329A60FDF722F88A
:10997000F8BDC0463C010020099C0000100B0020EF
:10998000D11700000D9B0000F5170000559B00004B
:109990003D8B0000FF9900000D110000499A000066
:1099A000C10F000081990000F5990000356B00009F
:1099B000B19B0000691D0000CD9B0000F7990000DD
:1099C000D1280000F9990000891E0000FB990000D1
:1099D000DD610000FD990000599A00003D2C000057
:1099E0001A4B30B51B680022191CD86A74310C78E8
:1099F000904204D15D6B0122323500DB021C224310
:109A0000DC6C0A70023C124A112C14D89C6B132C8B
:109A100011DC27280FDC186C052804DC5B6C012B9B
:109A200005DC022807DD53685B68782B03DD53688B
:109A30001868013001E053680020186053681B6803
:109A40000A2B01DD01230B7030BDC0464000002011
:109A5000340B0020704770477047704770470F4BBA
:109A6000F0B5596800234B600D4B0E4A1868156815
:109A700003685C1E11D34268013A0CD38668AF6854
:109A80005E43961901367600F65F002EF4DA4E68D2
:109A900001364E60F0E7231CEBE7F0BD340B0020ED
:109AA000100300204400002007B5002201AB1A80FB
:109AB0000198FAF769FB07BDF0B589B0F9F7E0FA4C
:109AC0002649102204A8FFF705FCFAF7CDFB244B2A
:109AD00024491A68244C13680E682768013B22D376
:109AE00051680D1C5D436C186D006400890003957E
:109AF000039D0439AC42F1D0F569023C02942C1963
:109B00000194BD69440000946C58009DA446103532
:109B10006C462D5B64462C1BA446019C258865443D
:109B20002580029CE4E70F4F0F4B12693D681E68C9
:109B300053009200023B043A991C0DD02C6A376AFC
:109B4000E118BC580F883F1B4400BC4610346F46D8
:109B5000E45B64440C80EDE709B0F0BD9493000031
:109B6000100300204400002040000020F8B5F9F761
:109B700087FA071C18240E230B37051C8371233525
:109B80004471221C381C0021FFF7E6FB281C221C14
:109B90000021FFF7E1FB064E381C311C221CFFF7A9
:109BA00099FB3119281C0E22FFF794FBF8BDC04623
:109BB00040A40000F8B5F9F763FA071C0E23182437
:109BC0000B37051C837123354471221C381C00217E
:109BD000FFF7C2FB281C221C0021FFF7BDFB0A4E29
:109BE000381C311C221C2631FFF774FB311C0E225D
:109BF0003E31281CFFF76EFBFFF70AFA034B1B6888
:109C000003CBF9F7E9FAF8BD40A4000010030020E7
:109C100008B5FBF73BFF012805D0034B1B6818690B
:109C2000596900F097F808BD4400002038B5FCF7EA
:109C3000C1FE041C2C342378051CCA35002B04D02B
:109C40002B78002B01D1FDF727F82B78002B08D0BB
:109C50002378002B05D1034B1B6818695969FCF761
:109C6000E7FF38BD4400002038B5041C0D1CFBF78D
:109C70009FFF002802D001280CD02BE0164B6D006E
:109C80001B681B691B69EA5AFF23FE2A00D8D3B25E
:109C900063711FE0104B69001B681A691269895AC9
:109CA000FF22FE2900D8CAB262711B69AD00596952
:109CB0000322491902238A56CB560120D31A0022C7
:109CC00008568A56821A934202DDA371E27101E0BE
:109CD000A271E37138BDC0464400002038B5051CB0
:109CE00008200C1CFCF78DF80560446038BDC046A8
:109CF00038B5041C081C002A07D0D1185843624309
:109D00004D1010184019FFF765FA38BD70B5FCF713
:109D10004BFE051CE020FCF774F80D4CE02220609F
:109D20000021FFF719FB2B1C52333C351B78287898
:109D300064215843FFF74EFA2668D8363060082071
:109D4000FCF75FF8002160600822FFF705FB70BD9B
:109D5000340B0020F0B59BB00F1C041CFCF724FE54
:109D60000C90FCF715FE0B90FCF792F8FCF722FE26
:109D7000CE4B00251B6812900E93CD4B0A951B68A5
:109D800011951B6A08935B00023B9E1C0CD0266950
:109D90000A9DF25A954200DA0A92E668119DF25E37
:109DA0009542F1DA1192EFE7089B129D1F339B0059
:109DB000EB180D93089D013D089500D2B6E0089D73
:109DC000E0686E00835F002B00D1ABE02169129A3E
:109DD0000C9B885B926952331D780C9B90420ADD84
:109DE0001B690C9A0593191C0C9B14322833FCF741
:109DF00013F8844602E03D331B789C460C9B53339A
:109E00001B78002B02D16425099544E0A74B0995E6
:109E10001B68181CDC3010900178139100291DD1AB
:109E2000E2680998955F64226A43614648430F924D
:109E30000F991A1CD43281420EDD65450CDC156881
:109E40000B98013515602A300078854206D11098AC
:109E500001250570139900E000211160191CDC3107
:109E60000A78002A13D0E268905F1A1CD432604549
:109E70000BDD10680C9D0130106040352D78A84234
:109E800005D100200870106001E000211160DC3372
:109E90001B78002BB7D0129D0898E2682B186A3304
:109EA0001B789219002B05D00C995BB240310978D0
:109EB0008B4221DC0021535E099D604664214543AD
:109EC00059432069A94211DB815B0A9D8C460C999C
:109ED0004A310978694389118C4507DB0C99119D3A
:109EE000C96C0491694389118B421BDA00238353A7
:109EF0000D9E1380336012E00020135E6D490998B7
:109F00004B430C993C310D7861464D434543AB4280
:109F100008DA21690D9D00238B5313802B60237871
:109F2000013B23700D9E043E0D9643E72378129E5D
:109F30003B70002323705E4B1B681B6A0D930D9DC5
:109F4000013B7219693209920C229E0053430E9D07
:109F50000A96EB1811930D9E013E0D9600D224E255
:109F60000D9EE0687600835F0896002B00D1D2E159
:109F7000099D0C9B2A7840330132D2B22A701B789B
:109F800052B2991D8A4201DD04332B70099E0025CF
:109F90007557012D00DC96E1A81C0321FFF770F92D
:109FA00003230F91022D0CD1013B16D360680A9D4B
:109FB000119E4159A0685A00B1524159B218D1803E
:109FC000F2E77968089D0F9E4A5B119D7300EB18BC
:109FD000BE68089D1A80725BDA80099E002575575D
:109FE000032D00DC5BE10F9E0F987300119E04307F
:109FF000F3181E8803210B960793FFF741F9119E72
:10A0000049007118079E0888F688C9880E90109636
:10A010008C466268042D14D17868089DA168435F5E
:10A020000A9D5059089DC31AB868DE17425F0A9D01
:10A030009B1948597340801AC61780197040181828
:10A0400016E01A490D9D0968AB00CB18191C0A9E31
:10A050000831C86F9259A168121AD0171218AC3380
:10A0600042401B688859C01AC317C01858401018BE
:10A0700066680A990D4B75580D9E1A68B300D3187F
:10A08000191C0831CD67A5680A9EAC33A9590D9DEE
:10A0900019605219131C783307491D780968002D7F
:10A0A0000CD0098988420EDC00210BE0340B002023
:10A0B0001003002010270000340100204989884245
:10A0C00001DB0121197078321378002B33D1E04B7A
:10A0D00080211A689388D28800924A00FBF780FE9C
:10A0E00066680A9D0A9976190E963668079D03964A
:10A0F000A6680B900020285E7518079E039A06211B
:10A10000765E29680796161AF317079AF6185E40C6
:10A110008B1AD9175B184B40F61803990B9A331C0E
:10A12000FFF7E6FD0E9A331C1060296807980B9A1A
:10A13000FFF7DEFD8EE00E980B9D01B22AB2511A98
:10A14000CD0F109E69184910654633B2169129B299
:10A15000591A0A9D6668C80F76194118A0681796A3
:10A16000366845194910109616982E681491109962
:10A170001896861814988E1B1899F217C318B618DB
:10A18000CB1A5640DA179B185340F61800230E934B
:10A19000802E01DD803E0E96AD4B1E680123307887
:10A1A0000B90717883401391B2780F985B1A9B1AC9
:10A1B0000530032115921993FFF762F8119B4900AE
:10A1C0005918F378079E0620305E199E70430626C4
:10A1D0008A5F139E7243189E8018159A72438018E6
:10A1E000149A0B9E5A4330413241821814920E98B1
:10A1F0008022D2008618079A70100F900020105EFF
:10A20000199A4243944600200A5E13994A436146D4
:10A2100088181099159A4A43169980184B430B9A3F
:10A220000F9913411041C0180E9A109B80025A4397
:10A2300080184018311CFEF7CDFF179A1060149B50
:10A240000E9998022B680F9A4B43C0188018311C46
:10A25000FEF7C0FF2860FB68E668089D585F751927
:10A260000C9E0022A95E483607960023F25E431A30
:10A27000DE179B197340FFF73BFD3969288026697B
:10A28000089D485B75192988079E431A0022B25E13
:10A29000DE179B197340FFF72BFD288013E06068E1
:10A2A0000A9D7E684319089D1868725FA16812189C
:10A2B0000A9D52101A60BE684B19089D1868725F9B
:10A2C000121852101A6061680A9D7E684B59089DE9
:10A2D000F8687353A6680A9D00217359089DBE68EB
:10A2E0007353E66873191A8826694253725B38699A
:10A2F000099E42530C9A715640321278914203DC07
:10A30000012252421A8002E0237801332370099D12
:10A310000023AB723FE00C9A099E40320020117876
:10A320003056FA6888422CDD089D525F002A32D0F0
:10A33000B27A0132D2B2B27250B20C9A4132117872
:10A34000FA68884204DD089E099D93532B7022E031
:10A350007E68089D6068735F0A9DBE684351089DD2
:10A36000A068735F089E0A9D4351935BE068351CAB
:10A3700083533E692069735B435323780133237011
:10A3800009E0089E099D9353324A0D9E12682B7076
:10A39000921978321370099D0A9E013D0995119D0D
:10A3A000043E0C3D0A961195D5E5129B0022B2336E
:10A3B0001A70294B129F1B681C693D1957346400A1
:10A3C0003C19D537D53504340797079EB54265D07B
:10A3D0002388002B0ED00C20225E1BB2002A02DC48
:10A3E0000C9A3E3201E00C9A3F321278934201DA25
:10A3F000002323802188002930D02B787F2B01D0A7
:10A4000001332B700026AE57022E0DDD0C9B0C2263
:10A41000A05E09B248330027DA5F431ADF17DB1961
:10A420007B40FFF765FC20802388A3810C9B42338F
:10A430001B789E4203DC01235B42238004E0129BD5
:10A44000B2331A7801321A7000236B7123E0C046D0
:10A4500034010020340B0020100300200C9B00224C
:10A460004233AA561B789A4213DDA389002B12D0DF
:10A470006A790C980132D2B26A714330007852B2D4
:10A48000824206DC2380129BB2331A7801321A70A2
:10A4900001E0A1812970013D023C96E71BB0F0BDAF
:10A4A000000102030405060708090A0B1A1B1C1DFC
:10A4B0001E1F2021222324250C0D0E0F1011121314
:10A4C00014151617181900010203040506070809D8
:10A4D0000A0B1A1B1C1D1E1F2021222324251918BC
:10A4E00017161514131211100F0E0D0CFFFFFFFF9E
:10A4F000FFFFFFFFFFFFFFFFFFFFFFFFFFFFFFFF6C
:10A50000FFFFFFFFFFFFFFFFFFFFFFFFFFFFFFFF5B
:10A51000FFFFFFFFFFFFFFFFFFFFFFFFFFFFFFFF4B
:10A52000FFFFFFFFFFFFFFFFFFFFFFFFFFFFFFFF3B
:10B45000FFFFFFFFFFFFFFFFFFFFFFFF520105019F
:10B460004D344830504154320000000000000501C6
:10B470000A00000001180E00010000000102030490
:10B4800005060708090A0B1A1B1C1D1E1F20212276
:10B49000232425191817161514131211100F0E0D49
:10B4A0000C00000000000000000000000000000090
:10B4B00000000000003F1D06BF00F000000000007B
:10B4C000000000000000000000000000000000007C
:10B4D0000000000F000000000000000083000000DA
:10B4E0000001E1A108000009030300004A37000041
:10B4F00000000000000000000000000005323200E3
:10B500000100FFFFFFFFFFFFFFFFFFFF0A05FA003B
:10B510000802460064003200000564000F0032009B
:10B52000050A0305100F3C000108010E0A0A00007D
:10B53000D002000000050000010000000100000032
:10B5400001000000010000005F5F5F5F000000007D
:10B550006E6E6E6E0101AC02C0043C00C8001E009D
:10B56000B0045E01F4010000080769001900FA0048
:10B5700001000623133D800200012000600000004E
:10B580009E00F0000000000000000000000000002D
:10B5900000000000000000000000000F000000009C
:10B5A000000000009E00F00000000000000000000D
:10B5B0000000000000000000000000000000000F7C
:10B5C00000000000000000008000000000037B1E5F
:10B5D000D10000710A48F61F0000003F1D063F1D04
:10B5E000003F1D06000000000000000000000000F9
:10B5F000000000000000000000000000000000004B
:10B60000000000000000000000000000000000003A
:10B610000000000000000000000000000000FFFF2C
:10B620000A14380703000000FFFF0A14380703005C
:10B630000000FFFF0A14380703000000B200F0000A
:10B6400000000000000000000000000000000000FA
:10B65000000000000000000F0000000000000000DB
:10B660009E00F0000000000000000000000000004C
:10B6700000000000000000000000000F00000000BB
:10B68000000000008000000040033318D10000716A
:10B690000A48F61C000000320F05320F00320F0579
:10B6A000000000000000000000000000000000009A
:10B6B000000000000000000000000000000000008A
:10B6C000000000000000000000000000000000007A
:10B6D0000000000000000000641E64001E00000066
:10B6E00007000000FF7F0080FF7F00800103000053
:10B6F00000005A030A00008008070F080CF84000F9
:10B70000B003520326025E01300000003200000048
:10B710000300000034003C005F0000000000000057
:10B7200000000000000000002D0046006400000042
:10B730000000000000000000000000004B2D1E0F64
:10B7400002010202F401000000000F000F000000DF
:10B750000101140001000A0D01001E003C000F2829
:10B760000F2800002C01E80310000000B200F000D8
:10B7700000000000000000000000000000000000C9
:10B78000000000000000000F0000000000000000AA
:10B790009E00F0000000000000000000000000001B
:10B7A00000000000000000000000000F000000008A
:10B7B000000000008000000040033318D100007139
:10B7C0000A48F61C0000003F1D063F1D003F1D06F5
:10B7D0000000000000000000000000000000000069
:10B7E0000000000000000000000000000000000059
:10B7F0000000000000000000000000000000000049
:10B800000000000000000000641E64001E00000034
:10B8100007000000FF7F0080FF7F00800103000021
:10B8200000005A030A00008008070F080CF84000C7
:10B8300026025E015E01FA003000000032000000C6
:10B840000300000034003C005F0000000000000026
:10B8500000000000000000002D0046006400000011
:10B860000000000000000000000000004B2D1E0F33
:10B8700002010202F401000000000F000F000000AE
:10B880000101140001000A0D01001E003C00192DE9
:10B89000192D00002C01E80310000000BF00F0008B
:10B8A0000000000000000000000000000000000098
:10B8B000000000000000000D00000000000000007B
:10B8C0009E00F000000000000000000000000000EA
:10B8D00000000000000000000000000F0000000059
:10B8E000000000008000000000036B1CD10000710C
:10B8F0000A48F61F000000380F053F1D00230F0502
:10B900000708090A0B0C0D0E0F101112131415164F
:10B910000000000000000000000000000000000027
:10B920000000000000000000000000000000000017
:10B930000000000000000000641EFFFF1400000073
:10B9400007000000FF7F0080FF7F008000030000F1
:10B9500000005A030800008007070F0A0FF140009B
:10B96000B003520326025E013000000032000000E6
:10B97000060000002A0030003C00490057007D000E
:10B980000000000000000000A000E600AE018A02F6
:10B990008A028A0200000000000000004B281E0FEF
:10B9A00002010202F4010000000007000F00000085
:10B9B0000101140101000A0D01002C01E8030F3CF4
:10B9C0000F3C00002C01E8031000000009090A0ADE
:10B9D0000B0B0B0C0C0C0D0D0D0E0E0E0E0E0E0E99
:10B9E0000E0E0E0E09090A0A0A0B0B0C0C0C0D0D9B
:10B9F0000D0D0D0D0D0E0D0D0D0D0D0E0809090A85
:10BA00000A0B0B0B0C0C0C0C0D0D0D0D0D0D0E0D72
:10BA10000D0D0D0E0809090A0A0B0B0B0C0C0C0D71
:10BA20000D0D0D0D0D0D0E0D0D0E0D0E0809090A53
:10BA30000A0A0B0B0C0C0C0C0D0D0D0D0D0D0D0D44
:10BA40000D0D0D0D080809090A0A0B0B0B0C0C0C47
:10BA50000D0D0D0D0D0D0D0D0D0D0D0D0808090928
:10BA60000A0A0B0B0B0B0C0C0D0D0D0D0D0D0D0D16
:10BA70000D0D0D0D08080809090A0A0B0B0B0C0C1B
:10BA80000C0C0C0D0D0D0C0E0C0D0C0D07080809FF
:10BA900009090A0A0A0B0B0B0C0C0C0C0C0C0C0CF5
:10BAA0000C0C0C0D070708080909090A0A0B0B0BF7
:10BAB0000C0C0C0C0C0C0C0C0C0C0C0D07070808D7
:10BAC00009090A0A0A0B0B0B0C0C0C0C0C0C0C0CC5
:10BAD0000C0C0C0C07070708080909090A0A0A0BCD
:10BAE0000B0B0C0B0B0C0B0B0B0B0B0C06070708B3
:10BAF00008080909090A0A0A0B0B0B0B0B0B0B0BA5
:10BB00000B0B0B0C0606070708080909090A0A0AA5
:10BB10000B0B0B0B0B0B0B0B0B0C0B0C000000009F
:10BB20000000000000000000000000000000000015
:10BB30000000000000000000000000000000000005
:10BB400000000000000000000000000000000000F5
:10BB500000000000000000000000000000000000E5
:10BB600000000000000000000000000000000000D5
:10BB700000000000000000000000000000000000C5
:10BB8000000000000000000000001E1F22242627E5
:10BB9000282B2D2E2D2F2E2F313436363636363893
:10BBA00038401B1B1E1F2122232527282728282930
:10BBB000292C2E2F2E2F2F2F30361B1B1D1F2022FE
:10BBC00022242626272828292A2B2D2E2E2E2F2EDA
:10BBD0002E361B1B1D1F202223232626262729281D
:10BBE000292B2D2E2D2E2E2E2F361C1B1D1F2022D5
:10BBF00022232526262828292A2B2D2F2D2E2E2EAE
:10BC00002F341C1A1D1E20212223242527262829F3
:10BC1000292B2C2E2D2C2E2E2E351C1B1C1E1F21AD
:10BC20002223232526262729292B2C2D2D2D2D2E89
:10BC30002E331C1A1C1E1F202122232526272829CB
:10BC4000292A2A2B2C2D2D2D2D321C1A1C1D1F208C
:10BC500021222224262626282A292A2B2C2B2C2C6A
:10BC60002D311C1A1C1D1F202122242525262728A2
:10BC700029292A2B2C2C2C2D2C321C1A1B1D1F2061
:10BC800021212225262626282A282A2B2A2C2B2B3E
:10BC90002C311C1A1B1D1F20222222242525272778
:10BCA0002A2A2A2B2C2C2C2C2B321A1A1B1D1E2034
:10BCB0002121222324252627282A2A2A2B2B2C2B14
:10BCC0002B301D1C1E20222325252628282A2A2B1E
:10BCD0002C2D2F2E2F2F302F2F3200000000000090
:10BCE0000000000000000000000000000000000054
:10BCF0000000000000000000000000000000000044
:10BD00000000000000000000000000000000000033
:10BD10000000000000000000000000000000000023
:10BD20000000000000000000000000000000000013
:10BD30000000000000000000000000000000000003
:10BD40000000000000000000FFFFFFFFFFFFFFFFFB
:10BD5000FFFFFFFFFFFFFFFFFFFFFFFFFFFFFFFFF3
:10BD6000FFFFFFFFFFFFFFFFFFFFFFFFFFFFFFFFE3
:10BD7000FFFFFFFFFFFFFFFFFFFFFFFFFFFFFFFFD3
:10BD8000FFFFFFFFFFFFFFFFFFFFFFFFFFFFFFFFC3
:10C04000FFFFFFFFFFFFFFFFFFFFFFFFFFFFFF22DD
:10C0500005061520C060715540B30000520105016E
:00000001FF
