:100000004D424E014D3448305901040001000000BA
:100010006000000000C000000000000000000000C0
:100020000000390100000000000000000004000092
:1000300001005901010026000004000000980000A2
:100040000200100127002C00009C00000018000096
:10005000030010012D002F0000B40000000C000070
:10006000001C00203502000000000000000000001D
:100070000000000000000000000000000000000080
:100080000000000000000000000000000000000070
:10009000000000000000000000000000550000000B
:1000A0005700000051010000790000008D000000A1
:1000B00000000000FEE708B5044B01221A70044B53
:1000C0000022DA77034B1B68984708BD0000002028
:1000D0000800005034000020034B01225A70A02376
:1000E0000022DB051A70704700000020034B01223C
:1000F0009A70A0230022DB059A7070470000002050
:100100008D23013B002B01D0C046FAE7044B10229F
:100110001B78DBB21807C00F134018437047C04666
:100120002B0000500F4BF7B518261E700E4BA02762
:100130001E70FFF7E5FFFF050B4B01AC00252C37C8
:1001400060701D703E70FFF7DBFF064B20703D7046
:100150001D7023786278181C504040001340034300
:10016000D8B2FEBD2A0000502D00005000230360CD
:1001700030B50B601312012B13D10423013B10D3B4
:10018000084DD4B25D5D641BF8D4074A9D00126827
:10019000AA58002A05D012190260044AD35C1C1B1D
:1001A0000C6030BDF0030000EC030000F40300001D
:1001B00070B58022D2051379DBB2002B19D12B4CFC
:1001C0006360A3602A4B1289261C251C1B6892B20F
:1001D00010361435E260301C291C002B06D09847DD
:1001E0002169002937D1E268301C291CFFF7BEFFC6
:1001F00031E0012B0CD11D4B186900282BD09968D8
:100200005C69A14227DA4C1C9C60137A435422E0BB
:10021000022B1BD1154C2369002B12D06068616939
:1002200088420EDA1B5C1BBAD360124B1B68002B92
:1002300003D0E268101880B29847636801336360A6
:1002400009E080230022DB05DA6004E0032B02D101
:10025000064B00229A60C0468023DB0501221A70FB
:10026000C04602221A7000221A7070BD00000020E1
:100270003C0000203800002080230222DB05FF32F2
:100280001A600421024AFF31118000221A7070475F
:1002900006000040F0B5A023DB059B68584A1F21EB
:1002A0008DB0DBB21160D12B0BD0D02B01D8013334
:1002B000DBB2A022D2059168FF20814319439160EF
:1002C000F1E7504B504A191D043B934203D20022E0
:1002D0001A600B1CF6E7FFF7CFFF4C4A8023DB02C6
:1002E0001A804B4A0026093A92B25A809E80C04634
:1002F000484ADB881168526809914749474C0A927D
:100300000A889FB209AB1A8123625F81FFF70AFF57
:1003100006AD311C01900A22281C09F09FF9404BC0
:1003200034221B78AA7048222B70EA704D233022A9
:100330006B702A716B71019A4523AB713A23EA7194
:10034000FF33694602AA0296A2610B81012204AB27
:100350000496E3615A70334B6562DA89324B211C93
:100360005D88324B28311B8803960B70211C1B0AB9
:1003700029310B7005962E4901232B265B42361935
:1003800033700B70201C211CB4462A4E2A302E31AB
:10039000337003700B70204E2F34237033889F42CC
:1003A00029D1254B9A4226D0AA4224D1234DEE8949
:1003B0009E4220D0EF89224D6E88B7421BD1214E3C
:1003C000F7899F4217D0144FF689FB889E4212D1BD
:1003D00063460270120A1A706B88154E9BB2337016
:1003E000144F0D4E1B0A3B70F3889BB20B701B0A17
:1003F000237000F03DF8144B02221A6062B6FEE74B
:1004000028000050040000204000002000040000EC
:1004100000C00000F0BF0000F8BF00000000002096
:100420004700005000040000FC9B0000FE03000099
:100430002C0000202D000020FFFF0000009C000089
:10044000FCB3000000B4000000E100E01800002050
:100450002030407008080C0AFFFFFFFFFFFF390142
:100460004D344830434F5432000000000000590121
:10047000F0B5D9B002AF03F03CFE05F0C9FBF8635C
:1004800008F06EFF08F09AFF09F0F2FB00F07CFE26
:10049000CA4ACB4B1A60CB4ACB4B1A60CB4ACC4BE7
:1004A0001A6005F0B5FB7864052800D146E316D83C
:1004B000022800D1FFE207D8002827D0012800D168
:1004C000ECE27C6CFC63ECE77D6C032D00D127E350
:1004D000042DF6D105F022FC02F0C2FB29E37C6C6E
:1004E000092C00D152E307D8072C00D13AE3082C9D
:1004F000E7D105F013FC3FE37D6C0A2D00D157E3F3
:100500000B2DDED105F00AFC00F0FDFB05F096FB9B
:10051000041E1AD00128D4D1AE4B02221B68391C0C
:100520001D6A7031BD611D691A627D617D6C261C7A
:100530001D61281C3F232A1C8D803D670B7105F02F
:100540006DFCBD637D6C3D64B8E00124012C02D0DC
:10055000022C0AD098E0002002F06CF803F018FAA0
:10056000C0B205F0A9FC02F04BF89A4B6C461B6830
:10057000BC635D681E681B696E43F3189B000A33F9
:10058000DB08DB00E01A8546862502AC6D003C6482
:100590007C19201C0021142209F060F89E204000E4
:1005A0003B1C9021BC333A1849005A607A189A6073
:1005B000391C283A1A61B031143A874D4A60143A0E
:1005C0008A602A688548DC60F03200241470026872
:1005D000386C5361824BB6001B68861910609161BC
:1005E00056602D331A7869465200131C0833DB0815
:1005F000DB00C91A8D4602AB181C211C7B6309F075
:100600002DF805F0E1FC3A6C4178331C201C00F019
:10061000A7FEF86BA04201D005F080FB2B689C6020
:1006200005F044FC041C03F0B3F9A04204D0201CE4
:1006300003F0B3F902241DE07C6B3A1C00943B1CD0
:10064000311CBC32B033386C01F066FC624B654A39
:100650001B68041C9968914202D09A6801329A6022
:10066000002807D105F0EAFA002803D105F0D0FAF6
:100670000028D5D0594D00232A6813605360536178
:100680009361BD6BFB63AD4605F0D8FA002803D03B
:10069000002001F0F5F814E705F0BAFA002800D1BF
:1006A00054E7F5E7022E0DD005F0C8FA012800D076
:1006B000EDE105F0ADFA002800D0E8E1012EF1D11E
:1006C00001F09EFF434D6C462B683C6158681C68E6
:1006D0001B694443E3189B000A33DB08DB006946CF
:1006E000C91A8D4602AA7A6302F0A8FD862000236B
:1006F00040003A1CFB6564323B185A60043A9A6029
:10070000043ADA60391C043A1A61E431043A4A6066
:10071000043A8A602A686D4690695269A40042438F
:1007200092000A32D208D200AD1AAD4602ADAAB08C
:1007300002A8BD62AAB0F825E85102AAFC20C25165
:10074000264A7D6B12682C191560546053619161C3
:10075000FC6205F039FC041C04F024F861780520E3
:100760007A6BFB6A00F0FCFD04F09CFB1A4BB86A44
:100770001B680024596900F01BFCFD6BA54201D0E9
:1007800005F0CCFA0020391C7831A223021C8C80A1
:10079000BC670B7105F042FB0F4B1B689C6000248B
:1007A00005F084FBF86303F0F3F8FD6BA8421BD05F
:1007B000281C03F0F2F8022659E1C046C158000097
:1007C0003C0000207D5E000038000020FD1000008D
:1007D000340000201C0300204000002044000020C2
:1007E0008C0B0020FFFFFF7F002C74D1D84B6D468F
:1007F0001B687D6298695A69410001324A43131CA3
:100800000833DB08DB00E91A8D4602AD281C211CE9
:100810003D6308F023FF386CCE4D082808D104F062
:1008200041FB2B68B86A596900F0C2FB3C6450E098
:10083000042003F07FFA2B68386B5969BA6A06F016
:1008400019F8051E012D12D103F0ACFF052003F0AD
:1008500071FA391C80318C800C60A323201C221C6F
:100860002C1C00250B7105F0D9FA3D6431E0BA4D1E
:10087000B86A2B68396B35331A7806F0D3F82B68D1
:10088000B86B35331B785B0098420ADD03F08AFFB2
:10089000052001217A6BFB6A00F062FD04F002FB87
:1008A000BC63B96B2B680131B9633433187803F03A
:1008B00074F803F089F82B6800263533187802F0B5
:1008C00075FE002002F094FEF86B03F066F803F06A
:1008D0009FF87D6AB6E0A04B1B68363318789D4BB5
:1008E0001B68186002F062FE052003F0FBF9786BCC
:1008F000F96A00F0E7FE061E06D086214900781846
:1009000000F0BEFF01249EE06C4692B002AD92B0B2
:10091000FC6002AC8AB0FD6302AD90B03C6302ACF7
:100920008AB07D62311C02AD402288B0F86B3C6217
:10093000FD6108F093FE311C4022386B08F08EFEFA
:10094000311C2022786A08F089FE311C4022386A66
:1009500008F084FE02AC311C2022F86908F07EFE0B
:10096000201C311C202208F079FE902040003D1808
:10097000F96B3A6B7B6AAC61784C6960AA60EB609A
:10098000386A2368F9698622520028616961281C47
:10099000B9181D63102200F0CFFE9E204000391CC4
:1009A0003C18BC3161600C39A1604439E160043904
:1009B00021613B1C6949D03363611E605E603A1C53
:1009C0000B684C32A2611C6186235B001680FA180A
:1009D0003B1CE433281C211CFE66BE6600F0E2FED0
:1009E0006068A16806F010FA6068A1680230023100
:1009F00006F00AFA381CF830396C07F081FE3864CA
:100A0000032804D0072800D083E1182505E0381C0E
:100A1000F83008F0D1F9051E09D005F01DF96B1E5C
:100A200001229A401040D84000D172E188E103F0E1
:100A30004DF903F02BF80124484B00221B681A6182
:100A40001A63FD68AD46434B454A1B68996891425D
:100A500002D09A6801329A60002E08D105F0EEF8B3
:100A6000012804D105F0D4F8002800D198E603F05D
:100A70002DF903F097FE394B1A6800231360536079
:100A80001361536193613C69FB63A5460CE6304BEF
:100A9000BD691B687C691D621C6112E505F03EF9A9
:100AA00005F0B6F80128FBD008F038FC00F06CFB2C
:100AB00004F05EFE05E500F0B7FE284B1B685869A0
:100AC00000F0DEFE04F0EAFF002003F007FA03F076
:100AD0006DF900F057F901F093FD05F01FF905F0ED
:100AE00037F903280DD004D801280AD0022808D0ED
:100AF0000FE005280BD007D306280AD102F028FD05
:100B000007E002F0E5F804E004F05EFC01E002F02A
:100B10000DFD05F07DF80228E1D000F097FED0E44D
:100B200005F0FCF801F06CFD05F072F80328FBD02D
:100B3000C7E405F06DF80428FBD0C2E405F0EEF838
:100B400003F00CFB05F064F80528FBD0B9E4C046BF
:100B50001C030020400000208C0B002044000020DB
:100B6000FFFFFF7F05F0DAF8012001F063FD05F0DB
:100B70004FF80728FBD0A4E4002003F0DBF803F0D3
:100B8000BBF905F045F80828F6D09AE405F0C6F858
:100B9000002002F0D4FB002003F0CCF803F0ACF905
:100BA00005F036F80928F6D0012002F0C8FB88E4E9
:100BB0006C4600207C6308F035FC08F0FFFB002049
:100BC00003F08CF96D4D2B685E6818681B6946430D
:100BD000F3180733DB08DB00E11A8D4602ACA619D7
:100BE000FC6202F00DFB02F023FB02F015FBF86A39
:100BF000311CFE6303F05EFB2B686D465A681B696F
:100C0000D3189B000A33DB08DB00ED1AAD4602ACBB
:100C10003C6405F083F8594D391C2B6898311868ED
:100C20001A7908704A708A705A1DD27F1B69FC6A53
:100C3000CA700B71002201234B710420131C009415
:100C400005F0B2F8F96BF86A04F0DCFA002003F062
:100C500071F82B684A495D680E68BD630022B86B65
:100C6000824208DA90008446B069644600593D6CBF
:100C700001322851F3E73C6C8200A4181D690E680C
:100C8000A4460022AA4206DA306A9100405864461F
:100C900060500132F6E7BA6B391CA03118684A700F
:100CA0009A6808708A700533DB7F0132CB70344B51
:100CB00092001B680D715B6904259A184D710092B2
:100CC0000022131C022005F06FF8391CA831012303
:100CD0000B702A4B3C6C1B6805201A794A708A708D
:100CE0005A1DD27F1B69CA7000220B714D71131CF3
:100CF000009405F059F804F08BFF0A288BD07D6B27
:100D0000AD46FFF7DEFB04F083FF0B28FBD0FFF7B7
:100D1000D8FB3C6C082C00D089E602F0D7FF0120FC
:100D200002F039FC0024391C8831A223201C221C2B
:100D30008C800C600B7105F071F804F0B3F87BE661
:100D400002214820C155381C49224830D55504F0AD
:100D5000EBFE02F0BBFF012002F01DFC0024391C59
:100D60009031A223201C221C08258C800C600B7162
:100D700005F054F804F096F83D645DE61C0300208D
:100D800040000020F8B5184D7146281C764603F047
:100D9000F5FA164C276802F08FFE7862276802F099
:100DA0008FFEB862276802F08FFE7861276802F034
:100DB0008FFEF861276802F0D7FEB861276802F05D
:100DC000E7FE0B4B0B491B68096838621878097CF1
:100DD0002268414302331161E832281C311C136040
:100DE00003F0E4FAF8BDC046250D000040000020E5
:100DF000940B00208C0B0020014B18607047C046FC
:100E00008C0B0020014B18687047C0468C0B0020EB
:100E1000014B18607047C046940B0020014B1868C6
:100E20007047C046940B0020014B18687047C046BD
:100E300040000020014B58687047C0464000002029
:100E400082B0F0B589B0109C151C0F9306930294E4
:100E500007900E1C119C02F0D3F947793A4B049786
:100E60008279964206D11B680021DA69AB00D05A1C
:100E700003910BE01A68354B52691968731C896835
:100E800003964B43EB1801339B00D05A04997143EE
:100E900049194A00A4182388069E0193019F7318DC
:100EA000874203D8C61B029FBE521CE0029EB618A2
:100EB00005960027F65F013610D01F787EB2B44643
:100EC000013601DA013703E06646002E06DD013FF8
:100ED0001F7002235B42238001202FE0069F7918B8
:100EE0000F78002F01D120800CE07FB27C1C05D14F
:100EF000019E059F301A3880002002E0012F01D1A9
:100F0000FF2008701978039C049E079F48B2744321
:100F10007D19002805DC029EB25E013208D000294E
:100F200006D12A5700203E2A08DC0131197005E05D
:100F30002A57002A01DD01391970002009B0F0BCE0
:100F400008BC02B01847C046400000201C03002027
:100F500070B5154C7146201C754603F00FFA134B03
:100F600000221B68191C88310A601E1C01219C3656
:100F70004942181C3160B2600830083EF18232608C
:100F80007283C26790300160826008380183191C47
:100F9000AC31026004330A8020390A60201C291C0D
:100FA000DA6703F003FA70BDF10E00004000002084
:100FB000F0B5754685B00395294D01900F1C281C8E
:100FC000714603F0DBF9274B00211B680198DA69B1
:100FD000920008F043FB04F0F7FF02904478214DA3
:100FE000002C21D0042002F0A5FE28684269561E7C
:100FF000009617D383690099019E5943C918890047
:1010000071180439013B0BD3866856439E1901368B
:10101000B600F5590E68AC46B44465460D60F0E77D
:10102000009AE4E7013CDAE72F687D69013D11D3BE
:10103000BC69019A261C6E433619B6009619043E07
:10104000013CF3D3029B3068597808F0F7F90004AB
:101050003060F4E70248039903F0A8F905B0F0BD49
:10106000510F00001C03002038B50B4C7146201CAA
:10107000754603F083F9094B201C1B68DA6A002AC5
:1010800003DD596B5218D20F00E000227433291C83
:101090001A7003F08BF938BD0910000040000020E1
:1010A000F0B52C4F72468BB07146381C019203F09C
:1010B00065F9294D2B681A1CCC321178583A002951
:1010C00004D1191CB0310978002901D00021117018
:1010D0001478002C21D0996F002407915A6B03A932
:1010E0000892DB6A07AA099303234B708B707C2359
:1010F0005B42CB7001261023201C8C800E700B717C
:1011000004F08CFE2B689A6FD96F8A4202DC921928
:101110009A6718E09C67341C15E05A6B05A9079282
:10112000DB6A0920089301230B7002234B708B703C
:101130007C235B42CB7007AA64238C800B7104F084
:101140006DFE2B689C67381C019903F02FF9201C59
:101150000BB0F0BD411000004000002038B5094C34
:101160007146201C754603F009F904F067FD00285C
:1011700002D1022002F0B6FD291C201C03F016F952
:1011800038BDC046FD10000037B5114C7146201C1B
:10119000754603F0F3F805F0BFFC02F03DFE021EB9
:1011A00007D16946A923888000900B7104F036FEB0
:1011B000FEE7084B1B6803CB02F0CEF805F0C8FC35
:1011C000FFF7E0FD291C201C03F0F0F837BDC046F6
:1011D000291100001C030020F0B587B000AF754650
:1011E000786039615C487146FD6003F0C7F803F030
:1011F00011F883000A33DB08DB006E46F61AB546A9
:10120000041C684603F00CF863000833DB08DB00BD
:10121000F61A301C6D46B546BE6003F01BF84F4B06
:101220001B68191C88310868632807DD012000222B
:1012300040420A604861CA61191DCA671A1C883297
:101240001068191C013008311060CA6F632A09DD6B
:1012500000220120CA67404290318A6008601A1D4E
:101260000121D1671A1C0832D16F0131D167191CD5
:1012700094310E68012E07DD0120002240420A60F1
:10128000C8824A8308390A601A1C943211680131F5
:101290001160191C90310868012809DD0022012025
:1012A0000A608A8340421A1C08838C320121116033
:1012B0001A1C90321168013111600022101C013C8F
:1012C00008D3A1006958BE6840186100715A5218CD
:1012D00092B2F4E7191CAA310024A4261D19B446C1
:1012E000AC447D6165462D68854201D2664630601A
:1012F0007E699C363568854200D930608E8896427A
:1013000000D28A800E88964200D90A80043C261CAE
:1013100002390836E1D11A1DD26F7D6892009A1801
:10132000111CA0319832096812683E698A1A2A8015
:101330001A1C8C321268084852009B181A1CAC32D6
:10134000A83312881B88F968D31A338003F02EF86B
:10135000BD4607B0F0BDC046791100004000002036
:10136000F0B5284E85B075460191041C7146301CBD
:101370001F1C0395009203F001F8234D00212B68F8
:101380000098DA68920008F069F92B68381C1A692D
:101390000021920008F062F9019D002D0CD0201C64
:1013A00002F0C8FC194B00981B68391C5A69DB69AC
:1013B00005F026FA013DF0E7002C0FD1134B1B6816
:1013C0005D699E69029502F066FB051C02F06CFBEC
:1013D000311C031C2A1C029804F00EFE0098391CD4
:1013E000019A04F071FF002C06D1084B201C1D68E7
:1013F00002F050FEEC3528600248039902F0D6FF57
:1014000005B0F0BD011300001C03002040000020C7
:10141000F0B595B004AF754678613961A34871465F
:10142000FA61BB61FD6002F0A9FF04F0CDFDA04BA5
:101430006C461B68BC601C68786204346400221C23
:101440000832D2086846D200851A5A68AD4604327E
:101450005200131C0833DB08DB006846C01A04ADD9
:10146000854604AE301C00213D6208F0F7F8221CCE
:101470000021386A08F0F2F88E4C7D6923685A69B9
:10148000191C9B690095386A2C3104300190301D7D
:101490000290F86904F0BAFF2368874D191C68317F
:1014A0003960796A78602A68097B58699268009186
:1014B000396A029601912C33396807F0F5FCBA6855
:1014C000236838699546191CDA691B6A00902C312B
:1014D000B86905F0FBF87E680643F6B23E6204F098
:1014E00085FD0679012E0BD12B685B691B78002BDB
:1014F00006D104F0A3FB012802D0301C02F04BF807
:101500002568281C291C68312C3004F045FF6B4AE3
:1015100023681268E8660C24115F9D6D8D420EDC15
:101520000E20115EDC6D8C4209DB1025515F186EB8
:10153000884204DC1221525E5B6E934221DA002362
:101540003B8738220123D35504F094FB002818D19F
:1015500004F0A0F9002814D0564B1A68FF239168B4
:10156000FE2901DC9368DBB2381C022139243830B3
:10157000E35504F0D9FA524802F054FF01F008FF95
:10158000E2E74B4E2921336828255A681868CA5566
:101590009A682A23DA558023E8555B4202252B43BB
:1015A0002B200024C3552C215323BC850132CB555D
:1015B000FB695200391C9A180120283104F02EFCD6
:1015C00032680121137C3020C15531203221C355AE
:1015D000CB5580235B422B433322D35534206D23DC
:1015E000391CBC863031C355BA69012004F016FCA1
:1015F000336838211A683920CA555968C1559A6824
:101600003A20C255591DC97F3B20C1551B693D2059
:101610003C21CB55C35D7F218B43802149422B4325
:101620000B430132F96952008A18391CC35538310D
:101630000120231C0092221C04F0B6FBFFF714FDCE
:10164000FFF72EFDA04227D11A4C2368586902F0FB
:101650009DFC2368D86E02F095FB02F079F93D6A93
:10166000002D0DD12368F9691A1C2C321B6878698A
:1016700004F03EFD236838691A68B96904F094FDE6
:10168000022001F0B5FFB86905F0EAFA20680024ED
:10169000703006F029FE00E02C1C0448F96802F0C6
:1016A00085FE201CBD4611B0F0BDC046B113000040
:1016B0001C0300204000002044000020940B002068
:1016C00010270000F7B5194C00AF73467960061C6F
:1016D0007146201C3B6002F051FE154B68461B68AA
:1016E000144D19689B688A1C5B005A4301315B08E2
:1016F0004B430832D208D200801A8546013329684C
:101700006A465B00D3188A60CB60301C7968FFF7AB
:101710007FFE2B680022061C3968201C9A60DA6064
:1017200002F044FEBD46301CFEBDC04665160000FA
:101730001C03002044000020F0B585B002AF7446C1
:10174000051C3C607960141C7146144802F016FEBA
:10175000A200131C0A33DB08DB006946C91A8D4658
:1017600002AC201C002107F079FF0D4E281C3268C6
:10177000516A936A68320092221C06F0D7FD3368E2
:101780007A68596A281C9B6A0092221C06F056F956
:101790003968024802F00AFEBD46F7BDD9160000BE
:1017A00040000020F7B51E4F75460C1C161C7146F4
:1017B000019500901D1C381C02F0E0FD211C2B1C23
:1017C0000098321C06F06AFB164B201C1B68596AF5
:1017D0009A6A06F079FC201C05F0A0FC201C05F09C
:1017E000CDFB2A1C201C311C05F068FA04F0FEFB1E
:1017F000051C05F0A7F9963003783C1C002B09D195
:101800002B79002B06D004F019FA012802D0012010
:1018100001F0C1FE201C019902F0C8FDF7BDC046D1
:10182000451700004000002038B5074C7146201CC9
:10183000754602F0A3FD07F041FD01F0E7FC291C0D
:10184000201C02F0B3FD38BDC917000038B50B4CA1
:101850007146201C754602F091FD07F0E9FD07F086
:1018600035FD01F0D3FC002002F038FB01F070FEE2
:10187000291C201C02F09AFD38BDC046ED1700005F
:10188000F0B5C5B000AF73467146041C38487B60A4
:101890003E1C02F073FD381C2C360021142240300F
:1018A0003D1C07F0DBFEE835301C0021142207F058
:1018B000D5FE00212822281C07F0D0FE381C0A2261
:1018C0000C30002107F0CAFE3B1C6833D022D351F4
:1018D000143BD422D3514023DB19D822D351DC232B
:1018E000DE51E0220C23D551DB19E422D351204EE6
:1018F000002C2AD16A46583D3A60281C211C14222B
:1019000007F0ACFE3B1CB833FB61143B3B62283B49
:10191000BB62184B7D621B681B6A5B00023B9A1C12
:1019200002D0FF22EA52F9E7381C391CCC301831BA
:1019300005F00EFA05F03EFA381C391CCC3018318F
:1019400005F0ACFC3B689D460BE0381CCC30211CFC
:1019500005F0FEF905F02EFA381CCC30211C05F0FC
:101960009DFC301C796802F021FDBD4645B0F0BDFC
:10197000211800001C030020F7B5304E7146301CC2
:10198000754602F0FBFC05F0DDF82D4C963023681F
:1019900001781A79002902D151B2481C04D10027DC
:1019A000DF60BA420DD118E0D8681A69904202DAB5
:1019B000D8680130D86001290FD0DB6893420CDB76
:1019C000012700223B1C69460E33101C8A800092BE
:1019D0000B7104F023FA23681F7123681A79002A17
:1019E00003D1184A1268127804E0012A03D1154A7B
:1019F000126852781A60186802F0F0FC2368071C1D
:101A0000EC33186802F00EFD3F1A002F0BDD23683F
:101A1000186802F0E3FC2368071CEC33186802F036
:101A200001FD381A00E0012001F0B5FD01F0D4FD00
:101A3000301C291C02F0BAFCF7BDC0461919000081
:101A400040000020940B0020F0B5734691B0041CB8
:101A50000E1CAF487146059302F090FC04F0C6FAE4
:101A6000049005F06FF82278AA4B002A08D1723052
:101A70000278511E8A41D2B20292002A06D001E0B9
:101A8000012002901A680021B83205E01A68B832C5
:101A90001168FE2901DC013111601B6800211A1C4C
:101AA000B43211700299002904D09B490968097D5C
:101AB00000295FD0181CB3300178C9B2002908D0C2
:101AC00003785BB2022B00D0012313700023037054
:101AD00084E11D1CB0352C78002C09D00124147031
:101AE0001A1CB132BC33017029701170196076E193
:101AF000029800283ED1191CBC310C68002C09DD6D
:101B0000013C012C01D00C6034E0029B0B600323EC
:101B1000137064E11A1CE832126811887F4A9142FE
:101B200028D01A1CC83211887D4A126852888A420D
:101B300020D8794C2068427C181CB830006890424C
:101B400018DB0EAA1180CA331B8806A95380029B9A
:101B500002988B8001230B7002234B708B70CB702B
:101B600015230B7104F05AF96A4B22681B68927CAA
:101B7000BC331A60684C2768F87C002800D02DE13F
:101B80000299644D002900D08AE02C68231CE733B9
:101B90001B78002B5CD03B1C2C331B78002B57D0C0
:101BA000231C0E91DC331B680393231CC83303985A
:101BB0001A8843009A533B1C2D33197802984B0026
:101BC000F618031C994206D05A00B21A023A12883B
:101BD00001338018F6E707F07FFC0E90FA8B231C88
:101BE000E033904202DA1A68013200E000221A6003
:101BF0003B1C221C2E33E0321B7812689A4219DDFE
:101C00007C2308A900265B420124CB70301C1623DC
:101C10000EAA8E800C700B714C708C7004F0FEF864
:101C20002B68301C1A1CDC32E03316601E6004F096
:101C300037F9D4E03B1C2D331A780399231C013A61
:101C4000DC33914202DA0A1C013200E000221A6001
:101C5000C4340137FB7F22689A4219DB00240AA9A9
:101C60001223201C221C8C800A940B7104F0D6F8DD
:101C70002A682948131CC0331968006801311960AB
:101C80000230C07F814203DB1C60B4320223137038
:101C90002A680023111CB231C4320B70136049E072
:101CA0002B681A1CBC3210602A321278002A41D0EC
:101CB000191CC83109880EAA1180CA331B880CA9C7
:101CC000538001230B7002234B708B70CB70192350
:101CD00088800B7104F0A2F82B682268191CC831A7
:101CE0000C88D08B163984421CD2181CCA30048848
:101CF000508D844216D2097800291BD1C433013299
:101D00001968D27F914215DA0131196012E0C0469C
:101D1000E9190000400000208C0B0020FFFF0000AC
:101D2000940B002001220A70191C0022C431C03318
:101D30000A601A602D4D2B681A1CE6321278002AB0
:101D40004CD104980279002A46D01A1CB03214787B
:101D5000002C43D1264ED86A3768798BBA8BFB8A20
:101D60003F8B009704F0EAF836682B68718CB28CD0
:101D7000071CD86AF38C368D009604F0DFF82B68C8
:101D80001A1CC8321188CA33B94202DA1A88824250
:101D900014DB08AA11801B880EA95380022300209F
:101DA00001254B708B70CB70172388800D700B71E1
:101DB00004F034F80D4B1B68B1331D700B4B1B68DE
:101DC0001A1CB1321278002A08D00299002905D0D5
:101DD000B03301221A7002E0B1331A7001240548B1
:101DE000059902F0E3FA201C11B0F0BD400000207C
:101DF0008C0B0020E9190000F7B575460195424D9E
:101E00007146041C281C02F0B9FA404E33681A1CB3
:101E1000B1321278002A24D01A1CE6321278002A35
:101E20001FD11A1CCC32117800291AD1B0331B787B
:101E3000002B16D10123137001F0EEF9071C01F0FD
:101E4000DFF9334A031C1268453303CA3A1C5B327C
:101E500004F0ECF901F03AFF022001F043FFFFF734
:101E600077F833681A1CCC321278002A45D01A1C35
:101E70000020B0321070274A00901768011C3A6A9F
:101E8000013A0BD3E5685600755B002DF8D02EB2F1
:101E90000131B042F4DA301C0092F1E71A1CE6324C
:101EA0001278002A0ED101290CDD012222703A6A33
:101EB000013A09D300998A42FAD0E568510000201E
:101EC0004853F5E7002903D01A1C0021D43208E05A
:101ED0001A1C181CD432D03011680068814201DC11
:101EE000013111601A1CD4321168043A126891420F
:101EF00005DDB03301221A7001E0D4331A600248C4
:101F0000019902F053FAF7BD991D0000400000202E
:101F1000440000201C030020F0B5C1B002AF75469C
:101F2000F861B961D94871467D603A62BB6002F0E0
:101F300025FAD74E6C4632683C61136892689D1C46
:101F4000520055430133291C520853430831C90834
:101F5000C900601A8546013302AC5B00FC62E318DD
:101F6000CC4CBB622368FC6A00219C60BC6A3C22AA
:101F7000DC60C94C20682C3007F070FB2A1C002163
:101F8000F86A07F06BFBA62300203821002538876C
:101F9000CB55391C2A1C281C34317D6303F03EFFCD
:101FA000FFF7EAFC21683C25081CC830CA31FFF75E
:101FB00013F9316800234022D35301200B79E855EF
:101FC0003D223E25D355EB5540225B23D3550421BA
:101FD00023683F20C155391C9A6902203C3103F027
:101FE0001DFF326800254823DD530121137C442066
:101FF000C15545254620EB55C35548256C23EB5567
:10200000042223684721CA55391C1A6A0220443128
:1020100003F004FF23683D1C1A1CC8321288DC350B
:102020002A80CA331B88391C4C3101220020888049
:102030000A700A716B800C2002232A1C4B708B7073
:10204000CB7003F0EBFE3368391C5A6818685431C2
:102050004A709A680870581D1B698A70C07F0B719E
:1020600004234B71236801325B6992009A18C8708F
:1020700000920022131C022003F096FEF869B96951
:10208000FA6ABB6AFFF7C4F9F862002803D0386A1D
:10209000FFF7F6FBCEE0684692B002AC92B0BC62AD
:1020A00002AC8AB0FC6102AC90B002AE8AB0BC61F6
:1020B00002AC88B0F8607C62F96A02AC4022B86A6F
:1020C0007C6107F0CBFAF96A4022F86907F0C6FA9A
:1020D000F96A2022B86907F0C1FA301CF96A402277
:1020E00007F0BCFAF96A2022786A07F0B7FAF96AB1
:1020F0002022786907F0B2FA3C1CF969C034B86A4A
:102100007B6AA1606349BA696060636178690B6842
:10211000E2601C63A061396A201C10222661FFF76F
:102120000BFB3E1C8AB002AA8436BA62F96A1422FA
:10213000301C07F093FA381CF96A1422703007F04B
:102140008DFAF96A2822B86A07F088FA381CF96A09
:102150000A22643007F082FA3B1CAC336B60143BFC
:10216000AB604C4A7023DB192B61B86A1368642199
:10217000C9196861A961EE60201C1D61291C3A6AB9
:10218000BB68FFF70FFB88235B00D959281CFFF7BA
:102190005BFC424B1B681B7D002B02D1281CFFF708
:1021A0002BFE3C1CDC34201C396A05F077F82578BE
:1021B0006C46AB000733DB08DB00E41AA54602AC33
:1021C0003C622E1C12243B1CDC33D868025F002AC0
:1021D00009DD3A6A013E5B69B000610010185918C8
:1021E000042207F0F9F9023CA31CECD1284B391C5E
:1021F0001B685C311C6858689A680C7048708A705B
:102200000533DB7F0132CB707E235B424B71224B67
:1022100052001B6800249B6A0C719A1800923B6A5A
:1022200003202A1C03F0C0FD1A4B1B681C611C63B1
:10223000FC68A546174B00221B689A60DA603D696E
:10224000AD4601F023FC01F041FD01F0FBF9012056
:1022500001F070FD01F040FB0F4BB4201B681856D5
:1022600000F0F0FB041E00D1FC6A0D4B1B681A68DD
:102270000C4B9A4202D001F071FFFEE703487968E7
:1022800002F094F8201CBD463FB0F0BDB91E00001E
:102290001C03002044000020400000208C0B002084
:1022A000E80D0020CDCDCDCDF0B59DB002AF744688
:1022B0007146CE487C6002F061F800F0A1FF061C78
:1022C00000F0B6FF386100F0A7FFC94B6D461C68EF
:1022D000B860E36800211A1C0E32D208D200AD1A91
:1022E0002269AD460E32D208D2006846801A02AD8D
:1022F0008546FD6102AD7D6272799A18131C0E331A
:10230000DB08DB00C01A53000E33DB08DB00854618
:10231000C01A02AD8546C01ABD6102AD854602A84D
:102320007861B86907F09AF9E1687279281C521847
:1023300001215200494207F091F9E3687279AD49F1
:10234000D2185200786907F089F9E2683969F869AA
:102350003D6607F041F939692269BA31FF31786A7F
:102360004024002507F038F9FC603D62796AF8697D
:1023700002F048FF032001F0DDFC9D4D00202B689A
:1023800038861A6858682C212D24CA55E0559A6859
:1023900004242F23DC55984C51233020C355236847
:1023A0002E21CA555B6901329200391C9A1802200D
:1023B0002C3103F033FD01233422D3552B68362012
:1023C0001B7C3525EB55C35500215A233825398709
:1023D00004223721EB552368CA55391CDA690220DB
:1023E000343103F01BFDB479013C631C2CD07579AA
:1023F000013D6A1CF8D0737978696343EB185B0080
:102400001A5A7E4B9A42F3D0B96960223960F96555
:102410007866D219694609CA09C1211C3B68F86966
:102420002A1CFEF70DFD002803D03B6A01339BB246
:102430003B627379BA6963433869EB18D15CC25C5B
:102440008A18F969CA54D3E7F479013C601C2FD08B
:10245000B17973797D694B43E3185B005A5B674B35
:102460009A42F2D0BD6960203D60FD65C0197D696A
:1024700084467D666846624628CA28C0221C3B689E
:10248000786AFEF7DDFC002803D03B6A01339BB27B
:102490003B627379B279BD695A432B193D699A5CE5
:1024A0002919BA31FF310B787D6AD3182B55CCE747
:1024B0004F4B3C6A1B68DA681B69D3189C4206DAEA
:1024C000FB68013BDBB2FB60002B00D04EE7002431
:1024D0004025FC63EC53B3793C20C35573793D210F
:1024E0003E223F25D355CB55EB5D7F20012583430D
:1024F00080212B4349420B433F22D3554020D22316
:10250000391CC3553C310820FA6903F087FC391C9B
:1025100044317C648C800D70F3797F224B708B701A
:10252000CB78082093431D4380235B422B43CB7021
:102530007A6AD3230B7103F071FCB379013B0FD39B
:102540007279013AFAD37179BD685943FC698918E7
:10255000E818611864300C78007820180870F0E7EB
:10256000F379013B08D3BC687D6AE2187C321178AC
:10257000EA5C8A18EA54F4E7F869796A02F042FEE4
:10258000391C4C310024FC648C80B3797F200B70A3
:10259000737901254B708B70CB78802283432B435A
:1025A00052421343CB70FA691D2308200B7103F0CC
:1025B00035FC391C54317C658C800D70F3797F2497
:1025C0004B708B70CB788026A3431D4376421E232D
:1025D0007A6A2E4308200B71CE7003F01FFC03486B
:1025E000796801F0E3FEBD461BB0F0BD4922000052
:1025F0001C030020FFFF000040000020FEFF000041
:1026000038B50B4C7146201C754601F0B7FE00F042
:1026100003FE58300378002B02D1FFF745FE01E09E
:1026200001F07AFE291C201C01F0C0FE38BDC04616
:10263000A1250000F0B5A5B000AF724671467861E3
:10264000E1487A6001F09AFEE04C23689B683B62A7
:102650005B0001333B6501F08FF92368FF229B6823
:10266000F865D31A984200DDFB65F86D3B6A0024DB
:10267000C31AFB6101F086F93A6D694655002B1CBF
:102680000833DB08DB00C81A85466A466423DC533E
:10269000602001237965FA6461216222C355CB551C
:1026A000D3557C235B426320C3556421B123CB55B2
:1026B0003A1C391C201C60315C3203F0AFFB3A6DD0
:1026C000944206DAF869F96C63002218CA520134A0
:1026D000F5E700246C23D1B2DC530126682069227F
:1026E0006A23C655D155D955B96402236B20391CCC
:1026F000C3556831201CFA6C03F090FB2B1C796DDC
:1027000008338D46DB08DB006A46D21A9546D21A9A
:1027100069469546F9637A6301F07CFD3861301CA7
:1027200000F0C8FF211C2A1C786B06F097FF211CC3
:10273000F86B2A1C06F092FF386D69468000031C76
:102740000A33DB08DB00C91A8D46C91A3B69B86138
:102750009B00684638638D46F962BB60FC640021CB
:10276000BA69386B06F07AFFF86AFF21BA6906F099
:1027700075FF00207865954B786D1B685B68984203
:102780004BDAF9690026C9B2081CB96301F005F9F2
:1027900001F0D2F800F084FFFC6A3D6B386D013621
:1027A000F217C30F86425341DBB2BB62002B06D146
:1027B000B96B8819C0B201F0F0F801F0BDF86B46B2
:1027C000FB60BB686A460A33DB08DB00D01A85462B
:1027D0006A467A6401F024FD00231A1C39698A4292
:1027E00005DA786C9100415801325B18F6E72A68E7
:1027F000934200D92B602068834200D22360F9689D
:10280000BA6A8D4604340435002A02D100F048FF2C
:10281000C4E77B6D01337B65ADE700216C4D7965C5
:102820000C1C3A6D944217DA3A6BF96AA300D0583F
:10283000CB58C01A854204DDFA69051CA2187A62D9
:102840003C647B6D834200DA786500F01DFFF96B14
:102850006300C8520134E4E7786D00F015FF5B4B6C
:102860001B685B88984206DA7B69012B03D0F86D00
:10287000396A78623964574D00262C683222231D4C
:10288000DE670433DA67396C803364221A6002220F
:1028900091409A60FA6A01208A58D8605E60101CE4
:1028A0003A60B96300F0F0FE9834BB6B396B20607E
:1028B00058582C6800F0E8FE2B6801211A1CAA3237
:1028C000A0344942206011807A69AE331E80012A0B
:1028D0002BD17A6B331C396D8B4209DAF86B5900B6
:1028E000415A1088884200D2118001330232F2E747
:1028F0003A6C786B53001A5AF96C131C8A4200D256
:102900000B1C9BB27021FB640123CB557422BB6C62
:102910000020D05372217122D355CB55732202234C
:10292000391CD35570317A6B10E0786D00F0ACFE35
:10293000391C80B278310222F864B86C0123CA7065
:10294000FA6B487088708E800B70301C03F066FA4A
:10295000386C8823D8537A6AFB6B8A214400CA53A7
:102960001C19FA6C23888E21CA538C20391C8031A3
:10297000C35304234B708B70002502233A1CCB7089
:102980008832B2230126281C8D800E700B7103F053
:1029900045FA23880F4C2268111CE8310968098820
:1029A000994224D206F044FD051C06F09BFC0378F6
:1029B0007865002B10D0301C03F072FA23687E6D0E
:1029C000E83302361E6023E0D5250000940B00207A
:1029D000FFFFFF7F40000020002D19D1164B1B6820
:1029E000DB7C002B14D1301C03F04EFA10E0E732F0
:1029F0001278002A0CD0114E306842889A4207D9CA
:102A0000281C03F04DFA23683268E83302321A605A
:102A1000796900290AD17A6AD0B200F0BEFF08486D
:102A2000796801F0C3FCBD4625B0F0BD03F0F0F8B5
:102A3000072800D193E6EEE78C0B0020940B0020D2
:102A4000D5250000F0B5814D8DB0724671460190DC
:102A5000281C039201F092FC06F0EAFC061C03F02D
:102A600025F9071C03F030F9794C029023681A1CF1
:102A7000E4321278BA4226D0002F0CD000226B46E6
:102A80009A8269463B230B75101C04A90492022606
:102A900003F0C4F912E0029A3D1C002A0FD106A9E6
:102AA0003C23381C3A1C8F8006970B7103F0B6F953
:102AB0002368E6331E78731E9E41F6B20125236813
:102AC000E4331F701FE01A1CE532127802998A4223
:102AD00018D0002906D1E6331E78731E9E41F6B247
:102AE0003A2301E039230226002208A9101C8A801B
:102AF00008920B7103F092F92368029AE5331A7079
:102B0000012500E0002503F08BF8071C03F0C0F856
:102B1000019B032B02D0002F03D107E00125002FDA
:102B200038D0002003F084F8012533E02368E43333
:102B30001F88002F2ED10199012902D0022904D02B
:102B40000EE0019803F0A0F90AE0381C03F09CF9AC
:102B50002368E7331B78002B02D0381C03F0A0F960
:102B600003F08CF92368071CE6331B78834211D0ED
:102B7000002802D01123012601E01223061C0022A6
:102B80000AA9101C8A800A920B7103F047F9236886
:102B9000E6331F7006F04CFCB04237D006F048FC1C
:102BA00006F094FB071C301C06F090FB019006F029
:102BB0003FFC301C06F036FC06F000FC254B1B6881
:102BC000187D002801D1012D0ED0234B3A1C1B6823
:102BD0005B3203CB019B5B3303F028FB002001F049
:102BE000A9F8FEF7B5F904E02368CC33187001F0BA
:102BF00075F9002003F054F9236800211A1CE7320C
:102C00001170164AE833126802321A6006F010FC9E
:102C100006F068FB0378002B08D003F03BF923682B
:102C2000E7331A78824201D01870012503F068F862
:102C3000041C03F087FF0379A34200D0047103480A
:102C4000039901F0B3FB281C0DB0F0BDE52900008D
:102C5000400000208C0B002044000020940B00203A
:102C600038B5054C75467146201C01F087FB291CC0
:102C7000201C01F09BFB38BD012C000038B5054C31
:102C800075467146201C01F079FB291C201C01F0BF
:102C90008DFB38BD1D2C000038B5054C75467146BE
:102CA000201C01F06BFB291C201C01F07FFB38BDB0
:102CB000392C000038B5054C75467146201C01F0D2
:102CC0005DFB291C201C01F071FB38BD552C000058
:102CD000F0B599B000AF74467146F861D1487C6197
:102CE00001F04CFBD04C23685D681E68BD636E43E9
:102CF00075007D63BD6BBE62721951000831C90851
:102D0000C9006E46761AB5466D469000FD620A30DF
:102D1000BD6BC0080732C000AE00D2086D462D1A48
:102D2000D200A81AAD468546FD636D46401A7D6403
:102D3000BE4D85463863B96A786C2A68411850627E
:102D400091627A6B3964520850007A621A69694656
:102D5000B86152000818FF2106F080FCFF217A6B51
:102D6000386B06F07BFC23680021DA68786C06F08B
:102D700075FC236800211A69386C06F06FFC2B681B
:102D8000BD6BB8696A00FD6A52083A622A18DD61B3
:102D90001A6223680021DA68F86B920006F05EFC84
:102DA000BD6A0021AB00FD6BEB187B632368786B79
:102DB0001A69920006F052FCFEF724F8386400F01D
:102DC0001FFAFD69022D00D197E0032D00D131E1FA
:102DD000012D00D0E0E13B6CB6083E632F331E7836
:102DE000914C002E42D0002000F0A4FF22689049B0
:102DF00053680968013B21D3980014687864651E04
:102E0000BD63F7D3786C8D692D589068BD624443DB
:102E10001C194D690134A4006059BD6A0024A84200
:102E200000DD441BB86B3D6B4543F86B5D19AD008D
:102E300028580419F86B2C50BC6BE0E77C4B1269E6
:102E40001968531E9B00013A0ED3086AC458C8691A
:102E5000C5580020A54200DD281B7C6B7D6BE45823
:102E60002018E850043BEEE7013EB9E72668746895
:102E7000013C16D33568013DFAD33B6A3A6C6B438B
:102E8000E3185B007B643B6B2F326B431178E318D4
:102E9000FA6B9B00985806F01FFB7B6CF96A58523E
:102EA000E9E734697E6A7500FE6A7519013C0AD348
:102EB0003A6CA3002F3211787A6B6600D05806F076
:102EC0000BFBA853F2E7FFF7D9FE574C49202368C4
:102ED0004A211A791E684825C255CA555A1D1B69D0
:102EE000EE554C25D27FEB557E234B245B424D267D
:102EF000381CE255F355483091E03B6CB6083E6310
:102F000030331B78BB62BE6A474D002E41D0002093
:102F100000F010FF2A68464B11681E684B1E7B6448
:102F200024D353687C6C581E8446386BFD6B604319
:102F3000604484002C19BC63013B15D390680124C4
:102F4000484384469C44B86BA44400687469654651
:102F5000AD00786028597C688446A444B86B654607
:102F600005600438B863E7E7796CD7E7304B12693E
:102F700019689300043B013A07D3CD697C6BE8588C
:102F8000E4587E6B2018F050F4E7BC6A013CBC6248
:102F9000B9E72E687468013C16D33568013DFAD351
:102FA0003B6A3A6C6B43E3185B007B643B6B3032EB
:102FB0006B431178E318FA6B9B00985806F08CFA73
:102FC0007B6CF96A5852E9E734697E6A7500FE6ADB
:102FD0007519013C0AD33A6CA300303211787A6B30
:102FE0006600D05806F078FAA853F2E7FFF754FECF
:102FF0000D4C5120236852211A791E685025C25564
:10300000CA555A1D1B69EE555425D27FEB557E23B8
:1030100053245B425526381CE255F3555030F96A6B
:10302000B8E0C046712C00001C03002044000020C2
:103030004000002023680021DA68F86B920006F057
:103040000DFB2368786B1A690021920006F006FBDD
:103050003B6CB608FE6231331B78FB61FD69554C51
:10306000002D4FD0002000F065FE5349226808680B
:1030700053688446013B24D31068411EFAD39468F8
:1030800065466043FC6A18184C431C196D69A6001C
:103090000130FC6B800040593459051C3C64A0424F
:1030A00000DA251CFC6B35513C6A4C431C19660048
:1030B0003C6B355BA84200DD281C3D6B7053081C3F
:1030C000DBE713697E6A591E3B4A89193C6B49004C
:1030D000156861189A00043A013B0FD3EE69B058A5
:1030E0007E6BB458844200DA041C7E6BB4500C88AA
:1030F000844200DD041C0C800239ECE7FC69013CD1
:10310000FC61ABE721684B68013B18D30A68013AC0
:10311000FAD37E6C3D6AF6183E645543FE6A386BFE
:1031200056435D196D002D5A9E19F86BB60036583E
:10313000386C761BBD6B761055434655E7E77E6AC3
:103140000B6975003E6B7519013B0AD37E6CB86A3A
:10315000990032187E6B70585900695A411AD1543F
:10316000F2E7FFF7A7FD23685A251A791968592451
:103170005820E255EA555A1D1B69C1555C20D27F83
:10318000C3557F235D215B425B26CB55381C796C90
:10319000F255583002F094FB084B00221B68084897
:1031A0005A629A62DA611A62796901F0FFF8BD46E3
:1031B00019B0F0BD1C030020400000204400002096
:1031C000712C0000014B18607047C0464001002080
:1031D000014B18687047C04640010020014B5868F9
:1031E0007047C04640010020014B98687047C046B8
:1031F00040010020014B18607047C046D00D0020F0
:10320000014B18687047C046D00D0020014B186074
:103210007047C046CC0D0020014B18687047C0466F
:10322000CC0D0020014B18607047C046C80D00202F
:10323000014B18687047C046C80D0020014B186844
:103240007047C0464C01002010B50D4B00201B7884
:10325000AA2B12D10B4B1C780B4B64B218780B4B7A
:1032600040B219780A4B20181A780A4B49B21B78D9
:1032700040188018C01A43425841C0B210BDC04621
:1032800050000200510002005200020053000200F0
:1032900054000200550002008023DB020022188047
:1032A00059809A80C046024B188880B27047C04649
:1032B0000600040013B5094A042413780021DBB288
:1032C0001C4301910198F421FF31884205DC137001
:1032D000C046147001990131F3E713BD0D00005091
:1032E00013B500220192A022D205D06BC021C900E3
:1032F0000143D16301AB18780321884301210843BE
:103300000C24A043042420433024A0431024204351
:103310003F24204040242043187098780F24A04375
:10332000072420439870D8780143D970019B93619A
:1033300013BDA023DB059869C001C00F70470122AF
:10334000A023DB051040020602499869084010439B
:1033500098617047FFFFFFFE82B0002201920130AA
:103360001F2201AB1040C9B21870481C0231104036
:103370000A4092005870DA70019AA023DB05DA61E6
:10338000196A024A0A401A6202B07047FFCFFFFF73
:103390000002064B000A0138002258609A6005229C
:1033A0001A60C0461A68D103FCD5704710E000E0EF
:1033B000F0B5534F85B03B681A1C54321578023271
:1033C000596D127857331E780F2314079943120949
:1033D0002D0701922D0F0B1C80222B43520013430B
:1033E000484A0395484D1340484A2B4048491340EA
:1033F000240F0B400199220413430A05454936075F
:10340000360F0B40009613433206434E029433406E
:103410001343424AA024E4051340E360FFF74AFF48
:103420003B68E26855331B781540DB069B0FDB02D7
:103430001D43E560E26880239B001343E360E2687C
:1034400080239B011343E360029C039DFFF7FCFE76
:10345000002813D0324F882039781E34C9B206F0C4
:103460003BF839784443C9B2882006F035F80F3567
:1034700045431E3C00230F3D9C4203DB231E0F2BC4
:1034800000DD0F230F22954200DD151CA024E4056A
:103490001F491A40E36812040B401343E360EB43F7
:1034A000E268DB171D400F239A431D401543E5607A
:1034B000E368F022934380221343E360E368154AF4
:1034C00018481340E360E3683340E360FFF760FFB0
:1034D000E26880235B051343E3600099E2680B0612
:1034E00016401E43E6601048FFF752FF019B094952
:1034F0001A05E3680B401343E36005B0F0BDC04616
:10350000CC0D0020FFF9FFFFFFE7FFFFFFDFFFFF0C
:10351000FFFFF0FFFFFF0FFFFFFFFFF0FFFFFFEFD9
:1035200054000200FF0F0000FF6F0000064A074B27
:10353000126801209432126819789040021C0A43E4
:10354000D2B21A707047C0464C01002029000050CA
:103550000549064B09681A789431096801208840AA
:1035600082431A707047C0464C0100202900005069
:10357000044B1878044B1B6894331B6818410123D3
:1035800018407047290000504C010020A023012260
:10359000DB055A707047044B82B0019001AA188075
:1035A00092789A7002B070472400005007B500F07E
:1035B00015FF064B019001AA188092789A70044B6F
:1035C00000221A70034B0122DA7707BD2400005055
:1035D0000000002008000050034B00221A70034B2B
:1035E0000122DA777047C046000000200800005032
:1035F00072B6084B1B5C002B03D1C04662B630BFCD
:10360000F6E762B6A023DB059968034A0A409A6090
:103610007047C04600000020FFFFF9FF72B6074B5D
:103620001B5C002B02D1C04662B6F7E762B6A0234E
:10363000DB059968024A0A409A6070470000002042
:10364000FFFFF9FFA023DB055A680121120E58681D
:103650009143034A090602400A435A607047C04634
:10366000FFFFFFFE08B5074B1B681A1C5C3212787F
:103670005D331B78520001325043994005F02CFF16
:1036800008BDC046CC0D002008B5044B1B685F3355
:10369000197849000131FFF7E5FF08BDCC0D002086
:1036A00008B5A0230120DB055870FFF7A1FFFFF745
:1036B000C9FF08BDF7B5A026041CF605042804D1EF
:1036C000524B1B68DF6E1B6F21E0514B1B689F6CD8
:1036D000DB6C7361FDF7A8FBE7300378002B17D094
:1036E00005F0A6FE05F0FEFD01797F221140890458
:1036F000019171690B1C47490B4001991943716194
:103700004179444B0A40716992040B401343736141
:10371000A023DB051F611E691F231E40FFF794FDD8
:1037200000280AD03C4B882019780436C9B205F02D
:10373000D3FE46430023043E03D4331E1F2B00DD7B
:103740001F23A022D20510691F210B408843034389
:103750001361022C16D007DC002C13D0012C2DD1C4
:103760002B4B1D685E3529E0042C07D023DB052C8C
:1037700024D1264B00241D6877351FE0234B1D689C
:1037800074351BE0FDF750FB031CCC331B78002B7A
:1037900003D01E4B1D68453510E0E7300378002B41
:1037A00005D005F045FE05F09DFD851D06E0184B92
:1037B0001D685B3502E0164B1D686135A023DB05F3
:1037C000596928783F221040914301435961687834
:1037D0001F215D6908401149C00229400143596118
:1037E0000F49640009680C19211C53310878596885
:1037F00010409143014359605434217858680A407D
:103800001102084A02400A435A60F7BDD00D002059
:10381000CC0D0020FFFF03FE54000200FF07FFFF56
:103820004C010020FFC0FFFF274BF0B51A68274B63
:1038300085B01B685E331B785B069B0E0193517E3F
:1038400000238D005519581E5B18002B25D05318E6
:103850001B189B7E8024D3185E78A023DB055F684D
:10386000E4033C435C60019CB606240400945F685A
:10387000B60EBC46164F64462740009C27435F6047
:10388000C04624367600F65A84002C1966675E68B6
:10389000104C34405C60031CD5E76F460293BB813B
:1038A00001233B72537E7F217B72BB72FB7A7432A1
:1038B0008B4304210B43FB720F20B02302A93B73FF
:1038C00002F0ACFA05B0F0BD4C010020CC0D002098
:1038D000FFFFC0FFFFFFBFFFF0B585B0FFF7A4FFFC
:1038E000144B00251E68747E631C9B005B42009392
:1038F000A300F3180193009B043D9D4207D0019A59
:1039000001215719786FFFF7ADFE7867F3E76A4634
:1039100000239381012313720423D372B0235472C2
:1039200094721373321C74320F2002A902F076FADB
:1039300005B0F0BD4C010020044B00225A70A023BA
:10394000DB055A7001221A707047C0460000002043
:10395000A023DB059968064A0A40802189020A43B0
:103960009A60044A0021917001229A707047C04603
:10397000FFFFF9FF00000020014B1B68D86E704765
:103980004C010020014B1B68D86670474C01002099
:10399000A023DB059868C0B2704730B5A023DB05D3
:1039A0009B68DBB283420ED001DA013300E0013BB9
:1039B000A022D2059568FF211C1C8D430C40291CB8
:1039C00021439160EEE730BDA023DB05996880229A
:1039D00052020A439A609968094A0A409A609A68B2
:1039E000120112099A60D968064A0A40DA60D96859
:1039F000054A0A40DA60D968044A0A40DA6070472A
:103A0000FFFFFFF0FFFEFFFFFFDFFFFFFFFFFFEF06
:103A10001B4B10B51A680121131C52331878A023D0
:103A2000DB059C6808401749000421400143996068
:103A3000533210789C681449000700092140014363
:103A4000996011789A6809091201090712090A4355
:103A50009A60D968802252000A43DA60D9688022CD
:103A600092010A43DA60D968802252050A43FA209B
:103A7000DA60800000F0D6FCFFF78AFC10BDC0467B
:103A8000CC0D0020FFFFFEFFFFFFFFF008B5002078
:103A9000FFF7AEFD08BD034B1B685C331878400090
:103AA00001307047CC0D0020024B1B685D33187845
:103AB0007047C046CC0D00200048704700100050F1
:103AC00000487047002000500048704700400050F8
:103AD000064B1B685879064B02301B6842331B7833
:103AE0005843044B8000C0187047C046D00D0020DA
:103AF0004C01002004400050F7B5194B051C1C6810
:103B0000A3795E1E10D36279013A0BD36179501C00
:103B10000231594341181348890009180868E840E0
:103B20000860F1E7331CECE7FFF7D2FFA37A00222D
:103B300001339C466346013B9C460FD3617A960055
:103B40000191861900230199994205D09F00F159EE
:103B50000133E940F151F6E75218EBE7F7BDC046F3
:103B6000D00D002000400050064B1B685879064BD2
:103B700002301B684E331B785843044B8000C0183A
:103B80007047C046D00D00204C010020044000507A
:103B9000074B1B68DA795879064B02301B680132F3
:103BA00046331B785843044B10188000C0187047E8
:103BB000D00D00204C0100200040005070B53F4B5C
:103BC0001D682A7853B2042B18D13D4B19680B1C81
:103BD00076331E7802235D1E6FD34A79013A0BD3E8
:103BE0004879541C023058432018364C8000001984
:103BF0000468F4400460F1E72B1CECE7002A45D090
:103C0000022B21D1FDF710F9CC3003782C4C002B7E
:103C100002D02368473302E02B4B1B685D331878D2
:103C2000FFF76AFF2568EC79002C2FD0FFF7B0FF73
:103C3000061C013C2AD3697A201C05F0A3FC8900EC
:103C40008A59A300F250F4E7032B03D11E4B1B68E3
:103C5000633318E0012B11D1FFF786FF184B061CC8
:103C60001B685C79013C11D32B1922331B789B0014
:103C70009859FFF709FDA300F050F3E7052B05D194
:103C80000F4B1B6879331878FFF736FF0E4B1B6814
:103C90005A331B78002B10D0094B1A685379013B1B
:103CA0000BD35079947902306043591C09180548A8
:103CB0008900091800200860F1E770BD4C01002060
:103CC000D00D002000400050CC0D002008B5A023EE
:103CD0000120DB055870FFF78BFCFFF7B3FCFFF703
:103CE0006DFF08BD70B5041C104E114D11D101209F
:103CF000FFF7E0FC336801221A70A023DB056C702B
:103D00005C701A70FFF7E2FFFFF79CFCFFF7E4FD21
:103D10000224201CFFF7CEFC336800221C70A02375
:103D2000DB056A705A7001221A7070BD4C010020C8
:103D30000000002008B5FFF7D5FFFFF7C7FF08BD5B
:103D400008B5A023DB05011C58683F2211409043B1
:103D50000843586059685868114001310A401102FF
:103D6000064A02400A4306495A6000224A705A70C5
:103D700001221A70FFF7AAFF08BDC046FFC0FFFF6F
:103D80000000002010B5A023DB051C6A0005064AD0
:103D9000000D010422400A431A621A6A120B120330
:103DA0001043186210BDC046FFFF00F073B5164BFC
:103DB000A0221B68D2059168196D503391601C7860
:103DC000FFF742FA114D002810D0114B114A1B7811
:103DD00012782E6852B25BB20092201C1021D122C0
:103DE00002F0ACF82B6830671B6FE418002C01DA86
:103DF000002402E0FF2C00DDFF242B68E0B2DC662B
:103E0000FFF7CBFD73BDC046CC0D00204C01002058
:103E1000530002005200020008B5FFF7C7FFFFF78A
:103E2000C7FAFFF75DFA234BC02292009858224947
:103E3000014099509958FF208143402001439950F7
:103E400098581E4901408020000401439950985819
:103E500080210002000A0906014399500121022233
:103E60001A6008201960042119601860144B0020A2
:103E70005860144B186901431961134B1B68197A78
:103E8000124B1B689433002900D1032210491A6099
:103E900000230B700F49A0220B700F49D2050B7045
:103EA0009363D36B3F218B43D36362B600F006FF6D
:103EB00008BDC04600E100E0FF00FFFFFFFF00FF7C
:103EC000FCE100E000ED00E0D00D00204C010020FE
:103ED00029000050280000502A00005008B5002892
:103EE00001D0012801D100F0E9FEFFF75FFFFFF7E5
:103EF0005FFAFFF7F5F908BDF0B5214B0D211B68FE
:103F00000324DA7A00230C3AD2B291425B41E41ADC
:103F1000A023DB0558693F22596810408022D20354
:103F20000A43A3B05A60411EA023C9B2DB0502AA0E
:103F3000FF2910D05F683F26124D0E4036043D40E9
:103F400035435D60C046251C24356D005D5B4B002C
:103F5000D5520139E8E75C680B4921405960694650
:103F600000238B8001230B70022348708870CB7074
:103F70000320B3230B7101F051FF23B0F0BDC04605
:103F8000D00D0020FFFFC0FFFFFFBFFFF7B5041CEF
:103F900002F0C2FD124B1A6800235068411C0191C7
:103FA000019D16689D420CDB976801367E4399009F
:103FB0008C469E1900216546B6006151013331518E
:103FC000EEE701239E420ADB956800215D43AF00C6
:103FD0002D180135AD00395101332951F2E7F7BDF4
:103FE0001C030020044B054900221A6059609A60A6
:103FF00005221A607047C04610E000E0FFFFFF0096
:1040000010B5A023DB059C6899680B4BC9B21B68EF
:10401000E4031B6FE40F591AFF31E62359430134BF
:10402000064BA040C918041C054805F055FAC1B25A
:10403000201C05F051FA10BD4C0100205C5D000011
:1040400040420F00014B00221A60704710E000E070
:1040500030B50E4D0E48AB6885B0C01A0193FFF71E
:10406000CFFF02A9012300240B704B708B70042337
:104070000190CB70201C6F2301AA8C800B7101F082
:10408000CDFE01982C6005B030BDC04610E000E0C8
:10409000FFFFFF0010B5041CFFF7A4FF201CFFF773
:1040A00021FEA023DB0501205870FFF7B7FAFFF7C8
:1040B000C9FAFFF783FDFFF7CBFF10BD37B5051C2D
:1040C0000424291C221C684605F086FA2919221CA2
:1040D00001A805F081FA009980230ABADB05DA60AD
:1040E00001990ABA1A6137BD40BA80B2704700BA66
:1040F00070470023114A12499A188A4204D2114982
:10410000C95804331160F5E70F4B104A191D043BE1
:10411000934203D200221A600B1CF6E70C4B0D4AA7
:104120001360EFF308820433191D043B9A4203D94C
:10413000094818600B1CF7E77047C0464000002094
:104140003003002030980000340300208C0B002046
:104150000C0E0020E80D0020CDCDCDCDF0B5294DC1
:1041600089B029482C6800F05DF9FFF711F90026A5
:10417000264FBC4222D280373B1B2027832B00DCFA
:104180009F1002A9FAB2012300204A708A70BF1062
:10419000221C0B70CB70888001F040FE231C3A1C5F
:1041A000013A08D3002E04D119491868884200D07A
:1041B0001E1C0433F4E7BF00E419D9E72B6804A9F7
:1041C000F31A0025019304230124CB70281CA72394
:1041D00001AA8D800C704C708C700B71843701F0CB
:1041E0001DFE06A90420C870A823BE1B281C01AA16
:1041F0008D8001960C704C708C700B7101F00EFE6E
:1042000009B0F0BDE80D0020801A0600801B0020D8
:10421000CDCDCDCD014B1B68587E70474C010020A1
:1042200070B5051CFFF7A0FC094B1C68637E9A0063
:10423000AD180022511ED218002A08D0E2185218D8
:10424000927E920016588A00AE500A1CF2E770BDAA
:104250004C01002030B50A4B1B685A7E94001C1993
:104260005300C01800230133D11A013106D09D003C
:10427000651B59006D6F49424552F4E730BDC04699
:104280004C010020A02382B080B2DB05D88502B0AB
:104290007047A023DB05D88D82B002B0704707229B
:1042A000A023DB05104042011869E0218843104338
:1042B00018617047F8B50C1C051CFEF7B9FF1449CE
:1042C00008688379013B11D30E687279013AF9D3FA
:1042D0000E6870790F4E584336688018F618281803
:1042E000603607783679BE190670EFE70B68DB7920
:1042F000013B08D3074AE15C1268D2187832127980
:104300008A18E254F4E7281C211C00F07BFFF8BD5A
:10431000D00D0020CC0D0020134BF7B51C6869466A
:10432000E26800AF131C0E33DB08DB00C91A2369F7
:104330008D460E33DB08DB00C91A0C4B6D461E6838
:104340008D467960281C311C05F046F9BA23FF33ED
:10435000F1182269786805F03FF9281C7968FFF7A1
:10436000A9FFBD46F7BDC0461C030020C80D0020B4
:10437000A023DB0518690006400F704770B5051CC7
:10438000FEF732FF0468061C013C08D37268E300A4
:10439000D3181A68AA42F7D15B689847F4E7024B32
:1043A000013D1D6070BDC046D40D002070B5051CD8
:1043B000FEF71AFF8468061C013C08D3F268E3008C
:1043C000D3181A68AA42F7D15B689847F4E7024B02
:1043D000013D1D6070BDC046D40D002038B5A0233E
:1043E000DB0599689D680C4B041C1B680B481B6F10
:1043F000ED03C91AC943E623C9B25943084BED0F6F
:10440000C91805F069F8054B01355843211C2841AE
:1044100005F062F838BDC0464C01002040420F0054
:104420005C5D000038B5A023DB0599689C680A4BE9
:10443000051C1B6809481B6FE403C91AC943E6231E
:10444000C9B25943064BE40FC91805F045F8684353
:104450000134204138BDC0464C01002040420F00CD
:104460005C5D000008B5002807D04810063801231D
:10447000132900DC0023C01806E00B2900DD0E39EB
:10448000081C032105F028F808BDF0B5C04BA9B001
:104490001B6800250293DB7A071C0C3B281CDBB24F
:1044A0000D229A426841BB4B03261B68361A0396BD
:1044B0003E68019347331E70019BC4B278684A334B
:1044C00004940DAC291C18706C22201C05F0C6F851
:1044D000B14B0B951A680C95231C62CA62C323CAA0
:1044E00023C343CA43C3012124234B43221CE318A3
:1044F00061CA61C361CA61C361CA61C3039D0131FD
:10450000A942F1DB00260396341C029D6B799C4284
:104510004CDA029D04982B19DD7A0BAE291CFFF7AB
:10452000A1FF365C2422311C5143B446661C06961A
:104530000B180DAEF6180596059B069E1E711F2DD5
:1045400008DC0DAE71180123CA68AB401D1C154371
:10455000CD6011E00BAE335C0DA95A43203D012321
:104560008A18AB401D1C137E9906890E0D433F210E
:104570000D408B431D431576019D3F23061C2A19D0
:104580001E40059665465678A901059D9E43354314
:104590001D40634629430133039E5170DBB20BAAD1
:1045A00013549E4200DA03930134AEE7019B039E4D
:1045B000493300241E700294754B029C1B68987945
:1045C0008446844200DBD8E0029D5B191A1DD67F29
:1045D000714A126804925A321278059205980022A4
:1045E000904205D0614601398D4201DA0533DA7F08
:1045F0000123301C191C20381C1CB1408440201C95
:1046000006913F210840111C20391D1C8B40DBB254
:104610000993039B2421013B4B430790039C28A84B
:104620009540C31808955C3B0194019D002D41D035
:10463000019D2421013D69430DA8411801957C6825
:10464000CD781F200440854325430020CD7018609D
:1046500018314C783F2084434C701F2E04DC1968BD
:10466000069C2143196004E04C78079D84432C4349
:104670004C70059800281BD06146029C01398C4281
:1046800016DA1F2A04DC1968089D294319600FE017
:10469000019C2421614328AD691854394878099C4C
:1046A0008506AD0E25433F242540A043284348708E
:1046B000243BBAE7049E029C331934788033A40665
:1046C0005D78A40EFEF7C0FD002813D0334E88207D
:1046D00031780135C9B204F0FFFE31784543C9B2E3
:1046E000882004F0F9FE02344443013D023C019A63
:1046F0006E1C03D02A1E1F2A00DD1F223F203F2CE4
:1047000002DCE043C01720400590019C039DAC42B1
:104710002CDA019C24256C430DA91F26101C0B19B3
:10472000304004905878B043061C0498064305981E
:104730005E703F2630400490605CB043061C0498D5
:1047400006436654396837291EDC4D4314496D18F9
:10475000291C51CB51C170CB70C131CB31C13B68E9
:10476000019E013301363B600196CEE7029E7B68D5
:104770000136013302967B601EE7064B3A681B68E0
:10478000012048331A7000E0002029B0F0BDC04677
:10479000D00D00204C010020CC0D00205400020060
:1047A0000080005030B585B0FEF742FD064B01A8F1
:1047B0001B68021C603332CB32C2FFF766FEFFF784
:1047C000ABFD05B030BDC0464C010020F0B5604BDC
:1047D00095B01B6800270493DB7A051C0C3BDBB209
:1047E0000D22381C9A427841C3B20793594B29686D
:1047F0001B680BAC01934B331970019B6A684E33F5
:104800001A70019B391C4D331F702422201C04F0A8
:1048100025FF514B09971B680A970293029A231CA4
:1048200043CA43C343CA43C343CA43C3019E237E0F
:1048300077769B06E6689B0E05960693049E737931
:104840009F4234DA049E0798F319DB7A191C03930C
:10485000FFF708FE09AB1B5C002B0AD1019E717E9D
:104860004A1C72767118FAB20BAE8A760132311890
:104870000A71019EF2190BAE31180979039E22329A
:104880000139117001221F2E04DCB240059E16432F
:10489000059607E00399069E20398A4032433F215E
:1048A0000A400692013309AA13540137C6E70BAB3D
:1048B000059E1A7E0E963F21069E02988A43324339
:1048C00006781A76B606B60EFEF7BEFC00280AD0A9
:1048D000224B882019780236C9B204F0FDFD464308
:1048E0000023023E03D4331E3F2B00DD3F236278BA
:1048F0001F2120788A4362703F2290431340034374
:1049000023706868E37808408B43617E03439143DA
:104910006176296824224A43E3700023129313939B
:1049200023610F4BD218131C43CC43C345CC45C362
:1049300046CC46C32B686A68013301322B606A603B
:10494000044A012012684C32137015B0F0BDC04605
:10495000D00D00204C010020CC0D0020540002009E
:1049600000800050F0B5D04BA5B01B680026019325
:104970003B331B78041C0C3B301CDBB20D229A42EB
:104980007041CA4B03271B683F1A0397276802939D
:104990003F331F70029BC5B260684233059509AD75
:1049A000311C18706C22281C04F058FEC04B07966E
:1049B0001B68089624332A1CC2CBC2C243CB43C215
:1049C00083CB83C2012124234B432A1CEB18C1CA89
:1049D000C1C3C1CAC1C3C1CAC1C3039E0131B1426F
:1049E000F1DB019F002504970395019D049F6B7ADD
:1049F0007E1B9E4243DA049B05983B331D78291C9D
:104A0000FFF730FD07AB24221B5C1F2D09DC5A4346
:104A100009AFBA180123D168AB401D1C0D43D56006
:104A20000FE0534309AAD318203D0122AA40151CC8
:104A30001A7E9106890E0D433F210D408A432A4379
:104A40001A76029F07AABD193835AE783F23115C4C
:104A50009E43B446071C8E011F40009666463743AE
:104A60001F40009B01311F43AF70039DC9B2115419
:104A70008D4200DA0391049E01360496B5E7039E49
:104A8000029BF6B24133002704961E700197864BB5
:104A9000019E1B689A7A964200DBAEE0019D24AF2E
:104AA0005A19403210780122011C2039161C8A4004
:104AB0003F210A400592039A2421013A514386403E
:104AC0007918039A02965C39013A1FD3242555437D
:104AD00009AE676875191F2637400097EF78B7430E
:104AE0003E1C009F3743EF703F2618351F2804DC1B
:104AF000029F0F606F78B74305E000270F606F7863
:104B0000B743059E37436F702439DDE7674A116864
:104B10000022587A824210DA8818383085782426A4
:104B2000A806AD097543A768800E281809AD01379E
:104B3000281807710132A760EBE75D4B1B689A1DCF
:104B40000533D67FDD7FF606AD06F60EAD0EFEF719
:104B50007BFB002813D0574F882039780136C9B223
:104B600004F0BAFC39784643C9B2882004F0B4FC9A
:104B700002354543013E023D0021771C03D0311E22
:104B80001F2900DD1F213F2D02DD3F20029003E0A1
:104B9000EB43DB171D4002950022039FBA4228DA3F
:104BA0002425554309A81F260F1C43193740059794
:104BB0005F780132B7433E1C059F37435F70029F09
:104BC0003F26374005972F5CB7433E1C059F374370
:104BD0002F54256824204543374E7619301CE0CBEE
:104BE000E0C0E0CBE0C0E0CBE0C02368013323604D
:104BF000D3E7019D0135019549E72C4A27681568DF
:104C0000049E2A1C403217702068D07061680532FB
:104C1000517016700022597A8A4210DAA918383178
:104C2000897824208E0689094843B60EA168801928
:104C300009AF0131381801710132A160EBE700269C
:104C400010AF0296029E0398864226DA3B1C002192
:104C50000C3B1960029B2426734309A8C018427EAE
:104C6000031C01903F2082435A76381C082204F02E
:104C7000F5FC2168104A71435218131C019A24371D
:104C800043CA43C343CA43C343CA43C32368029EC0
:104C90000133013623600296D4E7236844350120AE
:104CA0002B7025B0F0BDC046D00D00204C01002077
:104CB000CC0D00205400020000800050F0B5674B7E
:104CC00000241F680D22FB7A211C0C3BDBB28BB049
:104CD0009A4261410326CBB20C22761A07A8211C06
:104CE000019304F0BBFC059406947A793D1C029272
:104CF0000299EB1B8B4213DAE97A0198FFF7B2FBBA
:104D0000072801D90020A6E005AA135C0135B342AB
:104D1000F8DA0133DBB213549C42E9DA1C1CE7E7F2
:104D200001220792B879002181420ADA131C9D1AE8
:104D3000A54203DA372BE5DC0133F8E701311A1C11
:104D4000F2E70792FB79002B11D1002307A8079304
:104D5000FFF73CFD07A8FFF798FB404B404D1B6851
:104D6000DE79002E3BD007A8FFF7FCFD4DE03B1C91
:104D70003B331B7800250C3BDBB20D22291C9A42E9
:104D80006941CAB202920322521A01920595069510
:104D90007B7A3E1C0393039AF31B934214DA331C71
:104DA0003B3319780298FFF75DFB0728AAD805AABC
:104DB000135C019901368B42A4DA0133DBB2135440
:104DC0009D42E8DA1D1CE6E7EB43DB171D40BB7A8A
:104DD0005D43079B6D00ED18372DB6DD92E728681F
:104DE000311C04223F3004F039FC2868311C0422B5
:104DF000433004F033FC2B680799CAB2191C3F31C9
:104E000044330A704A700A711A702D6864002B1CB2
:104E10004B331A78073BDA73291C1B7854310B701B
:104E20004A70083909782A1C563211700F3A1678E0
:104E3000291C5731281C0E7059305374022204F07B
:104E4000CBFB2B1C5B3334191E705C702E66113B40
:104E50001B7801206B660BB0F0BDC046D00D002062
:104E60004C0100200D4B10B51C680D4B01681B68F0
:104E70001A1C433211704168D170191C453100224F
:104E80000A70617A8A4204DA8168013201318160F4
:104E9000F7E70268443301201A7010BDD00D0020DE
:104EA0004C010020F0B5B94BB94A1B6812681C6E62
:104EB000ABB006940192D27A00250C3A2E1CD2B2E5
:104EC0000D2191426E41F7B21A1C04974F3203270D
:104ED000147052330FACBF1B0126291C1E706C22AC
:104EE000201C04F0BBFB019B0D950E954833221C42
:104EF00023CB23C223CB23C223CB23C2242373433C
:104F0000221CE31823CA23C323CA23C3013623CA9E
:104F100023C3BE42F2DB019E002776793C1C039638
:104F20000297039EB4423ADA019D04982B19DD7A68
:104F3000291CFFF797FA0DAB1E5C2422311C51434C
:104F4000B446661C05960F180FAEF719059E3E7104
:104F50001F2D08DC0FAF79180123CA68AB401D1C58
:104F60001543CD6010E01B5C203D5A430FAB9A18EF
:104F70000123AB401D1C137E9906890E0D433F2172
:104F80000D408B431D43157663460133029DDBB212
:104F90000DAA13549D4200DA02930134C1E7069F23
:104FA000012404970194029C2422013C62432AAD0F
:104FB000AA18029B08945C3A013B13D3242058435F
:104FC00000250FAE15603018467E3F24A643467676
:104FD0005560857EC178A543402421438576C17004
:104FE000243AE9E76A4B019C1F68013CB879BC464A
:104FF00007900994231C099E079F9A1BBA4256DA10
:10500000019D0122511B6144281CC9180138C0B2FE
:10501000233109780B90581010400A90081C203852
:10502000161C8240D2B2089F059224227A432AA8F5
:105030008E408218029F0396583A013F35D32420B0
:1050400078430FAC2018C678019D1F242540A64345
:105050002E430B9DC6700A9E6CB2B44212D01F291B
:1050600005DC101F0468039D2C4304601BE0447E94
:10507000059DA606B60E2E433F252E40AC43344375
:10508000447610E01F2904DC1068039E3043106052
:1050900009E0847E059DA606B60E2E433F252E40D0
:1050A000AC4334438476243AC7E70133A3E7394B52
:1050B0001B68DB1980335E78634648331D78AD0684
:1050C000AD0EFEF7C1F8002813D0334C88202178AC
:1050D0000136C9B204F000FA21784643C9B28820EB
:1050E00004F0FAF902354543013E023D0024701CEC
:1050F00003D0341E1F2C00DD1F243F2D02DD3F2175
:10510000039103E0EB43DB171D400395049D24232B
:105110006B43224E00219B19029DA94221DA2425CE
:105120004D430FA81F26271C421937400597577873
:105130000131B7433E1C059F37435770039F3F26FD
:10514000374005972F5CB7433E1C059F37432F54CC
:10515000181CE0CAE0C0E0CAE0C02433E0CAE0C0E6
:10516000DAE7EB43049E019FDB172B40F61801376B
:1051700004960197032F00D015E7044A069E126893
:10518000F118CB18503213702BB0F0BD4C01002039
:10519000D00D0020CC0D00205400020000800050F3
:1051A000F8B5164D061C2B6800243F331F782B687A
:1051B000E1191A1C403212780134914209DAE319DC
:1051C000242058430E4B311CC018082204F046FA24
:1051D000EDE747331F7800242B68E21948331B782A
:1051E00001349A4209DAE31924205843044B311C54
:1051F000C018082204F032FAEEE7F8BD4C01002096
:10520000F87F0050F0B5364B85B01B6802901A1C31
:1052100003913F321578334A00201168041C8A7AC2
:1052200094422ADA021C4F7A161ABE421EDA9E19DE
:105230003836B678B7090096EF1924267E432A4FF0
:10524000B4463E1C009F66440196BE06039FB60E00
:10525000B446BE5C3F2E00DD3F26F6B20096019EAE
:105260000132371C009E67443E77DCE7181C413052
:10527000007801342D18101CD1E71A1C473214781D
:1052800000208A79904228DA00224D790195AA42BD
:105290001DDA9E187678B709E719039724273D1C75
:1052A000039FB6067D43AC460F4DB60E2F1C019DE5
:1052B000674445430397029FBF187D5D3F2D00DD86
:1052C0003F25039FEDB2BE1935770132DDE71A1C89
:1052D000493212780130A418D3E705B0F0BDC046BA
:1052E0004C010020D00D00200080005024235843A2
:1052F000054BC0180F231A4013068169034A0A4060
:105300001A4382617047C04600800050FFFFFFF0E3
:1053100038B5051C141CFDF797FF002808D00A4B70
:10532000882019780234C9B204F0D6F84443023C0C
:1053300024206843054BC01802683F231C409A4351
:105340001443046038BDC046540002000080005081
:1053500010B5041CFDF778FF002808D0084B882002
:1053600019780434C9B204F0B7F84443043CA023CC
:10537000DB0519691F22144091430C431C6110BDC9
:105380005400020030B50F4B1B689979884203DA4C
:105390001B180433D87F14E05A798D18411AA8429B
:1053A00002DA5B18D87A0CE09C7A8A1A2D19A84286
:1053B00003DA9B184033187803E0141B1B193833A9
:1053C000D87830BDD00D0020F0B5D34DA024E40531
:1053D000A3682B6897B059799A7900AF8A18597ADF
:1053E0009B7A5218D3181A1C5A433B62D31DDB0810
:1053F000DB006846C01A85466B46FF213B6104F01E
:105400002DF9FF20FFF70EF8C44B69461B1A386AC6
:105410007B60C000031C0E33DB08DB00F860C91A98
:10542000386A8D466B468000FB61031C0A33DB083B
:10543000DB00C91A002200233A637B63B860B961BC
:10544000E268B74B8D461340E3602B685C79B24B42
:10545000013C1B68621C14D01B19381CD97A5030CF
:10546000202204F09BF83D6D58207A6DAB00C019E6
:10547000C3180121283B91400A1C19680A431A608D
:10548000E5E79C79A44B013C1B68621C15D01B19F5
:105490000433381CD97F5030202204F07FF83D6D52
:1054A00058207A6DAB00C019C3180121283B9140E8
:1054B0000A1C19680A431A60E4E75C7A964B013CBF
:1054C0001B68621C15D01B193833381CD978503032
:1054D000202204F063F83D6D58207A6DAB00C019AE
:1054E000C3180121283B91400A1C19680A431A601D
:1054F000E4E79C7A013C621C17D0874B381C1B6880
:1055000050301B1940331978202204F047F83D6DC4
:1055100058207A6DAB00C019C3180121283B914077
:105520000A1C19680A431A60E4E73D697D61002599
:10553000FD62FD6A386A854200DBDBE00021FA6823
:10554000F86904F08BF8A0240021BA68B86904F067
:1055500085F8E40500232363636B3F26B34363634D
:105560003D6BA563786BC0B2B86230407862E36B84
:10557000B3430343E3636420FEF754FFFDF708FFE2
:10558000F86AFFF7FFFEC1B2381C4830202204F051
:1055900005F8396B7A6BFB6CB963FA63BA6C01215D
:1055A000994058200B1CC01991004118081C203844
:1055B00002689A430260B86C131C002808D028398E
:1055C0000A685340626B3340B2431343636301E0A4
:1055D0006B402363A024E405A563E36B796A3F264F
:1055E000B3430B43E3630A20FEF71CFFFDF7D0FE35
:1055F000E26B80235B001343E363BA6B5540A56302
:10560000FB6BBA6A5A40E36B3240B3431343E36324
:10561000FEF7E8FCFD6BBE6BFB69AC460124414A1A
:105620007D689168A94214DB3F4A6546106852685C
:1056300030402A405D68954203D3F0D11D68854211
:10564000EDD2BD69DA60A2009860A9500134083338
:10565000E5E7FEF7F7FCA023DB05D96B334A0A40E8
:10566000DA63012C3ED0651EF869ED004519013C56
:10567000002C37D02B1C083B1A6829685B689143C3
:105680006A683E6A9A43A30039647A64013EBB6249
:10569000FA6A964224D0301CFFF774FE011C381CB5
:1056A0005030202203F07AFF7B6D0122386D9A4042
:1056B0005821131CC91982008A18183A12681A4214
:1056C0000CD0BB6ABA691720D25840425043184BDD
:1056D000C018FEF795FC796900118855013ED7E79F
:1056E000083DC4E7FD6A386A0135FD627D692D1801
:1056F0007D611EE7C3B2381C503003704370837065
:105700000023C370037139690123437100F0D8F895
:10571000BD4617B0F0BDC046D00D0020FFFFFF0012
:10572000FFFF0FFF10E000E040000050FFFEFFFF12
:10573000E9FFFF16014B18607047C046DC0D0020E2
:10574000014B18687047C046DC0D0020014B186003
:105750007047C046D80D0020014B18687047C046FE
:10576000D80D0020014B18687047C046500100203A
:10577000F7B52F4F73467146381C0193FEF7FEFDB7
:10578000FBF740FB009001F0C7F9061CFDF738FD60
:10579000284D1022041C0099286803F01DFF328850
:1057A0002B68381C1A74120A5A74B2889A74120A36
:1057B000DA74214A12680532D27F002A03D0A27916
:1057C0001A75627902E062791A75A2795A75E279DE
:1057D0009A751A4A6B6812881A70120A5A70184A17
:1057E00052889A70120ADA70164A52881A71120A8E
:1057F0005A71154AD2889A71120ADA71134AAB6843
:10580000920A1A70124A920AD2B25A709A70114AC7
:10581000920AD2B2DA701A710F4A920AD2B25A714F
:105820009A710E4A920ADA710199FEF7BFFDF7BD2F
:1058300011570000540100201C030020FE0300004B
:10584000FC9B0000FCB30000F8BF0000000000005B
:1058500000040000009C000000B4000000C0000034
:10586000F7B50A4C7146061C201C7546FEF786FDEE
:10587000074A694681CA81C16B46B600F658201CAA
:10588000291CFEF793FD301CFEBDC04601580000E8
:105890001897000070B5084C7146201C7646FEF73C
:1058A0006DFD064B201CDB69311C5D78EDB2FEF707
:1058B0007DFD281C70BDC0463558000054010020F5
:1058C000F8B5144D041C0F1C281C71467646FEF7D3
:1058D00055FD114BFF215A6A117010499C620F60EF
:1058E000A0782778596B474320793F1860794006A4
:1058F000400E784308609869A0210170D969281C7E
:105900001378FF2B02D10B78022BF9D0311CFEF754
:105910004DFDF8BD61580000540100200C0400202A
:10592000F0B5254F744685B0051C0E1C381C714619
:105930000394141CFEF722FD00232B6033601F4BE1
:10594000381C9C4233DC23121D4A122B1ED89B00AC
:10595000D218D26B002A2AD0D368013B5F1C26D014
:105960005168E7B2C95C02977F1A0193BC46013BBC
:10597000002FF3DB019914688B001B59002B16D004
:1059800063442B6093685B5CD91B0FE0936B176BD0
:10599000013B0CD35900795A611AF9D4D76A9B009C
:1059A000FC5864182C60526BD358591A3160039913
:1059B000FEF7FCFC05B0F0BDC1580000FFEF000091
:1059C0005401002038B50D4C7146201C7546FEF779
:1059D000D5FC0B4AD1694B780A49DBB20B72012B1B
:1059E00005D0022B05D1936901225A7001E0FDF721
:1059F0009DFD291C201CFEF7D9FC38BD655900000F
:105A0000540100200C04002038B50D4C7146201CB8
:105A10007546FEF7B3FC0B4BDA68002A0AD00A4B36
:105A2000D2B27F21D868114001709A7501325A753F
:105A3000FFF7C8FF291C201CFEF7B8FC38BDC04684
:105A4000A95900000C040020D401002038B50F4CE7
:105A50007146201C7546FEF791FC0D4B1B7A012BFD
:105A600006D0022B06D10B4B00229B695A7001E035
:105A7000FDF76EFD084B7F21DB68201C1A788A43F6
:105A80001A70291CFEF792FC38BDC046ED59000083
:105A90000C04002054010020D4010020F7B51E4E54
:105AA0007346301C71460193FEF768FC1B4D0024C1
:105AB0001B4E337A012B07D0002B18D0022B17D1A5
:105AC000184B9B695C7813E0FDF752FD041C002D18
:105AD0000BD1FDF73DFD2E23FF33013B002B01D001
:105AE000C046FAE7FDF722FD0C4D013D00E01C1C0D
:105AF0000C4FFA695378327A9A4206D0FFF7A6FF24
:105B0000FB69074A5B78137201E0002CD0D1024890
:105B10000199FEF74BFCF7BD3D5A0000FF2C010038
:105B20000C04002054010020F7B5154D7346071CE6
:105B30000E1C281C71460193FEF720FCFFF7AEFFF8
:105B4000104C8022E3685242197820690A431A7087
:105B5000391C321C03F040FDE368F6B218787F224E
:105B60009043311C1140021C0A431A70A675FFF7BE
:105B700029FFFFF793FF281C0199FEF717FCF7BDDB
:105B8000C95A0000D4010020F8B5FBF73BF900F03A
:105B9000C3FFFDF735FB194B051C5C6B03F086FB5F
:105BA0006060FFF7E5FD164B164C1B681888A3686C
:105BB000020A5A711871FFF753FEA368C6B29E71AC
:105BC0002B68EF790136FF1801374743381C00F086
:105BD000C6F93A1C0021051C0135E06003F03EFDCA
:105BE000002325616675A37503F05AFB064B5860C8
:105BF000064B1A78A3691A70F8BDC04654010020FC
:105C0000DC0D0020D40100200C04002046000050D0
:105C1000024BDB691878C0B27047C04654010020BF
:105C2000024BDB699878C0B27047C046540100202F
:105C3000014BDB699870704754010020024BDB690F
:105C4000D878C0B27047C04654010020014BDB69D0
:105C5000D870704754010020014BDB6958687047C9
:105C600054010020024BDB695A6858607047C046F7
:105C700054010020024BDB69187AC0B27047C0465D
:105C800054010020014BDB69187270475401002059
:105C9000024BDB69587AC0B27047C04654010020FD
:105CA000014BDB695872704754010020024BDB69DD
:105CB000D87AC0B27047C04654010020014BDB695E
:105CC000D872704754010020024BDB69987AC0B249
:105CD0007047C04654010020014BDB699872704741
:105CE00054010020024BDB69187BC0B27047C046EC
:105CF00054010020014BDB691873704754010020E8
:105D0000024BDB69587BC0B27047C046540100208B
:105D1000014BDB695873704754010020034BA022EC
:105D20009B691A701A78A02AFCD070475401002091
:105D3000034BC2B29B691A701A788242FCD070473A
:105D400054010020014B5B6A187070475401002019
:105D5000024B5B6A1878C0B27047C04654010020FD
:105D6000014B1B6818887047DC0D002008B5FFF751
:105D700095FE024B0022DA6008BDC0460C040020EC
:105D800070B5074B074C9A68E668011C957918694D
:105D90002A1C8019751903F01FFCE56070BDC04610
:105DA000D40100200C04002073B56C46E271184A3F
:105DB0000734156A2E78864229D1FF202870D362D5
:105DC000144B9462D86E24788068A40051620471E8
:105DD0001148069C0D7804608C78586B6C430D79E3
:105DE000497964194906490E614301609869A02107
:105DF000126ADB6901701178FF2902D11978002934
:105E0000F9D01178FF2902D119780A29F3D073BD8E
:105E1000D4010020540100200C04002070B5144C63
:105E2000636B1D79EDB2012D21D1854058781E7824
:105E3000000230439E7836043043DE783606304325
:105E4000284214D0FF2018710A48A16302608C78A0
:105E50000D78C9786C434906490E074A6143506B77
:105E600092690160772111701A79FF2AFCD070BD08
:105E7000D40100200C04002054010020014BDB6BF6
:105E800018787047D4010020014BDB6B1870704705
:105E9000D4010020014BDB6B58787047D4010020FF
:105EA000014BDB6B58707047D4010020014BDB6B5A
:105EB00098787047D4010020014BDB6B98707047D5
:105EC000D4010020014BDB6BD8787047D40100204F
:105ED000014BDB6BD8707047D401002008B5C0239C
:105EE000DB00984207D10A4B9B691A78052A0ED02D
:105EF00005221A700BE0074B8422DB6892001B78A6
:105F00005B065B0E9B18984201D1FFF79FFD08BD11
:105F100054010020D4010020024BDB681872000AF3
:105F20005872704718000020034BDB68587A1A7AC1
:105F3000000210437047C0461800002038B5051C09
:105F40001C1C181C8D4209DB0498954206DAC01A05
:105F50006D1A6843511A03F0BFFA201838BD044A7D
:105F6000033013688010800018181060181C7047E8
:105F7000E80D0020F8B501254E1E6C00B54202DA8E
:105F8000165FB0420CDAA61E1D5F115F9B5F401AC0
:105F9000EB1A5843935FC91A03F09EFA4019F8BDF3
:105FA0000135E9E7014B18607047C046F80D002045
:105FB000014B18687047C046F80D0020014B18606F
:105FC0007047C046F00D0020014B18687047C0466E
:105FD000F00D0020014B18607047C046F40D002002
:105FE000014B18687047C046F40D0020014B18683B
:105FF0007047C04620030020F0B5394F8BB075467E
:1060000003950E1C051C7146381C00240192029356
:10601000FEF7B4F96A464F239482201C137504A935
:10602000221C0494FFF7FAFE2E4B201C1A685368BA
:10603000013B10D3990074581168A4464C1EF7D345
:106040009768794359180131890049596746C91B36
:106050004018211CF2E7D16803F03EFA224B071CDE
:106060001C68224E6588002D03D1336840229A6057
:106070000CE0A1883268681A8001791A009203F056
:106080002BFA6E2800DD6E20009B9860A3796422B5
:106090005343019A5343029A13412278002A04D0B1
:1060A000124A1268926853439B11326806A9D36062
:1060B00001230B7002234B708B707C235B4200200A
:1060C000CB7008AA5023888008950B710997FFF7B9
:1060D000A5FE03480399FEF769F90BB0F0BDC04671
:1060E000995F00001C030020F00D00202003002019
:1060F000F0B5754687B00395274D0291041C714693
:10610000281C171C1E1CFEF739F9244BFA691B6862
:10611000DB799A40131E00DC0123214A311C1268EE
:10612000D068584303F0D8F91E4B00901D682F68C3
:10613000BC463A1C6B68561E16D3191C7143C9180D
:10614000890061180439013B0CD3AF6802985743AA
:10615000DF1901377F00385E009F47430868C01B86
:106160000860EFE7321CE5E76946DBB24B748B74DD
:106170006023624604200B7510234B750A74C874A3
:10618000221C04A9FFF74AFE03480399FEF70EF903
:10619000012007B0F0BDC04691600000F00D002066
:1061A000200300201C030020F0B51D4D85B074466F
:1061B00001940E1C041C7146281C171CFEF7DEF807
:1061C000184B391C1B68D86803F086F9164B0090F1
:1061D0001B6819698A00A2180B1C043A013B07D3FB
:1061E0005F00F05F009F47431068C01B1060F4E73A
:1061F0006A4661230126C9B2042013731023537326
:10620000167251729172D07202A9221CFFF706FE1B
:10621000281C0199FEF7CAF8301C05B0F0BDC04635
:1062200049610000200300201C030020F0B5244C2D
:1062300085B07546019500911D1C7146071C201CF8
:10624000161CFEF79BF86878B3787178400001302F
:1062500098404900AB7801319940800303F03CF944
:1062600000226946B4238A81051C0B73101C02A905
:106270000292FFF7D3FD134B201C1E683268013ACF
:106280000DD37368191C5143C91889007918043952
:10629000013BF4D30C68A40B6C430C60F7E7336943
:1062A000009C9A00A218043A013B04D31468A10B85
:1062B00069431160F7E70199FEF778F805B0F0BD82
:1062C000CD6100001C030020F0B589B07446069033
:1062D00002912B48714607940392FEF74FF8294B21
:1062E0001E68294B34681B6800940493274B1B6875
:1062F0000593274B1F68009C013C00941FD37468D2
:106300000099244A6143A5186D18069BAD000191C0
:106310005D19013CEFD30399286803F08FF80499C5
:106320000B78002B07D0059A019953181B5DBA68AA
:1063300058435043001300042860043DE9E7124B22
:1063400034691E68114B1F68013C12D30299A500E5
:106350004859039903F072F83378002B05D03B19A4
:10636000BA33FF331B7858438011029A000450510E
:10637000EAE703480799FEF719F809B0F0BDC046EF
:10638000696200001C030020F00D0020F40D0020C5
:1063900020030020FFFFFF3FF0B51A4C071C0E1C26
:1063A00085B07146201C7546FDF7E8FF164B2A376D
:1063B0001B683A78997C4A43316892098A4200DA2C
:1063C0000A1C997B4A43921101921B7B9A4200DA84
:1063D000019302A900228A8001220A704A708A7001
:1063E0007C225242CA701F220A71062001AAFFF7BE
:1063F00015FD201C291C019EFDF7D8FF301C05B09F
:10640000F0BDC04639630000F00D0020F0B599B032
:10641000754611900C1CA548714612930B9213956A
:10642000FDF7ACFFFAF7EEFCFAF7F8FCA04B1B689F
:10643000F0331B78002B07D19E4B1B681E7A099600
:106440000A201F5E089706E09B4B1B689D78099504
:106450000427DE5F0896994E0025336815A81A6850
:1064600005805127586814A96F440A7038709A68DB
:10647000522153206944042368440A70037015A90B
:1064800051230B7001320B9B92009A1814A9022021
:10649000FFF7C4FCA31DDD770233DD777F27631D83
:1064A000DF773168E31DDF774B680A68013BDBB2B9
:1064B0000D93804B824F1E68824B013A1B6852B28B
:1064C0000E93814BB4461B6807970F9380231B06DE
:1064D000069305950395002A00DAA3E00D98550070
:1064E00043B20A95002B00DA9AE08E68551C75437A
:1064F0000135ED18A8000B9F0095129D9E00C05914
:10650000AE59069F861BB74200DA0696079DB54234
:1065100000DD0796664637784E68002F09D0351C97
:1065200055430E9FFF187F5D0F9D7843AD6868430C
:10653000001356431E9F9E19B600F659119F360C44
:10654000301A009E7500E8536646002854DB0F257C
:106550007557A84212DB2768451B7D1925606569C0
:10656000102701356561F757F67B656876B2B8424A
:1065700001DC861B00E0BE1BAE196660E568A84220
:1065800004DDDEB2D7B210960C97E0606646357B2C
:10659000A8421BDB251C08351F26AE579E4200DA99
:1065A000EB77E51D1F26AE579E4200DDEB77A51D5C
:1065B0001F26AE57964200DAEA77651D1F26AE57B2
:1065C000964200DDEA77059F0137059785B2209F47
:1065D0005E000195BD5B019F7D192F1C209DAF536F
:1065E0001F9D0A9EAF5B019EF5191F9F0A9EBD531A
:1065F000039F3F18039711E011257557A84206DC49
:10660000A768451B7D19A560A5690135A5612569A8
:10661000A84200DA2061039E361A0396013B61E727
:10662000013A58E7254B03981B680125D96802F009
:1066300053FF7C2316A95B42221CCB70E0617623BA
:106640001C320026281C8E800D700B714D708D70D1
:10665000FFF7E4FB059FA21D27621F21631D515612
:106660001F229A56184B1B68914201DB1D7100E0F6
:106670001E71069D079EE562109F0C9D231C28330A
:1066800026631F705D70E668099F0125BE4205DA2A
:106690002369089CDD0FE2179C425541034813997A
:1066A000FDF784FEE8B219B0F0BDC046AD6300004E
:1066B00040000020F00D0020F80D00201C030020F9
:1066C000FFFFFF7FF40D002020030020F0B589B00C
:1066D00075460C1C03907146434804936E4605951D
:1066E0000027151CFDF74AFEFAF78CFBFAF796FB1C
:1066F000FCF786FD0123B78333763C4E6A4630684B
:1067000006A9037C0220537693760423D3765A237A
:1067100013772A1CFFF782FB231C2A331F70802368
:106720001B066363324BA36333681A69314B1968E4
:10673000314B1E68314BB4461B680193013A43D379
:10674000049F9600BF59A859C31B676B9F4200DA8C
:106750006363A76B9F4200DDA3630B78002B06D019
:106760006746BB18BA33FF331B78584380110E9F1E
:10677000BB591B0C1B1A11D4487B834202DB019EC0
:10678000012030710F200856834212DB2768181A47
:10679000381820606069013060610AE011200856F5
:1067A000834206DCA668181A3018A060A069013080
:1067B000A061039F50003B52201C2A300678B34250
:1067C00000DA331C0370B9E70A4B2A341B682278BD
:1067D0001B7A00209A424041C4B205990248FDF755
:1067E000E5FD201C09B0F0BD6D6600001C03002013
:1067F000FFFFFF7FF00D0020F40D0020200300209C
:10680000F0B585B003931A4B00901C68029125687F
:1068100001926F1E1BD3636800981E1C7E43F618FE
:10682000B6008619043E013B0FD3A16801226943DB
:106830008C469C44944460460199800042583068DC
:106840009446844461463160ECE73D1CE1E72269EF
:10685000039D029C9300E118E8180023043B013AD1
:1068600004D3CE58C5587419CC50F7E705B0F0BD25
:106870001C030020F0B574468FB0079403900C1CE5
:106880006448714606926D46FDF778FD0023AB849F
:10689000614D08AE2B6821205F6999699A682223AF
:1068A0006B4437701A7023260132684404236E4407
:1068B0009200017033700220A02308A909AFA2182A
:1068C0003B70FFF7ABFA286841698C4683694F1E1D
:1068D00002972ED3029A66465A435E430192039D65
:1068E000F2187600019F76425200AA180596069D7E
:1068F000019EBF00ED19760004950196023A013B16
:1069000015D38668049F4E439E199D0001367D591C
:10691000B6003659059F2D0CAD1BBE18019FF553CF
:10692000EE17AD1975401688AD191580E6E7029986
:10693000CCE70AA9DBB262464B708B707E23013232
:106940005B420A70CB700026A1230120039A8E803F
:106950000B71FFF763FA314B2F4C1A682168304BEB
:1069600088691D681660AC46031CFF25013B13D3E4
:106970004C69039F4443E41864003C5F67463F78DA
:10698000BC42F3DB9E4200DADEB29D4200DDDDB2A6
:1069900017683C191460E9E70CA901240423CB70A3
:1069A00000276423201C8F800C700B714C708C703E
:1069B000FFF734FA194B1A68194B12681B685B7899
:1069C0009A4220D9144F69B23B68039F9A695B6968
:1069D0005A4373B25B1AD90FCB182341EB18AD1889
:1069E000A540DBB2E95F9B18039DA340EB5E271C2B
:1069F000994208DDB218039EA240925FD917D70FC3
:106A000093424F41FFB203480799FDF7CFFC381C72
:106A10000FB0F0BD156800001C030020200300200B
:106A2000F80D0020F0B58BB0744603900E1C33486F
:106A3000714607940292FDF7A1FC314B1D68314B62
:106A400028681C68A769391C02F0F8FC2E4B1B68EB
:106A5000DB799840002800DC0120EB68029958435C
:106A600002F03AFD6169BB005B424A1E8446381C55
:106A7000029350437B005C425343C019039D800046
:106A8000F31804942818059300910024009D013DFB
:106A9000009515D3059E021CA61906963B1C043AC8
:106AA000013B08D3069E5D00765F65467543166818
:106AB000761B1660F3E7029A049B8018E418E5E75A
:106AC00021242225FBB208AA6C446D441170237066
:106AD0002B7009AA6023232625240420137008A9FB
:106AE0001023039A6E446C4430702370FFF796F9BC
:106AF00002480799FDF75AFC0BB0F0BDC5690000CC
:106B0000200300201C030020F00D0020014B186022
:106B10007047C046000E0020014B18687047C04601
:106B2000000E002008B5034B1860008DFFF7F4F944
:106B300008BDC046FC0D0020014B18687047C046D8
:106B4000FC0D0020014B18687047C046240300204C
:106B5000F7B53F4F73467146381C0193FDF70EFCA5
:106B60003C4C002120680A222C3002F077FD20687E
:106B700000210A22363002F071FD2068002128220F
:106B8000403002F06BFD206800210A22683002F0DC
:106B900065FD206800210C22723002F05FFD206844
:106BA00000210C227E3002F059FD206800210522D0
:106BB0008A3002F053FD2068002105228F3002F058
:106BC0004DFD254B25681C682F1CE269216A500089
:106BD000401A0002490002F07FFC636AA16AA860C3
:106BE000061C5800401A0002490002F075FC1B4BBD
:106BF00076001B68E8605968400001390902711885
:106C00001E682961013E360286196E610533DB7FFD
:106C1000A437A835002B08D0231CD8331888D634C5
:106C2000000402F059FC386007E0231CD6331888B2
:106C3000D834000402F050FC38602088311C000475
:106C400002F04AFC019928600148FDF7AFFBF7BD4F
:106C5000F16A000024030020000E00201C03002025
:106C6000F8B5134C7146061C201C7546FDF786FBD3
:106C7000104B00211A68201C131C723319700E4B24
:106C80001B681B7C013BDBB2FF2B0DD059008F5BD7
:106C9000191C383149003CB25118002C01DD8F809D
:106CA000F0E700248C80EDE7291CFDF77FFBF8BDA1
:106CB000016C0000240300201C030020F0B5744682
:106CC00085B002940E1C041C71461F48151CFDF76C
:106CD00055FB1E4B1B681A6AD2B2013AD2B2FF2A88
:106CE0002AD0F7685300FF5E696860680191002F41
:106CF0001AD0E768FF5E002F16D0C05A716807B23D
:106D00000397C95E039F7F1A7F10BC4601996044B8
:106D1000A768C852F95AB76808B28446F85E674651
:106D2000381A4010411804E00199C05AA768C852A7
:106D3000F95AA868C152D0E7237803482B7002990A
:106D4000FDF734FB05B0F0BD5D6C00001C030020B6
:106D5000F7B575460195144D041C0F1C281C71468F
:106D6000FDF70CFB114E0A2230680021683002F05A
:106D700075FC0F4B36681B68281C1A6AD2B2013AA0
:106D8000D2B20023FF2A09D0E56851004B53B11855
:106D90000D1C283530312B718B71F0E72370019970
:106DA0003B70FDF703FBF7BDF16C000024030020EE
:106DB0001C030020F7B5124E73467146301C019338
:106DC000FDF7DCFA0F4D002428680527031C7233F9
:106DD0001C703A1C211C8A3002F040FC28683A1CC6
:106DE000211C8F3002F03AFC2868211C0A227430E2
:106DF00002F034FC301C0199FDF7D8FAF7BDC0460B
:106E0000556D000024030020F8B5154E041C0D1C20
:106E1000301C71467746FDF7B1FA124B301C1B68E7
:106E20005A1DD17F9A1D00290CD021882E882680DA
:106E30002980D27F002A0ED01A680733DB7F013AFF
:106E4000D31A04E0D27F002A05D05B68013B228878
:106E50001B029B1A2380391CFDF7A8FAF8BDC04617
:106E6000A96D00001C030020F0B5714689B077467B
:106E7000061C3E480597FDF781FA3068726807AC3A
:106E800069461E312080201C0A80FFF7BDFF384B69
:106E90001B685A1DD17FDD1D364A81CB00290CD0DD
:106EA0001268013FEB7F3F02411E03979768C91AA2
:106EB000DB01DB190902D7680BE0791E1268EF7F4E
:106EC0000138C01B9368D2680002FF0109020390D9
:106ED000BF18294A1568286801900022A05E019A0F
:106EE000C0185B00C918504302F0F6FA80B2049053
:106EF00020806868694602901E20085E029A039B03
:106F0000C0197F00D919504302F0E6FA6F4680B2EB
:106F10002B1CF883D433049F1B783AB29A4206DDC7
:106F2000019FF91A8A4203DB3A1C013AD31A2380E3
:106F30002B1CD5331B7800B2984206DD029FFA1A4B
:106F4000904204DB3A1C013AD31A6846C38307AB6C
:106F500000215B5E6A4633601E23D35E0348736084
:106F60000599FDF723FA09B0F0BDC046096E00008F
:106F70001C03002024030020000E0020F0B5724600
:106F80008BB07146041C61480592FDF7F7F9604B20
:106F900000201B6802905A681D6A013A120203928F
:106FA0001A68013D013A1202AB0004926E0001938F
:106FB000681C00D192E0574B1B681A1CE632177808
:106FC000012F1AD1E168885F5188A269884212DDD9
:106FD0002069EA33815B1B7899420CD95755694681
:106FE0000022B5238A830E200B7706A90692FEF7AE
:106FF00015FF029701E000235355464B1F683B1CC9
:10700000EB331B78012B63D1E3689A5F3B1CEE33B3
:107010001B889A425CDD6068825FFF2A09DDA168F7
:107020008B5FFF2B05DD0398824202DC04998B42C3
:107030004EDA374B62691B680533D97F364B00291E
:1070400015D0019801211218186800235156D35603
:10705000CB1A011CA83109681B024B43032151566E
:1070600092781B1452B2891A0902A43014E00199D3
:1070700018685218022303215156D356CB1A011C0B
:10708000A43109681B024B430121515612781B148D
:1070900052B2891A0902A83002680A205143091421
:1070A0008B4201DB584301E04843191C02F014FAFB
:1070B000EC373B7898420BDDA2690123535508A9B0
:1070C0000022B6230E208A8008920B71FEF7A6FEDE
:1070D000019B013D043B023E019369E702990029AF
:1070E00005D10A480599FDF761F90BB0F0BD084BD1
:1070F0001B681B6A013BF4D3E0685A00125E002A49
:10710000F8DDA1690122CA54F4E7C0461D6F0000F2
:107110001C030020000E002024030020F0B572465E
:1071200093B07146041C59480392FDF727F9584A59
:10713000584B12681B6811793822514359182C3169
:1071400004A802F049FA544B00261B685A681F68CD
:10715000013A120202920733DB7F013FFF1A3F021E
:107160004D4B1B681A6A964200DB88E0E1687500A7
:107170004A5F002A00DC80E0454A12681279012A41
:107180007BD06268505FFF2819DC0533DB7F0499F0
:1071900005AA002B02D06B46323301E06B461E334A
:1071A000FEF7E8FE616800B24B1900215A5E013A11
:1071B000FF3A504380110130FF30188020E0029ADE
:1071C000101AFF281CDC0533DB7F049905AA002B6D
:1071D00001D00FAB00E00AABFEF7CCFE029A61686B
:1071E000013AFF3A4B1901920022995E029A00B2CD
:1071F000511A0139FF394843019A8011121A1A8035
:10720000A368585F244BFF2819DC1B6804990533D9
:10721000DB7F05AA002B01D00AAB01E06B463233BD
:10722000FEF7A8FEA16800B24D190022AB5E013B3B
:10723000FF3B584380110130FF3028801DE0381A91
:10724000FF281ADC1B6804990533DB7F05AA002B95
:1072500002D06B461E3300E00FABFEF78BFEA36837
:1072600000B25D1900216A5E7B1EBA1A013AFF3A2C
:107270005043FF3B80111B1A2B80013670E70348F7
:107280000399FDF793F813B0F0BDC046BD70000040
:1072900024030020000E00201C030020F0B57646D9
:1072A0008FB0041C0F1CC14871460796FDF766F8A5
:1072B000BF4B1B689E680696DE6802961E690196A3
:1072C0005E699B6905960393FEF750FDB94B012655
:1072D0001B68E4331B780496002B54D000260496D8
:1072E000B54B1B681B6A9E424DDA78687500435F98
:1072F000B9680A934B5F0AA80B93FFF7B5FDE268E4
:10730000535F002B3DDD6068A168435F08A80893C8
:107310004B5F0993FFF7A8FD089B069A9A4209DA8A
:107320000298984206DD099A0199914202DA05987D
:10733000904221DCF9684A5F002A19DD9F4A1268F1
:1073400092192832127952B2012A11DD0698039956
:10735000421A9A420CDA029842189A4208DD0198C1
:10736000099B421A9A4203DA059842189A4206DCAF
:10737000E16800234B5304E00122049201E0012361
:1073800004930136ACE701268B4B03961B68039EE2
:10739000186A013E0196864200DBC8E0039E8848D9
:1073A000796835186D004B5FBA680A93535F0AA875
:1073B0000B93FFF759FDE668735F002B00DC86E056
:1073C0006068A168435F08A808934B5F0993FFF7C3
:1073D0004BFD0A9B099E9C46784B02961B68019EBA
:1073E00006939B1968331E78764B089A0B981B6896
:1073F000002E01D1543300E05533F9681B784E5FFD
:10740000002E0DDD029E301AC117401848409842E8
:1074100006DA6646911BC81709184140994273DB8A
:10742000049E002E70D00CAE317880235B420B435B
:10743000DF210B4040210B433370A169019BC85CE5
:10744000012331781840102399438C4603990F2368
:10745000194005910001614608430599984301438D
:1074600010121840317071780590029899438C463B
:1074700001120901059800916146084300991840DE
:10748000B270029AE36801437170F2705A5B131C88
:1074900012B2FF2A00DDFF233371069B301CA0339C
:1074A0001B6801999847301CFEF76AFCFE68434B45
:1074B000725F1B68019E9B19002A03DD1A1C68324B
:1074C000012302E01A1C6832002313701CE0F868E4
:1074D000435F002B18DD0CA800234360039B0F21A2
:1074E0000B40402213430A9A037013129C460B9BD5
:1074F00082701E123601019666463140019EC370AD
:107500000E434670FEF73CFCE068F968435B626836
:107510004B53535B7E68A0687353435BB968226921
:107520004B533E69535B7353039E01362CE71B6933
:107530005E1E03960F2603981E40204D013043D057
:107540000398296840000B181A1C80320190002013
:10755000125E7433002A0FDC1B881AB2002A16DD73
:1075600000210CA80C914160802131430170FF2A59
:1075700000DDFF23037108E000215B5E002B06DCC9
:107580000CA800230C9343600670FEF7F9FB019AE8
:107590002B68013E9B181A1C74331B8880321380A1
:1075A000039B013B03930F23C5E7C0463D720000D8
:1075B000000E0020400000201C03002024030020B7
:1075C000FFFFFF7FFC0D002023783B702B681A1C07
:1075D00072321178117338780122002802D10A1C06
:1075E000511E8A4196331A70FEF70EFA0248079927
:1075F000FCF7DCFE0FB0F0BD3D72000010B50224B8
:107600008B7804575AB2944200DD8370CB78032400
:1076100004575AB2944200DAC3700B78002404571E
:107620005AB2944200DD03704B78012141565AB2A0
:10763000914200DA437010BDF0B58FB00A910A9CF8
:107640000893C36864001D5F0C940695540004946D
:10765000069E1C5F0A9D43683619AD0005960131F0
:10766000960009955D19071C0D91985906992B688C
:1076700060434B430599C0180B9201F02DFFBB6886
:1076800000B22860099A98599D182B6844430698BF
:1076900005994343E01801F01FFF3969099C00B2C6
:1076A000286004220819089901F096FFFB680C9DD8
:1076B000049C5A191B19108819884118118000223E
:1076C0001A807B695A191B5B0025505F19B28842EA
:1076D0000ADA1380BB69049D1A190C9C52781B1995
:1076E0005A70BB695A5D1A550B9B013301240F2B4D
:1076F00009DC159D0998A9592A1815689C400C4069
:107700002C431460F1E7159D0023AB510A9D0B9E9D
:10771000211CB140AC40159AA446CD430B9EB34208
:107720001ADA1068014214D00A9EB34203DA6446A2
:10773000204310600AE00A9EB34207DD159C099EB3
:10774000A019046801269E40264306601068284060
:10775000106001330432E1E7089C247864B2079496
:10776000089D0123EB56079E9E4200DDACE0089D7C
:10777000AD786DB2089E04950323079AF356049CD6
:1077800001329C4200DD9DE0624B049C1B68149D0D
:107790009E68724301321219AA181178B446013951
:1077A000112900DC8BE00120052340420024013B2D
:1077B000002B29D0584EF51801267642AE57079D6A
:1077C000AE19013665467543534E0595F518ED79AA
:1077D000049E6DB20295149DAD19059EAD19029ED1
:1077E000AD1905956D78013D0F2DE0D80A9EB54283
:1077F00002D00B9EB542DAD1461C03D0A842D6D0A7
:107800000124D4E7281CD2E7002C58D0122955D1E6
:107810000D9C052514700695069C013C0694002CD1
:107820004DD03D4B069E07249A19131C013B1B7833
:10783000079E5BB2F618374B14571A68331C9268D0
:1078400001335343049D01332C19149D1B19EA186D
:107850001178B4460029DFD1169E5B009B5B002B9C
:10786000DAD0122111707868099D4619F8680C9DCC
:107870003268401902900088099D019001B2181CDD
:1078800060434A4300021018BA68541965462268DA
:107890005D4351432D02AC46614405910199029A22
:1078A0005D18ADB215802DB2291C01F015FE291C02
:1078B0003060059801F010FE2060ADE71170049D66
:1078C000013557E707924BE70022AA56089E01238D
:1078D000F3569A421BDC089C0223E356089D0320C2
:1078E0002856511C834210DC0A48149D00680B9EE8
:1078F000806841430131C918691808780138B042DD
:1079000001D10D9C0C700133E8E70A1CDEE70FB0D3
:10791000F0BDC0461C03002020970000F0B591B0D8
:1079200075460B91061C714641480D950C920793C4
:10793000FCF724FD0024F7686300FA5E002A6DD08E
:10794000B0690125C3185D571B7809955BB2089390
:10795000013D0695099F069D01370A97BD425DDCF2
:10796000089F013F0597089B059F01339F4252DC0A
:10797000304B06991B6801319A68059D51430B9F56
:10798000481C40193D5C013D0F2D40D8AC423ED013
:1079900077696300DB5F284F40003F683F89BC4642
:1079A000079FC05B834232DC089F6046C91943438E
:1079B0000131079F4900C95B9B118B4227DA0A9F5F
:1079C0007A43059FBA180132079F5200D25B934257
:1079D0001DDAA54202DB2B1C251C1C1C3769A100EB
:1079E000791804220FA801F0F7FDA90079180FA853
:1079F000FFF704FE0B9F221C00970C9F301C019781
:107A0000079F291C02970FABFFF716FE2C1C059D44
:107A100002350595A7E7069D02359AE701340F2C3C
:107A200089DD03480D99FCF7C1FC11B0F0BDC046DB
:107A3000BD7800001C030020FC0D0020F0B5A7B0AD
:107A40007546071C0C91C848714613920D931A9500
:107A5000FCF794FC139A0D9B381C0C99FFF75EFF02
:107A60002C9EC24B3278012A07D13A78012A04D9D8
:107A70001B689C881494DB8803E01B681D881495A0
:107A80005B880F2615930696069B069C013B002CEF
:107A900000D171E1139C9A00069D12590795EA40A6
:107AA0000F9206930F9D002DEED0079E102EEBD067
:107AB0000F9E0120064200D14FE1079D069C7B6886
:107AC000A400AE001959BA689B590894C91A1459F0
:107AD0009359CD17E31A4C196C40DD1710945C19BB
:107AE0006C40109D0B94A54202DD1190180203E03A
:107AF000002408021194191C01F0EEFC3C691CAD35
:107B0000A11904221290281C01F066FD0898211882
:107B1000281CFFF773FD7968089CFB680859079CCF
:107B200020906100CC5E09947C68A4590A94069C5C
:107B30006200D45E099B099A58430A9BA2186343CA
:107B4000111CC0180E9201F0C7FC21900A98BB6866
:107B5000089922905858099A23909E59504374438B
:107B60000E99001901F0B8FC0024249000211DA8F2
:107B70000C22259601F072FD2C5701260994AE5770
:107B8000022416962C577A4B1794ED781B686DB229
:107B900018951993099C169DAC4200DD9FE0099D44
:107BA000179E2D020E9508960999089D189E013181
:107BB000B54200DD91E0199C089EA0680C9C4143F1
:107BC00001318919645C8446231C013B0A940F2B04
:107BD00044DD0020012205235242041C013B002BFE
:107BE0002BD0644EF51801267642AE57099DAE198A
:107BF0000136654675435F4E0595F518ED79089E8B
:107C00006DB204950C9DAD19059EAD19049EAD197C
:107C10001B956D78013D0F2DE0D8069EB54202D030
:107C2000079EB54205D1561C05D0AA42D6D00124E4
:107C3000D4E70120D2E72A1CD0E7013249D049001D
:107C4000002C01D1002802D10D9C605A11E00D9D3D
:107C5000685A0A99113901F03FFC0AE05E1C38D0DD
:107C6000069CA34202D0079DAB4232D10D9E490033
:107C7000885B00282DD0089C03232102013B28D3D8
:107C8000119D20AC23AA9E00002D09D095590E9A73
:107C9000551B129A5543A2592D12551B6D1A08E017
:107CA000A559129C4D1B654392592D120E9E551BD2
:107CB000AD1BEA17AD185540FF2DDFDC802676009E
:107CC000751B45439C001DAAA6582D127519A55079
:107CD000D4E7089C0134089466E709915AE71F9B92
:107CE0001D9C9C4200DD1C1C119E002E06D10B9D8C
:107CF000331C002D0DD0109E10950B960B9D1099E6
:107D0000A80101F0E9FB3F2800DD3F20194B1818BE
:107D1000037C2D21149E159DC81A70436B43C01817
:107D200001F0DAFB44431E9BA412A34215DD079E1B
:107D3000069CA64201DB079406960C9D139E0D9CA3
:107D400000951CAB01960294381C0799069AFFF720
:107D500073FC069B079D07930695079E0F9C0136B3
:107D6000640807960F949DE6DD790000FC0D002065
:107D70001C030020209700002C4B3C701868012148
:107D80001C304942102201F069FC069C251CF86851
:107D90006600825FE3B2002A24DD3A7801323A704D
:107DA000224A1268121915779D4219D07A68A300E9
:107DB000D158A8001150BA680790D1581150FA68EC
:107DC0006800925B011C101CFA6888523969079A96
:107DD0008818C918042201F0FFFBF86800238353B8
:107DE0000135EDB20134102CD1D123A90023239306
:107DF0008B800F4B7F201B680C9D1A680A705C6893
:107E00004C709A68CB788A70834301200343121820
:107E1000CB70AA18302306200B71FDF7FFFF054831
:107E20001A99FCF7C3FA27B0F0BDC046240300201E
:107E30001C030020DD790000164BC2171B68801858
:107E400050401A1CA43270B5A8331468CA17891898
:107E50001D68514044434D4324142D14AC4202DBB1
:107E6000231C2C1C1D1CA001291C01F035FB0A4EF3
:107E70003018037C281C002B0BD05A22D21A523601
:107E80005200955B5B0068439D5B00146C432414B7
:107E9000001970BD2403002020970000F0B575463E
:107EA0009BB0041C0F1C844871460D9508921E1C43
:107EB000FCF764FA814B1D6823782A6A934200DD3F
:107EC000131C01213B70494210220EA801F0C6FB91
:107ED00012A8FF21202201F0C1FB794B2D6A1B68FB
:107EE00009950A93774B00251B6804950B93049D15
:107EF0000998854257DA0898049DC0686D00435F71
:107F00000795002B4AD0049B0A9D10339B000B98C9
:107F10005B592578C0689B000C9500251B180595BA
:107F2000012506936D4205980C99C3B28B421FD26E
:107F30000598E16843005B5E002B15D0830007992C
:107F40007068425E6168C8580799801AB268525ECC
:107F50009446A268D1586346C91AFFF76DFF069987
:107F6000884201DA059D0690059A01320592DAE70A
:107F70006A1C13D00EAB59576A0012AB013108D0FE
:107F8000995A0698814209D99852049B0EAA5355D2
:107F900004E006980EA99852049A4A55049B0133AE
:107FA000DBB20493A3E700252378AB4228D90EA9BE
:107FB0004E5D73B2013320D06068A9004258F6B21A
:107FC00078687300C252A0684258B868C252E0682C
:107FD0006A00105A0492FA68D0527A692369B00094
:107FE00010185918042201F0F7FA354B049812AA18
:107FF0001B681036825AB600F2500135EDB2D3E755
:1080000000252378AB423ED90EA94B57013337D117
:10801000E3686A009A180026935F0492002B2FD021
:10802000264B00201B681B6A0593059EB04227DA89
:1080300008994300C968CE5E002E1ED1FE68F6186E
:108040000022B15E0696002917D162680EAE705507
:10805000A90056587A688000D652A2685658BA6865
:10806000D652049A069E13887A69338023691018C1
:108070005918042201F0B0FA02E00130C0B2D4E78E
:108080000135EDB2BDE70D4B002218680C4B1B68A3
:10809000197F046AA14202DA0EAD695C00E0FF219B
:1080A0000132D2B219770133102AF1D102480D9969
:1080B000FCF77CF91BB0F0BD3D7E00001C030020E6
:1080C00024030020FC0D0020F0B574469BB01394EF
:1080D0000C91041C71467E480D92FCF74FF9FEF797
:1080E00031FD7C4B0E901B681B6A013B0793079E7A
:1080F000013600D1E6E0079DE6686D00735F0895E4
:10810000002B00DCDAE0079F6069BB00C018714BF0
:1081100002221B6803218256415610936E4B0025A4
:108120001B6884460B91119305950A950B9FBA42E3
:1081300062DC66460127F7570021100271560F973F
:1081400012900F9E531CB14254DC109E4F1CB56818
:10815000381C68430C9EC018335C0697102B22DD38
:108160000523013B002B2BD05C4EF718F618013E7F
:108170003678FF7976B28E1901366E437FB2049756
:108180000C9F0396049EBF18BE19039FF7197E78B3
:10819000002EE6D0119F76B2BE19F67E079F76B20A
:1081A000BE42DED109E0002B0AD00E9E1B25F3183B
:1081B0005D57079F0023BD4202D10D9D4000435BE8
:1081C0006668089F0902F05F129F0A9EC01BC517D0
:1081D000401968405843089DA7683618785F059D88
:1081E000411AC817091841404B43ED180A960595E6
:1081F0000699A6E71A1C99E7089D6068A668425D83
:10820000735D802A02DD802149008A1A802B02DDFD
:1082100080214900CB1AD3180693314B84271B6861
:108220007F001A1CFC329168DA191D33FF3306985F
:10823000FDF7A0FE2B4BE1681B68089E051C885FBC
:108240002822995E1A6C40235B1B00930023FDF7E4
:1082500075FE2F18059D0A98E16878436F43089DC5
:108260004E190021755EAD01291C01F035F9291C5C
:108270000590381C01F030F9011C0598FFF7DCFD72
:108280002269089D079F505316970027F35F14A992
:10829000199300238B808022012352420B70042308
:1082A00080B2069D4B708B7013431890CB701220D8
:1082B000B02316AA17950B71FDF7B0FD079D013D80
:1082C000079514E702481399FCF770F81BB0F0BD4E
:1082D000698000001C030020240300202097000078
:1082E000000E0020FC0D00200F4AC378126810B564
:1082F00051685CB201398C4201DA0133C370837872
:1083000059B2002901DD013B83704378126859B2EC
:10831000013A914201DA0133437003785AB2002ADC
:1083200001DD013B037010BD1C030020F0B593B0CC
:1083300075460591071C7146CD48089209930B9527
:10834000FCF71CF80EA900238B80CA4B059C1B6808
:108350009A6858681E688A70012301324870CB7091
:10836000A218082306200B710E70FDF757FD10238D
:10837000013BDBB2FF2B0BD03D699A00A9187F208F
:10838000087088703E69FF21B2185170D170EFE714
:10839000B94B00221B68189C1A600923E356189DEC
:1083A0000822AA56934269DB189D0B22AA56189CF4
:1083B0000A2161568A425FDBAE49059E0868591C56
:1083C000806841430131891870180478251C113DDB
:1083D0002D2D02D8002101704CE0013CE4B20F2C9D
:1083E00048D8099D4900485BA3497E6809680D6823
:1083F00001350D60A1007518061C5643B4462E6861
:108400006400B44466462E60BE687518061C5E4360
:10841000B4462E68B44466462E60FE6835192E8830
:1084200086192E803E6975180226AE57B24200DAD0
:10843000AA703E6975180326AE57B24200DDEA7095
:108440003E6975180026AE57B34200DA2B703D69BD
:10845000691801254D57AB4200DD4B707E6931191B
:1084600000268D5F854205DA0880B86901194B70D6
:10847000B9690A55013A9AE7013B90E7002604964C
:10848000F868049C035F002B01D10024F8E0049CF1
:108490003D69640028190694FFF726FF3E693319E9
:1084A00001269E573869069C002203199A56964267
:1084B00000DAD6E0DB785BB202933D69069C2B19AB
:1084C0009B78029D5BB29D4200DAC8E0694B029C3A
:1084D0001B68059D9B6801930198731C43430133FE
:1084E0001B19ED182A780395002A02D03F2A00D0E4
:1084F000B1E0099D5B005C5B002C00D1ABE0002388
:108500000D930523013B002B21D05C4A0725D11890
:108510000A1C4D57012149425156019871180131E9
:1085200048430599844602980A18521962445178C2
:108530004A1E0F2AE6D800220DA8855C002D01D125
:108540008154DFE78D42FBD00132D2B2F4E70DAAAD
:108550009A5CDDB20195002A04D00133042BF6D1D8
:10856000019302E0019D002D75D00199201C00F0BF
:10857000B3FF019D039911350D700795029D311CC4
:108580004543414303950A91002301997D688C4638
:10859000012149428C440DAA63451CDAD25C241A9D
:1085A000013A91006D1800922A6801339446039AAB
:1085B000944462462A60BD6869180A6894460A9A1B
:1085C000944465460D600099FD684A00AA18118818
:1085D00009181180D9E7D35C5B1802999A006143AE
:1085E000AD1828685B0041182960B968F8688A18D6
:1085F000211C71431568C318691811601A880799FE
:1086000014191C800023122925D0634523DA013375
:108610001A1C019DAA42F8DA0DA8C118013909787F
:10862000105C01390138C9B2C0B20124814208D2BC
:10863000089D890069188440201C0C68204308604C
:1086400007E0089D800028188C40211C0468214305
:1086500001600132DDE7029C013C02942DE7013EFE
:1086600020E7049D02350495202D00D008E70CE793
:10867000CD8200001C03002024030020209700006E
:10868000FE686200925BE3B2002A19D07868A50008
:10869000461911B232680291100200F01DFFBB684A
:1086A00030605E19316801340802029900F014FF4D
:1086B0003A6930605019FFF717FE102CE0D1231CE7
:1086C00010A93B7000238B800B4B059E1B68062076
:1086D0009A681C685D688A7001230132CB70B218F9
:1086E0002D230B710C704D70FDF798FB03480B990F
:1086F000FBF75CFE13B0F0BD1C030020CD82000030
:10870000F0B5774687B0051C0E1C7048714605977A
:10871000FBF734FEF8F78EFB6D4B071C1B68287ABD
:10872000697A01901C68FA20800003914843211C5B
:1087300000F0D2FE3A6900901778002F16D0012F72
:1087400016D1644B1B681B6A013B0DD3D7685900D7
:10875000795E0029F8DD604F3F68E0373F88BC460E
:108760000127614507DB04E0012704E0012301E064
:1087700001273B1C5B42516892685800095A125A03
:1087800002910492022E17D004D8002E0AD0012E96
:108790000DD08FE0052E30D0062E53D0042E00D001
:1087A00088E027E0002B64DA012F2FD184E0002B32
:1087B00068DA012F75D17FE0002B03DB019F4F2F7B
:1087C00060D979E00199FA2080004843211C00F02B
:1087D00083FE414B03241B681A1CE232128890422C
:1087E00005DCE4331B880024984200DA0524012FBD
:1087F00039D161E0012F09D160E0002F08D1364B5B
:10880000009A1B68E4331B889A424ADB082456E02E
:10881000002BFBDB2968029F0023CB5E6A6838B21D
:10882000049FC01A0023D35E39B2C91AFFF704FBB4
:10883000294B1B68DE331B789842E7DC00236B7200
:1088400006243CE00724002F39D00424002B36DB1B
:10885000214B009F1B68E4331B889F422FDA6B7A01
:1088600001336B722AE0022C0CD0052C19D0012C9C
:1088700025D12868029F01240780049F686807802B
:108880002C721CE0019F28687B00029F02241F526B
:108890002B7A049F68685B001F522B7A01332B727E
:1088A0000DE0013E0023012E01D9039B01336B72C1
:1088B000052404E0002402E0042400E0341C034802
:1088C0000599FBF773FD201C07B0F0BDA1860000E1
:1088D000400000201C030020000E0020F0B52C4DAD
:1088E00085B074460394071C0C1C281C7146161C8A
:1088F000FBF744FD0422A35E0622A05E0025C01AF9
:10890000642358430223E15E0022A35EC91A00F0EB
:10891000E3FD7623021C1A3AFF3301909A4230D8C5
:1089200002950022BB5E64205843019900F0D4FDFB
:10893000029B81B23980012B0DDDB31E00229B5EAC
:108940000022B05E09B2C01ABB1E00229B5EC91A8B
:10895000FFF772FA2D18029B023701330293023699
:10896000162BDED10422A05E64260199704300F02C
:10897000B3FDA0800623E05E0199704300F0ACFDDA
:10898000E08003480399FBF711FD281C05B0F0BDFA
:108990007D880000F0B52F4F95B075460395019086
:1089A0001D1C0291381C7146141CFBF7E7FC0422C5
:1089B000AE5E0622AB5E03219B1B181C009300F0E9
:1089C0008BFD2822A35E82190124934200DC00243F
:1089D00041008E19E4B2B34201DD02231C43029E22
:1089E0002823F35E0026AA5F8018834201DD04205D
:1089F00004438A18934201DD08231C4304A8002184
:108A0000402200F02BFE0323059306230793012346
:108A100008930423099307230B9302231093052340
:108A20001193A40008236A4613931034A358019CA1
:108A3000009963700020FFF7FFF91A9D011C0A20BE
:108A4000684300F049FD03992070381CFBF7AEFC29
:108A500015B0F0BD35890000F0B5744695B00394AB
:108A600002900E1C2F4871460024171C0125FBF7AD
:108A700085FC0194152D09D10021735E2820325EFA
:108A8000D21A2823F95E00243B5F07E0019C6B00AB
:108A9000F15E325F019C8A1AF95E3B5FCB1AA82116
:108AA000FF315143012489128B4200DC00241E480F
:108AB00042439212934201DD022004435242934208
:108AC00001DA0422144349428B4201DA08231C4391
:108AD0000021402204A800F0C1FD012304930223D9
:108AE00005930323079304230B9308230C93072375
:108AF000109306231293A4000523139310340298B5
:108B000069466258019C4319013B023401351A70D1
:108B10000194162DAED103480399FBF747FC15B01D
:108B2000F0BDC046F9890000A7090000F8B5104F54
:108B3000051C0C1C381C71467646FBF71FFC381CC4
:108B40000C4BA54207DD2C1BA412032C00DD0324D3
:108B500064001C5B06E0651BAD12032D00DD0325E0
:108B60006D005D5B6419311CFBF720FC201CF8BD17
:108B7000CD8A000028980000F0B57546D5B0039561
:108B80000091051C71464448161C0193FBF7F6FB47
:108B900000240127019B0234013B9F4221DA2B195B
:108BA0009A1E0021505E2A5F0321801802229B5EDC
:108BB0000137C01800F090FC009A102369461B1979
:108BC000585213199A1E0021505E00990A5F032122
:108BD000801802229B5EC01800F07EFC2CABE05295
:108BE000D8E7019FAC1C023F7F0069463A1C201C5D
:108BF0001231029400F0F0FC009C694602343A1CE9
:108C0000B231201C00F0E8FC009900220B88009291
:108C1000F3800B880127B3802B8873802B88029DFB
:108C20003380019B9F4230DA0023E85EAB1E0021B7
:108C30005B5E0022A15EC01AA31E00229B5EC91AC1
:108C4000FFF7FAF8009B0222B15E1B1800932B88F5
:108C50001AB2914200DA73802B880022B15E1AB2F8
:108C6000914200DD338023880622B15E1AB2914220
:108C700000DAF38023880422B15E1AB2914200DD4B
:108C8000B380013702340235CBE703480399FBF781
:108C90008DFB009855B0F0BD198B0000F0B5A3B066
:108CA0007546141C02900391414871460B950A9336
:108CB000FBF764FB201C152100F00EFC012406903C
:108CC0000194002501990A9A91424EDA0199029A7B
:108CD0004F00D2190792039A0299BB1ED719C918DF
:108CE0000897D718079B04910020185E089A002364
:108CF000CB5E0021515EC01A0022BB5EC91AFFF78D
:108D00009BF806992B1805908B4229DB049A4D1B82
:108D10000023D25E00217E5E0992089A0599002008
:108D2000105E801B684300F0D7FB079B361809993B
:108D30000020185EB6B2401A6843059900F0CCFBDB
:108D4000099D63002818302180B2C9186A46049D25
:108D5000885217AA9E52288001343E80002302E0E8
:108D6000019D013501951D1CACE7152C0BD1114C53
:108D7000029D13195B00EA5A5A21039C69440A8038
:108D8000E25A17AB5A850298694632312C220230DA
:108D900000F022FC039869462C225E31023000F07C
:108DA0001BFC03480B99FBF701FB23B0F0BDC04649
:108DB0003D8C0000FFFFFF7FF0B5244F8FB073465E
:108DC000051C7146381C0393FBF7D8FA2B7A06AAC8
:108DD00028686968FFF7D0FE1D4B021C1B68002441
:108DE000DC331B88984229DD2B7A28686968FFF7F5
:108DF00055FF2A68686806A9FFF770FD009006AB6A
:108E000005A829686A68FFF7C5FD06CD08A8FFF721
:108E100023FE104E6D463368EC74983313351B688F
:108E2000281C08A998472B78041C002B06D133680E
:108E300008A89C331B6805A99847041C381C039993
:108E4000FBF7B4FA201C0FB0F0BDC046598D0000EE
:108E5000000E00202403002070B5074C061C71464C
:108E6000201C7546FBF78AFA044B291C201C1E6047
:108E7000FBF79CFA70BDC046F98D0000040E00207F
:108E800070B5074C7146201C7646FBF777FA054B08
:108E9000201C1D68311CFBF789FA281C70BDC046D8
:108EA000218E0000040E0020F0B595B009931AAB96
:108EB0001B7875460C900691C54871461093119524
:108EC0000A92FBF75BFA069EC24C00237372F372A0
:108ED00020687F233372B3720379002B07D1BD4B17
:108EE0001B689A7B002A00D005E107921AE1032350
:108EF000C3562027FF1A0223C3567F00FF1A7F1094
:108F0000FFB20797099F7F6805970622815E0823B5
:108F1000C25E0A23C356C07A40B20090381CFDF7E7
:108F20000DF8AD4B80021D68296800F0D5FA246861
:108F30006A682378002B00D16EE01C9D911CEB88A1
:108F400049006B802B892E1C2B800B1FEB181D8872
:108F50007552991E0988D9806178002903D0079D30
:108F60006FB27F0039E0023B013A39D35E88DD8879
:108F7000032161567519079E4D431F8871B21E89E2
:108F8000BE194E430221AD1961569E88714369187E
:108F90008911414309141981E5E70325655759886B
:108FA000DE886D00AC460D1CB14200D2351CADB25E
:108FB00066466E431D89B4461E88311CAE4200D2FF
:108FC000291C0225655789B29E88794375436144FF
:108FD0004D19AD1145432D141D81023B013ADCD2E0
:108FE000099F0D207F68049720560622A15E082362
:108FF000E25E0C23E3560090381CFCF79FFF764B93
:1090000080021C68616800F067FA724B2268196878
:109010000B78002B0CD161E0531C1C9F5B00FB18EC
:10902000013ADDD31988023B41430914D980F7E79F
:109030001B9CE388251C63802389261C2380941CA9
:109040006400231FEB181D8835539C1E2488DC8088
:109050004C78002C03D0079C67B27F003AE0023BBB
:10906000013A00D23BE75E88DD8803240C5775196E
:10907000079E65431F8874B21E89BE196643022489
:10908000AD190C579E8874432C19A4114443241421
:109090001C81E4E703254D575C88DE886D00AC46F3
:1090A000251CB44200D2351CADB264466C431E8808
:1090B0001D89A446341CAE4200D22C1C02254D57FB
:1090C000A4B29E887C43754364446519AD11454341
:1090D0002D141D81023B013ADCD200E7531C1B9D7D
:1090E0005B00EB18013A00D2F9E61988023B4143D4
:1090F0000914D980F6E7099E1027D95F706800240B
:10910000079488420EDD12255A5F1B7D01265BB253
:109110000093231CFCF712FF10231B1A9B000B90DB
:109120000D9307962C4B002118682A4B07681B6883
:10913000BC460E93099167464368791E00D28FE0C2
:109140001B9C4A00A2180F92013B00D286E0079DAB
:109150008468002D42D0664666430896F6180A9F3A
:1091600001367600BD5B5F1C2AB2D243D2172A407B
:109170008D1C654302967D190A9E6D00AE5F12B28A
:109180000396964200DA0392089E341B3C190A9F0C
:109190006400E45F944200DA141C039E0A9F3519B0
:1091A000029C3E190224375F141EBC4200DA3C1CAC
:1091B000023E2D190027F45F161EA64200DA261C77
:1091C000AD190B9C0D9E65437243AA1892110CE0D9
:1091D000498E0000040E00201C03002067467C43DB
:1091E0001C1901340A9D6400625F0E9E3479002CC4
:1091F00007D01C9F5C003C1924890F9D121B2C89F1
:10920000121B109EB24218DD069F0B243C579C4255
:1092100000DAFB72069D0A242C579C4200DDAB72DB
:10922000069E092434578C4200DA7172069F082486
:109230003C578C4203DD397201E0002A04DD099CB1
:10924000944202DA099200E00022846865466C4389
:109250001C1901340C9EA400A25175E78C466AE7E4
:109260000999069C0022216012A98A8082680568FB
:109270000C9E4B708A707C2301325B429200CB7053
:10928000B218832305200B710D70FCF7C7FD03484E
:109290001199FBF78BF815B0F0BDC046498E000060
:1092A000014B18687047C04628030020C920C00041
:1092B0007047014B1868704728030020024B18685C
:1092C000F130FF307047C046280300209A235B002E
:1092D0005843034B1B681818AB239B00C0187047FA
:1092E000280300200A235843034B1B681818A323A4
:1092F0009B00C0187047C04628030020014B18602F
:109300007047C046080E0020014B18687047C046E1
:10931000080E00200048704758BA000008B5F9F759
:109320006FFF0E4B41791B685960427902329A6097
:1093300082791A604A43DA60427902219A615200C6
:10934000DA61026859611A62C2791A6101795A1D9B
:10935000D17702790633DA7708BDC0461C030020B6
:1093600010B5134CC9221349D200206800F034F91B
:109370002068F9F73FFF20687C30F7F73DFD206853
:10938000B430FCF70FFE2068BC30FDF7BFFB20684F
:10939000ED30FF30FCF7CEF9FFF7C0FF064C201C84
:1093A000F9F740FFDF235B00E018FCF713FE10BD68
:1093B0002803002010B4000058BA000038B5164B3E
:1093C0009A24596864000A781B685443AA229200C0
:1093D000A4181C19114B201D1860F9F717FF9023D2
:1093E0005B00E518281CFFF737FD201CA030F7F7BD
:1093F0000FFD201CB430FCF7E1FD201CC830FDF748
:1094000091FB281CFCF7A2F9054B5E341B682278FF
:109410000733DA7738BDC04628030020080E002045
:109420001C030020014B5B68187070472803002064
:10943000014B5B681878704728030020002934D05E
:109440000123002210B488422CD301242407A14216
:1094500004D2814202D209011B01F8E7E400A142D3
:1094600004D2814202D249005B00F8E7884201D36E
:10947000401A1A434C08A04202D3001B5C08224346
:109480008C08A04202D3001B9C082243CC08A042B7
:1094900002D3001BDC082243002803D01B0901D0A3
:1094A0000909E3E7101C10BC7047002801D0002018
:1094B000C04307B4024802A14018029003BDC04651
:1094C000D90000000029F0D003B5FFF7B9FF0EBCAA
:1094D0004243891A1847C046002941D010B4041CE1
:1094E0004C40A44601230022002900D5494200280F
:1094F00000D5404288422CD301242407A14204D243
:10950000814202D209011B01F8E7E400A14204D222
:10951000814202D249005B00F8E7884201D3401A39
:109520001A434C08A04202D3001B5C0822438C085B
:10953000A04202D3001B9C082243CC08A04202D3C5
:10954000001BDC082243002803D01B0901D00909B5
:10955000E3E7101C6446002C00D5404210BC704765
:10956000002806D003DB0020C043400801E0802033
:10957000000607B4024802A14018029003BDC0468D
:10958000190000000029EBD003B5FFF7A7FF0EBCC0
:109590004243891A1847C0467047C046F8B50D1CAB
:1095A000041C081C111C161CFFF796FF311C071C1D
:1095B000281CFFF7E7FF002D05DB002908DB2760EB
:1095C000201C6160F8BD0029F9DD013F8919F6E72B
:1095D0000137891BF3E7C046F0B50F2A35D9031CC4
:1095E0000B439C0735D1161C103E36093501451931
:1095F00010350C1C031C27681F6067685F60A76834
:109600009F60E7681034DF601033AB42F3D1731C06
:109610001B01C518C9180F231340032B1BD91C1F8E
:10962000A4080134A4000023CE58EE500433A34212
:10963000FAD1ED18C91803231A4005D00023CC5CD9
:10964000EC5401339342FAD1F0BD051C002AF5D148
:10965000FAE7051CF2E71A1CF8E7C046F0B58307E5
:1096600046D0541E002A42D0CEB2031C032503E08C
:10967000621E002C3BD0141C01335A1E16702B4264
:10968000F6D1032C2BD9FF250D402A0215432A04BD
:1096900015430F2C15D9271C103F3F091E1C3A01FA
:1096A0001036B6181A1C156055609560D5601032DA
:1096B000B242F8D101373F010F22DB191440032CCD
:1096C0000DD9271FBF08BA001E1DB6181A1C20C2CC
:1096D000B242FCD10137BF000322DB191440002C39
:1096E00005D01C19C9B219700133A342FBD1F0BDDA
:1096F000141C031CC5E7C046AE0174033B050207FA
:10970000CD08940A590C1F0E05000000000010003F
:109710002000400080005E005000460042004000F3
:109720005D0053004A00450043005C0050004600C5
:10973000420040005C005000460042004000000033
:1097400005000000000010002000400080005A00CA
:1097500050004600420040005A00500046004200BF
:10976000400056004E0046004200400056004E00A9
:109770004600420040000000060000000800000013
:10978000FF000001FF01FF0100FF0100FFFF0101D9
:1097900000010203040405060708090A0B0B0C0D5F
:1097A0000E0F101111121314151516171818191A77
:1097B0001B1B1C1D1D1E1F1F2021212223232424AF
:1097C0002525262727282829292A2A2B2B2C2C2D0A
:1097D0002D0000007804EF08660DDB115016C21A48
:1097E000331FA1230C28742CD93039359639EE3D1E
:1097F00042429046D94A1B4F58538E57BE5BE65F94
:1098000007641F68306C397038742F781C7CFF7FB8
:10981000D983A8876D8B278FD5927996109A9B9DB7
:109820001BA18DA4F3A74BAB97AED4B104B526B85A
:1098300039BB3EBE34C11BC4F2C6BAC973CC1BCF00
:10984000B3D13BD4B2D619D96EDBB3DDE6DF08E283
:1098500018E416E603E8DDE9A5EB5BEDFEEE8FF01C
:109860000DF277F3CFF414F646F764F86FF967FA60
:109870004BFB1BFCD8FC81FD17FE98FE06FF5FFF2B
:10988000A5FFD7FFF5FFFFFFB50239017E000000FD
:10989000480000203003002000000000FF0000000E
:1098A00000000000000000000000000000000000B8
:1098B00000000000000000000000000000000000A8
:1098C0000000000000000000000000000000000098
:1098D0000000000000000000000000000000000088
:1098E0000000000000000000000000000000000078
:1098F0000000000000000000000000000000000068
:109900000000000000000000000000000000000057
:109910000000000002000000000000000000000045
:109920000000000000000000000000000000000037
:109930000000000000000000000000000000000027
:109940000000000000000000000000000000000017
:109950000000000000000000000000000000000007
:1099600000000000000000000300000000000000F4
:1099700000000000000000000000000000000000E7
:1099800000000000000000000000000000000000D7
:10999000740300207403002064030020740300207B
:1099A0000C0400203D040020350400202D0400207C
:1099B0000000000010030020000000000E03002043
:1099C00000030020F2020020F1020020000000004D
:1099D0000C040020140200201C04002002000000DF
:1099E00000000000C8020020B402002000000000B7
:1099F0000000000000000000A002002000000000A5
:109A00008C02002000000000740200200000000012
:109A100058020020000000000000000000000000CC
:109A2000400200202C02002018020020E00D00203F
:109A30000000000000000000070000002B040020D0
:109A4000ED0200202C0400200000000000000000B7
:109A500000000000E9020020E402002000000000F5
:109A600027040020002000601002002024040020B1
:109A7000280200200100000004000000EC0100208A
:109A8000250400203C02002001000000010000002D
:109A900004020020530200205002002003000000B6
:109AA0000405060010200000F00100206D020020D7
:109AB00068020020050000000401060104001020D7
:109AC0003031000074010020870200208402002051
:109AD000030000000401060010200000F80200202E
:109AE000260400209C020020010000000400000069
:109AF0006C010020B2020020B00200200200000031
:109B0000020E0010DC010020C4020020E801002049
:109B1000030000000010110054010020DE020020AC
:109B2000D8020020060000001708080C0A0A0020CE
:109B300030405070010000000000200501002001AD
:109B400000FF002001000000FC020020006008016E
:109B500000010000000000000000000000000500FF
:109B60004D49500000000000000400005C0400208B
:109B700084040020940400204405002040050020B7
:109B8000FFFFFFFFFFFFFFFFFFFFFFFFFFFFFFFFE5
:109B9000FFFFFFFFFFFFFFFFFFFFFFFFFFFFFFFFD5
:109BA000FFFFFFFFFFFFFFFFFFFFFFFFFFFFFFFFC5
:109BB000FFFFFFFFFFFFFFFFFFFFFFFFFFFFFFFFB5
:109BC000FFFFFFFFFFFFFFFFFFFFFFFFFFFFFFFFA5
:109BD000FFFFFFFFFFFFFFFFFFFFFFFFFFFFFFFF95
:109BE000FFFFFFFFFFFFFFFFFFFFFFFFFFFFFFFF85
:109BF000FFFFFFFFFFFFFFFFFFFFFFFFFFFFFFFF75
:109C0000FFFFFFFFFFFFFFFFFFFFFFFFFFFFFFFF64
:109C1000FFFFFFFFFFFFFFFFFFFFFFFFFFFFFFFF54
:109C2000FFFFFFFFFFFFFFFFFFFFFFFFFFFFFFFF44
:109C3000FFFFFFFFFFFFFFFFFFFFFFFFFFFFFFFF34
:109C4000FFFFFFFFFFFFFFFFFFFFFFFFFFFFFFFF24
:109C5000FFFFFFFFFFFFFFFFFFFFFFFF390159017C
:109C60004D344830435554320000000000001001CC
:109C700038B50420FCF773F900F010FBFBF784FF04
:109C8000FCF760FF424C434B434DA03003602A6811
:109C9000236842485A60424900F0E8FA2368414884
:109CA0001A68414901321A6000F0E0FA23683F481F
:109CB0001A683F4901321A6000F0D8FA23683D481B
:109CC0001A683D4901321A6000F0D0FA23682D6805
:109CD0001A68DD6001321A603848394900F0C6FA66
:109CE000236838489A68384901329A6000F0BEFA11
:109CF000236836489A68364901329A6000F0B6FA0D
:109D0000236834489A68344901329A6000F0AEFA08
:109D1000236832489A68324901329A6000F0A6FA04
:109D2000236830489A68304901329A6000F09EFA00
:109D300023682E489A682E4901329A6000F096FAFC
:109D400023682C489A682C4901329A6000F08EFAF8
:109D500023682A489A682A4901329A6000F086FAF4
:109D6000236828489A68284901329A6000F07EFAF0
:109D7000236826499A68264801329A6000F076FAEC
:109D800023689A6801329A60FCF7DCFE38BDC04651
:109D90004801002099A10000E80D0020BD700000DE
:109DA000E59F00001D6F0000559E0000096E000039
:109DB00041A000003D72000061A0000029110000D8
:109DC000BF9D000009100000CF9D0000498E0000DB
:109DD000B59D00005D6C00007DA10000991D000094
:109DE000919E0000C9170000B79D0000E529000002
:109DF000B99D0000B91E0000BB9D00003963000042
:109E0000BD9D0000392C0000C99E00007D9F000010
:109E1000CD8200007047704770477047704707B5A4
:109E2000002201AB1A800198FAF72CFA07BD70B531
:109E3000FCF772FE1D4B00211B681C1CDA6A74348F
:109E400025788A4204D15E6B0121283600DB111C83
:109E5000174E2943CDB20021B24205DD1E6CBD2E46
:109E600002DD5E6BF143C90F29432170191CF031EB
:109E7000002A12DD051CFE352D88AA420DDA642564
:109E8000FC306A4300885D6B6843C24207D5E63305
:109E90001B78002B01D1012300E000230B700B780D
:109EA000002B01D00023237070BDC046400000206D
:109EB0009F0F000008B5FCF72FFE031CE6331B784C
:109EC000012B12D1031CC8225200E8331A80EA3059
:109ED0003C220270054A1268E6321278002A04D049
:109EE000962252001A803223037008BD40000020E1
:109EF00038B5F6F79FFF041CFCF724FE6269051CC9
:109F000013787E35002B04D02B78002B01D1FCF781
:109F100051FF2B78002B06D061690B78002B02D102
:109F20002069FCF715FF38BDF0B589B0F9F768F97D
:109F30002649102204A8FFF74FFBFAF719FA244B21
:109F400024491A68244C13680E682768013B22D301
:109F500051680D1C5D436C186D0064008900039509
:109F6000039D0439AC42F1D0F569023C02942C19EE
:109F70000194BD69440000946C58009DA4461035BE
:109F80006C462D5B64462C1BA446019C25886544C9
:109F90002580029CE4E70F4F0F4B12693D681E6855
:109FA00053009200023B043A991C0DD02C6A376A88
:109FB000E118BC580F883F1B4400BC4610346F4664
:109FC000E45B64440C80EDE709B0F0BD98960000B6
:109FD0001C030020440000204000002038B5F6F7A4
:109FE00023FF041CFCF798FD201CF0300378002BA5
:109FF00023D0124B00221C681E23216BC968C95E46
:10A00000002900D10122023B991CF6D10C4B1B68A0
:10A01000DD6A002D11D1596B00290ED1F433002ACD
:10A020000AD01A68FE2A01DC01321A601B68052B6F
:10A0300003DD0023037000E01A6038BD44000020F7
:10A0400040000020F0B59DB0FCF77CFD041CFCF73F
:10A0500063FD2679051C022E1CD00F4F3824391CB5
:10A060001031221C6846FFF7B7FA391C48310EA898
:10A07000221CFFF7B1FA094B66431B68AE19B033D7
:10A080001B78301C2C300EA9002B00D16946221CF5
:10A09000FFF7A2FA1DB0F0BD989600000C0E00204C
:10A0A00010B5FCF739FD041CFBF72AFE221CD43244
:10A0B000D5340823002800D001231370237010BD6D
:10A0C000F0B585B0FCF738FD3F4B01901A683F4D65
:10A0D00017693F4E3A78012A68D128884621FFF750
:10A0E000F1F988B27968C0000023CB5E3350BB68B9
:10A0F000301800229B5E4360FCF7B6FE2B88462199
:10A10000452B00D8191C01339BB22B800393314B94
:10A110000022C9B2161C1D1C0139C9B2FF2915D075
:10A120002B4CCF003859A4460297854200DD051C10
:10A13000864200DA061C0298071C6744786883424E
:10A1400000DD031C8242E7DA021CE5E7039945299A
:10A1500038D921490968B0310978002902D1042190
:10A16000032001E00A21081C751BEC172D1965401E
:10A17000019C5534854223DCD31ADE179B197340AA
:10A18000834201DC21701DE0032D19DC0E4F3A687B
:10A19000136952695B6852680020115E00269A5F5D
:10A1A0008A18D10F8A1852101A8009E08C22301CAC
:10A1B00000219200FFF752FA019C00232B805534B6
:10A1C0000123237005B0F0BD44000020900B002057
:10A1D000980B0020FFFF00000C0E002008B5FBF7D5
:10A1E0002DFD012805D0034B1B681869596900F043
:10A1F00065F808BD4400002038B5041C0D1CFBF7B1
:10A20000AFFD002802D001280CD02BE0164B6D00CA
:10A210001B681B691B69EA5AFF23FE2A00D8D3B2C8
:10A2200063711FE0104B69001B681A691269895A33
:10A23000FF22FE2900D8CAB262711B69AD005969BC
:10A240000322491902238A56CB560120D31A002231
:10A2500008568A56821A934202DDA371E27101E028
:10A26000A271E37138BDC0464400002038B5051C1A
:10A2700008200C1CFBF773FE0560446038BDC04627
:10A2800038B5041C081C002A07D0D1185843624373
:10A290004D1010184019FFF71FF938BD08B5FCF72D
:10A2A0004BFCB420FBF75BFE034B00211860B4228B
:10A2B000FFF7D4F908BDC0460C0E0020F0B59BB0E6
:10A2C0000F1C041CFCF738FC0B90FCF725FC1090CD
:10A2D000FBF78CFE109BF1331B781393109BF2332A
:10A2E0001B781493109BF4331B881593109BF63343
:10A2F0001B881693D04B1B68E5331B78002B0FD0BF
:10A30000CE4B1B68B0331B78002B09D0A0239B00D9
:10A310001693A023DB0001250226159314951396AE
:10A32000109B139DF0331B7801229A40149E531BFF
:10A330009B1BDBB21793FCF705FCC04B00251B6889
:10A340000E901193BE4B0F951B680C951B6A0893DA
:10A350005B00023B9E1C0CD026690F9DF25A954271
:10A3600000DA0F92E6680C9DF25E9542F1DA0C92EB
:10A37000EFE7089B0E9D0F339B00EB180793089D9A
:10A38000013D089500D2D8E0089DE0686E00835F2B
:10A39000002B00D1CDE00B9A0B9B1269216956333B
:10A3A0001D78885B0692111C0B9B0B9A2833143284
:10A3B000FBF7E0FD0990F6F737FDF0300378002B4E
:10A3C00006D00B9B099844331B78984200DA099316
:10A3D0000B9B9A4A57331B78002B5BD01368AC4613
:10A3E000191CB0310D910A781892002A1ED1E0682C
:10A3F0006422855F09986A4361464143129212982C
:10A400001A1CAC3288420FDD09998D420CDC1568AC
:10A41000109801351560DA300078854206D10D9824
:10A4200001250570189900E000211160191CB03158
:10A430000A78002A27D0E568AA5F099DAA4212DDA2
:10A440007D4A1268926E282A0DDD1A1CAC32106803
:10A450000B9D0130106047352D78A84207D10020B0
:10A460000870106003E01A1C0021AC321160724ABF
:10A470001268F0321278002A05D0191C0022B0317F
:10A480000A7004390A60B0331B78002B0AD16420AB
:10A49000844607E01268111CB0310B70AC326421A5
:10A4A00013608C460E9D0898E2682B182C331B789D
:10A4B0009219002B05D00B995BB2473109788B427A
:10A4C00021DC0021535E0999642065464D435843C1
:10A4D0002169A84211DB0B988D5B4E30AC460078A9
:10A4E0000F9D68438011844507DB0B980C9D006D20
:10A4F00005906843801183421BDA00238B53079E2B
:10A500001380336012E00020135E4E4960464B43D7
:10A510000B993C310D7809994D434543AB4208DA1C
:10A520002169079D00238B5313802B602378013B07
:10A530002370079E043E079621E700232370404BBB
:10A540000E9E1B681A6A531EB2182B3209920C22F7
:10A550005D0053430895119E0E9DF3182B350F9304
:10A560001995099D0E9819992E1A2C3E8D4200D1ED
:10A5700030E2089DE068435F099D002B00D1EAE1CD
:10A580002A780B9B0132D2B22A7047331B7852B221
:10A59000991D8A4201DD04332B7009980025455727
:10A5A000012D00DCC2E1A81C0321FEF7EBFF7B6854
:10A5B0000A91BA68022D47D1089D0E98595F089DEF
:10A5C0000069535F0E9D04906A6940100D1A94460D
:10A5D000EA17AD185540401B7F2808DD65466A1014
:10A5E000981AC51740196840121A7F2A13DC62684E
:10A5F000089D505FA268401A515FC91AFDF71CFC04
:10A600000B2808D978686168435B089DB8684B538C
:10A61000435BA1684B530323013B1FD36068089D34
:10A620005A00415B0F9DA068A952089D415B0F9D98
:10A63000AA18D180F0E7C046400000200C0E002090
:10A640001C03002010270000089D595B0A9D6B0029
:10A650000F9DEB18089D1980525BDA800998002540
:10A660004557032D00DC4EE10A990F9A4B00D31891
:10A670000793081C1B88043003210C93FEF782FF0C
:10A680000F984900079B41180A88DB88C9889446BF
:10A69000119312916268042D12D1089D7968505F60
:10A6A000089D4B5FA168C31ADA17485FB9689B1809
:10A6B00053404A5F801AC21780185040181818E09B
:10A6C000D349089D09687300CB18505F1A1C823269
:10A6D0000021525E9633821AD51752196A40A0683B
:10A6E000089D415F0025585F081AC117401848406F
:10A6F0001018C74B626808991B68555A72009A185F
:10A70000111C82310D80A568089996326D5A9E19E8
:10A710001580321C783213780D95002B06D0109BD3
:10A72000F8331B88984208DC002305E0109BFA33BD
:10A730001B88984201DB0123137078363378002B95
:10A7400032D1169D802100954A00159BFBF7F6FB40
:10A750006668089D0C907619079D0A960020285E71
:10A760000021715E089AA6680B1AB518DA179E18B0
:10A770005640B4460023EE5E079B06229A5EB61A48
:10A78000F217B618564066440C9A331CFFF778FD52
:10A790000A9B079918800620085E331C0022A95ED8
:10A7A0000C9AFFF76DFD89E00C9D61462BB20AB251
:10A7B0009A1AD10F8A185210119E0D92129A30B225
:10A7C00016B2861BF20F9619761003966568089EDE
:10A7D000AD1918950026AD5F089E1195A568AD19B5
:10A7E0000D9E1295F318119E00216D5EF31A039EC3
:10A7F000D9173218AA1AD0175B1812184B404240CA
:10A8000000269B180C96802B01DD803B0C930A9848
:10A8100003210530FEF7B6FE0F9E49007118079E12
:10A82000109A0620365E1798F3327043844606204D
:10A830000E5E139812787043149E109B7543039E0E
:10A84000F03356431B78844465441D411E41AE19C4
:10A850000A9680200C9EC00035186E100396079E45
:10A860000020365E179870430026895F139E844649
:10A870007143119E8C4414997143664670180D9E65
:10A880000C997243119E1A41714318418018039E1E
:10A89000800240188019291CFEF71EFE189E291CF4
:10A8A00030800A9EB002129E0023F35E0C9E73431A
:10A8B000039EC0188019FEF70FFE129D2880FE68C7
:10A8C000089DE168705F0B9E4D190022A95E4C3611
:10A8D00007960023F25E431ADE179B197340FFF7B9
:10A8E000CFFC396928802669089D485B751929883D
:10A8F000079E431A0022B25EDE179B197340FFF7D2
:10A90000BFFC288012E06068089D43197868002623
:10A91000995F425FBE688A18A16852101A804B196D
:10A920000022995E725F8A1852101A800B9B099D53
:10A9300000224733AA561B789A4205DC0123E668B9
:10A94000089D5B42735302E0237801332370099E14
:10A950000023B37234E00B9A002147326956127813
:10A96000914226DDFE68089D725F002A28D0099D6D
:10A970000B99AA7A48310132D2B2AA72097852B23E
:10A980008A4201DD2B701BE0089D7E68A068735B26
:10A9900066687353BE68735BFE684353735BE0681D
:10A9A0003E694353735B206943532378013323701B
:10A9B00006E0174A099D12682B7096197836337095
:10A9C000099E089D013E09960F9E023D0C3E08958A
:10A9D0000F96C6E5031C723300221A700D4B1B68DC
:10A9E0001D69441937356D0045198930893404359E
:10A9F0000790079EB44260D02B88002B13D00C2602
:10AA0000AA5F1BB2002A07DC0B9A453206E0C0465B
:10AA10000C0E00201C0300200B9A46321278934241
:10AA200001DA00232B802988002927D023787F2B67
:10AA300001D0013323700026A657022E0DDD0B9B9B
:10AA40000C27E85F09B24C330027DA5F431ADF179F
:10AA5000DB197B40FFF714FC28800B9B49331B78E4
:10AA60009E4203DC01235B422B8004E00E9B723389
:10AA70001A7801321A70002363711BE00B9B0022CD
:10AA80004933A2561B789A4213DDAB89002B11D0B3
:10AA900062790B980132D2B262714A30007852B2B8
:10AAA000824206DC2B800E9B72331A7801321A70B8
:10AAB00000E02170013C023D9BE71BB0F0BDC046A9
:10AAC000FFFFFFFFFFFFFFFFFFFFFFFFFFFFFFFF96
:10AAD000FFFFFFFFFFFFFFFFFFFFFFFFFFFFFFFF86
:10AAE000FFFFFFFFFFFFFFFFFFFFFFFFFFFFFFFF76
:10AAF000FFFFFFFFFFFFFFFFFFFFFFFFFFFFFFFF66
:10B45000FFFFFFFFFFFFFFFFFFFFFFFF590110018D
:10B460004D344830504154320000000000001001BB
:10B470000A000000000B12000100000E0F10111254
:10B48000131415161718000000000000000000003B
:10B490000000000B1A0A1B091C081D071E061F05C9
:10B4A0002004210322000000000000000000000032
:10B4B00000000000003F1D06BF00F000000000007B
:10B4C000000000000000000000000000000000007C
:10B4D0000000000F000000000000000083000000DA
:10B4E0000001E1A10800000903030000585F436F59
:10B4F0007665723300000000000000000A3232005E
:10B500000100FFFFFFFFFFFFFFFFFFFF0A05FA003B
:10B5100008024600640032000005641E1E14030584
:10B52000100F3C000A0A3C0000800000E00100000F
:10B5300020030000C800000020030000C800000035
:10B54000E8030000640000000100000001000000AA
:10B550006400000080000000020000000000FF0006
:10B56000000000000000400040000000000000005B
:10B5700040004000000000000000400040000000CB
:10B58000000000004000400000000000000000003B
:10B5900000000000000000000000000000000000AB
:10B5A000000000000000000000000000000000009B
:10B5B000000000000000000000000000000000008B
:10B5C0000000000000000000020000000000FF007A
:10B5D0000000000000006E00640000000000000099
:10B5E0006E006400000000000000710064000000B4
:10B5F0000000000071006400000000000000000076
:10B6000008085102D9033200C8001E00B0045E01D0
:10B61000F4010100F40164001900FA000613133D5F
:10B62000A000400020006000FA002C010000000093
:10B630000700000000001900320064009B00C300F6
:10B64000FA0000000000000037002400160012007D
:10B650000E000C000B0000000000000001000000C4
:10B66000B200F00000000000000000000000000038
:10B6700000000000000000000000000F00000000BB
:10B68000000000009E00F00000000000000000002C
:10B690000000000000000000000000000000000F9B
:10B6A00000000000000000006000000040033318AC
:10B6B000D10000710A48F61C000000320F05320F5D
:10B6C00000320F0500000000000000000000000034
:10B6D000000000000000000000000000000000006A
:10B6E000000805040303020101010000000000003E
:10B6F0000000000000000000000000000000FFFF4C
:10B700000A14380703000000FFFF0A14380703007B
:10B710000000FFFF0A14380703000000B200F00029
:10B720000000000000000000000000000000000019
:10B73000000000000000000F0000000000000000FA
:10B740009E00F0000000000000000000000000006B
:10B7500000000000000000000000000F00000000DA
:10B76000000000006000000040033318D1000071A9
:10B770000A48F61C000000320F05320F00320F0598
:10B7800000000000000000000000000000000000B9
:10B790000000000000000000000000000008050498
:10B7A000030302010101000000000000000000008E
:10B7B00000000000000000005A1E64001E0000008F
:10B7C00007000000FF7F0080FF7F00800103000072
:10B7D00000005A030A00008008070F080CF8400018
:10B7E000B003520326025E01300000006400000036
:10B7F0000500000000000A000E001B001E000000F3
:10B80000000000000000000050005A008200E60026
:10B81000E600000000000000000000004B000000F7
:10B8200090010000C80000020100000000000F00AD
:10B830000F0000000101140001000A0D01001E00AC
:10B840003C000F280F2800002C01E8031000000026
:10B85000B200F00000000000000000000000000046
:10B8600000000000000000000000000F00000000C9
:10B87000000000009E00F00000000000000000003A
:10B880000000000000000000000000000000000FA9
:10B8900000000000000000006000000040033318BA
:10B8A000D10000710A48F61C0000003F1D063F1D34
:10B8B000003F1D0600000000000000000000000026
:10B8C0000000000000000000000000000000000078
:10B8D000000705040303020101010000000000004D
:10B8E000000000000000000000000000641E640072
:10B8F0001E00000007000000FF7F0080FF7F008027
:10B900000103000000005A030A00008008070F0826
:10B910000CF8400026025E015E01FA0030000000D3
:10B920006400000005000000000011001A002A0059
:10B930002D00000000000000000000005A005A0026
:10B940006400A000A0000000000000000000000053
:10B950004B0000005E010000C80000020100000072
:10B9600000000F000F0000000101140001000A0D8B
:10B9700001001E003C00192D192D00002C01E803C8
:10B9800010000000B200F000000000000000000005
:10B990000000000000000000000000000000000F98
:10B9A00000000000000000009E00F0000000000009
:10B9B0000000000000000000000000000000000087
:10B9C0000000000F00000000000000006000000008
:10B9D00040033318D10000710A48F61C0000003FF4
:10B9E0001D063F1D003F1D06000000000000000076
:10B9F0000000000000000000000000000000000047
:10BA0000000000000007050403030201010100001B
:10BA10000000000000000000000000000000000026
:10BA2000641E64001E00000007000000FF7F00800D
:10BA3000FF7F008001030000000064030500008018
:10BA400007070F080CFB400026025E015E01FA00AA
:10BA50003000000064000000060000000000070045
:10BA600014001E003C004600000000000000000022
:10BA70003C003C00B40004012C012C01000000003B
:10BA800000000000460000005E010000C800000247
:10BA90000100000014000F000F0000000101190157
:10BAA00001000A0D01001E003C00192D192D000097
:10BAB0002C01E8031000000006060606060606062E
:10BAC0000607060706060606060606060606060614
:10BAD00006060606060707070707070707070707FB
:10BAE00007070706060607070707070707070808E7
:10BAF00008080707070707070707070707070707D4
:10BB000007070708080808080808080808080808B8
:10BB100007070808080808080909090909090808A1
:10BB2000090808080808080808080809090909098F
:10BB3000090A0A0A09090909090909090909090972
:10BB4000090A090A0A0A0A0B0A0A0A0A0A0A0A0A56
:10BB50000A0A090A0A0A0A0A0A0A0B0B0B0B0B0B40
:10BB60000B0B0B0B0B0A0A0A0A0A0A0A0A0B0B0B2D
:10BB70000B0B0B0B0B0B0B0B0B0B0B0B0B0B00002B
:10BB800000000000000000000000000000000000B5
:10BB900000000000000000000000000000000000A5
:10BBA0000000000000000000000000000000000095
:10BBB0000000000000000000000000000000000085
:10BBC0000000000000000000000000000000000075
:10BBD0000000000000000000000000000000000065
:10BBE0000000000000000000000000000000000055
:10BBF0000000000000000000000000000000000045
:10BC00000000000000000000000000000000000034
:10BC10000000000000000000000000000000000024
:10BC20000000000000000000000000000000000014
:10BC30000000000000000000000000000000000004
:10BC400000000000000000000000000000000000F4
:10BC500000000000000000000000000000000000E4
:10BC600000000000000000000000000000000000D4
:10BC70000000000000003A3C3B3B3C3B3C3D3F4069
:10BC80003D3336363736373838393935323436364B
:10BC90003636373838383530323333333434353557
:10BCA0003532323536373636373838383531333441
:10BCB00034343435353636322C2E2F303030303166
:10BCC00031312F3031323332333334333330303259
:10BCD0003534343435353535322C2E302F2F303045
:10BCE0003030302D2D2F31313031313131312F2E57
:10BCF000303232323232333232302E30323332322C
:10BD000033343333312F3133333333343434343108
:10BD10002F323333333433343434323031333333FA
:10BD20003334353435322E313232323233333334E8
:10BD3000312C2C2D2C2C2D2D2D2D2D2C00000000E8
:10BD400000000000000000000000000000000000F3
:10BD500000000000000000000000000000000000E3
:10BD600000000000000000000000000000000000D3
:10BD700000000000000000000000000000000000C3
:10BD800000000000000000000000000000000000B3
:10BD900000000000000000000000000000000000A3
:10BDA0000000000000000000000000000000000093
:10BDB0000000000000000000000000000000000083
:10BDC0000000000000000000000000000000000073
:10BDD0000000000000000000000000000000000063
:10BDE0000000000000000000000000000000000053
:10BDF0000000000000000000000000000000000043
:10BE00000000000000000000000000000000000032
:10BE10000000000000000000000000000000000022
:10BE20000000000000000000000000000000000012
:10BE300000000000FFFFFFFFFFFFFFFFFFFFFFFF0E
:10BE4000FFFFFFFFFFFFFFFFFFFFFFFFFFFFFFFF02
:10BE5000FFFFFFFFFFFFFFFFFFFFFFFFFFFFFFFFF2
:10BE6000FFFFFFFFFFFFFFFFFFFFFFFFFFFFFFFFE2
:10BE7000FFFFFFFFFFFFFFFFFFFFFFFFFFFFFFFFD2
:10BE8000FFFFFFFFFFFFFFFFFFFFFFFFFFFFFFFFC2
:10BE9000FFFFFFFFFFFFFFFFFFFFFFFFFFFFFFFFB2
:10BEA000FFFFFFFFFFFFFFFFFFFFFFFFFFFFFFFFA2
:10BEB000FFFFFFFFFFFFFFFFFFFFFFFFFFFFFFFF92
:10BEC000FFFFFFFFFFFFFFFFFFFFFFFFFFFFFFFF82
:10BED000FFFFFFFFFFFFFFFFFFFFFFFFFFFFFFFF72
:10BEE000FFFFFFFFFFFFFFFFFFFFFFFFFFFFFFFF62
:10BEF000FFFFFFFFFFFFFFFFFFFFFFFFFFFFFFFF52
:10BF0000FFFFFFFFFFFFFFFFFFFFFFFFFFFFFFFF41
:10BF1000FFFFFFFFFFFFFFFFFFFFFFFFFFFFFFFF31
:10BF2000FFFFFFFFFFFFFFFFFFFFFFFFFFFFFFFF21
:10BF3000FFFFFFFFFFFFFFFFFFFFFFFFFFFFFFFF11
:10BF4000FFFFFFFFFFFFFFFFFFFFFFFFFFFFFFFF01
:10BF5000FFFFFFFFFFFFFFFFFFFFFFFFFFFFFFFFF1
:10BF6000FFFFFFFFFFFFFFFFFFFFFFFFFFFFFFFFE1
:10BF7000FFFFFFFFFFFFFFFFFFFFFFFFFFFFFFFFD1
:10BF8000FFFFFFFFFFFFFFFFFFFFFFFFFFFFFFFFC1
:10BF9000FFFFFFFFFFFFFFFFFFFFFFFFFFFFFFFFB1
:10BFA000FFFFFFFFFFFFFFFFFFFFFFFFFFFFFFFFA1
:10BFB000FFFFFFFFFFFFFFFFFFFFFFFFFFFFFFFF91
:10BFC000FFFFFFFFFFFFFFFFFFFFFFFFFFFFFFFF81
:10BFD000FFFFFFFFFFFFFFFFFFFFFFFFFFFFFFFF71
:10BFE000FFFFFFFFFFFFFFFFFFFFFFFFFFFFFFFF61
:10BFF000FFFFFFFFFFFFFFFFFFFFFFFFFFFFFFFF51
:10C00000FFFFFFFFFFFFFFFFFFFFFFFFFFFFFFFF40
:10C01000FFFFFFFFFFFFFFFFFFFFFFFFFFFFFFFF30
:10C02000FFFFFFFFFFFFFFFFFFFFFFFFFFFFFFFF20
:10C03000FFFFFFFFFFFFFFFFFFFFFFFFFFFFFFFF10
:10C04000FFFFFFFFFFFFFFFFFFFFFFFFFFFFFF22DD
:10C0500021081520728FD65539470000590110016B
:00000001FF
