:1000000078FFE4B8200118F6D8F99000007F007E50
:1000100007E4F0A3DFFCDEFA758120022F139002C3
:10002000FFE0FBA3E0FAA3E0F9229002F8E0FF046E
:10003000F08F82758300229002FE7401F022E92F76
:10004000F9E43AFA02251E00000000022B2075B2E6
:100050008E75B6F9E4F5B743B20143AA010235C67D
:100060000000000230F275F0021226AF75F07EE05B
:10007000FCA3E0FDEFA42444F582E5F03400F58311
:10008000229002FEE0FF75F002A424ACF582E5F0B8
:100090003401F583E0FCA3E0FDEF75F002A4242613
:1000A000F582E5F03400F58322F583E0F8A3E0F96A
:1000B000A3E0FAA3E0FB90025DE0FCA3E0FDA3E077
:1000C000FEA3E02275F002EE1226AFECF0A3EDF0F5
:1000D00090030BE0FF75F07EA42468F582E5F03410
:1000E00000F5832275F0021226AF75F07EE0FCA3C6
:1000F000E0FDEFA42456F582E5F03400F58322FDFF
:10010000EC541FF0EDA3F0EB75F002A42420F5826F
:10011000E5F03400F583229028B8C39BFBEE9AFAF1
:10012000ED99F9EC98F8E493FE740193FFE4FCFD7B
:10013000C302266175F07EEEA4249EF582E5F034BC
:1001400000F583E5822FF582E43583F583E4F075CD
:10015000F07EEEA424A7F582E5F03400F583E58275
:100160002FF582E43583F58322E0FEA3E0FF9003C0
:100170000BE0FD75F002A4247AF582E5F03400F579
:1001800083EE8FF012263575F002EDA4247AF58205
:10019000E5F03400F58322FBEAF0EBA3F0ED75F017
:1001A00002A4241AF582E5F03400F5832290030BB3
:1001B000E0FF75F07EA42432F582E5F03400F5838B
:1001C00022900312E0FD75F002A4248CF582E5F084
:1001D0003400F58322F583E493FC740193FD75F0FC
:1001E00002EFA422EE75F0020226AFE04401F0E433
:1001F000900013F090024D229002FEE0FF24BEF525
:1002000082E43401F58322F074C42EF582E43401D3
:10021000F58322E0FEA3E0FF75F002EBA42414F5C1
:1002200082E5F03400F5832224B2F582E5F0340152
:10023000F583ECF0A3EDF0EF25E0229002FDE0FF66
:1002400025E024FFF582E43402F58322F0A3F0A335
:10025000F0A3F0A3F0A32290030BE0FF24C1F582EA
:10026000E43401F58322EF75F0020226AFE0FEA32D
:10027000E0C39DFFEE9C22EF2434FFEE34FEFE7CB3
:10028000007D0A1225987D321225AAEF24CCFFEEBC
:100290003401FE75F002EB22C39BFBEE9AFAED9956
:1002A000F9EC98F822E0FCA3E0FD75F0022290033F
:1002B0000CE0FF90030BE0FE75F07EA4249EF58217
:1002C000E5F0340022CBEFCBEBD3940322E0FEA386
:1002D000E0FFD3229002FEE0FF75F002A424B8F5FF
:1002E00082E5F0340122E04406F09000137401F03E
:1002F00022E0FDC3EF9D7480F86E9822900312E017
:10030000FF249EF582E43400F5832290030BE0FF86
:1003100075F07E22E4F0A3F075F07E22E0FCA3E00D
:10032000FD75F07E22900277E054F0F02274282BC5
:10033000F582E43402F5832274612BF582E4340201
:10034000F58322743E2BF582E43402F5832274D3C4
:100350002BF582E43401F5832274022BF582E43418
:1003600000F5832274ED2BF582E43401F5832274C9
:100370004E2BF582E43402F58322FFEB25E025E0E5
:1003800022EB25E024E8F582E43429F58322242CAD
:10039000F582E5F03400F583ECF0A3EDF00F22E4F4
:1003A000F0A3F075F00222E0FEA3E0C39DEE9C22D4
:1003B000F074A72FF582E43400F58322ECF0A3ED6E
:1003C000F090030CE004F022A3F0902EC37440F0F0
:1003D000A322E49001C8F0900238F022FE7C007D58
:1003E0000A1225987D1E1225AAEF2290030BE0FF2A
:1003F00075F0022290030EE0FEA3E0FF2290030BB3
:10040000E0FF75F07E22E0FEA3E02DFFEE3CFE90C3
:1004100002FDE0229002FEE09002FDF022F074C5A1
:100420002EF582E43401F583E4F022E0FEA3E0C37C
:10043000941EEE6480948022E0FCA3E0C3941EEC42
:100440006480948022E0FF9002FFE0FEEFC8EEC8D7
:100450000822E0FCA3E0C39403EC64809480229023
:100460000277E0440A22E0FAA3E0FBEA22902EC5DC
:10047000E4F0902ECDF0A3F022F582E43402F5836F
:10048000229002FEE0902EC822902EC6F0902EC53B
:100490007401F022F09001C7747EF0E4A3F022EE24
:1004A0008FF0022635C3EF94FEEE6480947F22E045
:1004B000FEA3E0FFC322F09001C9F0900239F022C0
:1004C0001226E7E49002FDF0900012E0FF9002FD9A
:1004D000E0C39F400302172012123EE4F0A3F0EFA6
:1004E00025E02405F582E43403F583E4F0A3F0EF7E
:1004F0007003021717121DA29002FDE0FF121726CB
:10050000E49002FEF09002FEE0FFC3940940030273
:1005100016C6EF60030215C39002FD1210D3C0830C
:10052000C0829002FEE0D082D0831211E5121452F4
:100530004074EFB4012A1210D5C083C0829002FE2D
:10054000E0D082D0831211E5C083C082E0FCA3E03A
:10055000FDCEECCE7802CEA2E713CE13D8F88038C9
:100560009002FDE0FF6402600302167275F07EEFF8
:100570001210D8C083C0829002FEE0D082D08312D5
:1005800011E5C083C082E0FCA3E0FDCEECCE780391
:10059000CEA2E713CE13D8F8FFC3ED9FFFEC9ED099
:1005A00082D08302166E9002FDE01210D5C083C087
:1005B000829002FEE0D082D0831211E5E4F0A3F035
:1005C0000216729001CFE0B401249002FD1210D304
:1005D00012131CEF1210D8C083C0829002FEE0D02C
:1005E00082D0831211E5ECF0A3EDF00216729002B6
:1005F000FD1210D3C083C0829002FEE0FED082D0F4
:10060000831211E5121452500E75F07EEF1210D8BD
:100610001211E4E4F0A3F09002FDE01210D5C083C3
:10062000C0829002FEE0D082D0831211E51214AF96
:100630009403EE648094804039EF9406EE648094D5
:1006400080502F9002FDE01210D5C083C08290022E
:10065000FEE0D082D0831211E5C083C082E0FEA309
:10066000E0FF7C007D021225FFD082D083EEF0A354
:10067000EFF0900318E09002FD60211210D3C083C8
:10068000C0829002FEE0FED082D0831210E41211EC
:10069000E4121406121240EE8FF0801E1210D3C026
:1006A00083C0829002FEE0D082D0831211E5E0FC8C
:1006B000A3E0FDEF121240EC8DF01226359002FE01
:1006C000E004F0021505900318E0601212123BE0FE
:1006D000FCA3E01211DD12121DECF0A3EDF090026C
:1006E000FDE0FF75F07EA42458F582E5F03400F5B6
:1006F00083E0FCA3E0FDEF12119EECF0A3EDF012FD
:10070000123B1212A5EF1211A112140675F002127B
:10071000121CEEF0A3EFF09002FDE004F00214C80A
:10072000E49001CAF02290030BEFF0E4900311F083
:1007300090030DF090030CF090030CE0FFC39409BC
:1007400040030218CAEF70089003107404F0802A66
:100750009003107408F09001CFE0B4011D90030BDA
:10076000E01210D5C083C08290030CE0D082D08309
:100770001211E5E4F0A3F00218C412130B1210F3E7
:10078000C083C08290030CE0FED082D0831210663A
:100790001211E412126D90030EF0A3EFF012125733
:1007A000E0602075F07EEF12118BC083C082900351
:1007B0000CE0D082D0831211E5E4F0A3F090030E98
:1007C000F0A3F01213F41236549003101212F140F9
:1007D0000302186A1213F490030BE0FD75F07E1209
:1007E000118BC083C08290030CE0FCD082D08312B6
:1007F00011E512149F75F07E12118AEC1211E512A8
:1008000012CD9414EE64809480402C90030BE0FD94
:1008100075F07E12118BC083C08290030CE0FCD077
:1008200082D0831211E5121314ED1210F3EC1212A0
:1008300067E475F001802EC3EF94ECEE6480947F42
:10084000504A12130B12118BC083C08290030CE02C
:10085000FED082D0831211E51213141210F212117D
:10086000E474FFF5F01226358022900311E004F0C5
:100870001213F4C3EE648094805011C3EF94FBEE26
:100880006480947F500690030DE004F012130B1265
:1008900010F3C083C08290030CE0FED082D083129C
:1008A00010661211E412126DFE90030BE01210D5C7
:1008B000C083C08290030CE0D082D0831211E5EE99
:1008C000F0A3EFF01213C102173890030DE0C394A8
:1008D00006403A90030BE0FF1234DA90030BE0FF7E
:1008E000123271EF602FE490030CF012130B121010
:1008F00075C083C08290030CE0FED082D0831210BA
:10090000E41211E41213BCE0B409E0800890030B78
:10091000E0FF1235EE900311E0C39406403A121244
:1009200057E070341234B690030BE0FF123393EFAC
:10093000602EE490030CF012130B121075C083C0EC
:100940008290030CE0FED082D0831210E41211E4F6
:100950001213BCE0B409E02290030BE0FF1235DF74
:10096000229001D0E0FE703B9001D2E06402705B07
:1009700090023A04F09001BFE0B401031212EA9031
:1009800001C0E0B4010690024D7401F090028AE0CB
:10099000B420089002707401F08005E4900270F0B9
:1009A0007F0222EEB401249001D2E0B4021D900235
:1009B0003A7401F090028AE0B42008900270740149
:1009C000F08005E4900270F07F0222E4FE900012B5
:1009D000E0FFEEC39F4003021B859001D0E0FC7056
:1009E0004A121208E06401704274BE2E1211FFE038
:1009F000FF7016121325EEB40104E04409F0EE6412
:100A000002702112145FF0801BEF64017016121344
:100A100025EEB40104E04401F0EEB4020790027741
:100A2000E04402F0121208E4F0C28AEC64016003B0
:100A3000021B81121208E064016003021B8174BE74
:100A40002E1211FFE0FC6003021AD6121325EE6489
:100A500001703A900239E0FD6401701B900238E0A9
:100A6000900277B40109E044091211EE04801512D6
:100A700011EB1214B68016ED900277B4020BE0442D
:100A8000051211EE12141D80041211EBF0EE640237
:100A90006003021B7A900239E0FF6401701C90022F
:100AA00038E0900277B401061212E6E48021E044B7
:100AB000041211EE1214B6021B7AEF900277B40200
:100AC00005E044058003E04404F0E4900013F09056
:100AD000024DF0021B7AEC64016003021B7A1213D0
:100AE00025EE64017049900238E0FFB40208121448
:100AF0005F1212E98013EF640170269001C9E09043
:100B00000277B4010C1212E6E490024D12141D801B
:100B10001EE044021212E9E490024DF01213D38059
:100B20000E900277E044021212E9E490024DF0EEDA
:100B300064027046900238E0B4021012145FF09024
:100B4000024D7401F0900013F0802F9001C8E06412
:100B500001701C900239E0900277B40105E044096D
:100B60008013E044081211EE04F01213D2800B90AF
:100B70000277E044081211EE04F0121208E4F0C209
:100B80008A0E0219CD7F04229002FD747EF090013E
:100B9000D0E06003021C9A9002FEF0900012E0FF89
:100BA0009002FEE0FEC39F4003021C7974BE2E1229
:100BB00011FFE06003021C5374C12E12125EE0FFAD
:100BC00070239002FEE075F002A424B2F582E5F0F5
:100BD0003401F5831212A5EE12109DE0FAA3E0C3D2
:100BE0009DEA9C500DEF640170591210811213A7F9
:100BF00040519002FEE0FF9002FDF012125C740181
:100C0000F074BE2F1211FF7401F09001C7E0FFB421
:100C10007E149002FEE0FE9001C7F0A37401121250
:100C2000077401F0800D9002FEE06F60069001C82D
:100C30007402F09002FEE0FF12360C9002FEE0FF1C
:100C400012356A121D9860289002FEE012125CE4D0
:100C5000F0801D1212D41210921213A7400C12141D
:100C60001412331FEF6009021D441211F81234618F
:100C70009002FEE004F0021B9B9001BFE0701BA3FA
:100C8000E070179001C8E0D39400400E9001C7E0D7
:100C900024C412120B74011214949001D0E0640168
:100CA0006003021D899002FEF0900012E0FE9002A7
:100CB000FEE0FFC39E4003021D891233CAEF6003AA
:100CC0001213D29002FEE01211FDE0706312108147
:100CD0001213A7403B1214141211FD7401F090017D
:100CE000C8E004F0900238F09002FEE0FF24C41245
:100CF000120B7401F012360C9002FEE0FF12361B4C
:100D00009002FEE0FF1235229002FEE0FF12356AEB
:100D1000121D9860099002FEE012125CE4F090024D
:100D2000FEE0FF1233FEEF6057E49001C9021D7B25
:100D30001212D41210921213A74019121414123363
:100D40001FEF603C9001D27402F09002FEE012119D
:100D5000FDE4F0221211F81234619002FEE0FF125D
:100D6000362A9002FEE0FF1235469002FEE024C4CF
:100D700012120B7401F09001C9E004F0900239F0F6
:100D80009002FEE004F0021CA99002FDE0FF900139
:100D9000CDE06F6002EFF0229002FEE0FF1232E53C
:100DA000EF2290030BEFF090030F7404F0E4900334
:100DB0000CF090030CE0FFC394094003021F99EF6D
:100DC000605D9001CFE0640170551211ADC083C029
:100DD0008290030CE0FED082D0831210661211E4E0
:100DE000ECF0A3EDF01213FD121075C083C08290D9
:100DF000030CE0FED082D0831210E41210C4C08332
:100E0000C08290030CE0FED082D0831211E5121351
:100E100014EF1211C91211E4E4F0A3F0021F9012B2
:100E200013FD121075C083C08290030CE0FED082C7
:100E3000D0831211E512131CEF1211B51211E41236
:100E4000126DFE90030DF0A3EFF012365490030FD5
:100E50001212F14003021F301212AE12115CE06454
:100E600001703075F07EEE1210D812126612142B3B
:100E70004003021F6D1211ADC083C08290030CE0CD
:100E8000FED082D0831210661211E4ECF0A3EDF0D4
:100E9000021F6D90030DE0FEA3E0FF90030BE0FD49
:100EA00075F07E1211C9C083C08290030CE0FCD0A3
:100EB00082D0831211E512149F75F07EED1211C9D4
:100EC00075F002EC1226AF1212CD9402EE648094FB
:100ED00080402F90030BE0FD75F07E1211C9C08396
:100EE000C08290030CE0FCD082D0831211E5121373
:100EF00014ED12107575F002EC1226AFE475F001D6
:100F000080281214A550661213FD1211C9C083C0A7
:100F10008290030CE0FED082D0831211E5121314EC
:100F20001210741211E474FFF5F0122635021F6DD1
:100F30001211ADC083C08290030CE0FED082D0833A
:100F40001210661210C4C083C08290030CE0FED061
:100F500082D0831211E5121438401275F07EEF1220
:100F600012BBF583E5822E1211617401F01212AEEC
:100F700012115CE06401701812114FE00412114E5E
:100F8000E0D39405400A90030CE0FF121134E4F022
:100F900090030CE004F0021DB222E49002FEF0E4A3
:100FA0009002FDF0900012E0FF9002FDE0FEC39F72
:100FB000400302216A743B2E121479E0FF9002FF75
:100FC000F0E4F5E2EFC3940850661214817014E067
:100FD000545FF0A3746AF0902EC3744AF0A37401B6
:100FE000F08012E044F0F0A3742AF0902EC37470E5
:100FF000F0A3740AF07415121489C083C08212140D
:10100000458002C333D8FCD082D083F0902ECD74BB
:1010100001F0C083C082E0FFC8EEC8088002C3337D
:10102000D8FCD082D083F0902EC074C1F00220F0A2
:101030009002FFE024F8F07416121489C083C08275
:101040001214458002C333D8FCD082D083F0902E96
:10105000CE7401F0C083C082E0FFC8EEC8088002F1
:10106000C333D8FCD082D083F0EE6405701B121419
:10107000817009E0545FF0A374718007E044F0F0E0
:10108000A374311213C9740CF0EE6406702C900234
:10109000FEE07011902EC8E0545FF074681213C81F
:1010A0007401F08015902E4E7482F0902EC8E044AA
:1010B000F0F0742D1213C87409F0EE6407702B124F
:1010C00014817014E0545FF0A37468F0902EC37420
:1010D000A8F0A37401F08012E044F0F0A37428F0AB
:1010E000902EC37460F0A3740BF0902EC074C2F005
:1010F000E4FF900000742EF0A3E4F09002FDE024E1
:101100003B121479E09002FFF0E5E220E2050FEFD8
:10111000B4C8DF53E2FB12146D9002FFE0FD75F0DE
:1011200002A4FFAEF0900001E02FF0900000E03E3E
:10113000F0ED9028D893FF900000E475F00212269D
:101140004B85F082F58312131CEF1211B5C083C0DA
:10115000829002FEE0D082D0831211E5ECF0A3ED84
:10116000F09002FDE004F0021FA49002FEE004F003
:10117000E064096003021F9F9001CA7401F022908D
:1011800001D2E024FE601E14700302224914700391
:1011900002230D240360030223509001D27402F055
:1011A000E4900237F09001D27403F090023AE064C8
:1011B000016003022246F09001D0E0FD7020C28A57
:1011C000121325900013E06009E4F0900277E044E8
:1011D00009F090024DE06006E4F012145FF0ED6457
:1011E000016003022350121325900013E0FF7009E1
:1011F00090024DE07003022350EF601290024DE028
:10120000600C1211EFF0900277E0440580349000FA
:1012100013E0601290024DE0700C1211F0F0900299
:1012200077E04401801C900013E06003022350909B
:10123000024DE070030223501211EFF0900277E0AC
:101240004404F0C28A22022DA5121F9A9001CAE01E
:1012500070030222EE900237E004F0E49002FCF00A
:10126000900012E0FF9002FCE0C39F40030222EED8
:10127000E4FF9002FCE0FE1211B212126612131C7F
:10128000EE1210F3121266ECF0A3EDF09002FCE007
:10129000FE1211B212126612131CEE121075121207
:1012A00066121398EFB409CA9002FCE0FF12109A7C
:1012B00012139FEF12110B7404F0A3E4F0EFB401CA
:1012C00010E4900281F0A3F09002857404F0E4A38E
:1012D000F0EFB40210E4900283F0A3F09002877460
:1012E00004F0E4A3F09002FCE004F002226090021B
:1012F00037E0C394034059900011747EF0E49001EC
:10130000CBF0900237F09001D27404F022121F9AB1
:101310009001CAE0603A1214C0E49002FCF0900020
:1013200012E0FE9002FCE0FFC39E501612303C1209
:1013300031499002FCE0FF1223519002FCE004F0DE
:1013400080DC123432121B881219619001D2EFF046
:1013500022CBEFCB75F002EB1211A1121213E0FCBD
:10136000A3E0FDC39FEC9E5003022413E42DFFEC89
:101370003404FE75F002EB1211A1E0FCA3E0FDC302
:10138000EF9DFFEE9CFE121107EEF0A3EFF075F05B
:1013900002EB1211A1121213E0FCA3E0C39FFFECB9
:1013A0009EFE75F002EB12109DEEF0A3EFF012130B
:1013B00081E493FE740193FF75F002EB12109DE03F
:1013C000FCA3E0FDD39FEC9E4024121381E493FE26
:1013D000740193FFC3ED9FFFEC9EC313FEEF13FF59
:1013E0001213817401932FFFE4933EFE801775F072
:1013F00002EB12109DE0FEA3E0FF7C007D6312254E
:10140000980D1225AA75F002EB12109DEEF0A3EFD5
:10141000F0803C121218E0FEA3E0FF75F002EB1220
:1014200011A1E0FCA3E0C39FEC9EC3940475F002FD
:10143000EB501012109DE4F01211057404F0A3E4B7
:10144000F0800C12109DE4F0121105E4F0A3F0EB13
:101450006401706275F002EB12109D1212CD94CCF3
:10146000EE9401400B12127712109DEEF0A3EFF0F4
:1014700075F002EB12109DE0FCA3E09002811210C7
:10148000FF1212CD940EEE94064019EF24F2FFEEF7
:1014900034F91213DC240EFFEE3406FE121107EEAF
:1014A000F0A3EFF0121107E0FCA3E0FDEC541F9055
:1014B0000285F0EDA3F0EB6402706275F002EB12AE
:1014C000109D1212CD94CCEE9401400B12127712A3
:1014D000109DEEF0A3EFF075F002EB12109DE0FC12
:1014E000A3E09002831210FF1212CD94FAEE94053D
:1014F0004019EF2406FFEE34FA1213DC24FAFFEE53
:101500003405FE121107EEF0A3EFF0121107E0FC14
:10151000A3E0FDEC541F900287F0EDA3F022BB0185
:101520000689828A83E0225002E722BBFE02E32280
:1015300089828A83E49322BB010CE58229F582E546
:10154000833AF583E0225006E92582F8E622BBFEC5
:1015500006E92582F8E222E58229F582E5833AF55B
:1015600083E49322BB010689828A83F0225002F72A
:1015700022BBFE01F322F8BB010DE58229F582E5CD
:10158000833AF583E8F0225006E92582C8F622BBAB
:10159000FE05E92582C8F222EF8DF0A4A8F0CF8CD9
:1015A000F0A428CE8DF0A42EFE22BC000BBE002994
:1015B000EF8DF084FFADF022E4CCF875F008EF2F4A
:1015C000FFEE33FEEC33FCEE9DEC984005FCEE9D07
:1015D000FE0FD5F0E9E4CEFD22EDF8F5F0EE842023
:1015E000D21CFEADF075F008EF2FFFED33FD400784
:1015F000985006D5F0F222C398FD0FD5F0EA22C22A
:10160000D5EC30E709B2D5E4C39DFDE49CFCEE3097
:10161000E715B2D5E4C39FFFE49EFE1225AAC3E4FA
:101620009DFDE49CFC80031225AA30D507C3E49FEE
:10163000FFE49EFE22C5F0F8A3E028F0C5F0F8E52F
:1016400082158270021583E038F022A3F8E0C5F01D
:1016500025F0F0E582158270021583E0C838F0E8C5
:1016600022EB9FF5F0EA9E42F0E99D42F0E89C45AE
:10167000F022ECF0A3EDF0A3EEF0A3EFF022A882AD
:101680008583F0D083D08212269512269512269556
:10169000122695E473E493A3C583C5F0C583C8C53A
:1016A00082C8F0A3C583C5F0C583C8C582C822A47B
:1016B0002582F582E5F03583F58322EF4E6012EF47
:1016C00060010EEDBB010B89828A83F0A3DFFCDE93
:1016D000FA2289F05007F709DFFCA9F022BBFEFCD3
:1016E000F309DFFCA9F022E490030CF0A3F0A3F0CF
:1016F0009003117402F0122A08E490030BF0900397
:101700000BE0FFC39409400302280075F002121099
:10171000F21212A512107412126DFE90030FF0A3B4
:10172000EFF01236549003111212F1502A90030E6A
:10173000E004F0A31211691212CD940AEE648094B1
:101740008040030227A2C3EF94F6EE6480947F40AA
:10175000030227D80227C590030F1214AF94FFEE9F
:101760006480947F400BD3EF940AEE6480948040B1
:101770000690030CE004F0D3EF9400EE64809480B4
:10178000400690030DE004F09001CFE06401704842
:1017900090030F1211691212CD9464EE648094804C
:1017A000401890030BE0FD75F00212118B12139F8D
:1017B000ED1210F3E475F001801BC3EF949CEE640E
:1017C00080947F50131213EB12118B12139F12107F
:1017D000F274FFF5F01226351213EB1210F3121209
:1017E000A512107412126DFE90030BE075F0021238
:1017F00010D8EEF0A3EFF090030BE004F00226FE09
:1018000090030DE0C3940640028031C39000E9E0EC
:1018100094049000E8E0648094804026900167E0A2
:101820009404900166E064809480401690006BE020
:10183000940290006AE06480948040069001CF7426
:1018400001F090030EE0C39406401A9001CFE060CF
:1018500014E4FF1234FEE4FF1232ABEF600CE490AC
:1018600001CFF08005E4FF1235FD90030CE0C39436
:1018700006402EE4FF1234DAE4FF123271EF6026E4
:10188000E490030BF01213EB12107575F0021210B6
:10189000EDECF0A3EDF090030BE004F0E0B409E50B
:1018A00022E4FF1235EE223F3F3F3F3F3F3F3F3FA5
:1018B0000032003203E802580004001E000A000A49
:1018C000000F0064000A000A000000000000000091
:1018D00000000000000101010D0E0F0304050607C2
:1018E00008090A0B0C0001020037003700370037E7
:1018F0000037003700370037003700370037003730
:1019000000370037003700370041004100410041F7
:1019100000410041004100410041004100410041BF
:101920000041004100410041002D002D002D002DFF
:10193000002D002D002D002D002D002D002D002D3F
:10194000002D002D002D002D002D002D002D002D2F
:10195000002D002D002D002D002D002D002D002D1F
:10196000002D002D002D002D005A005A005A005A5B
:10197000005A005A005A005A005A005A005A005A97
:10198000005A005A005A005A00640064006400645F
:101990000064006400640064006400640064006427
:1019A0000064006400640064005000500050005067
:1019B00000500050005000500050005000500050A7
:1019C0000050005000500050002D002D002D002D23
:1019D000002D002D002D002D002D002D002D002D9F
:1019E000002D002D002D002D00FA00FA00FA00FA5B
:1019F00000FA00FA00FA00FA00FA00FA00FA00FA17
:101A000000FA00FA00FA00FA9003157402F0E4906C
:101A10000312F0900312E0FFC394094003022B1F4E
:101A200075F0021210741212A5EF1211B512126D98
:101A3000FE900313F0A3EFF0123654900315121228
:101A4000F1507B1212FCE0B4012775F002EF121086
:101A5000D812142B4003022AED900312E075F00215
:101A60001211B575F00212106FECF0A3EDF0022A1E
:101A7000ED900313E0FEA3E0FF1211C112149F7555
:101A8000F002ED1211C91212CD9402EE648094801E
:101A900040101211C112139FED121075E475F00180
:101AA00080171214A55046900312E0FF1211C612BF
:101AB000139F12107474FFF5F0122635802F9003D7
:101AC00012E0FF75F0021211B51212A5121074EC9B
:101AD000F0A3EDF0900312E0FF75F0021210D8129F
:101AE00014384009749E2F1213037401F0900312EE
:101AF000E0121301E0B4011E900312E0FF24A712CC
:101B000013B4E0041213B0E0D3940540091212FCA0
:101B1000E41213B0E4F0900312E004F0022A13225E
:101B2000C0E0C083C082C0D0E8C0E0E9C0E0EAC045
:101B3000E0EBC0E0EFC0E0D2AFE5DB30E415E5DB81
:101B400030E1028022900276E5DFF09002F7E4F0C7
:101B5000022BF9E5DB30E5059002738038E5DB30D8
:101B6000E126E5DB30E0119002F912102112102A73
:101B7000122537F5DF022BF99002F8E06401707945
:101B8000208A76D28A022BF99002F7E0700DA3E545
:101B9000DFF09002F77401F0022BF99002F8E09068
:101BA0002F5893FFB4FF0E900276E5DFF09002F815
:101BB000E004F0803EEF640F9002F9702B121021C8
:101BC0009002F8E0FF12103E540F1225649002F9C3
:101BD0001210219002F8E0FF04F012103EFFE5DF42
:101BE00054F04F122564800B12102112102AE5DFE9
:101BF000122576900275E004F075DBFFD0E0FFD08F
:101C0000E0FBD0E0FAD0E0F9D0E0F8D0D0D082D03C
:101C100083D0E03290028AE0FE64107053FF90009F
:101C200012E0FDEFC39D4003022CC5EF25E02488A0
:101C3000F582E434291211D51212282468F582E4C1
:101C400034291211D524ACF582E5F034011212309A
:101C500024A8F582E434291211D51212DD121230B3
:101C600024C8F582E434291211D512138E022C1ED9
:101C7000EE64207062FF900012E0FEEFC39E5045BC
:101C8000EF25E02408F582E434291211D512122838
:101C900024E8F582E434281211D524ACF582E5F06D
:101CA00034011212302428F582E434291211D5129D
:101CB00012DD1212302448F582E434291211D512B3
:101CC000138E022C769001AEA3E090027BF090017F
:101CD000B0A3E090027CF090028DE0FEB41007907B
:101CE00001D07401F022EEB42005E49001D0F0227E
:101CF000E49002FEF0FF9002FDF0EF14601E14600D
:101D00003514604C14605B240470749002FF7401FD
:101D1000F0A3742FF0A37458F0022D7912101E90C6
:101D20000001122537FED3941F40031210371225ED
:101D30001E6E704B804312101E900002122537FE5B
:101D4000D39406400312103712251E6E703180297D
:101D500012101E900003122537FE12251E6E701FF2
:101D6000801712101E900004122537FE648B60034A
:101D700012103712251E6E70069002FDE004F00F5F
:101D8000EF64056003022CFA9002FDE0B40504A3A1
:101D90007401F09002FEE0FD600790028BE0547F3A
:101DA000F0CFEDCF227E017FBC7D007B017A0079F0
:101DB000141226BB12309A900270E090028A7005CD
:101DC0007410F080037420F0122C14E4FE900012C2
:101DD000E0FFEEC39F5056E4FF75F07EEE12118BCC
:101DE000121266121314EE1211C9121266E4F0A355
:101DF000F0121134E4F00FEFB409DECFEECF12355C
:101E0000EE1235FD1235DF12360C12362A12361B51
:101E100012363974BE2E1211FFE4121207E41214A6
:101E200094A3F0900238F0A3F00E022DCDE49001BF
:101E3000CFF09001CD747EF0900011F0E49001CCD1
:101E4000F022758A50538AEF9003197411F09003B1
:101E5000177422F090031A7433F075997F759A8085
:101E6000E4FFFEC29620970AD296309705E49003CD
:101E700019F00FBF00010EEF640A4E70E67590FF77
:101E800075993F759AC0E4FEFF209706900317747A
:101E900027F020960C9003177426F02097037428DF
:101EA000F00FBF00010EEF640A4E70DDE4F5AD7572
:101EB000AEF075AF09F5AC7589FF75913F75991F47
:101EC000F59675931FF59BF595F592F59A75800C2F
:101ED000D28A90031804F022023235E493A3F8E486
:101EE00093A34003F68001F208DFF48029E493A372
:101EF000F85407240CC8C333C4540F4420C883408B
:101F000004F456800146F6DFE4800B010204081059
:101F1000204080903359E47E019360BCA3FF543F7E
:101F200030E509541FFEE493A360010ECF54C02591
:101F3000E060A840B8E493A3FAE493A3F8E493A381
:101F4000C8C582C8CAC583CAF0A3C8C582C8CAC5E5
:101F500083CADFE9DEE780BE0FFFFF00000000005C
:101F60000000FFFFFFFFFFFFFFFFFF00000000007A
:101F70000000000000000000000000000000000061
:101F80000000000000000000000000000000000051
:101F90000000000000000000000000000000000041
:101FA0000000000000000000000000000000000031
:101FB0000000000000000000000000000000000021
:101FC0000000000000000000000000000000000011
:101FD0000000000000000000902EC0E4F0902ECB26
:101FE00074F7F0902F58E0540F24F0902EC8F09022
:101FF0002ECC7448F0902EC97428F0A3743FF09052
:102000002E40748112124C1212500412124C741091
:10201000F0A37482F0A314F0902EC67414F0902EE6
:10202000C17490F0A37401F0A37470F0A3740AF06B
:1020300043E3101235AB900012EFF022CDEFCDED5F
:1020400064017018ED121108E0FAA3E09002C712C3
:1020500011971214669002C9F0EBA3F0ED640270C0
:102060001B75F002ED12110BE0FAA3E09002CB1207
:1020700011971214669002CDF0EBA3F0ED701A7573
:10208000F002ED12110B1214669002B712119912A0
:1020900014669002B9F0EBA3F0227E007F807D00F1
:1020A0007B017A0279771226BB9002777408F09050
:1020B00002797406F090028974ABF090028B7488F8
:1020C000F0900319E090027DF0900317E090027EFB
:1020D000F090031AE090027FF0122CF0900274E06E
:1020E0006008900278740FF08005E4900278F002A6
:1020F00031EAC0E0C0F0C083C082C0D0E8C0E0ECEC
:10210000C0E0EDC0E0EEC0E0EFC0E0D2AF9001D1A2
:10211000E004F0C3940A4017E4F01210B62401FF63
:10212000E43EFEE43DFDE43CFC90025D122672D0EC
:10213000E0FFD0E0FED0E0FDD0E0FCD0E0F8D0D071
:10214000D082D083D0F0D0E032900318E0604B9082
:1021500000161214AF9470EE9417500690031A7480
:1021600026F0C3900019E09470900018E094175086
:102170001290031A7427F0C3EF9470EE9417500373
:102180007428F0E4900318F0900016F0A3F0A3F088
:10219000A3F090031AE090027FF0229002FC7410EA
:1021A000F0A3E4F0A3743FF0A374FFF0E4FDFCF9A6
:1021B0009002FCE0FEA3E02DF582EE3CF583E49373
:1021C000FF69F90DBD00010CBC2FE5BDFFE29002D7
:1021D000FEE0FEA3E0F5828E83E493697006900230
:1021E0007404F022E4900274F0229001B4A3E09011
:1021F00002CFF09001B6A3E09002D0F09001AEA320
:10220000E09002D1F09001B0A3E09002D2F09001F2
:10221000BAA3E09002D3F09001BCA3E09002D4F006
:102220009029EA7401939002D5F09029EC740193FF
:102230009002D6F02275200112319B53A87F122EF6
:102240004212364812104E12348F43A880758DE02A
:1022500012358EEF24E0600A2410700AC283C28215
:102260008004D283D282122C14438D2012217F80CD
:10227000DF900312EFF0E0FF246112133BE06028CF
:10228000EF25E025E02464F582E434021210A9125F
:1022900012989028BC121126400E900312E024617F
:1022A00012133BE4F07F01227F0022900312EFF033
:1022B000E0FF243E121346E06028EF25E025E024ED
:1022C00041F582E434021210A91212989028BE122D
:1022D0001126400E900312E0243E121346E4F07FD4
:1022E00001227F00229002FFEFF0E0FF24D31213BF
:1022F00051E06028EF25E025E024D6F582E43401A2
:102300001210A91212989028B2121126400E9002B3
:10231000FFE024D3121351E4F07F01227F002290CA
:1023200002FFEFF0E0FF244E121372E06028EF2569
:10233000E025E02451F582E434021210A91212982B
:102340009028B6121126400E9002FFE0244E121380
:1023500072E4F07F01227F0022410237004101D167
:102360000041023A004100130041024D0041027059
:10237000004101D0004102F7004102F80042027121
:1023800000004102730041027500410274004102E5
:10239000761000900312EFF0E0FF2428121330E0D3
:1023A0006025EF25E025E0242BF582E434021210AD
:1023B000A99028B412111A400E900312E02428129A
:1023C0001330E4F07F01227F00229002FFEFF0E063
:1023D000FF240212135CE06022EF25E025E02405D3
:1023E000F582E434001210A9121117400E9002FF7A
:1023F000E0240212135CE4F07F01227F00229002AD
:10240000FFEFF0E0FF24ED121367E06022EF25E01C
:1024100025E0241CF582E434021210A912111740A1
:102420000E9002FFE024ED121367E4F07F01227F9B
:102430000022E4FFFE900012E0FDEEC39D501C124E
:102440001099E0FCA3E0FDEE12109AE0FAA3E0D3AD
:102450009DEA9C4003CFEECF0E80DA9001CEEFF0E4
:1024600022E4F01236399002FEE0FF1212C5501E2F
:1024700012134EE0701812134E7401F01210B612BF
:10248000137A24D6F582E43401F583122672229061
:1024900002F97401F0A37402F0A37477F0E4F5DAA2
:1024A00075DA4043DA2075D74075DA5843A90875C4
:1024B000B80875F808221212C5501E12132DE070CC
:1024C0001812132D7401F01210B612137A242BF582
:1024D00082E43402F583122672221212C5501E12B3
:1024E0001338E070181213387401F01210B612137A
:1024F0007A2464F582E43402F583122672221212E1
:10250000C5501E121343E070181213437401F012E9
:1025100010B612137A2441F582E43402F5831226B0
:1025200072221212C5501E121359E070181213595C
:102530007401F01210B612137A2405F582E4340007
:10254000F583122672221212C5501E121364E07017
:10255000181213647401F01210B612137A241CF5C9
:1025600082E43402F583122672221212C5501E1222
:10257000136FE0701812136F7401F01210B612137B
:102580007A2451F582E43402F58312267222E4FDA6
:10259000900273E06011900277E0FE54F0FDEE547B
:1025A0000FF0E4900273F0CFEDCF2212146DFFFE16
:1025B000EE9028C8936009743B2F121479EEF00F47
:1025C0000EEEB410EB2290025D12267E0000000099
:1025D0007E007F0B7D007B017A0179E20226BBEF52
:1025E000D39403500874282F121330E4F022EFD351
:1025F0009403500874612F12133BE4F022EFD3943C
:10260000035008743E2F121346E4F022EFD39403D4
:10261000500874D32F121351E4F022EFD3940350D7
:102620000874022F12135CE4F022EFD394035008D5
:1026300074ED2F121367E4F022EFD3940350087463
:102640004E2F121372E4F022122FD89001D274018F
:10265000F0022DA5EE30E707C3E49FFFE49EFE22C3
:10266000000000000000000000000000000000006A
:10267000000000000000000000000000000000005A
:10268000000000000000000000000000000000004A
:10269000000000000000000000000000000000003A
:102FF000000000000000000000000000000000527F
:00000001FF
