:10000000801878FFE4B8200118F6D8F99000007F36
:10001000007E07E4F0A3DFFCDEFA758120022D13D9
:100020009003FDE0FBA3E0FAA3E0F9229003F6E0E1
:10003000FF04F08F82758300229003FC7401F0228C
:10004000E92FF9E43AFA02260C0000022900EFD366
:100050009403500D12126EF583E5822D1210E9E41F
:10006000F02200022EA075F002122767E0FCA3E048
:10007000FD75F088EFA42444F582E5F03400F583A3
:10008000EE75F0020227679003FCE0FF75F002A412
:1000900024CAF582E5F03401F583E0FCA3E0FDEF2E
:1000A00075F002A42426F582E5F03400F58322756C
:1000B000F004122767E0F8A3E0F9A3E0FAA3E0FB5D
:1000C0009002E3E0FCA3E0FDA3E0FEA3E0229004A5
:1000D0000AE0FF900409E0FE75F088A424A7F582E9
:1000E000E5F03400F583E5822FF582E43583F5836E
:1000F00022EF2424FFEE34FAFE7C007D0A122686CD
:100100007D1E122698EF24DCFFEE3405FEEB75F021
:1001100002A42420F582E5F03400F5832290040B3C
:10012000E0FEA3E0FF900409E0FD75F088A4247AC6
:10013000F582E5F03400F58322E0FCA3E0FDEF75E5
:10014000F088A42456F582E5F03400229027B0C34D
:100150009BFBEE9AFAED99F9EC98F8E493FE7401A2
:1001600093FFE4FCFDC302271975F002EBA4241AE7
:10017000F582E5F03400F583E0FCA3E0FDEB75F0DB
:1001800002A42414F582E5F03400F58322C39DFF18
:10019000EE9CFEE075F088A42468F582E5F034005A
:1001A000F58322F583E493FC740193FD75F002EF6F
:1001B000A422900409E0FF75F088A42432F582E5BA
:1001C000F03400F5832275F088A4248CF582E5F0E4
:1001D0003400F583EC75F002022767900409E0FF14
:1001E00075F088A42444F582E5F03400F58322E01C
:1001F0004401F0E4900013F09002D322F0A3F0A3A6
:10020000F0A3F0A3F0A3F0A3F0A32275F002EBA4F7
:10021000241AF582E5F03400F583229003FCE0FF18
:1002200024DCF582E43401F58322F074E22EF582B9
:10023000E43401F5832224D0F582E5F03401F5831E
:10024000ECF0A3EDF0EF25E0229003FBE0FF25E0CA
:1002500024FDF582E43403F58322900409E0FD7562
:10026000F088A4248CF582E5F03400F58322EF7544
:10027000F009A424E7F582E4340222EF75F009A422
:10028000244CF582E434022290040AE0FF90040931
:10029000E075F088A4249EF582E5F0340022E4F0B5
:1002A00075F088EEA424B0F582E5F03400229004C5
:1002B00009E0FFA3E0FD22EF245CFFEE34FEFE7CAC
:1002C000007D0A1226867D32122698EF24A4FFEEC6
:1002D0003401FE75F002EB229003FCE024DFF5828E
:1002E000E43401F583229003FCE0FF75F002A424BE
:1002F000D6F582E5F034012290040DE0FDEF9D7407
:1003000080F86E9822EDF0CBEFCBEBD394032275FF
:10031000F088EEA424B9F582E5F0340022E044062A
:10032000F09000137401F02275F002EF122767E0DD
:10033000FCA3E0FD75F08822E0FEA3E0FFD322904D
:100340000375E054F0F02274F02BF582E43401F5EB
:10035000832274022BF582E43400F58322740A2B85
:10036000F582E43402F5832274D42BF582E434025E
:10037000F58322C39BFBEE9AFAED99F9EC98F822EB
:10038000E0FEA3E0C39D22EB25E024E0F582E43407
:1003900028F58322E0249EF582E43400F583E064AE
:1003A0000122242CF582E5F03400F583ECF0A3ED76
:1003B000F00F22E4F0A3F075F08822E0FCA3E0FD4A
:1003C000EC541F22EE8FF01226ED75F088ED22C35B
:1003D000EF94F6EE6480947F22E49001E6F09002C0
:1003E00046F02275F024A42402F582E43403F58358
:1003F0002275F024A42467F582E43402F5832225D3
:10040000E025E024F3F582E43401F5832225E0259C
:10041000E02405F582E43400F5832225E025E0247C
:1004200039F582E43402F5832225E025E024D7F56E
:1004300082E43402F58322900409E0FFA3E0FD2268
:10044000A424A7F582E5F03400F583E58222E0FEDE
:10045000A3E02DFFEE3CFE9003FBE0229003FCE0C6
:100460009003FBF022F074E32EF582E43401F5836F
:10047000E4F022E0FF9003FDE0FEEFC8EEC80822A2
:10048000900375E0440A22902EC5E4F0902ECDF042
:10049000A3F022F582E43402F58322940AEE64800C
:1004A00094802275F002EF022767902EC6F0902EFE
:1004B000C57401F022F09001E5747EF0E4A3F0220F
:1004C00075F00412276702272AECF0A3EDF09004E0
:1004D00009E022902EC97420F0229003FCE004F081
:1004E00022F09001E7F0900247F0227404F0A3E4B8
:1004F000F022900409EFF0A3EDF090040D7403F0E6
:10050000ED70037402F0900409E0FF12113FF583CF
:10051000C083C08290040AE0FED082D083121066AD
:10052000121380FFEE9CFE90040BF0A3EFF0123349
:10053000F2C31212F840030215EB12111DC083C062
:100540008290040AE0FCD082D0831210811213C47E
:1005500012112DEC12108112133812149B40241228
:100560001125C083C08290040AE0FCD082D083129F
:100570001081E4F0A3F0ED12113F1211D2E475F0F6
:1005800001802B1213CF5029900409E0FF12112A89
:10059000C083C08290040AE0FED082D08312108112
:1005A000E4F0A3F012113E12107E74FFF5F0122653
:1005B000ED1212AE12104E1212AE12316A1212AEBB
:1005C000122F4CEF70030216F990040AE0FF90041A
:1005D00009E0FE1212911210E4E4F0EF600302163B
:1005E000F912130FF583E4F00216F990040AE07093
:1005F00029A3E0FEA3E0FF1233F2D31212F8400960
:100600001212881210E47401F01217324023900481
:1006100009E075F08812131380121217324012127B
:100620001288F583E5822FF582E43583F583740122
:10063000F012111DC083C08290040AE0FCD082D069
:10064000831210811213C412112D1211D4121338F7
:100650009464EE648094804023121125C083C0828C
:1006600090040AE0FCD082D0831210811213B3ED03
:100670001211421211D2E475F0018031C3EF949C43
:10068000EE6480947F5029900409E0FF12112AC083
:1006900083C08290040AE0FED082D083121081E4ED
:1006A000F0A3F012113E12107E74FFF5F01226ED49
:1006B000C390040BE06480948050321212AE123169
:1006C000311212AE122F9FEF60299004091211DE31
:1006D000C083C08290040AE0FED082D083121081D1
:1006E00012113912107EECF0A3EDF080061212AE5A
:1006F00012104E1212AE123384900409E0FF121150
:100700003FF583C083C08290040AE0FED082D0838C
:10071000121066E0FEA3E090040912118DC083C0A0
:100720008290040AE0D082D083121081EEF0A3EF11
:10073000F02290040BE0FEA3E0FF1233F290040DD0
:10074000E0FDD3EF9D7480F86E98229001EDE0FEFD
:10075000703B9001EFE06402705B90024804F090FF
:1007600001DDE0B401031213219001DEE0B40106C3
:100770009002D37401F0900388E0B4200890036ED7
:100780007401F08005E490036EF07F0222EEB40164
:10079000249001EFE0B4021D9002487401F0900330
:1007A00088E0B4200890036E7401F08005E49003A3
:1007B0006EF07F0222E4FE900012E0FFEEC39F4045
:1007C0000302196F9001EDE0FC704A12122BE064F5
:1007D00001704274DC2E121222E0FF701612133FD9
:1007E000EEB40104E04409F0EE64027021121480BA
:1007F000F0801BEF6401701612133FEEB40104E0A9
:100800004401F0EEB40207900375E04402F01212C6
:100810002BE4F0C28AEC6401600302196B12122B04
:10082000E06401600302196B74DC2E121222E0FCFA
:1008300060030218C012133FEE6401703A90024741
:10084000E0FD6401701B900246E0900375B401095D
:10085000E044091211F20480151211EF1214E18024
:1008600016ED900375B4020BE044051211F2121458
:100870006580041211EFF0EE6402600302196490C7
:100880000247E0FF6401701C900246E0900375B4DB
:10089000010612131DE48021E044041211F2121427
:1008A000E1021964EF900375B40205E0440580038A
:1008B000E04404F0E4900013F09002D3F0021964D5
:1008C000EC6401600302196412133FEE6401704985
:1008D000900246E0FFB40208121480121320801325
:1008E000EF640170269001E7E0900375B4010C12EB
:1008F000131DE49002D3121465801EE0440212130B
:1009000020E49002D3F01213DA800E900375E044D5
:1009100002121320E49002D3F0EE640270469002BB
:1009200046E0B40210121480F09002D37401F090EB
:100930000013F0802F9001E6E06401701C900247E4
:10094000E0900375B40105E044098013E044081207
:1009500011F204F01213D9800B900375E0440812D1
:1009600011F204F012122BE4F0C28A0E0217B77FC4
:1009700004229003FB747EF09001EDE06003021A04
:10098000899003FCF0900012E0FF9003FCE0FEC3AE
:100990009F4003021A6874DC2E121222E0600302E8
:1009A0001A4074DF2E1212DEE0FF70289003FCE084
:1009B00075F002A424D0F582E5F03401F583E0FC63
:1009C000A3E0FD75F002EE1210A3E0FAA3E0C39DD0
:1009D000EA9C500FEF6401705B121087121380EED7
:1009E0009C40519003FCE0FF9003FBF01212DC747A
:1009F00001F074DC2F1212227401F09001E5E0FF87
:100A0000B47E149003FCE0FE9001E5F0A3740112A3
:100A1000122A7401F0800D9003FCE06F60069001D3
:100A2000E67402F09003FCE0FF1233AA9003FCE0AE
:100A3000FF123316121B8760261212D8E4F0801FB3
:100A40001212E6121098121380EE9C400C12145CE5
:100A50001231D5EF6009021B3312121B12328E9035
:100A600003FCE004F00219859001DDE0701BA3E0B7
:100A700070179001E6E0D39400400E9001E5E02469
:100A8000E212122E74011214B59001EDE0640160BF
:100A900003021B789003FCF0900012E0FE9003FC30
:100AA000E0FFC39E4003021B78123236EF60031250
:100AB00013D99003FCE0121220E07061121087122B
:100AC0001380EE9C403B12145C1212207401F090D3
:100AD00001E6E004F0900246F09003FCE0FF24E21F
:100AE00012122E7401F01233AA9003FCE0FF1233AD
:100AF000B99003FCE0FF1232DC9003FCE0FF1233FC
:100B000016121B8760051212D8E4F09003FCE0FF78
:100B1000123262EF6059E49001E7021B6A1212E69A
:100B2000121098121380EE9C401912145C1231D5E9
:100B3000EF603C9001EF7402F09003FCE012122091
:100B4000E4F02212121B12328E9003FCE0FF1233EB
:100B5000C89003FCE0FF1232F99003FCE024E2129B
:100B6000122E7401F09001E7E004F0900247F0903B
:100B700003FCE004F0021A989003FBE0FF9001EB05
:100B8000E06F6002EFF0229003FCE0FF1231A3EF70
:100B900022CBEFCB12120BE0FEA3E0FF12117DE09F
:100BA000FCA3E0FDC39FEC9E5003021C50E42DFF0C
:100BB000EC3404FE12120BE0FCA3E0FDC3EF9DFF3A
:100BC000EE9C12110CEEF0A3EFF012120BE0FEA35C
:100BD000E0FF12117DE0FCA3E0C39FFFEC9EFE75D9
:100BE000F002EB1210A3EEF0A3EFF0121387E493E0
:100BF000FE740193FF75F002EB1210A3E0FCA3E07A
:100C0000FDD39FEC9E4024121387E493FE7401935E
:100C1000FFC3ED9FFFEC9EC313FEEF13FF1213877C
:100C20007401932FFFE4933EFE801775F002EB12E0
:100C300010A3E0FEA3E0FF7C007D631226860D1268
:100C4000269875F002EB1210A3EEF0A3EFF08039B6
:100C500012117DE0FEA3E0FF12120BE0FCA3E0C343
:100C60009FEC9EC3940475F002EB500F1210A3E4A6
:100C7000F0A3F012110D1214EB800E1210A3E4F089
:100C8000A3F012110DE4F0A3F075F002EB1210A323
:100C9000E0FEA3E0C3941EEE9400500B75F002EB4F
:100CA0001210A3E4F0A3F012110DE0FEA3E0C39430
:100CB00024EE9404500612110D1214EBEB64017033
:100CC0004F75F002EB1210A312133894A4EE9401A6
:100CD000400B1212B71210A3EEF0A3EFF075F00262
:100CE000EB1210A31213BB90037FF0EDA3F01211CF
:100CF0000D12133894DCEE940540081210F1EEF05A
:100D0000A3EFF012110D1213BB900383F0EDA3F0CB
:100D1000EB6402704F75F002EB1210A312133894BB
:100D2000A4EE9401400B1212B71210A3EEF0A3EF41
:100D3000F075F002EB1210A31213BB900381F0EDDB
:100D4000A3F012110D12133894DCEE940540081232
:100D500010F1EEF0A3EFF012110D1213BB9003850A
:100D6000F0EDA3F022900409EFF0A3EDF090040D54
:100D70007409F0ED603F90009EE06401700280080D
:100D800090040A121394702D1211B2C083C0829085
:100D9000040AE0FED082D0831210661214C9121227
:100DA0005FC083C08290040AE0D082D08312108199
:100DB000E4F0A3F0229004091211DEC083C08290F7
:100DC000040AE0FED082D08312108112132FEFA408
:100DD0002432F582E5F0340012107E121380FFEE0B
:100DE0009CFE90040BF0A3EFF01233F290040DE0A0
:100DF000FDC31212FD4003021EBD1210CEE06401BD
:100E0000703775F088EE121197EF1211D5E0FEA33E
:100E1000E0C3941EEE648094804003021F0312110D
:100E2000B2C083C08290040AE0FED082D083121048
:100E300066ECF0A3EDF0021F0390040BE0FEA3E0CC
:100E4000FF12125AC083C08290040AE0FCD082D004
:100E500083121081EE8FF01226EDED1211C61213DF
:100E60003812149B402912125AC083C08290040A7F
:100E7000E0FCD082D0831210811213B3EDA424447D
:100E8000F582E5F034001211D2E475F001802812E9
:100E900013CF506F900409E0FF12125FC083C0822D
:100EA00090040AE0FED082D083121081E4F0A3F017
:100EB00012107174FFF5F01226ED021F031211B229
:100EC000C083C08290040AE0FED082D083121066F4
:100ED0001214C9FF121194C083C08290040AE0FE6C
:100EE000D082D083121081E0FCA3E0C3941EEC6496
:100EF000809480400E75F088EF1214402E1210E995
:100F00007401F01210CEE0640170281212A01210C9
:100F1000E4E00412129F1210E4E0D3940540149010
:100F2000040AE0FF75F088EE1210DB12129E121018
:100F3000E4E4F0229001EFE024FE601E147003024E
:100F40001FFE1470030220B9240360030220FC90EA
:100F500001EF7402F0E4900245F09001EF7403F0A9
:100F6000900248E064016003021FFBF09001EDE095
:100F7000FD7020C28A12133F900013E06009E4F074
:100F8000900375E04409F09002D3E06006E4F012AB
:100F90001480F0ED640160030220FC12133F900006
:100FA00013E0FF70099002D3E070030220FCEF60B1
:100FB000129002D3E0600C1211F3F0900375E0443C
:100FC000058034900013E060129002D3E0700C12A0
:100FD00011F4F0900375E04401801C900013E06070
:100FE000030220FC9002D3E070030220FC1211F3F4
:100FF000F0900375E04404F0C28A22022AD0122441
:101000006E9001E8E0700302209A900245E004F03F
:10101000E49003FAF0900012E0FF9003FAE0C39F1F
:101020005078E4FF9003FAE0FE1211B7121328EE95
:10103000121142F5831214A3ECF0A3EDF09003FA21
:10104000E0FE1211B7121328EE1211E31214A312CC
:1010500013ACEFB409CE9003FAE0FF1210A0E4F055
:10106000A3F0EF12110E1214EBEFB40110E4900391
:101070007FF0A3F09003837404F0E4A3F0EFB402D4
:1010800010E4900381F0A3F09003857404F0E4A3CE
:10109000F09003FAE004F0022015900245E0C394BA
:1010A000034059900011747EF0E49001E9F0900241
:1010B00045F09001EF7404F02212246E9001E8E0F4
:1010C000603A1220FDE49003FAF0900012E0FE90E6
:1010D00003FAE0FFC39E50161230BB122EF79003A6
:1010E000FAE0FF121B919003FAE004F080DC123268
:1010F0000712197212174B9001EFEFF022E49003E0
:10110000FCF09003FCE0FDC394095023E0FF75F070
:10111000021211BAE0FAA3E0FB75F002EF1211E33C
:10112000EAF0A3EBF0E4FF1214F21214DA80D3E435
:101130009003FBF0900012E0FF9003FBE0C39F40A0
:10114000030222BE12124CE4F0A3F0EF25E02403C8
:10115000F582E43404F583E4F0A3F0EF7003022297
:10116000B5E49003FCF09003FCE0FDC39409501833
:101170009003FBE0FF121D659003FBE0FFA3E0FD81
:101180001222C41214DA80DEE49003FCF09003FC17
:10119000E0FFC394094003022264749E2F12139748
:1011A00060109003FBE075F088121313F583E0B430
:1011B00001199003FB121193C083C0829003FCE0DD
:1011C000D082D083121081E4F0A3F09003FCE0FF02
:1011D000700302225E9003FBE0FE1211941214A32E
:1011E000E0FCA3E0C39403EC64809480501A75F093
:1011F00088EE121197C083C0829003FCE0D082D0A9
:1012000083121081E4F0A3F0900412E0602A9003AE
:10121000FBE0FF121194C083C0829003FCE0FED07B
:1012200082D08312108112113912107E12144E12C4
:10123000124EEE8FF01226ED9003FBE0FF12119498
:10124000C083C0829003FCE0D082D083121081E082
:10125000FCA3E0FDEF12124EEC8DF01226ED1214FD
:10126000DA02218D900412E06011121249E0FCA311
:10127000E0FDEF12117EECF0A3EDF09003FBE0FF38
:1012800075F088A42458F582E5F03400F583E0FC7D
:10129000A3E01211AB121210ECF0A3EDF012124900
:1012A000E0FCA3E01211AB12121012144E12117EC8
:1012B000EEF0A3EFF09003FBE004F0022134E490A1
:1012C00001E8F022900409EFF0A3EDF090040D7412
:1012D00008F0ED70037404F090009EE06401700269
:1012E000800890040A12139470381211DBC083C076
:1012F0008290040AE0FED082D0831210811211394C
:1013000012107EECF0A3EDF0900409121193C0834B
:10131000C08290040AE0D082D083121081E4F0A34E
:10132000F022900409E0FF12113FF583C083C082D0
:1013300090040AE0FED082D083121066121380FF60
:10134000EE9C90040BF0A3EFF09004091212DBE086
:101350006007E490040BF0A3F090040BE0FEA3E020
:10136000FF1233F290040DE0FDC31212FD400302A0
:1013700023FD90040BE0FEA3E0FF90040912112866
:10138000C083C08290040AE0FCD082D08312108116
:101390001213C412112D1211D412133812149B40BF
:1013A00026900409121128C083C08290040AE0FC30
:1013B000D082D0831210811213B3ED121142121198
:1013C000D2E475F001802B1213CF5029900409E06C
:1013D000FF12112AC083C08290040AE0FED082D09E
:1013E00083121081E4F0A3F012113E12107E74FFFC
:1013F000F5F01226ED12143712104E8038C3900407
:101400000BE064809480502D121437123131121485
:1014100037122F9FEF601E1211DBC083C082900431
:101420000AE0FED082D08312108112113912107E90
:10143000ECF0A3EDF0900409E0FF12113FF583C03A
:1014400083C08290040AE0FED082D083121066E04E
:10145000FEA3E090040912118DC083C08290040A9B
:10146000E0D082D083121081EEF0A3EFF022E4905E
:1014700003FCF09003FCE0FFC3940940030226053F
:10148000EF902EC87014E0545FF0A3746AF0902EB1
:10149000C3744AF0A37401F0800EE044F0F0902E83
:1014A000C37480F0A37407F09003FCE090279F932F
:1014B000902ECAF0E49003FBF0900012E0FF90033E
:1014C000FBE0FEC39F40030225FC74492E121493D7
:1014D000E0FF9003FDF0E4F5E2EFC39408503B74A5
:1014E000151214AAC083C0821214738002C333D8A9
:1014F000FCD082D083F0902ECD7401F0C083C082E6
:10150000E0FFC8EEC8088002C333D8FCD082D08385
:10151000F0902EC074C1F00225829003FDE024F803
:10152000F074161214AAC083C0821214738002C30E
:1015300033D8FCD082D083F0902ECE7401F0C083DB
:10154000C082E0FFC8EEC8088002C333D8FCD08256
:10155000D083F0EEB405031214D3EEB4060D1214CA
:10156000D3902EC374E0F0A3740AF0EEB4070D120A
:1015700014D3902EC37430F0A37409F0902EC0746D
:10158000C2F0E4FF900000742EF0A3E4F09003FB9F
:10159000E02449121493E09003FDF0E5E220E20517
:1015A0000FEFB4C8DF53E2FB1214879003FDE0FD98
:1015B00075F002A4FFAEF0900001E02FF090000063
:1015C000E03EF0ED9027D093FF900000E475F0022C
:1015D00012270385F082F58312132FEF1211BAC080
:1015E00083C0829003FCE0D082D083121081ECF0A3
:1015F000A3EDF09003FBE004F00224B99003FCE0BB
:1016000004F00224739001E87401F022BB01068902
:10161000828A83E0225002E722BBFE02E322898213
:101620008A83E49322BB010CE58229F582E5833AA3
:10163000F583E0225006E92582F8E622BBFE06E9A2
:101640002582F8E222E58229F582E5833AF583E4F2
:101650009322BB010689828A83F0225002F722BBC3
:10166000FE01F322F8BB010DE58229F582E5833AFC
:10167000F583E8F0225006E92582C8F622BBFE0574
:10168000E92582C8F222EF8DF0A4A8F0CF8CF0A457
:1016900028CE8DF0A42EFE22BC000BBE0029EF8DBB
:1016A000F084FFADF022E4CCF875F008EF2FFFEEE8
:1016B00033FEEC33FCEE9DEC984005FCEE9DFE0FF6
:1016C000D5F0E9E4CEFD22EDF8F5F0EE8420D21C51
:1016D000FEADF075F008EF2FFFED33FD4007985099
:1016E00006D5F0F222C398FD0FD5F0EA22C5F0F836
:1016F000A3E028F0C5F0F8E582158270021583E0BA
:1017000038F022A3F8E0C5F025F0F0E582158270EC
:10171000021583E0C838F0E822EB9FF5F0EA9E421C
:10172000F0E99D42F0E89C45F022ECF0A3EDF0A337
:10173000EEF0A3EFF022A8828583F0D083D082124E
:10174000274D12274D12274D12274DE473E493A322
:10175000C583C5F0C583C8C582C8F0A3C583C5F0DD
:10176000C583C8C582C822A42582F582E5F03583E9
:10177000F58322EF4E6012EF60010EEDBB010B8985
:10178000828A83F0A3DFFCDEFA2289F05007F70992
:10179000DFFCA9F022BBFEFCF309DFFCA9F0223F2D
:1017A0003F3F3F3F3F3F3F3F0032003217700258FC
:1017B0000004001E000A000A000F0064000A000A6C
:1017C0000000000000000000000000000001010116
:1017D0000D0E0F030405060708090A0B0C00010291
:1017E0000032003200320032003200320032003269
:1017F0000032003200320032003200320032003259
:101800000037003700370037003700370037003720
:101810000037003700370037003700370037003710
:101820000028002800280028002800280028002878
:101830000028002800280028002800280028002868
:10184000002D002D002D002D002D002D002D002D30
:10185000002D002D002D002D002D002D002D002D20
:101860000064006400640064006400640064006458
:101870000064006400640064006400640064006448
:101880000069006900690069006900690069006910
:101890000069006900690069006900690069006900
:1018A000005A005A005A005A005A005A005A005A68
:1018B000005A005A005A005A005A005A005A005A58
:1018C000002D002D002D002D002D002D002D002DB0
:1018D000002D002D002D002D002D002D002D002DA0
:1018E00000FA00FA00FA00FA00FA00FA00FA00FA28
:1018F00000FA00FA00FA00FA00FA00FA00FA00FA18
:10190000C0E0C083C082C0D0E8C0E0E9C0E0EAC067
:10191000E0EBC0E0EFC0E0D2AFE5DB30E415E5DBA3
:1019200030E1028022900374E5DFF09003F5E4F0EB
:101930000229D9E5DB30E5059003718038E5DB301D
:10194000E126E5DB30E0119003F712102312102C92
:10195000122625F5DF0229D99003F6E0640170799B
:10196000208A76D28A0229D99003F5E0700DA3E58A
:10197000DFF09003F57401F00229D99003F6E090AE
:101980002D5893FFB4FF0E900374E5DFF09003F63B
:10199000E004F0803EEF640F9003F7702B121023E9
:1019A0009003F6E0FF121040540F1226529003F7F6
:1019B0001210239003F6E0FF04F0121040FFE5DF61
:1019C00054F04F122652800B12102312102CE5DF18
:1019D000122664900373E004F075DBFFD0E0FFD0C3
:1019E000E0FBD0E0FAD0E0F9D0E0F8D0D0D082D05F
:1019F00083D0E032900388E0FE64107053FF9000C3
:101A000012E0FDEFC39D4003022AA5EF25E02480EC
:101A1000F582E434281211A31212362460F582E410
:101A200034281211A324CAF582E5F0340112123EC3
:101A300024A0F582E434281211A31212EF12123EF0
:101A400024C0F582E434281211A31213A20229FE45
:101A5000EE64207062FF900012E0FEEFC39E5045DE
:101A6000EF25E02400F582E434281211A312123687
:101A700024E0F582E434271211A324CAF582E5F0AC
:101A8000340112123E2420F582E434281211A312EC
:101A900012EF12123E2440F582E434281211A312F0
:101AA00013A2022A569001CCA3E0900379F0900192
:101AB000CEA3E090037AF090038BE0FEB410079081
:101AC00001ED7401F022EEB42005E49001EDF02266
:101AD0007E017FD97D007B017A0079141227731271
:101AE000303A90036EE090038870057410F0800324
:101AF0007420F01229F4E4FE900012E0FFEEC39F80
:101B0000507BE4FC75F088EE12112D1211D41213E3
:101B1000B3EE121294F583E5822C1210E9E4F0EE94
:101B20001211C61213B3EE1214402C1210E9121245
:101B30009EF583E5822C1210E9E4F0CFEECFCDECD8
:101B4000CD12104E1233840CEC640970B712130FCF
:101B5000F583E4F0CFEECF1233AA1233C81233B9B3
:101B60001233D774DC2E121222E412122AE4121459
:101B7000B5A3F0900246F0A3F00E022AF89001EB14
:101B8000747EF0900011F0E49001EAF022E49003FA
:101B9000FCF0FF9003FBF0EF14601E14603514603E
:101BA0004C14605B240470749003FD7401F0A37402
:101BB0002FF0A37458F0022C16121020900001127E
:101BC0002625FED3941F400312103912260C6E7086
:101BD0004B8043121020900002122625FED394065B
:101BE000400312103912260C6E7031802912102019
:101BF000900003122625FE12260C6E701F8017120D
:101C00001020900004122625FE648B600312103908
:101C100012260C6E70069003FBE004F00FEF6405D3
:101C20006003022B979003FBE0B40504A37401F05A
:101C30009003FCE0FD6007900389E0547FF0CFED56
:101C4000CF22758A50538AEF9004137411F09004D8
:101C5000117422F09004147433F075997F759A8092
:101C6000E4FFFEC29620970AD296309705E49004CE
:101C700013F00FBF00010EEF640A4E70E67590FF7F
:101C800075993F759AC0E4FEFF2097069004117481
:101C900027F020960C9004117426F02097037428E6
:101CA000F00FBF00010EEF640A4E70DDE4F5AD7574
:101CB000AEF075AF09F5AC7589FF75913F75991F49
:101CC000F59675931FF59BF595F592F59A75800C31
:101CD000D28A90041204F02202307FE493A3F8E445
:101CE00093A34003F68001F208DFF48029E493A374
:101CF000F85407240CC8C333C4540F4420C883408D
:101D000004F456800146F6DFE4800B01020408105B
:101D10002040809030F7E47E019360BCA3FF543FE5
:101D200030E509541FFEE493A360010ECF54C02593
:101D3000E060A840B8E493A3FAE493A3F8E493A383
:101D4000C8C582C8CAC583CAF0A3C8C582C8CAC5E7
:101D500083CADFE9DEE780BE0F00FF00000000005D
:101D60000000FFFFFFFFFFFFFFFFFF00000000007C
:101D70000000000000000000000000000000000063
:101D80000000000000000000000000000000000053
:101D90000000000000000000000000000000000043
:101DA0000000000000000000000000000000000033
:101DB0000000000000000000000000000000000023
:101DC0000000000000000000000000000000000013
:101DD00000000000000000009003FA7410F0A3E47B
:101DE000F0A3743FF0A374FFF0E4FDFCF9900376D8
:101DF000E064AA705074AAF0758A10538AEF00004C
:101E0000009003FAE0FEA3E02DF582EE3CF583E4BA
:101E100093FF69F90DBD00010CBC2FE5BDFFE290F9
:101E200003FCE0FEA3E0F5828E83E49369700890E2
:101E300003767405F08005E4900376F0758A5053BC
:101E40008AEF00000022902EC0E4F0902ECB74F4B4
:101E5000F0902F58E0540F24F0902EC8F0902ECC24
:101E60007448F0902EC97428F0A3743FF0902E406F
:101E700074811211FCF0A3041211FCF0902EC674B0
:101E800014F0902EC17490F0A37401F0A37480F04C
:101E9000A37407F043E310123350900012EFF022C6
:101EA000C0E0C0F0C083C082C0D0E8C0E0ECC0E0B9
:101EB000EDC0E0EEC0E0EFC0E0D2AF9001EEE00494
:101EC000F0C3940A4017E4F01210C02401FFE43E6E
:101ED000FEE43DFDE43CFC9002E312272AD0E0FF43
:101EE000D0E0FED0E0FDD0E0FCD0E0F8D0D0D08251
:101EF000D083D0F0D0E032900412E0604E90001613
:101F0000E0FEA3E0FFC39470EE9417500690041413
:101F10007426F0C3900019E09488900018E09413A0
:101F200050129004147427F0C3EF9470EE9417507D
:101F3000037428F0E4900412F0900016F0A3F0A3CC
:101F4000F0A3F0900414E090037DF02290040FEDD4
:101F5000F090040EEFF0A3E0FE12127BF583E58211
:101F60002E1210E9E0603590040EE01213F1C083E8
:101F7000C08290040FE0D082D0831210AF1213738E
:101F80009027B612115B401490040FE0FF90040EEE
:101F9000E012127C1210E4E4F07F01227F00229014
:101FA000040FEDF090040EEFF0A3E0FE12126EF5B8
:101FB00083E5822E1210E9E0603290040EE01213E5
:101FC000E3C083C08290040FE0D082D0831210AFB0
:101FD0009027B412114F401490040FE0FF90040EAC
:101FE000E012126F1210E4E4F07F01227F002290D1
:101FF00001D2A3E09003CDF09001D4A3E09003CEF2
:10200000F09001CCA3E09003CFF09001CEA3E0903C
:1020100003D0F09001D8A3E09003D1F09001DAA3AF
:10202000E09003D2F09028E27401939003D3F090F3
:1020300028E47401939003D4F0227E007F807D0019
:102040007B017A0379751227739003757405F0A3E9
:10205000F0A37401F090038774ABF0900389748D42
:10206000F0900413E090037BF0900411E090037C67
:10207000F0900414E090037DF0122B8D022FEF7589
:10208000200153A87F122C421233E61233981232E9
:10209000B543A880758DE0123333EF24E0600A2445
:1020A00010700AC283C2828004D283D2821229F4C1
:1020B000122DD8438D20121F3480DCCBEFCBEB6484
:1020C000017017121169E09003C5F012117DA3E0B1
:1020D0009003C6F0ECA3F0EDA3F0EB6402701712CE
:1020E0001169E09003C9F012117DA3E09003CAF0DA
:1020F000ECA3F0EDA3F022410245004101EE0041C6
:10210000024800410013004102D30041036E004128
:1021100001ED014103F5004103F60042036F0000A9
:1021200041037100410373004103720041037410C5
:102130000090040E121305503090040EE0FFEB12D5
:10214000126F1210E4E07021EB12126F1210E4749F
:1021500001F01210C0FFEB1213E3C083C0829004A1
:102160000EE0D082D0831214C02290040E12130508
:10217000503090040EE0FFEB12127C1210E4E0707D
:1021800021EB12127C1210E47401F01210C0FFEB6C
:102190001213F1C083C08290040EE0D082D083126B
:1021A00014C0229003FDEFF0E0FF24F012134AE088
:1021B0006020EF1213FF1210B51213739027AA12AA
:1021C000115B400E9003FDE024F012134AE4F07F0F
:1021D00001227F00229003FDEFF0E0FF24D41213D0
:1021E0006BE06020EF1214291210B51213739027C0
:1021F000AE12115B400E9003FDE024D412136BE489
:10220000F07F01227F0022E4FFFE900012E0FDEE4D
:10221000C39D501C12109FE0FCA3E0FDEE1210A025
:10222000E0FAA3E0D39DEA9C4003CFEECF0E80DA24
:102230009001ECEFF0229003FDEFF0E0FF2402129A
:102240001355E0601AEF12140D1210B512114C4024
:102250000E9003FDE02402121355E4F07F01227F6B
:1022600000229003FDEFF0E0FF240A121360E0600B
:102270001AEF12141B1210B512114C400E9003FDF0
:10228000E0240A121360E4F07F01227F0022E4F0D0
:102290001233D79003FCE0FF1213075017121347B5
:1022A000E070111213477401F01210C0FFEB12130B
:1022B000FF12272A229003F77401F0A37403F0A3FE
:1022C0007475F0E4F5DA75DA4043DA2075D74075B5
:1022D000DA5843A90875B80875F808221213075090
:1022E00017121352E070111213527401F01210C041
:1022F000FFEB12140D12272A221213075017121384
:102300005DE0701112135D7401F01210C0FFEB124A
:10231000141B12272A221213075017121368E07099
:10232000111213687401F01210C0FFEB121429127D
:10233000272A22E4FD900371E06011900375E0FE0E
:1023400054F0FDEE540FF0E4900371F0CFEDCF2286
:10235000121487FFFEEE9027C093600974492F1274
:102360001493EEF00F0EEEB410EB229002E312275E
:1023700036000000007E007F0B7D007B017A017932
:10238000FF022773EFD39403500D12127BF583E500
:10239000822D1210E9E4F02275B28E75B6F9E4F5DB
:1023A000B743B20143AA0102336BEFD39403500841
:1023B00074F02F12134AE4F022EFD3940350087400
:1023C000022F121355E4F022EFD394035008740A3D
:1023D0002F121360E4F022EFD39403500874D42F2B
:1023E00012136BE4F022122E469001EF7401F002FA
:1023F0002AD0EE30E707C3E49FFFE49EFE220000F0
:1024000000000000000000000000000000000000CC
:1024100000000000000000000000000000000000BC
:1024200000000000000000000000000000000000AC
:10243000000000000000000000000000000000009C
:102FF00000000000000000000000000000000011C0
:00000001FF
