:100000005446495300010000607B0100F609C434E6
:1000100002060114151019104E4137300206012254
:10002000151019094E413730020601081510191034
:100030004E413730030000000100000000000000C6
:1000400054464353002000007C6B01000000000078
:1000500000C000200121000007210000092100004C
:100060000B2100000D2100000F2100001F210000C6
:100070001F2100001F2100001F210000112100008E
:10008000132100001F210000152100004F4E000029
:10009000314F0000192100001F2100009D030020A6
:1000A00019210000093400003F3400001F21000026
:1000B0001F210000734B00001921000019210000CE
:1000C000B5480000192100001F2100001F21000079
:1000D0000000000000000000000000000000000020
:1000E0000000000000000000000000000000000010
:1000F0000000000000000000000000000000000000
:1001000000000000000000000000000000000000EF
:1001100000000000000000000000000000000000DF
:1001200000000000000000000000000000000000CF
:1001300000000000000000000000000000000000BF
:1001400000000000000000000000000000000000AF
:1001500000F010F8FEE7FEE7FEE7FEE7FEE7FEE749
:10016000FEE7FEE7FEE7FEE701480047FEE7FEE7A1
:100170001F21000000F002F800F040F80CA030C889
:10018000083824182D18A246671EAB4654465D4613
:10019000AC4201D100F032F87E460F3E0FCCB6469D
:1001A0000126334200D0FB1AA246AB463343184720
:1001B000B4600100E4600100103A02D378C878C14D
:1001C000FAD8520701D330C830C101D504680C6099
:1001D000704700000023002400250026103A01D3B8
:1001E00078C1FBD8520700D330C100D50B607047EF
:1001F0001FB5C046C0461FBD10B510BD034885469B
:10020000FFF7F6FF03F0C2F913F0A7F900C00020D2
:1002100003B4FFF7F1FF03BC13F0A6F970B5054670
:100220000C46164602E00FCC0FC5103E102EFAD237
:10023000082E02D303CC03C5083E042E07D301CCFD
:1002400001C5361F03E021782970641C6D1C761EE1
:10025000F9D270BD7047002800D00120FE4909681E
:1002600008627047FC480068006A002800D001203E
:100270007047F94A800012688018FF30FF30023062
:1002800001607047F449800009684018FF30FF3072
:1002900002300068FF210131084070477047EF4984
:1002A00008707047ED4800787047F0B4EA4F3A683C
:1002B000526A3B681C691D460723DB01EE18336850
:1002C0000225002910D0002805D00121012805D0E1
:1002D00011281DD105E02A432C4319E00A430B43A2
:1002E00016E00A432B4313E0002804D0012805D070
:1002F00011280DD109E0AA43AC4309E05B085B007B
:10030000980705D15208520002E0AB439807F9D094
:1003100038684262386804613360F0BC704710B4DA
:10032000CD49024609680020496A002A11D0CA4C0A
:1003300007232468DB01E318012A0FD0112A06D114
:100340008907890F022902D01968890703D410BCD4
:1003500070478907FBD5012010BC70478907890FBA
:100360000229F9D01968C907F5D110BC7047F0B55A
:10037000B94C00212268116201682268116041684D
:1003800022685160816822689160C1682268D160EA
:10039000016922681161416922685161816922689D
:1003A0009161C1692268D161416A22685162816AA2
:1003B0002268D162C16A22681163016B22685163AD
:1003C000416B22689163816B2268D163C16B2268A3
:1003D0001165016C22685165416C22689165816CE0
:1003E0002268D165C16C22681166016D2268516670
:1003F000416D22689166816D2268D166C16D226867
:100400009167016E2268D167426E216880314A602F
:10041000826ECA60C26E4A61026F8A61426FCA61AF
:10042000826F0A62C26F8A62014680310B6822685D
:10043000C032D3614B6813628B68D362CA68256887
:10044000FF3501352A600A696A604A69AA608A69CB
:10045000EA60CA692A610A6A6A618A6AEA6122688C
:100460000323FF32FF32023213605360496B116184
:100470000146C0310B68D3614B6813628B685362CD
:10048000CB6807222668D201B21813600B6953604B
:100490004B6993608B69D360CB6913610B6A5361BD
:1004A0004B6A53628B6A9363CB6AD3630B6B0F22E5
:1004B00026689201B218944613604B6B53608A6BA6
:1004C00001262368B6029B191A62CA6B112623689B
:1004D000B6019B191A62C21DF932136809272668F2
:1004E000FF01F61933605368052726683F02F619A5
:1004F00033609668152327689B01FB185E60D668F9
:100500005E6116699E615669072327681B02FB1806
:100510001E6096695E60D6699E60166ADE60566AE5
:100520001E61966A5E61D66A1E62166B5E62566BCB
:100530009E62966BDE62D26B1A630A468032166840
:100540005E6356689E639668DE63D6681D232768DF
:100550009B01FB181E6016695E6056699E60966975
:10056000DE60D6691E61166A5E61566A9E61966A91
:10057000DE61D66A1E62166B1E63566B5E63966BF7
:100580009E63D26BDA630A46C03216680F2327686F
:10059000DB01FB189E605668DE6096681E61D668B7
:1005A0001E6212691A632E4A126A130A06D1AB69D7
:1005B00012071B091B01120F1343AB61C369274AC2
:1005C0001370002353700068C00701D002205070E0
:1005D000086BC00703D0507801231843507020687F
:1005E00000682368400840001860604600684308BF
:1005F0005B006046036088694005400D5080F0BD97
:10060000164948707047144800680068C007C00F5A
:10061000704711480068406A01210904084070478A
:10062000F8B504460C480068456AA00702D50220C8
:10063000054301E002208543E00773D00120054314
:1006400001F040F8064601F040F801460248006813
:10065000406A01231B0405E0A0740100B4080020D7
:10066000C0FE0300184201D0084601E030460E46A5
:10067000FA4A07211268C90151180028086802D0F7
:100680000122104301E04008400008600868002E85
:1006900002D00222104301E0022290430860F04A97
:1006A00050788446C0075BD0EE4F50883A68526C51
:1006B00001231B041A433B685A643A68926CE74F63
:1006C00096050F233F68B60DE74A9B01FB18E54FDF
:1006D0003F68BF6CBF05BF0DB74202D1521EF6D1B5
:1006E00021E0002A1FD040006246D20703D01A68DA
:1006F000012632431A606246920706D5D74A13682C
:100700001B6801261268334313600122D202904213
:1007100000D9501ECA684005D20AD202400D0243D9
:10072000CA601DE013E0CD4A1E68760876001E60A0
:1007300013681B6812685B085B001360C94A136882
:100740005B6C012636041268B3435364DDE7C3488B
:100750006D0801686D00096800684908490001607A
:10076000BE4A106845621068006927218843210746
:1007700001D50421084361070029B949097808DA3D
:10078000082903D91368491CD96104E001210843F1
:1007900001E01368D961A10701D502210843E107EF
:1007A00001D02021084311680861F8BDAB4A002040
:1007B0001168496A8907890F022945D0F0B4A74911
:1007C0000A68D26A0B68D201D40D1D2292019A18D0
:1007D000126AA34BD2075E880B680721D20FC901AA
:1007E00059180B68DD070B68ED0F02273B40002D01
:1007F00011D09A4D2868C06BC005C00D002A04D0E6
:100800002D68ED6B6D046D0F00E000254F68BF068D
:10081000BF0EA840C019002B10D0904D2B68DB6B89
:10082000DB01DB0D002A03D02A68D26B5200520F85
:1008300049688904890E9340181840181E21704396
:100840004C432018F0BC70477047F0B4834F002031
:100850003968496A89073BD539680D6904210D401B
:1008600039680E6902210E4039680969CC07396878
:10087000E40FC96ACA053968D20D096BCB0539681E
:10088000DB0D896BC905C90D002D03D03868806B5D
:100890000002000E002E14D01D263D68B601AD19D1
:1008A0002D6A3E68ED07F669ED0FB606B60E002D0F
:1008B00003D03D68AD6B6D046D0F0F46AF407743BD
:1008C0003818002C00D040181E2158434A431018F5
:1008D000F0BC704770B561480168C9680068CC0613
:1008E0004069E40EC504ED0CFFF760FF0646FFF714
:1008F000ACFF65431E214D4330187D214019C900CE
:1009000048435A4912F037FB70BDF8B5534E0746BD
:100910003068C068C406E40E00D10124FFF746FF2A
:100920000546FFF792FF2D18002F1BD0394650487F
:1009300012F021FBA8420BD921461E22401B514335
:1009400012F019FB01214903884202D9481E00E038
:10095000002031684969C004490B4903C00C0143B8
:1009600030684161306840691E21C004C00C60439A
:10097000484341193E4812F0FEFAF8BD70B53748B9
:100980000168C9680068CD064069ED0EC404E40C36
:10099000FFF70CFF0646FFF758FF01466C431E2089
:1009A0004443A0194118324812F0E5FA70BD2B49B2
:1009B0000A685269D3040A68DB0C5269C004520BFE
:1009C0005203C00C0243086842611846704723482E
:1009D00000684069C004C00C704710B5002807D0FB
:1009E0001F484188234812F0C6FA401C400810BD39
:1009F0001A480068006BC105C90DF3E7F8B51D4E34
:100A00000546304612F0B7FA401C440821463046ED
:100A100012F0B1FA401C430810481D2206689201EA
:100A20006108B218002D27D00D4E0F27748006687C
:100A3000A51FBF01F6193668F60700D0640001262D
:100A4000F602B44200D9741E090421430068072449
:100A5000E4010019C160D5631846F8BDA074010017
:100A6000B40800209C740100E7030000307500000A
:100A700000389C1C60EA00008E1FB51F090421434A
:100A800004682163006801218902401806629563A9
:100A9000E2E7FD49012804D01128086806D0806BE0
:100AA00001E00868C06BC005C00D7047C06BC00195
:100AB000C00D704730B4F44C0F222568D2010307F3
:100AC000AA18002B1DD0D268CB058A1AEE4D1D2125
:100AD0002D688901921EDB0D6918012813D0112899
:100AE000206820D0806B400A400218432368986336
:100AF000086BD205400A4002D20D1043086330BC97
:100B000070479268E0E72068C06B400A40021843D3
:100B10002368D863486BD205400A4002D20D1043C7
:100B2000486330BC7047C06BD84D1B042840184345
:100B30002368D863486BD2052840D2091043486324
:100B400030BC704710B4D04A116880314B69FF2423
:100B50000134234001280AD0112848690DD01168BA
:100B6000C0B2896BC905C90D002B0ED10CE04869D4
:100B700011680002000EC96BF4E711680002C96B2E
:100B8000000EC901C90DEFE70020081A0004000C8F
:100B900000D1012010BC7047BB4910220028086812
:100BA000406A03D00968104348627047096890435F
:100BB0004862704710B4B4490868406A10229043F4
:100BC0000A685062002002460C6883001B191A65EF
:100BD000401C0828F8D310BC70478207830810B463
:100BE000A948D20E00689B001818036DFF2494409A
:100BF000491CC9B2A34391400B43036510BC704725
:100C0000A14B82081B689200D218126D8007C00E9B
:100C1000C240D0B2491C884201D102207047002056
:100C20007047994800688030006A704796481021E4
:100C30000068FF30FF30023001617047924A12684D
:100C40008032002805D0012805D0112800D1D161BB
:100C5000704751607047916170478B49024609683F
:100C600000208031002A05D0012A05D0112A00D1A8
:100C7000C8697047486870478869704710B4824AED
:100C800001461D2413680020A4011B191B6ADB0701
:100C9000DB0F0BD0012905D01068112908D0806B1B
:100CA000400407E01068C06B4004400F10BC704760
:100CB000C06B400010BC400F704730B4724B1D2217
:100CC0001C689201A218146A01252C4314624A0779
:100CD0000724520F24031103012809D01128186892
:100CE0000ED0806BA04308431968886330BC7047FE
:100CF0001868C06BA04308431968C86330BC7047CC
:100D0000C06B072109078843110708431968C863A6
:100D100030BC70475C4902460B681D2100208901E8
:100D200059180B6ADB07DB0F08D0012A03D0112A00
:100D300005D0486900E0C8694007400F7047C8699E
:100D40004003400F704710B44F4B4A071D241968E9
:100D5000A401520F0919012808D011280DD04869A3
:100D6000C008C0001043486110BC7047C869C00883
:100D7000C0001043C86110BC7047C86907231B043A
:100D8000984312041043C86110BC7047042943D82B
:100D900070B53D4C1D23266800229B01F3181E6A86
:100DA0000546F607F60F0FD0012806D02068112D52
:100DB00007D0806B4004420F06E02068C06B4004FF
:100DC00001E0C06B4000420F1E6A2C460020F6076F
:100DD000F60F0CD0012C03D0112D05D0586900E07E
:100DE000D8694007400F02E0D8694003400F891AD4
:100DF0004418042C03DD091B091D042403E0002C06
:100E000001DA0919002451182846FFF756FF214638
:100E10002846FFF798FF70BD70471B491D230968DE
:100E20009B0101221204C9180028086A01D010434E
:100E300000E090430862704713491D230968024689
:100E40009B010020C918002A06D0012A06D0112AC9
:100E500001D18869000C7047086900E0886980B298
:100E60007047094902460B681D2100208901591865
:100E70000B6ADB07DB0F0ED0012A09D0086A112AA2
:100E80000AD0C00506E00000A0740100FFFF00FECC
:100E9000086A8005C00F70474005C00F70470246C2
:100EA0007B480168FF31FF310231C869C007C00FBC
:100EB000002ACA6902D001231A4301E052085200F5
:100EC000CA61704770B50646022902D3891E4D08D3
:100ED00000E00025022A02D3921E540800E00024FC
:100EE0001421184612F047F802466948012E04D032
:100EF0000068112E05D0674901E000686649401876
:100F000001E06649401801680F231B0499432B0731
:100F10001B0B19430F231B02994323071B0D194376
:100F2000090A0902D2B21143016070BD70B4584D74
:100F300007242E6824023419012803D0112803D075
:100F4000606A05E0606B03E01D24A401301940686D
:100F500004030505240F2D0FC0B2002902D0640040
:100F6000A41C0C60002A02D06900891C1160002BAF
:100F700002D014214843186070BC7047F3B591B09B
:100F8000002401270D467F036E4601E0082C08D29D
:100F9000601C810041180120800311F0ECFF401B10
:100FA00006E0E01F81004118384611F0E4FF401BC5
:100FB000002800DA4042A100641C7050102CE5D3D8
:100FC0000023009A012081007158914201DA0A46FB
:100FD0000346401C1028F6D311982D49012805D04E
:100FE0001128086807D0E521C90002E00868E72158
:100FF000C900411802E0E921C90041180A680B60E4
:10100000082A05D2521C900011180120800303E029
:10101000D21F90001118384611F0ADFF13B0F0BD8B
:1010200010B51B4A0721136809025918012803D07B
:10103000112803D0886A05E0886B03E01D2189012F
:1010400058188068082805D2401C810041180120EA
:10105000800304E0C01F810041180120400311F00B
:101060008AFF10BD0A490A680721C90151184A6A56
:1010700048621046704710B4054A072413682402DA
:101080001B1998601068C030016210BC70470000E6
:10109000A07401002407000034070000440700008A
:1010A00010B5FFF7DFF810BD10B5FFF7DBF801282A
:1010B0000AD10020FFF7CFF803210020FFF7D9F86D
:1010C00003210120FFF7D5F810BD10B5FFF7C2F8D6
:1010D000FFF7C8F801280AD10020FFF7BCF8032168
:1010E0000020FFF7C6F803210120FFF7C2F8012115
:1010F000052001F0D8FA0121052001F0D4FAFF49BA
:101100000020487010BD10B5602001F01DFB60206C
:1011100001F00DFB10BDF94A0146507A002800D0BD
:101120000120002900D0012151727047F34A9169D2
:10113000906108467047F14800210172C171704703
:10114000EE4800210172C1717047F3B50007BBB0D2
:10115000000F3B904000801E002501903B99280124
:1011600008430090FFF7DBF800283ED028467022A5
:1011700050433C9A0021841838224A43A318702215
:1011800000204A4302AE9219460087009E5B401C35
:10119000D6511C28F8D3491C0229EDD30098FFF73B
:1011A0006DFD012686400098FFF746FE0024009062
:1011B000002E1AD901980721401909024843D04945
:1011C00009684718702060433918CE487022081803
:1011D0000099E140C907C90F514302AA891870223A
:1011E000FFF71CF8641CB442ECD36D1C022DB5D380
:1011F0003DB0F0BDF8B50446FFF754F805460020B1
:10120000FFF72BFD8446012200209203002D17D901
:10121000702603467343BA4E002136689F19012396
:101220008B406646334205D08E00BE192388B6181F
:10123000A41C3360491C1C29F1D3401CA842E7D3ED
:1012400070204543AE48702100682818801811F0BE
:1012500090FEF8BD10B5A9494861FFF7E1F910BD4E
:1012600010B5A94801688968A84A114302689160CD
:1012700001680968A64A00681143016000F068FD32
:1012800010BD70B5A04A064610680C4681689F489C
:10129000014310688160106800689D490843116827
:1012A000086000F055FD954D002C34D00020FEF76D
:1012B000D2FF2068002804D0FFF759F80020FEF77D
:1012C000CAFF30466E61FFF7ABF90020FFF727F841
:1012D000002810D06068002801D0FFF78BFFE1687C
:1012E000002908D0864803230068FF225B030132EF
:1012F000C018FEF793FF0120FFF711F8002804D172
:101300001120FFF70CF8002805D0A168002902D0B1
:101310000120FFF71AFF00202872E871A861687A9F
:1013200000206872602001F00FFA602001F0FFF9E0
:1013300070BD10B50020FEF78EFF00F0EEFC724885
:1013400001680968734A89088900036811431960B4
:10135000016889680223994300681143816010BDC8
:1013600010B5602001F0E7F910BD10B5602001F064
:10137000E2F9FEF777FF01280AD10020FEF76BFFA4
:1013800003210020FEF775FF03210120FEF771FF06
:1013900061480168496C012212040068914341646C
:1013A0000020FEF758FF00F0B8FC574801680968B4
:1013B000584A8908890003681143196001688968DF
:1013C0000223994300681143816010BD4B48406976
:1013D00070474A480078002800D00120704770B557
:1013E000FEF740FF00280FD1444D00242C72EC7111
:1013F00003212046FEF73DFF03210120FEF739FFC0
:101400002C700120FEF727FF70BD10B5FEF72AFFF4
:1014100000280DD1394C2072E0710321FEF729FF1D
:1014200003210120FEF725FF01202070FEF713FFA6
:1014300010BD10B50020FEF70EFF10BD10B52F49EE
:101440000020C8710120FEF706FF10BD2B49C861BE
:1014500070472A48C069704770B5284C0025E0697C
:10146000401CE0612078002802D00020FEF7F3FE47
:1014700002212846FEF7FDFEA169002901D0284679
:1014800088472648016820221143016070BD70B56D
:101490001A4C0125E069401CE0612078002802D048
:1014A0000020FEF7D8FE02212846FEF7E2FEA169E1
:1014B000002901D028468847184801682022114396
:1014C000016070BD16487047164870470B48006AA7
:1014D00070470A48406A7047F0B49C460024104E9A
:1014E00087B0631E104F335500253D55641C1D2CDD
:1014F000F8DB002400281DD9155D17E0B80800208E
:10150000B8740100704E0000A8740100020034128B
:1015100003003412000034129C740100E40800201F
:10152000C80A0020E50A0020010B00203555641C84
:101530008442E1D300221446002813D9B556002D69
:101540000DDB012D01DA1D4604E0092D01DA13350A
:1015500000E0093D1C2D02D20127AF403C43521C44
:101560008242EBD30020024601273B4693402342B0
:1015700003D06D46A854401C03E00025ED436B46A4
:101580009D54521C1C2AF0DB0022002818D9551E3D
:10159000B356002B11DB012B01DA2B4604E0092B9B
:1015A00001DA133300E0093B1C2B04D26C46E45CE7
:1015B000F74B9C5401E0F64B9D54521C8242E7D3FA
:1015C0000023F44A002813621A4609D9F04CA556A4
:1015D000954202D0EF48046202E0521C8242F6D3E8
:1015E000ED4CEE4A00200023DB4323540023135428
:1015F000401C1C28F7DB0020002905D963461B5C32
:101600002354401C8842F9D30020034600290AD9FC
:101610002556002D04DB1C2D02D23E46AE4033433E
:10162000401C8842F4D300200146461E6F46012527
:101630008D401D4202D07854401C00E07E54491C6D
:101640001C29F4DB0021002809D96356002B03DB99
:101650001C2B01D2FB5C5354491C8142F5D3002161
:10166000CC4B0028596203D954568C4203D05A629D
:1016700007B0F0BC7047491C8142F5D307B0F0BCFD
:1016800070478721C9004843C549401870475E210B
:101690004843C4494018704710B4BE4C012BA07099
:1016A000E17003D9401C40084000114641432071BD
:1016B0004900A1814000E08110BC7047B54A5071DB
:1016C00091717047B34880797047B248407970474C
:1016D000B54A107051707047B349085C7047F8B54F
:1016E000AC4D0446687A002802D1E87911F0C1FFB8
:1016F000287A00281ED000266869334632463146D3
:10170000870707D5A64E470704D5AB8937465B0840
:101710005B00DB19C70704D0C00601D5A14900E072
:10172000A04AE8696660A360E26021612060002051
:1017300060610120F8BD9749002008727047F8B534
:101740000446FEF7AFFD00900020FFF786FA05463D
:1017500000990020002919D90126B70370230246F9
:101760005A43924B00211B68D31832468A402A42C2
:1017700005D08A009A18D21912882280A41C491C0C
:101780001C29F2D30099401C8842E7D3F8BDF8B574
:10179000FEF788FD00900020FFF75FFA0099002215
:1017A00000291FD90125AE03FF273F0170241346EE
:1017B00063437E4C002124681C192B468B40034256
:1017C00009D08B00E3189B191B881B051B0DBB421E
:1017D00001D90020F8BD491C1C29EED30099521CE8
:1017E0008A42E3D30120F8BDF3B50007000F81B0B2
:1017F0000025019001982E0106433046FEF78FFD2B
:1018000000283BD03046FFF739FA012484403046A7
:10181000FFF712FB844628467021484302990022B4
:101820004018009007212846090248435F4909688B
:10183000401886460026002C08D96046F040C007B4
:10184000C00F904202D0761CA642F6D3A64212D216
:101850003821009851434318702700217E43704679
:1018600080198E008719524EBE194F00368E491CC2
:10187000DE531C29F5D3521C022ADBD36D1C022D2A
:10188000B8D303B0F0BDF1B5000782B0000F0290ED
:101890004000801E0024009002982701074338462C
:1018A000FEF73DFD002830D03846FFF7E7F9012567
:1018B00085403846FFF7D1F90022002D25D900993F
:1018C000072309191B025943384B1B68C9188C465A
:1018D0007023002153436646F61801238B400342D0
:1018E0000DD08B00F718324BFB181B8E1F05FF2302
:1018F0003F0D1B019F4202D9002003B0F0BD491CDF
:101900001C29EAD3521CAA42E2D3641C022CC3D382
:10191000012003B0F0BD70235943244B80001B68A5
:10192000C918081801218903401802607047702205
:1019300051431E4A80001268891808180121890342
:101940004018008880B27047FFB518480D460068FF
:10195000012183B0890340181F4616460C9C019054
:10196000FEF780FC0090002802D00020FEF773FCF8
:101970000020FFF772F98446E8198646A8422BD961
:10198000284670225043019A00218718039B1CE0CF
:10199000010B0020B8080020E50A00201E0B0020E3
:1019A0003C0B0020740F0020C2080020B874010016
:1019B000404E000001229A406046024204D0228834
:1019C0009800A41C3A50491C5B1CB14201D21C2B4C
:1019D000F0D36D1CAE45D3D80098002805D08D49B2
:1019E0000020C8710120FEF736FC07B0F0BDFFB53E
:1019F000074689480E460068012183B089034018D4
:101A00001C460C9D0190FEF72DFC0090002802D092
:101A10000020FEF720FC30198446B04218D9059802
:101A20007E4B3A1830467021484301993C46411894
:101A300007E018571C2803D28000085A2880AD1CE4
:101A4000641CA24201D91C2CF3D3761CB445E9D8FE
:101A50000098002805D06F490020C8710120FEF7CA
:101A6000FAFB07B0F0BDFFB56B480C4600680121DA
:101A700083B0890340181F4616460C9D0190FEF75F
:101A8000F1FB0090002802D00020FEF7E4FB0020CC
:101A9000FFF7E3F8E1198C46A14216D922467027D8
:101AA0007A43019F0021D719039B07E001229A4046
:101AB000024202D09A00BD50491C5B1CB14201D2C7
:101AC0001C2BF3D3641CA445E8D80098002805D04B
:101AD00050490020C8710120FEF7BDFB07B0F0BDE2
:101AE00010B5FFF72FF84B49088210BD70B50446BA
:101AF0000F204849000225460540098AE0B2884285
:101B000000D908466422504311F035FA290A6422AC
:101B10005143081880B2E10401D500B270BD4042C3
:101B200000B270BD002803DA404281B2002002E01A
:101B300081B2012000030F2212020A400243C8B200
:101B40003449098A4843000A1043704710B5002001
:101B5000FFF722F810BD10B5FFF75FF910BD70B5A3
:101B60000020FFF719F82C480122006892032C4945
:101B7000801811F0FEF90020FEF719FF0021084639
:101B8000FFF79BF800210120FFF797F800211120B3
:101B9000FFF793F800210846FFF7D5F80021012050
:101BA000FFF7D1F800211120FFF7CDF80120FEF753
:101BB00014FF04460120FEF76CFF06461120FEF7D5
:101BC00068FF0546A64200D92646A54200D925460B
:101BD00031460120FEF76EFF29461120FEF76AFF0D
:101BE0000020FEF70DFD70BD10B50A4902204861C6
:101BF000FEF716FDFEF7DEFF074801220068E72129
:101C000092030901801811F0B4F90020FEF7CFFE0D
:101C100010BD0000B8080020B8740100E50A0020DB
:101C2000701C0000F0B46049012482B0002802D08A
:101C30000020087000E00C705C4E306800685C4A60
:101C40001043326810600A785A4D5B4B002A0ED060
:101C500019685A48C86019685948886018688068C7
:101C60001821084319688860012000900EE0196867
:101C70005448C860BB2019684004886011E0019591
:101C80000198411E01910028FAD10098411E00914F
:101C90000028F4D1186880680121090308431968F5
:101CA00088600120009006E001950198411E019195
:101CB0000028FAD10098411E00910028F4D118683C
:101CC000C068302108431968C86018688030016B0B
:101CD00021430163009405E0019501994F1E01978E
:101CE0000029FAD100994F1E00970029F4D11968F4
:101CF000CC6707211B680902196100218160002A55
:101D000000D0446130680068042188432E490843AC
:101D10003168086002B0F0BC704727480168C968A4
:101D2000302291430268D1601F490978002905D00B
:101D300001688968254A0068114081601B4908686C
:101D4000006804229043204A0968104308607047E5
:101D5000164801680968164A006811430160124874
:101D600001781548002905D001688968184A11438F
:101D7000026891600168C968302211430268D1602D
:101D800000688030016B0122114301637047000637
:101D90001049000C0843084909680864704706495F
:101DA0000D48096808647047E0080020A874010025
:101DB00004003412E2040000A4740100057601005E
:101DC0002000760105F4010000003412E7EFFFFF68
:101DD0001810000013005FA000005FA010B4474877
:101DE00045490268916103688A1CDA6103684A1CEC
:101DF0005A6303681B6804689B089B000B432360BD
:101E000003685B695B085B000B4301684B61016819
:101E100009691143026811610268394991600068DB
:101E20003849C16038490020086010BC7047364905
:101E30000868002802D000220A60704730BFF7E728
:101E400010B42D4C304B2D49621C1868002803D06B
:101E50000021196010BC704772B6086844630868B6
:101E6000826120BF086884610868426362B6BFF37C
:101E70006F8FBFF34F8FE8E72048016809681E4A5B
:101E80008908890011430268116002681F49916046
:101E9000016809691E4A00681143016130BF70473B
:101EA00072B615491548026851630268C91CD161B0
:101EB0000068891E816162B6704710480168096830
:101EC000144A00681143016070470C4801680968B2
:101ED000094A89088900006811430160704772B699
:101EE00005490648026891610268891CD161006851
:101EF000491E416362B6704700003412A8740100A5
:101F00003C00341228003412E40800200800341287
:101F100001003412030034127047002800D0012061
:101F2000A5490968486070470022002907D908C8F8
:101F30005B1C01D000207047521C8A42F7D301205D
:101F4000704770B400242346002A0FD920C89E0091
:101F50008E59B54201D0641CA4B25B1C9BB2934263
:101F6000F4D3002C02D070BC0020704770BC01205C
:101F70007047F8B5054600F0FEFF00208E4E07467C
:101F80003268212111602F603168096804223368AA
:101F900011431960316809681142FBD1412132684F
:101FA0008901116040232C46002104CC521C07D02B
:101FB00031680F60401CC0B20828E1D30220F8BD90
:101FC000491C9942F1D3306807600120F8BDF8B58B
:101FD000054600F0D0FF0020774E07463268092101
:101FE00011602F6031680968042233681143196059
:101FF000316809681142FBD101239B022C46002164
:1020000004CC521C07D031680F60401CC0B20328BA
:10201000E4D30220F8BD491C9942F1D3306807602F
:102020000120F8BDF3B581B00420009000F0A3FFBB
:10203000614E022031680860029901980F220B4618
:10204000B8CBB8C0103810301031521EF7D23068FB
:102050000068042108433168086030680068400760
:1020600005D500BF00BF306800684007F9D431686B
:1020700000200860029901980F22034678CB0F6870
:102080009F4208D14B68A34205D18B68AB4202D175
:10209000CB68B3420BD00098401E0090401C03D088
:1020A0000198FFF766FFC1E7022003B0F0BD1030D2
:1020B0001031521EE1D2012003B0F0BD70B50D46C3
:1020C000044600F058FFFF22013221462846FEF761
:1020D000A5F8012070BDF0B505460006C5B0144650
:1020E0000E46000E27D0280A000204A90090029193
:1020F000019000F040FFFF2701373A46019902980E
:10210000FEF78CF8E8B23F1AA74200D9274604A987
:1021100008183A46314610F0C4FE0098FFF729FF30
:10212000022842D004A90098FFF77CFF02283FD084
:10213000ED19F619E41BFF2C19D9FF2701373A4690
:10214000314604A810F0ADFE2846FFF712FF022822
:102150002BD004A92846FFF765FF022828D0FF35B9
:10216000FF36FF3C01350136013CFF2CE7D8002C3F
:1021700018D004AF00F0FFFEFF2201322946384696
:10218000FEF74CF82246314604A810F08AFE284695
:10219000FFF7EFFE022808D004A92846FFF742FF08
:1021A000022805D0012045B0F0BD0A2045B0F0BDA1
:1021B0000B2045B0F0BD00008C74010010B52B4918
:1021C0000A6810600968086100F019F810BD10B5C0
:1021D00026490A6810600968486100F010F810BDCF
:1021E000224909684867704720490968886770472D
:1021F0001E480121026811660068016570471C4A8B
:102200001168096BC30702D003239B03994383071B
:1022100005D503231B03994301231B0319434307DC
:1022200003D503239B0299431943030703D50323D3
:102230001B0299431943C30602D5C023994319438E
:10224000830602D5302399431943430602D50C2354
:1022500099431943000603D58908890003200143E7
:102260000448014310680163704700009474010042
:102270009C74010000005FA0E24801688A68E2499E
:1022800003680A439A600268D2680A430168CA6018
:1022900001684969DD4A006811434161704710B423
:1022A000D84801684969DA4B49084900026819436E
:1022B00051610168C9684022914304681943E16093
:1022C00001688968006891431943816010BC7047B8
:1022D00010B5CC4C20688168CB48226801439160DE
:1022E0002168C96801432068C16020684069C74906
:1022F000084321684861C7483F210268D1600068EF
:102300000021816303210A2000F0CDF90A2000F0AA
:10231000EBF920684069BE4A40084000216810433C
:1023200048612068C0684021884323681043D86012
:1023300020688068884321681043886010BDB54AD2
:1023400013681860136859604843116888607047C3
:10235000B04A13681860136859604843C10700D039
:10236000401C116888607047AA490A689063086831
:10237000C068022209681043C860704730B4A54C99
:102380002568286220684162206882622068C362F2
:102390002168012008632068406BC10707D000BF97
:1023A00000BF00BF00BF2068406BC107F7D18007A6
:1023B00030BCC017704797480168C968022200689E
:1023C0009143C160704793480168C9680122006861
:1023D0001143C160704710B48E4B1C6820621868AE
:1023E0004162186882621968012008641868406CAC
:1023F000C10707D000BF00BF00BF00BF1868406C16
:10240000C107F7D14007800F01D00020C04310BCA6
:10241000704780480168C968006849084900C16080
:1024200070477C480168C968042200681143C16094
:102430007047027C017B9206920A1143754A136829
:102440009965136801685962136841689962136855
:102450008168D9621368012119651168496DCB073C
:1024600007D000BF00BF00BF00BF1168496DCB0798
:10247000F7D11368DB6D83821368DB6D1B0CC3829D
:1024800013681B6E038313681B6E1B0C4383136856
:102490005B6E83831268526E5200520CC2838807AF
:1024A000C01770475B480168C968042200689143FF
:1024B000C160704757480168C96808220068114325
:1024C000C160704730B4534C2568AA672268106217
:1024D00020684362206881622168012008672068C3
:1024E000406FC10707D000BF00BF00BF00BF20681A
:1024F000406FC107F7D14007800F01D00020C043D3
:1025000030BC704743480168C9680822006891439D
:10251000C160704710B40378C278194643783D4CC7
:102520001B02194383781B0419431206114310221E
:102530002368D14180339961011D0A7810464A7899
:10254000120210438A78C97812041043090608431E
:10255000D8612068C068202108432168C86010BC89
:1025600070472C4A13681862106841621168012094
:10257000803108614869C20706D000BF00BF00BFB4
:1025800000BF4869C207F8D14007800F01D0002082
:10259000C04370471F480168C96820220068914302
:1025A000C16070471B480168C96810220068114368
:1025B000C160704730B4174D5B1F2C688034A36036
:1025C0002B681862286842622868816201202060B6
:1025D0006068C10706D000BF00BF00BF00BF6068D1
:1025E000C107F8D14007800F01D00020C04330BCA4
:1025F000704708480168C968102200689143C160AB
:1026000070470000A8740100400034120100341229
:1026100000003412AC74010010B51F4902200A6892
:1026200010650868012202660B68102058670B6865
:102630001A4858660B6800209866086880308260E7
:1026400090234360436813434360FF200A680330CC
:10265000106609680866032000F046F80021032090
:1026600000F021F8002010BD10B5032000F046F85E
:102670000948FF21026801311166026800211166D4
:10268000026810219167006802214165002010BD99
:10269000034900200870704798740100061000007C
:1026A000E808002070478207D30EFF229A409B1D46
:1026B000994003071B0F9B089B00002808DA2F484E
:1026C000006818184369114093430B4343617047F6
:1026D0002B4800681B1803200002181803681140DB
:1026E00093430B4303607047C206D20E0121914011
:1026F000234A40091268800011507047C206D20E6A
:10270000012191401E4A40091268800080188030E3
:1027100001607047C206D20E01219140184A40095B
:10272000126880008018FF308130016070471449C2
:10273000096808607047124909688031086070476D
:102740000F480068006870470D490968FF31813102
:1027500008607047094800688068704707490A6840
:1027600092680968886010467047044A1268926847
:1027700010308300D058D150704700008874010099
:102780008474010010B502210C20FFF78CFF10BDEE
:10279000B04801688A68B04903680A439A600268D1
:1027A000D26800680A43C260704710B4A948016843
:1027B0008B6801221203A949934304680B43A36069
:1027C0000368DB68006893430B43C36010BC704729
:1027D000A34982B00868006F800517D57D20C0002E
:1027E0000090421E0092002805D00868006F800506
:1027F00001D51046F5E76420009003E00868006FFB
:1028000001901046421E00920028F7D10868006F20
:10281000800502D40A689348106609689248886661
:1028200002B070478E498D220B6892019A660A6841
:10283000126F0B68DA6600043722000A120680184D
:102840000A68506691220868120680300260BFE76D
:10285000834982B00868006F80051FD57D23DB00A7
:10286000019301980246401E0190002A03D0086897
:10287000006F8005F5D40868806EC0070ED00A6826
:10288000803250680193009001980346401E0190E9
:10289000002B03D05068009B9842F5D08D2009682A
:1028A0008001886602B070476D480068806EC0077E
:1028B000C00F70476A480068406E0002000C704705
:1028C0006748006880304068704710B50C20FFF7FB
:1028D00021FF0C20FFF708FF6149022009684867C3
:1028E00010BD10B55E490320096888670C20FFF70A
:1028F00005FF0C20FFF70EFF10BD5C4A1168106049
:102900000846704710B556480168096F0068C166EF
:1029100056480068002800D08047554801680122C9
:1029200012031143016010BD50484068704710B554
:10293000484801688A68484903680A439A600268FF
:10294000D26800680A43C260454C0320216888674A
:102950000C20FFF7D3FE0C20FFF7DCFE00F07AF925
:10296000444B04211868803081604349C16072B6CD
:102970008D202168800188662068006F2168C86604
:1029800021683E4848662068912109068030016030
:10299000FFF71EFF012019684002086662B610BDED
:1029A00070B572B6FFF754FF32480121026849043E
:1029B000116662B60068FF30FF3002304068254D76
:1029C000002830D02C49294C091AA1602868806958
:1029D0002A680007D269000F1207120F8018001D25
:1029E0008140274881421ED91D48006880304068D8
:1029F000244A161A300410F0BEFAFF21CA314843A7
:102A0000214BE6602061596819609A685A609860A5
:102A100091421AD9814205D9824201D9626002E00D
:102A2000606000E0616000F026F92868806801219C
:102A300009030A4A88432B68104398602868C068D5
:102A4000884329681043C86070BD8142EAD8824239
:102A5000E6D8E3E7A8740100001034120000341235
:102A6000B474010071C0000041230000EC08002094
:102A7000E4080020B0740100FFFF000000FFFF37F2
:102A800030750000010001000009002014480168B1
:102A90008968144A006811438160134801684969D4
:102AA000012252021143026851610168096904223E
:102AB000114302681161016809691022006811431D
:102AC000016170470849096888607047BFF34F8FFC
:102AD000054906480968C860BFF34F8FFEE700004C
:102AE000A874010004003412887401000400FA057F
:102AF000264801688968264A006811438160254894
:102B00000168496901221143026851610168096B3A
:102B1000032212039143204A1143026811630168A2
:102B2000096A03680A091D4912010A431A621C4A0C
:102B30008B1E1268C03253600068016570471548EB
:102B40000068006970210840704712481549026802
:102B500011630268144951630168496C01225204EF
:102B60009143026851640168496C104A114302683C
:102B700051640168496C0122120400689143416468
:102B8000704704480068406870470000A87401005E
:102B9000040034129C74010000205FA003005FA0B9
:102BA000A4740100C08C5FA095995FA0FF03000092
:102BB000022801D300207047A24B820098589950F8
:102BC000704770B5A04C2068006F9E4DC00706D0BE
:102BD00021680120C8662868002800D08047206846
:102BE000006F800706D521680220C8666868002843
:102BF00000D0804770BD10B5944801688A68944938
:102C000003680A439A600268D2680A430168CA608E
:102C10008D4902220B681A650C68012323660C6833
:102C20000323E36609684A65016889688023894A45
:102C3000994304681143A1600168C9680068994319
:102C40001143C1600920FFF74FFD02210920FFF762
:102C50002AFD10BD7D4801688A687D4903680A43E2
:102C60009A600268D26800680A43C260764902200E
:102C700009680865704710B47349022009684865FF
:102C8000724801688B688021724A8B430468134341
:102C9000A3600368DB6800688B431343C36010BC08
:102CA00070476A48006880680006C00F7047664831
:102CB0000168096F890504D50321006809020166CE
:102CC0007047FF21006801310166704770B55E4DA5
:102CD0002868C06F800703D529680320486702E091
:102CE00029680120486700F0DFF858490A689269AE
:102CF00009681207120FC969D0400907090FC840B7
:102D0000052110F038F92C688521890080340009EC
:102D1000216010F072FA504A504B10F071FA10F026
:102D20001FFA60602868006F800504D503202968B9
:102D30000002086670BDFF2029680130086670BD7A
:102D400041480168096FC90504D5032100680902DB
:102D5000016670470121006849020166704770B53D
:102D6000394D2A68D26FD20703D02B6803225A67E5
:102D700002E02B6802225A677D23FF22DB002D32FE
:102D800058434A43401AA021484302260024801891
:102D90000A2110F0F0F82D490A68926909681207B3
:102DA000C969120F0907090F5118C840052110F011
:102DB000E2F82B49884204D9641C4008E4B28842F6
:102DC000FAD83202224310210A43296880318A60EE
:102DD000C8602868006FC00504D503202968000278
:102DE000086670BD012029684002086670BD16485B
:102DF0000168096F890304D503210068090401668D
:102E00007047012100680904016670470E48016897
:102E1000096FC90304D503210068090401667047DE
:102E20000121006849040166704707480068006F87
:102E3000C005C00F704704480068006F8005C00FD0
:102E4000704700000C090020B0740100A874010054
:102E500080003412000034127B14AE47E17A843FC4
:102E6000FFFF0000234900200A689060096808609D
:102E700021494860704710B51E4C216848602168A0
:102E8000002088600221401EFFF70DFC216807200A
:102E9000086010BD1749002009680860704716488F
:102EA0000188491C01807047134880687047F8B555
:102EB000114E0027044637807D21C900B06810F00C
:102EC0005AF80C4D401E2968486028688760022126
:102ED000C81EFFF7E8FB2968072008603088A04279
:102EE000FCD328680760F8BD04494843024988605C
:102EF00070470000807401001409002040420F0058
:102F0000704770B5234C05468D2021688001886686
:102F100021680320C86621681F48486621681F4849
:102F2000086620681E498030016021681D48886657
:102F300021680120486702210020FFF7B4FB002030
:102F4000FFF7D2FB002D05D02068806E164908439C
:102F50002168886670BD10B50E480121026891672E
:102F60008D210068890181660020FFF7C7FB0020E2
:102F7000FFF7D0FB10BD074908480968086670478D
:102F800004480649026811660168096F0068C16655
:102F9000704700009074010007E1E43771C0000041
:102FA00000707291462300004123000070B5FA4C76
:102FB000002501262570B60265703146F7480FF0EE
:102FC000D8FF3146F6480FF0D4FF6560A570382170
:102FD000F4480FF0CEFF3821F3480FF0CAFFE57038
:102FE0005821F2480FF0C5FF5821F1480FF0C1FFFA
:102FF000A56070BDE8488078002800D001207047A7
:10300000E548C078002800D001207047E2484078A9
:10301000002800D001207047DF4880687047F1B574
:10302000DD4E3178002901D0E24800E0E248002975
:10303000047801D0E14800E0E148274605786F4375
:10304000FFF71AF929462046FFF779F9D349D44A00
:103050000846009BFFF792F9FFF721F97A00D04864
:1030600000990FF01EFF01207070F8BDCA4840683B
:103070007047F0B5FFB0C84CFFB091B060780990D0
:10308000A0780890E778FEF70BF80D90FEF7A1F90D
:103090000C90FEF709F80020FDF789FC0B90FEF775
:1030A000B4F90026069603F007F901280FD06C4604
:1030B0002046FEF714FB002872D0204603F077FD6F
:1030C000029800281FD00898002803D01BE0012098
:1030D0000690E2E0029DFFF7CFF8BA4C012120787C
:1030E000FFF72DF9AF492B46AF4A0846FFF746F9DF
:1030F000FFF7D5F8207829464200AB480FF0D1FE03
:10310000A54901208870019800286BD009980028F3
:1031100068D1A148019C007800283AD19E484568B2
:10312000002D20D0A3480178A4480A910178079186
:10313000FFF7A2F807990A98FFF70AF921462A46ED
:103140000846FFF748F9FFF7AAF89F4800780228D9
:1031500002D1284603F009FB9B480078092802D1D8
:10316000204603F002FB99480078012811D9964DBA
:103170002878042802D1204603F0F7FA21460EA849
:1031800010F0E6FE04462878052802D10EA803F0C8
:10319000ECFA814A0A941078002802D0854901E0AF
:1031A00078E0854900280C7801D0844800E0844804
:1031B0002546007807904543FFF75EF820460799BB
:1031C000FFF7BDF87549764A08460A9BFFF7D6F81F
:1031D000FFF765F86A0072480A990FF062FE6E49BF
:1031E00001204870049800284CD0002F4AD1044692
:1031F00069480078002828D167488568002D24D0C8
:1032000073480178734800780818401C40080F90F4
:1032100002200E90FFF730F80E990F98FFF798F8FC
:1032200021462A460846FFF7D6F8FFF738F86A48DD
:103230000078022802D1284603F09CFB66480078FB
:10324000092802D1204603F095FB61482546017804
:10325000604800780C18FFF70FF8601C4008022146
:10326000FFF76DF851492B46514A0846FFF786F89B
:10327000FFF715F8620029464D480FF012FE464947
:103280000120C870FEF757FA761C032E05D2FEF710
:10329000BCF808E700F0B5F905E7FDF705FF0B9866
:1032A000FDF785FB0D98002807D00C98002802D068
:1032B000FEF7ABF801E0FEF792F80698002805D07B
:1032C00035490998487008988870CF7006987FB083
:1032D0007FB011B0F0BD10B50024FEF777F82E498D
:1032E000820709D54A78002A00D10124420703D574
:1032F0008A78002A00D10124C20705D0C00603D570
:10330000C878002800D101240020002C02D00870C9
:10331000FFF7AFFE10BD08B50F2100F00BFA012832
:1033200004D1FFF7D8FF009000F01AFB1A4841784B
:10333000002907D0C178002904D08078002801D066
:10334000012008BD002008BDE5E7704712490020B4
:1033500048708870C870704710B50F480078002812
:1033600001D0144900E014490028097801D013481D
:1033700000E01348007841434A0008490848FCF738
:103380004DFF10BDFFB5044981B009780A980029A6
:1033900024D0084923E0000020090020D40F002099
:1033A000D4130020D41700200C180020441800204B
:1033B0009C180020310900202E090020320900202D
:1033C0002F090020350900209D0900203009002028
:1033D0003309002034090020A20900205D49C71AE2
:1033E0000C781E4625467D436643FEF745FF394669
:1033F0002046FEF7A4FF01997000471856493B4646
:1034000046185649324640180146FEF7B7FFFEF708
:1034100046FF6A00394630460FF043FD504801210F
:103420004170084605B0F0BD4C487047F8B54C4DAA
:10343000044601462878494B4A4E002801D032788C
:1034400001E0444A1278484F002802D047480078EB
:1034500000E038784243520018460FF022FD2878E9
:103460003D4B2146002801D0327801E0394A1278DC
:10347000002802D03D48007800E0387842435200EE
:1034800018460FF00EFDF8BD002800D00120344989
:103490004870704732494860704710B53448354924
:1034A000007842003448FCF7B9FE10BD314870473F
:1034B00070B52F4C05462078294642002D480FF064
:1034C000F0FC2078294642002B480FF0EAFC70BD42
:1034D000002800D0012022498870704710B5274885
:1034E0000178274800780818420026492648FCF74A
:1034F00095FE10BD2348704770B5204D204E044600
:1035000001462A7830781F4B1018420018460FF0F9
:10351000C8FC287832781C4B801842002146184697
:103520000FF0BFFC70BD002800D001200C49C8700E
:1035300070470B498860704710B500220849002881
:103540004A708A70CA7000D001200870FFF791FDA0
:1035500010BD00002E090020D4130020D40F00203D
:1035600020090020310900202F0900203209002005
:1035700035090020D41700200C1800203309002042
:1035800034090020441800209C18002010B504F0D5
:10359000B9FE04F027FF002010BD0000F5480078B8
:1035A000704710B5F3480078022803D0052804D0EE
:1035B000002010BD06F0F5FB10BD03F061FC10BD4E
:1035C000EC490870704710B50446062818D203006D
:1035D0007B441B79DB189F441102060E110A084632
:1035E00000F0D8F90AE0084606F0CFFB06E00846EE
:1035F00003F03AFC02E0084606F09AF9DD48047050
:1036000010BDDD4900200968496EC90503D510B514
:10361000FEF70DFC10BD7047D74900200968496EC0
:10362000C90503D510B5FEF70BFC10BD7047D24994
:1036300000200968496E890503D510B510F066F8B9
:1036400010BD7047CC4900200968496E490503D573
:1036500010B510F08AF810BD7047C64948780028A8
:1036600001D0401E4870704770B5C4480168C03131
:10367000C868C04C820707D0C14A10438860607890
:10368000002801D101206070BE4800688068BA4DF2
:103690008007296807D4BC4800684069C00702D089
:1036A0006078002806D0496E0020C90508D5FEF7CD
:1036B000C7FB05E0496E0020490501D510F055F81B
:1036C000B249084204D02968496E0902090E6170A6
:1036D00070BD10B572B6FFF73EFCFFF7F7F910BDED
:1036E00010B5FF204002FEF744FC72B6FFF733FC32
:1036F000FFF7ECF910BD9F48006970479D48C0680E
:1037000070479C49486170479A4840697047994999
:103710008861704797488069704710B5964802687D
:103720001346118A508AFF33FF3261334132FDF76D
:10373000D3FE10BDF0B58F4E99B00D46306104F048
:1037400041FDF060040031D02078B0706178F170F4
:103750008C46A378411CFE22337111407171E278CE
:10376000B2712179F17161793172894900270F7045
:103770004F70217871726146FDF78EFF317AF079D2
:10378000FDF79CFF08A9204604F038FD608A7769A0
:10379000002801D047433F0B7648012180690790FC
:1037A000608B090300280BD005900AE0724800687E
:1037B000406EC00501D5FEF743FB002019B0F0BDF7
:1037C000059100200691A90700D51120690701D5B0
:1037D0000A210843290701D504210843E90701D03C
:1037E00020210843666A69460640089800900C98B4
:1037F00001901098029000200490099803903046A0
:10380000FDF73FFDB00758D504F013FA05001DD0B1
:1038100004F025FA47433F0B29460020FDF7EEF858
:10382000218A002902D00020FDF744F904F036FA7D
:10383000079908254143080B0121C9024018010AD4
:1038400001221046A840084206D103E0A589002DB8
:10385000E2D1E5E76D1EF4D5A07B2D1F002801D035
:10386000401E02E00020FDF709FA0790E07B0028E7
:1038700001D0401E02E00020FDF74CFA07994919DB
:10388000042903DD6D1A2D1D042103E0002901DA4E
:103890006D1A00214519042D03DD2D1FEF4004256D
:1038A00004E0002D02DA6842874000250020FDF781
:1038B00004FA29460020FDF746FAF00726D0A18A2F
:1038C000002902D00120FDF799F8258B002D07D0A3
:1038D00029460120FDF7EEF829461120FDF7EAF808
:1038E000A57D002D07D0691E0120FDF7E6F9691EB0
:1038F0001120FDF7E2F9E57D002D07D0691E0120BA
:10390000FDF721FA691E1120FDF71DFAE07A002863
:1039100002D00001FCF7F9FF0A9803F0C2FB0B98F4
:10392000002807D0044613483B46C27881782046D9
:1039300003F0C4FB3846069A059903F01CFC0D9869
:10394000FFF7A8FD0E9800F016FFF00605D51198B8
:10395000FFF7EFFD129800F0BBFF012019B0F0BD9A
:1039600010B5FDF702FD03F0A6FB02490020C86078
:10397000012010BD2C090020180A0020A4740100A9
:1039800000005FA0A87401009C74010008000300FF
:1039900036090020F74948707047F648407870476C
:1039A00010B4F548F54A016891420FD1FF224168F1
:1039B000013291420AD80022034611468C001C595C
:1039C000491CA2180829F9D3002A00D0002010BCF5
:1039D000704710B5E848FEF7CCFA10BDE549012064
:1039E00048707047E349002008707047F3B5E1B0B4
:1039F00000203C904A90499072B6FDF7E7FC0546DE
:103A0000FFF74FF9002809D0FFF70FFA4A90FFF7A8
:103A1000EEF9FFF710FA4990FFF7F8F9FDF720FCEF
:103A2000FDF73EFB5390FDF7D4FC5290FDF73CFBB5
:103A3000FEF73AFF5190FEF70BFF93204001FEF78F
:103A400083FE62B6002130AC8A000020491CA050E1
:103A50000629F9D3CA49012009688003AA070F186B
:103A60000126002A05DAE7210901384630960FF0D1
:103A700080FAC34AC3481268E9071518002910D014
:103A80000721490228460FF074FA0120FCF747FC91
:103A9000002800D032961120FCF741FC002800D00D
:103AA0003396309800282CD00020FDF7D6F80090EF
:103AB000B548694600780871B4480078012801D9F2
:103AC000B34800E0B348007848710020FDF7C9F919
:103AD000002801D00020C043039069466298887195
:103AE000A448808808810020FDF72CF869464881A9
:103AF000A348059701680691016801204003081852
:103B000007903198FF2700282AD00020FDF7A5F85C
:103B100008909D4808AA00781071567100200B90FB
:103B2000977194486A46808810850020FDF70AF84E
:103B30006A4650855079702102464A4390490B6885
:103B4000D318012292039A180D926A4612790968D5
:103B5000424350004018012149030E9040180F9035
:103B6000329800282ED00120FDF777F81090FCF74E
:103B700050FD002801D0884800E0884810AA00784D
:103B800010710120FDF77AF83146814010AA517179
:103B90000120FDF751F9C043139010AA75489771A1
:103BA000C08810810120FCF7CDFF10AA5081744815
:103BB0001595E7220168D2008918169100687849A6
:103BC000401817903398002831D01120FDF745F8A0
:103BD0001890FCF71EFD002801D0704800E06E48E8
:103BE00018AA007810711120FDF748F8314681407D
:103BF00018AA51711120FDF71FF9C0431B9018AA94
:103C000097715C4810AAC08810851120FCF79AFFB4
:103C100010AA50855A48634A016889181D91624A62
:103C2000016889181E910068604940181F900120A2
:103C3000FDF791FF0120FDF732F94F900020FDF7CD
:103C400075FA4E900020FDF766FA4D900020FCF7C3
:103C5000AEFE5090FDF7D9FB002042904190389085
:103C600039903C9800287DD102F026FB012879D0BC
:103C70004298802876D85AA8FDF731FD002872D0E6
:103C80005AA802F094FF4198401C41906CD000204B
:103C900041904298401C429000208300012154AA88
:103CA000401CD1500628F8D33898002806D00128A7
:103CB0005FD002287CD0032854D124E30020369022
:103CC00039980422101A8446369830A9800047900B
:103CD000085800286DD03698399A4101684608186E
:103CE00000213F910168449101793D9141793791DB
:103CF0000821415E409141693E918169C0684390CD
:103D00006046002A1ED000287CDB3798002500285A
:103D100077D9604608300122824060463B92C01D40
:103D20000122824046920120439AA840104000D0D0
:103D300001203A9028467026704300223E9E144689
:103D4000861986E03798002500285AD90120439A21
:103D5000A840104000D001203A90002004462A4696
:103D6000702602E004E3FEE2F7E272433E9E9619FB
:103D700040E086E04809002000F301005443524629
:103D8000B8740100704E0000310900203009002095
:103D9000320900202F0900203309002034090020B7
:103DA0003827000070550000B80A0000B82A00004B
:103DB0007DE15FE00122449B82401A4217D08200DD
:103DC0003B920027CF5F409BB25AFB1A3A9F641C7C
:103DD000891C92B2002F00D05B42002B02DD012330
:103DE0001B031A430123DB021A433B9BF250401C86
:103DF0001C2802D23D9A9442DCD337986D1C854230
:103E0000A4D32EE032E00120449B904018421DD004
:103E1000900045900027CF5F409B305AFB1A3A9F95
:103E2000641C891C80B2002F00D05B42C70402D5FD
:103E3000002B02DB03E0002B01DD3B9B9843634634
:103E4000002B01DD469B1843459BF050521C1C2A59
:103E500002D23D988442D6D337986D1C854200D259
:103E600061E76046002801D101203F90479954AA9C
:103E70003F9850503698401C3690062800D223E7D1
:103E800043E20020369039980822101A4C90369858
:103E900030A980004B900858002873D03698399A82
:103EA0004101684608180021439105794179066867
:103EB0003791837908213D93415E449141693E9158
:103EC000C3688169459340893D9B184046904C9852
:103ED0003A90002A1FD000287EDB002084463798C5
:103EE000002868D93A9A012090404090501E012243
:103EF00082404892624601209040459A104000D08E
:103F000001203B9060467023584300223E9B14469C
:103F1000C0183F9079E000208446379800287DD96A
:103F2000624601209040459A104000D001203B900D
:103F300060467023584300223E9B1446C0183F90B1
:103F400031E00120904030422AD090003F9B4090C9
:103F5000185A0027CF5F449B641CFB1A3B9F891CA7
:103F600080B2002F00D05B42C7040CD5002B12DAC0
:103F70000F231B02184001D0FF38013801231B0317
:103F8000184308E08CE0002B05DD0F231B021840CE
:103F900001D0FF38013880231843409F3F9BD85100
:103FA000521C1C2A01D2AC42CBD36046401C844632
:103FB00037988445B4D331E001209040304221D07D
:103FC00090003F9B4790185A0027CF5F449B641C8A
:103FD000FB1A80B2891C00E025E03B9F002F00D037
:103FE0005B42C70402D5002B02DB03E0002B01DD9E
:103FF000409B98433A9B002B01DD489B1843479F09
:104000003F9BD851521C1C2A01D2AC42D4D36046EB
:10401000401C84463798844500D26BE73A980028C4
:1040200001DD439839E0002084463798002832D9D2
:10403000FF213D980131081A40083F903D98084300
:104040003B9061467023594300203E9B0246CC18AA
:1040500019E001218140314212D081003A91615A28
:104060003F9F8BB2D9B279183B9F521C3940469F73
:10407000B94200D939461B0A1B020B433A996350D7
:10408000401C1C2801D2AA42E3D36046401C379949
:1040900084468842D5D3012043904B9954AA50506E
:1040A0003698401C3690062800D2F0E62DE100201C
:1040B0003690800030A94C90085800287DD039985F
:1040C000489036980822410168460818002144911A
:1040D0000168469101793F9141793B918179825EF6
:1040E0004092426947928669C2693E924589C0689A
:1040F0004590FF200130441A48980D40C00715D064
:10410000002037903B9800286FD9379901208840CC
:104110004599084000D001203D90379870214843D0
:10412000002247993A9240184390D0E00020FCF7D3
:10413000B6FE07463F993B9848434000C01C8208A2
:10414000920031463E980EF0ACFE3846FCF7A7FED2
:10415000002037903B98002847D9379901208840A4
:104160004599084000D001203D9037987022504377
:104170000021479A3A9180183E9044E00120469AE7
:10418000884010423CD03A980022401C3A90B25EDF
:104190004098B61C131A3D98002800D05B42880056
:1041A0003E9A4390105A82B21005D7B2000FBC4617
:1041B000D70403D5002B03DB05E09DE0002B02DDD7
:1041C00063461B1B01E063461B19AB4206DD0F284B
:1041D00002DA401C00230AE02B4608E0002B06DA36
:1041E000002803DD401E2B4601E07BE00023012771
:1041F0003F033A40000202431A43439B3E98C25099
:10420000491C1C2903D23F9A3A989042B6D337985A
:104210003B99401C379088429FD363E00120469928
:104220009040084250D03A980021401C3A903E9865
:10423000415E4098091A3E98801C3E903D980028A7
:1042400000D049420023F35E4098B61C181A3D9BEB
:10425000002B00D04042002901DA4B4200E00B461F
:10426000002800DA404298422ED99000439B4B90A0
:10427000185A83B21805DFB2000FBC46DF0402D51E
:10428000002902DB04E0002902DD6146091901E092
:104290006146091BA94206DD0F2802DA401C0021F5
:1042A00009E0294607E0002905DA002802DD401E62
:1042B000294600E0002101273F033B400002034361
:1042C0000B434B9943984350521C1C2A03D23F99ED
:1042D0003A988842A2D337983B99401C379088423D
:1042E00000D212E74898032801D2449801E0012047
:1042F00044904C9954AA50503698401C3690062849
:1043000000D2D6E601E001203C900123002054A910
:1043100082008A58002A04D0401C0628F8D3012BBA
:1043200002D03998401C17E038981F2813D2401C3F
:1043300001460122389010468840619908420AD10E
:104340003898401C3890032805D80146104688400C
:1043500061990842F4D0002039903C98002807D198
:10436000FDF753F880E4FFF757F93C980028F9D09F
:10437000FCF79AFE0020FDF7EEFB4F98FCF78FFD4F
:104380004E98FCF7D3FE4D98FCF7C5FE5098FCF70D
:104390000EFB5398002807D05298002802D0FDF752
:1043A00034F801E0FDF71BF8FEF77BFC002809D08C
:1043B0004A98002801D0FEF77AFC4998002801D0DD
:1043C000FEF7BEFC5198002801D0FEF701FA3C9898
:1043D000002802D0002063B0F0BD012063B0F0BD22
:1043E000F1B5FFB0FFB00020BEB006460290D1E0AC
:1043F000304603F0E7FE00287ED00489FFA8843011
:10440000006F0440FE48044276D00F213046FFF78B
:1044100091F9002870D0FCF7D9FF054602980028D2
:104420006BD128460E210840FCF714FF0321002021
:10443000FCF7ACFC029800285FD1E0071BD0FC2100
:104440000F20FFF7D3FA0290FCF72EFE0298002807
:1044500053D1FFF753F907460420019003A80090B9
:10446000FDF76DF92C20C157009A019803F0E6FE84
:104470000298002841D16007800F2AD00120FFF761
:104480005BF80290FCF710FE029800287FD1A0078D
:104490000ED5FEF7C9FF0746FFF730F92D2105239A
:1044A00041563A46184603F0C9FE029800286ED1DC
:1044B00060070ED5FEF7B8FF0746FFF71FF92E215C
:1044C000062341563A46184603F0B8FE02980028E3
:1044D0005DD1284611210840FCF7BCFE0298002857
:1044E00055D1E00620D5FF210F20FFF77FFA02907B
:1044F000FCF7DAFD029801E04BE048E0002846D1E5
:10450000FFF7FCF807460820FFA910310190009141
:104510000120FDF769F93020C157009A019803F096
:104520008DFE0298002832D16006800F2FD0012026
:10453000FFF702F80290FCF7B7FD0298002826D199
:10454000A00612D5E80603D5FEF7D4FF074600E023
:104550000027FFF7D3F83121092341563A46184680
:1045600003F06CFE0298002811D160060FD5E80612
:1045700002D5FEF7BFFF00E000200446FFF7BEF8BB
:1045800032230A2519562246284603F057FEFFF724
:10459000E7F9761C03F012FEB04203D90298002816
:1045A00000D125E79749002008700298002804D020
:1045B0007FB07FB000203FB0F0BD7FB07FB0012062
:1045C0003FB0F0BDF0B58F48C9B04578FEF7E6FFC3
:1045D00001287AD18C48362102683420515E105E61
:1045E00002F055FFA8075DD56C46FFF7D9F9002703
:1045F00000280CD001461EC96E461EC6836942695A
:104600000169C069069305920491079011E0FF22A9
:10461000202120460EF086FC7C480090FF200130CF
:104620000190202002905020039705970697079746
:104630000490774E3046FDF79CFC0598401C059091
:104640007448FFF7CDFE012826D007980022401CB1
:1046500007901F21022005F0D0F800206C4601468B
:1046600003978B00E258491C10180829F9D34742D8
:10467000FF22511C08A8E7600EF054FC2068A268D5
:10468000616808AB87C310340FCC0CAC0FC4304644
:1046900008A9FDF7C7FC11E0A12004900698401C72
:1046A0000690DAE7E80709D05B48FFF799FE002893
:1046B00004D101221F21022005F09FF8FEF746FEDB
:1046C00001212A46084605F098F801F0F1FD49B0AD
:1046D000F0BD4C49888070474A49C8807047F8B59A
:1046E0000126FFF75DF9002802D00069A12801D05A
:1046F0000020F8BD002403F061FD002835D9404FAB
:10470000204603F05FFD00282AD00589284638425C
:1047100026D00F212046FFF70DF8002820D0E8070B
:104720000CD0FDF734F8002808D1FF2022460130D4
:1047300002431E21022005F060F80026E8060DD590
:104740000120FDF7A0F8002808D10120224600032F
:1047500002431E21022005F050F80026FFF700F961
:10476000641C03F02BFDA042CAD83046F8BD0020DF
:104770007047002070472349002888607ED00A785F
:1047800092077BD4F0B5254AFFB01478244AFFB0D5
:1047900087B012781B49234E0492CE600090FEF73A
:1047A00065FC029020480778204805782048017869
:1047B00005A80391012901D9019000E00196029911
:1047C000002972D0394669434A0005A800990EF0C5
:1047D00068FB3B4605AA00950299019810F052FE2D
:1047E000039801282AD9304601990FF0B1FBB04255
:1047F00024D00A490A4B0A7819784A43520019E032
:104800003303000048090020180A00205443524690
:1048100000F3010077070000220200002E090020AB
:104820002F090020F418002031090020320900204F
:1048300030090020014630460EF033FB6948002362
:104840000499C0681E4600291BD90025455F801CBD
:104850000121012C0FD90022825E801C551B2FB232
:10486000002F00DA7F423DB29D4200DD2B46491CFD
:104870001546A142EFD3761C049900E01CE08E425D
:10488000E3D359480068FF3021308089984202DD27
:1048900054480021C160534902220878104308702F
:1048A0007FB07FB007B0F0BDFFE76F437A0000999B
:1048B00001980EF0F6FA93E770474A48816800299C
:1048C00002D00178890701D400207047C068704782
:1048D00044490028086164D00978C90661D4F0B55C
:1048E00083B0019041494248029105784148002730
:1048F0000478FCF76BFDC00602D5FEF78DFB07467A
:104900002E197200019902980EF0CBFA002F08D0F0
:104910000220029A761C009073083946104610F067
:10492000B1FD029900200A5E891C0123012C0FD9D8
:1049300000268E5F891CB21A12B2002A00DA524297
:1049400012B2824200DD10465B1C3246A342EFD316
:1049500000228A5E891C0123012D0FD900240C5FDF
:10496000891CA21A12B2002A00DA524212B2824202
:1049700000DD10465B1C2246AB42EFD31A490968A2
:10498000FF312131C989814201DC029801E0002018
:10499000029014491022486108781043087003B04F
:1049A000F0BD70470F480169002902D00178C9069F
:1049B00001D400207047406970470B4809490068DE
:1049C000FF30213042798878401CC0B28870824222
:1049D00007D210B50020887001210846FEF7F3FDCC
:1049E00010BD704748090020180A0020F41C002060
:1049F0003309002034090020704700207047580711
:104A000008B5400F012805D16946087002460A2002
:104A100001F031FC002008BD580708B5400F0128FF
:104A200006D100206946087001220A2001F023FC0B
:104A3000002008BD580710B5400F012801D1FEF72E
:104A400048FE002010BD580708B5400F012806D1C8
:104A50000320694608700122002001F00CFC0020B0
:104A600008BD580708B5400F012805D169460870F0
:104A70000246002001F0FFFB002008BD1FB55807CB
:104A800008D16846007AF02807D0012202A9062042
:104A900001F0F1FB002004B010BDFEF79AFFF9E72A
:104AA0001FB5580704D1012202A9104601F0E3FB0B
:104AB000002004B010BDFFB5074681B05807400F75
:104AC0000026FE4D0A9C012802D0022806D002E0F2
:104AD0000520A8702E81002005B0F0BDA87805281B
:104AE00018D12889A0420CD2FEF74BF8AC216A46B7
:104AF0001170010A517090702889115C3970401C46
:104B0000288180B2A04205D12E8102980121017036
:104B10000320A870012005B0F0BDF8B55A07520F68
:104B20000026E74CE54D069F012A02D0022A45D017
:104B300042E0FEF726F80521A9702268AC21117029
:104B40002268010A517021688870DE482268016875
:104B5000897CD17000682268017C1171017E49074F
:104B60000ED5C18A2268090A51712268817D91712E
:104B7000818A2268090AD1712268017D11720DE0D3
:104B8000818A2268090A51712268017D9171C18A66
:104B90002268090AD1712268817D11722268202160
:104BA00051722268022191722168CE7221680E73BF
:104BB0002168007E48732E810020F8BDAA78052A5E
:104BC0000FD12A89BA4204D223689B5C0370521C1D
:104BD0002A8190B2B84204D12E81012008700320AE
:104BE000A8700120F8BD70B45D076D0F0024B44BB0
:104BF000B24E039A012D02D0022D3FD03BE002209D
:104C0000B070FF20348140020168880A85028D421D
:104C100000D0401C8000081AC01C8008AA498000EF
:104C20000F2541186D03A8421DD80E78CD78304667
:104C30004E782D06360230438E78360430432843B2
:104C4000CD780002000A2D062843A04DA8420AD1C3
:104C50000020002A0FD90C181D6824792C54401C00
:104C60009042F8D307E00020002A04D919680C54B8
:104C7000401C9042FAD370BC00207047B578022DDA
:104C80000FD13589954204D21B685B5D03706D1CA2
:104C90003581A8B2904204D13481012008700320EC
:104CA000B07070BC0120704770B45D076D0F0024B8
:104CB000834B824E039A012D02D0022D59D055E02C
:104CC0000220B070FF20348140020168880A85020A
:104CD0008D4200D0401C8000081AC01C81087A4810
:104CE00089000F2508186D03A94237D80678C578C2
:104CF000314646782D0636023143867836043143F4
:104D00002943C5780902090A2D0629436F4DA94296
:104D100024D11A68017C11701A68417C51701A689C
:104D2000817C91701A68C17CD1701968027A0A710D
:104D30001A68417A51711A68817A91711A68C17A38
:104D4000D1711A68017D11721A68417D51721A6819
:104D5000817D91721968C07DC87207E00020002A29
:104D600004D919680C54401C9042FAD370BC00203E
:104D70007047B578022D0FD13589954204D21B6852
:104D80005B5D03706D1C3581A8B2904204D1348103
:104D9000012008700320B07070BC01207047F8B586
:104DA0005A07520F0026464D444F069C012A02D056
:104DB000022A36D033E003F0E1F9002824D08269DA
:104DC000C1692B68C0681A702C68130A63702C685C
:104DD000130CA3702B68120EDA702A6811712B68FD
:104DE0000A0A5A712B680A0C9A712A68090ED17145
:104DF000296808722A68010A51722A68010C9172A6
:104E00002968000EC87207E00020002C04D9296828
:104E10000E54401CA042FAD30220B8703E810020FC
:104E2000F8BDBA78022A0FD13A89A24204D22B687F
:104E30009B5C0370521C3A8190B2A04204D13E8127
:104E4000012008700320B8700120F8BDF0B45B07A2
:104E50005B0F00271A4C194E049A012B02D0022B2B
:104E60005DD059E00220B0700025FF20358140025E
:104E70000168880A83028B4200D0401C8000081A17
:104E8000C01C81080120890040030F2308185B0320
:104E9000994238D8810736D10D4B0168994232D1F9
:104EA000002319468E008659491CF3180746072926
:104EB000F8D3002B01D0002D25D00BE0680900208D
:104EC000BC740100180A0020E81F000034CD12ABAA
:104ED000544649532268017C11702268417C51700C
:104EE0002168827C8A702268C17CD1702268017D31
:104EF00011712268417D51712268817D9171216813
:104F0000F87DC87108E00020002A05D90021236837
:104F10001954401C9042FAD3F0BC00207047B3787B
:104F2000022B0FD13389934204D22468E45C0470CD
:104F30005B1C338198B2904204D137810120087004
:104F40000320B070F0BC01207047F8B55E07760F03
:104F5000FE4D069C012E04D05B0707D0022E41D0E7
:104F60003EE00220A8700020288139E001260024BC
:104F7000D0071ED0FF2040020168880A83028B42BE
:104F800000D0401C8000081AC01C83080F209B0022
:104F90004003834222D80120400300219F08002FB4
:104FA00007D99F0808C8491C1C198F42FAD8002E3F
:104FB00014D090070ED503F0E1F800280ED08268D7
:104FC00000219308002B05D9930804C8491C141923
:104FD0008B42FAD8002E01D0EC6101E00020E8619C
:104FE0000020F8BDAA78022A12D12A890327A242FA
:104FF00006D2BB1ADE00EB69F3400370521C2A8113
:1050000090B2A04204D10020288101200870AF7026
:105010000120F8BD70B45B075B0F0025CB4C039AF1
:10502000012B02D0022B08D004E00520A0702581BE
:105030002020E07070BC00207047A378052B0ED1B3
:105040002389934203D2E67806705B1C238198B2D1
:10505000904204D12581012008700320A07070BC0B
:1050600001207047FFB5864683B05807400F0026E1
:10507000B74CB64D0C9F9446012809D029460989A2
:105080005A074B1C9BB2002A10D0022820D01CE0EB
:1050900001A9684601F09FFA0520A87021680198CF
:1050A00008702168009848702E810EE0B94203D242
:1050B0002268604650542B812889B84205D12E8140
:1050C00020680178407801F07CFA002007B0F0BD3C
:1050D000A87805280FD1B94204D22068415C7046F7
:1050E00001702B812889B84205D12E8104980121B5
:1050F00001700320A870012007B0F0BDF8B55F076C
:105100007F0F0026914C924D0698012F02D05B072D
:1051100006D024E0268128680670286846701EE0C4
:105120002389834203D22F68FA545B1C23819AB2ED
:10513000824214D187A00068268101220A70296862
:10514000C2B2097891420AD1296800044978000E58
:10515000814204D100221146032001F08CF8002086
:10516000F8BD580710B5400F012801D101F0E2FD4C
:10517000002010BDF8B55E07760F744D012E07D0E4
:105180005F07724BDC691B8908D0022E18D015E02E
:105190000020288104F02BFBE8610FE0002B02D0F7
:1051A000012B03D007E01002E86104E02046104321
:1051B000E86104F015FB2889401C28810020F8BD17
:1051C000002B02D0012B03D005E0210A017002E080
:1051D0000470012008705B1C2B810120F8BD70B5A4
:1051E00006465807400F594C0D46012804D0590770
:1051F00004D002280DD00AE0002007E02089002812
:1052000002D110460CF0EFF92089401C20810020CB
:1052100070BD0CF0E5F930700120287070BDFFB54D
:1052200084465807400F8646012811D04A49474E08
:105230000C683789F078E51D21467E1C5B07F9353F
:105240004031B6B2002B09D07246022A34D030E089
:105250003E4800210181FF21C1702AE0002F05D0C6
:105260003A4B012F05D0022F06D020E03748C270FC
:105270001DE01002D8611AE0DF691743BAB2DF619E
:10528000062814D203007B441B79DB189F440205D7
:10529000080A0C0E3148C28109E03048828106E0DC
:1052A000A28604E0AA8102E00A8200E04A8227483E
:1052B0000681002004B0F0BD032F24D2002206286E
:1052C00014D203007B441B79DB189F440205080AB3
:1052D0000C0E2248C28909E02048828906E0A28E8D
:1052E00004E0AA8902E00A8A00E04A8A012F02D07B
:1052F000022F03D007E0110A604603E06046027007
:1053000001980121017011480681012004B0F0BD0F
:1053100000207047F8B55A07520F00260C4D0B4C71
:10532000069F012A02D0022A20D01DE004F078FD59
:1053300029680870FEF732F92968487002F076FC97
:1053400029688870FEF72DF9296809E068090020AE
:10535000BC74010055AC0000180A00206442002013
:10536000C8700520A07026810020F8BDA278052A0B
:105370000FD12289BA4204D22B689B5C0370521C65
:10538000228190B2B84204D1268101200870032006
:10539000A0700120F8BD70B506465807400F0D46B5
:1053A000022801D0002070BD00F07CFF002801D051
:1053B000012400E0002400F078FF002801D0022240
:1053C00000E00022224332700120287070BDF8B541
:1053D0005A07520FF84C0025F84E069F012A02D0BA
:1053E000022A2CD029E0FEF7DBFA00281BD0416905
:1053F000FF2901D2C9B200E0FF2122681170816942
:10540000FF2901D2C9B200E0FF2122685170C169B1
:10541000FF2901D2C9B200E0FF2122689170216802
:10542000007CC87008E0206805702068457020681E
:10543000857021685020C87035810020F8BD328900
:10544000BA4204D223689B5C0370521C328190B232
:10545000B84202D13581012008700120F8BD70B535
:105460005A07520F0026D44BD44D049C012A02D077
:10547000022A08D005E018680EF0A6FA0520A870E8
:105480002E81002070BDAA78052A0FD12A89A24258
:1054900004D21B689B5C0370521C2A8190B2A0420C
:1054A00004D12E81012008700320A870012070BD56
:1054B000F8B55A07520F0027C04C012A02D0022A21
:1054C0000ED00BE00520A07000212781084601F0D6
:1054D00082F84000608101F08AF820610020F8BD68
:1054E000A278052A13D122896589AA4205D2D30759
:1054F0000FD0E3780370521C228190B2A84206D1EB
:105500002781012008700320A07001F07BF80120A2
:10551000F8BD530826695B00F35A1E0A0670E37053
:10552000E9E7F8B55A07520F0027A44C012A02D028
:10553000022A0AD007E00520A0702781D0206081D0
:1055400001F0D4F920610020F8BDA278052A13D11A
:1055500022896589AA4205D2D3070FD0E378037068
:10556000521C228190B2A84206D1278101200870E6
:105570000320A07001F0C4F90120F8BD530826698A
:105580005B00F35A1E0A0670E370E9E77FB5054633
:105590000C46580704D05807400F022808D004E0F2
:1055A000012202A9092000F066FE002004B070BDAF
:1055B00004F036FC28700120207004B070BD70B576
:1055C0005A07520F7D4C012A02D0022A0ED00BE05E
:1055D00002F04BFF00212062002803D0852000014B
:1055E000A08100E0A1812181002070BD2289A389D2
:1055F0009A4204D2256AAD5C0570521C228190B299
:10560000984201D101200870012070BD70B45E077E
:1056100001256B4C002E04D05A07520F022A24D0C9
:1056200020E003210903012A02D0002A0DD019E04D
:10563000206840692268284350612068006B8843D5
:1056400060490843216808630CE02068006B8843C8
:105650005D49084321680863206840692168400863
:105660004000486170BC0020704722685269D20730
:10567000D20F02700D7070BC0120704770B50546E6
:105680000C46580704D05807400F022809D006E0FE
:10569000002A01D0012000E0002001F03BFB0020A7
:1056A00070BD01F03FFB002801D0012200E0002284
:1056B0002A700120207070BD70B55807400F3F4D13
:1056C0001446012802D0580702D018E0002015E047
:1056D0002889002802D0012802D00DE0EA700BE0F2
:1056E000E878FCF76BFDE878384A014613682140FA
:1056F00019631168A04348632889401C2881002051
:1057000070BD70B55A07520F2C4C012A02D0022AE4
:1057100027D024E002F0A9FE002200281CD0014678
:1057200050312162FF234168113399420BD320305D
:10573000017843780D465D43C9188378C0786918AD
:105740001818081806E02030017880780B4643438B
:1057500008181818A08101E02262A281228100208D
:1057600070BD2289A3899A4204D2256AAD5C057076
:10577000521C228190B2984201D101200870012070
:1057800070BD10B55C0704D05A07520F022A05D02D
:1057900002E0104600F045FF002010BD0C4A1278D0
:1057A00002700120087010BD10B55C0712D05A07B6
:1057B000520F022A13D010E0BC74010068090020C7
:1057C0009C74010000205FA000005FA094740100A1
:1057D0009D090020104601F0A2F8002010BDF84AF3
:1057E000127802700120087010BD1FB5580704D14F
:1057F000012202A9082000F03EFD002004B010BDE7
:1058000070B55807400FEF49012802D0580703D060
:1058100027E00020088124E00889EB4C032801D20E
:1058200023681A54401C80B20881032819D1FBF761
:1058300017FD2068817842780802104346BAFBF7CA
:105840002FFC050001D0FBF7F4FD2068007800284C
:1058500000D001203146FBF7D1F8002D01D0FBF735
:10586000EDFD002070BD70B55807400FD5490128E7
:1058700002D0580703D027E00020088124E00889DF
:10588000D14C022801D223681A54401C80B20881EE
:10589000022819D1FBF7E4FCFBF702FC050001D05C
:1058A000FBF7C7FD206800780028206841780DD0FC
:1058B0000120FBF7FFF8206841781120FBF7FAF888
:1058C000002D01D0FBF7BAFD002070BD0020F5E7E8
:1058D0007FB505460C46580704D05807400F0228EC
:1058E00008D004E0012202A90D2000F0C4FC002031
:1058F00004B070BD04F044FA002801D0012200E099
:1059000000222A700120207004B070BD7FB50546CA
:105910000C46580704D05807400F022808D004E06E
:10592000012202A90E2000F0A6FC002004B070BDE8
:1059300004F015FA28700120207004B070BD70B515
:105940005807400F9F4C0499012802D0580703D0F4
:105950001AE00020208117E020899B4B032801D208
:105960001D682A54401C80B2208188420CD11868DE
:1059700081784278080219681043097840BA00B269
:10598000002903D0FEF7A8FE002070BDFEF7A1FE9F
:10599000FAE738B55807400F8A4C0499012802D01D
:1059A000580703D01FE0002020811CE02089864B8F
:1059B000032801D21D682A54401C80B220818842ED
:1059C00011D1186881784278080219681043097863
:1059D00040BA002907D100907C4803787C480278BF
:1059E0000846FCF740F8002038BD70B55A07520F42
:1059F000744D049C012A02D0022A07D004E0002042
:105A00002881FCF791FFE861002070BD2A89A2423D
:105A100005D203239B1ADE00EB69F3400370521C8E
:105A200090B22881A04201D101200870012070BDF0
:105A30007FB505460C46580704D05807400F02288A
:105A40000CD008E06846007AC00704D0012202A901
:105A50000F2000F010FC002004B070BD04F032FAFA
:105A600028700120207004B070BD7FB505460C463B
:105A7000580704D05807400F022808D004E001223C
:105A800002A9052000F0F7FB002004B070BDFDF76F
:105A900085FD02280BD003280DD004280DD0052841
:105AA00007D0FF2028700120207004B070BD0020B6
:105AB000F8E70120F6E70220F4E70320F2E710B54B
:105AC0001046590701D104F07BF9002010BD10B534
:105AD0001046590701D104F07CF9002010BD70B5C3
:105AE00005465807400F0C46022801D0002070BD23
:105AF00004F078F928700120207070BDF0B45A07C6
:105B0000520F00272F4E049C012A02D0022A09D0EE
:105B10001CE00220B0702F48378100682E49081A17
:105B2000F06113E0B278022A10D13289A24205D284
:105B3000F369D500EB400370521C328190B2A04251
:105B400004D13781012008700320B070F0BC01201F
:105B50007047580701D1214802700020704770B586
:105B600014465807400F1749049A012802D05807D5
:105B700003D011E0002008810EE00889124B90420A
:105B800001D21D682C54401C80B20881904203D180
:105B90000C20196800F06FFB002070BDF8B55D07A0
:105BA0006D0F16468C46012D1AD0064C59072389D5
:105BB00062895F1E246A002917D0022D39D02AE09D
:105BC000A209002068090020BC74010032090020ED
:105BD0002E09002018090020FFFFFF00B90800204F
:105BE000F94900200881488115E0F74D002B14D0B9
:105BF000012B14D09B1EF548934201D20168CE546C
:105C0000974205D101681F2000032018FCF763FAB2
:105C10002889401C28810020F8BD2E62F8E7761CF8
:105C2000FF21301901316E818842F1D9002068814D
:105C3000EEE7FF21E44D0170022B11D3002A0FD0B3
:105C4000991E6118FF2909D81F242403091909780E
:105C50000170974202D10121604601705B1C2B81CB
:105C60000120F8BD70B514465807400FD649049A74
:105C7000012802D0580703D011E0002008810EE06F
:105C80000889D24B904201D21D682C54401C80B22E
:105C90000881904203D10220196800F0ECFA00203C
:105CA00070BD70B505460C46580704D05807400F24
:105CB000022805D002E0104604F019F8002070BD5B
:105CC00004F018F828700120207070BD1FB5580727
:105CD00004D1012202A9102000F0CDFA002004B066
:105CE00010BD10B45907490FB74C0198012902D0D3
:105CF000590706D018E00120A07000202081A06183
:105D000011E0A17801290FD12189814205D2A3692F
:105D10001B021343491CA361218189B2814203D133
:105D20000320A070A069206210BC0020704710B44E
:105D30005907490FA44C0198012902D0590706D0F0
:105D400018E00220A07000202081E06112E0A1781C
:105D500002290FD12189814205D2E3691B02134335
:105D6000491CE361218189B2814203D1A08BA081CA
:105D70000320A07010BC00207047F0B45A07520FE7
:105D80000027914E012A02D0022A06D002E002200A
:105D9000B0703781F0BC00207047B278022A18D169
:105DA0003289B489A2420CD2930703D1336A20CB43
:105DB000F5613362337F0370F069000A521CF061B1
:105DC000328190B2A04204D13781012008700320B3
:105DD000B070F0BC0120704770B55807400F002527
:105DE000794C0E46012802D0580705D02EE002203B
:105DF000A0702581E56129E0A078022826D12089BC
:105E0000A189884219D2E1691206090A0A43401C95
:105E1000E2612081800710D10121206A4904884273
:105E200007D20911884205D304226949FCF753F9C6
:105E300000E00260206A001D20622089A18988425A
:105E400004D12581012030700320A070002070BD96
:105E500030B45D4C5D0704D05A07520F022A32D08D
:105E60002EE00021042A20D008DC002A12D0012ACA
:105E700013D0022A14D0032A0AD114E0052A17D01D
:105E80005448102A006819D0112A14D0202A14D09E
:105E9000A16114E00120400310E0FF2040020DE06A
:105EA0001B2000030AE04C4808E07D20800205E04A
:105EB0001F20000302E0494800E0B430A0612181C6
:105EC00030BC00207047A269130E03701002A0615D
:105ED0002089401C80B22081042801D9012008704B
:105EE00030BC01207047580710B5400F012804D17D
:105EF000002211460B2000F0BEF9002010BDF8B5BD
:105F000004460E465807400F2F4D0699012806D02B
:105F10005F072D4B1B8905D0022814D011E000200B
:105F200028810EE0294C022B01D22068C2545B1C50
:105F300098B22881884204D102220420216800F00E
:105F40009AF90020F8BD002B02D0012B04D008E004
:105F5000FDF724FB207004E0FDF723FB20700120F7
:105F600030702889401C28810120F8BD70B5580781
:105F7000400F154D012802D0580705D022E000201F
:105F8000A861E861E8701CE00F492E89CC78886927
:105F9000A118CBB2022E03D200021043A86106E082
:105FA0000949042EC96904D208021043E861EB7064
:105FB00005E0052E03D2A24201D100F001FF28899D
:105FC000401C2881002070BD68090020BC740100BD
:105FD00084090020180A002000F301006442002018
:105FE000590710B5490F1046012902D0590706D0AC
:105FF00007E0954900208861C870088101E000F041
:10600000FBF8002010BD10B51046590701D100F073
:10601000F3F8002010BD70B5042500241B263603BC
:1060200020038019FBF7D3FF022804D0641CE4B2DC
:10603000AC42F5D3012070BD70B45B075B0F002547
:10604000814C039A012B02D0022B08D004E00520DA
:10605000A07025816079E07070BC00207047A37843
:10606000052B0ED12389934203D2E67806705B1C80
:10607000238198B2904204D1258101200870032029
:10608000A07070BC01207047F8B58C466FA059070E
:10609000069C0068490F00266B4D6D4F012902D008
:1060A000590706D030E02E8138680670386846708F
:1060B0002AE02B89A34203D23968CA545B1C2B8186
:1060C00099B2A14220D12E81012162461170396816
:1060D000C2B20978914217D1396800044978000E9C
:1060E000814211D1042700241B202103000308183A
:1060F000FBF76DFF022804D0641CE4B2BC42F3D36A
:106100000120012802D06E710020F8BD01206871C5
:106110002E71F9E7F8B500245807400F4A4D26467E
:10612000012802D058070DD064E02E70EE806E6119
:1061300048496E7000208200401CC0B28E5040283A
:10614000F9D357E02878052801D2401C2870C0B246
:1061500001281DD03C490228CB891BD04AD9E988A7
:10616000994247D28F073C48BF0FC2552438406937
:106170001B273F0300024A1CC0199A420DD100217F
:10618000491CC9B20429FBD33249FBF74BFF28E075
:10619000100200E09818E8812CE0C943890720D15B
:1061A0002D4FCB007A5C9A40491C1443C9B2042994
:1061B000F7D36978274F8A06120E491CC9B2BC5022
:1061C000697040290DD13946FBF72CFF6E70686964
:1061D000401C686100208100401CC0B27E504028F5
:1061E000F9D3E888401C80B2E880E989884201D16F
:1061F000012028710020F8BD70B5134C2246D378D9
:10620000956921891A18D2B2022903D229020143C1
:10621000A16108E0FF260336B14206D20C4B1B6891
:10622000591820398877E27009E0FF220432914240
:1062300005D2984203D10749284600F0E4FD2089A1
:10624000401C208170BD00006809002055AC000092
:10625000BC7401004C1D00208C090020B9480021AD
:1062600001704170C1700171B74A08461154401C59
:106270000428FBD3704730B4B24B5C78002C02D0BA
:1062800030BC00207047D8701A710020002A05D950
:10629000AD4C0D5C2554401C9042FAD3012058703F
:1062A00030BC7047A74840787047A6488078704750
:1062B000A44900208870704770B5A24D002468780A
:1062C000012806D100F013F804461120E8700020E0
:1062D0006870FDF763F9022803D101F0D3FE0028AE
:1062E00001D1002C01D0012070BD002070BDF0B59F
:1062F000944883B0C0780024112869D203007B44FD
:106300001B79DB189F440B15220832F83664656B45
:1063100070ABF67E8C919600FDF7E2F924E08A4896
:1063200001780120FDF74FF9864901208870044665
:1063300005E18548007802F095F801210320FDF77A
:1063400042F98049012088700446F8E07E490878C7
:1063500049780002084303F0D0FC02210320FDF736
:1063600032F97849012088700124E8E076484178C4
:10637000007871E0734E0120B0700027777031789B
:10638000002924D1711D0D783070680701D5FEF702
:10639000EEF9A80705D5FC210F20FDF727FB01200A
:1063A0000543E80712D0FDF7F9F8022803D103F0FE
:1063B000F8FC00280AD0FDF7F1F8052803D100F019
:1063C0005FFD002802D00020FDF7B6F83770B770E7
:1063D000B5E05D480078401E01F0ADFCC4E75A48C6
:1063E000007803F022FDBFE757480078002804D06A
:1063F00003F0E0FC0146022001E000210320FDF74C
:10640000E2F89CE0504D2878002800D0012003F0ED
:10641000ABFC2878002800D0012000F019FD8EE0A8
:106420004948007803F092FC9EE74748007803F063
:1064300014FD99E744480078002804D001287ED054
:1064400002287CD104E0FF204002FBF792FD76E0B9
:1064500001F08EFE00210420FDF7B5F884E73948ED
:10646000002747703E463D4672B6FCF71AFC0028EE
:1064700009D0FCF7DAFC0646FCF7B9FCFCF7DBFCBC
:106480000546FCF7C3FCFAF7EBFEFAF709FE0190AC
:10649000FAF74FFFFCF708FA0090FCF7D9F99320C0
:1064A0004001FCF751F962B62848076028480068A7
:1064B000C030C168274A114381600DF056F972B6A9
:1064C0000198002803D0FAF7CBFEFAF788FFFCF713
:1064D000E8FB002807D0002E01D0FCF7E8FB002DD8
:1064E00001D0FCF72DFC0098002801D0FCF770F9D2
:1064F00062B624E014E0FFE713480078012806D0D4
:10650000022807D0032808D002210846A4E7042166
:106510000520A1E7002103209EE7002104209BE73E
:1065200009480278417809020A438178C078090451
:10653000000601430A431E21012003F05EF92046B4
:1065400003B0F0BD9009002095090020E408002068
:10655000A474010000005FA002460020022907D2B7
:10656000002A06D0012A03D1D0204143F748081859
:1065700070478720C0004143F548F8E770B5FCF745
:10658000DFF80821084006460846FCF7D4F8F14C2D
:1065900000256078302806D287210901EC480CF0EC
:1065A000E8FCA570E570A079302806D2FF21A13162
:1065B000E6480CF0DEFCE57125723046FCF7B7F8D2
:1065C00070BD024687234A439B009A4202D8E14AA3
:1065D0001161D06070470200DE48C06800D01060D2
:1065E000DC4A0029126900D00A6050437047D9483C
:1065F00001210171007848408721C9004843D449EE
:1066000040187047D34881780022002907D0C1780C
:10661000002904D101780123594001708270027170
:106620007047CC491E284A78487002D01F2802D0F3
:1066300003E0002000E00120087010467047C548C4
:106640000078012148408721C9004843C0494018CB
:106650007047F0B5BF4F3C788725ED006C43BC4DCB
:10666000FE6864191D4675436D0064198E4201D29F
:10667000354600E00D463F69FB1A934200D21A46A8
:106680000023002A11D949008E4671008C46002152
:10669000002D05D94E00875B491CA753A942F9D3A9
:1066A0005B1C644470449342F1D3F0BDF8B5A94E2D
:1066B00015460C460146727806981F468A4234D128
:1066C0000121F170012802D0022826D02BE0307879
:1066D0001A468721C90048439D494118F068A842DD
:1066E00001D2074600E02F463369934200D21A4692
:1066F00000269446002A16D9400086460020002F26
:1067000005D9225C4300401CCA52B842F9D364192F
:10671000761C71446645F1D305E000233A462946CC
:106720002046FFF796FF00F085FAF8BD10B5002867
:1067300010D08849884B4A7888491B780978002A04
:1067400009D0022A07D0042A05D0092A03D0012241
:10675000FFF77FFF10BD824A1278012A01D9814AD2
:106760001378012200F080FA10BDF0B5794987B0A6
:106770000122CA707C4A49781678774A232915780D
:106780007ED20B007B441B79DB189F441121112121
:1067900011212121211121212121ADAD21292929D9
:1067A000ADADADADADADADADADADADADADA4A400D8
:1067B0006B490978012903D96C490E7869490D782C
:1067C000002873D000232A46314600F04DFA89E0B4
:1067D00000286BD000232A463146FFF73AFF81E0BC
:1067E000FAF73EFDFAF75CFC0190002801D0FAF7B9
:1067F00020FE5B480078012801D95A480578FAF74D
:10680000E5FD400700D56D1C59480121006889034A
:10681000401850490590487811380490087887222C
:10682000D20050434A4A8418C868B04200D2064693
:1068300048480069A84200D205460095FAF744FE90
:1068400003900020FBF74CF9009D0027002D3CDD54
:106850000025002E31DD3846702148430599401847
:106860000290039840571C2821D202998000085AB0
:10687000049A81B20020C043002A06D0012A00E019
:1068800032E00BD0022A0BD00DE0C80403D5080576
:10689000000F404207E00805000F04E0C8B202E024
:1068A0000846FBF723F96900605203E01AE0002074
:1068B000690060526D1CB542D3DB26487F1CC0685E
:1068C0004000041900988742C2DB0198002809D0D3
:1068D000FAF7B4FD06E0002804D00023AA1C3146D4
:1068E000FFF7B7FE00F0A6F907B0F0BD1948012187
:1068F000417240794840D0214843144940187047BC
:106900001448C1790022002907D0017A002904D156
:106910004179012359404171C271427270470D495A
:106920001E288A79887102D01F2802D003E0002037
:1069300000E0012048711046704706484079012167
:106940004840D0214843014940187047BC260020E8
:106950004C1E00209C0900202F0900203509002032
:1069600030090020320900202E09002031090020C2
:10697000B8740100F0B5DE4989B00D78DD49012217
:106980000F78DD490A728979DC4C112935D012293A
:1069900033D0132931D000281AD0D7494979D022D1
:1069A00051430B190021002F05D94A00845A491C74
:1069B0009C52B942F9D30021002D09D97A1852000E
:1069C000845A4A00D2186032491C1481A942F5D376
:1069D000FBF7B6FE0821084005460846FBF7ABFE6C
:1069E000C54C607A00286ED00121E1712846FBF782
:1069F0009EFE0020207209B0F0BDFAF731FCFAF7D4
:106A00004FFB0690002801D0FAF713FDBA48059510
:106A10008679817A01914079113ED0214843051948
:106A2000F9F7F7FDB74C012224689203A218B44984
:106A3000E7245118240111231219002805D00491CC
:106A4000012118460292009103E001200093049274
:106A50000291FBF745F8FAF735FD00240390002F6B
:106A600038D90198702148430790039800570128AE
:106A700002DA0020C04304E0092801DA133000E004
:106A800009381C2820D20799800009180498405A18
:106A900081B20020C043002E04D0012E0BD0022E64
:106AA0000BD00DE0C80403D50805000F404207E0F5
:106AB0000805000F04E0C8B202E00846FBF716F82C
:106AC0006100685203E043E0002061006852641CEA
:106AD000BC42CAD30098FBF703F8FAF7F5FC039021
:106AE0000598002400282AD9019F70204743039865
:106AF00000571C282AD2800039180298405A81B2C7
:106B00000020C043002E04D0012E0BD0022E0BD04B
:106B10000DE0C80403D50805000F404207E0080552
:106B2000000F04E0C8B202E00846FAF7DFFF610098
:106B30004919603108810598641C8442D7D30698AE
:106B4000002800D144E7FAF779FC41E70020EEE79E
:106B50006079012148406071002146E770B50D461B
:106B600065490122CA70684A49781678674A21291E
:106B7000147803D0222901D0232917D1002813D05B
:106B8000002D11D0002322463146FFF762FD631C21
:106B9000012221462846FFF75CFD60004019A31C36
:106BA00001223146FFF755FD00F044F870BD70B585
:106BB000514D04466878002808D1A068FFF7B6FD5B
:106BC0006878002802D16068FFF7CFFD6878112847
:106BD00002D10020FFF7C9FD6878122802D10020F9
:106BE000FFF7C3FD6878132802D10020FFF7BDFD31
:106BF000E068002803D0A979002906D007E02069C1
:106C0000002804D0A979002901D1FFF7B3FEA879A3
:106C1000112802D10020FFF7ADFEA879122802D179
:106C20000020FFF7A7FEA879132802D10020FFF764
:106C3000A1FE70BD70B5FBF783FD08210840064634
:106C40000846FBF778FD2C4C21790120002500290E
:106C500005D0A0703046FBF76AFDE57070BD217865
:106C600041402170A570F5E7FFB581B00F4604469D
:106C7000FAF72FFC06000FD01F4A10788721C900B1
:106C80004843234943180498D168484340001818E2
:106C9000B94209D20D4608E039462046049B039AC2
:106CA000FFF7D7FC05B0F0BD3D461269049BD21A30
:106CB000039B9A4200D31A4600239446002AF1D936
:106CC0007A0049008E4600920021002D07D97256A5
:106CD0004F005200A25A491CC253A942F7D300994F
:106CE0005B1C0C1970446345EED305B0F0BD000089
:106CF00033090020340900209C090020BC26002014
:106D000070150000B87401002E0900202F09002022
:106D10004C1E00202749002801D0002000E001205F
:106D20000870704723480078002801D00020704781
:106D3000012070471F48017800290FD01E490A68BA
:106D4000526901231A430B685A610A68126B0323C4
:106D50001B039A43194B09681A430A6300214160D7
:106D60008160C160016141617047E3E700B501786E
:106D7000C27983B01143402211436A4611704178B1
:106D8000517041880911917081880911D17002797F
:106D9000817812070901120F11436A461171817936
:106DA0005171017A9171407AD07168460CF08BFE76
:106DB00003B000BDB00900209C74010000205FA05A
:106DC00070B50E460446FCF7E9FB042812D12046B4
:106DD000FF38B13850280DD2A019FF38B2385028EA
:106DE00008D225020024002E04D92846FBF7C1F85A
:106DF000012801D0002070BDFF350135641CB4426C
:106E0000F3D3012070BD70B50D460446FCF7C6FBF8
:106E100004280AD12046FF38B138502805D2200274
:106E20002946FBF7FFF8012800D0002070BD10B5FF
:106E3000064CFFF741FA012807D0206801F044FA18
:106E40000028F6D0FCF7E8FBF3E710BD180A002095
:106E50008C4A0028916803D001200143916070475B
:106E60004808400090607047864B99680A01120FED
:106E70000902090A1207000602430A439A60704792
:106E8000804880680001000F70477E488068000FCE
:106E90007047F0B57C4C0E2122680C20FF32013285
:106EA00087B0515E105E00F0F2FA0AF08DFB2068A8
:106EB000C030806B0003000FFCF746FAFCF76EFB56
:106EC00005282DD16F4C704EA0680001050F306869
:106ED000C030806BA900C84007070020E060206137
:106EE0003F0F2946052002F0EFFC002D7ED0022D39
:106EF0001CD0042D7BD0A0680A2D79D0010102029C
:106F0000090F080701214906120A08431043A0602F
:106F1000FFF7D2F9012803D0FCF740FB0528D1D0B8
:106F2000FCF713FA0AF055FB07B0F0BD0D21384607
:106F3000FCF700FC0028EBD000F056FE00F04AFE03
:106F4000FCF7C9F905460020F9F731FD4F48FAF77B
:106F5000EDF80120FAF7DFF8FBF71AFC4C48FBF7D5
:106F6000CCFCFBF7B2FCFBF7DFFC3768FF370137DF
:106F7000F9884843FF307D21F530C9000BF0FBFF55
:106F800080B2A080397A217000290DD0FBF7CCFCAB
:106F90003168FF31013189884843FF307D21F53068
:106FA000C9000BF0E8FF80B2FBF73CFC3A4F3948D0
:106FB00039688861FAF754F9FAF727FA2078002837
:106FC00007D0401E0006000E207002D1A088FBF7FB
:106FD00029FCA168264609010C0FFFF76DF901286D
:106FE0000AD0B0680001000FA04202E03AE03DE0A4
:106FF00040E001D1002D19D0396828488861FBF79D
:1070000027FCFBF76EFC0020FBF777FCFBF7CDFBC2
:10701000FAF726F9FAF748F80020FAF787F800F0AF
:10702000D9FD00F0E2FDFCF79BFC71E76846FAF73A
:1070300056FB00280BD06846FFF7B9FD68460CF0F8
:10704000EFFE0546FAF777FBFCF707FBC5E70E48AE
:107050000068406E000F02D0FCF7DEFABDE7FCF7D7
:1070600003FBBAE738460DF05FFF51E7384602F000
:1070700088FF4DE701010202090F120A08071043B9
:10708000A06045E7C8090020180A00208B6D0100A8
:10709000C75E010007005FA09C74010000005FA0B4
:1070A0007047002806D010B5014680220248F9F743
:1070B000B5F810BD70477047FC280020FFB581B0BF
:1070C0000D4603992F464F4301461E463A46FA485D
:1070D0000BF0E7FEF84C02F01EFF002827D000213D
:1070E00003980B46002820DD0020002D19DDF34A0F
:1070F0001268FF322132977F9F420CDCD77F9F427C
:1071000009DB177F874206DC527F824203DB62562F
:107110007243121300E000226254401C491CA84232
:10712000E5DB03985B1C8342DEDB05B0F0BD01208C
:1071300000038642F9D00020002FF6DD215671436E
:1071400009132154401CB842F8DB05B0F0BDF8B576
:107150001C4615460E460746FBF78EF82146284684
:10716000FBF7F6F80623D44A31463846FBF722FAF5
:10717000FBF795F8F8BDD24AD16090607047CF49CF
:1071800000200968098E890701D5CD48006970473C
:10719000CA4900200968098E890700D5C948704787
:1071A000FFB58FB0129B0024002B3ED9531E0E93C7
:1071B0000023551E002D17D9254655436F46AC4672
:1071C0006546ED186D004E5B6D186D88751B2DB210
:1071D0005E00BD530E351C2D01D80025BD535B1C30
:1071E0000E9D9BB2AB42EBD3234653439E460025F4
:1071F0005B00C5520123012A12D97546ED186E00B5
:107200003518B446203DEE8B5F006D467D19203D5C
:10721000ED8B5B1C751B66469BB285539342ECD38A
:10722000641C129BA4B29C42C2D313B0F0BDFFB544
:10723000A54CA64BA5446B441B6C864653430020CB
:1072400004AF0193002B11D900254300CC5E2646E4
:107250000F361E2E04D99E4EF65AA41BFC5200E097
:10726000FD52401C019B00B28342EED8974B002098
:107270006B440090186C00285AD9009C00200290A2
:107280005443600004AE305E0390193032283AD97E
:1072900001252B46012A36D9E0184600B44604A839
:1072A000865F37460A37142F13D9039F7743002F81
:1072B0000FDD67463F18203F1E20385E301A183019
:1072C000302806D86046085E0F301E2801D96D1C94
:1072D000EDB25B1C1BB29342DED3142D10D90120FA
:1072E00002900020002A1AD904AD23185B00CE5A60
:1072F000EF5A401CF61B774600B2FE529042F4D380
:10730000029800280BD10020002A08D923185B001E
:10731000401CCD5A764600B2F5529042F6D3009802
:107320006A4B401C00B26B4400901B6C9842A4D383
:1073300001990020002909D9654B41007246525A33
:107340005A52401C019900B28142F6D8614CA544C2
:10735000F0BDFFB59FB015460C4638225E49684621
:10736000F8F75CFF00208646229800285FD9681E47
:107370001C9000206A1E014684460346002A2BD931
:1073800072466A431D92D2185200A65A12195288A8
:107390005F00B21A12B20EAEF2530F321E2A02D89A
:1073A000401C80B208E0814205D2002803D001468B
:1073B000581EC0B2844600205B1C1C9A9BB29342AC
:1073C00001D21D9ADFE7814206D2002804D001468F
:1073D0004008181AC0B28446052921D9704668436E
:1073E0001D9060444000205E01460F311E2917D9D0
:1073F00061464A0069468A5A101A07B20020002DD9
:107400000ED91D99460009186A464900925B635AD5
:10741000D21B9A1A1F9B401C80B25A52A842F0D32A
:107420007046401C80B2864622988645A1D323B080
:10743000F0BDF3B507462948214E0478284881B0AD
:107440000578032170690BF096FD204668434200E1
:107450000720C00141432348081802990BF021FD81
:107460007069401C7061002F0FD003280DD3FAF70C
:1074700003FF29462046FAF762FF1B4B1B4A1949B6
:107480003846FAF77BFFFAF70AFF03B0F0BD0C4964
:1074900088807047F0B589B00C460546144E154FEC
:1074A00007490090029701960420085E03903F2848
:1074B00022DD3F20039025E0B4290020180A002097
:1074C000DC0900207C290020CCF9FFFF0006000029
:1074D000742B002044060000C07401002E09002017
:1074E0002F0900209431002094380020143500200A
:1074F000843C0020143C002001463F20C0438142D0
:1075000000DA039000200490FAF7B6FEFE480178F6
:10751000FE480078FAF713FF6846FAF78AFF0890EA
:10752000FAF7BDFE676069462660888A2081C88AAE
:107530006081088BA081488BE081888B2082C88B7A
:107540006082C88BF149097848436946898B4018A5
:107550004000285E09B0F0BDF1B584B00020EC4CCD
:10756000009001902068FF302130017900296DD012
:10757000008A00286AD0F9F76CFF21460968FF31BC
:10758000213109790BF0F7FC00295FD1FDF795F95E
:10759000029000285AD0DF480078102802D10298C3
:1075A000FFF7E3F8D94800250678D7482C46077836
:1075B0000498002F1ADD0022825E801C0121012E1A
:1075C00011DD0023C35E801C9A1A12B2002A00DA71
:1075D000524212B2AA4202DD154600940191491CA2
:1075E0001A46B142EDDB641CBC42E4DBC8480268C9
:1075F000FF322132108AA84228DC0098019970439A
:107600004018049940000B5A41182039C98B591A67
:10761000029B09B21C5AC0182038C08B201A081AC5
:1076200000B2002801DA434200E00346002900DAF4
:1076300049428B420ADA002800DA4042518A8842E5
:1076400004DAFDF7BAF9002005B0F0BD012005B05D
:10765000F0BDFFB5B04984B009780291AF4900236D
:107660000A78C35E5100455E00218E46039106995B
:107670009C460A80079E002131800D9E2C46328058
:107680000E9E31800121012A29DD4E000196875F7F
:10769000674500DDBC469F4202DA0E9E3B463180C4
:1076A000019E3718203F1E26BE5F019F0096C75FD0
:1076B0000197F61B01D5009EBE1B37B2039EB74251
:1076C00009DD0397019F009EBE4201DD4F1E00E0D1
:1076D0000F46079E3780491C09B29142D5DB511CE9
:1076E000029E09B2B21801928A4224DD4A00865EE7
:1076F000AE4200DD3546A64202DA34460D9E3180A8
:107700001718203F1E26BE5F0096825EB61A01D56E
:10771000009E961B36B2764508DDB646009E964220
:1077200001DD4A1E00E00A46069E3280491C019A8D
:1077300009B28A42DADC76482A1B0068FF30013041
:10774000C17F8A4209DD6246D21A8A4205DD817F05
:10775000714502DA039A914222DB069900228A5E81
:10776000059952008A5E1C21415E8A4218DC0D9800
:107770000022825E05985200825E484282420FDB00
:10778000079A0023D35E059A5B00D25E8A4207DC2B
:107790000E9900228A5E05995200895E814202DAC2
:1077A000012008B0F0BD002008B0F0BDFFB50F46C5
:1077B00004465A4958480D7800788DB040190A900F
:1077C000401E0790681E05900F98002106950491B1
:1077D0004000205E0C9010984000205E0B9000202E
:1077E000039002910990009001900890FBF782FEAF
:1077F0000646109800280BDB0B9989104200A25E08
:107800008A4201DA049003E0401E00B20028F5DA53
:107810001098A8420BDA0B9989104200A25E8A42A6
:1078200001DA059003E0401C00B2A842F5DB0F9896
:10783000A8420BDB0C9989104200A25E8A4201DA51
:10784000069003E0401E00B2A842F5DA0A990F98AC
:1078500081420CDD0C998A104100615E914201DA8F
:10786000079004E0401C0A9900B28142F4DC0799B9
:107870000698884226DA4100CD1902237A5EEB5E33
:10788000D51A00D59D1A039A0223AA1812B20392A0
:107890008D19725EEB5ED51A00D59D1A029A0223ED
:1078A000AA1812B20292625E0919CB5ED11A00D5F3
:1078B000991A099A401C891809B20991079900B2CE
:1078C0008842D8DB05990498884233DA4100CD1903
:1078D00002237A5EEB5ED51A00D59D1A019A022327
:1078E000AA1812B201928D19725EEB5ED51A00D5FC
:1078F0009D1A009A0223AA1812B20092625E091918
:10790000CB5ED11A0DD50BE02F0900202E090020E7
:10791000180A00209D0900203309002034090020A6
:10792000991A089A401C891809B20891059900B261
:107930008842CBDB03990298411A09984010814292
:1079400019DC01990098411A08984010814212DC14
:1079500002F012FB002811D116984000325EA348B5
:107960000168FF201D30085E824204DC179949003F
:10797000715E814202DD012011B0F0BD002011B026
:10798000F0BDF0B587B00D46064602A903A80191E7
:10799000009004AB05AA29463046FFF75AFE04467C
:1079A000012811D16F4608210C20795E385E0191C3
:1079B000009010231422FB5EBA5E29463046FFF782
:1079C000F5FE012800D1841E204607B0F0BD88488E
:1079D00080697047874870478748704730B40023F4
:1079E000C35E0122012908DD5400045F9C4200DAD5
:1079F0002346521C12B28A42F6DB0022002907DD20
:107A00005400055B521CED1A12B205538A42F7DB93
:107A100030BC7047F0B40024D5B2045F01238C461B
:107A2000012D08DD5900465EA64200DA34465B1C93
:107A30001BB2AB42F6DB0023002D07DD5E00875B47
:107A40005B1C3F1B1BB28753AB42F7DB510009188D
:107A50006046C3B200228A5E0120012B08DD44008B
:107A60000C5F944200DA2246401C00B29842F6DBDA
:107A70000020002B07DD44000D5B401CAD1A00B256
:107A80000D539842F7DBF0BC7047F0B5574E0446F3
:107A9000316889B0FF312131087900280CD0088B7A
:107AA000002809D0F9F7D5FC3168FF312131097977
:107AB0000BF061FA002902D0012009B0F0BD079453
:107AC000FCF770FF0490FBF7A7FA04463068182112
:107AD000FF302130415E06911A21415E04980591E4
:107AE00000286CD045480078102802D10498FEF791
:107AF00041FF4348002503784248002C027812D009
:107B000000209F18002F0ED93168FF3121310E89D6
:107B10000021615EA41C002900DA4942B1424FDC19
:107B2000401C8742F4D8002001920546039302923C
:107B30000090A900684640580026864642000798F3
:107B400002AF1218935F7F58921C0120B4461C4666
:107B5000012F0DD90021515E921C8C4201DA0C4696
:107B600084468B4201DD0B460646401C8742F1D815
:107B7000E01A01B2069881421EDB70466044420062
:107B80000498825A7046801943000498C05A101A0B
:107B9000081A00B2002801DA424200E00246002939
:107BA00000DA49428A4207DA002800DA40420599A1
:107BB000884201DA002503E06D1C022DB9D30125AE
:107BC000002D01D1FCF7F9FE284609B0F0BD0848A8
:107BD000006A704706480021C1614161704704484E
:107BE0000021C1614161704770477047180A002049
:107BF000DC090020B441002074400020A2090020CC
:107C000033090020340900207047082801D2F849C0
:107C100008707047F649002088604860F5480068A1
:107C200080304078082800D208707047F04800780B
:107C3000704770B5EF4D002428686030007B8007E6
:107C40000BD5FBF7ABFC022807D1E948296800787F
:107C5000800040188030808884B2204670BD70B5A6
:107C6000E44D0124286824036030007B80070DD593
:107C7000FBF794FC022809D1DD48296800788000D0
:107C8000401880304068000C0403240B204670BD6F
:107C9000D7488078002800D001207047F8B5FBF75E
:107CA0007DFC01252D03022843D102F07AF8022839
:107CB0003FD12E4602F0B4F8CE4F0446386860300B
:107CC000017BC9070DD0C08A4142C94882689142F0
:107CD00007DB002C05D00021641E8160204602F0E5
:107CE000A4F839680A466031087B40070AD5002CA1
:107CF00008D0888B641EC98BA040814200D2084600
:107D00000603360B8032506A810706D5B849897858
:107D1000002902D0000C05032D0BB54200D83546D2
:107D200002F0F9F8002804D001204003854200D277
:107D300005462846F8BDAF4A6C2311685B5C9B077B
:107D400001D400207047F0B5A94B803189B01F786D
:107D500009780691002808DB884201D2B84202D196
:107D6000002009B0F0BD06463FE00020C0433E467B
:107D70000790F9F799F9F9F737FF069800250028D9
:107D800033D99C48A90000680024081880308088F6
:107D900081B22046F8F732FEF9F737FB6846F9F76B
:107DA0009EFC002860D00198002811D0014692481E
:107DB000924A007812785043421E002808D00020D2
:107DC000085E891C002800DA40420419521EF6D2CF
:107DD000F9F7B1FCF9F768F90798A04201D92E46E6
:107DE000079406986D1C8542CBD3B7423FD0082E2E
:107DF00001D27F490E707F4C82212068095A0029E8
:107E000023D0BA001218B30018188032803092883C
:107E1000808892B280B2801A4843001305B2FBF703
:107E200003FB754F764B3A781B7800215A43002AA2
:107E30000BD9734F4A00835A491C5B1983526E4A0F
:107E40003B7812785A438A42F4D80120800602F027
:107E50008BF82168B000401880308088022182B2FF
:107E6000032001F0CAFC09E0FBF7D6FB96E701F01E
:107E7000D7FF032802D2401C01F0D7FF012009B030
:107E8000F0BD5C485A4900686030C08A4242886848
:107E9000824201DA401E88607047F7B5044690B010
:107EA00000200E460E9001F0BBFF524F050010D18E
:107EB000FFF765F9014638686030008B814208D3CE
:107EC0004B4900208860012001F0AFFF012013B072
:107ED000F0BD002E1CDD46498868002801DA00202C
:107EE00005E03A686032928A824201DD401C886077
:107EF00038688A686030808A904215DC032D13D27E
:107F000000208860681C01F090FF012013B0F0BDD4
:107F1000002E09D1386836496030C08A42428868EC
:107F2000824201DA401E886031488078002807D0FC
:107F300038688030808C400702D5002013B0F0BD37
:107F4000386812216030415E294AA1420CDA51683A
:107F500009195160C089884210DC00205060401E21
:107F6000FFF7E9FE0E9009E05068002806DD002CBE
:107F700001DD214600E00121401A506021480078CF
:107F8000072820D1204812990078420068460AF05C
:107F900088FF69460C804E8015488D800289CA8012
:107FA0008088088138686030428A4A81828A8A8162
:107FB000C289CA81C08A088212480078072802D183
:107FC0000846FEF7B3FB0E9813B0F0BD10B5094894
:107FD00000688030406AC10505D50004010F01200A
:107FE0008840FAF7F4F8024800214170817010BD12
:107FF000080A0020180A00202E090020320900205B
:108000002F0900209D0900203509002070B5344D4E
:108010000024A878002801D0012600E00026687816
:10802000002803D101F014FF002801D0012100E055
:1080300000218E4224D0002901D0012200E000223C
:108040002848AA7000688030436A5E070ED5002970
:1080500004D01806000F082806D306E00021A96006
:1080600069604078082800D228700124980700D55C
:108070000124002A00D001220421032001F0BDFBCD
:10808000204670BD17490020096880314A6AD10531
:1080900025D5F0B4124C6178002901D0012300E00D
:1080A000002311040D0F10490968C96B0126AE4069
:1080B0003140920502D5002904D104E0002901D005
:1080C000002100E001218B4207D0002901D00120CE
:1080D00000E000206070F0BC98E7F0BC704770478B
:1080E000080A0020180A0020947401005F48032148
:1080F00000680902401870475C480068FF30013092
:10810000704770B51B20594C00032060584A016825
:1081100091422BD1112241685201914226D1012175
:10812000856889038D4221D8524AC16891420DD099
:108130000023AE0801461A46002E07D9AE0820C912
:10814000521C6B409642FAD8002B0FD1FF30013001
:1081500000F0BAF8002809D003212068090240186D
:1081600000F0C0F8002801D0012070BD002070BDD3
:1081700010B51B200003F9F7FCFE10BD3B483C4A3C
:1081800000680168914204D1112241685201914274
:1081900000D00020704710B5344B1B68FF3301330B
:1081A0001818F9F798FF10BD10B5304B03241B6861
:1081B00024021B191818F9F78EFF10BD2B48006810
:1081C00000697047294909680A69824201D800207C
:1081D00070473822504340180121890240187047E7
:1081E00082002248006813185B6A1818224B9A58BC
:1081F000FF32120A12024A4380187047F0B41B4B38
:108200001D4F1B680022851828242C57002C0DDBDD
:108210001506AD0DEE187D59766AFF352D0A2D0233
:10822000F6186543741995004C5102E0002495003E
:108230004C51521C102AE6D3F0BC7047002913DBC6
:10824000134610B5094A800012688418646AA4189D
:10825000094A1258D01DF830000A0002484300199C
:108260001946F9F738FF10BD70470000140A0020C6
:1082700054465053EFBEADDEF874010070B5FF25D3
:1082800085351D4CFFF73DFF002812D0FFF72EFF6C
:108290000146BC221948F7F7C1FFFFF72DFF014641
:1082A0002A462068F7F7BAFF2068406D01F038FDD4
:1082B00070BD294620680AF05CFE00210420FBF70F
:1082C00082F9FEF7B4FDDDE7002807D00C4A01680B
:1082D000914203D140680009222801D00020704754
:1082E00001207047002803D000680009042801D04D
:1082F0000020704701207047180A002064420020C7
:108300004150535210B572B60120F9F767FDFAF7E4
:10831000BDFBFAF7EDFB0020C043FAF70CFA012091
:108320004003FAF71BFAFAF7EBFDFAF714FE012007
:10833000FAF7E7FDF9F7F0FD1E20FAF7D5FDFAF799
:1083400004FCF9F755FFFAF78DFDFAF754FCFAF73C
:1083500019FAF9F7BDFFF8F7B8FEFAF799F9FAF745
:108360005BF9FDF77BFFFCF747FBFEF7FEFC62B60F
:10837000FFF784FF374809F053F8374CFF20216896
:108380000D30085E09F01EF9FFF73EFCFAF70EFE0D
:10839000FBF724FB2068418A008AFEF712F9206867
:1083A000816E0804400CC9074000C90F084301F062
:1083B00017FAFEF775FEFFF712FCFBF7AEF920681F
:1083C000406E0007000FF9F72DFC24480068026991
:1083D000702002400C21012001F00FFAFFF7F6FD9A
:1083E000002010BD00210320FBF7EDF801251C4CF7
:1083F000FBF7D4F806282AD203007B441B79DB184C
:108400009F442515021F22122078002809D1FCF76D
:1084100066F9002805D100221E21022001F0EDF9A5
:10842000257001F0A9FFE3E7FEF733FDE0E7FCF775
:10843000C9F8FBF7B3F80128DAD10220FBF7C0F83E
:10844000D6E701F07EFAD3E7FEF7F1FCD0E7FBF7C1
:1084500040F9CDE764420020180A00209C74010016
:108460001C0A0020FE490870704730B47D2080024D
:10847000FC4A0168914219D101224168520291429D
:1084800014D3852183680022090104468B4200D958
:108490000B4600219D08002D09D99B088D006559C8
:1084A000491CAA188B42F9D8002A00D0002030BC01
:1084B0007047F8B57D2104468902EA4885250A6897
:1084C0002D01824217D101204A684002824212D314
:1084D0008E6800230A46AE4200D92E460020B70817
:1084E000002F09D9B6088700D759401CFB188642CF
:1084F000F9D8002B00D00021002907D08A68AA42B1
:1085000000D92A462046F7F789FE17E0FF222946C0
:1085100020460AF007FDD348206001200021A56015
:108520004002E1606060204620300170417081703F
:10853000C1706161A161CC48E16120610120F8BD99
:1085400070B500210C46C1608522816812019142FC
:1085500000D9114600238D08002D06D98D089E00F4
:1085600081595B1C0C199D42F9D861427D23C16081
:108570009B0201461846F9F7AEFD012800D0002005
:1085800070BDF0B4012102684902516001680A46D9
:1085900020314B780C781D466543503269008918AC
:1085A0000022002B08D955002D1880356D890D80CB
:1085B000891C521C9A42F6D30022002C08D955007F
:1085C0002D18C0356D890D80891C521CA242F6D32E
:1085D0000022002B07D955002D18AD880D80891C6D
:1085E000521C9A42F7D30022002C08D955002D18AE
:1085F0004035AD880D80891C521CA242F6D302463C
:108600008032D5880D80891C15890D80891C92883F
:108610000A80891C00250022002B0BD9AE013618D8
:108620005700F719FF3701377F890F80891C521CCB
:108630009A42F5D30022002C0BD9AE013618570010
:10864000F719FF37C1377F890F80891C521CA2425E
:10865000F5D36D1C032DDED3F0BC7047F7B58EB09B
:1086600005461098002603680F989E465033314601
:10867000B4460993002825D97C480068C030009092
:108680000022002D11D900980E27C75F0020185E28
:108690009B1C002801DA444200E00446BC4201DA97
:1086A0003618491C521CAA42F0D36046401C84462E
:1086B0000F988445E4D3002904DD30460AF069FCB4
:1086C000049009E04008684369084018410070467A
:1086D00008185021415E04910020009001900998F3
:1086E0000690002007900F9800287BD9680005901D
:1086F00006980B905D48C023006829461C5E8030B8
:108700000D94406B01220002000E0C900020089096
:10871000039002900B98844600208646002930D9A9
:1087200050000A9060460022825E0898002480185B
:1087300008900B98234600290DD90026865FB71AAA
:1087400000D5971B0D9EB74200DA641C0A9E5B1C85
:1087500030188B42F1D30C98844205D303988018CB
:1087600003900298401C02900A9884447046401C72
:1087700086468842D6D30298002802DD0146039837
:1087800000E008980AF005FC079900B24A00109929
:108790001A23511888803549049A0968A031CB5EA4
:1087A000D21A90420BDD18228A5E04995118884231
:1087B00005DA0199401801900098401C0090069934
:1087C00005984018069007980F99401C079088421A
:1087D0008ED30098002805DD014601980AF0D9FBE8
:1087E00001E0FFE704980190014610988030059061
:1087F000C18000200090039009980690002002900C
:10880000002D7DD906980B901848BC2100680F9F59
:108810000A5E80300D92406B000E0C900020099093
:10882000089007900B98844600208646002F39D97F
:1088300068000A9060460023C35E09980B9AC0182E
:10884000099000200446002F16D90021515ECE1A4F
:1088500000D55E1A0D998E4200DA401C0A9907E095
:108860001D0A002053454C46FF070000180A00204F
:108870008A18641CBC42E8D30C99884205D3089836
:10888000C01808900798401C07900A9884447046C6
:10889000401C8646B842CDD30798002802DD014629
:1088A000089801E0394609980AF073FB029900B272
:1088B0004A0010991A23511840318880FD49049AC2
:1088C0000968A031CB5ED21A90420BDD18228A5E75
:1088D00004995118884205DA0399401803900098CA
:1088E000401C00900698801C06900298401C029044
:1088F000A84287D30098002806DD0146039800E0CF
:1089000002E00AF046FB00E004980599088101990D
:10891000081800B2C10F081805994010888011B0DE
:10892000F0BDF7B584B0154614680599049800F0B9
:1089300091FE049E00212868002E016316D9DD4AAD
:108940001768C0374A00531944229A5E002A00DA99
:10895000524213B20C22BA5E9A4204DD0122036B2A
:108960008A4013430363491CB142EBD30021721EBA
:10897000002A35D92A4680320292761ECD4A0196C7
:108980001268C03200924B005E1940360623042262
:10899000F35EB25E9E1A00D5D61A36B2B446009E79
:1089A0000427F75F674517DA029F0826BE5F971B0B
:1089B00000D5B71A3FB29A1B00D5F21A12B2036B58
:1089C000974204DB01228A401343036304E04E1CF8
:1089D0000122B24013430363019A491C9142D2D34E
:1089E000059F00202968002FC86317D9B14A126873
:1089F000C03243005E19FF230B33F35E1826965FE7
:108A00009E4203DC1A26965F9E4204DA0123CE6B57
:108A100083401E43CE63401CB842EAD3049F00202B
:108A20002968002F886317D9A24A1268C032430010
:108A30005E19FF23CB33F35E1826965F9E4203DC5C
:108A40001A26965F9E4204DA01238E6B83401E43F2
:108A50008E63401CB842EAD3059F00202968002F8E
:108A6000486417D9934A1268C03243005E19FF2345
:108A70004B33F35E1C26965F9E4203DC1E26965FF8
:108A80009E4204DA01234E6C83401E434E64401C18
:108A9000B842EAD3049F00202968002F086416D941
:108AA000844A1268C03243005E19834BF35E1C2671
:108AB000965F9E4203DC1E26965F9E4204DA0123E7
:108AC0000E6C83401E430E64401CB842EBD30498E6
:108AD000059F844600212868002FC164816417D94E
:108AE000744A1268E0324B005E19FF238B33F35E49
:108AF0000026965F9E4203DC0226965F9E4204DAC1
:108B00000123C66C8B401E43C664491CB942EAD39C
:108B100000216246002A19D9664A09271268BF0156
:108B2000E0324B005B19DE190A23F35E0026965FE4
:108B30009E4203DC0226965F9E4204DA0123866C85
:108B40008B401E438664491C6145EAD3A66B226CA8
:108B5000B24322641046A56C304385432946014345
:108B6000A564206B884384462063002A14D000212A
:108B7000049B0846002B0FD901273B4683401A422D
:108B800000D0491C049B401C9842F6D3012903D114
:108B900016430020A6632064002D03D0E06C00285B
:108BA00000D1A064E56B626CAA4362641146E06C7C
:108BB00029438843E0640646676B0843874367633D
:108BC000002A13D00021059B0846002B0ED9012353
:108BD00083401A4200D0491C059B401C9842F6D3A2
:108BE000012903D115430020E5636064002E03D002
:108BF000A06C002800D1E0646046002803D0206902
:108C0000102108432061002F03D020692021084350
:108C10002061A06B002803D0206940210843206117
:108C2000002D03D02069802108432061206C00289A
:108C300004D0FF212069013108432061606C0028C5
:108C400004D0012120694902084320610121A06C60
:108C50008902002802D0206908432061E06C0028C6
:108C600002D0206908432061012007B0F0BDF0B5B3
:108C7000B3B014460D460646F8F716FAF7F7C9FCE6
:108C800001461120002902D00890012001E00121B5
:108C90000891079606950990F8F714FC0023024600
:108CA000002D14D95F1E22A9D056012806DA3846B5
:108CB00009E00000180A00200A020000092801DA71
:108CC000133000E00938C8545B1CAB42ECD3F8F712
:108CD000FBFB01460020002E07D922AA13180D5CC9
:108CE0002033401C1D70B042F8D3F8F76FFB219081
:108CF0000120F8F7AFFAFE480078800643D5F7F771
:108D000088FCFD4AFB491268FC4B5118D218002818
:108D100002D00D920C9101E00C920D9120468A3008
:108D20000E9040300F90FF210F20FAF75FFEF8F70A
:108D3000BBF90026B70006A8C0590A9008A8C05978
:108D4000F8F7CEFE0A980025002819D9700122A94B
:108D500040180B9040571C2807D20CA9C959800015
:108D6000085880B2F8F7C2FE00E000200EA9C959E9
:108D70006A0088520A986D1C854201D20B98E9E777
:108D8000761C022ED6D3DA480078C0077ED0F7F7DB
:108D900040FCD94ADA491268E7235118DB00D2189F
:108DA000002802D00D920C9101E00C920D9101204F
:108DB000F7F713FE1F900898F7F76BFE16900998C7
:108DC000F7F767FE159012AB10AA0EA90898F8F7EE
:108DD000ADF813AB11AA0FA90998F8F7A7F80898EE
:108DE000F8F71EF914900898F8F71AF9C54D0B908A
:108DF0002868E03081880120F7F700FE2868E0301D
:108E000081790898F7F756FE2868E030817909984B
:108E1000F7F750FE2868E03001890898F8F7AEF8B7
:108E20002868E03001890998F8F7A8F80020F8F7D9
:108E300019F91E902868E0308389C27A817A0898EF
:108E4000F8F740F82868E0308389C27A817A099877
:108E5000F8F738F80020F8F705F96D46F8F7D5FA75
:108E6000FDF72AFA012804D02846F8F738FC002834
:108E70007DD0F8F719F903990022950006AB5D59EA
:108E80000020002D0ED9C023534300E0F8E01B1949
:108E90000E884700DF19FF370137891C401C7E818F
:108EA0008542F5D8521C022AE7D30898F7F737FA1B
:108EB00018900998F7F733FA17900898F7F7CDFE4E
:108EC0001A900998F7F7C9FE8E4D19902868E0307E
:108ED000C389C27A817A0898F7F7F4FF2868E030EE
:108EE000C389C27A817A0998F7F7ECFF002600203F
:108EF000F8F7B8F800210898F7F7D7F90021099892
:108F0000F7F7D3F9B50008AF1D9578590121F7F7A8
:108F1000CCF906A840590A900CA8405920900A980C
:108F20000025002836D922A9700140181C9030462F
:108F3000C021484300191B901C980021475D08463A
:108F4000F8F799F801211D98B94008AA0F46105862
:108F5000F7F774FEF9430920F8F78DF86F46F8F734
:108F600054FAFDF7A9F9012806D0384600E08CE054
:108F7000F8F7B5FB00287DD0F8F796F8209801881F
:108F80001B986A008018FF30413041810A986D1C9F
:108F90008542D1D300210846F8F76DF8761C022EE1
:108FA000A5D318990898F7F780F917990998F7F752
:108FB0007CF91A990898F7F741FE19990998F7F77B
:108FC0003DFE504D2868E030038AC27A817A0898C5
:108FD000F7F778FF2868E030038AC27A817A099827
:108FE000F7F770FF0120F8F73DF86D46F8F70DFA36
:108FF000FDF762F9012804D02846F8F770FB002835
:1090000049D0F8F751F803990022950006AB5D5955
:109010000020002D0CD9C02353431B190E88470094
:10902000DF19FF378137891C401C7E818542F5D8C6
:10903000521C022AE9D301201F99F7F7DFFC169989
:109040000898F7F737FD15990998F7F733FD129B44
:10905000109A0E990898F7F735FF139B119A0F99FC
:109060000998F7F72FFF14990898F7F787FF0B99DE
:10907000099800E00CE0F7F781FF1E98F7F7F2FF80
:109080002198F8F7E7F833B0F0BDFAF7C5FAE7E64C
:10909000FAF7C2FA65E7FAF7BFFAA9E7F0B51A4B93
:1090A00085219D4402ACFF220901204609F03AFFC8
:1090B0001648A321FF228900684409F033FF1448B1
:1090C000684484652046FFF7F4F9094806783006BD
:1090D0007ED50E4A6A4410465838816D14462031B8
:1090E0000878583C4978A36D0C465033444311E04E
:1090F0001D0A002070550000B8740100704E000079
:10910000B80A0000180A0020ECF4FFFF580800001D
:10911000000800006400E3180024002908D9660054
:109120001D88B61880369B1C641C75818C42F6D352
:109130000024002808D966001D88B618C0369B1C7C
:10914000641C75818442F6D30024002907D9660087
:109150001D88B6189B1C641CB5808C42F7D3002474
:10916000002808D966001D88B61840369B1C641C70
:10917000B5808442F6D31D8814468034E5809B1C5C
:109180001D8825819B1C1D88A5809B1C0024A4464E
:10919000002400290CD96546AD01AD186700EF1910
:1091A0001E88FF3701379B1C641C7E818C42F5D3DF
:1091B000002400280ED96546AD01AD186700EF19EF
:1091C0001E88FF37C1379B1C641C7E81844200E0EF
:1091D00009E0F3D36446641CA446032CD8D3FFF7FC
:1091E0003DFA012784E0FE48002768440090FD48CE
:1091F00000688030808E0407240F00F09FFB012858
:1092000009D00F212046FAF795FA012808D000204E
:1092100000F091FB6CE000210846F8F732F802E01C
:10922000012000F088FBF0480578F0480478002C15
:109230005CD0002D5AD0EE4800216844826D104663
:109240002030057044708170C1700121C902303036
:1092500009F08FFEF8F783FC2120064204D0214656
:109260002846009AFFF703FDB0073ED0E149694464
:109270004D66019400988866F8F7A8F80446022025
:10928000F7F7E8FFFF210F20FAF7B0FBF7F70CFF25
:109290002046F7F7DFFFD649019B69448F6DD5491A
:1092A00038465030009069444A6E00210846F8F76D
:1092B0009EFB0020F8F714FCCE49019C69444D6EDA
:1092C00000266C43002C09D97000C5194035288A46
:1092D000F8F70CFC761C2882B442F5D8C5480199F1
:1092E0006844826E406EFFF7B9F90127F8F73DF840
:1092F00008A9087ABF49002F6944886708A9487AF5
:10930000BC49694448677DD0886F00287AD0486F8F
:10931000002877D000200690B74880310078086197
:10932000800770D580398C6F486FC866AC48803133
:109330006844C86001465839886DAE49844650304B
:1093400069440867AD484866C04301900020C8677B
:109350008031086080398866C86E002866D9A148C7
:109360000068C03080314860A24800236844816EA4
:109370008030614381608038006F4900415E009316
:109380000F4601233A46012C1AD99D48994D68444D
:1093900080686D44C0182D6F4000285E904200DD4B
:1093A0000246884200DA0146C51B00D53D1A009EE0
:1093B0002DB2B54200DD00955B1C0746A342E4D305
:1093C0000198824200DD01928A486844406E8142E1
:1093D00002DA884868444166501A00D5881A8849DC
:1093E00000226944496800B28A5E824207DB8448F1
:1093F000022168444068415E009881420EDA7D494E
:10940000694401E023E1C1E0896E012088407C4984
:109410006944096808437A496944086075496944A0
:10942000886E401C8866C96E88429DD30025002C3A
:1094300062D96C48724900686944A03048606D4840
:1094400069006844006F0123415E6A480A46684427
:1094500081660020009067486844C06E012820D9CA
:10946000644E184660436E444019366F4000305ECB
:10947000904200DD0246884200DA01465D4F6F44AB
:10948000BE6E861B01D5BE6E361A009F36B2BE4236
:1094900000DD0096574E5B1C6E44B066F06E834252
:1094A000DED30198824200DD019252486844406E4A
:1094B000814202DA4F4868444166501A00D5881A42
:1094C0004F491C226944496800B28A5E824207DB28
:1094D0004B481E2168444068415E0098814208DA8A
:1094E000444901206944C96FA8400843414969447F
:1094F000C8676D1CA542A2D3414861466844006814
:10950000C862002804D00869082108436146086140
:1095100038486844C06F8862002804D00869042174
:10952000084361460861334804226844416E60463E
:10953000818461460198C884314801996844C068B3
:109540008030825E891A01D50199511A254A182363
:109550001268A032D35E994205DD61460969022393
:10956000194363461961234B0421415E6B44586ED5
:10957000081A01D5586E401A1A21515E884205DD3D
:109580006046006901210843614608611C481A4C85
:1095900068440069C00707D01648114A6844416F03
:1095A0006A44806FFFF7BDF92078400640D40798E1
:1095B000401C07900698002824D00998401C099068
:1095C00007486844FEF7DDFF00200346059085222A
:1095D0000498120102A9904218D8044617E000002E
:1095E00058080000180A00202E0900202F0900202A
:1095F00000080000800A00001D0A0020FF7F000014
:10960000000B00000898401C0890D9E71446002081
:10961000A508002D06D9A40885004D59401CEB185B
:109620008442F9D85842C8607D208002F8F753FD83
:109630000A2069460870087E4870487E8870887ED7
:10964000C870C87E08710522012000F0F2F8624B54
:109650009D44F0BDF7B5116887B000205F4B4863AB
:109660001B68089CC0330093002C27D91546803511
:1096700043009C180423E35E002B01DA5C4200E007
:109680001C46009F0C26BE5F24B2A6420DDC0624B9
:109690002C5F002C00DA6442002B00DA5B420626C5
:1096A000E31ABE5F1BB29E4204DA01234C6B834077
:1096B0001C434C63089B401C9842D9D30098827A83
:1096C000002A7DD0C07A824200D9104600229446FA
:1096D000089A002A7DD9401C049001230020864668
:1096E0000190049A0120012A59D9009C0E22079D5D
:1096F000A25E64466B436C43029363190693029B1C
:1097000003945B190593039B50251B185B005B18A2
:109710005D5F002D06DA6B4205E06046002ADCD072
:10972000431EDBE72B46934239DC029B50241B1877
:109730005B005B181C5F002C01DA634200E02346EB
:1097400093422CDC069B1B1A5B005E184E23F35ED3
:10975000002B01DA5E4200E01E4696421FDC059EA9
:10976000361A760077184E26BE5F002E01DA774251
:1097700000E03746974212DC671B009D08242C5FEF
:10978000A74202DD75466D1CAE46F31AA34202DD08
:10979000019B5B1C0193049B401C9842B3D301982E
:1097A0007246801A02D51046019A801A009A927A5F
:1097B000904207DB634601204A6B9840024300E079
:1097C00007E04A636046401C844602460898844588
:1097D000A3D301200AB0F0BD140B0000180A00202A
:1097E000C2B2524900040A80000E488070474F49B7
:1097F0000878498809020843704710B54B4C01238B
:109800002488834082B0234211D08006800E6B46AC
:10981000187059709A70100AD870100C1871100EC8
:10982000587100209871D87168460AF073F802B038
:1098300010BD30B53D4C01232488834083B02342C2
:109840001AD08006800E6B461870072A00D90722AE
:109850000020002A07D90C5C1D18401C6C70904237
:10986000F9D3072805D200211A18401C5170072887
:10987000FAD318460AF04EF803B030BD30B52B4C81
:1098800001236488834083B023421BD08006800E6E
:1098900080306B461870072A00D907220020002A62
:1098A00007D90C5C1D18401C6C709042F9D3072836
:1098B00005D200211A18401C51700728FAD3184607
:1098C0000AF028F803B030BD30B5184D0A02AC8854
:1098D000024383B02346022802D005280AD104E0BF
:1098E000002906D0022905D103E0002901D0022970
:1098F00000D11446A34216D02A8801200821114223
:1099000010D0032269460A7048708C70200AC87013
:10991000200C0871200E487100208871C8716846BB
:1099200009F0F8FFAC8003B030BD00001E0A002033
:10993000F34908707047F24948707047F048407822
:109940007047F0B5EE4895B000214170FCF7B4FCCB
:10995000012803D1F9F722FE03287DD1E84C2078B5
:10996000C00707D0FFF79AFB20784008400020701E
:10997000FCF79EFC207880076FD5E248E04900683C
:109980004978806D0005000F02290AD0DC4CA178CF
:109990000907090FF9F7CEFE012807D000206070F3
:1099A00093E100210846F7F76CFC01E002206070AB
:1099B000F7F70CFDD24F1390B878C00601D5F8F731
:1099C000C5F8FF210F20FAF711F8CF48007804906E
:1099D000CE4800780F90CE4800780690CD480078A9
:1099E00007900F98002802D00498002805D1079806
:1099F000002878D00698002875D0FEF7F5F8FEF715
:109A0000E9F80020F9F746FD0020F9F792FDB87853
:109A1000C00604D50120F9F78FFD012003E00020E6
:109A2000F9F78AFD0020F9F787FD0120F6F7BFFF5F
:109A3000F7F7D5FC1E20FCF7F4FD00210846FCF7E3
:109A40008BFD119001210020FCF786FD10900F9AEC
:109A500004990020514301E047E13FE10E910029C4
:109A60000AD9AD4A530C119C41006252109C401C13
:109A700063520E998142F6D81E20FCF750FF002158
:109A80000120FCF769FD054601210846FCF764FD4D
:109A9000079A0699044600208E18002E07D99E4A80
:109AA000530C41006A52401C63528642F9D8002090
:109AB00012909348808800287ED9701C400814902A
:109AC000FCF7FAFB012877D008A8F7F708FE002872
:109AD00076D0099800283BD0894FB878C00603D5C6
:109AE0000998059013E0F0E0002000230090019019
:109AF000029003901A46194609980AF003FC059053
:109B0000B878800603D5FDF762FF059009E0F9F704
:109B10008BFC0F9A0092059A01461046049B0BF0AD
:109B2000B1FC0E980021002812D94A000598119B1B
:109B3000805E9B5E834201DA119B9852109B9B5E74
:109B4000834201DD109B98520E98491C8842ECD844
:109B50001398C0072BD00C980027002817D068480E
:109B6000807880060C9807D5002211460AF04CFE3A
:109B7000FDF730FF07460AE00746F9F7BBFC022273
:109B800000923A4601461046149B0BF07BFC0021E4
:109B9000002E0CD94A00B85EAB5E834200DAA852B0
:109BA000A35E834200DDA052491C8E42F2D8F7F733
:109BB000C2FD1298401C01E00AE001E0129001E0B1
:109BC000F9F72AFD4E4812998088814200D277E742
:109BD000F7F76AFAFDF7FEFFFEF707F84849129813
:109BE000898888426BD31398800725D500200E9A68
:109BF0004A498446002A0FD9119B42009F5E109B60
:109C00009A5EBA1A624500DD94468A4200DA11462D
:109C10000E9A401C8242EFD80B206A4610706046B4
:109C200000125070604690700812D07011710522B9
:109C300069460120FFF7FDFD1398C0073FD00022C1
:109C400036491346002E0CD958002F5E205E381A74
:109C5000904200DD0246884200DA01465B1C9E42CB
:109C6000F2D8069B0020002B1BD9079EF318009307
:109C70001B1A5E007319B446203BDE8B069B1B1A31
:109C80005B005F196037FE8066463619203E1B195F
:109C9000F68B6033DE80069B401C984201D2009B0D
:109CA000E6E70D206B461870101258709A70081273
:109CB000D8701971052269460120FFF7BAFD3020DE
:109CC000FCF7AFFC3020FCF72AFEF7F74EFB0C4800
:109CD000FD22017811400170FCF7EAFAF9F75EFC09
:109CE000032802D1F9F798FC30E615B0F0BD04491D
:109CF00088707047024880787047014988807047B3
:109D0000240A0020180A00202E0900202F09002014
:109D100033090020340900200080FFFFFFFF00000E
:109D200082B2FE49000C00048A6148617047FB4A18
:109D300002239169002801D0194300E09943916101
:109D40007047F648007E8007C00F7047F34AF02343
:109D5000916900079943000E084390617047EF48EE
:109D6000007E0006000F7047EC4A0028916903D07E
:109D7000012001439161704748084000906170479D
:109D8000E648007EC007C00F7047E44B59690A01DE
:109D9000120F0902090A1207000602430A435A6118
:109DA0007047DE4840690001000F7047DB4840699A
:109DB000000F7047DA480068406D0001000F7047DF
:109DC000012181400806010AD448426911434161DA
:109DD0007047012181400806020AD0484169914339
:109DE00041617047CD4840690002000E7047CB4A80
:109DF000117E526909061202090F120E022802D0C2
:109E0000012803D004E0490708D501E0890705D5FA
:109E100001218140114201D001207047002070478C
:109E2000BE48808A0004000F704710B5BB4B024645
:109E3000586901040C0F0F21090388431107090C0D
:109E40000143596103210846FFF7D7FC204610BDA6
:109E5000B248008B4005C00F704770B5AF4E044646
:109E6000B5694007E905C00FC90F884201D0F9F76D
:109E70006DFAE1074020002901D0054300E0854349
:109E8000A848610701D5054300E08543A64821079E
:109E900001D5054300E08543A448E10601D505430B
:109EA00000E08543A248A10601D5054300E08543B3
:109EB000A048210601D5054300E08543B561FEF7C2
:109EC000A5F870BD9548816900204A0600D501209B
:109ED0008A0601D502221043CA0501D50422104387
:109EE0008A0501D5082210434A0501D510221043E6
:109EF0000A0501D520221043890401D58021084399
:109F000070478648007E4006C00F70478348007E39
:109F10008006C00F70478148008BC005C00F704796
:109F20007E48008B8005C00F704710B5FDF7B0FE6E
:109F300010BD7A48008B0005C00F70477748008B32
:109F4000C004C00F704775488069C104C90F02D0B2
:109F50008006C00F01D000207047012070476F4875
:109F6000008B8004C00F70476C49CA690243CA6104
:109F700070476A49086270476848008CC007C00F84
:109F80007047F0B587B00546F9F708FB0446F9F7C6
:109F900008FB0746052C09D0674E6048007E000686
:109FA000020F052C04D0052F02D007E0634EF4E722
:109FB000FFF7C9FF002801D00220024311462846BE
:109FC000F9F7B8FB002821D0FDF70EFEF9F783F969
:109FD0000546F8F7ACFC0020F6F7E9FCF7F715FAB0
:109FE000FCF76AF9012809D0F9F7D8FAA04205D19F
:109FF000F9F7D7FAB84201D1002D09D0F7F754F894
:10A00000FDF7F3FDF9F7ACFCF8F7CAFC07B0F0BDBB
:10A010006846F7F764FB002809D06846FCF7C7FDDF
:10A020006846B0470500DBD1F7F7EFF9D8E7F9F755
:10A03000E8FAD5E742487047384A108251827047A3
:10A04000F1B598B00024382102A808F092FF002052
:10A0500012903C483D4D06783B48394F00780190BE
:10A060002878032802D13846FCF77FFB0198189A1C
:10A0700000903346394610460BF004FA3348007816
:10A08000062802D11898FCF770FB2448008BC00505
:10A09000C00F0DD022480068FF302130017F14919D
:10A0A000407F022801D3801E00E00020139002E0D0
:10A0B0000020139614901898019A00270146002A50
:10A0C00016D90025455F801C0122012E09D90023E5
:10A0D000C35E801C5D1B0D80891C521C1D46B24254
:10A0E000F5D300220A80019A891C7F1C9742E8D38D
:10A0F0000020119010900090189D01982A46002889
:10A1000074D9761E15960020A1B200230404EB5EDC
:10A110002143AD1C0C0C2404044319E02C0A00203C
:10A12000180A0020000100000002000000040000E6
:10A130000008000000200000756A0100D15D0100E8
:10A14000A44400202E0900202F0900209D09002092
:10A150001599012001293DD90021695EAD1C8C466D
:10A16000C91A09B21180921C002900DA494223144D
:10A1700026B2179309B2F3185E18B646430002AE32
:10A180001693F35E119E73448E4200DA1191109E75
:10A190009E4200DA1093E14E3C273668F75F8F420B
:10A1A00002DDF68F9E4208DC149B984205D3139B78
:10A1B000984202D8129B5B1C1293179E0904B4B2FA
:10A1C0000C43169E714602AFB9531599401C634665
:10A1D0008842C1D300201080921C10800098019901
:10A1E000401CAD1C921C009088428CD3CC480822A5
:10A1F000825E11998A4200DA01810A22825E1099F8
:10A200008A4200DA4181C7480078012802D11898B3
:10A21000FCF7ABFA129819B0F0BDF0B50446002077
:10A2200083B0064601900290BF48C0490078097883
:10A230004518F8F7F1FE0090F9F75CF9B84989780C
:10A2400049004718BA480078032802D13846FCF77D
:10A2500091FB009800280AD0B1488078410000980E
:10A2600008180090B248007802280CD00EE00020B8
:10A27000002D19D94100625A7B5A401CD21A6252F1
:10A28000A842F7D310E00098FCF774FB0020002DE3
:10A290000AD94100009A7B5A525A401CD218635A7C
:10A2A0009A1A6252A842F4D3A1480078062802D133
:10A2B0002046FCF75FFB0020691E002919D9984A47
:10A2C0001221515E6B1E8C4641000A195288675A52
:10A2D000D21B12B26252002A01DA514200E011464A
:10A2E000614503DA01998918761C0191401C984256
:10A2F000EAD33146019808F04CFE06B2680007190F
:10A30000203F8B48FE830078072802D12046FCF7C7
:10A3100031FB00206A1E0146002A0FD96D1E4B003A
:10A32000E25A921B12B2E252002A00DA524212B2F0
:10A33000904200DA1046491CA942F0D37849F883CC
:10A340000C228A5E904200DD888110228A5E904253
:10A3500008DD0120029076480078142802D12046BA
:10A36000FCF708FB72480078012802D12046FCF770
:10A3700001FB029803B0F0BDF0B587B0FDF74AFCD1
:10A38000664C362122683420515E105EFDF77FF85E
:10A390000420FFF72CFD624D00280FD0287E800698
:10A3A000C00F03D1FFF7CFFD002807D12068806DD3
:10A3B0000003000F0F2801D0F8F7C6FF0520FFF7B4
:10A3C00016FD00280BD0FFF7BEFD002807D020683F
:10A3D000806D0002000F0F2801D0F8F7B5FFF9F7E4
:10A3E000DDF802287DD14E4F78690001040F4B48FB
:10A3F000A1000068806DC840050700207862B8623F
:10A40000F8622D0F21460220FFF75EFA062C76D265
:10A4100023007B441B79DB189F446A0202026E6EA4
:10A4200078692B460001050F387E0006020F022DC9
:10A4300008D1FFF788FD002802D00220024301E086
:10A440000220824311461846F9F774F9002856D0C5
:10A45000FDF7CAFBFDF7BEFBF8F73DFF06001DD177
:10A4600000242046F6F7A3FA0690F6F7CEFF002068
:10A4700038700746FBF720FF01280BD0F9F78EF85C
:10A48000022807D1264840690001000FA84201D1E7
:10A49000002E06D0FDF79EFBFDF7A7FBF9F760FA4B
:10A4A0002DE06846F7F71BF900281ED0002C05D1D7
:10A4B00001240698F6F77BFAF6F791FF6846FCF759
:10A4C00076FB68460AF0FEFA06461A48007800282D
:10A4D00006D0194801688A6818490A600068076050
:10A4E00000E015E0F7F727F9C4E7F9F795F8C1E7B9
:10A4F00028460AF019FD02E02846FFF742FDFBF767
:10A50000DBFE012804D0F9F749F8022800D16AE7F8
:10A51000F8F71BFFFDF77EFB07B0F0BD180A00201F
:10A520002C0A00209D090020340900203309002056
:10A53000A2090020B9080020807401001809002039
:10A5400070B42F4A15686C22545D620702D501264B
:10A55000A64301E0E607F60F00230022C35E8A5EF1
:10A56000002E03D0EE8AB21A521E12B2A60703D5ED
:10A57000AD8AEB1A5B1E1BB2640703D502800B8009
:10A5800070BC704703800A8070BC70470146803100
:10A590001C4A8A83CA83A030028042807047F3B588
:10A5A00081B00E4603F0B6FE074603F0ABFE363030
:10A5B00000250090002E20D9C4206843C4192146EC
:10A5C000A031087F01280BD120460E4A80308283BB
:10A5D000C2830A804A8022460099019802F05AF804
:10A5E000C120005D022801D0032802D1204600F0DE
:10A5F000F8FC6D1CEDB2B542DED303B0F0BD000037
:10A60000B00A0020FFFF0000F8B5FA4805682F46A1
:10A610006037387F6C8A698B6043009108F0ABFC2F
:10A62000F54E7060787F0099604308F0A4FCB0603C
:10A630002001009908F09FFC4043F060E000001BFF
:10A64000009908F098FC40433061600020180099A0
:10A6500008F091FC40437061686F0004010F2020F6
:10A6600006290AD20B007B441B79DB189F440502A4
:10A6700005040709102000E040203080F8BD80204C
:10A68000FBE7FF200130F8E7FFB589B00546149ECF
:10A69000139C03F037FED848D84B018801948C46B0
:10A6A000052189020091C168079100690490C120C9
:10A6B0002C46475DD24AD3498034A035022F22D0A0
:10A6C000E87902281FD06079C700CF483F18403F83
:10A6D000B86B0390F86B0290288806906888059004
:10A6E000079F1298B84220D3287E02281DD0657992
:10A6F0000020A8546579E8546579685C642834D2F0
:10A70000401C685431E0288803906888029067797B
:10A71000002078546779B8546779F8546079470015
:10A72000BA4838182038C683D6E7049F1298B84232
:10A73000287E0DD202280DD06579002068546579F5
:10A74000E8546579A85C64280FD2401CA8540CE03A
:10A7500002280AD16579002068546579A854657982
:10A76000E85C642819D2401CE8546079825C012AB4
:10A7700013D9A649400040182038C28BB24200D9F4
:10A78000C6836079400041182039C88BB04218D385
:10A79000B0421AD829E0C88327E06079415C0129DA
:10A7A00016D99A49400040182038C28BB24200D9CD
:10A7B000C6836079019A400041182039C88B9042C5
:10A7C00001D26044E7E790420FD96246801AE2E77F
:10A7D000C15C012909D941008C48009A0918203927
:10A7E000C88B9042EDD39042EFD8617900918748B1
:10A7F000490008182038C78B0698FD1F01020398EE
:10A80000F93D68430818394608F0B5FB0646059837
:10A810000102029845434819394608F0ACFB0099FB
:10A82000CA0079495218403A96636279D2005118A9
:10A830004039C8630A990E800B9908800DB0F0BDAD
:10A84000F0B5734986B0091800252039CD777149D4
:10A850000122091820390195CA776F494001411832
:10A8600005916E49AC46411800916D49401802901F
:10A870006046009900010918049102990022091804
:10A8800003910599081886460499D4000B19039979
:10A8900000200F1971460E1981005C18403C25629A
:10A8A0007C18403C71184039401C256200B20D6292
:10A8B0000228F1DB521C12B2022AE5DB6046401C82
:10A8C00000B284460228D3DB0198009A00011218D6
:10A8D0000092029A474B101801901D6800216035C4
:10A8E000CA00009C4F4BA618D318019C9E464E4BA5
:10A8F000A4180020A446D418814205D16F8B830090
:10A90000E7502F8B7246D7508200A3580A277B430B
:10A91000B718403F3B626746BF18403F401C00B23B
:10A920003B620228E8DB491C09B20229D8DB06B0E9
:10A93000F0BD30B480304579324C00232B55457939
:10A940000A342B552B4B314D1B685B6F1B061B0FBD
:10A950001C0243795B005B19203BDC834379DC00FC
:10A96000294BE418403CA1634179C900C91840391A
:10A97000CA63407930BC63E7F8B5044603F0DBFCFA
:10A980001D4925464B68C1210A5D5B432749803537
:10A99000A034022A0CD0174A1268126FD2060DD5C5
:10A9A00068798200224810182038828BC08B0CE016
:10A9B0006F7922886088C8267E5406E0AA79C4266A
:10A9C00072431018A0300288408827886688BF1A12
:10A9D000361A7F437643BE199E422BDA6B795D5C53
:10A9E0000F2D01D922806080585CC82801D2401CFC
:10A9F0005854F8BDB00A0020600A0020FB46002031
:10AA0000F1460020E7460020984600200647002037
:10AA1000E44A0020EE4A0020A449002024470020F8
:10AA200064480020880A0020780A00201947002086
:10AA30006E4600206A7900205054F8BDF8B50446EF
:10AA400003F079FC0146F84825468068F74A404300
:10AA50008646C120005D8035A0349446022832D05D
:10AA6000A879C42250434018A03001884088238828
:10AA700062885E1A171A76437F43F719774504DA1E
:10AA80006E796746F65D012E2FD06E79B646B70017
:10AA9000E74EBF19203FBE8B9E1B71182180F98B9A
:10AAA0007646511A08186080002160463154687952
:10AAB000DF4980004018203883836879800040187F
:10AAC0002038C283F8BD6A7921889300D84A60880B
:10AAD0009B18203B99836B7966469B009A18203A15
:10AAE000D0836B7901229A55C1E721806080DEE72F
:10AAF000F0B5852399B01B5C079385231B5C5B0134
:10AB000000297DD0CB4C1C19203CCB4D079E5D19F4
:10AB1000CA4B06959B190892203BDB7FC9001B019D
:10AB2000ED180E91691840390D6A521B0992C12225
:10AB3000125C022A7ED0A030C07902287AD0486AFE
:10AB40000F902A1810921819E15882688B184168E2
:10AB5000C06809185D181318B94A1668AD19566807
:10AB60008E1991685F18D168109A4118089804915D
:10AB7000831A09990F9812930B1AB2480B93016824
:10AB80004A1918924168891905918168CB19149363
:10AB9000C06804994018059942435943511ACA178D
:10ABA000920D5118891280020A9108F0F2F9059964
:10ABB000169088020A9908F0ECF941420591149B1D
:10ABC0000A99980208F0E5F942421492189A0A99F3
:10ABD000900208F0DEF91699149A694372438918B5
:10ABE000CA17920D51188A12964605993246694342
:10ABF00042438918CA17920D51188912119100E029
:10AC00009FE016993B464B43149A049951435918B7
:10AC1000CA17920D511889120A9105993A464A436A
:10AC2000049941435018C117890D0818821294469F
:10AC3000724600E089E0129B11995A430B9B5943DD
:10AC40005018129B0A99624659430B9B5A43C317EB
:10AC500089189B0D1818109A80121018CA17920D97
:10AC60000C9051180F98891240180D9011990120DD
:10AC7000724680024B42821A05930A9996464842D0
:10AC80000121624689028A1A944672466A437B43CE
:10AC9000D118CA17920D511889120091059B049979
:10ACA000724672434B43D118CA17920D511889123C
:10ACB00001910146624669437A438918CA17920D89
:10ACC0005118891202910499704362464A438018D0
:10ACD000C117890D0818801203905B48079A00215C
:10ACE0008618203E88000CAA1358F57F069A2D017D
:10ACF00055190E9ACF00AA18101840380362002088
:10AD00006A46BA189446F57F82002D012D196346D4
:10AD1000ED19401C9B5800B2AB500228F3DB491CD4
:10AD200009B20229DEDB4849079A069889182039BA
:10AD3000C97F090141180E9808184038006A19B0F7
:10AD4000F0BD424C1C19203CDFE63F490020891928
:10AD500009902039C97F069A090151180E9A08AB4B
:10AD60008A1881005C5851184039401C00B20C62AE
:10AD70000228F6DBD7E710B40288438891B21C049E
:10AD8000214380889A4202D999B2120411430A0CD5
:10AD9000824202D989B20004014388B20A0C90426F
:10ADA00002D991B20004014310BC080C7047F0B501
:10ADB000054680351E466B79AC8BE98BDDB20C27DE
:10ADC0007D43244F9446C030ED1942782F462048E9
:10ADD000203F022A0FD0FA8A3A83BA8AFA82BC82CA
:10ADE000BA8BFA837A8BBA83C01879832038C07FF4
:10ADF00001280BD013E03C83FC82BC82F983B98329
:10AE00000122C01879832038C27708E028460C3820
:10AE1000FFF7B1FF0446A81FFFF7ADFF01466046EC
:10AE200004803180F0BD0000600A002063460020ED
:10AE30006E46002064480020A4490020EE4A00200D
:10AE4000780A0020880A0020E44A002024470020D5
:10AE5000704B0020F84A0020F0B40024C00084B0F9
:10AE600023464118580008182038008B5B1C041931
:10AE70009BB2042BF6D3A508002318466E46440067
:10AE80000C19203C248B8700641B6443401CE3188E
:10AE900080B2F4510428F2D398082039CB8B098B67
:10AEA000591A4943116004B0F0BC7047F0B59C4694
:10AEB00085231D5CC12304461B5CA034BE48A03121
:10AEC00083B0022B05D100264719203FFE770E766E
:10AED00026764019B94B2038EE00C77FF6183B465E
:10AEE0007F00F6193746203F3A836246403632816A
:10AEF0005B1CDAB2C277042A07D30022C277087E2D
:10AF0000002805D10120087602E0087E002815D02F
:10AF10006A46AA492846FFF79FFF064601AAA849A4
:10AF20002846FFF799FFA74949698E4201D8884210
:10AF300003D90320207603B0F0BD0220207603B0B1
:10AF4000F0BD10B480308031838B8C8B1A1B00D500
:10AF5000E21AC38BC98B581A00D5C81A5243404312
:10AF600010BC10187047F0B583B00E46044603F0CD
:10AF7000C9F9C1202546005D8035A03402282DD0B6
:10AF8000E07902282AD0012E28D06879C1008E48A5
:10AF900009184039CE6B886B322100912188628874
:10AFA0000192312250434018009907F0E4FF074610
:10AFB0003120019A4643B018009907F0DCFF697907
:10AFC000814AC900891840398F636979C900891895
:10AFD0004039C8632780608003B0F0BD2088668850
:10AFE000DAE7F1B58CB003F0A6F9019003F08AF925
:10AFF0000590764A007B11680028086F4FD0030344
:10B00000DB0F009383034003DB0FC00F0B930A9009
:10B01000486F0103090F09020002000F07020791A0
:10B020006A480C9C00680C9E006FA034C0078036F4
:10B0300000287DD0B079C421484301997579411821
:10B04000029103AB04AA0C98FFF7B1FE684683890E
:10B05000028A02990C98FFF729FF02990C98FFF7D2
:10B0600070FF08900098012833D0594800214019FA
:10B070002038C177B08B2080F08B608007990898CA
:10B080000090059E029701912036B37A06AA09A97D
:10B090000C98FFF7F9FA0B98002820D024E003075A
:10B0A000DB0F009383074007C00F0A90DB0F059862
:10B0B0000B93007D0128486F06D00107090D00069B
:10B0C000000F07020791ABE70005000F0702079783
:10B0D000A6E76846008A208068468089CDE72088F8
:10B0E00069468884608808830C98C03040780228BC
:10B0F00002D0E079022802D12846FFF7A1FB68467A
:10B10000828C0021089B0C98FFF7F2FC07466846EA
:10B11000028B0121089B0C98FFF7EAFC0146002FE7
:10B1200000DA002729480068028A531EBB4200E06B
:10B130003BE000DA1F46002900DA0021428A531E54
:10B140008B4200DA511E234A5219203AD37F9E4681
:10B15000214B5B19203B9C46DB7FD37772466346CD
:10B16000DA770A9A012A10D06946898C21806946CB
:10B17000098B6180006F154C80060CD5174840196B
:10B180002038C07F002802D005E02780F1E7B17A9F
:10B190000C98FFF7F1FB2068006FC00603D5B17A69
:10B1A0000C98FFF74BFC0DB0F0BDB08B2080F08BFE
:10B1B00060800DB0F0BD00001A4C00207A4B0020DA
:10B1C000CA4B0020600A0020244C0020B00A002056
:10B1D000704B0020E44A0020EE4A00206446002024
:10B1E000FE487047FE4870470346002010B40246F0
:10B1F000002905DD94001C59521C20188A42F9DBF5
:10B2000010BC7047F8B5074608200C46009003F0C4
:10B210009FF8064603F098F805462002294607F0F5
:10B22000B8FE04463802314607F0B3FE014660120C
:10B230008646481284460020002E0ADDE84A03466E
:10B240004B4347001B12401C634400B2D353B0422F
:10B25000F5DB0020002D0BDD02466243131272461F
:10B2600047009A18DD4B401C00B2DA53A842F3DBCA
:10B27000009ADB4B51431A8809130098521A1A801E
:10B280007200D218203AD38B44435918D183D34942
:10B2900020130A88121A0A806A0051182039CA8BB2
:10B2A0001018C883F8BD10B5CE480168488A098ACD
:10B2B000FFF7A8FFCC4BCD4A0020810053528918DC
:10B2C000401C80B24B800A28F7D310BDF3B5BBB049
:10B2D0000546CC22C64907A8F4F7A0FFC1483C9A0E
:10B2E0000068C77981790691418A0391008A0290AA
:10B2F0003C9802214678515E3046784300B20129DD
:10B3000000DC012100911478002C13D0791E8C42AE
:10B310001ED120184000411920391E20085E012846
:10B3200000DC0120C0024042009907F032FE00B26A
:10B3300001904AE0400041190220085E012800DC2B
:10B340000120C002009907F024FE00B201903CE009
:10B35000201840004219114620391E20085E01289D
:10B3600000DC01200221515E012900DC0121059150
:10B370006421484300994A108018049207F009FE9E
:10B38000410007A8415E019105996420049A414358
:10B390008818009907F0FDFD410007A8405E01995B
:10B3A000814228D0934B0918994204DB5A0C9142F0
:10B3B00001DD114602E0994200DA1946019A101A9D
:10B3C000C00207F0E6FD00B20190002E15D00698ED
:10B3D000401E86421DD1701E784300B220184000E6
:10B3E000285E012800DC0120C0024042009907F0DD
:10B3F000D0FD00B24CE00020E6E7E0194000285EF6
:10B40000012800DC0120C002009907F0C2FD00B253
:10B410003EE0701E784300B220184000285E0128EC
:10B4200000DC0120711C794309B261184900695E92
:10B43000012900DC012105916421484300994D1048
:10B44000401907F0A6FD410007A8415E0491059947
:10B45000642041434819009907F09BFD410007A86B
:10B46000405E0499814212D0624A0918914204DB7D
:10B47000530C994201DD194602E0914200DA11466F
:10B48000049A101AC00207F084FD00B200E0002008
:10B490000199220409015218310400010D180126F6
:10B4A000F6033946901907F074FD029948430414D5
:10B4B000A819069907F06DFD039948430014002C64
:10B4C00001DA002100E02146029A914201DD144692
:10B4D00002E0002C00DA0024002801DA002100E05C
:10B4E0000146039A914201DD104602E0002800DA8D
:10B4F00000203C9980318C83C8833DB0F0BDF7B506
:10B50000FFB087B00F461546702132A807F031FD15
:10B51000702116A807F02DFD70214EA807F029FD17
:10B5200070216AA807F025FD02F005FF2D4C0646A4
:10B530002068418B408A0201101A07F01CFD00B2FE
:10B54000019002F0DFFE129002F0EBFE099036301F
:10B55000079002F001FF14902068418A0A91008A46
:10B560000B9002F0F1FE044602F0F2FE0697029004
:10B570006878297860434018385CC4218006800EC2
:10B5800008902846803000908079484386190098BA
:10B59000407981001548081820380390808B1249A3
:10B5A0000590884207D00398C78B0846874202D08F
:10B5B0000598049002E0B0880490F788A88810905D
:10B5C000401D0A2107F0D7FC81B20D91E8880E904A
:10B5D000401D0A2107F0CFFC80B20DE0744C002022
:10B5E000AC4C0020B00A0020FFFF0000E44C00201B
:10B5F000907701000080FFFF0C9004980A21401D05
:10B6000007F0B9FC82B20A21781D0F9207F0B3FC53
:10B6100080B211900A21109807F0ADFC10900A2119
:10B620000E9807F0A8FC13900A21049807F0A3FCD9
:10B630000E900A21384607F09EFC0F9A0D99914210
:10B6400003D1119A0C99914206D00E9A1099914209
:10B6500010D1139981420DD112982030807A02289E
:10B6600008D309992031897A814203D10098007961
:10B6700002287DD0039AF6489083009AF5495279C2
:10B68000920051182039C883A87A0590E87A04906E
:10B690002B7B687B03900399049832AD88422AD8AB
:10B6A0000146614389B20491059999421ED88200EE
:10B6B0009446049A5618869A7700D25F069FBE5D1C
:10B6C000B706089EBF0EB7420CD1149EB24209DBEA
:10B6D0008E00AF59BF18AF51674616AEF759BA186A
:10B6E0006746F251491C89B29942E2D9401C03993C
:10B6F00080B28842D4D900212A460846002C7DDD3C
:10B700008300D358401C5918A042F9DB002975DD8D
:10B710000021029A16AB0846002A6FDD86009E596A
:10B72000401C71189042F9DB002967DD0020002CD5
:10B730000BD9C94B4EAA810047006E58DF5F401CF1
:10B740007E4380B25650A042F5D3029900200029D2
:10B750000DD9C24B16AA6AAF8100460055589E5FAC
:10B76000401C75437D50029980B28842F4D300E0BA
:10B7700050E0002132AA0846002C05DD8300D35892
:10B78000401C5918A042F9DB00224EAB1046002C99
:10B7900005DD85005D59401CAA18A042F9DB104662
:10B7A00007F0F7FB0021029A044616AB0846002A70
:10B7B00005DD85005D59401C69189042F9DB134690
:10B7C00000206AAD0246002B05DD9600AE59521CE2
:10B7D00030189A42F9DB07F0DCFB01998C4200DA61
:10B7E0000C46884200DA08460B9A511A4A1EA242B9
:10B7F00000DA1446019A0A99891A00E062E04A1EAA
:10B80000824200DA481E00998C830099C8837FB079
:10B810000AB0F0BD8E4805998E4A81420CD1039939
:10B82000C98B814208D1039804998183009840799B
:10B83000800080182038C783B07AA97A884200D265
:10B84000A872F07AE97A884200D2E872307B297BCC
:10B85000884200D92873707B697B884200D968735D
:10B86000A87A0590EF7A04972B7B687B0390707819
:10B870003178604341180798405C85060398AD0E07
:10B88000874200D907E73846604380B2844605986E
:10B89000984211D86146079A0918525C9606B60E6E
:10B8A000AE4205D19209089E92013243069E72541F
:10B8B000401C80B29842EDD97F1C0398BFB28742EA
:10B8C000E1D9E8E60099002088830099C8837FB019
:10B8D0000AB0F0BDF3B5FFB08AB0CC22604923A80E
:10B8E000F4F79CFCCC225F4956A8F4F797FC0020A3
:10B8F0001B90169032201590282012902E200F9029
:10B90000462014900320139001202190564804688B
:10B910000F20214660311E91085681B21C9181B2E0
:10B92000209181B280B21F908A9818910578407852
:10B930000090E0790590A0791190608A0790208AA4
:10B94000069011984100079807F015FB03900598A1
:10B950004100069807F00FFB029003984004000C8A
:10B96000179002984004000C199000201A908A98B1
:10B97000E17940784843002D7BD00599491E8D42DE
:10B9800076DA0121109141190AB25400691E899A90
:10B990004118145F09B2B2B24E006B1C8999C018ED
:10B9A00000B2895F460089982304805F1A43814270
:10B9B0000CDB160C360489B20E43049980B2090CD4
:10B9C00009040143012004911B9009E0160C360480
:10B9D00080B20643049889B2000C00040843049026
:10B9E00030B2002801DA360C3604049800B2002880
:10B9F00003DA0499090C0904049137B2E0191A908A
:10BA000020031A9907F0B7FA1D9038031A9907F026
:10BA1000B2FA07461D98154AC11B04981A9100B244
:10BA200051434843214607F0A6FA010B1D984843AD
:10BA30000121C9024018010B1D9809901B9801288B
:10BA400002D00A97089171E008970A916EE010E021
:10BA5000FFFF0000E44C0020744C0020AC4C0020A0
:10BA60005C78010028790100B00A0020331B000037
:10BA70002FE00221109101B2401C03B289984900C5
:10BA8000405EB6B201040E4389995B00049AC95E18
:10BA9000130C1B048AB213430493002803DA00201A
:10BAA000B6B200040643002902DA190C0904049115
:10BAB000049930140CB207190003394607F05BFAF9
:10BAC00009902003394607F056FA0A9000200890A2
:10BAD0002CE00321109141196A1E801804B209B2AA
:10BAE00089984900405EB3B201040B438999640010
:10BAF000095F1E0C36048AB21643002803DA0020C0
:10BB0000B6B200040643002901DA360C36043014BC
:10BB100034B207190003394607F02DFA09902003C3
:10BB2000394607F028FA089000200A900021109862
:10BB30000A4601280BD0022825D0099908980A1A2C
:10BB400003208002824242D90298801C55E00020E6
:10BB500008AC83002F18E3587F1E59187B43401C04
:10BB60009A18C0B20328F4D3199B0698C01A504300
:10BB700007F001FA05990001491E07F0FCF9029946
:10BB800009010C183EE00A990998421A0320800224
:10BB9000824202D90298401C15E0012123A84B00E3
:10BBA000C35A934201D94A1E03E0491CC9B266290F
:10BBB000F5D30298010301200003081850433721F0
:10BBC00007F0D9F9000B19990C1A641C1AE001212D
:10BBD00023A84B00C35A934201D94A1E03E0491CD3
:10BBE000C9B26629F5D30298010301204003081861
:10BBF0005043372107F0BFF9000B199A0699891AAB
:10BC00000C18A41E109801283FD1FE491A984843E9
:10BC1000010B012000031091814200D910900120F6
:10BC200023AA4100535A10998B4206D9410056A8C5
:10BC300008182038C08B109003E0401CC0B2662862
:10BC4000EFD3049930B20FB2C1191A911BD000037F
:10BC500007F091F9229038031A9907F08CF922998C
:10BC6000081A10994843C00A884200D9084606219C
:10BC700048431B99000A002903D0201A0830040900
:10BC800003E02018FAE708342409002019900098EE
:10BC900000287BD001461198401E814277DA0120AE
:10BCA000109008460599059A48430099059B491E3E
:10BCB0005143009A4019521C5A4300B2899B4000DC
:10BCC0001F5E01983B0480B2184349195219899BA1
:10BCD00009B212B249005200595E9A5E91420CDBE1
:10BCE000000C000489B2084301900E9891B2000C38
:10BCF000000408430E9001200BE0000C000492B2F7
:10BD0000104301900E9889B2000C000408430E9075
:10BD100000201690019800B2002803DA0199090C5E
:10BD2000090401910E9800B2002803DA0E98000C65
:10BD300000040E90019800B2199038181A90380338
:10BD40001A9907F018F91B9019981A99000307F02F
:10BD500012F901461A901B98AB4A411A0E98199194
:10BD600000B251434843394607F005F9010B1B98CF
:10BD700048430121C9024018010B1B980C901698EA
:10BD800001281A9804D00B910D9075E003E038E07B
:10BD90000D910B9070E00220109005986A004019F8
:10BDA00001B28998805E019A030492B21A4301920B
:10BDB0004A008999895E0E9A8BB2120C12041A43BA
:10BDC0000E92002805DA0198002280B21204104376
:10BDD0000190002903DA0E99090C09040E910198CB
:10BDE0000E9900140FB2C11900031A9107F0C3F89D
:10BDF0000C9038031A9907F0BEF80D9000200B90B4
:10BE00003AE00320109008460599059A48430099A6
:10BE10004019491E514300B2420089984919805E79
:10BE200009B2019A4F0092B2030489991A43C95F7B
:10BE3000120C12048BB21A430192002805DA019801
:10BE4000002280B2120410430190002903DA019904
:10BE5000090C090401910198019900140FB2C1194C
:10BE600000031A9107F087F80C9038031A9907F02D
:10BE700082F80B9000200D90002110988C4601282C
:10BE80000BD0022827D00C990B980A1A03208002A5
:10BE9000824244D90398801C57E0002083000BAAFB
:10BEA000D258009B51181B185B1E5A43401CC0B24D
:10BEB00094440328F2D3179A0798801A6246504395
:10BEC00007F059F811990001491E07F054F8039939
:10BED00009010F183EE00D990C98421A03208002C8
:10BEE000824202D90398401C15E0012123A84B008F
:10BEF000C35A934201D94A1E03E0491CC9B26629BC
:10BF0000F5D303980103012000030818504337219B
:10BF100007F031F8000B17990F1A7F1C1AE0012166
:10BF200023A84B00C35A934201D94A1E03E0491C7F
:10BF3000C9B26629F5D3039801030120400308180C
:10BF40005043372107F017F8000B179A0799891A01
:10BF50000F18BF1E1098012842D12A49199848434A
:10BF6000010B012000031091814200D910900120A3
:10BF700023AA4100535A10998B4206D9410056A872
:10BF800008182038C08B109003E0401CC0B266280F
:10BF9000EFD30E99019809B200B2179141181A9186
:10BFA0001CD0000306F0E7FF229017981A990003AF
:10BFB00006F0E1FF2299081A10994843C00A884206
:10BFC00000D90846062148431699000A002903D0E3
:10BFD000381A0830070903E03818FAE708373F092C
:10BFE000002D38D10098002835D001461198401E08
:10BFF000814230DA049801B2019800B20918019820
:10C00000031403E054150000331B00000E9800B227
:10C01000181808180003159906F0ADFF2146414392
:10C02000080B1090844251D90299884211D21920EC
:10C03000800306F0A0FF10994843000B6521081A01
:10C04000410023A8415AFD48401A02994843000B79
:10C05000109004466BE005980099401E854236D149
:10C06000002936D01198401E814260DA019831B221
:10C0700000B20918019803140E9800B21818081895
:10C080000003159906F077FF0699091B4143080B39
:10C0900010900699081AA04249D90299109888422E
:10C0A00011D21920800306F066FF10994843000B57
:10C0B0006521081A410023A8415AE048401A029914
:10C0C0004843000B109010990698441A2FE000295D
:10C0D0002DD1002D2BD0854229DA0E9831B200B235
:10C0E00041180498331400B2181808180003159961
:10C0F00006F041FF39464143080B1090874250D962
:10C100000399884211D21920800306F034FF109958
:10C110004843000B6521081A410023A8415AC7482B
:10C12000401A03994843000B1090074639E01198D4
:10C130000099401E814234D1002D32D00598401E16
:10C1400085422EDA019831B200B2411804983314B6
:10C1500000B2181808180003159906F00CFF07998B
:10C16000C91B4143080B07991090081AB84218D907
:10C1700003991098884211D21920800306F0FBFE23
:10C1800010994843000B6521081A410023A8415A21
:10C19000AA48401A03994843000B10901099079839
:10C1A000471A0098284302D0002D64D0DFE005999B
:10C1B0000098059B484341190AB200995200491C56
:10C1C00059436B1CC018899B49199A5E09B200B289
:10C1D000002A03DA0022330C1B0402E0330C1B0498
:10C1E00092B213434A0089998A5E002A00DA00223B
:10C1F00099B21204114342008998825E002A04DA3F
:10C2000004980022000C000403E0049892B2000C91
:10C2100000040BB210430914591800B20E18300371
:10C22000129906F0A8FE21464143080B844214D916
:10C230000299064688420FD21920800306F09BFE21
:10C240007043000B6521081A410023A8415A7B481E
:10C25000401A02994843060B34463003129906F0FF
:10C260008AFE39464143080B87427DD90399074628
:10C2700088427AD36DE111980099401E814276D1AF
:10C2800008460599059B4843009902B2491E594347
:10C29000899B5200401C9A5E09B200B2002A03DA60
:10C2A0000022330C1B0402E0330C1B0492B2134334
:10C2B0004A0089998A5E002A00DA002299B21204A3
:10C2C000114342008998825E002A04DA0498002211
:10C2D000000C000403E0049892B2000C00040BB2BE
:10C2E00010430914591800B20E183003129906F0C1
:10C2F00042FE21464143080B844214D90299064666
:10C3000088420FD21920800306F035FE7043000BDF
:10C310006521081A410023A8415A4848401A029949
:10C320004843060B34463003129906F024FE079961
:10C33000C91B414307980E0B801BB84214D90398C0
:10C3400086427DD201461920800306F014FE704318
:10C35000000B6521081A410023A8415A3748401AAA
:10C3600003994843060BF2E088E08AE0FFE705986E
:10C37000401E854202D1009900291ED085427DD100
:10C3800011980099401E814278D1009A059B084679
:10C39000521E05995A435219484312B24119944604
:10C3A0006A1E801802B209B289984900415E0029CC
:10C3B00079DA0021300C000478E00598899B6A0046
:10C3C0004019691E9A5E00B209B2002A03DA0022FF
:10C3D000330C1B0402E0330C1B0492B213434200E3
:10C3E0008998825E002A00DA002298B21204104373
:10C3F0004A0089998A5E002A04DA04990022090C0D
:10C40000090403E0049992B2090C090403B2114330
:10C410000014181809B246183003129906F0ABFD43
:10C420000699091B4143080B0699091AA14219D91B
:10C4300002990646884213D2192002E0011000003A
:10C4400085E0800306F097FD7043000B6521081A14
:10C45000410023A8415A9748401A02994843060BC5
:10C460000698841B3003129906F085FD3946414336
:10C47000080B87426DD90746039900E069E08842BE
:10C4800067D21920800306F076FD7843000B652102
:10C49000081A410023A8415A8648401A0399484384
:10C4A000070B56E0FFE7300C000489B208436146F1
:10C4B0004B008999C95E002900DA002180B2090485
:10C4C0000843899952008A5E002A04DA04990022FE
:10C4D000090C090403E0049992B2090C090403B29F
:10C4E00011430014181809B246183003129906F0C7
:10C4F00042FD0699091B4143080B0699091AA142FE
:10C5000015D90299064688420FD21920800306F0F9
:10C5100032FD7043000B6521081A410023A8415ADF
:10C520006448401A02994843060B0698841B30035E
:10C53000129906F020FD0799C91B414307980E0B7D
:10C54000801BB84205D90398864200D2FAE60798C4
:10C55000871B2198012853D1002D12D00598401E29
:10C56000854222D106980F99001B884219D9149947
:10C57000884216D20F99401A139941430698441ADB
:10C5800013E00F98844207D91498844204D20F987C
:10C59000201A139C444308E00F98844205D80024D5
:10C5A00003E00F99884200D8069C0098002813D019
:10C5B00001461198401E814222D107980F99C01B55
:10C5C000884219D91499884216D20F99401A1399A2
:10C5D00041430798471A13E00F98874207D91498E8
:10C5E000874204D20F98381A139F474308E00F98E8
:10C5F000874205D8002703E00F99884200D8079F9B
:10C600001E98817B407BCB09C20949064006490E32
:10C61000400E002B02D0012B06D006E08C4201D246
:10C62000002402E0641A00E06418002A02D0012A03
:10C6300006D006E0874201D2002702E03F1A00E060
:10C640003F181C98A04200D9044620990698401A29
:10C65000A04200D204461898B84200D907461F9954
:10C660000798401AB84200D207468A9880308483DF
:10C67000C7837FB00CB0F0BD10B50C466E218B5C4B
:10C68000012B03D02146FEF73AFF10BD1146FFF7FC
:10C6900021F910BD0B4610B511466032927B012A7C
:10C6A00004D00A461946FEF72AFF10BDFFF712F91B
:10C6B00010BD000001100000FFB583B015460C4608
:10C6C00001F042FE00906269A06901902469500067
:10C6D000610000190A220F46504306F04CFC064642
:10C6E00001980A22400000193946504306F043FCE5
:10C6F0002E80688000994843801941000398405A71
:10C70000A88007B0F0BDF8B504460E46069820365E
:10C71000079F0D46002803D0002070700020F8BD50
:10C7200028682060A01C0090A8886081E888A0810B
:10C730001088A0805088E080908820812046702258
:10C7400019461430F3F76AFD0098298981816989B7
:10C75000C1812869A061A889A082A98B702001539A
:10C760003078A0346077B078A077012020770898DF
:10C77000E0773878401CC0B238700D28CED3012045
:10C78000F8BDFFB583B01D461646044601F0BAFD5C
:10C790000221415EC810009001F0E3FD01460098BF
:10C7A000814202DD01F0DDFD00900020864602900E
:10C7B000074601903046AE4227DCB04201D1014627
:10C7C00000E0411EC9B28C46A84201D1014600E0FA
:10C7D000411CCBB20199009A491C89B201914100D8
:10C7E000615E91420DDD00290BD062465200A25ECF
:10C7F000914206DB5A00A25E914202DB80B286467D
:10C8000003E0401C00B2A842D7DD2846B54225DB34
:10C81000B04201D1014600E0411ECAB2A84201D196
:10C82000014600E0411CC9B28C4641007F1C615E9C
:10C83000009BBFB299420DDD00290BD05200A25ED1
:10C84000914207DB62465200A25E914202DB80B257
:10C85000029003E0401E00B2B042D9DA029870455F
:10C860000DD00198214645002A46049806F019FB90
:10C8700002987A00400001190498281804E0A81BC7
:10C880004200921C2146049806F00BFB019807B069
:10C89000C01980B2F0BDFFB59FB0054600242898AE
:10C8A0000F461D94017840788E0080001C9038213E
:10C8B0000EA806F05EFB3821684606F05AFB3346A8
:10C8C00022460EA92846FFF75CFF05466946384612
:10C8D0001C9B1D9AFFF755FF0021B61C0446AE4273
:10C8E00010DB0020002D0DDD0EAE43009F1902224B
:10C8F000BA5EF35ED71A00D59F1A401C791800B2B1
:10C90000A842F2DB1D9A1C980026801A801CA042C7
:10C9100011DB0020002C0EDD43006A469F18022226
:10C92000BA5E6F46FB5ED71A00D59F1A401CBE192F
:10C9300000B2A042F0DB8800294606F01CFB054649
:10C94000B000214606F017FB2818C003010C2298FE
:10C95000018423B0F0BD704770477047002801DCA8
:10C9600000207047F8B5FF24013407020025264651
:10C970002112384606F00DFB0019C10F08184410AB
:10C98000301B00D5A01B802802DB6D1C642DEED36C
:10C990002012F8BDFFB585B0144601F0D5FC039018
:10C9A00020880A2106F0E7FA06B260880A2106F01C
:10C9B000E2FA00B200900698002300791C46801B22
:10C9C00000B2049006981D468079801B00B2844610
:10C9D000069841790098081A01B20698C279009821
:10C9E000101A00B20190814226DC049860451EDCDA
:10C9F0000A464A430292009A039F8A187A4396464F
:10CA0000871977447A00059FBA5E052A0BDD074631
:10CA100047435743FB18029F57433C1917460A46A2
:10CA2000424357437D19401C00B26045E8DD491C74
:10CA3000019809B28142D8DD06980669180231468C
:10CA400006F0A7FA07462002314606F0A2FA04468D
:10CA50002802314606F09DFA394661434043081AE0
:10CA6000001200903819474239460098794309125C
:10CA70008000081A00124000002801DC002016E0A7
:10CA8000FF2401340002002501902646211201985E
:10CA900006F07FFA0019C10F08184410301B00D5AA
:10CAA000A01B802802DB6D1C642DEED32012000237
:10CAB000C10F08184010C51BC019444208990098BE
:10CAC0004861002D00DA6D420898002CC56000DA3C
:10CAD0006442089805210461284606F05AFA034684
:10CAE000FF2800DDFF2368116111FF2800D9FF2016
:10CAF000FF2900D9FF21089A603213735073917394
:10CB000009B0F0BDF7B50E46044601F01DFC054620
:10CB100001F01EFC014632787078002A01DD531EB8
:10CB200000E000231BB29E466B1E9A4201DA521CA3
:10CB300000E06A1E16B2002801DD421E00E000225D
:10CB40004B1E12B2984201DA401C00E0481E01B2AE
:10CB50008C460020624510DC7146B64509DC134660
:10CB60006B435F187F00E75F491C381809B2B14278
:10CB7000F7DD521C12B26245EEDD0299C86103B0C6
:10CB8000F0BD70B50C46C969002911DB0221415E78
:10CB900060690D4606F0FDF9002800DA4042FE49C2
:10CBA000884205DC2946A06906F0F3F9052801DD75
:10CBB000012070BD002070BDFFB581B042000E9D08
:10CBC000009254199C4622468E46831E0C9F0D9E51
:10CBD000203A734503DA002361460B8002E0938B11
:10CBE00061460B80411E714503DA0A9A00211180CB
:10CBF00002E00A99D28B0A8000996A5A0B990A803E
:10CC0000039A411C914201D9002100E061883980DA
:10CC10000399801C884201D9002000E0A088308060
:10CC200005B0F0BDF8B58A1AD400079F089E099D8B
:10CC3000994264D00699AB1B7A1AF11B0A9F1BB26A
:10CC40007D1B06278A1A591A79437A4309B2ED1ACD
:10CC500012B27D4389002DB2511A2A01521B891844
:10CC60008A00002A01DD111204E0890049420912FC
:10CC7000494209B28A00AA1A17B2CA1B002A03DD68
:10CC80002B256A43121205E02A25ED436A4312124E
:10CC9000524212B27D107F0079182B277943091276
:10CCA000591AB4460BB297002E01BF199E01BF1945
:10CCB00066463602B64677443F123FB200975601A9
:10CCC000AF01F619DF01F7196C2672439026754300
:10CCD0005519C0225343EA18774472443F12121286
:10CCE000002115B23FB2221863460353009B5380C4
:10CCF000491C978089B2D5800429F5D3F8BD065325
:10CD0000F8BDFFB587B00A980999401C069081428A
:10CD10003ED2099B8C1E0A9A07989C4201DA002495
:10CD200004E04C002518203D1C242C5F4D1E9D4224
:10CD300001DA002304E04B001D18203D1E23EB5EAA
:10CD40004D00465FB4464E1C0596964201D900261A
:10CD500002E02F180226BE5F8F1C974201D90020E7
:10CD600002E02A180420105E35B202B2604602903A
:10CD700020B21BB200900395019304920A9B099A7A
:10CD80000898FFF74FFF059881B206988142C0D3FB
:10CD90000BB0F0BDF0B4C478457882780378641B9A
:10CDA000D21AE5B20B70D2B20024837801278B70BF
:10CDB000052A1CD209E0002B19D08E78761E8E70C1
:10CDC0007B40521ED2B2052AF5D242784A70C07812
:10CDD000C870052D09D3002C0ED0C878401EC8702D
:10CDE0007C406D1EEDB2052DF5D2F0BC70470B787E
:10CDF0005B1C0B700123E4E74878401C4870012459
:10CE0000EFE7FFB5F7B01D460646819C01F0A0FA9A
:10CE1000074601F099FA844680986946001DFFF79D
:10CE2000B9FF68460078002800D0401EC1B26846AD
:10CE3000017080786246521E904202D16046401EC8
:10CE400000E0401CC2B2684682704078002800D0E2
:10CE5000401E6B465870D8787B1E984201D17F1EC9
:10CE600000E0471C6846C770501A28706846C178B1
:10CE70004078081A68706846217800780425081AF6
:10CE8000C0B2019068464078A178655F091A0446EF
:10CE9000CFB26846C178A14220D3382164A806F0F9
:10CEA00068F86846837802783C4864A90068C079CD
:10CEB000604340008019FFF724FF6846407838211E
:10CEC000201A484302A94018382264A905F0E9FF56
:10CED0006846641CC078E4B2A042DED2019802A980
:10CEE0008600382078434118F4B23822789805F04B
:10CEF000D8FF6A461178F01E9278361D511A8900C3
:10CF00001C22574302AB3A1852009A5EAA4207DD30
:10CF1000002805DB814203DBC4B23A1952009D5E52
:10CF2000401C00B28642EEDC6A46D178527800207E
:10CF3000891A0BD472AD1C224243121946005200CA
:10CF4000401C9A5AC0B2AA538142F4DACBB20022F2
:10CF500072A87999FFF7D5FE7BB0F0BDF7B51446FE
:10CF6000054601F0CFF90D4936300A6884466078ED
:10CF7000D2795043227882186046805CE27980063C
:10CF8000800E86466079521C824231D9A27921797D
:10CF9000521C8A4226D903E0DC050000B00A0020BA
:10CFA000FE4A16686246F37957184343DF5DBF06B1
:10CFB000BF0E77450CD15A18019B52000C279B5E7F
:10CFC000F75FBB4201DDAB5206E00023AB5203E04A
:10CFD00000225B185B00EA52A279491CC9B2521CBC
:10CFE0008A42D8D8E179401CC0B2491C8142CDD8D0
:10CFF00003B0F0BDFFB58DB01798446801F0A4F9F7
:10D00000089001F0A5F9002103910D9A009101917A
:10D010000291049111600E9A8446118000200899B3
:10D0200006908E4605902004210E000E6F460B914F
:10D03000814248D3E1B209912102090E0791099B6F
:10D04000079999423AD3089941430A91C9184A006D
:10D0500016998D5E0A2D12DB0E990E9A0988491CCD
:10D060001180604500D284460599884200D9059018
:10D07000734500D29E4606998B4200D90693002143
:10D080004A00BA5EAA420EDA0822082908D25400E1
:10D09000E619203E521EF68BD2B23E538A42F6D893
:10D0A00051007D5203E0491CC9B20929E8D35B1C39
:10D0B0000799DBB2994201D30A99C7E7401C0B9943
:10D0C000C0B28142BBD206987146401A0F99401CEB
:10D0D000087005986146401A1099401C087000209D
:10D0E00039460D9A43001268CB5E401CD3180D9A46
:10D0F000C0B213600928F4D311B0F0BDFFB5A84841
:10D1000097B04268016809920891C26881680B92E1
:10D110000A91416900690D91209CA1490C90886990
:10D12000C9690F910E9001F0EDF83630109001F0C2
:10D130000BF9079001F00CF9189A0221515E049145
:10D140001178002515915178059514910499019154
:10D1500002950902401E1691139007980395401EF0
:10D160002E462F461290002069006052780008AACF
:10D17000135A159A9A180AAB1B5A149812B2181817
:10D18000079B00B243439B181BB2119300282FDB6F
:10D19000139B98422CDC002A2ADB1298824227DC5F
:10D1A000119842001798805E6052002801DC01202F
:10D1B0006052615E00910691169805F0DCFE0399BD
:10D1C0000818039002980699401CC0B20290059876
:10D1D000814201DD0098059011991098405C00286B
:10D1E00001D0761CF6B201990098401800B2019067
:10D1F0006D1C7F1CFFB2EDB2042FB4D30020690078
:10D20000002262528C4642000CA98B5A159959187B
:10D210000EAB9B5A149A09B29A1813B2079A5A4342
:10D22000521812B2002B16DB139FBB4213DC0029ED
:10D2300011DB129B99420EDC17995300C95E6346BD
:10D24000E152002901DC0121E1521099895C002999
:10D2500001D0761CF6B26D1C401CC0B2EDB20428A1
:10D26000CDD31A98067005990498401804B2029913
:10D27000039805F080FE054601982146000205F05E
:10D280007AFE0002294605F076FE19992A0A4031F5
:10D290004C81199B1A65019A0A811999486517985A
:10D2A000009018990191199B199A199919986B3343
:10D2B0006A3268316430FFF79DFE1BB0F0BDFFB5E8
:10D2C000044636489E4601682E230846CB5E203031
:10D2D0009C46467B037B0220205E002581B0B04245
:10D2E00022DA575F002F07DD0226965F002E03DD4E
:10D2F000B919091809B211E00426965F002E06DD5F
:10D300000621515E002902DD7118091805E05188D7
:10D3100036187F18BE19D788F11909B2614503DAAA
:10D32000A18B994200D2012500214B00D35A491C00
:10D33000181809B200B20429F7DB002D0AD0714693
:10D34000491C05F026FE80B2029940310883284628
:10D3500005B0F0BDA18905F01CFE80B2F4E7FFB571
:10D3600087B00C460746002500F0EEFF019000F064
:10D37000EFFF0690387800907E78B889039000F02F
:10D38000F0FF0221625F615E0591511804230622BD
:10D39000E35EA25E401004929A1803E0B00A0020F7
:10D3A000F4790100914201DD11B200E009B20823D5
:10D3B000E35E0E22A25E02929F189C460A22A25EA3
:10D3C0000C23E35E9646D218974201DD3FB200E09F
:10D3D00017B2002E04D1059A824201DD421C228040
:10D3E000069A521E964205D10026A65F864201DDAE
:10D3F000461C6680009E002E04D1049E864201DDFC
:10D40000461CA680019E009A761EB24205D10426D3
:10D41000A65F864201DD461CE6800426A65F8642A2
:10D4200015DD0622A25E824211DD844505DA8645BD
:10D4300003DA0022A25E824220DB029A82421EDAD6
:10D4400083421CDA0222A25E824217DB17E000222E
:10D45000A25E824213DD0222A25E82420FDD84457B
:10D4600003DA834201DA864208DB864507DA029A4C
:10D47000824204DA0622A25E824200DA0125039883
:10D4800005280DD20998039A401C904208D1B94250
:10D4900010DC109801280DD90A9800280DD009E059
:10D4A000B94201DD012D05D11098012802D90A9851
:10D4B000002802D000200BB0F0BD01200BB0F0BD61
:10D4C00070B5044600F040FF054600F041FF2178AA
:10D4D0000246002908D06D1EA94205D060780028B8
:10D4E00002D0521E904201D1012070BD002070BDBB
:10D4F000FFB587B015460C46002600F003FF07462F
:10D5000002A8009001AB2A4621460798FFF7F6FDD6
:10D51000387D00280BD12037B87B002807D168461A
:10D52000037902AA29462046FFF7C9FE064600F005
:10D530000BFF074600F00CFF01462078002808D0BA
:10D540007F1EB84205D06078002802D0491E88426C
:10D5500001D1012700E000270A980090684602796F
:10D56000334602A92046FFF7FAFE2C464034A67641
:10D57000A07760352F700BB0F0BD898900203C2961
:10D5800004D96032517B4B2900D901207047F7B58F
:10D59000ACB000F0BFFE279000F0B4FE2690002053
:10D5A000694608712E990646054600297EDD24202D
:10D5B0002D99684344182046203025904078012852
:10D5C00075D1702102A805F0D4FC00201E901F9098
:10D5D0002C98249002A822902E982390002020902E
:10D5E00000F090FE074628A8009021AB2146229A21
:10D5F0002498FFF783FD387D00280BD12037B87BB6
:10D60000002807D120A8037928AA20462299FFF7ED
:10D6100056FE209000F098FE074600F099FE014665
:10D620002078002808D07F1EB84205D060780028F6
:10D6300002D0491E884201D1012000E000200746A7
:10D640002398009020A90A7928A92046209BFFF75B
:10D6500086FE18A9209A8A7088710F722C982390E0
:10D6600000F072FE22906069A26921922769400051
:10D670007900C0190A225043209105F07CFC219AC0
:10D6800000905000C0190A225043209905F073FC05
:10D69000024610A9009808874A87229842430098BA
:10D6A000101841002398405A10A901E05BE054E0B3
:10D6B000888702AB1EAA21462C98FFF76BF9A08938
:10D6C00000223C2804D918A8407D4B2800D901220B
:10D6D00068460079C421484327992092471820685A
:10D6E0003860B81C0090A0887881E088B88110A8C4
:10D6F000008FB88010A8408FF88010A8808F3881E4
:10D70000384602A970221430F2F788FD009821896A
:10D7100081816189C1812069B861A089B882A18BAA
:10D720007020C1532598A037017879778078B87731
:10D7300001203877209AFA7768460079401CC1B2F8
:10D74000684601710D2901D3012000E00020012865
:10D7500009D0A089B04200D906466D1C2E982DB282
:10D76000854200DA23E726988680684600792FB044
:10D77000F0BDF3B5FFB0FFB091B00D4600F0C2FDB3
:10D78000044600F0CEFD074687216E46C9003046AC
:10D7900005F0EFFB207D012806D1FFA82037016CA2
:10D7A000BA7A284604F041FFFFAB32462946186C8E
:10D7B00002F07AFE2546203502462872FFAB31463C
:10D7C000186CFFF7E4FE0646207D012804D1FFA86F
:10D7D0003146006C05F010FB6E727FB07FB013B065
:10D7E000F0BD0000FFB500260225865F455F0446B8
:10D7F00083B001200E8096464D800346012A25DD28
:10D800009F000197E25F0092B21A02923A19022732
:10D81000D75F9446029AEF1B52437F43D719069A6B
:10D8200097420FDD8200009D8D5265465218401CC4
:10D830006D8800B25580704508DC019A0225A65E0D
:10D840006246555F5B1C1BB27345D9DB07B0F0BD68
:10D85000F8B500250E460746002801DA794200E0B7
:10D860000146002E01DA704200E0304600290AD15C
:10D87000F74B02049A4206D3002E01DA5A20F8BD73
:10D88000FF200F30F8BD000405F075FBF14B0024BC
:10D89000A1005A58824205D8C9184968814201D965
:10D8A000254603E0641C24B2592CF1DB3846704352
:10D8B000002801DA684205B2002F02DAB420401BCA
:10D8C00002E0002E02DA684200B2F8BDFF206930A3
:10D8D000401B00B2F8BDFFB581B007460498002494
:10D8E000401E0D460090002819DDA600F119042005
:10D8F000085EBA5F0223801A06228A5ECB5ED11AC6
:10D9000002460B4642434B43D318039A9351FFF709
:10D910009FFFA853641C009824B28442E5DB049B5B
:10D9200000229B1E002B16DDB324E4439000411916
:10D930008E88285A301A00B2B42802DDFF386938C0
:10D9400003E0A04202DAFF30693000B2521C12B28A
:10D9500048809A42EADB009805B000B2F0BDF0B40E
:10D960000746002004460546002915DDAE00F619DD
:10D970007688341924B2002C01DA664200E026468B
:10D98000964205DD6C1C4600401C9C5380B200246E
:10D990006D1C2DB28D42E9DBF0BC7047F0B48C46B3
:10D9A00001881180418851800499012400250029B3
:10D9B00012DD6F00D95BA6008900415A9153D95BF3
:10D9C000B6188900091849887180641C6D1C049977
:10D9D0002DB224B28D42ECDB614689000818203854
:10D9E000838BA10053528918C08B4880641C20B2DD
:10D9F000F0BC7047FFB5002083B0049B044602468C
:10DA000001468446864605460090002B5EDDFF27D2
:10DA10002D375B1E0293039BAE00F6180223F35EC4
:10DA20001E4696360196BE4210D8002C05D1002B1A
:10DA300001DB012401E00024E4431E466643002E7E
:10DA400002DD591809B201E00126B4461E463236FD
:10DA5000642E11D9002A05D1002B01DB012201E03F
:10DA60000022D2435343002B06DA73465B1CDBB221
:10DA70009E46012A0AD00122019BBB4209D8029B83
:10DA80009D4206D06346012B03D014E00022D2430E
:10DA9000F2E700280FD10B467833F02B08D9002984
:10DAA00002DA0220494200E0012009B2009102E0BE
:10DAB00000218C460C466D1C049B2DB29D42AADBB6
:10DAC000002803D0059A0099118002E005990022F0
:10DAD0000A80069A7146117007B0F0BDF8B50024AF
:10DAE000069D17468C46002B0EDDA60061468A591E
:10DAF0007119CA6062005219FF32C132641CB95BED
:10DB000024B291809C42F0DB1521490169180091F3
:10DB10000B70002202219C00825E415E035F201890
:10DB20000226865FD01A891B02460B4642434B43AE
:10DB3000D618FFF78DFEAE60A880E01900222038CD
:10DB40001C21BA5E415E501A00D5881A00B2B42872
:10DB500003DDFF216931081A00B200998880F8BD01
:10DB6000F7B58BB000208C460790069015210390E6
:10DB700049016046401804900399012088403649C5
:10DB80000968A031898A014261D103980022C1014C
:10DB90000B98405C00280DD0032804D063461B7806
:10DBA000834206D106E060460078012802D00228B0
:10DBB00000D001220B980C180220205E002802D110
:10DBC000A18800290DD061460978002909D0634653
:10DBD0000221595E814203DB0420205E814200DD88
:10DBE000521CA068002802D1E168002907D06146D4
:10DBF0008968814202DBE068814200DD521C10210D
:10DC0000615E002902D1608A002809D063460420A1
:10DC1000185E884203DB1221615E884200DD521CDF
:10DC2000A08A002802D1E08A00287DD03420015D3E
:10DC3000049801910078009000200346059002901E
:10DC4000864609900098884208D2521C77E0A6E0E8
:10DC50003B4A3900147A0100B00A002000990020E4
:10DC6000002960D9491E0A910199491E089199001D
:10DC7000611814254D5F16268E5F2946314301D168
:10DC800001210991B54214DD4100FF276144C537E8
:10DC9000CF5FFF2169318F4204DCAF4202DB76188F
:10DCA00036B206E0002F04DBB74202DCFF3D693DDF
:10DCB0002DB24100FF276144C537CF5FAF4201DB82
:10DCC000B7420CDD0999012909D0014619430DD04D
:10DCD00001998B4216D2714601290AD006E00599B6
:10DCE000491CC9B2059101218E4617E0012002901E
:10DCF00019E05B1CDBB2002801D0401EC0B200213D
:10DD00008E4608E00A998842F0DB71460029EDD082
:10DD100008998B42EADA08998B42E7DC401C0099AB
:10DD2000C0B28842A3D300E007E00198401E8342BE
:10DD30008BDB0298012888D001E001200590603437
:10DD4000207E002802D1617E002907D004994978FD
:10DD5000884202D8607E884200D2521CA07E0028F1
:10DD600004D004998978814200D2521CA08B0028EB
:10DD700004D004998988814200D9521C002A0ED10E
:10DD8000059800280BD0069A0D9903988854069898
:10DD9000401CC0B206900798401CC0B20790039880
:10DDA000401C00B203900D2800DAE5E607980EB09B
:10DDB000F0BDF7B5F64BF74D9D442B68FFAFA03390
:10DDC0000A4684371B8B3946FFF70CFDF24A03469F
:10DDD0006A441446FF3CB93C019021463846FFF79F
:10DDE0007AFD401E02B228680021A030C07EEB4BB5
:10DDF00084466B440D460846002A15DD8600361918
:10DE0000768875192DB2002D01DA6E4200E02E469B
:10DE1000664505DD451C4E00491C9D5389B2002511
:10DE2000401C00B29042E9DB0091FFA8B2AA843006
:10DE30000199FFF7B3FDDA4F03466F443E46FF3EBC
:10DE4000B93E3A463146B2A8FFF745FD0546401EA9
:10DE500001B2B0ABB1AA3046FFF7CCFD69460872FB
:10DE6000B0A9888869464881B0A90878A8A94872ED
:10DE7000CC4902AC69440868A8A988722B4632468E
:10DE80003946B2A80094FFF729FEACAA2146C6483D
:10DE9000FFF766FE012803D0C44B00209D44F0BD6F
:10DEA000A8A8007CC049C00140186030BF4BC07FAB
:10DEB0009D44F0BDBE48002101708170C1700171A8
:10DEC0007047002300293CDDF0B582B08E469900F2
:10DED000465E6A4616800A1802259446555F6A46D1
:10DEE0009580AC4A14686C22125D570702D5012751
:10DEF000974301E0D707FF0F002F03D0A7797D1BC1
:10DF00006D1E2DB2970703D5E479A41B641E26B2BB
:10DF100052076A4602D51580968001E016809580EA
:10DF2000128831246243193242526A4691885B1C3E
:10DF30006143193162461BB251807345C7DB02B0A1
:10DF4000F0BD7047F0B59646024692488C4601688F
:10DF50000026C8798D79614637463346002914DD9D
:10DF60009900545E844200DA2046B44200DD264621
:10DF7000891802240C5FAC4200DA2546BC4200DD61
:10DF800027465B1C1BB26345EADB301A401C01B21A
:10DF9000781B401C03B2994201DD0F4600E01F468A
:10DFA000994201DA0C4600E01C4670460470814834
:10DFB000784C05702468E479A41B641E4470002B1F
:10DFC00000DA5B427C480029037000DA4942417064
:10DFD000032F05DB61461046FFF773FF0120F0BDFC
:10DFE0000020F0BDF3B5A3B0002002900190694875
:10DFF000382100680390807900900398C47906A8BE
:10E0000004F0B7FF382114A804F0B3FF00208446C1
:10E010000146049000230098DB43002833DD0020F4
:10E02000002C2BDD4A0096460A46624305921218E0
:10E030005500239A525F322A14DD460006AFBD5BBD
:10E04000AF1806ADAF53754614AE755BAF18754685
:10E05000775365466D1CAC469A4209DD1346019123
:10E06000029005E02725ED43AA4201DA012204923D
:10E07000401C00B2A04201DA059AD8E7491C00987A
:10E0800009B28142CBDB009A0021521E0120964644
:10E09000012A17DD460014ADAA5F75192E46203EF1
:10E0A0001E27F75FBA4209DB0227EF5FBA4205DCA1
:10E0B000322A03DD801C491C00B2C9B2401C00B2E8
:10E0C0007045E7DB641E00220120A646012C19DD05
:10E0D000470006AEF55FBC192646203E1E27F75FB7
:10E0E000BD4209DB0227E75FBD4205DC322D03DDBF
:10E0F000801C521C00B2D2B2401C00B27045E7DB5B
:10E10000012A07D8012905D80498012802D06046C1
:10E11000502803D926490220887025E02448002B86
:10E12000017817DD03469878002801D10120987006
:10E13000224C8800029A22520019019A42800398C8
:10E14000A030807D884202D2022098700CE0491CE9
:10E15000197009E0164CA078012809D0022814D0C3
:10E16000032801D00020A0701148807825B0F0BDB0
:10E170000329F7D91148249AFFF7E4FE002802D0BA
:10E180000320A070F0E70220FBE70329ECD8E9E7C1
:10E1900008F2FFFFB00A0020F0070000180D000091
:10E1A000600B0000000E00007C7B0100040E0000EC
:10E1B000980A00209D0A00209F0A00200C4D002094
:10E1C000F8B586460020009070468C4601281BD08A
:10E1D00025D90024E000071B4248C55D75451AD1CA
:10E1E00000231A46002D12DD381881184E7861463A
:10E1F000895C8E4201D05B1CDBB2521C12B295428C
:10E20000F3DC002B03D006E00878009007E03548E7
:10E21000381880790090641C24B2032CDADB009853
:10E22000F8BDF0B583B0002469460C7226464068FC
:10E2300002A9FFF7D7FE2C4D002806D001280BD0ED
:10E2400002280BD0032820D10EE0287901281CD108
:10E250006878401C687018E06C7003E06C702C707B
:10E26000AC70EC702C7110E06846027A29781F4877
:10E27000FFF79FFD01461E4AE8781154401CE870E4
:10E280006C702C70AC70012028711A486A78006894
:10E29000A030817E914203D9C07DE97888421DD8A3
:10E2A0001349E878FFF78CFF002813D01249134B6D
:10E2B0000A781E7849785B786F4638707A70B6189D
:10E2C000B9705B18FE703B71052269460120FBF7AF
:10E2D000D5FA01262C70AC70EC702C71304603B06E
:10E2E000F0BD0000FC810100980A00200C4D0020C8
:10E2F000A10A0020B00A00209D0A00209F0A0020E9
:10E3000059487047594887210078C90048435849FF
:10E310004018704755485749407848435649401877
:10E32000704752480121007848408721C90048437E
:10E330004F49401870474D480121407848404D49A9
:10E3400048434D494018704748488068C079704735
:10E350004648806880797047444881680C20085E90
:10E360007047424881680E20085E70473F4801228E
:10E3700001785140017070473C480122417851407A
:10E380004170704710B53B4904F0F3FD10BD10B566
:10E390008721C90004F0EDFD10BD10B52A2104F05D
:10E3A000E6FD10BD10B531498860FCF77CFFFCF735
:10E3B0002BF910BD2D48012102784A4002704278A5
:10E3C0004A40427070472949486070472748406872
:10E3D000704726488168497AC90701D000207047F4
:10E3E0000079C006C00F7047204800794007C00F71
:10E3F00070471E4840684001C00F70471B480079B5
:10E400000007C00F7047194800790006C00F704719
:10E4100070B5064615480D4601788722D200514353
:10E42000134A40788C18134948431349401811493E
:10E4300004F09FFD29463046FFF79BF903F02CFEC0
:10E44000304602F0C4FF2946304602F09DFC002809
:10E4500004D12920015D3046FCF7A1F802F0A2FCAE
:10E460002034A07A70BD0000C44E0020A80A00200D
:10E47000F04E0020F409000060570020FE4870476D
:10E4800010B444799C4200D943710479944200D974
:10E490000271C4799C4200D2C3718479944200D243
:10E4A00082710224045F8C4202DA41800270437060
:10E4B00084894A43641C8481046964180461446942
:10E4C0005943A218426182695118816110BC70479A
:10E4D000FFB583B0FFF738FF0090FFF739FF86469E
:10E4E000009906980C9A484305995118435C049A80
:10E4F000934201D1039A4254012706980024C01B7D
:10E5000002B20698C019029090422EDB0598C01BFB
:10E5100000B201900598C019844601998C4519DB19
:10E52000009813464343002A10DB72450EDA002997
:10E530000CDB0098814209DA0C9D049E6D18585D31
:10E54000B04203D1039E641C5E5524B2491C09B23B
:10E550008C45E8DA521C029812B29042DDDA002CA7
:10E5600003D07F1C3FB2052FC7DD07B0F0BDF3B568
:10E5700089B0FFF7C7FE0646FFF7E6FE04900020CD
:10E5800005900A983636002869D905990A98002717
:10E59000401A401E079000285ADD3846242148437F
:10E5A00009990690441802202621205E615E884267
:10E5B00049DA616A206821606062A16A606861600E
:10E5C000A06220460C300FC886460293019200914B
:10E5D000E06925468446204630300FC80C340FC40D
:10E5E0001C3C206CE0617046029B019A009930341B
:10E5F0000FC4403C6046206460780499099A4843FF
:10E6000006992035515C4018305C02906B79049873
:10E610002A7958438018305C0390FF2000960190BF
:10E620000399FFF755FF0096069909986378425CB5
:10E6300002990398FFF74CFF00966B792A790199AC
:10E640000298FFF745FF7F1C0798BFB2B842A4DCD1
:10E650000598401C80B205900A99884295D30BB06A
:10E66000F0BDFFB5002099B015460E4614901390EA
:10E6700004461290FFF746FE1090FFF752FE1590E9
:10E68000FFF73EFE1190FFF763FE0746FFF75CFEC3
:10E690008446109802210078179010981322407831
:10E6A00016901098415E19988E4600280ED01C983E
:10E6B00000287DD00020002F11D908A9199C430003
:10E6C000E35E934205DD01240C5404E00120149024
:10E6D0008FE000230B54401CC0B2B842EED3614619
:10E6E000791838468C46814211D9199B4400C11BC8
:10E6F0001B5FC9B2934203DD01236C46635402E001
:10E7000000236C466354401CC0B28445EDD8179971
:10E710006F46785C0222002807D101200146139041
:10E7200011982030417210980273169808AB185C4B
:10E73000002807D101200146129011982030417223
:10E740001098027300242046002D25D9242141432E
:10E750008C468A19114620314B78012B18D102279B
:10E76000D75F774514DA139B002B05D16346F75C1E
:10E770006B46DB5D002B07D0129B002B08D1537832
:10E7800008AAD25C002A03D10222641C4A70E4B2B7
:10E79000401CC0B2A842D9D315981C992030807A69
:10E7A000091B884215DD022813D90024204600E009
:10E7B0001FE0002D1DD90122242141438919203158
:10E7C0004B78022B00D14A70401CC0B2A842F3D350
:10E7D0000FE00020002D0CD900222421414389198B
:10E7E00020314B78022B00D14A70401CC0B2A842A5
:10E7F000F3D310982030417B0919417314981DB050
:10E80000F0BDF3B591B004463C21684604F0B1FB7D
:10E810000023002C68D90022002C61D918461E2143
:10E8200048431299401810905800591C0F911099A4
:10E83000895C012950D1104E315A002928D0550049
:10E84000AC46755B002D33D0A94245D00021002C89
:10E8500008D96E464D00084F491C7F5BC9B27753FB
:10E86000A142F7D30021002C36D9934223D84E0081
:10E87000014DB646AF5B01E0486B00206E46355A4D
:10E88000AF4225D16546775BFA4E754677531FE058
:10E890005100755A002D01D035521DE0934203D826
:10E8A0000F9D35520F9D01E0551C3552755213E0F6
:10E8B0006546715310E04E00EE4DB646AF5B6546BF
:10E8C0006E46755BAF4203D1375AEA4E75467753B1
:10E8D000491CC9B2A142C8D3521CD2B2A242A6D38B
:10E8E0005B1CDBB2A34296D3002013B0F0BDF0B5A1
:10E8F00004461F46501EC3B282B024256B430A98BB
:10E90000079EDD190093687070008446205A688065
:10E91000885D801888550B98F854012021214855AE
:10E920000B9828710B98A8710A9868710A98E87179
:10E930006046215E28460A9B0B9AFFF7A1FD687886
:10E9400000280AD16146625E089971184900615E2B
:10E950008A4202D10A98401C0DE00999491E88425A
:10E960000AD16046215E0898301A4000205E81423C
:10E9700002D10A98401E68700098395C7000001936
:10E9800000290AD162460223A25EC35E9A4204D1E4
:10E990000B980099401C78540EE0089A521E914240
:10E9A0000AD1614620381E22615E825E914203D107
:10E9B0000B980099401E78540098FF22395C01980A
:10E9C0001202000A000208436978904309021140CC
:10E9D0000843698880B20904084302B0F0BDF3B56A
:10E9E0000546B5B000200D90802114A804F0C1FAAE
:10E9F000FFF788FC0590012136308902044604F0B7
:10EA0000B6FAFFF7AEFC0C90FFF7A2FC0E90FFF7F2
:10EA10009BFC0A90059A0220105E0B909079167A62
:10EA2000864686420BDBFA220027FF4314AB8100A7
:10EA30005A52C918401C00B24F808642F7DA059836
:10EA40000599C079497A81427EDB7146611803914C
:10EA50007146890014AA0091891802910A9900222E
:10EA600041430191714449006B5E0C998B4211DD69
:10EA7000039A01990A238B54009914AA515E81428A
:10EA800001DD00995052029902228A5E824200DA28
:10EA900048800122059B71461B7A8B4258DD019B01
:10EAA0005B181BB25E009C46AB5F77190226BE5F07
:10EAB000B34230DC0C9FBE422DDD002A01D0012A7A
:10EAC0003ED1B34203DA00226346E2540BE08A00EF
:10EAD00014AB9E5E864200DD9852D2180223D35EAC
:10EAE000834200DA5080059A127A521E8A420CD173
:10EAF0008B0014AA9A180423D35E834200DD908011
:10EB00000623D35E834200DAD08063460A22E318EC
:10EB10005A70012214E0012A12D18F0014AEF65F60
:10EB20000022864201DD14AEF05314AEBE19022756
:10EB3000F75F874200DA70800B9EB34200DD0B93D3
:10EB4000491C09B2059B00E009E01B7A8B42A6DC58
:10EB50000599401C497A00B2814200DB7EE7002023
:10EB60000890704606900598017A71456FDB0E9803
:10EB7000401E12900A98401E1190069814AA800018
:10EB8000115E8018022207911090825E8A425DDB3E
:10EB90000698C0B20F900A99079848430699401802
:10EBA00000B20990205C0A2863D100208646844682
:10EBB0000999401E49000091079900220A9BD243FF
:10EBC00009184B430193002922DB129B99421FDC59
:10EBD000069B9B181CD4119EB34219DC06461643B3
:10EBE00016D0019EF3181BB25E00AF5F009EAE5FB1
:10EBF000B74205DD099E0023A35501239E4607E089
:10EC0000E35CDE0904D001269B069B0EB4460D93FF
:10EC1000521C12B2012AD6DD401C00B20128CBDD05
:10EC20007046002802D06046012845D10098295E30
:10EC30000C98814240DD6046012809D00898401CAC
:10EC4000C0B208901E2817D91E2008903FE048E067
:10EC500007982426C3B20698C2B20D987043369E18
:10EC600080192438FFF70CFC0D988021084309997E
:10EC7000605421E0486B002007990E9B0F980A9A78
:10EC80000490C9B203910998029301920090214621
:10EC90002846369B089AFFF72AFE089980221143DE
:10ECA000099AA1540B9902148A4205D1059908705A
:10ECB0000004010E0598417007980221401C00B223
:10ECC00007901098415E0798814200DB63E7069841
:10ECD000401C00B206900598017A0698814200DB3C
:10ECE0004BE7089837B0F0BDF3B5002481B0254656
:10ECF000FFF737FB0646FFF705FB0090FFF774FBB5
:10ED00000028FA490098415E01D04B1000E08B10BA
:10ED10000298002100281FD92420019A4843801816
:10ED20000222825E9A4201DDB2420ADC203047783C
:10ED3000012F0CD100274770B24208DD641CE4B2F9
:10ED400005E020304078012801D16D1CEDB2491C4E
:10ED5000029889B28142DFD300982030417B0919A3
:10ED60004173284603B0F0BD70B515460E46044603
:10ED7000FFF7D7FAFFF7C6FA002120304173294682
:10ED80003046FFF7B1FF002C05D003462A46314636
:10ED90002046FFF766FC70BDFFB586460A9A012043
:10EDA000099D9C461F4693421DDC00263A46029C64
:10EDB0000BE00B9B53431B195B00CB5E002B00DD6C
:10EDC0009E19641C521E24B212B2AC4201DC624590
:10EDD000EFDA83007246D650401C7F1C0A9A3FB27D
:10EDE000C0B29742E1DD029A521C17B2AF421CDC5E
:10EDF00000263A460A9C0BE00B9B63439B185B0082
:10EE0000CB5E002B00DD9E19521C641E12B224B290
:10EE1000AA4201DC6445EFDA8300401C7F1C724685
:10EE20003FB2D650C0B2AF42E2DD04B0F0BDF0B5A3
:10EE30009C461F468646069B01209F421DDC0026FD
:10EE40003C46059D0BE0079B63435B195B00CB5E73
:10EE5000002B00DD9E196D1E641E2DB224B295425A
:10EE600001DB6445EFDA840073461E51401C7F1CB1
:10EE7000069B3FB2C0B29F42E1DD059B5B1E1FB205
:10EE800097421CDB00263C46069D0BE0079B6B432C
:10EE90001B195B00CB5E002B00DD9E19641E6D1EEE
:10EEA00024B22DB2944201DB6545EFDA8400401CA8
:10EEB0007F1E73463FB21E51C0B29742E2DAF0BDE8
:10EEC000FFB500218C460D460C460B4601990122E8
:10EED000012922D997003E18B646403EC159F66B2B
:10EEE000B1420FDD76467668B1420BDDA14204DD0A
:10EEF000234665460C4694460AE0994208DD0B46D7
:10EF0000154605E076467668B14201D1491EC151E9
:10EF1000521C0199D2B28A42DCD302980460029852
:10EF200043600399604608700398457004B0F0BDD3
:10EF300070B50E461968049C0546B14202DD58685A
:10EF4000904204DC91421BDD5868B04218DD207805
:10EF50006478A04201D2024601E0224604460846F7
:10EF6000A24208D89300EB58834200DA1846521C9C
:10EF7000D2B2A242F6D96422504304F00AF870BD1E
:10EF8000642070BDFFB5CDB00F460024FF2108946A
:10EF900001310CA8079403F0ECFF04940594FFF7EB
:10EFA000C0F90B9052480068008C04B2FFF7CCF90E
:10EFB0000990FFF7CDF9002609990390354606918F
:10EFC00030464D992422095C069B5143C9190A79A0
:10EFD0009A4200DA06924A79039B9A4200DA039237
:10EFE0008A79B24200DD1646C979A94200DD0D4694
:10EFF000401CC0B20228E4D3099801950290009603
:10F000000CA8039B069A4F99FFF7C6FE014608AB72
:10F0100004AA0CA8FFF754FF08A800904D982421DB
:10F02000407802224843C019825E4D9804AB0078B4
:10F030004843C0190221415E0CA8FFF779FFFF2168
:10F040000A9001310CA803F094FF099801950290F1
:10F0500000960CA8039B069A4F99FFF7E8FE01461D
:10F0600008AB04AA0CA8FFF72BFF08A800904D9846
:10F070002421407802224843C019825E4D9804AB97
:10F0800000784843C0190221415E0CA8FFF750FFE9
:10F090000A99A14201DA642806D0A04201DA642963
:10F0A00003D0012007902AE00846642827DA0B994C
:10F0B00020318A7A002A0BD04A7C022A01D1143CE2
:10F0C00024B20A7C052A01D0032A01D1143424B2C7
:10F0D000A042E6DA02220792497C022901D01928CF
:10F0E00008DA50980221817009E000000200000057
:10F0F000B00A00202D2802DD50980121817050991E
:10F100000798487051B0F0BDFFB583B000240F469A
:10F11000064600940194FFF7F5F80546FFF701F95C
:10F120000220285E8510FFF71CF9A84202DDFFF7D8
:10F1300018F905460020002E1DDDFC4A242141431C
:10F14000C91921235B5C012B11D10223CB5EAB4299
:10F150000DDD4100515A002905D0022C03D26B4627
:10F16000195501A90855641CE4B2022C03D8401CAF
:10F1700000B2B042E2DB0698022C04700AD1694664
:10F1800008784978884205D1394601A8069B059A36
:10F19000FFF7F8FE07B0F0BDFFB5FFB0044690B032
:10F1A00000202990289022902490174640216846FC
:10F1B00003F0DFFE402110A803F0DBFE40216EA823
:10F1C00003F0D7FE40217EA803F0D3FEFFF79AF8A4
:10F1D0000646FFF7A6F8304636302A90D448006835
:10F1E0002030C27923920279259280792B90FFF703
:10F1F000ABF82090FFF7ACF82190209D2690279542
:10F200002E20805D012802D1239840102390307B6E
:10F21000022803D0032801D0052802D123981438EE
:10F2200023900021002F2ED990984A00835A242041
:10F23000434318190279AA4200D215464279219E09
:10F24000B24200D221928279229EB24200D9229209
:10F25000C279249EB24200D92492E25C279B9A4252
:10F2600000D227924078269B984200D22690289B75
:10F270009A4200D92892299A904200D92990491C93
:10F28000C9B2B942D0D324992198884231D8229961
:10F290002C468D4228D8209941438C462199411A09
:10F2A0004A00614609192A9B89B25B5C002B16D083
:10F2B000989E10AF4900BB5A715E7EAE5B18BB5280
:10F2C000B35E8B4200DAB152631B5B006E46F75AA5
:10F2D0007F18F7526EAFFE5E8E4200DAF952641C60
:10F2E0002299E4B28C42DCD9401C2499C0B28842F5
:10F2F000CDD96A461188229A00207D26521BF6003D
:10F300002091014604462292002A3ADDA20064239D
:10F310002EAF2C92BB529446674400227A80BC46A2
:10F3200067006A46D25F6B46FF1802232A97FB5E8E
:10F330009A421EDA002816D0012815D049006EA87E
:10F34000415A604641801046642148432EAF2099BF
:10F3500003F01FFE2C9978522A99012049882091A8
:10F36000611CC9B208E0012079882091611CC9B2F2
:10F3700002E09A4200DD0220641C229AE4B2A2421A
:10F38000C4DC51006A46515A2091229B22990020E8
:10F390001C06C9B2240E51D067006A46D35FBF185D
:10F3A0003A46BC46203A1E272A92D75FBB423EDA35
:10F3B000002836D0012835D062460227D75F204684
:10F3C000BB4209D1401CC0B247006B46DA5FFB1854
:10F3D0000227DF5FBA42F5D082002D922EAB2C922D
:10F3E000D2184B006EA95788C95A791889B24908B2
:10F3F000518041006846405E64214843209903F0F3
:10F40000C8FD2C9A2EA9895A80B2814202D92D9921
:10F410002EAA50522A990120C98B2091611EC9B28F
:10F4200008E00120D18B2091611EC9B202E0BB42ED
:10F4300000DD0220641E2406240EADD1229800288F
:10F440003DDD259800022C90A7002EA9C85B6428FA
:10F4500030D22A19791820922A914A8825998A420D
:10F4600013D22B99884210D9FEF7B0FF40070CD475
:10F470002A9841882C9803F07EFD01462EA8C05B97
:10F4800048430002010C2EA8C1532EA8C05B23994B
:10F4900088420FDA209A279991420BDC28999142F1
:10F4A00008DBB04206D20646999901200880999956
:10F4B00020984880641C2298E4B2A042C4DC10ABBF
:10F4C000188820900021219B24980A46C51A0C46D2
:10F4D000002D3CDDA00064234EAF24903B528446B7
:10F4E00067440020BC467880670010ABD85FFF18E7
:10F4F00002232297FB5E984222DA00291AD00129C2
:10F5000019D052007EA98A5A61464A806421484334
:10F510004EAF209903F03DFD2499785222980121A5
:10F5200040882090601CC2B20DE00000486B0020B3
:10F53000B00A0020012178882090601CC2B202E04D
:10F54000984200DD0221641CE4B2A542C2DC6900DD
:10F5500010AA515A002020912C06E9B2240E50D056
:10F56000670010AAD35FBF183A46BC46203A1E2750
:10F570002292D75FBB423DDA002835D0012834D033
:10F5800062460227D75F2046BB4209D1401CC0B269
:10F59000470010ABDA5FFB180227DF5FBA42F5D0F5
:10F5A000830027934EAA24939B184A007EA95F8864
:10F5B000895A791889B249085980410010A8405EDB
:10F5C00064214843209903F0E4FC249B4EA9C95AC6
:10F5D000814202DD27994EAA505222990120C98BFF
:10F5E0002091611EC9B208E00120D18B2091611EDB
:10F5F000C9B202E0BB4200DD0220641E2406240ED4
:10F60000AED1002D3CDD259800022490A7004EAB22
:10F61000D85B642830D2219909192091F9182291D8
:10F620004B8825998B4212D22B9988420FD9FEF72D
:10F63000CDFE40070BD422984188249803F09BFC10
:10F640004EA9C95B41430802010C4EA8C1534EA804
:10F65000C05B239988420FDA209A269991420BDCED
:10F660002999914208DBB04206D2064699990220B8
:10F670000880999920984880641CE4B2A542C5DCB2
:10F680007D20C000864203D17FB0002014B0F0BDC1
:10F690007FB0012014B0F0BDF0B4844600201E24D9
:10F6A00058701C7065460446002D13D966008D5BAA
:10F6B000681E1D280AD2242027464743049838187C
:10F6C00020304078012807D000208853641CE4B221
:10F6D0006445EBD3F0BC70475878002808D01E78FA
:10F6E000AE42F3D1400014525878401C5870EDE7F8
:10F6F0001D7014805878401C5870E7E7FFB593B030
:10F70000002011900190009015463C2102A803F0C2
:10F7100030FC0024FEF71CFE0646FEF715FE169987
:10F720000988012901D002296DD1169A6B46927879
:10F73000521C1A71012902D0022902D002E058712C
:10F7400000E05E711C9800214078002839D9169895
:10F750000088012802D0022807D00DE04800285A6E
:10F7600024225043149A145C06E04800285A2422AC
:10F770005043149A8018447816984088A04201D3C8
:10F78000002000E001204A009446AE5C1E2703469C
:10F790006A467B43125C02AFDB19D654521C6B469F
:10F7A0001A5401AA135CA34205D914546246AA5CF8
:10F7B00011AB521C1A541C98491C4078C9B288429B
:10F7C000C5D86846007800281FD0684640780028D1
:10F7D0001BD0002600216A46555C0020002D0ED962
:10F7E0001E2202AC4A4311AB14195A5C9319225CD5
:10F7F000401C5700139AC0B2D3538542F7D8491C16
:10F80000C9B20229E7D317B0F0BD1E26E2E7FFB563
:10F8100093B000251C4602953C2103A8129503F0E5
:10F82000A8FB3C2103A803F0A4FB00261498139D19
:10F8300086460296129669461E204E72087203ABE7
:10F8400002AA3146002D5AD948008446205A471E44
:10F850001D2F0AD224260F467743774420377F781E
:10F86000012F21D000206746E053491CC9B2A942AC
:10F87000EAD36846427A002A41D0012A26D0159858
:10F8800012A9019100906846037A03A91498FFF722
:10F8900083FC002820D002A8009012AB03AA2046C7
:10F8A0001499FFF72BFFBCE757783E0008D0177874
:10F8B0008742DAD1700019525078401C5070D4E75A
:10F8C000107019805078401C5070CEE769468989C5
:10F8D000002049006052A4E76946497A00200029C7
:10F8E0009FD903AA4100515A401C4900635AC0B233
:10F8F0001E3363526946497A8142F3D891E71399DE
:10F90000002000290AD94200A15A1E2901D91E3916
:10F91000A152401C1399C0B28842F4D317B0F0BD75
:10F9200010B4242343439B1824244C43A218243BA3
:10F93000243A884234D018791179884200D2107163
:10F9400098799179884200D9907158795179884293
:10F9500000D25071D879D179884200D9D07190897C
:10F96000998940189081106919694018106150698F
:10F970005969401850619069996940189061022056
:10F980000221185E515E884204DD508018781070A4
:10F9900058785070012020321070002020335870A9
:10F9A00010BC7047FFB581B01C460546FEF7CCFC85
:10F9B00086466079E17981421EDB2179A2798A420B
:10F9C00015DB7246424394466246521892B2AB5CD3
:10F9D000029E9F06BF0EB74204D1DB09039EDB01E6
:10F9E0003343AB54491CA27909B28A42ECDA401C79
:10F9F000E17900B28142E0DA05B0F0BDF0B58FB038
:10FA00000C46074615463C21684603F0B2FA3C22F4
:10FA10002946684603F045FA0026314630466D46D1
:10FA2000002C09D94200AA5A002A01D0491CC9B2A7
:10FA3000401CC0B2A042F5D3781AC0B2002184465F
:10FA4000002C17D948002B5A002B0FD0761C481CCD
:10FA5000C0B2F6B2A04209D24200AF5A9F4201D1D1
:10FA60000027AF52401CC0B2A042F5D3491CC9B216
:10FA7000A142E7D360468019C0B20FB0F0BDF8B51F
:10FA80000546FEF73FFC0446FEF74BFC6A78002172
:10FA90000126022A06D0012A11D020342174617473
:10FAA000A174F8BD2878022805D003223020025521
:10FAB0002034667431E0052230200255F8E720300A
:10FAC000077C02230422022F04D0042F0AD0052F22
:10FAD0001AD024E0807A002821D020342274637464
:10FAE000A674F8BD457C022D19D1857A002D16D05B
:10FAF00020342274807C401CC0B2A074637405283A
:10FB0000EFD16174A174F8BD2D78022D07D1807AF0
:10FB1000002804D0203423746374A174F8BD203409
:10FB200022746174A174F8BDF7B50027BAB0044619
:10FB30003D463E463C212BA8059703F01AFA3C218E
:10FB40000DA803F016FA3C211CA803F012FAFEF7E8
:10FB5000D9FB0090FEF7E5FB0190FEF7ECFB04906B
:10FB6000009836300A90019836300790FEF7ECFB8B
:10FB700006900020FE4B0297002C1BD924213B9AB3
:10FB80004143891820314A78012A0FD1029A029FF5
:10FB9000521C3F0AD2B23F0217430297012A01D1F9
:10FBA00042009D5C0978012900D10126401CC0B2A9
:10FBB000A042E3D30098002120300390C174017566
:10FBC00001224175012E01D10398C2740098007B77
:10FBD000022803D0032801D0052803D13C98827065
:10FBE0000120059000200090019820300190407A7B
:10FBF00000287DD9601E0890009FC42047430498C8
:10FC00003E18BC20805D012873D100253C210DA841
:10FC100003F0AFF97078069948430499C95D41181B
:10FC20000798405C8006800E0C900598012829D02A
:10FC3000B07B0990F07B737C8646307C8446002044
:10FC4000002C78D9242102464A433B9951180B9144
:10FC50004978069F0E467E433B9FBA5CB718079EC5
:10FC6000F65D099FB606B60EBA421FD362451DD88F
:10FC700071451BD3994219D80B9920314978012934
:10FC800008D013E0B07A0990F07A737B8646307B17
:10FC90008446D4E7B6494200895A002906D00C9F11
:10FCA000B74203D10DAE6D1CB152EDB2401CC0B2D3
:10FCB000A042C7D3012D3ED93C211CA803F059F91D
:10FCC00008980023002836DD5D000DAE705B00282B
:10FCD0002CD0581C1CAA844650530021C0B2A0420C
:10FCE00024D20DAE775B4200B65AB7420AD101E08A
:10FCF0002BE020E066461CAFBE5200270DAE491C2B
:10FD0000B752C9B2401CC0B2A042EAD300290DD0FC
:10FD10000020002C0AD91CAD2BAE4200A95A0029A4
:10FD200000D0B152401CC0B2A042F6D35B1C089870
:10FD3000DBB28342C8DB0098401CC0B2009001983F
:10FD4000417A0098814200D956E702982BAAC5B2A1
:10FD500021462846FFF752FE01990290897A002039
:10FD6000002912D0A94210D80199C97C01290BD0D1
:10FD70000199097D012907D00399C97C012903D084
:10FD80003C998978012900D10120039908753C9993
:10FD90004D7002998D424CD301284AD10020009029
:10FDA000002C43D945002BAF795B002938D0401C8B
:10FDB0003B9AFFF7B5FD00982421401CC0B2049087
:10FDC000785D039000980A9E48433B994518FEF7DA
:10FDD000BBFA01906979E879884221DB2A79A87910
:10FDE000904218DB019B08465843864670468018AF
:10FDF00080B2335C9C469F06049BBF0E9F4205D198
:10FE00006346DB09039FDB013B433354521CA87953
:10FE100012B29042EADA491CE87909B28842DDDA86
:10FE20000098401CC0B20090A042BBD33C990298FD
:10FE300048703C98FFF723FE3DB0F0BD30B400247D
:10FE4000234600280DD95D004D5B002D01D0641CB8
:10FE500003E05B1CDBB28342F5D3002C01D0012010
:10FE600000E00220507030BC704770B4002425467A
:10FE70002346002816D924265E4376182036767845
:10FE8000012E05D1002C0FD05E006D1C9453EDB2F5
:10FE90005B1CDBB28342EED3012D03D960008018D6
:10FEA0002038C48370BC70475C1CE4B20125EFE7C6
:10FEB000FFB50E461178C3B0009107460C46507846
:10FEC000FF21090200028C43084004439078090294
:10FED00000048C43084015460443E878802100065E
:10FEE000044302A803F045F8002084464698009990
:10FEF0000079814213D98200D319B9585B68C91AB5
:10FF000002AB995006D54942614503DD240A24021B
:10FF10008C460443401C2978C0B28142EBD8802132
:10FF200002A803F026F80020844646986978807974
:10FF3000814219D28200D319403BB958DB6BC91AF0
:10FF400002AB99500BD54942614508DD8C46FF2133
:10FF500009028C430102FF22120211400C43401E91
:10FF60006978C0B28142E5D3802122A802E0000076
:10FF7000486B002002F0FDFF4698A97840790023E5
:10FF8000814218D982009719B1587F68C91B22AFE6
:10FF9000B9500BD54942994208DD0B46FF210904AF
:10FFA0008C430104FF22120411400C43401CA97829
:10FFB000C0B28142E6D8802122A802F0DAFF46983A
:10FFC000E978C0790027814215D282009319403B1D
:10FFD000B158DB6BC91A22AB995007D54B42BB42D3
:10FFE00004DD2402240A01061F460C43401EE97862
:10FFF000C0B28142E9D320042C70000E6870200248
:020000021000EC
:10000000000EA870200EE87047B0F0BDFFB5CBB071
:100010000546FEF786F9FEF78EF9FEF795F908908A
:10002000002002904E9800287ED902982422504346
:100030004C9A00218418A1832121095D012974D1E2
:100040006178089A51434C9A105C09184D98405CAD
:1000500080218006800E05900AA802F08AFF802188
:100060002AA802F086FF002001900220205EC11025
:10007000C01007900020069184460490A07969463C
:10008000087020794870E07988706079C870A0792C
:1000900020722079A072E07960726279E2729042F7
:1000A00043D32179A07988425DD3089B10465843F9
:1000B00003909000864603984D9B401880B21B5CCD
:1000C000059E9F06BF0EB74248D140002F5E079E97
:1000D000B7421BDD6B461B788B4201D96B4619700A
:1000E0006B465B788B4201D26B4659706B469B78AE
:1000F000934201D96B469A706B46DB78934201D2EA
:100100006B46DA7063465B1C9BB29C462F5E069E74
:10011000B74216DD237A8B4200D92172A37A8B4233
:1001200000D2A172637A01E09AE091E0934200D993
:100130006272E37A934200D2E272019B5B1C9BB233
:10014000019373462AAEF7582B5EFF187346F7509B
:100150008E000AAFBB59285E1818B851491CA07907
:10016000C9B28842A7D2521CE079D2B2904298D24A
:100170006046002868D023466A462AA90AA8FFF7E5
:1001800097FE00200390844603466179E079884217
:100190005AD30598C022104307902079A279824251
:1001A00038D3089A4A43069212184D9E92B2B65C12
:1001B000059FB646B606B60EBE4224D16F463F78BE
:1001C00087421BD86F467F78874217D36F46BF7828
:1001D0008F4213D86F46FF788F420FD35200AA5E2A
:1001E000049FD61936B204961646039F4643F61965
:1001F0004A435B1C94449BB2039604E0079F7646F7
:10020000BE434D9FBE54401CA279C0B2824201D36E
:10021000069AC9E7491CE079C9B28842BDD2002BD1
:1002200012D0684600782071684680786071684610
:100230004078A0716846C078E07104982061A3817D
:10024000039860616046A0610198002800D0A083F7
:1002500002984E99401CC0B20290884200D2E4E657
:100260004FB0F0BDFFB5002093B0054601903C2192
:1002700002A802F07EFEFEF745F80446FEF751F8AC
:100280000646204636301190207B022803D00328F2
:1002900001D0052800D10125207D012802D1607DF3
:1002A000012819D001AB139A16991598FEF72CFF67
:1002B0006846007901280AD93C22864902A802F042
:1002C000F0FD02AB139A16991598FFF7A0FA68464D
:1002D0000479022C24D050E00021159B169D02AC1D
:1002E0000A460846002B59D924264643761920365B
:1002F0007678012E05D100290ED04600521CA1535C
:10030000D2B2401CC0B29842EED3012A46D948006E
:1003100000192038C18341E0411CC9B20122F0E735
:10032000407901281AD10021159A02AB0846002A0B
:100330000FD94700DF5B002F01D0491C03E0401CB0
:10034000C0B29042F5D3002903D00120694648711C
:1003500002E0022069464871022C0ED168464079BD
:1003600002280AD13C2102A802F003FE68468079E7
:10037000002802D1012069468871002D0ED1203657
:10038000307C052801D0032808D1022C06D93C2155
:1003900002A802F0EEFD012069468871002000905D
:1003A0001598002846D9009802AA4700D15B002979
:1003B00039D024235843169BC4182120005D0128FE
:1003C00031D100981A46401CFFF7AAFA0098119DF7
:1003D000401CC6B202A8C05D1290FDF7B5FF86466C
:1003E0006379E07998421EDB2179A079884215DB98
:1003F00072461846504384466046401882B2AF5C4D
:10040000B806800EB04204D1FF091298FF010743DD
:10041000AF54491CA07909B28842EDDA5B1CE0793F
:100420001BB29842E0DA00981599401CC0B20090C7
:100430008842B8D3169E159D149CFDF772FFFDF7F8
:1004400061FF00212030417329463046FEF74CFC05
:10045000002C05D003462A4631462046FEF701F916
:1004600001AA16991598FFF75FFB159B119A16992B
:100470001398FFF7CBFD01200090174811990068F1
:100480008379C2792020F6F711F917B0F0BD70B565
:100490000C460546FEF7A3FA0646024621462846C4
:1004A00003F094F8304670BDF8B50F461446054683
:1004B0001146FEF794FA064602462146284603F006
:1004C00085F82346324639462846FFF7CBFE3046AC
:1004D000F8BD0000486B0020B00A002070B50D4642
:1004E0000446FDF70DFF00200246A15CAB5C99427B
:1004F00001D0012070BD521CD2B20A2AF5D370BDC2
:10050000F0B58DB00020009001900290039004900F
:100510000590069007900890FDF7F4FE0990FDF70E
:1005200000FF0C90FDF7F6FE0B90FDF704FF0A901C
:10053000FDF7E6FE099B0246203300205C7A014667
:10054000002C14D9FC4E01276E44C4240B9D4C434F
:100550006419C1252D5D022D01D0032D02D18034F7
:100560006479A755491C5C7AC9B28C42EDD80C9DC0
:10057000002120356C7A002C15D902AF0337C42432
:100580000E4666430A9C3419C126365D022E01D000
:10059000032E03D1012680346479E655491C6C7A18
:1005A000C9B28C42EBD8002106AF8C00165F002E3A
:1005B00001DD01267E540026F6431653A418491C7B
:1005C000C9B266800A29F0D30999097B032901D0B1
:1005D000052908D1587A597B4018997A884201D167
:1005E000002000E001202032517A012926D0002885
:1005F00025D1A97A002922D0107A03AC00286D46B3
:100600000ED0FDF77DFE00210846225C2B5C9A424D
:100610001AD1401CC0B20A28F7D3012914D010E027
:10062000FDF76EFE00210846225C2B5C9A4205D144
:10063000401CC0B20A28F7D3012902D101200DB015
:10064000F0BD00200DB0F0BD06AC6D46FDF758FEC4
:1006500000210846225C2B5C9A42EFD1401CC0B2BC
:100660000A28F7D30129ECD1E8E7F8B5FDF752FEE7
:100670000090FDF747FE0546FDF742FE04460026C2
:10068000FDF7A7FE002806D1287B022803D0032807
:1006900001D0052826D1FFF733FF0646012821D1D6
:1006A0002035687A002100281CD9C420009A4843CC
:1006B0008018C122125C022A01D0032A0DD1024601
:1006C000803257798388BF003F19203FBB83C3889E
:1006D0005079800000192038C383491C687AC9B258
:1006E0008842E2D8203426723046F8BDF0B585B095
:1006F000FDF708FE0446FDF714FEFDF70BFE04901F
:10070000FDF719FE0390FDF7FBFD0220205E082196
:10071000401002908948002500686030415E0191D8
:10072000807A0090FDF755FE002806D1207B022834
:1007300003D0032801D0052800D10125214620310E
:100740008C46497A0020002952D90027C421049AF6
:1007500041438A188621895CC4235943039BC918E5
:10076000C1239B5C022B02D0032B20D03AE0114620
:10077000A0314F7102230226D35EA65FB3420CD193
:10078000928AA688B24208D1012D02D1019A9342E1
:1007900006DB0F710222CA7124E0029A934202DD45
:1007A00001220A71F7E7009A0A710122F3E7A031EA
:1007B000CB79A032D3714B79537109791171D17909
:1007C000012902D002290CD00CE05179491CC9B290
:1007D00051711379994205D30221D1711179517167
:1007E00000E0D7716146401C497AC0B28142ADD861
:1007F00005B0F0BD70B5FDF785FD0546FDF78AFD36
:1008000006462035687A0024002811D9C4206043A8
:100810008119BC20405C012805D18031487900282D
:1008200001D000F0F5FE641C687AE4B2A042EDD875
:10083000002070BDF8B5FDF765FD0446FDF76AFDC3
:100840002034627A0021002A17D903250026C42209
:100850004A4313181A46A032177F012F08D1C0331C
:100860005F78022F00D15D70D379022B00D1D67151
:10087000491C627AC9B28A42E9D80020F8BD70B535
:10088000FDF774FDFDF778FD00F0D5FEFDF73AFDAC
:100890000546FDF73FFD06462035687A002400280E
:1008A00011D9C42060438119BC20405C012805D1C6
:1008B00080314879002801D000F0AAFE641C687AD3
:1008C000E4B2A042EDD8FFF7B5FF70BDF0B587B038
:1008D0000E460446FDF71EFD0490FDF713FD074686
:1008E000002001960090FDF72FFD0546FDF730FD35
:1008F00020370290787A03900020864603980028DB
:100900007ED90298401E06900298801E059070467F
:10091000C421049A414388188446A030007F0128EE
:100920006FD160464078525C002809D00699884211
:1009300008D10599C9B226E0FFFFFFFFB00A0020E9
:10094000012120E0411E0091431C1F4669436F4373
:100950008918BF1849007F00615EE75FB94202DB7A
:100960000099C9B201E0D9B2009B1B06DB0DF75E0E
:100970004B000097F35E9F4205DDFF1A01D5009FF3
:10098000DF1B052F60DC03460F466B436F439B184C
:10099000BF185B007F00E35AE75B4900DB1B1FB217
:1009A00043000198C35A405A181A00B2142F00DAB3
:1009B0000027142800DA00203946014302D04743BB
:1009C000002F41DD0020009060466146C07A497BDF
:1009D00081420ED303466B439B185B00E35E192BE9
:1009E00003DD4300F35E0A2B2EDB401C80B2814204
:1009F000F0D26046C07A6146401E40B2497B01E0B9
:100A00002DE024E0491C49B2002800DA0020029BB6
:100A1000994200DB591E4FB20146694389184900CB
:100A2000635E1D21C9438B4203DA4000305E0A2811
:100A30000ADB3846684380184000205E884206DAA8
:100A40007800305E0A2802DA012007B0F0BD704657
:100A5000401C80B286460398864500D257E700982E
:100A600007B0F0BD10B5FFF700FE040002D0FFF79D
:100A700006FF01E0FFF73AFE204610BD7047F1B5D2
:100A80008CB0FDF73FFC0446FDF744FC0990FDF7F0
:100A900037FC0C99002500295BD920300890CB4801
:100AA000203406940790C4200999684344182046CE
:100AB000C0300A908178012901D0022944D127460B
:100AC000A03738886A461082798891820391089904
:100AD000097A002901D0401C1082BD48128A06689C
:100AE000B08A318A504302F054FA6A461082F08A82
:100AF000039A718A504302F04CFA6A46908205A923
:100B000004A8F9F71DFDF87F01282AD000208034C1
:100B100061796A4651700A9989781170D071108A8A
:100B20005080908A90802078907160781072A078C0
:100B3000507262790799012050540698C07B0128B1
:100B400002D06846F6F712F96D1C0C98EDB285429A
:100B5000A9D300249F4E25460327305D012802D0EB
:100B60000DE03020D3E7601C694648700F70CD71EE
:100B70004D808D808D7135556846F6F7F7F8641C09
:100B8000E4B20A2CE9D30DB0F0BDF0B583B0FDF7A7
:100B9000DFFB8F4800684030417E0191057EFDF704
:100BA000B1FB0446FDF7B6FB0090FDF7C4FB203413
:100BB0008446617A0020002950D9C421009A41431B
:100BC0008A1816468036B179C42359436346CB1838
:100BD000BC21895C01293CD11146C0310F78012F1D
:100BE00004D0032F02D0022F24D032E03679012E18
:100BF0001ED0C126F65C012E1AD0022E06D0032E7E
:100C000004D0042E05D0052E03D022E003224A7022
:100C10001FE05E269E5F019B5E275E43BB5E6427EE
:100C20007B439E4215DC6026965F6E439E4210DC3D
:100C30000222ECE73279012A12D0C0335A78012A15
:100C40000ED0022A0ED0032A0CD0042A0CD0052A7A
:100C50000AD0401C617AC0B28142AED803B0F0BD68
:100C60000122D4E70422D2E70522D0E7F8B50D46E9
:100C70000446FDF745FB2034617A0023002920D982
:100C8000014620310226C420584340190246C03292
:100C90005778022F01D0032F0ED1A030C079012840
:100CA00004D0022804D0002805D005E003200AE083
:100CB000087A002806D096705B1C607ADBB29842F6
:100CC000E1D8F8BD01209070F6E7F3B587B00021B8
:100CD00000910446019102910391049105910A212A
:100CE0003C4802F044F92034607A002100281ED9E3
:100CF000394E02AF6E440337C420089A4843821825
:100D0000104680304379002B0CD0BC25AD5C012D02
:100D100008D19D55C0325278052A01D0042A01D14C
:100D20004079C555491C607AC9B28842E4D800258B
:100D30002A4E2F46E07B01280CD06846405D0128F2
:100D400003D02748405D012804D003A8405D012856
:100D500008D00EE0681CC0B200F075FC705D012880
:100D600003D006E0705D012803D11A4977550120B0
:100D700048556D1CEDB20A2DDCD30A22694618488D
:100D800002F08FF809B0F0BD10B5FFF7FEFEFFF7D7
:100D90006CFC040002D0FFF772FD01E0FFF7A6FC37
:100DA000204610BD70B5FDF7ADFA0446FDF7B2FA66
:100DB000054601462046FFF788FF29462046FFF7F3
:100DC00055FF0D20FFF75BFE70BD0000976B002004
:100DD000B00A00208E6B0020FFFFFFFF986B002001
:100DE000846B0020F0B5B5B00D460446FDF78AFAD5
:100DF0000290FDF78FFAC4214C432118C42203A8A6
:100E0000EFF70CFA20A8867AC07A864200D8064608
:100E100020A80089219F0190474368460E21415E2A
:100E20003846009102F0A7F804B2009801994043B7
:100E300002F0AFF802B2FF4839B200688030437860
:100E4000B34227D3C688219BB34223D20423C35E77
:100E50008B421FDD02992031897B012912D0C37A90
:100E6000012911D0C57B9C422FDDAC422DDA01292E
:100E70000CD0437A01290BD0407B9A4225DD824277
:100E800019DB22E0837AEBE7857BECE7037AF1E775
:100E9000007BF2E7002D11D0817C002D10D01422B0
:100EA000825E219B8B4210D993420ED2002D0AD034
:100EB000007C844209DD032035B0F0BDC17CECE745
:100EC0001622825EEDE7407CF3E7022035B0F0BDEC
:100ED000F3B585B00D460026FDF714FAFDF721FAAB
:100EE0000390FDF717FA0446FDF725FA0746FDF7CC
:100EF0002BFA0090FDF72CFA01900599C42041438C
:100F00000C19224680329179039B4143C819029003
:100F100020339B7A02279E46E75F1423EB5E2078FE
:100F20006178BC469F4205DC5C231F5F1623EB5EA5
:100F30009F4200DD012612790023022A07D1029A7E
:100F4000C0325278022A01D0032A00D10123002E98
:100F50007DD100283DD000293BD0009A521E9042FE
:100F600037DA019A521E914233DA6C20005B6988AD
:100F7000884219D9A08A6978884215D35C20015F1C
:100F80001A20285E81420FDD606EA96888421ED259
:100F90006968884208D9E868A16E884217D8704607
:100FA000012814D8012B12D0BD20005D01280BD1DF
:100FB000606E2969884207D91821695E8C4503DD76
:100FC000FDF707FA002802D00226002544E001269A
:100FD000FBE76C26365B6F880022BE421AD9A68AD0
:100FE0006F78BE4216D35E26375F1C26AE5FB742CF
:100FF00010DD666EAF68BE420BD26F68BE4209D983
:10100000EE68A76EBE4204D87646012E01D8012BA9
:1010100000D10122002905D100280FD0009B5B1EC2
:1010200098420BD0019B5B1E994201D1002805D04C
:1010300099420DD10099491E884209D1002A04D154
:101040001E21695E8C4500DD0122022501E015E0CC
:101050000125012A05D00226FDF7D0F9012802D08A
:101060000CE00126F8E7022E08D16034A08B04289A
:1010700004D329460598FFF7B5FE0646304607B06B
:10108000F0BDF7B582B016460C46FDF754F905469B
:10109000FDF740F9C4214C43241827468037B8791E
:1010A00048434519FDF73DF90090FDF72BF921461E
:1010B00000226031CA74029A022A0AD0012A50D052
:1010C000032A6FD1C035697804296DD005296BD00A
:1010D0006FE03A79012A67D0022A65D1027D012AA0
:1010E00003D1C022525D012A56D02A46C03213785D
:1010F000032B0AD05278012A56D0052A54D0042A4C
:1011000052D03A7C002A04D007E0898B042950D2BF
:101110004AE09022525D002A0BD05E212022695EB7
:10112000B25E51435E22135F6422534399423BDC1B
:1011300032E05E232022EB5EB25E5E2553432A5FDF
:1011400064256A4393422FDC0023CB5E2221715E2B
:101150004B43934220DD00992031897A032923D320
:101160001AE03A79022A17D1C122525D042A01D02D
:10117000052A11D15E232422EB5EB25E5E25534325
:101180002A5F64256A4393420EDC0023CB5E26214E
:10119000715E4B43934207DC0121C0342170002172
:1011A0002030817305B0F0BD0220C034207005B03E
:1011B000F0BD0321C034217001212030817305B0BE
:1011C000F0BDF0B58BB00026FDF79CF80746FDF7A3
:1011D000A1F80A9017486A460068203740308179A4
:1011E000517041795180417A0191017A029141898E
:1011F000039101795183C189049181891183418AC5
:101200009183018AD183017D1170817D1184417D9B
:101210005184417E9184017ED184418891820088ED
:10122000D082787A002400281CD9C4200A9960430F
:10123000451801E0B00A0020BC20405D01280CD117
:1012400069462046FFF744FE6A462146FFF719FF2C
:101250006035A87C012800D10126641C787AE4B2AC
:10126000A042E2D830460BB0F0BDF3B58DB00C46CD
:10127000FDF748F80646FDF74DF80390FDF75BF8DB
:1012800008900220305E40100B90304620300290D3
:10129000457AFDF759F80190FDF75AF80746002006
:1012A0000490FDF796F8002804D0307B022801D185
:1012B000012004900222002C0BD00020002D7DD9AB
:1012C000C421039B4143C918BC235B5C012B6FD035
:1012D00070E000242646002D65D97F1E0797C420A4
:1012E0000399704341180B4680339879C4225043C8
:1012F000089A82180846A0300690007F002808D07F
:101300000846C03005900078022802D0012803D09A
:1013100045E0641CE4B242E01879012803D0C032F1
:10132000507801283BD1012D39D90498012836D1B4
:101330000220085E0B9A904231DD4A78019B1746E5
:10134000521E009209785A43521812B20A927F1C18
:101350001A467A43511809B209910A2101F019FE7F
:10136000009A002100B2002A06DB0A9A53000D9A67
:10137000D25E824200DC0121079A974205DC099A7D
:1013800053000D9AD25E824201DD012907D10599F1
:101390000220087000200699641C0877E4B2761CCD
:1013A000F6B2AE429BD3281BC0B209E006E0FFE7CD
:1013B000C0310A70401CC0B2A84281D300202C4624
:1013C000029988720298047300200FB0F0BD70B5C6
:1013D0000646FCF797FF0446FCF79CFF0546FDF721
:1013E00003F8002814D02034607A0021002811D995
:1013F0000122C42048434019BC231B5C012B01D1AE
:10140000C0300270491C607AC9B28842F1D801E04C
:10141000FFF7D7FE00213046FFF727FF70BD000021
:10142000F8B50446FCF76EFF0546FCF77AFF064662
:10143000FCF766FF07462046FCF7B4FF00F0FBF818
:101440002846FCF7A4FF3046FCF7A1FF3846FCF71E
:10145000A4FFF8BD7047F8B50446FCF779FF0746CE
:10146000FCF772FF0546FCF74DFF267AA27A217B36
:10147000A37B0024964201D8994209D96D1E84713C
:1014800005727F1EC471014647722031CC7207E09D
:1014900086710272C1710122014643722031CA7203
:1014A000046104730C724C728C720021FF238A0059
:1014B00012189375D375491C1376C9B25376042953
:1014C000F5D34475F8BD70B50446FCF73DFF002523
:1014D0001423002C10D0002100280DD94A00A25E50
:1014E000002A00DA524292B29A4201DD022503E05C
:1014F000491CC9B28142F1D3284670BDFFB583B003
:101500000C980C46C7B2FCF7FDFE0546FCF709FF38
:101510000090FCF7F5FE0026019002960398FCF778
:1015200052FF2846FCF733FF0398C0073CD0E06920
:10153000FFF791FF002F21D10098007B002804D0F5
:1015400000982030807A002812D16669FCF7FCFEF2
:10155000002714230246002E10D00020002A0DD9A7
:101560004100715E002900DA494289B2994201DDE9
:10157000022703E0401CC0B29042F1D32F732088B1
:1015800068800D982875009820352030807BA873DE
:101590000020E873019920314872A169A068FCF726
:1015A00037FF0646FCF706FF17480021066041603A
:1015B000029981600599002E086000DC0026304603
:1015C00007B0F0BD0120704710B5FCF773FC012097
:1015D00010BD0120704710B5FCF76CFC012010BD58
:1015E0000A480078704709490870704710B50749E4
:1015F0000978890705D5FCF714FE002801D00120E1
:1016000010BD002010BD0000A46B0020B40A002013
:10161000FE49802208182038C17F1143C1777047E6
:1016200010B5FCF77EFE2030C07A002801D00020E3
:1016300010BD012010BDF54A0020411C1154C8B254
:101640000A28FAD37047F14908182038C17F4906A3
:10165000490EC177704710B40020EC4A0146535C34
:10166000DB0905D0491CC9B20A29F8D310BC704760
:10167000535C80241807000F2343535410BC704759
:10168000FFB581B00024410007461D462646621E74
:101690000091029801F046FC621E0099039801F047
:1016A00041FC002F35DD0020C043A1006850002020
:1016B000002F14DD224634235A430A9BD218944645
:1016C0006B589E465B1C10D0634682009A58724548
:1016D00001DA6A500646401C00B2B842F0DB0399BA
:1016E0007000095E491C06D00FE062468300D258A4
:1016F0006A500646EFE7029962008E5203990C5237
:101700000B980B990088401C0880641C24B2BC42D2
:10171000C9DB05B0F0BD814201DA0020704701202D
:101720007047F8B504460020079F069E1080088089
:1017300015466100184601F01AFC0020002C07DD58
:101740004100715E491C04D0401C00B2A042F7DB8E
:10175000F8BD0021695E4A00491C2980B852F8BDD5
:10176000FFB582B000230E9E0D9D8E46002924DD1C
:10177000342141438918019181000091059F009A0D
:101780009C00BA580B9F01993F590959D2198A1ADE
:101790009F498A4200DD0A460C995F00C95B002917
:1017A00007D129598C46491C01D0944501DD2A51A5
:1017B000F0535B1C1BB27345E0DB06B0F0BDF0B428
:1017C00000240746E44300238C462046002F17DD03
:1017D0009D0051598E4EB14200DD5651590066466A
:1017E000715A002908D15159002905DB651C01D027
:1017F000A14201DA0C4618465B1C1BB2BB42E7DB78
:10180000F0BC7047F0B40024059E069D9446002964
:101810000CDD62006746BA5A002A03D0A700DA59E5
:10182000121ADA51641C24B28C42F2DB0022002925
:101830000CDD049B54001B5B002B03D09300F45879
:101840002418F450521C12B28A42F2DB0022002902
:101850000CDD049B54001B5B002B03D19300EC5860
:10186000241AEC50521C12B28A42F2DBF0BC7047D0
:10187000F0B5964646009A5F82B09446521C4D00E1
:10188000089F079C002A0CD0995360536246500071
:1018900001970094385E72466146FFF7E9FF02B097
:1018A000F0BD9953605302B0F0BDFFB5044600206F
:1018B00085B0451E03900290002C06DD820006993B
:1018C000401C00B28D50A042F8DB61002A46079808
:1018D00001F028FB08980021415E0E980022825EEC
:1018E00091427DDA089A0020105E0F994300401C57
:1018F0001080CA5E15980190169804901298039073
:101900000798149D84460020069B002C26DD114676
:10191000342671434919029191000091029D810082
:101920006E58019F009D7F59049D6D587D19751B50
:10193000374EB54200DD3546039F4600BF5B002FA2
:1019400008D15F58BE467F1C01D0AE4502DD5D5018
:1019500061468A53401C00B2A042DFDB129800218E
:101960008446C9430020069A0B46002C17DD8500EB
:101970005759274EB74200DD565146006746BE5BB9
:10198000002E08D15559002D05DB4E1C01D08D428B
:1019900001DA29460346401C00B2A042E7DB02936D
:1019A00007995800095E039111998646085E401C0C
:1019B00059D00698990043580F980090129800212A
:1019C0008446069F159A1698002C0EDD009D4E0049
:1019D000AD5B002D03D08D005659F61A565100E02C
:1019E00041E0491C09B2A142F0DB0021002C0CDDD2
:1019F0004A006546AA5A002A03D08A008558ED1885
:101A00008550491C09B2A142F2DB03E0B06B002013
:101A100000E1F5050020002C0CDD42006146895AEA
:101A2000002903D181007A58D21A7A50401C00B2A2
:101A3000A042F2DB119970460A5A0E9B0020185EF4
:101A40000E994300401C0F9D0880EA52129A012013
:101A50007146505208980021415E0E980022825E25
:101A6000914200DA3EE707991198019100902246D1
:101A7000109B02990398FFF7FBFE139813990088B7
:101A8000401C088009B0F0BDFFB58BB0199E1A99B3
:101A9000169F009100B20196394604461B9B179A87
:101AA000FFF7EEFD0021715EA14232DA600009907D
:101AB000149D15980090189A0E990020288008808F
:101AC0001046099901F053FA0020002C07DD41006F
:101AD000795E491C1FD0401C00B2A042F7DB1A9867
:101AE00006901C9A1B9908920791189804900596E5
:101AF0001799159A03911498029701920090204625
:101B00000E9B0D9A0C99FFF7D0FE0020305EA0428C
:101B1000CEDB0FB0F0BD0021695E009A4B00491C7E
:101B20002980D052DBE7F7B5D0B00AA80F460C9059
:101B300000206946888408858885164609AD0BAC67
:101B400034210DA801F015FA0DA81AA907910890E3
:101B5000069605953BA842A934AA029700940192E3
:101B60000391049049AA27A90C9B5098FFF78CFF7A
:101B7000002053B0F0BDFFB5002086468446002A01
:101B80004CD0002B4AD0934201D9184600E01046B1
:101B90000022002842D9C421009C51430919BC24C9
:101BA000645C0023002C29D004240C5FA646062484
:101BB0000C5FA446002100282CD93424099D5443ED
:101BC0006419012B1CD0C4250E46019F6E43F719E2
:101BD000BC26F65D002E13D0062504267D5FBE5F71
:101BE0002F467546761B65467F1B76437F43F61965
:101BF000FD4FBE4208DD8E00A75107E00123D9E763
:101C0000F94E8F00E65101E08F00E651491CC9B240
