:100000000110070012000000401B0000FF0000006C
:10001000020C03753FFF22FFFFFFFF0214977E05CE
:10002000900076E06F6007EFF0E4900079F09000C8
:1000300076E07001FE900079E004F0C39E50037FEB
:1000400000229000797405F07F012202166DE4FB16
:10005000EB25E025E0247AF8120232EB25E025E0DA
:100060002482F812024B0BBB02E622020F20BB01D6
:100070000689828A83E0225002E722BBFE02E32245
:1000800089828A83E49322EF8DF0A4A8F0CF8CF0CC
:10009000A428CE8DF0A42EFE22BC000BBE0029EFBA
:1000A0008DF084FFADF022E4CCF875F008EF2FFF5F
:1000B000EE33FEEC33FCEE9DEC984005FCEE9DFE2D
:1000C0000FD5F0E9E4CEFD22EDF8F5F0EE8420D274
:1000D0001CFEADF075F008EF2FFFED33FD400798E3
:1000E0005006D5F0F222C398FD0FD5F0EA22E88F32
:1000F000F0A4CC8BF0A42CFCE98EF0A42CFC8AF0AC
:10010000EDA42CFCEA8EF0A4CDA8F08BF0A42DCCAD
:100110003825F0FDE98FF0A42CCD35F0FCEB8EF006
:10012000A4FEA9F0EB8FF0A4CFC5F02ECD39FEE4EC
:100130003CFCEAA42DCE35F0FDE43CFC2275F00831
:10014000758200EF2FFFEE33FECD33CDCC33CCC51F
:100150008233C5829BED9AEC99E58298400CF5823A
:10016000EE9BFEED9AFDEC99FC0FD5F0D6E4CEFBAC
:10017000E4CDFAE4CCF9A88222B800C1B90059BA9A
:10018000002DEC8BF084CFCECDFCE5F0CBF97818C8
:10019000EF2FFFEE33FEED33FDEC33FCEB33FB10C2
:1001A000D703994004EB99FB0FD8E5E4F9FA2278DC
:1001B00018EF2FFFEE33FEED33FDEC33FCC933C9EE
:1001C00010D7059BE99A4007EC9BFCE99AF90FD8F8
:1001D000E0E4C9FAE4CCFB2275F010EF2FFFEE3318
:1001E000FEED33FDCC33CCC833C810D7079BEC9A57
:1001F000E899400AED9BFDEC9AFCE899F80FD5F0E0
:10020000DAE4CDFBE4CCFAE4C8F922EB9FF5F0EA9E
:100210009E42F0E99D42F0E89C45F022E8600FEC38
:10022000C313FCED13FDEE13FEEF13FFD8F122E82C
:10023000600FEFC333FFEE33FEED33FDEC33FCD83C
:10024000F122E6FC08E6FD08E6FE08E6FF22E6FBF2
:1002500008E6F908E6FA08E6CBF822ECF608EDF62F
:1002600008EEF608EFF622ECF208EDF208EEF208DE
:10027000EFF222D083D082E493F608740193F6085B
:10028000740293F608740393F6740473D083D082D7
:10029000E493F208740193F208740293F208740371
:1002A00093F27404738A838982E4738E328F33E409
:1002B000F535F536F537900089E0F536A3E0F537EA
:1002C000E4F534900077E07013900079E0B4050C09
:1002D000D3784DE2940018E29400401EE53425E006
:1002E0002444F8E4F208F2E53425E025E02438F867
:1002F00012027C000000000203B1E53425E0244531
:10030000F9E3700219E3701AE53425E02400F8E2FD
:10031000FE08E2FFE53425E02440F8EEF208EFF2B3
:100320008057E53425E02440F8E2FE08E2FFE5349A
:1003300025E02400F8E2FC08E2FD121A16D3EF953E
:1003400037EE95364033E53425E02400F8E2FE0828
:10035000E2FFE53425E02440F8EEF208EFF2E53460
:1003600025E02444F8E4F208F2E53425E025E02411
:1003700038F812027C00000000E53425E02400F883
:10038000E2FE08E2FFE53425E025E02438F8C0006D
:10039000E2FB08E2F908E2FA08E2CBF8E4FCFDEB44
:1003A0002FFFEA3EFEED39FDEC38FCD0001202577B
:1003B000E53425E02444F808E22401F218E2340090
:1003C000F20534E534C3940250030202B3E4F53479
:1003D000E53425E02445F9C3E3953319E39532402C
:1003E0000205350534E534B402E6E5356402600300
:1003F0000204AB74FF90008BF0A3F0E4A3F0A3F031
:10040000F534E53425E02444F8E2FE08E2FF4E70BE
:100410000302048EE4FCFDC004A905AA06AB07E5AF
:100420003425E025E02438F8E2FC08E2FD08E2FE8D
:1004300008E2FFD0001201698E388F39D390008C0A
:10044000E0953990008BE095384007E538F0A3E55A
:1004500039F0C390008EE0953990008DE0953850CA
:1004600007E538F0A3E539F0E53425E02404F8E5A4
:1004700038F208E539F2E53425E02444F8E4F208DE
:10048000F2E53425E025E02438F812027C00000073
:1004900000C2080534E534640260030203F29000F0
:1004A0008BE0FEA3E0FFA3E0FCA3E0FD121A16D34D
:1004B000EF9464EE9400400312161622E4F530E542
:1004C0003025E025E02482F8C000120232C0077413
:1004D000582530F8E6FFFBE4FAF9F8D0071200DE01
:1004E000D00012024BE53025E025E02482F8C00060
:1004F000120232780712020CD00012024BE53025AE
:10050000E025E02482F8120232EC4D4E4F6076E591
:100510003025E025E02472F8120232E53025E0258E
:10052000E02482F812023EC31201FB50037F032233
:10053000E53025E025E02472F812023EC000E530E7
:1005400025E025E02482F8120232D000C3EF9BF5AB
:1005500034EE9AF533ED99F532EC98F531E47FFFFE
:100560007EFFFDFCAB34AA33A932A831C31201FBD4
:1005700040037F0322E53025E02400F8E533F2084C
:10058000E534F28015E530C39402500BE53025E0E8
:100590002408F8E4F208F27F03220530E530640213
:1005A00060030204AFE4F530E53025E02404F8E20E
:1005B000FE08E2FFE53025E02400F8E2FC08E2FD59
:1005C000D39FEC9E401EE53025E02404F8E2FE08AF
:1005D000E2FFC3ED9FFFEC9EFEE48F388E37F536C9
:1005E000F5358009E4F538F537F536F535AF38AE31
:1005F00037AD36AC35780712021F8F388E378D36FF
:100600008C35900076E070447F03FEFDFCAB38AA89
:1006100037A936A8351200DEE53025E025E0242094
:10062000F8E2FB08E2F908E2FA08E2CBF8EB2FFF68
:10063000EA3EFEE93DFDE83CFC780212020CE530A2
:1006400025E025E02420F81202578033E53025E02C
:1006500025E02420F8E2FC08E2FD08E2FE08E2259D
:1006600038FFEE3537FEED3536FDEC3535FC7801DB
:1006700012020CE53025E025E02420F8120257E5AF
:100680003025E025E02420F8E2FC08E2FD08E2FE47
:1006900008E2FF780712020CE53025E02408F8EEA6
:1006A000F208EFF20530E530640260030205987F3E
:1006B0000722E4F533F532E53225E025E02438F869
:1006C00012027C000000000532E532B402E9121784
:1006D00052E4F532E53225E025E02438F8C000E2A6
:1006E000FC08E2FD08E2FE08E2FFE53225E025E035
:1006F000247AF812023EEF2BFFEE3AFEED39FDECC4
:1007000038FCD0001202570532E532B402C6053378
:10071000E533C3940540B7E4F532AF33E4FCFDFEA6
:10072000C004A905AA06AB07E53225E025E0243878
:10073000F8E2FC08E2FD08E2FE08E2FFD000120148
:10074000698F378E368D358C34AB37AA36A935A8EC
:1007500034C00074582532F8E6FFE4FCFDFED000FA
:100760001200DE8F378E368D358C34780712020CEE
:100770008F378E368D358C34E47FB87E0BFDFCAB25
:1007800037AA36A935A834D31201FB4030E5372407
:1007900048FFE53634F4FEE53534FFFDE53434FF3B
:1007A000FCE53225E025E02472F812024BE5322503
:1007B000E02400F8740BF20874B8F2801EE53225CC
:1007C000E025E02472F812026300000000E5322503
:1007D000E02400F8E536F208E537F2E53225E025B9
:1007E000E02438F812027C00000000E53225E02405
:1007F00044F8E4F208F2E532C394025033E53225BE
:10080000E02400F8E2FE08E2FFE53225E02404F8E7
:10081000EEF208EFF2E53225E02408F8E4F208F2FF
:10082000E53225E025E02420F812027C00000000DB
:100830000532E5326402600302070A2220CA03027D
:1008400009827847E67003020982E47851F6F530B0
:1008500074472530F8E6FF74262530F8A60774475C
:100860002530F8E4F60530E530B40AE47851E67056
:100870000320CA12E4F53074262530F8E4F605307A
:10088000E530B40AF222E52624E0602C24F0603042
:1008900024F0606024F0700302091824F070030251
:1008A000092024F070030209282460600302093142
:1008B000E4FF12197D0209317F0112197D0209310D
:1008C000E4F531E53125E024D9F582E43417F583E8
:1008D000E493FE740193FFE53175F008A42462F8F7
:1008E000A60608A6070531E531B402D77855E644D7
:1008F00010F6804DE4F531E53125E024C9F582E4B8
:100900003417F583E493FE740193FFE53175F00825
:10091000A42462F8A60608A6070531E531B402D77B
:100920007855E654EFF680197855E64401F68011C3
:100930007855E654FEF68009E4FF121A717857A63E
:1009400007E52654F064807049E52745286043E5B3
:1009500027FE7C00E42528FFEC3EFEC3EF940AEE60
:100960009400402EE526540FFDBD0F19E4F530E547
:100970003075F008A42462F8A60608A6070530E53D
:1009800030B402EB22ED75F008A42462F8A6060844
:10099000A6072285BA3853BA0F43BA10E4F532E5F8
:1009A0003225E025E0247AF81202630000000005F9
:1009B00032E532B402E975320575ABFF121931E444
:1009C000F533E53325E025E0247AF8C00012023241
:1009D000C004C005C006C007748A2533F8E675F068
:1009E00003A42430F582E4341AF583E493FB740104
:1009F00093FA740293F9120295A804A905AA06AB0A
:100A000007D007D006D005D004EF2BFFEE3AFEED5D
:100A100039FDEC38FCD00012024B0533E533C394AA
:100A200002409FE4F5AB121931E4F533E53325E0DC
:100A300025E0247AF8C000120232C004C005C006C6
:100A4000C007748A2533F8E675F003A42430F582D4
:100A5000E4341AF583E493FB740193FA740293F976
:100A6000120295A804A905AA06AB07D007D006D0A4
:100A700005D004C3EF9BFFEE9AFEED99FDEC98FCC8
:100A8000D00012024B0533E533C39402409E153269
:100A9000E53260030209A9E4F533E47537107536D1
:100AA00027F535F534AF37AE36AD35AC34780712AF
:100AB000021F8F378E368D358C34E53325E025E0E7
:100AC000247AF812023E1201698F378E368D358CEA
:100AD0003474582533F8A6070533E533B402BB85D3
:100AE00038BA22E4FD300420ED25E024D9F582E473
:100AF0003417F583E493FE740193FFED25E024336E
:100B0000F8A60608A607801EED25E024C9F582E4B4
:100B10003417F583E493FE740193FFED25E024334D
:100B2000F8A60608A6070DBD02BBE4FDED25E024EE
:100B30002CF8E2FE08E2FFED25E0240DF9D3E39F57
:100B400019E39E4016ED25E0240CF8E2FE08E2FFD2
:100B5000ED25E0242CF8EEF208EFF2ED25E0243349
:100B6000F8E6FE08E6FFEEC313FEEF13FFED25E007
:100B7000240DF9D3E39F19E39E5034ED25E024338F
:100B8000F8E6FE08E6FFED75F008A42462F8A60674
:100B900008A607ED25E02433F8E6FE08E625E0FF89
:100BA000EE33F8ED25E0242CC8F208EFF2803CED9E
:100BB00025E024E9F582E43417F583E493FE74011B
:100BC00093FFED25E0240DF9D3E39F19E39E401B2D
:100BD000ED25E0242CF9E3C313FE09E313FFED75C3
:100BE000F008A42462F8A60608A6070DED640260CA
:100BF00003020B1CE4FDED75F008A42462F8E6FE88
:100C000008E6FFED25E02430F8EEF208EFF20DBD26
:100C100002E422439F04E453C6DFE5C600B5C6F3F1
:100C200075830075820775FD0DE4E5FEF4FF75839D
:100C30000075820675FD0DE4E5FEB50704F59E809E
:100C400003759E0078100000D8FC53C6E043C60828
:100C500043C6807596077597057583007582047580
:100C6000FD0D85FE8F75830075820375FD0DE4E52E
:100C7000FEF4FF75830075820275FD0DE4E5FEB597
:100C80000704F595800375958375BE0E5392FE900B
:100C900001007F007E02E4F0A3DFFCDEFA78007F33
:100CA00000E4F208DFFC78FFE4F6D8FD75819502D8
:100CB0000CE0020000020E3DE493A3F8E493A3408D
:100CC00003F68001F208DFF48029E493A3F85407C7
:100CD000240CC8C333C4540F4420C8834004F456C2
:100CE000800146F6DFE4800B0102040810204080FA
:100CF0009015BBE47E019360BCA3FF543F30E5092F
:100D0000541FFEE493A360010ECF54C025E060A8F9
:100D100040B8E493A3FAE493A3F8E493A3C8C5828C
:100D2000C8CAC583CAF0A3C8C582C8CAC583CADFFA
:100D3000E9DEE780BE7532077D0774017E00A832C8
:100D4000088005C333CE33CED8F9FFACACECFBE45E
:100D5000EF5B7003D532E3ED601D74017E00A805E2
:100D6000088005C333CE33CED8F9FFACAEECFBE43C
:100D7000EF5B70031D80E0AF327401A807088002AA
:100D8000C333D8FCF5AC7401A805088002C333D87E
:100D9000FCFFF5AD8FAE53AACF85BA3B53BA0F43D4
:100DA000BA10E4F536F535F534F533121931E4F5BA
:100DB00032748A2532F8E675F003A42430F582E413
:100DC000341AF583E493740193FA740293F91202CE
:100DD000958F3A8E398D388C37AB36AA35A934A821
:100DE00033C31201FB500C853A36853935853834CA
:100DF0008537330532E532C3940240B5AF36AE35A0
:100E0000AD34AC33780212020CE5362FF536E535F9
:100E10003EF535E5343DF534E5333CF533AF36AEDC
:100E200035AD34FC781012020C8FB3AF36AE35AD51
:100E300034AC33780812020C8FB28536B143AA3035
:100E4000853BBA75AC0375ADC075AEC0221219DE14
:100E50007D01E4FF12178E7F0112197D7F011219A7
:100E6000C1121B2A121B1D121957121424121838F2
:100E70001218A1D2AF751C01E51C24FD601114608D
:100E80001924FE602614602A1460702407706F1203
:100E900016C3121330751C048064D2D8E51D70FC93
:100EA00012003E121A48751C0680531204AC8F1CA7
:100EB000804CD390007FE0940090007EE09400404E
:100EC0000CA3E024FFF090007EE034FFF0D3784DD7
:100ED000E2940018E29400400A08E224FFF218E2CB
:100EE00034FFF290007BE004F0700690007AE0049A
:100EF000F01212AE120FFE8F1C8003751C049000BE
:100F00008FE0B40124E47851F6FF121B2AE4F0F5D7
:100F100018F519000519E51970020518B42CF4E547
:100F200018B401EF7F01121B2A12082C020E68224E
:100F3000C0E0C0F0C083C082C0D075D008C2CF303E
:100F4000CD03020FF330CB4720CC447846A6CEE643
:100F5000FFC39480403075F003EFA42482F582E54E
:100F6000F03413F583E493FB740193FA7402938BCA
:100F7000238A24F5250525E5257002052414F91298
:100F8000005EF5CE80097846E62522F8E6F5CE30FB
:100F9000CC297846E6C394804015AB230525E5258A
:100FA000AA247002052414F912005EF5CE80507850
:100FB0004606E62522F8E6F5CE804420CB41AFCEAA
:100FC0007846E6FE7028BF10028034BF2002802FD2
:100FD000BF50087855E64401F68024BF6008785574
:100FE000E654FEF680197847A60F18068011EEC366
:100FF000940A50087846E62447F8A60F7846067803
:10100000517601D0D0D082D083D0F0D0E032E4F558
:101010003075310812118112170E1212231219069F
:10102000900077EFF012000EEF60577F0112186DFD
:10103000AD07AC06D390007FE0940090007EE09472
:1010400000400FED7802CEC313CE13D8F9FDAC06E5
:101050008027300811EDAE047803CEC313CE13D829
:10106000F9FDAC068013C37835E2940A18E29400C7
:101070005007ECC313FCED13FDAF05AE0412029B49
:101080008003AF3122900076E06034E4900082F07B
:10109000A3F0900081E004F07006900080E004F07E
:1010A0007F0512186DD3900081E09F900080E09E34
:1010B0004014E4FF12155FE4900078F07F0322E40F
:1010C000900080F0A3F0900076E0FF900078E06F51
:1010D000600B12155F900076E0900078F0AF31223F
:1010E000E4FFFEEE75F008A42462F8E6FC08E6FDD5
:1010F000EE25E02411F9C3E39D19E39C400D740132
:10110000A806088002C333D8FC42070EBE02D48072
:101110007DEEC394025077EE75F008A42462F8E6E1
:10112000FC08E6FDEE25E02411F9C3E39D19E39CDC
:10113000401DEE25E02415F9C3E3940A19E3940059
:10114000400D7401A806088002C333D8FC4207EEA4
:1011500075F008A42472F8E6FC08E6FDEE25E0240C
:1011600015F9C3E39D19E39C4021EE25E02411F914
:10117000C3E3940A19E394004011EE2402FD7401C4
:10118000A805088002C333D8FC42070E80838F3D38
:1011900022E4F535F536F532E53225E02408F8E2AB
:1011A000F53308E2F534C39536FFE5339535FEE4B3
:1011B000FCFD7B64FAF9F81200DEC006C007E532D8
:1011C00025E0244EF582E43400F583E0FEA3E0FF41
:1011D000FBAA06E4F9F8D007D006120169E532252A
:1011E000E02410F8EEF208EFF2AE33AF34E4FCFD89
:1011F0007B64FAF9F81200DEC006C007E53225E08C
:10120000244EF582E43400F583E0FEA3E0FFFBAA60
:1012100006E4F9F8D007D006120169E53225E0248A
:101220000CF8EEF208EFF20532E5326402600302D8
:10123000118822E4F532E53225E02404F8E2FE08C4
:10124000E2FFE53225E02400F8E2FC08E2FDC39F5E
:10125000EC9E5048E53225E02405F8C3E29DF534C4
:1012600018E29CF533FEAF34E4FCFD7B64FAF9F838
:101270001200DEC006C007E53225E0244EF582E408
:101280003400F583E0FEA3E0FFFBAA06E4F9F8D002
:1012900007D0061201698E358F368009E4F533F5E3
:1012A00034F535F536D3E536940AE5359400400239
:1012B000D2080532E5326402600302122622E4F508
:1012C00030E53075F008A42464FFE53025E0240CF7
:1012D000F8E2FC08E2FD121A5DE53075F008A4247E
:1012E00066FFE53025E02408F8E2FC08E2FD121A6A
:1012F0005DE53075F008A42468FBC003E53025E007
:101300002400F8E2FE08E2FFE4FCFDE53025E025DC
:10131000E02472F812023EEF2BFFEE3AFEED39FDAB
:10132000EC38FC780412020CAD07AC06D007121A98
:101330005D0530E530C3940240877855E6F52022FC
:10134000E4F530F5311219FBE4900076F090007866
:10135000F0A3F0900080F0A3F0A3F0A3F09000922F
:10136000F0A3F0784CF208F2F521FFEF25E0244ECF
:10137000F582E43400F583E0FCA3E0FD90008AE010
:101380002DF0900089E03CF00FBF02DF900089E073
:10139000FEA3E0FF7C007D0A120089900089EEF038
:1013A000A3EFF0120D251209831206A27F0A12186C
:1013B0006D90007EEEF0A3EFF0121A48227DFF80C0
:1013C00070786AE6FE08E6FFC37813E29F18E29E93
:1013D0004010787AE6FE08E6FF7817E29F18E29E52
:1013E000504F780CE2FE08E2FF7809E22FF534183E
:1013F000E23EF533780EE2FE08E2FF780BE22FFFC3
:1014000018E23EAB07FAEB25E0FFEA33FEC3E53412
:101410009FE5339E50035305FAE53425E0FFE5339D
:1014200033FEC3EB9FEA9E50085305F58003530536
:10143000F08D3E22E4F5307852F6FF121A718F30AB
:10144000E530BFFF06785376078004785376FF783F
:10145000547612E408F6785776FFFFEF25E024C9AA
:10146000F582E43417F583E493FC740193FDEF7582
:10147000F008A42462F8A60408A605EF75F008A4F5
:101480002464F8E4F608F6EF75F008A42466F8E49E
:10149000F608F6EF75F008A42468F8E4F608F60FED
:1014A000BF02B875225222C0E0C0F0C083C082C023
:1014B000D075D000C000C004C005C006C007C28DF2
:1014C000758CD8758AF0051BE51B7002051AAE1ADB
:1014D000FF7C007D64120089ED4C702190007AE061
:1014E000FEA3E0FFD3940AEE94004006A3EEF0A31F
:1014F000EFF090007AE4F0A3F0F51AF51BD007D0D6
:1015000006D005D004D000D0D0D082D083D0F0D087
:10151000E032FE0000FE0008FE0004FE000CFE00AB
:1015200008FE0010FE000CFE0014FE0010FE001865
:1015300000007A00008200008A000092FE0000FE97
:101540000008FE0028FE002001007A00003D010096
:101550007601008D01007801008FFE004C010066CD
:1015600001006E010077FE002CFE0030FE0044906A
:10157000008FE0705504F0E4FEFDFC7401A804083F
:101580008002C333D8FCF9FB900078E05BB503130D
:10159000EC2404FA7401A802088002C333D8FC4288
:1015A000068003E94206EF5BB50305E942058011B9
:1015B000EC2404FB7401A803088002C333D8FC4266
:1015C000050CBC02B6EE5D7852F622088A0102FFD5
:1015D000FFFFFFFFFF0492000000006046004E0284
:1015E0006002BD0064006400640064006400640183
:1015F00002040805060708000000000000000000C3
:1016000000000000000000000000000000000000DA
:1016100000000000000000000000000000000000CA
:10162000000000000000E4FBEB25E025E02482F848
:10163000120232EF2448FFEE34F4FEED34FFFDECED
:1016400034FFFCEB25E025E02472F812024BEB2579
:10165000E02400F8740BF20874B8F2EBC394025063
:1016600017EB25E02408F8E4F208F2EB25E0240467
:10167000F8740BF20874B8F20BBB02AC22C0E0C0E5
:10168000F0C083C082C0D075D01053B9FD753C0046
:10169000748A253CF8E675F003A42430F582E4341E
:1016A0001AF583E493740193FA740293F912029584
:1016B000E53C25E025E0247AF812024B053CE53CA8
:1016C000C3940240CB751D00D0D0D082D083D0F01F
:1016D000D0E032E4FFFE748A2EF8E69017F99342C8
:1016E000070EBE02F1EF42D4EF42F4EF42E4EFF412
:1016F00052DC75AA3B75BA0C43BA4043B92053B9C2
:10170000BF8FB4E4F5B375B24E75B12075BBFF75EC
:10171000A950F5AB75AC0375ADC075AEC02278109D
:10172000E2FE08E2FF8E32F5337D01ED25E0241064
:10173000F8E2FA08E2FBC39533EA953250048A32A4
:101740008B33D3EB9FEA9E4004AE02AF030DBD0284
:10175000DA7836E532F208E533F27834EEF208EF63
:10176000F222121931E4F538748A2538F8E675F05A
:1017700003A42430F582E4341AF583E493740193CE
:10178000FA740293F9120295E53825E025E0247AEF
:10179000F812024B0538E538C3940240CB22E4FE30
:1017A0007C02ECC39402500E748A2CF8E69017F970
:1017B0009342060C80ECEF6005EE42D48004EEF418
:1017C00052D4EEF4FF52F4EE42E4ED6005EE42EC4A
:1017D0008003EF52ECEF52DC220032003200320084
:1017E0003200320032003200320032003200320069
:1017F00032003200320032003200640064003200F5
:10180000320032003200320032010204081020405F
:101810008049E4FFFEEE75F008A42463F8E624FB9B
:10182000FD18E634FFFCEE25E0240DF9C3E39D1915
:10183000E39C400D7401A806088002C333D8FC4223
:10184000070EBE02D08F40227E007F66E4FDED25AC
:10185000E024A1F582E43419F583E493F4601DEDEE
:1018600025E024A2F582E43419F583E493FCEF2DFE
:10187000F582E43EF583ECF00DBD10D22275320006
:101880007533667B017A00BFFF057F017E0022E58C
:10189000332FF582E43532F583E07A00FB90007C4B
:1018A000E0FCA3E0FDAF037E00120077AA06AB07C1
:1018B0002243F80875CD4053CC7F43CC4043CC2025
:1018C00043CC1043CC0453CCFD43CB0243CB015358
:1018D000CBBF43E80853E5FC43E30243F5034390E1
:1018E0000343ED0322A907E4FDFC74017E00A80474
:1018F000088005C333CE33CED8F9FFE9FBE4EF5BB4
:10190000600D7401A804088002C333D8FC42050CA2
:10191000BC02D7AF0522120AD31210D01213AD1297
:101920000003121802900076E0700D853D32E53E0E
:101930005232E53F52328003854032AF321218D521
:101940002275BF0F00000000000000000000000032
:10195000000000000000D2D853B9FD43B901E5B939
:1019600030E1FBE4F5BF22438901C28DD2A953B80F
:10197000FDE4F51AF51B90007AF0A3F0A3F0A37430
:1019800064F0758CD8758AF0D28CD2AF22E4FE7DDB
:1019900002EDC39402500E748A2DF8E69017F99365
:1019A00042060D80ECEF6004EE428022EEF452809D
:1019B00022000201010201030104050506060607D3
:1019C00002080A09020A020B280C010D030E01FF8E
:1019D00001EF600543D504800353D5FB53F5FB535A
:1019E000E5FB43E30443ED04E490008FF022E4F5CB
:1019F000E3439F10439F02FF0FBFFFFC539FEF7510
:101A0000BE0EE4F5BFF5B97592762253BAFEE5B97C
:101A100020E004E51D6005E5B930E1FBE4F5BF53C6
:101A2000B9FE53B9FD22AB07AA06D3EB9DEA9C4051
:101A300007EB9DFFEA9CFE22C3ED9BFFEC9AFE2282
:101A4000FF1A85FF1A98FF1AABFF1ABEFF1AD1FFC3
:101A50001AE4FF1AF7FF1B0A75BF0F43B92053B9E9
:101A6000FD43BA01751D0143B901D2D822AB07AFBE
:101A700004AE05C2AFA803A607E804F8A606D2AFD5
:101A800022E4FFF582F5837420FEE493F42FFFA394
:101A9000EEB583F62253B9EF7893A6B708A6B60839
:101AA000A6B578921202322253B9EF7893A6EB08CA
:101AB000A6EA08A6E978921202322253B9EF789387
:101AC000A6F308A6F208A6F178921202322253B9C0
:101AD000EF7893A6FB08A6FA08A6F97892120232CC
:101AE0002243B9107893A6B708A6B608A6B578928F
:101AF0001202322243B9107893A6EB08A6EA08A690
:101B0000E978921202322243B9107893A6F308A61C
:101B1000F208A6F178921202322243B9107893A605
:101B2000FB08A6FA08A6F9789212023222C2DA530A
:101B3000D80F43D8D0D2D8D2D922EF6003D2922284
:101B4000C29222FFFFFFFFFFFFFFFFFFFFFFFFFF2C
:00000001FF
