:100000000110080000000000001E0000FF000000BA
:10001000020CE7FFFFFFFFFFFFFFFF02168F75BF18
:100020000F000000000000000000000000000000C1
:10003000000000D2D853B9FD43B901E5B930E1FB66
:10004000E4F5BF22FFFFFFFFFFFFFF021939E4FBCA
:10005000EB25E025E024A5F812025DEB25E025E084
:1000600024B5F81202760BBB04E622021039BB015C
:100070000689828A83E0225002E722BBFE02E32245
:1000800089828A83E49322EF8DF0A4A8F0CF8CF0CC
:10009000A428CE8DF0A42EFE22BC000BBE0029EFBA
:1000A0008DF084FFADF022E4CCF875F008EF2FFF5F
:1000B000EE33FEEC33FCEE9DEC984005FCEE9DFE2D
:1000C0000FD5F0E9E4CEFD22EDF8F5F0EE8420D274
:1000D0001CFEADF075F008EF2FFFED33FD400798E3
:1000E0005006D5F0F222C398FD0FD5F0EA22BB01ED
:1000F0000A89828A83E0F5F0A3E022500687F0099E
:10010000E71922BBFE07E3F5F009E3192289828A89
:1001100083E493F5F074019322E88FF0A4CC8BF084
:10012000A42CFCE98EF0A42CFC8AF0EDA42CFCEAB3
:100130008EF0A4CDA8F08BF0A42DCC3825F0FDE9ED
:100140008FF0A42CCD35F0FCEB8EF0A4FEA9F0EBE3
:100150008FF0A4CFC5F02ECD39FEE43CFCEAA42DEF
:10016000CE35F0FDE43CFC2275F008758200EF2FDF
:10017000FFEE33FECD33CDCC33CCC58233C5829B6D
:10018000ED9AEC99E58298400CF582EE9BFEED9A93
:10019000FDEC99FC0FD5F0D6E4CEFBE4CDFAE4CC2F
:1001A000F9A88222B800C1B90059BA002DEC8BF031
:1001B00084CFCECDFCE5F0CBF97818EF2FFFEE33EE
:1001C000FEED33FDEC33FCEB33FB10D70399400419
:1001D000EB99FB0FD8E5E4F9FA227818EF2FFFEE40
:1001E00033FEED33FDEC33FCC933C910D7059BE971
:1001F0009A4007EC9BFCE99AF90FD8E0E4C9FAE4CD
:10020000CCFB2275F010EF2FFFEE33FEED33FDCC6B
:1002100033CCC833C810D7079BEC9AE899400AED55
:100220009BFDEC9AFCE899F80FD5F0DAE4CDFBE4FD
:10023000CCFAE4C8F922EB9FF5F0EA9E42F0E99D82
:1002400042F0E89C45F022E8600FECC313FCED138C
:10025000FDEE13FEEF13FFD8F122E8600FEFC3337A
:10026000FFEE33FEED33FDEC33FCD8F122E6FC0863
:10027000E6FD08E6FE08E6FF22E6FB08E6F908E6EA
:10028000FA08E6CBF822ECF608EDF608EEF608EFF1
:10029000F622ECF208EDF208EEF208EFF222D0833B
:1002A000D082E493F608740193F608740293F6087A
:1002B000740393F6740473D083D082E493F20874C9
:1002C0000193F208740293F208740393F2740473B6
:1002D0008A838982E4738E4E8F4FE4F551F552F58F
:1002E000539000D2E0F552A3E0F553E4F55078685E
:1002F000E630E7389000C0E0B4FF139000C2E0B4ED
:10030000030CD37895E2940018E294004053E55032
:1003100025E02484F8E4F208F2E55025E025E02405
:100320006CF81202A700000000020418E525701303
:100330009000C2E0B4030CD37895E2940018E294E4
:1003400000401EE55025E02484F8E4F208F2E55070
:1003500025E025E0246CF81202A70000000002044A
:1003600018E55025E02485F9E3700219E3701AE5D9
:100370005025E02400F8E2FE08E2FFE55025E024E5
:100380007CF8EEF208EFF28057E55025E0247CF887
:10039000E2FE08E2FFE55025E02400F8E2FC08E276
:1003A000FD121CC8D3EF9553EE95524033E550250E
:1003B000E02400F8E2FE08E2FFE55025E0247CF8A6
:1003C000EEF208EFF2E55025E02484F8E4F208F2BA
:1003D000E55025E025E0246CF81202A7000000009B
:1003E000E55025E02400F8E2FE08E2FFE55025E0B4
:1003F00025E0246CF8C000E2FB08E2F908E2FA0804
:10040000E2CBF8E4FCFDEB2FFFEA3EFEED39FDEC1C
:1004100038FCD000120282E55025E02484F808E27E
:100420002401F218E23400F20550E550C394045060
:10043000030202DEE4F550E55025E02485F9C3E32C
:10044000954F19E3954E400205510550E550B4040F
:10045000E6E5516404600302051274FF9000D4F0D5
:10046000A3F0E4A3F0A3F0F550E55025E02484F8D0
:10047000E2FE08E2FF4E70030204F5E4FCFDC00456
:10048000A905AA06AB07E55025E025E0246CF8E2B3
:10049000FC08E2FD08E2FE08E2FFD0001201948EA3
:1004A000548F55D39000D5E095559000D4E09554E5
:1004B0004007E554F0A3E555F0C39000D7E095550B
:1004C0009000D6E095545007E554F0A3E555F0E5CB
:1004D0005025E02408F8E554F208E555F2E55025EA
:1004E000E02484F8E4F208F2E55025E025E0246CED
:1004F000F81202A700000000C2080550E55064048D
:1005000060030204599000D4E0FEA3E0FFA3E0FCE6
:10051000A3E0FD121CC8D3EF9464EE9400400312D4
:1005200017C722E4F54CE54C25E025E024B5F8C0DA
:100530000012025DC007746B254CF8E6FFFBE4FA7D
:10054000F9F8D007120109D000120276E54C25E037
:1005500025E024B5F8C00012025D7807120237D0FA
:1005600000120276E54C25E025E024B5F812025D84
:10057000EC4D4E4F6076E54C25E025E02495F812D1
:10058000025DE54C25E025E024B5F8120269C312AE
:10059000022650037F0322E54C25E025E02495F850
:1005A000120269C000E54C25E025E024B5F81202EE
:1005B0005DD000C3EF9BF550EE9AF54FED99F54EE7
:1005C000EC98F54DE47FFF7EFFFDFCAB50AA4FA9F0
:1005D0004EA84DC312022640037F0322E54C25E0BE
:1005E0002458F8E54FF208E550F28015E54CC39425
:1005F00004500BE54C25E02410F8E4F208F27F03E8
:1006000022054CE54C64046003020516E4F555F53B
:1006100056E4F54CE54C25E02459F8E22556FF1840
:10062000E23555F8E54C25E02400C8F208EFF2E584
:100630004C25E02408F8E2FE08E2FFE54C25E02422
:1006400000F8E2FC08E2FDD39FEC9E401EE54C253D
:10065000E02408F8E2FE08E2FFC3ED9FFFEC9EFEF7
:10066000E48F548E53F552F5518009E4F554F55357
:10067000F552F551E54CC394044003020732AF54E0
:10068000AE53AD52AC51780712024A8F548E538D3F
:10069000528C519000C0E0F46040E54C25E025E02C
:1006A0002440F8E2FC08E2FD08E2FE08E2FFE47BF9
:1006B00003FAF9F8120109EF2554FFEE3553FEED68
:1006C0003552FDEC3551FC7802120237E54C25E03D
:1006D00025E02440F81202828043E47F03FEFDFC03
:1006E000AB54AA53A952A851120109E54C25E025A3
:1006F000E02440F8E2FB08E2F908E2FA08E2CBF86D
:10070000EB2FFFEA3EFEE93DFDE83CFC78021202D9
:1007100037E54C25E025E02440F8120282E54C251F
:10072000E025E02440F8E2FC08E2FD08E2FE08E2F1
:10073000FF7807120237E54C25E02410F8EEF208A6
:10074000EFF2054CE54C640460030206047F0722C7
:10075000E4F54FF54EE54E25E025E0246CF8120255
:10076000A700000000054EE54EB404E9121A9EE40D
:10077000F54EE54E25E025E0246CF8C000E2FC08CB
:10078000E2FD08E2FE08E2FFE54E25E025E024A5B3
:10079000F8120269EF2BFFEE3AFEED39FDEC38FC62
:1007A000D000120282054EE54EB404C6054FE54F57
:1007B000C3940540B7E4F54EAF4FE4FCFDFEC00422
:1007C000A905AA06AB07E54E25E025E0246CF8E272
:1007D000FC08E2FD08E2FE08E2FFD0001201948F5F
:1007E000538E528D518C50AB53AA52A951A850C070
:1007F00000746B254EF8E6FFE4FCFDFED00012010C
:10080000098F538E528D518C5078071202378F53B7
:100810008E528D518C50E47FE87E03FDFCAB53AAD1
:1008200052A951A850D31202264030E5532418FF94
:10083000E55234FCFEE55134FFFDE55034FFFCE5A4
:100840004E25E025E02495F8120276E54E25E024B9
:1008500000F87403F20874E8F2802CE54E25E025D8
:10086000E02495F812028E00000000AE52AF53E56E
:100870004E25E02458F8EEF208EFF2E54E25E0248C
:1008800000F8EEF208EFF2E54E25E025E0246CF8E2
:100890001202A700000000E54E25E02484F8E4F2EF
:1008A00008F2E54EC394045033E54E25E02400F8E9
:1008B000E2FE08E2FFE54E25E02408F8EEF208EF3C
:1008C000F2E54E25E02410F8E4F208F2E54E25E0CA
:1008D00025E02440F81202A700000000054EE54E76
:1008E000640460030207A82220CA03020A4C785A53
:1008F000E67003020A4CE47864F6F54C745A254C11
:10090000F8E6FF7442254CF8A607745A254CF8E423
:10091000F6054CE54CB40AE47864E6700320CA128C
:10092000E4F54C7442254CF8E4F6054CE54CB40A69
:10093000F222E54224E0603024F0604824F0607B3D
:1009400024F070030209E224F070030209EA24F0A3
:1009500070030209F224E06017248060030209FB9F
:10096000E4FF121C540209FB7F01121C540209FB14
:100970007868E64480F67865E6640860030209FB5F
:10098000F60209FBE4F54CE54CC394025010E54C2B
:1009900075F008A42475F8760008760F800EE54CF3
:1009A00075F008A42475F87600087646054CE54CE9
:1009B000B404D47868E64410F68050E4F54CE54C75
:1009C000C394025010E54C75F008A42475F8760025
:1009D00008761E800EE54C75F008A42475F87600A4
:1009E0000876C8054CE54CB404D47868E654EFF6B4
:1009F00080197868E64401F680117868E654FEF6BE
:100A00008009E4FF121D23786AA607E54254F064CA
:100A1000807049E54345446043E543FE7C00E4259E
:100A200044FFEC3EFEC3EF940AEE9400402EE542F4
:100A3000540FFDBD0F19E4F54CE54C75F008A424E6
:100A400075F8A60608A607054CE54CB404EB22EDA4
:100A500075F008A42475F8A60608A6072285BA54DE
:100A600053BA0F43BA10E4F54EE54E25E025E024D5
:100A7000A5F812028E00000000054EE54EB404E910
:100A8000754E0575ABFF12000EE4F54FE54F25E0FE
:100A900025E024A5F8C00012025DC004C005C00610
:100AA000C00774C5254FF8E675F003A424E2F5826B
:100AB000E4341CF583E493FB740193FA740293F914
:100AC0001202C0A804A905AA06AB07D007D006D019
:100AD00005D004EF2BFFEE3AFEED39FDEC38FCD0EB
:100AE00000120276054FE54FC39404409FE4F5AB36
:100AF00012000EE4F54FE54F25E025E024A5F8C0EF
:100B00000012025DC004C005C006C00774C5254FB1
:100B1000F8E675F003A424E2F582E4341CF583E4DE
:100B200093FB740193FA740293F91202C0A804A90A
:100B300005AA06AB07D007D006D005D004C3EF9BAB
:100B4000FFEE9AFEED99FDEC98FCD00012027605BE
:100B50004FE54FC39404409E154EE54E6003020AD4
:100B600073E4F54FE4755310755227F551F550AF06
:100B700053AE52AD51AC50780712024A8F538E5289
:100B80008D518C50E54F25E025E024A5F81202692F
:100B90001201948F538E528D518C50746B254FF8E7
:100BA000A607054FE54FB404BB8554BA2230040EA6
:100BB000754F0075500F755100755246800C754F7A
:100BC0000075501E7551007552C8E4FDED25E024F6
:100BD00050F8E2FE08E2FFED25E02419F9D3E39F87
:100BE00019E39E4016ED25E02418F8E2FE08E2FF26
:100BF000ED25E02450F8EEF208EFF2EDC394025038
:100C00006AE54FC313FEE55013FFED25E02419F903
:100C1000D3E39F19E39E5023ED75F008A42475F8E3
:100C2000A64F08A650E55025E0FFE54F33F8ED2527
:100C3000E02450C8F208EFF2020CBFED25E02419C1
:100C4000F9D3E3946419E394005003020CBFED253B
:100C5000E02450F9E3C313FE09E313FFED75F00838
:100C6000A42475F8A60608A6078064E551C313FE00
:100C7000E55213FFED25E02419F9D3E39F19E39E14
:100C80005022ED75F008A42475F8A65108A652E587
:100C90005225E0FFE55133F8ED25E02450C8F20875
:100CA000EFF2802BED25E02419F9D3E3942C19E31E
:100CB0009401401BED25E02450F9E3C313FE09E342
:100CC00013FFED75F008A42475F8A60608A6070D15
:100CD000ED64046003020BBCE4FDED75F008A42490
:100CE00075F8E6FE08E6FFED25E02460F8EEF20870
:100CF000EFF20DBD04E422439F04E453C6DFE5C6D2
:100D000000B5C6F375830075820775FD0DE4E5FE39
:100D1000F4FF75830075820675FD0DE4E5FEB507E9
:100D200004F59E8003759E0078100000D8FC53C621
:100D3000E043C60843C68075960775971275830011
:100D400075820475FD0D85FE8F75830075820375B0
:100D5000FD0DE4E5FEF4FF75830075820275FD0D5F
:100D6000E4E5FEB50704F595800375958375BE0E21
:100D70005392FE9001007F007E02E4F0A3DFFCDED0
:100D8000FA78007F00E4F208DFFC78FFE4F6D8FD93
:100D90007581D0020DC4020000021224E493A3F86E
:100DA000E493A34003F68001F208DFF48029E49382
:100DB000A3F85407240CC8C333C4540F4420C88379
:100DC0004004F456800146F6DFE4800B010204087B
:100DD00010204080901761E47E019360BCA3FF5413
:100DE0003F30E509541FFEE493A360010ECF54C0C9
:100DF00025E060A840B8E493A3FAE493A3F8E49351
:100E0000A3C8C582C8CAC583CAF0A3C8C582C8CA58
:100E1000C583CADFE9DEE780BE754FFF3004048575
:100E20004F242275330075340075352BE4F554AB2F
:100E300033E535F92402F535E534FA3400F534129A
:100E400000DEFFE55425E02436F8A6F008A60705E5
:100E500054E554B404D9E4F554E55425E02436F8B7
:100E6000E6FE08E6FFE55425E02411F9C3E39F19E7
:100E7000E39E4003020F12E55425E0243AF8E6FE13
:100E800008E6FFE55425E02414F8E2FC08E2FDC37F
:100E90009FEC9E4003020F12E5547020E55425E0BC
:100EA0002410F8E2FE08E2FF2428F553E43EF55250
:100EB000EF24BAF551EE34FFF5508021E554B4012A
:100EC0001C25E02410F8E2FE08E2FF243CF553E480
:100ED0003EF552EF24C4F551EE34FFF550C3ED95C5
:100EE00053EC95525008ED9551EC95505011E55446
:100EF00025E02411F9C3E3941419E394005023AFBF
:100F0000547401A807088002C333D8FCF4524FE59B
:100F1000542402FF7401A807088002C333D8FCF4EC
:100F2000524F0554E55464026003020E49854F2474
:100F300022754E077D0774017E00A84E088005C308
:100F400033CE33CED8F9FFACACECFBE4EF5B7003EF
:100F5000D54EE3ED601D74017E00A805088005C331
:100F600033CE33CED8F9FFACAEECFBE4EF5B7003CD
:100F70001D80E0AF4E7401A807088002C333D8FC7F
:100F8000F5AC7401A805088002C333D8FCFFF5ADA9
:100F90008FAE53AACF85BA5753BA0F43BA10E4F5B0
:100FA00052F551F550F54F12000EE4F54E74C5257B
:100FB0004EF8E675F003A424E2F582E4341CF583D0
:100FC000E493740193FA740293F91202C08F568E5F
:100FD000558D548C53AB52AA51A950A84FC312023D
:100FE00026500C85565285555185545085534F05D2
:100FF0004EE54EC3940440B5AF52AE51AD50AC4F28
:101000007802120237E5522FF552E5513EF551E5CF
:10101000503DF550E54F3CF54FAF52AE51AD50FC51
:1010200078101202378FB3AF52AE51AD50AC4F783B
:10103000081202378FB28552B143AA308557BA756C
:10104000AC0375ADC075AEC022C0E0C0F0C083C0B7
:1010500082C0D075D008C2CF30CD0302112530CB6D
:101060004720CC447859A6CEE6FFC3948040307523
:10107000F003EFA42408F582E5F03417F583E49338
:10108000FB740193FA7402938B3F8A40F54105414A
:10109000E5417002054014F912005EF5CE80097832
:1010A00059E6253EF8E6F5CE30CC297859E6C394CA
:1010B000804015AB3F0541E541AA40700205401450
:1010C000F912005EF5CE8069785906E6253EF8E60D
:1010D000F5CE805D20CB5AAFCE7859E6FE7041BF89
:1010E000100553809F804ABF20054380608042BF27
:1010F00050087868E64401F68037BF60087868E6F3
:1011000054FEF6802CBF90107868E64480F678652F
:10111000E6B4081D76008019785AA60F18068011CB
:10112000EEC3940A50087859E6245AF8A60F785965
:101130000678647601D0D0D082D083D0F0D0E0326F
:10114000EFC3940450139000C0E06F600CE4900073
:10115000C9F0A3F09000C0EFF09000C0E0FFA3E062
:101160006F70030212237868E620E7030211FBEF99
:10117000C39403400302121D9000D8E060030212E2
:101180001D04F09000C1E0FFB402209000C0E0FE1A
:101190006306FF53060174A62EF582E43400F5833E
:1011A000E0FDC454F07865F602121DEFC3940250BE
:1011B000479000C0E0FFB40219A3E0FE6306FF53AE
:1011C000060174A62EF582E43400F583E07865F616
:1011D000805B9000C1E024A6F582E43400F583E052
:1011E000FDC454F0FE74A62FF582E43400F583E0CC
:1011F00042067865A60680359000C0E024A6F582F8
:10120000E43400F583E07865F680229000C0E0C306
:10121000940250199000D8E0701304F09000C0E0E0
:1012200024A6F582E43400F583E07865F69000C0EA
:10123000E0A3F022121C907D01E4FF121ADA7F0174
:10124000121C547F01121C73121DDC121DCF121CC4
:101250000E121619121B10121B79D2AF751C01E564
:101260001C24FD601114601924FE602614602A14E9
:1012700060702407706F12198F121598751C048006
:1012800064D2D8E51D70FC12003E121CFA751C06D3
:1012900080531205138F1C804CD39000C8E094003B
:1012A0009000C7E09400400CA3E024FFF09000C73A
:1012B000E034FFF0D37895E2940018E29400400AFD
:1012C00008E224FFF218E234FFF29000C4E004F0D8
:1012D00070069000C3E004F012182B1213078F1C45
:1012E0008003751C049000D8E0B40124E47864F60F
:1012F000FF121DDCE4F0F518F519000519E5197069
:10130000020518B42CF4E518B401EF7F01121DDCBE
:101310001208D802124F22754CFF754D0812147531
:101320001219DA12150D121A1E9000BFEFF0121BDF
:10133000DFEF60577F01121B45AD07AC06D390006D
:10134000C8E094009000C7E09400400FED7802CE12
:10135000C313CE13D8F9FDAC068027300811EDAECB
:10136000047803CEC313CE13D8F9FDAC068013C3A3
:101370007869E2940A18E294005007ECC313FCED7C
:1013800013FDAF05AE041202C68003AF4D229000DC
:10139000BEE0F54CE522602DE49000CBF0A3F09088
:1013A00000CAE004F070069000C9E004F07F051266
:1013B0001B45D39000CAE09F9000C9E09E400D12EB
:1013C00013CE7F0322E49000C9F0A3F0E54C047033
:1013D000051213CE8005AF4C121130AF4D22E490B0
:1013E00000C9F0A3F09000C074FFF0A3E0FFF47018
:1013F0000302146E7868E630E73DEFC3940350664D
:101400009000D8E0706004F09000C1E024A6F5825E
:10141000E43400F583E0FFC454F07865F67F0C12E5
:101420001B457894EEF208EFF218E2C3137994F3B7
:1014300008E21309F3802F9000C1E0C39402502604
:101440009000D8E0702004F07865E64408F67F0C40
:10145000121B457894EEF208EFF218E2C313799468
:10146000F308E21309F37F0C121B457894EEF2089F
:10147000EFF218E2C3137994F308E21309F3900032
:10148000C174FFF022E4F54EE54E25E02410F8E2A9
:10149000F54F08E2F550AE4FFFE4FCFD7B64FAF92E
:1014A000F8120109C006C007E54E25E02496F58232
:1014B000E43400F583E0FEA3E0FFFBAA06E4F9F8BC
:1014C000D007D006120194E54E25E02420F8EEF274
:1014D00008EFF2AE4FAF50E4FCFD7B64FAF9F8126E
:1014E0000109C006C007E54E25E02496F582E434E4
:1014F00000F583E0FEA3E0FFFBAA06E4F9F8D007BD
:10150000D006120194E54E25E02418F8EEF208EF1B
:10151000F2054EE54E6404600302147822E4F54EB1
:10152000E54E25E02408F8E2FE08E2FFE54E25E05E
:101530002400F8E2FC08E2FDC39FEC9E5048E54E13
:1015400025E02409F8C3E29DF55018E29CF54FFE12
:10155000AF50E4FCFD7B64FAF9F8120109C006C043
:1015600007E54E25E02496F582E43400F583E0FE9D
:10157000A3E0FFFBAA06E4F9F8D007D00612019415
:101580008E518F528009E4F54FF550F551F552D345
:10159000E552940AE55194004002D208054EE54E0A
:1015A0006404600302151022E4F54CF54D121CADE5
:1015B0009000BE74FFF09000C0F0A3F0E4A3F090A0
:1015C00000C9F0A3F0A3F0A3F09000DBF0A3F07843
:1015D00094F208F2F521FFEF25E02496F582E43439
:1015E00000F583E0FCA3E0FD9000D3E02DF0900037
:1015F000D2E03CF00FBF02DF9000D2E0FEA3E0FF9C
:101600007C007D0A1200899000D2EEF0A3EFF01268
:101610000F21120A4D1207407F0A121B459000C786
:10162000EEF0A3EFF0121CFA22E4F54C7865760890
:10163000FF121D238F4CE54CBFFF067866760880AD
:1016400004786676FF78677602E408F6786A76FFB3
:10165000FFEFC39402500FEF75F008A42475F876DD
:101660000008761E800DEF75F008A42475F876004A
:101670000876C8EF75F008A42477F8E4F608F6EFCA
:1016800075F008A42479F8E4F608F6EF75F008A4DC
:10169000247BF8E4F608F60FBF04B6753E6522C059
:1016A000E0C0F0C083C082C0D075D000C000C004CC
:1016B000C005C006C007C28D758CD8758AF0051BA1
:1016C000E51B7002051AAE1AFF7C007D64120089CA
:1016D000ED4C70219000C3E0FEA3E0FFD3940AEE2E
:1016E00094004006A3EEF0A3EFF09000C3E4F0A353
:1016F000F0F51AF51BD007D006D005D004D000D0E5
:10170000D0D082D083D0F0D0E032A907E4FDE960E8
:101710005DE4FC74017E00A804088005C333CE3369
:10172000CED8F9FFE9FB7A00EAEF5B701DEC2402EA
:10173000FF74017E00A807088005C333CE33CED8DE
:10174000F9FFEE5AFEEF5B4E60038C4F0D0CBC02AE
:10175000C27868E630E70BEDD3940140028D4FAFBD
:101760004F22EDD3940140037FFF22AF4F227FFF32
:1017700022082B00D200B400B400B408C501030253
:10178000040605FFFF04CD0000000060470096013D
:101790007C019A0041004100460046004600460197
:1017A0000203040506070800000000000000000016
:1017B00000000000000000FF00FFFF00000000002C
:1017C0000000000000000000000000000000000019
:1017D00000000000000000E4FBEB25E025E024B55C
:1017E000F812025DEF2418FFEE34FCFEED34FFFD2D
:1017F000EC34FFFCEB25E025E02495F8120276EBB3
:1018000025E02458F87403F20874E8F2EB25E0248C
:1018100000F87403F20874E8F2EBC394045017EB79
:1018200025E02410F8E4F208F2EB25E02408F8742F
:1018300003F20874E8F20BBB049F22E4FAEA75F0A5
:1018400008A42477FFEA25E02418F8E2FC08E2FD6A
:10185000121D0FEA75F008A42479FFEA25E0241090
:10186000F8E2FC08E2FD121D0FEA75F008A4247BE3
:10187000FBEA25E025E02495F812025DEA25E02444
:1018800059F8E22FFD18E23EFCAF03121D0F0ABA11
:1018900004AB7868E6F52022FE0000FE0008FE009A
:1018A00008FE0010FE0010FE0018FE0018FE0020CA
:1018B000FE0020FE00280000A50000AD0000B500DD
:1018C00000BDFE0058FE0060FE0028FE0030FE0055
:1018D000400100C30000220100BE0100C00100CB96
:1018E000FE00940100AE0100B60100BFFE0050FEF4
:1018F00000607DFFE522604B7814E2FE08E2FF788D
:1019000011E22FF55018E23EF54F7816E2FE08E29C
:10191000FF7813E22FFF18E23EAB07FAEB25E0FF5A
:10192000EA33FEC3E5509FE54F9E50027DFAE55035
:1019300025E0FFE54F33FEC3EB9FEA9E50085305B9
:10194000F580035305F08D2322C0E0C0F0C083C0B2
:1019500082C0D075D01053B9FD75580074C5255894
:10196000F8E675F003A424E2F582E4341CF583E480
:1019700093740193FA740293F91202C0E55825E0BA
:1019800025E024A5F81202760558E558C3940440D2
:10199000CB751D00D0D0D082D083D0F0D0E032E41F
:1019A000FFFE74C52EF8E6901DE59342070EBE04B7
:1019B000F1EF42D4EF42F4EF42E4EFF452DC75AAC7
:1019C0003B75BA0C43BA4043B92053B9BF8FB4E456
:1019D000F5B375B24E75B12075BBFF75A950F5AB67
:1019E00075AC0375ADC075AEC0227820E2FE08E28A
:1019F000FF8E4EF54F7D01ED25E02420F8E2FA0838
:101A0000E2FBC3954FEA954E50048A4E8B4FD3EBC1
:101A10009FEA9E4004AE02AF030DBD04DA786AE58A
:101A20004EF208E54FF27868EEF208EFF222120B60
:101A30009D121BAD120E097868E630E711E52260B1
:101A400008F54EE524524E8022E4F54E801D121812
:101A5000E2121A619000C0E0B4FF0D85224EE5232A
:101A6000524EE524524E800385254EAF4E1216FA93
:101A700022E4FFFEEE75F008A42476F8E624FBFDD0
:101A800018E634FFFCEE25E02419F9C3E39D19E3C1
:101A90009C40149000C0E0FD7401A805088002C3BA
:101AA00033D8FC420780040EBE04C98F25221200E1
:101AB0000EE4F55474C52554F8E675F003A424E249
:101AC000F582E4341CF583E493740193FA74029371
:101AD000F91202C0E55425E025E024A5F8120276AB
:101AE0000554E554C3940440CB22E4FE7C0474C541
:101AF0002CF8E6901DE59342060CBC06F1EF60055C
:101B0000EE42D48004EEF452D4EEF4FF52F4EE42EE
:101B1000E4ED6005EE42EC8003EF52ECEF52DC2284
:101B20007E007FAEE4FDED25E02434F582E4341C34
:101B3000F583E493F4601DED25E02435F582E4346B
:101B40001CF583E493FCEF2DF582E43EF583ECF085
:101B50000DBD10D222754E00754FAE7B017A00BFCD
:101B6000FF057F017E0022E54F2FF582E4354EF51B
:101B700083E07A00FB9000C5E0FCA3E0FDAF037EAC
:101B800000120077AA06AB072243F80875CD405330
:101B9000CC7F43CC4043CC2043CC1043CC0453CC2B
:101BA000FD43CB0243CB0153CBBF43E80853E5FCD5
:101BB00043E30243F50343900343ED0322E4FFFEB6
:101BC000EE75F008A42475F8E6FC08E6FDEE25E0C5
:101BD0002421F9C3E39D19E39C400D7401A8060874
:101BE0008002C333D8FC42070EBE04D48F22227E6B
:101BF000039000BEE06F6007EFF0E49000C2F09049
:101C000000BEE0B4FF02E4FE9000C2E004F0C39E18
:101C100050037F00229000C27403F07F01224389A9
:101C200001C28DD2A953B8FDE4F51AF51B9000C38B
:101C3000F0A3F0A3F0A37464F0758CD8758AF0D289
:101C40008CD2AF2200020101020103010405050646
:101C500006060702080A09020A020B280C010D03F6
:101C60000E01FF01E4FE7D0474C52DF8E6901DE52C
:101C70009342060DBD06F1EF6004EE428022EEF4C1
:101C8000528022EF600543D504800353D5FB53F502
:101C9000FB53E5FB43E30443ED04E49000D8F0225A
:101CA000E4F5E3439F10439F02FF0FBFFFFC539FE8
:101CB000EF75BE0EE4F5BFF5B97592762253BAFE04
:101CC000E5B920E004E51D6005E5B930E1FBE4F588
:101CD000BF53B9FE53B9FD22AB07AA06D3EB9DEA69
:101CE0009C4007EB9DFFEA9CFE22C3ED9BFFEC9A14
:101CF000FE22FF1D37FF1D4AFF1D5DFF1D70FF1DEA
:101D000083FF1D96FF1DA9FF1DBC75BF0F43B920A2
:101D100053B9FD43BA01751D0143B901D2D822ABB5
:101D200007AF04AE05C2AFA803A607E804F8A606ED
:101D3000D2AF22E4FFF582F5837420FEE493F42F02
:101D4000FFA3EEB583F62253B9EF78CEA6B708A667
:101D5000B608A6B578CD12025D2253B9EF78CEA6AB
:101D6000EB08A6EA08A6E978CD12025D2253B9EF86
:101D700078CEA6F308A6F208A6F178CD12025D226D
:101D800053B9EF78CEA6FB08A6FA08A6F978CD12CB
:101D9000025D2243B91078CEA6B708A6B608A6B54C
:101DA00078CD12025D2243B91078CEA6EB08A6EAE0
:101DB00008A6E978CD12025D2243B91078CEA6F3C9
:101DC00008A6F208A6F178CD12025D2243B9107878
:101DD000CEA6FB08A6FA08A6F978CD12025D22C2AB
:101DE000DA53D80F43D8D0D2D8D2D922EF6003D259
:101DF0009222C29222010204081020408040FFFF7C
:101E0000FFFFFFFFFFFFFFFFFFFFFFFFFFFFFFFFE2
:00000001FF
